{
	"contracts/VickEx.sol": {
		"VickreyAuction": {
			"abi": [
				{
					"inputs": [
						{
							"internalType": "uint256",
							"name": "_startDate",
							"type": "uint256"
						},
						{
							"internalType": "uint256",
							"name": "_durationDays",
							"type": "uint256"
						},
						{
							"internalType": "uint256",
							"name": "_maxBid",
							"type": "uint256"
						}
					],
					"stateMutability": "nonpayable",
					"type": "constructor"
				},
				{
					"anonymous": false,
					"inputs": [
						{
							"indexed": true,
							"internalType": "address",
							"name": "winner",
							"type": "address"
						},
						{
							"indexed": false,
							"internalType": "uint256",
							"name": "winningPrice",
							"type": "uint256"
						}
					],
					"name": "AuctionClosed",
					"type": "event"
				},
				{
					"anonymous": false,
					"inputs": [
						{
							"indexed": true,
							"internalType": "address",
							"name": "bidder",
							"type": "address"
						},
						{
							"indexed": false,
							"internalType": "uint256",
							"name": "amount",
							"type": "uint256"
						}
					],
					"name": "BidPlaced",
					"type": "event"
				},
				{
					"anonymous": false,
					"inputs": [
						{
							"indexed": true,
							"internalType": "address",
							"name": "bidder",
							"type": "address"
						},
						{
							"indexed": false,
							"internalType": "uint256",
							"name": "amount",
							"type": "uint256"
						}
					],
					"name": "DepositReturned",
					"type": "event"
				},
				{
					"inputs": [],
					"name": "DEPOSIT_PERCENTAGE",
					"outputs": [
						{
							"internalType": "uint256",
							"name": "",
							"type": "uint256"
						}
					],
					"stateMutability": "view",
					"type": "function"
				},
				{
					"inputs": [],
					"name": "MAX_BIDDERS",
					"outputs": [
						{
							"internalType": "uint256",
							"name": "",
							"type": "uint256"
						}
					],
					"stateMutability": "view",
					"type": "function"
				},
				{
					"inputs": [],
					"name": "auctionEnd",
					"outputs": [
						{
							"internalType": "uint256",
							"name": "",
							"type": "uint256"
						}
					],
					"stateMutability": "view",
					"type": "function"
				},
				{
					"inputs": [],
					"name": "auctionStart",
					"outputs": [
						{
							"internalType": "uint256",
							"name": "",
							"type": "uint256"
						}
					],
					"stateMutability": "view",
					"type": "function"
				},
				{
					"inputs": [
						{
							"internalType": "uint256",
							"name": "",
							"type": "uint256"
						}
					],
					"name": "bidders",
					"outputs": [
						{
							"internalType": "address",
							"name": "",
							"type": "address"
						}
					],
					"stateMutability": "view",
					"type": "function"
				},
				{
					"inputs": [
						{
							"internalType": "uint256",
							"name": "",
							"type": "uint256"
						}
					],
					"name": "bids",
					"outputs": [
						{
							"internalType": "address payable",
							"name": "bidder",
							"type": "address"
						},
						{
							"internalType": "uint256",
							"name": "amount",
							"type": "uint256"
						},
						{
							"internalType": "uint256",
							"name": "timestamp",
							"type": "uint256"
						},
						{
							"internalType": "bool",
							"name": "depositReturned",
							"type": "bool"
						}
					],
					"stateMutability": "view",
					"type": "function"
				},
				{
					"inputs": [],
					"name": "closeAuction",
					"outputs": [],
					"stateMutability": "nonpayable",
					"type": "function"
				},
				{
					"inputs": [],
					"name": "getBidCount",
					"outputs": [
						{
							"internalType": "uint256",
							"name": "",
							"type": "uint256"
						}
					],
					"stateMutability": "view",
					"type": "function"
				},
				{
					"inputs": [
						{
							"internalType": "address",
							"name": "bidder",
							"type": "address"
						}
					],
					"name": "hasAlreadyBid",
					"outputs": [
						{
							"internalType": "bool",
							"name": "",
							"type": "bool"
						}
					],
					"stateMutability": "view",
					"type": "function"
				},
				{
					"inputs": [],
					"name": "maxBid",
					"outputs": [
						{
							"internalType": "uint256",
							"name": "",
							"type": "uint256"
						}
					],
					"stateMutability": "view",
					"type": "function"
				},
				{
					"inputs": [],
					"name": "owner",
					"outputs": [
						{
							"internalType": "address payable",
							"name": "",
							"type": "address"
						}
					],
					"stateMutability": "view",
					"type": "function"
				},
				{
					"inputs": [],
					"name": "placeBid",
					"outputs": [],
					"stateMutability": "payable",
					"type": "function"
				},
				{
					"inputs": [],
					"name": "returnDeposits",
					"outputs": [],
					"stateMutability": "nonpayable",
					"type": "function"
				},
				{
					"inputs": [],
					"name": "state",
					"outputs": [
						{
							"internalType": "enum VickreyAuction.AuctionState",
							"name": "",
							"type": "uint8"
						}
					],
					"stateMutability": "view",
					"type": "function"
				},
				{
					"inputs": [],
					"name": "winner",
					"outputs": [
						{
							"internalType": "address payable",
							"name": "",
							"type": "address"
						}
					],
					"stateMutability": "view",
					"type": "function"
				},
				{
					"inputs": [],
					"name": "winningPrice",
					"outputs": [
						{
							"internalType": "uint256",
							"name": "",
							"type": "uint256"
						}
					],
					"stateMutability": "view",
					"type": "function"
				}
			],
			"devdoc": {
				"kind": "dev",
				"methods": {},
				"version": 1
			},
			"evm": {
				"assembly": "    /* \"contracts/VickEx.sol\":57:4479  contract VickreyAuction {... */\n  mstore(0x40, 0x80)\n    /* \"contracts/VickEx.sol\":1226:1528  constructor(... */\n  callvalue\n  dup1\n  iszero\n  tag_1\n  jumpi\n  revert(0x00, 0x00)\ntag_1:\n  pop\n  mload(0x40)\n  sub(codesize, bytecodeSize)\n  dup1\n  bytecodeSize\n  dup4\n  codecopy\n  dup2\n  dup2\n  add\n  0x40\n  mstore\n  dup2\n  add\n  swap1\n  tag_2\n  swap2\n  swap1\n  tag_3\n  jump\t// in\ntag_2:\n    /* \"contracts/VickEx.sol\":1354:1364  msg.sender */\n  caller\n    /* \"contracts/VickEx.sol\":1338:1343  owner */\n  0x00\n  0x00\n    /* \"contracts/VickEx.sol\":1338:1365  owner = payable(msg.sender) */\n  0x0100\n  exp\n  dup2\n  sload\n  dup2\n  0xffffffffffffffffffffffffffffffffffffffff\n  mul\n  not\n  and\n  swap1\n  dup4\n  0xffffffffffffffffffffffffffffffffffffffff\n  and\n  mul\n  or\n  swap1\n  sstore\n  pop\n    /* \"contracts/VickEx.sol\":1390:1400  _startDate */\n  dup3\n    /* \"contracts/VickEx.sol\":1375:1387  auctionStart */\n  0x01\n    /* \"contracts/VickEx.sol\":1375:1400  auctionStart = _startDate */\n  dup2\n  swap1\n  sstore\n  pop\n    /* \"contracts/VickEx.sol\":1453:1459  1 days */\n  0x015180\n    /* \"contracts/VickEx.sol\":1437:1450  _durationDays */\n  dup3\n    /* \"contracts/VickEx.sol\":1437:1459  _durationDays * 1 days */\n  tag_6\n  swap2\n  swap1\n  tag_7\n  jump\t// in\ntag_6:\n    /* \"contracts/VickEx.sol\":1423:1433  _startDate */\n  dup4\n    /* \"contracts/VickEx.sol\":1423:1460  _startDate + (_durationDays * 1 days) */\n  tag_8\n  swap2\n  swap1\n  tag_9\n  jump\t// in\ntag_8:\n    /* \"contracts/VickEx.sol\":1410:1420  auctionEnd */\n  0x02\n    /* \"contracts/VickEx.sol\":1410:1460  auctionEnd = _startDate + (_durationDays * 1 days) */\n  dup2\n  swap1\n  sstore\n  pop\n    /* \"contracts/VickEx.sol\":1479:1486  _maxBid */\n  dup1\n    /* \"contracts/VickEx.sol\":1470:1476  maxBid */\n  0x03\n    /* \"contracts/VickEx.sol\":1470:1486  maxBid = _maxBid */\n  dup2\n  swap1\n  sstore\n  pop\n    /* \"contracts/VickEx.sol\":1504:1521  AuctionState.Open */\n  0x00\n    /* \"contracts/VickEx.sol\":1496:1501  state */\n  0x04\n  0x00\n    /* \"contracts/VickEx.sol\":1496:1521  state = AuctionState.Open */\n  0x0100\n  exp\n  dup2\n  sload\n  dup2\n  0xff\n  mul\n  not\n  and\n  swap1\n  dup4\n  0x02\n  dup2\n  gt\n  iszero\n  tag_10\n  jumpi\n  tag_11\n  tag_12\n  jump\t// in\ntag_11:\ntag_10:\n  mul\n  or\n  swap1\n  sstore\n  pop\n    /* \"contracts/VickEx.sol\":1226:1528  constructor(... */\n  pop\n  pop\n  pop\n    /* \"contracts/VickEx.sol\":57:4479  contract VickreyAuction {... */\n  jump(tag_13)\n    /* \"#utility.yul\":88:205   */\ntag_15:\n    /* \"#utility.yul\":197:198   */\n  0x00\n    /* \"#utility.yul\":194:195   */\n  0x00\n    /* \"#utility.yul\":187:199   */\n  revert\n    /* \"#utility.yul\":334:411   */\ntag_17:\n    /* \"#utility.yul\":371:378   */\n  0x00\n    /* \"#utility.yul\":400:405   */\n  dup2\n    /* \"#utility.yul\":389:405   */\n  swap1\n  pop\n    /* \"#utility.yul\":334:411   */\n  swap2\n  swap1\n  pop\n  jump\t// out\n    /* \"#utility.yul\":417:539   */\ntag_18:\n    /* \"#utility.yul\":490:514   */\n  tag_27\n    /* \"#utility.yul\":508:513   */\n  dup2\n    /* \"#utility.yul\":490:514   */\n  tag_17\n  jump\t// in\ntag_27:\n    /* \"#utility.yul\":483:488   */\n  dup2\n    /* \"#utility.yul\":480:515   */\n  eq\n    /* \"#utility.yul\":470:533   */\n  tag_28\n  jumpi\n    /* \"#utility.yul\":529:530   */\n  0x00\n    /* \"#utility.yul\":526:527   */\n  0x00\n    /* \"#utility.yul\":519:531   */\n  revert\n    /* \"#utility.yul\":470:533   */\ntag_28:\n    /* \"#utility.yul\":417:539   */\n  pop\n  jump\t// out\n    /* \"#utility.yul\":545:688   */\ntag_19:\n    /* \"#utility.yul\":602:607   */\n  0x00\n    /* \"#utility.yul\":633:639   */\n  dup2\n    /* \"#utility.yul\":627:640   */\n  mload\n    /* \"#utility.yul\":618:640   */\n  swap1\n  pop\n    /* \"#utility.yul\":649:682   */\n  tag_30\n    /* \"#utility.yul\":676:681   */\n  dup2\n    /* \"#utility.yul\":649:682   */\n  tag_18\n  jump\t// in\ntag_30:\n    /* \"#utility.yul\":545:688   */\n  swap3\n  swap2\n  pop\n  pop\n  jump\t// out\n    /* \"#utility.yul\":694:1357   */\ntag_3:\n    /* \"#utility.yul\":782:788   */\n  0x00\n    /* \"#utility.yul\":790:796   */\n  0x00\n    /* \"#utility.yul\":798:804   */\n  0x00\n    /* \"#utility.yul\":847:849   */\n  0x60\n    /* \"#utility.yul\":835:844   */\n  dup5\n    /* \"#utility.yul\":826:833   */\n  dup7\n    /* \"#utility.yul\":822:845   */\n  sub\n    /* \"#utility.yul\":818:850   */\n  slt\n    /* \"#utility.yul\":815:934   */\n  iszero\n  tag_32\n  jumpi\n    /* \"#utility.yul\":853:932   */\n  tag_33\n  tag_15\n  jump\t// in\ntag_33:\n    /* \"#utility.yul\":815:934   */\ntag_32:\n    /* \"#utility.yul\":973:974   */\n  0x00\n    /* \"#utility.yul\":998:1062   */\n  tag_34\n    /* \"#utility.yul\":1054:1061   */\n  dup7\n    /* \"#utility.yul\":1045:1051   */\n  dup3\n    /* \"#utility.yul\":1034:1043   */\n  dup8\n    /* \"#utility.yul\":1030:1052   */\n  add\n    /* \"#utility.yul\":998:1062   */\n  tag_19\n  jump\t// in\ntag_34:\n    /* \"#utility.yul\":988:1062   */\n  swap4\n  pop\n    /* \"#utility.yul\":944:1072   */\n  pop\n    /* \"#utility.yul\":1111:1113   */\n  0x20\n    /* \"#utility.yul\":1137:1201   */\n  tag_35\n    /* \"#utility.yul\":1193:1200   */\n  dup7\n    /* \"#utility.yul\":1184:1190   */\n  dup3\n    /* \"#utility.yul\":1173:1182   */\n  dup8\n    /* \"#utility.yul\":1169:1191   */\n  add\n    /* \"#utility.yul\":1137:1201   */\n  tag_19\n  jump\t// in\ntag_35:\n    /* \"#utility.yul\":1127:1201   */\n  swap3\n  pop\n    /* \"#utility.yul\":1082:1211   */\n  pop\n    /* \"#utility.yul\":1250:1252   */\n  0x40\n    /* \"#utility.yul\":1276:1340   */\n  tag_36\n    /* \"#utility.yul\":1332:1339   */\n  dup7\n    /* \"#utility.yul\":1323:1329   */\n  dup3\n    /* \"#utility.yul\":1312:1321   */\n  dup8\n    /* \"#utility.yul\":1308:1330   */\n  add\n    /* \"#utility.yul\":1276:1340   */\n  tag_19\n  jump\t// in\ntag_36:\n    /* \"#utility.yul\":1266:1340   */\n  swap2\n  pop\n    /* \"#utility.yul\":1221:1350   */\n  pop\n    /* \"#utility.yul\":694:1357   */\n  swap3\n  pop\n  swap3\n  pop\n  swap3\n  jump\t// out\n    /* \"#utility.yul\":1363:1543   */\ntag_20:\n    /* \"#utility.yul\":1411:1488   */\n  0x4e487b7100000000000000000000000000000000000000000000000000000000\n    /* \"#utility.yul\":1408:1409   */\n  0x00\n    /* \"#utility.yul\":1401:1489   */\n  mstore\n    /* \"#utility.yul\":1508:1512   */\n  0x11\n    /* \"#utility.yul\":1505:1506   */\n  0x04\n    /* \"#utility.yul\":1498:1513   */\n  mstore\n    /* \"#utility.yul\":1532:1536   */\n  0x24\n    /* \"#utility.yul\":1529:1530   */\n  0x00\n    /* \"#utility.yul\":1522:1537   */\n  revert\n    /* \"#utility.yul\":1549:1959   */\ntag_7:\n    /* \"#utility.yul\":1589:1596   */\n  0x00\n    /* \"#utility.yul\":1612:1632   */\n  tag_39\n    /* \"#utility.yul\":1630:1631   */\n  dup3\n    /* \"#utility.yul\":1612:1632   */\n  tag_17\n  jump\t// in\ntag_39:\n    /* \"#utility.yul\":1607:1632   */\n  swap2\n  pop\n    /* \"#utility.yul\":1646:1666   */\n  tag_40\n    /* \"#utility.yul\":1664:1665   */\n  dup4\n    /* \"#utility.yul\":1646:1666   */\n  tag_17\n  jump\t// in\ntag_40:\n    /* \"#utility.yul\":1641:1666   */\n  swap3\n  pop\n    /* \"#utility.yul\":1701:1702   */\n  dup3\n    /* \"#utility.yul\":1698:1699   */\n  dup3\n    /* \"#utility.yul\":1694:1703   */\n  mul\n    /* \"#utility.yul\":1723:1753   */\n  tag_41\n    /* \"#utility.yul\":1741:1752   */\n  dup2\n    /* \"#utility.yul\":1723:1753   */\n  tag_17\n  jump\t// in\ntag_41:\n    /* \"#utility.yul\":1712:1753   */\n  swap2\n  pop\n    /* \"#utility.yul\":1902:1903   */\n  dup3\n    /* \"#utility.yul\":1893:1900   */\n  dup3\n    /* \"#utility.yul\":1889:1904   */\n  div\n    /* \"#utility.yul\":1886:1887   */\n  dup5\n    /* \"#utility.yul\":1883:1905   */\n  eq\n    /* \"#utility.yul\":1863:1864   */\n  dup4\n    /* \"#utility.yul\":1856:1865   */\n  iszero\n    /* \"#utility.yul\":1836:1919   */\n  or\n    /* \"#utility.yul\":1813:1952   */\n  tag_42\n  jumpi\n    /* \"#utility.yul\":1932:1950   */\n  tag_43\n  tag_20\n  jump\t// in\ntag_43:\n    /* \"#utility.yul\":1813:1952   */\ntag_42:\n    /* \"#utility.yul\":1597:1959   */\n  pop\n    /* \"#utility.yul\":1549:1959   */\n  swap3\n  swap2\n  pop\n  pop\n  jump\t// out\n    /* \"#utility.yul\":1965:2156   */\ntag_9:\n    /* \"#utility.yul\":2005:2008   */\n  0x00\n    /* \"#utility.yul\":2024:2044   */\n  tag_45\n    /* \"#utility.yul\":2042:2043   */\n  dup3\n    /* \"#utility.yul\":2024:2044   */\n  tag_17\n  jump\t// in\ntag_45:\n    /* \"#utility.yul\":2019:2044   */\n  swap2\n  pop\n    /* \"#utility.yul\":2058:2078   */\n  tag_46\n    /* \"#utility.yul\":2076:2077   */\n  dup4\n    /* \"#utility.yul\":2058:2078   */\n  tag_17\n  jump\t// in\ntag_46:\n    /* \"#utility.yul\":2053:2078   */\n  swap3\n  pop\n    /* \"#utility.yul\":2101:2102   */\n  dup3\n    /* \"#utility.yul\":2098:2099   */\n  dup3\n    /* \"#utility.yul\":2094:2103   */\n  add\n    /* \"#utility.yul\":2087:2103   */\n  swap1\n  pop\n    /* \"#utility.yul\":2122:2125   */\n  dup1\n    /* \"#utility.yul\":2119:2120   */\n  dup3\n    /* \"#utility.yul\":2116:2126   */\n  gt\n    /* \"#utility.yul\":2113:2149   */\n  iszero\n  tag_47\n  jumpi\n    /* \"#utility.yul\":2129:2147   */\n  tag_48\n  tag_20\n  jump\t// in\ntag_48:\n    /* \"#utility.yul\":2113:2149   */\ntag_47:\n    /* \"#utility.yul\":1965:2156   */\n  swap3\n  swap2\n  pop\n  pop\n  jump\t// out\n    /* \"#utility.yul\":2162:2342   */\ntag_12:\n    /* \"#utility.yul\":2210:2287   */\n  0x4e487b7100000000000000000000000000000000000000000000000000000000\n    /* \"#utility.yul\":2207:2208   */\n  0x00\n    /* \"#utility.yul\":2200:2288   */\n  mstore\n    /* \"#utility.yul\":2307:2311   */\n  0x21\n    /* \"#utility.yul\":2304:2305   */\n  0x04\n    /* \"#utility.yul\":2297:2312   */\n  mstore\n    /* \"#utility.yul\":2331:2335   */\n  0x24\n    /* \"#utility.yul\":2328:2329   */\n  0x00\n    /* \"#utility.yul\":2321:2336   */\n  revert\n    /* \"contracts/VickEx.sol\":57:4479  contract VickreyAuction {... */\ntag_13:\n  dataSize(sub_0)\n  dup1\n  dataOffset(sub_0)\n  0x00\n  codecopy\n  0x00\n  return\nstop\n\nsub_0: assembly {\n        /* \"contracts/VickEx.sol\":57:4479  contract VickreyAuction {... */\n      mstore(0x40, 0x80)\n      jumpi(tag_1, lt(calldatasize, 0x04))\n      shr(0xe0, calldataload(0x00))\n      dup1\n      0x5a84d52a\n      gt\n      tag_18\n      jumpi\n      dup1\n      0xc1f52604\n      gt\n      tag_19\n      jumpi\n      dup1\n      0xc1f52604\n      eq\n      tag_14\n      jumpi\n      dup1\n      0xcff29dfd\n      eq\n      tag_15\n      jumpi\n      dup1\n      0xdfbf53ae\n      eq\n      tag_16\n      jumpi\n      dup1\n      0xecfc7ecc\n      eq\n      tag_17\n      jumpi\n      jump(tag_1)\n    tag_19:\n      dup1\n      0x5a84d52a\n      eq\n      tag_10\n      jumpi\n      dup1\n      0x74b11d8a\n      eq\n      tag_11\n      jumpi\n      dup1\n      0x8da5cb5b\n      eq\n      tag_12\n      jumpi\n      dup1\n      0xc19d93fb\n      eq\n      tag_13\n      jumpi\n      jump(tag_1)\n    tag_18:\n      dup1\n      0x378252f2\n      gt\n      tag_20\n      jumpi\n      dup1\n      0x378252f2\n      eq\n      tag_6\n      jumpi\n      dup1\n      0x4423c5f1\n      eq\n      tag_7\n      jumpi\n      dup1\n      0x4cc4f50d\n      eq\n      tag_8\n      jumpi\n      dup1\n      0x4f245ef7\n      eq\n      tag_9\n      jumpi\n      jump(tag_1)\n    tag_20:\n      dup1\n      0x235f0e46\n      eq\n      tag_2\n      jumpi\n      dup1\n      0x28f6a48a\n      eq\n      tag_3\n      jumpi\n      dup1\n      0x2a24f46c\n      eq\n      tag_4\n      jumpi\n      dup1\n      0x362e2565\n      eq\n      tag_5\n      jumpi\n    tag_1:\n      revert(0x00, 0x00)\n        /* \"contracts/VickEx.sol\":4140:4383  function hasAlreadyBid(address bidder) public view returns (bool) {... */\n    tag_2:\n      callvalue\n      dup1\n      iszero\n      tag_21\n      jumpi\n      revert(0x00, 0x00)\n    tag_21:\n      pop\n      tag_22\n      0x04\n      dup1\n      calldatasize\n      sub\n      dup2\n      add\n      swap1\n      tag_23\n      swap2\n      swap1\n      tag_24\n      jump\t// in\n    tag_23:\n      tag_25\n      jump\t// in\n    tag_22:\n      mload(0x40)\n      tag_26\n      swap2\n      swap1\n      tag_27\n      jump\t// in\n    tag_26:\n      mload(0x40)\n      dup1\n      swap2\n      sub\n      swap1\n      return\n        /* \"contracts/VickEx.sol\":4389:4477  function getBidCount() public view returns (uint256) {... */\n    tag_3:\n      callvalue\n      dup1\n      iszero\n      tag_28\n      jumpi\n      revert(0x00, 0x00)\n    tag_28:\n      pop\n      tag_29\n      tag_30\n      jump\t// in\n    tag_29:\n      mload(0x40)\n      tag_31\n      swap2\n      swap1\n      tag_32\n      jump\t// in\n    tag_31:\n      mload(0x40)\n      dup1\n      swap2\n      sub\n      swap1\n      return\n        /* \"contracts/VickEx.sol\":154:179  uint256 public auctionEnd */\n    tag_4:\n      callvalue\n      dup1\n      iszero\n      tag_33\n      jumpi\n      revert(0x00, 0x00)\n    tag_33:\n      pop\n      tag_34\n      tag_35\n      jump\t// in\n    tag_34:\n      mload(0x40)\n      tag_36\n      swap2\n      swap1\n      tag_32\n      jump\t// in\n    tag_36:\n      mload(0x40)\n      dup1\n      swap2\n      sub\n      swap1\n      return\n        /* \"contracts/VickEx.sol\":3564:4134  function returnDeposits() external onlyOwner {... */\n    tag_5:\n      callvalue\n      dup1\n      iszero\n      tag_37\n      jumpi\n      revert(0x00, 0x00)\n    tag_37:\n      pop\n      tag_38\n      tag_39\n      jump\t// in\n    tag_38:\n      stop\n        /* \"contracts/VickEx.sol\":2182:2324  function closeAuction() external onlyOwner {... */\n    tag_6:\n      callvalue\n      dup1\n      iszero\n      tag_40\n      jumpi\n      revert(0x00, 0x00)\n    tag_40:\n      pop\n      tag_41\n      tag_42\n      jump\t// in\n    tag_41:\n      stop\n        /* \"contracts/VickEx.sol\":539:556  Bid[] public bids */\n    tag_7:\n      callvalue\n      dup1\n      iszero\n      tag_43\n      jumpi\n      revert(0x00, 0x00)\n    tag_43:\n      pop\n      tag_44\n      0x04\n      dup1\n      calldatasize\n      sub\n      dup2\n      add\n      swap1\n      tag_45\n      swap2\n      swap1\n      tag_46\n      jump\t// in\n    tag_45:\n      tag_47\n      jump\t// in\n    tag_44:\n      mload(0x40)\n      tag_48\n      swap5\n      swap4\n      swap3\n      swap2\n      swap1\n      tag_49\n      jump\t// in\n    tag_48:\n      mload(0x40)\n      dup1\n      swap2\n      sub\n      swap1\n      return\n        /* \"contracts/VickEx.sol\":212:252  uint256 public constant MAX_BIDDERS = 30 */\n    tag_8:\n      callvalue\n      dup1\n      iszero\n      tag_50\n      jumpi\n      revert(0x00, 0x00)\n    tag_50:\n      pop\n      tag_51\n      tag_52\n      jump\t// in\n    tag_51:\n      mload(0x40)\n      tag_53\n      swap2\n      swap1\n      tag_32\n      jump\t// in\n    tag_53:\n      mload(0x40)\n      dup1\n      swap2\n      sub\n      swap1\n      return\n        /* \"contracts/VickEx.sol\":121:148  uint256 public auctionStart */\n    tag_9:\n      callvalue\n      dup1\n      iszero\n      tag_54\n      jumpi\n      revert(0x00, 0x00)\n    tag_54:\n      pop\n      tag_55\n      tag_56\n      jump\t// in\n    tag_55:\n      mload(0x40)\n      tag_57\n      swap2\n      swap1\n      tag_32\n      jump\t// in\n    tag_57:\n      mload(0x40)\n      dup1\n      swap2\n      sub\n      swap1\n      return\n        /* \"contracts/VickEx.sol\":258:305  uint256 public constant DEPOSIT_PERCENTAGE = 10 */\n    tag_10:\n      callvalue\n      dup1\n      iszero\n      tag_58\n      jumpi\n      revert(0x00, 0x00)\n    tag_58:\n      pop\n      tag_59\n      tag_60\n      jump\t// in\n    tag_59:\n      mload(0x40)\n      tag_61\n      swap2\n      swap1\n      tag_32\n      jump\t// in\n    tag_61:\n      mload(0x40)\n      dup1\n      swap2\n      sub\n      swap1\n      return\n        /* \"contracts/VickEx.sol\":185:206  uint256 public maxBid */\n    tag_11:\n      callvalue\n      dup1\n      iszero\n      tag_62\n      jumpi\n      revert(0x00, 0x00)\n    tag_62:\n      pop\n      tag_63\n      tag_64\n      jump\t// in\n    tag_63:\n      mload(0x40)\n      tag_65\n      swap2\n      swap1\n      tag_32\n      jump\t// in\n    tag_65:\n      mload(0x40)\n      dup1\n      swap2\n      sub\n      swap1\n      return\n        /* \"contracts/VickEx.sol\":87:115  address payable public owner */\n    tag_12:\n      callvalue\n      dup1\n      iszero\n      tag_66\n      jumpi\n      revert(0x00, 0x00)\n    tag_66:\n      pop\n      tag_67\n      tag_68\n      jump\t// in\n    tag_67:\n      mload(0x40)\n      tag_69\n      swap2\n      swap1\n      tag_70\n      jump\t// in\n    tag_69:\n      mload(0x40)\n      dup1\n      swap2\n      sub\n      swap1\n      return\n        /* \"contracts/VickEx.sol\":366:391  AuctionState public state */\n    tag_13:\n      callvalue\n      dup1\n      iszero\n      tag_71\n      jumpi\n      revert(0x00, 0x00)\n    tag_71:\n      pop\n      tag_72\n      tag_73\n      jump\t// in\n    tag_72:\n      mload(0x40)\n      tag_74\n      swap2\n      swap1\n      tag_75\n      jump\t// in\n    tag_74:\n      mload(0x40)\n      dup1\n      swap2\n      sub\n      swap1\n      return\n        /* \"contracts/VickEx.sol\":627:654  uint256 public winningPrice */\n    tag_14:\n      callvalue\n      dup1\n      iszero\n      tag_76\n      jumpi\n      revert(0x00, 0x00)\n    tag_76:\n      pop\n      tag_77\n      tag_78\n      jump\t// in\n    tag_77:\n      mload(0x40)\n      tag_79\n      swap2\n      swap1\n      tag_32\n      jump\t// in\n    tag_79:\n      mload(0x40)\n      dup1\n      swap2\n      sub\n      swap1\n      return\n        /* \"contracts/VickEx.sol\":562:586  address[] public bidders */\n    tag_15:\n      callvalue\n      dup1\n      iszero\n      tag_80\n      jumpi\n      revert(0x00, 0x00)\n    tag_80:\n      pop\n      tag_81\n      0x04\n      dup1\n      calldatasize\n      sub\n      dup2\n      add\n      swap1\n      tag_82\n      swap2\n      swap1\n      tag_46\n      jump\t// in\n    tag_82:\n      tag_83\n      jump\t// in\n    tag_81:\n      mload(0x40)\n      tag_84\n      swap2\n      swap1\n      tag_85\n      jump\t// in\n    tag_84:\n      mload(0x40)\n      dup1\n      swap2\n      sub\n      swap1\n      return\n        /* \"contracts/VickEx.sol\":592:621  address payable public winner */\n    tag_16:\n      callvalue\n      dup1\n      iszero\n      tag_86\n      jumpi\n      revert(0x00, 0x00)\n    tag_86:\n      pop\n      tag_87\n      tag_88\n      jump\t// in\n    tag_87:\n      mload(0x40)\n      tag_89\n      swap2\n      swap1\n      tag_70\n      jump\t// in\n    tag_89:\n      mload(0x40)\n      dup1\n      swap2\n      sub\n      swap1\n      return\n        /* \"contracts/VickEx.sol\":1534:2176  function placeBid() external payable auctionOpen {... */\n    tag_17:\n      tag_90\n      tag_91\n      jump\t// in\n    tag_90:\n      stop\n        /* \"contracts/VickEx.sol\":4140:4383  function hasAlreadyBid(address bidder) public view returns (bool) {... */\n    tag_25:\n        /* \"contracts/VickEx.sol\":4200:4204  bool */\n      0x00\n        /* \"contracts/VickEx.sol\":4221:4230  uint256 i */\n      0x00\n        /* \"contracts/VickEx.sol\":4233:4234  0 */\n      0x00\n        /* \"contracts/VickEx.sol\":4221:4234  uint256 i = 0 */\n      swap1\n      pop\n        /* \"contracts/VickEx.sol\":4216:4355  for (uint256 i = 0; i < bidders.length; i++) {... */\n    tag_93:\n        /* \"contracts/VickEx.sol\":4240:4247  bidders */\n      0x06\n        /* \"contracts/VickEx.sol\":4240:4254  bidders.length */\n      dup1\n      sload\n      swap1\n      pop\n        /* \"contracts/VickEx.sol\":4236:4237  i */\n      dup2\n        /* \"contracts/VickEx.sol\":4236:4254  i < bidders.length */\n      lt\n        /* \"contracts/VickEx.sol\":4216:4355  for (uint256 i = 0; i < bidders.length; i++) {... */\n      iszero\n      tag_94\n      jumpi\n        /* \"contracts/VickEx.sol\":4293:4299  bidder */\n      dup3\n        /* \"contracts/VickEx.sol\":4279:4299  bidders[i] == bidder */\n      0xffffffffffffffffffffffffffffffffffffffff\n      and\n        /* \"contracts/VickEx.sol\":4279:4286  bidders */\n      0x06\n        /* \"contracts/VickEx.sol\":4287:4288  i */\n      dup3\n        /* \"contracts/VickEx.sol\":4279:4289  bidders[i] */\n      dup2\n      sload\n      dup2\n      lt\n      tag_96\n      jumpi\n      tag_97\n      tag_98\n      jump\t// in\n    tag_97:\n    tag_96:\n      swap1\n      0x00\n      mstore\n      keccak256(0x00, 0x20)\n      add\n      0x00\n      swap1\n      sload\n      swap1\n      0x0100\n      exp\n      swap1\n      div\n      0xffffffffffffffffffffffffffffffffffffffff\n      and\n        /* \"contracts/VickEx.sol\":4279:4299  bidders[i] == bidder */\n      0xffffffffffffffffffffffffffffffffffffffff\n      and\n      sub\n        /* \"contracts/VickEx.sol\":4275:4345  if (bidders[i] == bidder) {... */\n      tag_100\n      jumpi\n        /* \"contracts/VickEx.sol\":4326:4330  true */\n      0x01\n        /* \"contracts/VickEx.sol\":4319:4330  return true */\n      swap2\n      pop\n      pop\n      jump(tag_92)\n        /* \"contracts/VickEx.sol\":4275:4345  if (bidders[i] == bidder) {... */\n    tag_100:\n        /* \"contracts/VickEx.sol\":4256:4259  i++ */\n      dup1\n      dup1\n      0x01\n      add\n      swap2\n      pop\n      pop\n        /* \"contracts/VickEx.sol\":4216:4355  for (uint256 i = 0; i < bidders.length; i++) {... */\n      jump(tag_93)\n    tag_94:\n      pop\n        /* \"contracts/VickEx.sol\":4371:4376  false */\n      0x00\n        /* \"contracts/VickEx.sol\":4364:4376  return false */\n      swap1\n      pop\n        /* \"contracts/VickEx.sol\":4140:4383  function hasAlreadyBid(address bidder) public view returns (bool) {... */\n    tag_92:\n      swap2\n      swap1\n      pop\n      jump\t// out\n        /* \"contracts/VickEx.sol\":4389:4477  function getBidCount() public view returns (uint256) {... */\n    tag_30:\n        /* \"contracts/VickEx.sol\":4433:4440  uint256 */\n      0x00\n        /* \"contracts/VickEx.sol\":4459:4463  bids */\n      0x05\n        /* \"contracts/VickEx.sol\":4459:4470  bids.length */\n      dup1\n      sload\n      swap1\n      pop\n        /* \"contracts/VickEx.sol\":4452:4470  return bids.length */\n      swap1\n      pop\n        /* \"contracts/VickEx.sol\":4389:4477  function getBidCount() public view returns (uint256) {... */\n      swap1\n      jump\t// out\n        /* \"contracts/VickEx.sol\":154:179  uint256 public auctionEnd */\n    tag_35:\n      sload(0x02)\n      dup2\n      jump\t// out\n        /* \"contracts/VickEx.sol\":3564:4134  function returnDeposits() external onlyOwner {... */\n    tag_39:\n        /* \"contracts/VickEx.sol\":918:923  owner */\n      0x00\n      0x00\n      swap1\n      sload\n      swap1\n      0x0100\n      exp\n      swap1\n      div\n      0xffffffffffffffffffffffffffffffffffffffff\n      and\n        /* \"contracts/VickEx.sol\":904:923  msg.sender == owner */\n      0xffffffffffffffffffffffffffffffffffffffff\n      and\n        /* \"contracts/VickEx.sol\":904:914  msg.sender */\n      caller\n        /* \"contracts/VickEx.sol\":904:923  msg.sender == owner */\n      0xffffffffffffffffffffffffffffffffffffffff\n      and\n      eq\n        /* \"contracts/VickEx.sol\":896:974  require(msg.sender == owner, \"Solo el propietario puede realizar esta accion\") */\n      tag_103\n      jumpi\n      mload(0x40)\n      0x08c379a000000000000000000000000000000000000000000000000000000000\n      dup2\n      mstore\n      0x04\n      add\n      tag_104\n      swap1\n      tag_105\n      jump\t// in\n    tag_104:\n      mload(0x40)\n      dup1\n      swap2\n      sub\n      swap1\n      revert\n    tag_103:\n        /* \"contracts/VickEx.sol\":3636:3655  AuctionState.Closed */\n      0x01\n        /* \"contracts/VickEx.sol\":3627:3655  state == AuctionState.Closed */\n      0x02\n      dup2\n      gt\n      iszero\n      tag_107\n      jumpi\n      tag_108\n      tag_109\n      jump\t// in\n    tag_108:\n    tag_107:\n        /* \"contracts/VickEx.sol\":3627:3632  state */\n      0x04\n      0x00\n      swap1\n      sload\n      swap1\n      0x0100\n      exp\n      swap1\n      div\n      0xff\n      and\n        /* \"contracts/VickEx.sol\":3627:3655  state == AuctionState.Closed */\n      0x02\n      dup2\n      gt\n      iszero\n      tag_110\n      jumpi\n      tag_111\n      tag_109\n      jump\t// in\n    tag_111:\n    tag_110:\n      eq\n        /* \"contracts/VickEx.sol\":3619:3681  require(state == AuctionState.Closed, \"Subasta no finalizada\") */\n      tag_112\n      jumpi\n      mload(0x40)\n      0x08c379a000000000000000000000000000000000000000000000000000000000\n      dup2\n      mstore\n      0x04\n      add\n      tag_113\n      swap1\n      tag_114\n      jump\t// in\n    tag_113:\n      mload(0x40)\n      dup1\n      swap2\n      sub\n      swap1\n      revert\n    tag_112:\n        /* \"contracts/VickEx.sol\":3705:3714  uint256 i */\n      0x00\n        /* \"contracts/VickEx.sol\":3717:3718  0 */\n      0x00\n        /* \"contracts/VickEx.sol\":3705:3718  uint256 i = 0 */\n      swap1\n      pop\n        /* \"contracts/VickEx.sol\":3700:4079  for (uint256 i = 0; i < bids.length; i++) {... */\n    tag_115:\n        /* \"contracts/VickEx.sol\":3724:3728  bids */\n      0x05\n        /* \"contracts/VickEx.sol\":3724:3735  bids.length */\n      dup1\n      sload\n      swap1\n      pop\n        /* \"contracts/VickEx.sol\":3720:3721  i */\n      dup2\n        /* \"contracts/VickEx.sol\":3720:3735  i < bids.length */\n      lt\n        /* \"contracts/VickEx.sol\":3700:4079  for (uint256 i = 0; i < bids.length; i++) {... */\n      iszero\n      tag_116\n      jumpi\n        /* \"contracts/VickEx.sol\":3778:3784  winner */\n      0x07\n      0x00\n      swap1\n      sload\n      swap1\n      0x0100\n      exp\n      swap1\n      div\n      0xffffffffffffffffffffffffffffffffffffffff\n      and\n        /* \"contracts/VickEx.sol\":3760:3784  bids[i].bidder != winner */\n      0xffffffffffffffffffffffffffffffffffffffff\n      and\n        /* \"contracts/VickEx.sol\":3760:3764  bids */\n      0x05\n        /* \"contracts/VickEx.sol\":3765:3766  i */\n      dup3\n        /* \"contracts/VickEx.sol\":3760:3767  bids[i] */\n      dup2\n      sload\n      dup2\n      lt\n      tag_118\n      jumpi\n      tag_119\n      tag_98\n      jump\t// in\n    tag_119:\n    tag_118:\n      swap1\n      0x00\n      mstore\n      keccak256(0x00, 0x20)\n      swap1\n      0x04\n      mul\n      add\n        /* \"contracts/VickEx.sol\":3760:3774  bids[i].bidder */\n      0x00\n      add\n      0x00\n      swap1\n      sload\n      swap1\n      0x0100\n      exp\n      swap1\n      div\n      0xffffffffffffffffffffffffffffffffffffffff\n      and\n        /* \"contracts/VickEx.sol\":3760:3784  bids[i].bidder != winner */\n      0xffffffffffffffffffffffffffffffffffffffff\n      and\n      eq\n      iszero\n        /* \"contracts/VickEx.sol\":3760:3812  bids[i].bidder != winner && !bids[i].depositReturned */\n      dup1\n      iszero\n      tag_121\n      jumpi\n      pop\n        /* \"contracts/VickEx.sol\":3789:3793  bids */\n      0x05\n        /* \"contracts/VickEx.sol\":3794:3795  i */\n      dup2\n        /* \"contracts/VickEx.sol\":3789:3796  bids[i] */\n      dup2\n      sload\n      dup2\n      lt\n      tag_122\n      jumpi\n      tag_123\n      tag_98\n      jump\t// in\n    tag_123:\n    tag_122:\n      swap1\n      0x00\n      mstore\n      keccak256(0x00, 0x20)\n      swap1\n      0x04\n      mul\n      add\n        /* \"contracts/VickEx.sol\":3789:3812  bids[i].depositReturned */\n      0x03\n      add\n      0x00\n      swap1\n      sload\n      swap1\n      0x0100\n      exp\n      swap1\n      div\n      0xff\n      and\n        /* \"contracts/VickEx.sol\":3788:3812  !bids[i].depositReturned */\n      iszero\n        /* \"contracts/VickEx.sol\":3760:3812  bids[i].bidder != winner && !bids[i].depositReturned */\n    tag_121:\n        /* \"contracts/VickEx.sol\":3756:4069  if (bids[i].bidder != winner && !bids[i].depositReturned) {... */\n      iszero\n      tag_125\n      jumpi\n        /* \"contracts/VickEx.sol\":3832:3847  uint256 deposit */\n      0x00\n        /* \"contracts/VickEx.sol\":3890:3893  100 */\n      0x64\n        /* \"contracts/VickEx.sol\":303:305  10 */\n      0x0a\n        /* \"contracts/VickEx.sol\":3851:3855  bids */\n      0x05\n        /* \"contracts/VickEx.sol\":3856:3857  i */\n      dup5\n        /* \"contracts/VickEx.sol\":3851:3858  bids[i] */\n      dup2\n      sload\n      dup2\n      lt\n      tag_126\n      jumpi\n      tag_127\n      tag_98\n      jump\t// in\n    tag_127:\n    tag_126:\n      swap1\n      0x00\n      mstore\n      keccak256(0x00, 0x20)\n      swap1\n      0x04\n      mul\n      add\n        /* \"contracts/VickEx.sol\":3851:3865  bids[i].amount */\n      0x01\n      add\n      sload\n        /* \"contracts/VickEx.sol\":3851:3886  bids[i].amount * DEPOSIT_PERCENTAGE */\n      tag_129\n      swap2\n      swap1\n      tag_130\n      jump\t// in\n    tag_129:\n        /* \"contracts/VickEx.sol\":3850:3893  (bids[i].amount * DEPOSIT_PERCENTAGE) / 100 */\n      tag_131\n      swap2\n      swap1\n      tag_132\n      jump\t// in\n    tag_131:\n        /* \"contracts/VickEx.sol\":3832:3893  uint256 deposit = (bids[i].amount * DEPOSIT_PERCENTAGE) / 100 */\n      swap1\n      pop\n        /* \"contracts/VickEx.sol\":3937:3941  true */\n      0x01\n        /* \"contracts/VickEx.sol\":3911:3915  bids */\n      0x05\n        /* \"contracts/VickEx.sol\":3916:3917  i */\n      dup4\n        /* \"contracts/VickEx.sol\":3911:3918  bids[i] */\n      dup2\n      sload\n      dup2\n      lt\n      tag_133\n      jumpi\n      tag_134\n      tag_98\n      jump\t// in\n    tag_134:\n    tag_133:\n      swap1\n      0x00\n      mstore\n      keccak256(0x00, 0x20)\n      swap1\n      0x04\n      mul\n      add\n        /* \"contracts/VickEx.sol\":3911:3934  bids[i].depositReturned */\n      0x03\n      add\n      0x00\n        /* \"contracts/VickEx.sol\":3911:3941  bids[i].depositReturned = true */\n      0x0100\n      exp\n      dup2\n      sload\n      dup2\n      0xff\n      mul\n      not\n      and\n      swap1\n      dup4\n      iszero\n      iszero\n      mul\n      or\n      swap1\n      sstore\n      pop\n        /* \"contracts/VickEx.sol\":3959:3963  bids */\n      0x05\n        /* \"contracts/VickEx.sol\":3964:3965  i */\n      dup3\n        /* \"contracts/VickEx.sol\":3959:3966  bids[i] */\n      dup2\n      sload\n      dup2\n      lt\n      tag_136\n      jumpi\n      tag_137\n      tag_98\n      jump\t// in\n    tag_137:\n    tag_136:\n      swap1\n      0x00\n      mstore\n      keccak256(0x00, 0x20)\n      swap1\n      0x04\n      mul\n      add\n        /* \"contracts/VickEx.sol\":3959:3973  bids[i].bidder */\n      0x00\n      add\n      0x00\n      swap1\n      sload\n      swap1\n      0x0100\n      exp\n      swap1\n      div\n      0xffffffffffffffffffffffffffffffffffffffff\n      and\n        /* \"contracts/VickEx.sol\":3959:3982  bids[i].bidder.transfer */\n      0xffffffffffffffffffffffffffffffffffffffff\n      and\n        /* \"contracts/VickEx.sol\":3959:3991  bids[i].bidder.transfer(deposit) */\n      0x08fc\n        /* \"contracts/VickEx.sol\":3983:3990  deposit */\n      dup3\n        /* \"contracts/VickEx.sol\":3959:3991  bids[i].bidder.transfer(deposit) */\n      swap1\n      dup2\n      iszero\n      mul\n      swap1\n      mload(0x40)\n      0x00\n      mload(0x40)\n      dup1\n      dup4\n      sub\n      dup2\n      dup6\n      dup9\n      dup9\n      call\n      swap4\n      pop\n      pop\n      pop\n      pop\n      iszero\n      dup1\n      iszero\n      tag_140\n      jumpi\n      returndatacopy(0x00, 0x00, returndatasize)\n      revert(0x00, returndatasize)\n    tag_140:\n      pop\n        /* \"contracts/VickEx.sol\":4030:4034  bids */\n      0x05\n        /* \"contracts/VickEx.sol\":4035:4036  i */\n      dup3\n        /* \"contracts/VickEx.sol\":4030:4037  bids[i] */\n      dup2\n      sload\n      dup2\n      lt\n      tag_141\n      jumpi\n      tag_142\n      tag_98\n      jump\t// in\n    tag_142:\n    tag_141:\n      swap1\n      0x00\n      mstore\n      keccak256(0x00, 0x20)\n      swap1\n      0x04\n      mul\n      add\n        /* \"contracts/VickEx.sol\":4030:4044  bids[i].bidder */\n      0x00\n      add\n      0x00\n      swap1\n      sload\n      swap1\n      0x0100\n      exp\n      swap1\n      div\n      0xffffffffffffffffffffffffffffffffffffffff\n      and\n        /* \"contracts/VickEx.sol\":4014:4054  DepositReturned(bids[i].bidder, deposit) */\n      0xffffffffffffffffffffffffffffffffffffffff\n      and\n      0xa09244c122a83074363635dc89ce0098166c2f74827960ff64a7c8e6ad1c57a2\n        /* \"contracts/VickEx.sol\":4046:4053  deposit */\n      dup3\n        /* \"contracts/VickEx.sol\":4014:4054  DepositReturned(bids[i].bidder, deposit) */\n      mload(0x40)\n      tag_144\n      swap2\n      swap1\n      tag_32\n      jump\t// in\n    tag_144:\n      mload(0x40)\n      dup1\n      swap2\n      sub\n      swap1\n      log2\n        /* \"contracts/VickEx.sol\":3814:4069  {... */\n      pop\n        /* \"contracts/VickEx.sol\":3756:4069  if (bids[i].bidder != winner && !bids[i].depositReturned) {... */\n    tag_125:\n        /* \"contracts/VickEx.sol\":3737:3740  i++ */\n      dup1\n      dup1\n      0x01\n      add\n      swap2\n      pop\n      pop\n        /* \"contracts/VickEx.sol\":3700:4079  for (uint256 i = 0; i < bids.length; i++) {... */\n      jump(tag_115)\n    tag_116:\n      pop\n        /* \"contracts/VickEx.sol\":4105:4127  AuctionState.Completed */\n      0x02\n        /* \"contracts/VickEx.sol\":4097:4102  state */\n      0x04\n      0x00\n        /* \"contracts/VickEx.sol\":4097:4127  state = AuctionState.Completed */\n      0x0100\n      exp\n      dup2\n      sload\n      dup2\n      0xff\n      mul\n      not\n      and\n      swap1\n      dup4\n      0x02\n      dup2\n      gt\n      iszero\n      tag_145\n      jumpi\n      tag_146\n      tag_109\n      jump\t// in\n    tag_146:\n    tag_145:\n      mul\n      or\n      swap1\n      sstore\n      pop\n        /* \"contracts/VickEx.sol\":3564:4134  function returnDeposits() external onlyOwner {... */\n      jump\t// out\n        /* \"contracts/VickEx.sol\":2182:2324  function closeAuction() external onlyOwner {... */\n    tag_42:\n        /* \"contracts/VickEx.sol\":918:923  owner */\n      0x00\n      0x00\n      swap1\n      sload\n      swap1\n      0x0100\n      exp\n      swap1\n      div\n      0xffffffffffffffffffffffffffffffffffffffff\n      and\n        /* \"contracts/VickEx.sol\":904:923  msg.sender == owner */\n      0xffffffffffffffffffffffffffffffffffffffff\n      and\n        /* \"contracts/VickEx.sol\":904:914  msg.sender */\n      caller\n        /* \"contracts/VickEx.sol\":904:923  msg.sender == owner */\n      0xffffffffffffffffffffffffffffffffffffffff\n      and\n      eq\n        /* \"contracts/VickEx.sol\":896:974  require(msg.sender == owner, \"Solo el propietario puede realizar esta accion\") */\n      tag_148\n      jumpi\n      mload(0x40)\n      0x08c379a000000000000000000000000000000000000000000000000000000000\n      dup2\n      mstore\n      0x04\n      add\n      tag_149\n      swap1\n      tag_105\n      jump\t// in\n    tag_149:\n      mload(0x40)\n      dup1\n      swap2\n      sub\n      swap1\n      revert\n    tag_148:\n        /* \"contracts/VickEx.sol\":2252:2269  AuctionState.Open */\n      0x00\n        /* \"contracts/VickEx.sol\":2243:2269  state == AuctionState.Open */\n      0x02\n      dup2\n      gt\n      iszero\n      tag_151\n      jumpi\n      tag_152\n      tag_109\n      jump\t// in\n    tag_152:\n    tag_151:\n        /* \"contracts/VickEx.sol\":2243:2248  state */\n      0x04\n      0x00\n      swap1\n      sload\n      swap1\n      0x0100\n      exp\n      swap1\n      div\n      0xff\n      and\n        /* \"contracts/VickEx.sol\":2243:2269  state == AuctionState.Open */\n      0x02\n      dup2\n      gt\n      iszero\n      tag_153\n      jumpi\n      tag_154\n      tag_109\n      jump\t// in\n    tag_154:\n    tag_153:\n      eq\n        /* \"contracts/VickEx.sol\":2235:2292  require(state == AuctionState.Open, \"Subasta ya cerrada\") */\n      tag_155\n      jumpi\n      mload(0x40)\n      0x08c379a000000000000000000000000000000000000000000000000000000000\n      dup2\n      mstore\n      0x04\n      add\n      tag_156\n      swap1\n      tag_157\n      jump\t// in\n    tag_156:\n      mload(0x40)\n      dup1\n      swap2\n      sub\n      swap1\n      revert\n    tag_155:\n        /* \"contracts/VickEx.sol\":2302:2317  _closeAuction() */\n      tag_158\n        /* \"contracts/VickEx.sol\":2302:2315  _closeAuction */\n      tag_159\n        /* \"contracts/VickEx.sol\":2302:2317  _closeAuction() */\n      jump\t// in\n    tag_158:\n        /* \"contracts/VickEx.sol\":2182:2324  function closeAuction() external onlyOwner {... */\n      jump\t// out\n        /* \"contracts/VickEx.sol\":539:556  Bid[] public bids */\n    tag_47:\n      0x05\n      dup2\n      dup2\n      sload\n      dup2\n      lt\n      tag_160\n      jumpi\n      0x00\n      dup1\n      revert\n    tag_160:\n      swap1\n      0x00\n      mstore\n      keccak256(0x00, 0x20)\n      swap1\n      0x04\n      mul\n      add\n      0x00\n      swap2\n      pop\n      swap1\n      pop\n      dup1\n      0x00\n      add\n      0x00\n      swap1\n      sload\n      swap1\n      0x0100\n      exp\n      swap1\n      div\n      0xffffffffffffffffffffffffffffffffffffffff\n      and\n      swap1\n      dup1\n      0x01\n      add\n      sload\n      swap1\n      dup1\n      0x02\n      add\n      sload\n      swap1\n      dup1\n      0x03\n      add\n      0x00\n      swap1\n      sload\n      swap1\n      0x0100\n      exp\n      swap1\n      div\n      0xff\n      and\n      swap1\n      pop\n      dup5\n      jump\t// out\n        /* \"contracts/VickEx.sol\":212:252  uint256 public constant MAX_BIDDERS = 30 */\n    tag_52:\n        /* \"contracts/VickEx.sol\":250:252  30 */\n      0x1e\n        /* \"contracts/VickEx.sol\":212:252  uint256 public constant MAX_BIDDERS = 30 */\n      dup2\n      jump\t// out\n        /* \"contracts/VickEx.sol\":121:148  uint256 public auctionStart */\n    tag_56:\n      sload(0x01)\n      dup2\n      jump\t// out\n        /* \"contracts/VickEx.sol\":258:305  uint256 public constant DEPOSIT_PERCENTAGE = 10 */\n    tag_60:\n        /* \"contracts/VickEx.sol\":303:305  10 */\n      0x0a\n        /* \"contracts/VickEx.sol\":258:305  uint256 public constant DEPOSIT_PERCENTAGE = 10 */\n      dup2\n      jump\t// out\n        /* \"contracts/VickEx.sol\":185:206  uint256 public maxBid */\n    tag_64:\n      sload(0x03)\n      dup2\n      jump\t// out\n        /* \"contracts/VickEx.sol\":87:115  address payable public owner */\n    tag_68:\n      0x00\n      0x00\n      swap1\n      sload\n      swap1\n      0x0100\n      exp\n      swap1\n      div\n      0xffffffffffffffffffffffffffffffffffffffff\n      and\n      dup2\n      jump\t// out\n        /* \"contracts/VickEx.sol\":366:391  AuctionState public state */\n    tag_73:\n      0x04\n      0x00\n      swap1\n      sload\n      swap1\n      0x0100\n      exp\n      swap1\n      div\n      0xff\n      and\n      dup2\n      jump\t// out\n        /* \"contracts/VickEx.sol\":627:654  uint256 public winningPrice */\n    tag_78:\n      sload(0x08)\n      dup2\n      jump\t// out\n        /* \"contracts/VickEx.sol\":562:586  address[] public bidders */\n    tag_83:\n      0x06\n      dup2\n      dup2\n      sload\n      dup2\n      lt\n      tag_162\n      jumpi\n      0x00\n      dup1\n      revert\n    tag_162:\n      swap1\n      0x00\n      mstore\n      keccak256(0x00, 0x20)\n      add\n      0x00\n      swap2\n      pop\n      sload\n      swap1\n      0x0100\n      exp\n      swap1\n      div\n      0xffffffffffffffffffffffffffffffffffffffff\n      and\n      dup2\n      jump\t// out\n        /* \"contracts/VickEx.sol\":592:621  address payable public winner */\n    tag_88:\n      0x07\n      0x00\n      swap1\n      sload\n      swap1\n      0x0100\n      exp\n      swap1\n      div\n      0xffffffffffffffffffffffffffffffffffffffff\n      and\n      dup2\n      jump\t// out\n        /* \"contracts/VickEx.sol\":1534:2176  function placeBid() external payable auctionOpen {... */\n    tag_91:\n        /* \"contracts/VickEx.sol\":1048:1065  AuctionState.Open */\n      0x00\n        /* \"contracts/VickEx.sol\":1039:1065  state == AuctionState.Open */\n      0x02\n      dup2\n      gt\n      iszero\n      tag_165\n      jumpi\n      tag_166\n      tag_109\n      jump\t// in\n    tag_166:\n    tag_165:\n        /* \"contracts/VickEx.sol\":1039:1044  state */\n      0x04\n      0x00\n      swap1\n      sload\n      swap1\n      0x0100\n      exp\n      swap1\n      div\n      0xff\n      and\n        /* \"contracts/VickEx.sol\":1039:1065  state == AuctionState.Open */\n      0x02\n      dup2\n      gt\n      iszero\n      tag_167\n      jumpi\n      tag_168\n      tag_109\n      jump\t// in\n    tag_168:\n    tag_167:\n      eq\n        /* \"contracts/VickEx.sol\":1031:1087  require(state == AuctionState.Open, \"Subasta no activa\") */\n      tag_169\n      jumpi\n      mload(0x40)\n      0x08c379a000000000000000000000000000000000000000000000000000000000\n      dup2\n      mstore\n      0x04\n      add\n      tag_170\n      swap1\n      tag_171\n      jump\t// in\n    tag_170:\n      mload(0x40)\n      dup1\n      swap2\n      sub\n      swap1\n      revert\n    tag_169:\n        /* \"contracts/VickEx.sol\":1124:1136  auctionStart */\n      sload(0x01)\n        /* \"contracts/VickEx.sol\":1105:1120  block.timestamp */\n      timestamp\n        /* \"contracts/VickEx.sol\":1105:1136  block.timestamp >= auctionStart */\n      lt\n      iszero\n        /* \"contracts/VickEx.sol\":1105:1169  block.timestamp >= auctionStart && block.timestamp <= auctionEnd */\n      dup1\n      iszero\n      tag_172\n      jumpi\n      pop\n        /* \"contracts/VickEx.sol\":1159:1169  auctionEnd */\n      sload(0x02)\n        /* \"contracts/VickEx.sol\":1140:1155  block.timestamp */\n      timestamp\n        /* \"contracts/VickEx.sol\":1140:1169  block.timestamp <= auctionEnd */\n      gt\n      iszero\n        /* \"contracts/VickEx.sol\":1105:1169  block.timestamp >= auctionStart && block.timestamp <= auctionEnd */\n    tag_172:\n        /* \"contracts/VickEx.sol\":1097:1202  require(block.timestamp >= auctionStart && block.timestamp <= auctionEnd, \"Fuera del periodo de subasta\") */\n      tag_173\n      jumpi\n      mload(0x40)\n      0x08c379a000000000000000000000000000000000000000000000000000000000\n      dup2\n      mstore\n      0x04\n      add\n      tag_174\n      swap1\n      tag_175\n      jump\t// in\n    tag_174:\n      mload(0x40)\n      dup1\n      swap2\n      sub\n      swap1\n      revert\n    tag_173:\n        /* \"contracts/VickEx.sol\":1613:1614  0 */\n      0x00\n        /* \"contracts/VickEx.sol\":1601:1610  msg.value */\n      callvalue\n        /* \"contracts/VickEx.sol\":1601:1614  msg.value > 0 */\n      gt\n        /* \"contracts/VickEx.sol\":1593:1650  require(msg.value > 0, \"La puja debe ser mayor que cero\") */\n      tag_177\n      jumpi\n      mload(0x40)\n      0x08c379a000000000000000000000000000000000000000000000000000000000\n      dup2\n      mstore\n      0x04\n      add\n      tag_178\n      swap1\n      tag_179\n      jump\t// in\n    tag_178:\n      mload(0x40)\n      dup1\n      swap2\n      sub\n      swap1\n      revert\n    tag_177:\n        /* \"contracts/VickEx.sol\":1681:1687  maxBid */\n      sload(0x03)\n        /* \"contracts/VickEx.sol\":1668:1677  msg.value */\n      callvalue\n        /* \"contracts/VickEx.sol\":1668:1687  msg.value <= maxBid */\n      gt\n      iszero\n        /* \"contracts/VickEx.sol\":1660:1723  require(msg.value <= maxBid, \"Puja excede el maximo permitido\") */\n      tag_180\n      jumpi\n      mload(0x40)\n      0x08c379a000000000000000000000000000000000000000000000000000000000\n      dup2\n      mstore\n      0x04\n      add\n      tag_181\n      swap1\n      tag_182\n      jump\t// in\n    tag_181:\n      mload(0x40)\n      dup1\n      swap2\n      sub\n      swap1\n      revert\n    tag_180:\n        /* \"contracts/VickEx.sol\":1742:1767  hasAlreadyBid(msg.sender) */\n      tag_183\n        /* \"contracts/VickEx.sol\":1756:1766  msg.sender */\n      caller\n        /* \"contracts/VickEx.sol\":1742:1755  hasAlreadyBid */\n      tag_25\n        /* \"contracts/VickEx.sol\":1742:1767  hasAlreadyBid(msg.sender) */\n      jump\t// in\n    tag_183:\n        /* \"contracts/VickEx.sol\":1741:1767  !hasAlreadyBid(msg.sender) */\n      iszero\n        /* \"contracts/VickEx.sol\":1733:1785  require(!hasAlreadyBid(msg.sender), \"Ya has pujado\") */\n      tag_184\n      jumpi\n      mload(0x40)\n      0x08c379a000000000000000000000000000000000000000000000000000000000\n      dup2\n      mstore\n      0x04\n      add\n      tag_185\n      swap1\n      tag_186\n      jump\t// in\n    tag_185:\n      mload(0x40)\n      dup1\n      swap2\n      sub\n      swap1\n      revert\n    tag_184:\n        /* \"contracts/VickEx.sol\":1804:1819  uint256 deposit */\n      0x00\n        /* \"contracts/VickEx.sol\":1857:1860  100 */\n      0x64\n        /* \"contracts/VickEx.sol\":303:305  10 */\n      0x0a\n        /* \"contracts/VickEx.sol\":1823:1832  msg.value */\n      callvalue\n        /* \"contracts/VickEx.sol\":1823:1853  msg.value * DEPOSIT_PERCENTAGE */\n      tag_187\n      swap2\n      swap1\n      tag_130\n      jump\t// in\n    tag_187:\n        /* \"contracts/VickEx.sol\":1822:1860  (msg.value * DEPOSIT_PERCENTAGE) / 100 */\n      tag_188\n      swap2\n      swap1\n      tag_132\n      jump\t// in\n    tag_188:\n        /* \"contracts/VickEx.sol\":1804:1860  uint256 deposit = (msg.value * DEPOSIT_PERCENTAGE) / 100 */\n      swap1\n      pop\n        /* \"contracts/VickEx.sol\":1891:1898  deposit */\n      dup1\n        /* \"contracts/VickEx.sol\":1878:1887  msg.value */\n      callvalue\n        /* \"contracts/VickEx.sol\":1878:1898  msg.value >= deposit */\n      lt\n      iszero\n        /* \"contracts/VickEx.sol\":1870:1924  require(msg.value >= deposit, \"Deposito insuficiente\") */\n      tag_189\n      jumpi\n      mload(0x40)\n      0x08c379a000000000000000000000000000000000000000000000000000000000\n      dup2\n      mstore\n      0x04\n      add\n      tag_190\n      swap1\n      tag_191\n      jump\t// in\n    tag_190:\n      mload(0x40)\n      dup1\n      swap2\n      sub\n      swap1\n      revert\n    tag_189:\n        /* \"contracts/VickEx.sol\":1935:1939  bids */\n      0x05\n        /* \"contracts/VickEx.sol\":1945:2004  Bid(payable(msg.sender), msg.value, block.timestamp, false) */\n      mload(0x40)\n      dup1\n      0x80\n      add\n      0x40\n      mstore\n      dup1\n        /* \"contracts/VickEx.sol\":1957:1967  msg.sender */\n      caller\n        /* \"contracts/VickEx.sol\":1945:2004  Bid(payable(msg.sender), msg.value, block.timestamp, false) */\n      0xffffffffffffffffffffffffffffffffffffffff\n      and\n      dup2\n      mstore\n      0x20\n      add\n        /* \"contracts/VickEx.sol\":1970:1979  msg.value */\n      callvalue\n        /* \"contracts/VickEx.sol\":1945:2004  Bid(payable(msg.sender), msg.value, block.timestamp, false) */\n      dup2\n      mstore\n      0x20\n      add\n        /* \"contracts/VickEx.sol\":1981:1996  block.timestamp */\n      timestamp\n        /* \"contracts/VickEx.sol\":1945:2004  Bid(payable(msg.sender), msg.value, block.timestamp, false) */\n      dup2\n      mstore\n      0x20\n      add\n        /* \"contracts/VickEx.sol\":1998:2003  false */\n      0x00\n        /* \"contracts/VickEx.sol\":1945:2004  Bid(payable(msg.sender), msg.value, block.timestamp, false) */\n      iszero\n      iszero\n      dup2\n      mstore\n      pop\n        /* \"contracts/VickEx.sol\":1935:2005  bids.push(Bid(payable(msg.sender), msg.value, block.timestamp, false)) */\n      swap1\n      dup1\n      0x01\n      dup2\n      sload\n      add\n      dup1\n      dup3\n      sstore\n      dup1\n      swap2\n      pop\n      pop\n      0x01\n      swap1\n      sub\n      swap1\n      0x00\n      mstore\n      keccak256(0x00, 0x20)\n      swap1\n      0x04\n      mul\n      add\n      0x00\n      swap1\n      swap2\n      swap1\n      swap2\n      swap1\n      swap2\n      pop\n      0x00\n      dup3\n      add\n      mload\n      dup2\n      0x00\n      add\n      exp(0x0100, 0x00)\n      dup2\n      sload\n      dup2\n      0xffffffffffffffffffffffffffffffffffffffff\n      mul\n      not\n      and\n      swap1\n      dup4\n      0xffffffffffffffffffffffffffffffffffffffff\n      and\n      mul\n      or\n      swap1\n      sstore\n      pop\n      0x20\n      dup3\n      add\n      mload\n      dup2\n      0x01\n      add\n      sstore\n      0x40\n      dup3\n      add\n      mload\n      dup2\n      0x02\n      add\n      sstore\n      0x60\n      dup3\n      add\n      mload\n      dup2\n      0x03\n      add\n      exp(0x0100, 0x00)\n      dup2\n      sload\n      dup2\n      0xff\n      mul\n      not\n      and\n      swap1\n      dup4\n      iszero\n      iszero\n      mul\n      or\n      swap1\n      sstore\n      pop\n      pop\n      pop\n        /* \"contracts/VickEx.sol\":2015:2022  bidders */\n      0x06\n        /* \"contracts/VickEx.sol\":2028:2038  msg.sender */\n      caller\n        /* \"contracts/VickEx.sol\":2015:2039  bidders.push(msg.sender) */\n      swap1\n      dup1\n      0x01\n      dup2\n      sload\n      add\n      dup1\n      dup3\n      sstore\n      dup1\n      swap2\n      pop\n      pop\n      0x01\n      swap1\n      sub\n      swap1\n      0x00\n      mstore\n      keccak256(0x00, 0x20)\n      add\n      0x00\n      swap1\n      swap2\n      swap1\n      swap2\n      swap1\n      swap2\n      0x0100\n      exp\n      dup2\n      sload\n      dup2\n      0xffffffffffffffffffffffffffffffffffffffff\n      mul\n      not\n      and\n      swap1\n      dup4\n      0xffffffffffffffffffffffffffffffffffffffff\n      and\n      mul\n      or\n      swap1\n      sstore\n      pop\n        /* \"contracts/VickEx.sol\":250:252  30 */\n      0x1e\n        /* \"contracts/VickEx.sol\":2054:2058  bids */\n      0x05\n        /* \"contracts/VickEx.sol\":2054:2065  bids.length */\n      dup1\n      sload\n      swap1\n      pop\n        /* \"contracts/VickEx.sol\":2054:2080  bids.length == MAX_BIDDERS */\n      sub\n        /* \"contracts/VickEx.sol\":2050:2122  if (bids.length == MAX_BIDDERS) {... */\n      tag_194\n      jumpi\n        /* \"contracts/VickEx.sol\":2096:2111  _closeAuction() */\n      tag_195\n        /* \"contracts/VickEx.sol\":2096:2109  _closeAuction */\n      tag_159\n        /* \"contracts/VickEx.sol\":2096:2111  _closeAuction() */\n      jump\t// in\n    tag_195:\n        /* \"contracts/VickEx.sol\":2050:2122  if (bids.length == MAX_BIDDERS) {... */\n    tag_194:\n        /* \"contracts/VickEx.sol\":2147:2157  msg.sender */\n      caller\n        /* \"contracts/VickEx.sol\":2137:2169  BidPlaced(msg.sender, msg.value) */\n      0xffffffffffffffffffffffffffffffffffffffff\n      and\n      0x3fabff0a9c3ecd6814702e247fa9733e5d0aa69e3a38590f92cb18f623a2254d\n        /* \"contracts/VickEx.sol\":2159:2168  msg.value */\n      callvalue\n        /* \"contracts/VickEx.sol\":2137:2169  BidPlaced(msg.sender, msg.value) */\n      mload(0x40)\n      tag_196\n      swap2\n      swap1\n      tag_32\n      jump\t// in\n    tag_196:\n      mload(0x40)\n      dup1\n      swap2\n      sub\n      swap1\n      log2\n        /* \"contracts/VickEx.sol\":1583:2176  {... */\n      pop\n        /* \"contracts/VickEx.sol\":1534:2176  function placeBid() external payable auctionOpen {... */\n      jump\t// out\n        /* \"contracts/VickEx.sol\":2330:2510  function _closeAuction() private {... */\n    tag_159:\n        /* \"contracts/VickEx.sol\":2381:2400  AuctionState.Closed */\n      0x01\n        /* \"contracts/VickEx.sol\":2373:2378  state */\n      0x04\n      0x00\n        /* \"contracts/VickEx.sol\":2373:2400  state = AuctionState.Closed */\n      0x0100\n      exp\n      dup2\n      sload\n      dup2\n      0xff\n      mul\n      not\n      and\n      swap1\n      dup4\n      0x02\n      dup2\n      gt\n      iszero\n      tag_198\n      jumpi\n      tag_199\n      tag_109\n      jump\t// in\n    tag_199:\n    tag_198:\n      mul\n      or\n      swap1\n      sstore\n      pop\n        /* \"contracts/VickEx.sol\":2435:2453  _determineWinner() */\n      tag_200\n        /* \"contracts/VickEx.sol\":2435:2451  _determineWinner */\n      tag_201\n        /* \"contracts/VickEx.sol\":2435:2453  _determineWinner() */\n      jump\t// in\n    tag_200:\n        /* \"contracts/VickEx.sol\":2411:2417  winner */\n      0x07\n      0x00\n        /* \"contracts/VickEx.sol\":2419:2431  winningPrice */\n      0x08\n      0x00\n        /* \"contracts/VickEx.sol\":2410:2453  (winner, winningPrice) = _determineWinner() */\n      dup5\n      swap2\n      swap1\n      pop\n      sstore\n      dup4\n      swap2\n      swap1\n      0x0100\n      exp\n      dup2\n      sload\n      dup2\n      0xffffffffffffffffffffffffffffffffffffffff\n      mul\n      not\n      and\n      swap1\n      dup4\n      0xffffffffffffffffffffffffffffffffffffffff\n      and\n      mul\n      or\n      swap1\n      sstore\n      pop\n      pop\n      pop\n        /* \"contracts/VickEx.sol\":2482:2488  winner */\n      0x07\n      0x00\n      swap1\n      sload\n      swap1\n      0x0100\n      exp\n      swap1\n      div\n      0xffffffffffffffffffffffffffffffffffffffff\n      and\n        /* \"contracts/VickEx.sol\":2468:2503  AuctionClosed(winner, winningPrice) */\n      0xffffffffffffffffffffffffffffffffffffffff\n      and\n      0x1d78ca6377547e2f5434a04066a4dcac7670fd77e146b686b06bf8fbc06fb435\n        /* \"contracts/VickEx.sol\":2490:2502  winningPrice */\n      sload(0x08)\n        /* \"contracts/VickEx.sol\":2468:2503  AuctionClosed(winner, winningPrice) */\n      mload(0x40)\n      tag_202\n      swap2\n      swap1\n      tag_32\n      jump\t// in\n    tag_202:\n      mload(0x40)\n      dup1\n      swap2\n      sub\n      swap1\n      log2\n        /* \"contracts/VickEx.sol\":2330:2510  function _closeAuction() private {... */\n      jump\t// out\n        /* \"contracts/VickEx.sol\":2516:3558  function _determineWinner() private view returns (address payable, uint256) {... */\n    tag_201:\n        /* \"contracts/VickEx.sol\":2566:2581  address payable */\n      0x00\n        /* \"contracts/VickEx.sol\":2583:2590  uint256 */\n      0x00\n        /* \"contracts/VickEx.sol\":2624:2625  0 */\n      0x00\n        /* \"contracts/VickEx.sol\":2610:2614  bids */\n      0x05\n        /* \"contracts/VickEx.sol\":2610:2621  bids.length */\n      dup1\n      sload\n      swap1\n      pop\n        /* \"contracts/VickEx.sol\":2610:2625  bids.length > 0 */\n      gt\n        /* \"contracts/VickEx.sol\":2602:2642  require(bids.length > 0, \"No hay pujas\") */\n      tag_204\n      jumpi\n      mload(0x40)\n      0x08c379a000000000000000000000000000000000000000000000000000000000\n      dup2\n      mstore\n      0x04\n      add\n      tag_205\n      swap1\n      tag_206\n      jump\t// in\n    tag_205:\n      mload(0x40)\n      dup1\n      swap2\n      sub\n      swap1\n      revert\n    tag_204:\n        /* \"contracts/VickEx.sol\":2661:2675  uint256 lowest */\n      0x00\n        /* \"contracts/VickEx.sol\":2678:2684  maxBid */\n      sload(0x03)\n        /* \"contracts/VickEx.sol\":2661:2684  uint256 lowest = maxBid */\n      swap1\n      pop\n        /* \"contracts/VickEx.sol\":2694:2714  uint256 secondLowest */\n      0x00\n        /* \"contracts/VickEx.sol\":2717:2723  maxBid */\n      sload(0x03)\n        /* \"contracts/VickEx.sol\":2694:2723  uint256 secondLowest = maxBid */\n      swap1\n      pop\n        /* \"contracts/VickEx.sol\":2733:2762  address payable winnerAddress */\n      0x00\n        /* \"contracts/VickEx.sol\":2772:2795  uint256 winnerTimestamp */\n      0x00\n        /* \"contracts/VickEx.sol\":2798:2815  type(uint256).max */\n      0xffffffffffffffffffffffffffffffffffffffffffffffffffffffffffffffff\n        /* \"contracts/VickEx.sol\":2772:2815  uint256 winnerTimestamp = type(uint256).max */\n      swap1\n      pop\n        /* \"contracts/VickEx.sol\":2831:2840  uint256 i */\n      0x00\n        /* \"contracts/VickEx.sol\":2843:2844  0 */\n      0x00\n        /* \"contracts/VickEx.sol\":2831:2844  uint256 i = 0 */\n      swap1\n      pop\n        /* \"contracts/VickEx.sol\":2826:3477  for (uint256 i = 0; i < bids.length; i++) {... */\n    tag_207:\n        /* \"contracts/VickEx.sol\":2850:2854  bids */\n      0x05\n        /* \"contracts/VickEx.sol\":2850:2861  bids.length */\n      dup1\n      sload\n      swap1\n      pop\n        /* \"contracts/VickEx.sol\":2846:2847  i */\n      dup2\n        /* \"contracts/VickEx.sol\":2846:2861  i < bids.length */\n      lt\n        /* \"contracts/VickEx.sol\":2826:3477  for (uint256 i = 0; i < bids.length; i++) {... */\n      iszero\n      tag_208\n      jumpi\n        /* \"contracts/VickEx.sol\":2903:2909  lowest */\n      dup5\n        /* \"contracts/VickEx.sol\":2886:2890  bids */\n      0x05\n        /* \"contracts/VickEx.sol\":2891:2892  i */\n      dup3\n        /* \"contracts/VickEx.sol\":2886:2893  bids[i] */\n      dup2\n      sload\n      dup2\n      lt\n      tag_210\n      jumpi\n      tag_211\n      tag_98\n      jump\t// in\n    tag_211:\n    tag_210:\n      swap1\n      0x00\n      mstore\n      keccak256(0x00, 0x20)\n      swap1\n      0x04\n      mul\n      add\n        /* \"contracts/VickEx.sol\":2886:2900  bids[i].amount */\n      0x01\n      add\n      sload\n        /* \"contracts/VickEx.sol\":2886:2909  bids[i].amount < lowest */\n      lt\n        /* \"contracts/VickEx.sol\":2882:3467  if (bids[i].amount < lowest) {... */\n      iszero\n      tag_213\n      jumpi\n        /* \"contracts/VickEx.sol\":2944:2950  lowest */\n      dup5\n        /* \"contracts/VickEx.sol\":2929:2950  secondLowest = lowest */\n      swap4\n      pop\n        /* \"contracts/VickEx.sol\":2977:2981  bids */\n      0x05\n        /* \"contracts/VickEx.sol\":2982:2983  i */\n      dup2\n        /* \"contracts/VickEx.sol\":2977:2984  bids[i] */\n      dup2\n      sload\n      dup2\n      lt\n      tag_214\n      jumpi\n      tag_215\n      tag_98\n      jump\t// in\n    tag_215:\n    tag_214:\n      swap1\n      0x00\n      mstore\n      keccak256(0x00, 0x20)\n      swap1\n      0x04\n      mul\n      add\n        /* \"contracts/VickEx.sol\":2977:2991  bids[i].amount */\n      0x01\n      add\n      sload\n        /* \"contracts/VickEx.sol\":2968:2991  lowest = bids[i].amount */\n      swap5\n      pop\n        /* \"contracts/VickEx.sol\":3025:3029  bids */\n      0x05\n        /* \"contracts/VickEx.sol\":3030:3031  i */\n      dup2\n        /* \"contracts/VickEx.sol\":3025:3032  bids[i] */\n      dup2\n      sload\n      dup2\n      lt\n      tag_217\n      jumpi\n      tag_218\n      tag_98\n      jump\t// in\n    tag_218:\n    tag_217:\n      swap1\n      0x00\n      mstore\n      keccak256(0x00, 0x20)\n      swap1\n      0x04\n      mul\n      add\n        /* \"contracts/VickEx.sol\":3025:3039  bids[i].bidder */\n      0x00\n      add\n      0x00\n      swap1\n      sload\n      swap1\n      0x0100\n      exp\n      swap1\n      div\n      0xffffffffffffffffffffffffffffffffffffffff\n      and\n        /* \"contracts/VickEx.sol\":3009:3039  winnerAddress = bids[i].bidder */\n      swap3\n      pop\n        /* \"contracts/VickEx.sol\":3075:3079  bids */\n      0x05\n        /* \"contracts/VickEx.sol\":3080:3081  i */\n      dup2\n        /* \"contracts/VickEx.sol\":3075:3082  bids[i] */\n      dup2\n      sload\n      dup2\n      lt\n      tag_220\n      jumpi\n      tag_221\n      tag_98\n      jump\t// in\n    tag_221:\n    tag_220:\n      swap1\n      0x00\n      mstore\n      keccak256(0x00, 0x20)\n      swap1\n      0x04\n      mul\n      add\n        /* \"contracts/VickEx.sol\":3075:3092  bids[i].timestamp */\n      0x02\n      add\n      sload\n        /* \"contracts/VickEx.sol\":3057:3092  winnerTimestamp = bids[i].timestamp */\n      swap2\n      pop\n        /* \"contracts/VickEx.sol\":2882:3467  if (bids[i].amount < lowest) {... */\n      jump(tag_223)\n    tag_213:\n        /* \"contracts/VickEx.sol\":3135:3141  lowest */\n      dup5\n        /* \"contracts/VickEx.sol\":3117:3121  bids */\n      0x05\n        /* \"contracts/VickEx.sol\":3122:3123  i */\n      dup3\n        /* \"contracts/VickEx.sol\":3117:3124  bids[i] */\n      dup2\n      sload\n      dup2\n      lt\n      tag_224\n      jumpi\n      tag_225\n      tag_98\n      jump\t// in\n    tag_225:\n    tag_224:\n      swap1\n      0x00\n      mstore\n      keccak256(0x00, 0x20)\n      swap1\n      0x04\n      mul\n      add\n        /* \"contracts/VickEx.sol\":3117:3131  bids[i].amount */\n      0x01\n      add\n      sload\n        /* \"contracts/VickEx.sol\":3117:3141  bids[i].amount == lowest */\n      eq\n        /* \"contracts/VickEx.sol\":3117:3180  bids[i].amount == lowest && bids[i].timestamp < winnerTimestamp */\n      dup1\n      iszero\n      tag_227\n      jumpi\n      pop\n        /* \"contracts/VickEx.sol\":3165:3180  winnerTimestamp */\n      dup2\n        /* \"contracts/VickEx.sol\":3145:3149  bids */\n      0x05\n        /* \"contracts/VickEx.sol\":3150:3151  i */\n      dup3\n        /* \"contracts/VickEx.sol\":3145:3152  bids[i] */\n      dup2\n      sload\n      dup2\n      lt\n      tag_228\n      jumpi\n      tag_229\n      tag_98\n      jump\t// in\n    tag_229:\n    tag_228:\n      swap1\n      0x00\n      mstore\n      keccak256(0x00, 0x20)\n      swap1\n      0x04\n      mul\n      add\n        /* \"contracts/VickEx.sol\":3145:3162  bids[i].timestamp */\n      0x02\n      add\n      sload\n        /* \"contracts/VickEx.sol\":3145:3180  bids[i].timestamp < winnerTimestamp */\n      lt\n        /* \"contracts/VickEx.sol\":3117:3180  bids[i].amount == lowest && bids[i].timestamp < winnerTimestamp */\n    tag_227:\n        /* \"contracts/VickEx.sol\":3113:3467  if (bids[i].amount == lowest && bids[i].timestamp < winnerTimestamp) {... */\n      iszero\n      tag_231\n      jumpi\n        /* \"contracts/VickEx.sol\":3215:3221  lowest */\n      dup5\n        /* \"contracts/VickEx.sol\":3200:3221  secondLowest = lowest */\n      swap4\n      pop\n        /* \"contracts/VickEx.sol\":3255:3259  bids */\n      0x05\n        /* \"contracts/VickEx.sol\":3260:3261  i */\n      dup2\n        /* \"contracts/VickEx.sol\":3255:3262  bids[i] */\n      dup2\n      sload\n      dup2\n      lt\n      tag_232\n      jumpi\n      tag_233\n      tag_98\n      jump\t// in\n    tag_233:\n    tag_232:\n      swap1\n      0x00\n      mstore\n      keccak256(0x00, 0x20)\n      swap1\n      0x04\n      mul\n      add\n        /* \"contracts/VickEx.sol\":3255:3269  bids[i].bidder */\n      0x00\n      add\n      0x00\n      swap1\n      sload\n      swap1\n      0x0100\n      exp\n      swap1\n      div\n      0xffffffffffffffffffffffffffffffffffffffff\n      and\n        /* \"contracts/VickEx.sol\":3239:3269  winnerAddress = bids[i].bidder */\n      swap3\n      pop\n        /* \"contracts/VickEx.sol\":3305:3309  bids */\n      0x05\n        /* \"contracts/VickEx.sol\":3310:3311  i */\n      dup2\n        /* \"contracts/VickEx.sol\":3305:3312  bids[i] */\n      dup2\n      sload\n      dup2\n      lt\n      tag_235\n      jumpi\n      tag_236\n      tag_98\n      jump\t// in\n    tag_236:\n    tag_235:\n      swap1\n      0x00\n      mstore\n      keccak256(0x00, 0x20)\n      swap1\n      0x04\n      mul\n      add\n        /* \"contracts/VickEx.sol\":3305:3322  bids[i].timestamp */\n      0x02\n      add\n      sload\n        /* \"contracts/VickEx.sol\":3287:3322  winnerTimestamp = bids[i].timestamp */\n      swap2\n      pop\n        /* \"contracts/VickEx.sol\":3113:3467  if (bids[i].amount == lowest && bids[i].timestamp < winnerTimestamp) {... */\n      jump(tag_238)\n    tag_231:\n        /* \"contracts/VickEx.sol\":3364:3376  secondLowest */\n      dup4\n        /* \"contracts/VickEx.sol\":3347:3351  bids */\n      0x05\n        /* \"contracts/VickEx.sol\":3352:3353  i */\n      dup3\n        /* \"contracts/VickEx.sol\":3347:3354  bids[i] */\n      dup2\n      sload\n      dup2\n      lt\n      tag_239\n      jumpi\n      tag_240\n      tag_98\n      jump\t// in\n    tag_240:\n    tag_239:\n      swap1\n      0x00\n      mstore\n      keccak256(0x00, 0x20)\n      swap1\n      0x04\n      mul\n      add\n        /* \"contracts/VickEx.sol\":3347:3361  bids[i].amount */\n      0x01\n      add\n      sload\n        /* \"contracts/VickEx.sol\":3347:3376  bids[i].amount < secondLowest */\n      lt\n        /* \"contracts/VickEx.sol\":3347:3403  bids[i].amount < secondLowest && bids[i].amount > lowest */\n      dup1\n      iszero\n      tag_242\n      jumpi\n      pop\n        /* \"contracts/VickEx.sol\":3397:3403  lowest */\n      dup5\n        /* \"contracts/VickEx.sol\":3380:3384  bids */\n      0x05\n        /* \"contracts/VickEx.sol\":3385:3386  i */\n      dup3\n        /* \"contracts/VickEx.sol\":3380:3387  bids[i] */\n      dup2\n      sload\n      dup2\n      lt\n      tag_243\n      jumpi\n      tag_244\n      tag_98\n      jump\t// in\n    tag_244:\n    tag_243:\n      swap1\n      0x00\n      mstore\n      keccak256(0x00, 0x20)\n      swap1\n      0x04\n      mul\n      add\n        /* \"contracts/VickEx.sol\":3380:3394  bids[i].amount */\n      0x01\n      add\n      sload\n        /* \"contracts/VickEx.sol\":3380:3403  bids[i].amount > lowest */\n      gt\n        /* \"contracts/VickEx.sol\":3347:3403  bids[i].amount < secondLowest && bids[i].amount > lowest */\n    tag_242:\n        /* \"contracts/VickEx.sol\":3343:3467  if (bids[i].amount < secondLowest && bids[i].amount > lowest) {... */\n      iszero\n      tag_246\n      jumpi\n        /* \"contracts/VickEx.sol\":3438:3442  bids */\n      0x05\n        /* \"contracts/VickEx.sol\":3443:3444  i */\n      dup2\n        /* \"contracts/VickEx.sol\":3438:3445  bids[i] */\n      dup2\n      sload\n      dup2\n      lt\n      tag_247\n      jumpi\n      tag_248\n      tag_98\n      jump\t// in\n    tag_248:\n    tag_247:\n      swap1\n      0x00\n      mstore\n      keccak256(0x00, 0x20)\n      swap1\n      0x04\n      mul\n      add\n        /* \"contracts/VickEx.sol\":3438:3452  bids[i].amount */\n      0x01\n      add\n      sload\n        /* \"contracts/VickEx.sol\":3423:3452  secondLowest = bids[i].amount */\n      swap4\n      pop\n        /* \"contracts/VickEx.sol\":3343:3467  if (bids[i].amount < secondLowest && bids[i].amount > lowest) {... */\n    tag_246:\n        /* \"contracts/VickEx.sol\":3113:3467  if (bids[i].amount == lowest && bids[i].timestamp < winnerTimestamp) {... */\n    tag_238:\n        /* \"contracts/VickEx.sol\":2882:3467  if (bids[i].amount < lowest) {... */\n    tag_223:\n        /* \"contracts/VickEx.sol\":2863:2866  i++ */\n      dup1\n      dup1\n      0x01\n      add\n      swap2\n      pop\n      pop\n        /* \"contracts/VickEx.sol\":2826:3477  for (uint256 i = 0; i < bids.length; i++) {... */\n      jump(tag_207)\n    tag_208:\n      pop\n        /* \"contracts/VickEx.sol\":3495:3508  winnerAddress */\n      dup2\n        /* \"contracts/VickEx.sol\":3525:3526  1 */\n      0x01\n        /* \"contracts/VickEx.sol\":3510:3514  bids */\n      0x05\n        /* \"contracts/VickEx.sol\":3510:3521  bids.length */\n      dup1\n      sload\n      swap1\n      pop\n        /* \"contracts/VickEx.sol\":3510:3526  bids.length == 1 */\n      eq\n        /* \"contracts/VickEx.sol\":3510:3550  bids.length == 1 ? lowest : secondLowest */\n      tag_250\n      jumpi\n        /* \"contracts/VickEx.sol\":3538:3550  secondLowest */\n      dup4\n        /* \"contracts/VickEx.sol\":3510:3550  bids.length == 1 ? lowest : secondLowest */\n      jump(tag_251)\n    tag_250:\n        /* \"contracts/VickEx.sol\":3529:3535  lowest */\n      dup5\n        /* \"contracts/VickEx.sol\":3510:3550  bids.length == 1 ? lowest : secondLowest */\n    tag_251:\n        /* \"contracts/VickEx.sol\":3487:3551  return (winnerAddress, bids.length == 1 ? lowest : secondLowest) */\n      swap6\n      pop\n      swap6\n      pop\n      pop\n      pop\n      pop\n      pop\n        /* \"contracts/VickEx.sol\":2516:3558  function _determineWinner() private view returns (address payable, uint256) {... */\n      swap1\n      swap2\n      jump\t// out\n        /* \"#utility.yul\":88:205   */\n    tag_253:\n        /* \"#utility.yul\":197:198   */\n      0x00\n        /* \"#utility.yul\":194:195   */\n      0x00\n        /* \"#utility.yul\":187:199   */\n      revert\n        /* \"#utility.yul\":334:460   */\n    tag_255:\n        /* \"#utility.yul\":371:378   */\n      0x00\n        /* \"#utility.yul\":411:453   */\n      0xffffffffffffffffffffffffffffffffffffffff\n        /* \"#utility.yul\":404:409   */\n      dup3\n        /* \"#utility.yul\":400:454   */\n      and\n        /* \"#utility.yul\":389:454   */\n      swap1\n      pop\n        /* \"#utility.yul\":334:460   */\n      swap2\n      swap1\n      pop\n      jump\t// out\n        /* \"#utility.yul\":466:562   */\n    tag_256:\n        /* \"#utility.yul\":503:510   */\n      0x00\n        /* \"#utility.yul\":532:556   */\n      tag_301\n        /* \"#utility.yul\":550:555   */\n      dup3\n        /* \"#utility.yul\":532:556   */\n      tag_255\n      jump\t// in\n    tag_301:\n        /* \"#utility.yul\":521:556   */\n      swap1\n      pop\n        /* \"#utility.yul\":466:562   */\n      swap2\n      swap1\n      pop\n      jump\t// out\n        /* \"#utility.yul\":568:690   */\n    tag_257:\n        /* \"#utility.yul\":641:665   */\n      tag_303\n        /* \"#utility.yul\":659:664   */\n      dup2\n        /* \"#utility.yul\":641:665   */\n      tag_256\n      jump\t// in\n    tag_303:\n        /* \"#utility.yul\":634:639   */\n      dup2\n        /* \"#utility.yul\":631:666   */\n      eq\n        /* \"#utility.yul\":621:684   */\n      tag_304\n      jumpi\n        /* \"#utility.yul\":680:681   */\n      0x00\n        /* \"#utility.yul\":677:678   */\n      0x00\n        /* \"#utility.yul\":670:682   */\n      revert\n        /* \"#utility.yul\":621:684   */\n    tag_304:\n        /* \"#utility.yul\":568:690   */\n      pop\n      jump\t// out\n        /* \"#utility.yul\":696:835   */\n    tag_258:\n        /* \"#utility.yul\":742:747   */\n      0x00\n        /* \"#utility.yul\":780:786   */\n      dup2\n        /* \"#utility.yul\":767:787   */\n      calldataload\n        /* \"#utility.yul\":758:787   */\n      swap1\n      pop\n        /* \"#utility.yul\":796:829   */\n      tag_306\n        /* \"#utility.yul\":823:828   */\n      dup2\n        /* \"#utility.yul\":796:829   */\n      tag_257\n      jump\t// in\n    tag_306:\n        /* \"#utility.yul\":696:835   */\n      swap3\n      swap2\n      pop\n      pop\n      jump\t// out\n        /* \"#utility.yul\":841:1170   */\n    tag_24:\n        /* \"#utility.yul\":900:906   */\n      0x00\n        /* \"#utility.yul\":949:951   */\n      0x20\n        /* \"#utility.yul\":937:946   */\n      dup3\n        /* \"#utility.yul\":928:935   */\n      dup5\n        /* \"#utility.yul\":924:947   */\n      sub\n        /* \"#utility.yul\":920:952   */\n      slt\n        /* \"#utility.yul\":917:1036   */\n      iszero\n      tag_308\n      jumpi\n        /* \"#utility.yul\":955:1034   */\n      tag_309\n      tag_253\n      jump\t// in\n    tag_309:\n        /* \"#utility.yul\":917:1036   */\n    tag_308:\n        /* \"#utility.yul\":1075:1076   */\n      0x00\n        /* \"#utility.yul\":1100:1153   */\n      tag_310\n        /* \"#utility.yul\":1145:1152   */\n      dup5\n        /* \"#utility.yul\":1136:1142   */\n      dup3\n        /* \"#utility.yul\":1125:1134   */\n      dup6\n        /* \"#utility.yul\":1121:1143   */\n      add\n        /* \"#utility.yul\":1100:1153   */\n      tag_258\n      jump\t// in\n    tag_310:\n        /* \"#utility.yul\":1090:1153   */\n      swap2\n      pop\n        /* \"#utility.yul\":1046:1163   */\n      pop\n        /* \"#utility.yul\":841:1170   */\n      swap3\n      swap2\n      pop\n      pop\n      jump\t// out\n        /* \"#utility.yul\":1176:1266   */\n    tag_259:\n        /* \"#utility.yul\":1210:1217   */\n      0x00\n        /* \"#utility.yul\":1253:1258   */\n      dup2\n        /* \"#utility.yul\":1246:1259   */\n      iszero\n        /* \"#utility.yul\":1239:1260   */\n      iszero\n        /* \"#utility.yul\":1228:1260   */\n      swap1\n      pop\n        /* \"#utility.yul\":1176:1266   */\n      swap2\n      swap1\n      pop\n      jump\t// out\n        /* \"#utility.yul\":1272:1381   */\n    tag_260:\n        /* \"#utility.yul\":1353:1374   */\n      tag_313\n        /* \"#utility.yul\":1368:1373   */\n      dup2\n        /* \"#utility.yul\":1353:1374   */\n      tag_259\n      jump\t// in\n    tag_313:\n        /* \"#utility.yul\":1348:1351   */\n      dup3\n        /* \"#utility.yul\":1341:1375   */\n      mstore\n        /* \"#utility.yul\":1272:1381   */\n      pop\n      pop\n      jump\t// out\n        /* \"#utility.yul\":1387:1597   */\n    tag_27:\n        /* \"#utility.yul\":1474:1478   */\n      0x00\n        /* \"#utility.yul\":1512:1514   */\n      0x20\n        /* \"#utility.yul\":1501:1510   */\n      dup3\n        /* \"#utility.yul\":1497:1515   */\n      add\n        /* \"#utility.yul\":1489:1515   */\n      swap1\n      pop\n        /* \"#utility.yul\":1525:1590   */\n      tag_315\n        /* \"#utility.yul\":1587:1588   */\n      0x00\n        /* \"#utility.yul\":1576:1585   */\n      dup4\n        /* \"#utility.yul\":1572:1589   */\n      add\n        /* \"#utility.yul\":1563:1569   */\n      dup5\n        /* \"#utility.yul\":1525:1590   */\n      tag_260\n      jump\t// in\n    tag_315:\n        /* \"#utility.yul\":1387:1597   */\n      swap3\n      swap2\n      pop\n      pop\n      jump\t// out\n        /* \"#utility.yul\":1603:1680   */\n    tag_261:\n        /* \"#utility.yul\":1640:1647   */\n      0x00\n        /* \"#utility.yul\":1669:1674   */\n      dup2\n        /* \"#utility.yul\":1658:1674   */\n      swap1\n      pop\n        /* \"#utility.yul\":1603:1680   */\n      swap2\n      swap1\n      pop\n      jump\t// out\n        /* \"#utility.yul\":1686:1804   */\n    tag_262:\n        /* \"#utility.yul\":1773:1797   */\n      tag_318\n        /* \"#utility.yul\":1791:1796   */\n      dup2\n        /* \"#utility.yul\":1773:1797   */\n      tag_261\n      jump\t// in\n    tag_318:\n        /* \"#utility.yul\":1768:1771   */\n      dup3\n        /* \"#utility.yul\":1761:1798   */\n      mstore\n        /* \"#utility.yul\":1686:1804   */\n      pop\n      pop\n      jump\t// out\n        /* \"#utility.yul\":1810:2032   */\n    tag_32:\n        /* \"#utility.yul\":1903:1907   */\n      0x00\n        /* \"#utility.yul\":1941:1943   */\n      0x20\n        /* \"#utility.yul\":1930:1939   */\n      dup3\n        /* \"#utility.yul\":1926:1944   */\n      add\n        /* \"#utility.yul\":1918:1944   */\n      swap1\n      pop\n        /* \"#utility.yul\":1954:2025   */\n      tag_320\n        /* \"#utility.yul\":2022:2023   */\n      0x00\n        /* \"#utility.yul\":2011:2020   */\n      dup4\n        /* \"#utility.yul\":2007:2024   */\n      add\n        /* \"#utility.yul\":1998:2004   */\n      dup5\n        /* \"#utility.yul\":1954:2025   */\n      tag_262\n      jump\t// in\n    tag_320:\n        /* \"#utility.yul\":1810:2032   */\n      swap3\n      swap2\n      pop\n      pop\n      jump\t// out\n        /* \"#utility.yul\":2038:2160   */\n    tag_263:\n        /* \"#utility.yul\":2111:2135   */\n      tag_322\n        /* \"#utility.yul\":2129:2134   */\n      dup2\n        /* \"#utility.yul\":2111:2135   */\n      tag_261\n      jump\t// in\n    tag_322:\n        /* \"#utility.yul\":2104:2109   */\n      dup2\n        /* \"#utility.yul\":2101:2136   */\n      eq\n        /* \"#utility.yul\":2091:2154   */\n      tag_323\n      jumpi\n        /* \"#utility.yul\":2150:2151   */\n      0x00\n        /* \"#utility.yul\":2147:2148   */\n      0x00\n        /* \"#utility.yul\":2140:2152   */\n      revert\n        /* \"#utility.yul\":2091:2154   */\n    tag_323:\n        /* \"#utility.yul\":2038:2160   */\n      pop\n      jump\t// out\n        /* \"#utility.yul\":2166:2305   */\n    tag_264:\n        /* \"#utility.yul\":2212:2217   */\n      0x00\n        /* \"#utility.yul\":2250:2256   */\n      dup2\n        /* \"#utility.yul\":2237:2257   */\n      calldataload\n        /* \"#utility.yul\":2228:2257   */\n      swap1\n      pop\n        /* \"#utility.yul\":2266:2299   */\n      tag_325\n        /* \"#utility.yul\":2293:2298   */\n      dup2\n        /* \"#utility.yul\":2266:2299   */\n      tag_263\n      jump\t// in\n    tag_325:\n        /* \"#utility.yul\":2166:2305   */\n      swap3\n      swap2\n      pop\n      pop\n      jump\t// out\n        /* \"#utility.yul\":2311:2640   */\n    tag_46:\n        /* \"#utility.yul\":2370:2376   */\n      0x00\n        /* \"#utility.yul\":2419:2421   */\n      0x20\n        /* \"#utility.yul\":2407:2416   */\n      dup3\n        /* \"#utility.yul\":2398:2405   */\n      dup5\n        /* \"#utility.yul\":2394:2417   */\n      sub\n        /* \"#utility.yul\":2390:2422   */\n      slt\n        /* \"#utility.yul\":2387:2506   */\n      iszero\n      tag_327\n      jumpi\n        /* \"#utility.yul\":2425:2504   */\n      tag_328\n      tag_253\n      jump\t// in\n    tag_328:\n        /* \"#utility.yul\":2387:2506   */\n    tag_327:\n        /* \"#utility.yul\":2545:2546   */\n      0x00\n        /* \"#utility.yul\":2570:2623   */\n      tag_329\n        /* \"#utility.yul\":2615:2622   */\n      dup5\n        /* \"#utility.yul\":2606:2612   */\n      dup3\n        /* \"#utility.yul\":2595:2604   */\n      dup6\n        /* \"#utility.yul\":2591:2613   */\n      add\n        /* \"#utility.yul\":2570:2623   */\n      tag_264\n      jump\t// in\n    tag_329:\n        /* \"#utility.yul\":2560:2623   */\n      swap2\n      pop\n        /* \"#utility.yul\":2516:2633   */\n      pop\n        /* \"#utility.yul\":2311:2640   */\n      swap3\n      swap2\n      pop\n      pop\n      jump\t// out\n        /* \"#utility.yul\":2646:2750   */\n    tag_265:\n        /* \"#utility.yul\":2691:2698   */\n      0x00\n        /* \"#utility.yul\":2720:2744   */\n      tag_331\n        /* \"#utility.yul\":2738:2743   */\n      dup3\n        /* \"#utility.yul\":2720:2744   */\n      tag_255\n      jump\t// in\n    tag_331:\n        /* \"#utility.yul\":2709:2744   */\n      swap1\n      pop\n        /* \"#utility.yul\":2646:2750   */\n      swap2\n      swap1\n      pop\n      jump\t// out\n        /* \"#utility.yul\":2756:2898   */\n    tag_266:\n        /* \"#utility.yul\":2859:2891   */\n      tag_333\n        /* \"#utility.yul\":2885:2890   */\n      dup2\n        /* \"#utility.yul\":2859:2891   */\n      tag_265\n      jump\t// in\n    tag_333:\n        /* \"#utility.yul\":2854:2857   */\n      dup3\n        /* \"#utility.yul\":2847:2892   */\n      mstore\n        /* \"#utility.yul\":2756:2898   */\n      pop\n      pop\n      jump\t// out\n        /* \"#utility.yul\":2904:3477   */\n    tag_49:\n        /* \"#utility.yul\":3091:3095   */\n      0x00\n        /* \"#utility.yul\":3129:3132   */\n      0x80\n        /* \"#utility.yul\":3118:3127   */\n      dup3\n        /* \"#utility.yul\":3114:3133   */\n      add\n        /* \"#utility.yul\":3106:3133   */\n      swap1\n      pop\n        /* \"#utility.yul\":3143:3230   */\n      tag_335\n        /* \"#utility.yul\":3227:3228   */\n      0x00\n        /* \"#utility.yul\":3216:3225   */\n      dup4\n        /* \"#utility.yul\":3212:3229   */\n      add\n        /* \"#utility.yul\":3203:3209   */\n      dup8\n        /* \"#utility.yul\":3143:3230   */\n      tag_266\n      jump\t// in\n    tag_335:\n        /* \"#utility.yul\":3240:3312   */\n      tag_336\n        /* \"#utility.yul\":3308:3310   */\n      0x20\n        /* \"#utility.yul\":3297:3306   */\n      dup4\n        /* \"#utility.yul\":3293:3311   */\n      add\n        /* \"#utility.yul\":3284:3290   */\n      dup7\n        /* \"#utility.yul\":3240:3312   */\n      tag_262\n      jump\t// in\n    tag_336:\n        /* \"#utility.yul\":3322:3394   */\n      tag_337\n        /* \"#utility.yul\":3390:3392   */\n      0x40\n        /* \"#utility.yul\":3379:3388   */\n      dup4\n        /* \"#utility.yul\":3375:3393   */\n      add\n        /* \"#utility.yul\":3366:3372   */\n      dup6\n        /* \"#utility.yul\":3322:3394   */\n      tag_262\n      jump\t// in\n    tag_337:\n        /* \"#utility.yul\":3404:3470   */\n      tag_338\n        /* \"#utility.yul\":3466:3468   */\n      0x60\n        /* \"#utility.yul\":3455:3464   */\n      dup4\n        /* \"#utility.yul\":3451:3469   */\n      add\n        /* \"#utility.yul\":3442:3448   */\n      dup5\n        /* \"#utility.yul\":3404:3470   */\n      tag_260\n      jump\t// in\n    tag_338:\n        /* \"#utility.yul\":2904:3477   */\n      swap6\n      swap5\n      pop\n      pop\n      pop\n      pop\n      pop\n      jump\t// out\n        /* \"#utility.yul\":3483:3737   */\n    tag_70:\n        /* \"#utility.yul\":3592:3596   */\n      0x00\n        /* \"#utility.yul\":3630:3632   */\n      0x20\n        /* \"#utility.yul\":3619:3628   */\n      dup3\n        /* \"#utility.yul\":3615:3633   */\n      add\n        /* \"#utility.yul\":3607:3633   */\n      swap1\n      pop\n        /* \"#utility.yul\":3643:3730   */\n      tag_340\n        /* \"#utility.yul\":3727:3728   */\n      0x00\n        /* \"#utility.yul\":3716:3725   */\n      dup4\n        /* \"#utility.yul\":3712:3729   */\n      add\n        /* \"#utility.yul\":3703:3709   */\n      dup5\n        /* \"#utility.yul\":3643:3730   */\n      tag_266\n      jump\t// in\n    tag_340:\n        /* \"#utility.yul\":3483:3737   */\n      swap3\n      swap2\n      pop\n      pop\n      jump\t// out\n        /* \"#utility.yul\":3743:3923   */\n    tag_109:\n        /* \"#utility.yul\":3791:3868   */\n      0x4e487b7100000000000000000000000000000000000000000000000000000000\n        /* \"#utility.yul\":3788:3789   */\n      0x00\n        /* \"#utility.yul\":3781:3869   */\n      mstore\n        /* \"#utility.yul\":3888:3892   */\n      0x21\n        /* \"#utility.yul\":3885:3886   */\n      0x04\n        /* \"#utility.yul\":3878:3893   */\n      mstore\n        /* \"#utility.yul\":3912:3916   */\n      0x24\n        /* \"#utility.yul\":3909:3910   */\n      0x00\n        /* \"#utility.yul\":3902:3917   */\n      revert\n        /* \"#utility.yul\":3929:4049   */\n    tag_267:\n        /* \"#utility.yul\":4017:4018   */\n      0x03\n        /* \"#utility.yul\":4010:4015   */\n      dup2\n        /* \"#utility.yul\":4007:4019   */\n      lt\n        /* \"#utility.yul\":3997:4043   */\n      tag_343\n      jumpi\n        /* \"#utility.yul\":4023:4041   */\n      tag_344\n      tag_109\n      jump\t// in\n    tag_344:\n        /* \"#utility.yul\":3997:4043   */\n    tag_343:\n        /* \"#utility.yul\":3929:4049   */\n      pop\n      jump\t// out\n        /* \"#utility.yul\":4055:4196   */\n    tag_268:\n        /* \"#utility.yul\":4107:4114   */\n      0x00\n        /* \"#utility.yul\":4136:4141   */\n      dup2\n        /* \"#utility.yul\":4125:4141   */\n      swap1\n      pop\n        /* \"#utility.yul\":4142:4190   */\n      tag_346\n        /* \"#utility.yul\":4184:4189   */\n      dup3\n        /* \"#utility.yul\":4142:4190   */\n      tag_267\n      jump\t// in\n    tag_346:\n        /* \"#utility.yul\":4055:4196   */\n      swap2\n      swap1\n      pop\n      jump\t// out\n        /* \"#utility.yul\":4202:4343   */\n    tag_269:\n        /* \"#utility.yul\":4265:4274   */\n      0x00\n        /* \"#utility.yul\":4298:4337   */\n      tag_348\n        /* \"#utility.yul\":4331:4336   */\n      dup3\n        /* \"#utility.yul\":4298:4337   */\n      tag_268\n      jump\t// in\n    tag_348:\n        /* \"#utility.yul\":4285:4337   */\n      swap1\n      pop\n        /* \"#utility.yul\":4202:4343   */\n      swap2\n      swap1\n      pop\n      jump\t// out\n        /* \"#utility.yul\":4349:4506   */\n    tag_270:\n        /* \"#utility.yul\":4449:4499   */\n      tag_350\n        /* \"#utility.yul\":4493:4498   */\n      dup2\n        /* \"#utility.yul\":4449:4499   */\n      tag_269\n      jump\t// in\n    tag_350:\n        /* \"#utility.yul\":4444:4447   */\n      dup3\n        /* \"#utility.yul\":4437:4500   */\n      mstore\n        /* \"#utility.yul\":4349:4506   */\n      pop\n      pop\n      jump\t// out\n        /* \"#utility.yul\":4512:4760   */\n    tag_75:\n        /* \"#utility.yul\":4618:4622   */\n      0x00\n        /* \"#utility.yul\":4656:4658   */\n      0x20\n        /* \"#utility.yul\":4645:4654   */\n      dup3\n        /* \"#utility.yul\":4641:4659   */\n      add\n        /* \"#utility.yul\":4633:4659   */\n      swap1\n      pop\n        /* \"#utility.yul\":4669:4753   */\n      tag_352\n        /* \"#utility.yul\":4750:4751   */\n      0x00\n        /* \"#utility.yul\":4739:4748   */\n      dup4\n        /* \"#utility.yul\":4735:4752   */\n      add\n        /* \"#utility.yul\":4726:4732   */\n      dup5\n        /* \"#utility.yul\":4669:4753   */\n      tag_270\n      jump\t// in\n    tag_352:\n        /* \"#utility.yul\":4512:4760   */\n      swap3\n      swap2\n      pop\n      pop\n      jump\t// out\n        /* \"#utility.yul\":4766:4884   */\n    tag_271:\n        /* \"#utility.yul\":4853:4877   */\n      tag_354\n        /* \"#utility.yul\":4871:4876   */\n      dup2\n        /* \"#utility.yul\":4853:4877   */\n      tag_256\n      jump\t// in\n    tag_354:\n        /* \"#utility.yul\":4848:4851   */\n      dup3\n        /* \"#utility.yul\":4841:4878   */\n      mstore\n        /* \"#utility.yul\":4766:4884   */\n      pop\n      pop\n      jump\t// out\n        /* \"#utility.yul\":4890:5112   */\n    tag_85:\n        /* \"#utility.yul\":4983:4987   */\n      0x00\n        /* \"#utility.yul\":5021:5023   */\n      0x20\n        /* \"#utility.yul\":5010:5019   */\n      dup3\n        /* \"#utility.yul\":5006:5024   */\n      add\n        /* \"#utility.yul\":4998:5024   */\n      swap1\n      pop\n        /* \"#utility.yul\":5034:5105   */\n      tag_356\n        /* \"#utility.yul\":5102:5103   */\n      0x00\n        /* \"#utility.yul\":5091:5100   */\n      dup4\n        /* \"#utility.yul\":5087:5104   */\n      add\n        /* \"#utility.yul\":5078:5084   */\n      dup5\n        /* \"#utility.yul\":5034:5105   */\n      tag_271\n      jump\t// in\n    tag_356:\n        /* \"#utility.yul\":4890:5112   */\n      swap3\n      swap2\n      pop\n      pop\n      jump\t// out\n        /* \"#utility.yul\":5118:5298   */\n    tag_98:\n        /* \"#utility.yul\":5166:5243   */\n      0x4e487b7100000000000000000000000000000000000000000000000000000000\n        /* \"#utility.yul\":5163:5164   */\n      0x00\n        /* \"#utility.yul\":5156:5244   */\n      mstore\n        /* \"#utility.yul\":5263:5267   */\n      0x32\n        /* \"#utility.yul\":5260:5261   */\n      0x04\n        /* \"#utility.yul\":5253:5268   */\n      mstore\n        /* \"#utility.yul\":5287:5291   */\n      0x24\n        /* \"#utility.yul\":5284:5285   */\n      0x00\n        /* \"#utility.yul\":5277:5292   */\n      revert\n        /* \"#utility.yul\":5304:5473   */\n    tag_272:\n        /* \"#utility.yul\":5388:5399   */\n      0x00\n        /* \"#utility.yul\":5422:5428   */\n      dup3\n        /* \"#utility.yul\":5417:5420   */\n      dup3\n        /* \"#utility.yul\":5410:5429   */\n      mstore\n        /* \"#utility.yul\":5462:5466   */\n      0x20\n        /* \"#utility.yul\":5457:5460   */\n      dup3\n        /* \"#utility.yul\":5453:5467   */\n      add\n        /* \"#utility.yul\":5438:5467   */\n      swap1\n      pop\n        /* \"#utility.yul\":5304:5473   */\n      swap3\n      swap2\n      pop\n      pop\n      jump\t// out\n        /* \"#utility.yul\":5479:5712   */\n    tag_273:\n        /* \"#utility.yul\":5619:5653   */\n      0x536f6c6f20656c2070726f706965746172696f207075656465207265616c697a\n        /* \"#utility.yul\":5615:5616   */\n      0x00\n        /* \"#utility.yul\":5607:5613   */\n      dup3\n        /* \"#utility.yul\":5603:5617   */\n      add\n        /* \"#utility.yul\":5596:5654   */\n      mstore\n        /* \"#utility.yul\":5688:5704   */\n      0x6172206573746120616363696f6e000000000000000000000000000000000000\n        /* \"#utility.yul\":5683:5685   */\n      0x20\n        /* \"#utility.yul\":5675:5681   */\n      dup3\n        /* \"#utility.yul\":5671:5686   */\n      add\n        /* \"#utility.yul\":5664:5705   */\n      mstore\n        /* \"#utility.yul\":5479:5712   */\n      pop\n      jump\t// out\n        /* \"#utility.yul\":5718:6084   */\n    tag_274:\n        /* \"#utility.yul\":5860:5863   */\n      0x00\n        /* \"#utility.yul\":5881:5948   */\n      tag_361\n        /* \"#utility.yul\":5945:5947   */\n      0x2e\n        /* \"#utility.yul\":5940:5943   */\n      dup4\n        /* \"#utility.yul\":5881:5948   */\n      tag_272\n      jump\t// in\n    tag_361:\n        /* \"#utility.yul\":5874:5948   */\n      swap2\n      pop\n        /* \"#utility.yul\":5957:6050   */\n      tag_362\n        /* \"#utility.yul\":6046:6049   */\n      dup3\n        /* \"#utility.yul\":5957:6050   */\n      tag_273\n      jump\t// in\n    tag_362:\n        /* \"#utility.yul\":6075:6077   */\n      0x40\n        /* \"#utility.yul\":6070:6073   */\n      dup3\n        /* \"#utility.yul\":6066:6078   */\n      add\n        /* \"#utility.yul\":6059:6078   */\n      swap1\n      pop\n        /* \"#utility.yul\":5718:6084   */\n      swap2\n      swap1\n      pop\n      jump\t// out\n        /* \"#utility.yul\":6090:6509   */\n    tag_105:\n        /* \"#utility.yul\":6256:6260   */\n      0x00\n        /* \"#utility.yul\":6294:6296   */\n      0x20\n        /* \"#utility.yul\":6283:6292   */\n      dup3\n        /* \"#utility.yul\":6279:6297   */\n      add\n        /* \"#utility.yul\":6271:6297   */\n      swap1\n      pop\n        /* \"#utility.yul\":6343:6352   */\n      dup2\n        /* \"#utility.yul\":6337:6341   */\n      dup2\n        /* \"#utility.yul\":6333:6353   */\n      sub\n        /* \"#utility.yul\":6329:6330   */\n      0x00\n        /* \"#utility.yul\":6318:6327   */\n      dup4\n        /* \"#utility.yul\":6314:6331   */\n      add\n        /* \"#utility.yul\":6307:6354   */\n      mstore\n        /* \"#utility.yul\":6371:6502   */\n      tag_364\n        /* \"#utility.yul\":6497:6501   */\n      dup2\n        /* \"#utility.yul\":6371:6502   */\n      tag_274\n      jump\t// in\n    tag_364:\n        /* \"#utility.yul\":6363:6502   */\n      swap1\n      pop\n        /* \"#utility.yul\":6090:6509   */\n      swap2\n      swap1\n      pop\n      jump\t// out\n        /* \"#utility.yul\":6515:6686   */\n    tag_275:\n        /* \"#utility.yul\":6655:6678   */\n      0x53756261737461206e6f2066696e616c697a6164610000000000000000000000\n        /* \"#utility.yul\":6651:6652   */\n      0x00\n        /* \"#utility.yul\":6643:6649   */\n      dup3\n        /* \"#utility.yul\":6639:6653   */\n      add\n        /* \"#utility.yul\":6632:6679   */\n      mstore\n        /* \"#utility.yul\":6515:6686   */\n      pop\n      jump\t// out\n        /* \"#utility.yul\":6692:7058   */\n    tag_276:\n        /* \"#utility.yul\":6834:6837   */\n      0x00\n        /* \"#utility.yul\":6855:6922   */\n      tag_367\n        /* \"#utility.yul\":6919:6921   */\n      0x15\n        /* \"#utility.yul\":6914:6917   */\n      dup4\n        /* \"#utility.yul\":6855:6922   */\n      tag_272\n      jump\t// in\n    tag_367:\n        /* \"#utility.yul\":6848:6922   */\n      swap2\n      pop\n        /* \"#utility.yul\":6931:7024   */\n      tag_368\n        /* \"#utility.yul\":7020:7023   */\n      dup3\n        /* \"#utility.yul\":6931:7024   */\n      tag_275\n      jump\t// in\n    tag_368:\n        /* \"#utility.yul\":7049:7051   */\n      0x20\n        /* \"#utility.yul\":7044:7047   */\n      dup3\n        /* \"#utility.yul\":7040:7052   */\n      add\n        /* \"#utility.yul\":7033:7052   */\n      swap1\n      pop\n        /* \"#utility.yul\":6692:7058   */\n      swap2\n      swap1\n      pop\n      jump\t// out\n        /* \"#utility.yul\":7064:7483   */\n    tag_114:\n        /* \"#utility.yul\":7230:7234   */\n      0x00\n        /* \"#utility.yul\":7268:7270   */\n      0x20\n        /* \"#utility.yul\":7257:7266   */\n      dup3\n        /* \"#utility.yul\":7253:7271   */\n      add\n        /* \"#utility.yul\":7245:7271   */\n      swap1\n      pop\n        /* \"#utility.yul\":7317:7326   */\n      dup2\n        /* \"#utility.yul\":7311:7315   */\n      dup2\n        /* \"#utility.yul\":7307:7327   */\n      sub\n        /* \"#utility.yul\":7303:7304   */\n      0x00\n        /* \"#utility.yul\":7292:7301   */\n      dup4\n        /* \"#utility.yul\":7288:7305   */\n      add\n        /* \"#utility.yul\":7281:7328   */\n      mstore\n        /* \"#utility.yul\":7345:7476   */\n      tag_370\n        /* \"#utility.yul\":7471:7475   */\n      dup2\n        /* \"#utility.yul\":7345:7476   */\n      tag_276\n      jump\t// in\n    tag_370:\n        /* \"#utility.yul\":7337:7476   */\n      swap1\n      pop\n        /* \"#utility.yul\":7064:7483   */\n      swap2\n      swap1\n      pop\n      jump\t// out\n        /* \"#utility.yul\":7489:7669   */\n    tag_277:\n        /* \"#utility.yul\":7537:7614   */\n      0x4e487b7100000000000000000000000000000000000000000000000000000000\n        /* \"#utility.yul\":7534:7535   */\n      0x00\n        /* \"#utility.yul\":7527:7615   */\n      mstore\n        /* \"#utility.yul\":7634:7638   */\n      0x11\n        /* \"#utility.yul\":7631:7632   */\n      0x04\n        /* \"#utility.yul\":7624:7639   */\n      mstore\n        /* \"#utility.yul\":7658:7662   */\n      0x24\n        /* \"#utility.yul\":7655:7656   */\n      0x00\n        /* \"#utility.yul\":7648:7663   */\n      revert\n        /* \"#utility.yul\":7675:8085   */\n    tag_130:\n        /* \"#utility.yul\":7715:7722   */\n      0x00\n        /* \"#utility.yul\":7738:7758   */\n      tag_373\n        /* \"#utility.yul\":7756:7757   */\n      dup3\n        /* \"#utility.yul\":7738:7758   */\n      tag_261\n      jump\t// in\n    tag_373:\n        /* \"#utility.yul\":7733:7758   */\n      swap2\n      pop\n        /* \"#utility.yul\":7772:7792   */\n      tag_374\n        /* \"#utility.yul\":7790:7791   */\n      dup4\n        /* \"#utility.yul\":7772:7792   */\n      tag_261\n      jump\t// in\n    tag_374:\n        /* \"#utility.yul\":7767:7792   */\n      swap3\n      pop\n        /* \"#utility.yul\":7827:7828   */\n      dup3\n        /* \"#utility.yul\":7824:7825   */\n      dup3\n        /* \"#utility.yul\":7820:7829   */\n      mul\n        /* \"#utility.yul\":7849:7879   */\n      tag_375\n        /* \"#utility.yul\":7867:7878   */\n      dup2\n        /* \"#utility.yul\":7849:7879   */\n      tag_261\n      jump\t// in\n    tag_375:\n        /* \"#utility.yul\":7838:7879   */\n      swap2\n      pop\n        /* \"#utility.yul\":8028:8029   */\n      dup3\n        /* \"#utility.yul\":8019:8026   */\n      dup3\n        /* \"#utility.yul\":8015:8030   */\n      div\n        /* \"#utility.yul\":8012:8013   */\n      dup5\n        /* \"#utility.yul\":8009:8031   */\n      eq\n        /* \"#utility.yul\":7989:7990   */\n      dup4\n        /* \"#utility.yul\":7982:7991   */\n      iszero\n        /* \"#utility.yul\":7962:8045   */\n      or\n        /* \"#utility.yul\":7939:8078   */\n      tag_376\n      jumpi\n        /* \"#utility.yul\":8058:8076   */\n      tag_377\n      tag_277\n      jump\t// in\n    tag_377:\n        /* \"#utility.yul\":7939:8078   */\n    tag_376:\n        /* \"#utility.yul\":7723:8085   */\n      pop\n        /* \"#utility.yul\":7675:8085   */\n      swap3\n      swap2\n      pop\n      pop\n      jump\t// out\n        /* \"#utility.yul\":8091:8271   */\n    tag_278:\n        /* \"#utility.yul\":8139:8216   */\n      0x4e487b7100000000000000000000000000000000000000000000000000000000\n        /* \"#utility.yul\":8136:8137   */\n      0x00\n        /* \"#utility.yul\":8129:8217   */\n      mstore\n        /* \"#utility.yul\":8236:8240   */\n      0x12\n        /* \"#utility.yul\":8233:8234   */\n      0x04\n        /* \"#utility.yul\":8226:8241   */\n      mstore\n        /* \"#utility.yul\":8260:8264   */\n      0x24\n        /* \"#utility.yul\":8257:8258   */\n      0x00\n        /* \"#utility.yul\":8250:8265   */\n      revert\n        /* \"#utility.yul\":8277:8462   */\n    tag_132:\n        /* \"#utility.yul\":8317:8318   */\n      0x00\n        /* \"#utility.yul\":8334:8354   */\n      tag_380\n        /* \"#utility.yul\":8352:8353   */\n      dup3\n        /* \"#utility.yul\":8334:8354   */\n      tag_261\n      jump\t// in\n    tag_380:\n        /* \"#utility.yul\":8329:8354   */\n      swap2\n      pop\n        /* \"#utility.yul\":8368:8388   */\n      tag_381\n        /* \"#utility.yul\":8386:8387   */\n      dup4\n        /* \"#utility.yul\":8368:8388   */\n      tag_261\n      jump\t// in\n    tag_381:\n        /* \"#utility.yul\":8363:8388   */\n      swap3\n      pop\n        /* \"#utility.yul\":8407:8408   */\n      dup3\n        /* \"#utility.yul\":8397:8432   */\n      tag_382\n      jumpi\n        /* \"#utility.yul\":8412:8430   */\n      tag_383\n      tag_278\n      jump\t// in\n    tag_383:\n        /* \"#utility.yul\":8397:8432   */\n    tag_382:\n        /* \"#utility.yul\":8454:8455   */\n      dup3\n        /* \"#utility.yul\":8451:8452   */\n      dup3\n        /* \"#utility.yul\":8447:8456   */\n      div\n        /* \"#utility.yul\":8442:8456   */\n      swap1\n      pop\n        /* \"#utility.yul\":8277:8462   */\n      swap3\n      swap2\n      pop\n      pop\n      jump\t// out\n        /* \"#utility.yul\":8468:8636   */\n    tag_279:\n        /* \"#utility.yul\":8608:8628   */\n      0x5375626173746120796120636572726164610000000000000000000000000000\n        /* \"#utility.yul\":8604:8605   */\n      0x00\n        /* \"#utility.yul\":8596:8602   */\n      dup3\n        /* \"#utility.yul\":8592:8606   */\n      add\n        /* \"#utility.yul\":8585:8629   */\n      mstore\n        /* \"#utility.yul\":8468:8636   */\n      pop\n      jump\t// out\n        /* \"#utility.yul\":8642:9008   */\n    tag_280:\n        /* \"#utility.yul\":8784:8787   */\n      0x00\n        /* \"#utility.yul\":8805:8872   */\n      tag_386\n        /* \"#utility.yul\":8869:8871   */\n      0x12\n        /* \"#utility.yul\":8864:8867   */\n      dup4\n        /* \"#utility.yul\":8805:8872   */\n      tag_272\n      jump\t// in\n    tag_386:\n        /* \"#utility.yul\":8798:8872   */\n      swap2\n      pop\n        /* \"#utility.yul\":8881:8974   */\n      tag_387\n        /* \"#utility.yul\":8970:8973   */\n      dup3\n        /* \"#utility.yul\":8881:8974   */\n      tag_279\n      jump\t// in\n    tag_387:\n        /* \"#utility.yul\":8999:9001   */\n      0x20\n        /* \"#utility.yul\":8994:8997   */\n      dup3\n        /* \"#utility.yul\":8990:9002   */\n      add\n        /* \"#utility.yul\":8983:9002   */\n      swap1\n      pop\n        /* \"#utility.yul\":8642:9008   */\n      swap2\n      swap1\n      pop\n      jump\t// out\n        /* \"#utility.yul\":9014:9433   */\n    tag_157:\n        /* \"#utility.yul\":9180:9184   */\n      0x00\n        /* \"#utility.yul\":9218:9220   */\n      0x20\n        /* \"#utility.yul\":9207:9216   */\n      dup3\n        /* \"#utility.yul\":9203:9221   */\n      add\n        /* \"#utility.yul\":9195:9221   */\n      swap1\n      pop\n        /* \"#utility.yul\":9267:9276   */\n      dup2\n        /* \"#utility.yul\":9261:9265   */\n      dup2\n        /* \"#utility.yul\":9257:9277   */\n      sub\n        /* \"#utility.yul\":9253:9254   */\n      0x00\n        /* \"#utility.yul\":9242:9251   */\n      dup4\n        /* \"#utility.yul\":9238:9255   */\n      add\n        /* \"#utility.yul\":9231:9278   */\n      mstore\n        /* \"#utility.yul\":9295:9426   */\n      tag_389\n        /* \"#utility.yul\":9421:9425   */\n      dup2\n        /* \"#utility.yul\":9295:9426   */\n      tag_280\n      jump\t// in\n    tag_389:\n        /* \"#utility.yul\":9287:9426   */\n      swap1\n      pop\n        /* \"#utility.yul\":9014:9433   */\n      swap2\n      swap1\n      pop\n      jump\t// out\n        /* \"#utility.yul\":9439:9606   */\n    tag_281:\n        /* \"#utility.yul\":9579:9598   */\n      0x53756261737461206e6f20616374697661000000000000000000000000000000\n        /* \"#utility.yul\":9575:9576   */\n      0x00\n        /* \"#utility.yul\":9567:9573   */\n      dup3\n        /* \"#utility.yul\":9563:9577   */\n      add\n        /* \"#utility.yul\":9556:9599   */\n      mstore\n        /* \"#utility.yul\":9439:9606   */\n      pop\n      jump\t// out\n        /* \"#utility.yul\":9612:9978   */\n    tag_282:\n        /* \"#utility.yul\":9754:9757   */\n      0x00\n        /* \"#utility.yul\":9775:9842   */\n      tag_392\n        /* \"#utility.yul\":9839:9841   */\n      0x11\n        /* \"#utility.yul\":9834:9837   */\n      dup4\n        /* \"#utility.yul\":9775:9842   */\n      tag_272\n      jump\t// in\n    tag_392:\n        /* \"#utility.yul\":9768:9842   */\n      swap2\n      pop\n        /* \"#utility.yul\":9851:9944   */\n      tag_393\n        /* \"#utility.yul\":9940:9943   */\n      dup3\n        /* \"#utility.yul\":9851:9944   */\n      tag_281\n      jump\t// in\n    tag_393:\n        /* \"#utility.yul\":9969:9971   */\n      0x20\n        /* \"#utility.yul\":9964:9967   */\n      dup3\n        /* \"#utility.yul\":9960:9972   */\n      add\n        /* \"#utility.yul\":9953:9972   */\n      swap1\n      pop\n        /* \"#utility.yul\":9612:9978   */\n      swap2\n      swap1\n      pop\n      jump\t// out\n        /* \"#utility.yul\":9984:10403   */\n    tag_171:\n        /* \"#utility.yul\":10150:10154   */\n      0x00\n        /* \"#utility.yul\":10188:10190   */\n      0x20\n        /* \"#utility.yul\":10177:10186   */\n      dup3\n        /* \"#utility.yul\":10173:10191   */\n      add\n        /* \"#utility.yul\":10165:10191   */\n      swap1\n      pop\n        /* \"#utility.yul\":10237:10246   */\n      dup2\n        /* \"#utility.yul\":10231:10235   */\n      dup2\n        /* \"#utility.yul\":10227:10247   */\n      sub\n        /* \"#utility.yul\":10223:10224   */\n      0x00\n        /* \"#utility.yul\":10212:10221   */\n      dup4\n        /* \"#utility.yul\":10208:10225   */\n      add\n        /* \"#utility.yul\":10201:10248   */\n      mstore\n        /* \"#utility.yul\":10265:10396   */\n      tag_395\n        /* \"#utility.yul\":10391:10395   */\n      dup2\n        /* \"#utility.yul\":10265:10396   */\n      tag_282\n      jump\t// in\n    tag_395:\n        /* \"#utility.yul\":10257:10396   */\n      swap1\n      pop\n        /* \"#utility.yul\":9984:10403   */\n      swap2\n      swap1\n      pop\n      jump\t// out\n        /* \"#utility.yul\":10409:10587   */\n    tag_283:\n        /* \"#utility.yul\":10549:10579   */\n      0x46756572612064656c20706572696f646f206465207375626173746100000000\n        /* \"#utility.yul\":10545:10546   */\n      0x00\n        /* \"#utility.yul\":10537:10543   */\n      dup3\n        /* \"#utility.yul\":10533:10547   */\n      add\n        /* \"#utility.yul\":10526:10580   */\n      mstore\n        /* \"#utility.yul\":10409:10587   */\n      pop\n      jump\t// out\n        /* \"#utility.yul\":10593:10959   */\n    tag_284:\n        /* \"#utility.yul\":10735:10738   */\n      0x00\n        /* \"#utility.yul\":10756:10823   */\n      tag_398\n        /* \"#utility.yul\":10820:10822   */\n      0x1c\n        /* \"#utility.yul\":10815:10818   */\n      dup4\n        /* \"#utility.yul\":10756:10823   */\n      tag_272\n      jump\t// in\n    tag_398:\n        /* \"#utility.yul\":10749:10823   */\n      swap2\n      pop\n        /* \"#utility.yul\":10832:10925   */\n      tag_399\n        /* \"#utility.yul\":10921:10924   */\n      dup3\n        /* \"#utility.yul\":10832:10925   */\n      tag_283\n      jump\t// in\n    tag_399:\n        /* \"#utility.yul\":10950:10952   */\n      0x20\n        /* \"#utility.yul\":10945:10948   */\n      dup3\n        /* \"#utility.yul\":10941:10953   */\n      add\n        /* \"#utility.yul\":10934:10953   */\n      swap1\n      pop\n        /* \"#utility.yul\":10593:10959   */\n      swap2\n      swap1\n      pop\n      jump\t// out\n        /* \"#utility.yul\":10965:11384   */\n    tag_175:\n        /* \"#utility.yul\":11131:11135   */\n      0x00\n        /* \"#utility.yul\":11169:11171   */\n      0x20\n        /* \"#utility.yul\":11158:11167   */\n      dup3\n        /* \"#utility.yul\":11154:11172   */\n      add\n        /* \"#utility.yul\":11146:11172   */\n      swap1\n      pop\n        /* \"#utility.yul\":11218:11227   */\n      dup2\n        /* \"#utility.yul\":11212:11216   */\n      dup2\n        /* \"#utility.yul\":11208:11228   */\n      sub\n        /* \"#utility.yul\":11204:11205   */\n      0x00\n        /* \"#utility.yul\":11193:11202   */\n      dup4\n        /* \"#utility.yul\":11189:11206   */\n      add\n        /* \"#utility.yul\":11182:11229   */\n      mstore\n        /* \"#utility.yul\":11246:11377   */\n      tag_401\n        /* \"#utility.yul\":11372:11376   */\n      dup2\n        /* \"#utility.yul\":11246:11377   */\n      tag_284\n      jump\t// in\n    tag_401:\n        /* \"#utility.yul\":11238:11377   */\n      swap1\n      pop\n        /* \"#utility.yul\":10965:11384   */\n      swap2\n      swap1\n      pop\n      jump\t// out\n        /* \"#utility.yul\":11390:11571   */\n    tag_285:\n        /* \"#utility.yul\":11530:11563   */\n      0x4c612070756a61206465626520736572206d61796f7220717565206365726f00\n        /* \"#utility.yul\":11526:11527   */\n      0x00\n        /* \"#utility.yul\":11518:11524   */\n      dup3\n        /* \"#utility.yul\":11514:11528   */\n      add\n        /* \"#utility.yul\":11507:11564   */\n      mstore\n        /* \"#utility.yul\":11390:11571   */\n      pop\n      jump\t// out\n        /* \"#utility.yul\":11577:11943   */\n    tag_286:\n        /* \"#utility.yul\":11719:11722   */\n      0x00\n        /* \"#utility.yul\":11740:11807   */\n      tag_404\n        /* \"#utility.yul\":11804:11806   */\n      0x1f\n        /* \"#utility.yul\":11799:11802   */\n      dup4\n        /* \"#utility.yul\":11740:11807   */\n      tag_272\n      jump\t// in\n    tag_404:\n        /* \"#utility.yul\":11733:11807   */\n      swap2\n      pop\n        /* \"#utility.yul\":11816:11909   */\n      tag_405\n        /* \"#utility.yul\":11905:11908   */\n      dup3\n        /* \"#utility.yul\":11816:11909   */\n      tag_285\n      jump\t// in\n    tag_405:\n        /* \"#utility.yul\":11934:11936   */\n      0x20\n        /* \"#utility.yul\":11929:11932   */\n      dup3\n        /* \"#utility.yul\":11925:11937   */\n      add\n        /* \"#utility.yul\":11918:11937   */\n      swap1\n      pop\n        /* \"#utility.yul\":11577:11943   */\n      swap2\n      swap1\n      pop\n      jump\t// out\n        /* \"#utility.yul\":11949:12368   */\n    tag_179:\n        /* \"#utility.yul\":12115:12119   */\n      0x00\n        /* \"#utility.yul\":12153:12155   */\n      0x20\n        /* \"#utility.yul\":12142:12151   */\n      dup3\n        /* \"#utility.yul\":12138:12156   */\n      add\n        /* \"#utility.yul\":12130:12156   */\n      swap1\n      pop\n        /* \"#utility.yul\":12202:12211   */\n      dup2\n        /* \"#utility.yul\":12196:12200   */\n      dup2\n        /* \"#utility.yul\":12192:12212   */\n      sub\n        /* \"#utility.yul\":12188:12189   */\n      0x00\n        /* \"#utility.yul\":12177:12186   */\n      dup4\n        /* \"#utility.yul\":12173:12190   */\n      add\n        /* \"#utility.yul\":12166:12213   */\n      mstore\n        /* \"#utility.yul\":12230:12361   */\n      tag_407\n        /* \"#utility.yul\":12356:12360   */\n      dup2\n        /* \"#utility.yul\":12230:12361   */\n      tag_286\n      jump\t// in\n    tag_407:\n        /* \"#utility.yul\":12222:12361   */\n      swap1\n      pop\n        /* \"#utility.yul\":11949:12368   */\n      swap2\n      swap1\n      pop\n      jump\t// out\n        /* \"#utility.yul\":12374:12555   */\n    tag_287:\n        /* \"#utility.yul\":12514:12547   */\n      0x50756a612065786365646520656c206d6178696d6f207065726d697469646f00\n        /* \"#utility.yul\":12510:12511   */\n      0x00\n        /* \"#utility.yul\":12502:12508   */\n      dup3\n        /* \"#utility.yul\":12498:12512   */\n      add\n        /* \"#utility.yul\":12491:12548   */\n      mstore\n        /* \"#utility.yul\":12374:12555   */\n      pop\n      jump\t// out\n        /* \"#utility.yul\":12561:12927   */\n    tag_288:\n        /* \"#utility.yul\":12703:12706   */\n      0x00\n        /* \"#utility.yul\":12724:12791   */\n      tag_410\n        /* \"#utility.yul\":12788:12790   */\n      0x1f\n        /* \"#utility.yul\":12783:12786   */\n      dup4\n        /* \"#utility.yul\":12724:12791   */\n      tag_272\n      jump\t// in\n    tag_410:\n        /* \"#utility.yul\":12717:12791   */\n      swap2\n      pop\n        /* \"#utility.yul\":12800:12893   */\n      tag_411\n        /* \"#utility.yul\":12889:12892   */\n      dup3\n        /* \"#utility.yul\":12800:12893   */\n      tag_287\n      jump\t// in\n    tag_411:\n        /* \"#utility.yul\":12918:12920   */\n      0x20\n        /* \"#utility.yul\":12913:12916   */\n      dup3\n        /* \"#utility.yul\":12909:12921   */\n      add\n        /* \"#utility.yul\":12902:12921   */\n      swap1\n      pop\n        /* \"#utility.yul\":12561:12927   */\n      swap2\n      swap1\n      pop\n      jump\t// out\n        /* \"#utility.yul\":12933:13352   */\n    tag_182:\n        /* \"#utility.yul\":13099:13103   */\n      0x00\n        /* \"#utility.yul\":13137:13139   */\n      0x20\n        /* \"#utility.yul\":13126:13135   */\n      dup3\n        /* \"#utility.yul\":13122:13140   */\n      add\n        /* \"#utility.yul\":13114:13140   */\n      swap1\n      pop\n        /* \"#utility.yul\":13186:13195   */\n      dup2\n        /* \"#utility.yul\":13180:13184   */\n      dup2\n        /* \"#utility.yul\":13176:13196   */\n      sub\n        /* \"#utility.yul\":13172:13173   */\n      0x00\n        /* \"#utility.yul\":13161:13170   */\n      dup4\n        /* \"#utility.yul\":13157:13174   */\n      add\n        /* \"#utility.yul\":13150:13197   */\n      mstore\n        /* \"#utility.yul\":13214:13345   */\n      tag_413\n        /* \"#utility.yul\":13340:13344   */\n      dup2\n        /* \"#utility.yul\":13214:13345   */\n      tag_288\n      jump\t// in\n    tag_413:\n        /* \"#utility.yul\":13206:13345   */\n      swap1\n      pop\n        /* \"#utility.yul\":12933:13352   */\n      swap2\n      swap1\n      pop\n      jump\t// out\n        /* \"#utility.yul\":13358:13521   */\n    tag_289:\n        /* \"#utility.yul\":13498:13513   */\n      0x5961206861732070756a61646f00000000000000000000000000000000000000\n        /* \"#utility.yul\":13494:13495   */\n      0x00\n        /* \"#utility.yul\":13486:13492   */\n      dup3\n        /* \"#utility.yul\":13482:13496   */\n      add\n        /* \"#utility.yul\":13475:13514   */\n      mstore\n        /* \"#utility.yul\":13358:13521   */\n      pop\n      jump\t// out\n        /* \"#utility.yul\":13527:13893   */\n    tag_290:\n        /* \"#utility.yul\":13669:13672   */\n      0x00\n        /* \"#utility.yul\":13690:13757   */\n      tag_416\n        /* \"#utility.yul\":13754:13756   */\n      0x0d\n        /* \"#utility.yul\":13749:13752   */\n      dup4\n        /* \"#utility.yul\":13690:13757   */\n      tag_272\n      jump\t// in\n    tag_416:\n        /* \"#utility.yul\":13683:13757   */\n      swap2\n      pop\n        /* \"#utility.yul\":13766:13859   */\n      tag_417\n        /* \"#utility.yul\":13855:13858   */\n      dup3\n        /* \"#utility.yul\":13766:13859   */\n      tag_289\n      jump\t// in\n    tag_417:\n        /* \"#utility.yul\":13884:13886   */\n      0x20\n        /* \"#utility.yul\":13879:13882   */\n      dup3\n        /* \"#utility.yul\":13875:13887   */\n      add\n        /* \"#utility.yul\":13868:13887   */\n      swap1\n      pop\n        /* \"#utility.yul\":13527:13893   */\n      swap2\n      swap1\n      pop\n      jump\t// out\n        /* \"#utility.yul\":13899:14318   */\n    tag_186:\n        /* \"#utility.yul\":14065:14069   */\n      0x00\n        /* \"#utility.yul\":14103:14105   */\n      0x20\n        /* \"#utility.yul\":14092:14101   */\n      dup3\n        /* \"#utility.yul\":14088:14106   */\n      add\n        /* \"#utility.yul\":14080:14106   */\n      swap1\n      pop\n        /* \"#utility.yul\":14152:14161   */\n      dup2\n        /* \"#utility.yul\":14146:14150   */\n      dup2\n        /* \"#utility.yul\":14142:14162   */\n      sub\n        /* \"#utility.yul\":14138:14139   */\n      0x00\n        /* \"#utility.yul\":14127:14136   */\n      dup4\n        /* \"#utility.yul\":14123:14140   */\n      add\n        /* \"#utility.yul\":14116:14163   */\n      mstore\n        /* \"#utility.yul\":14180:14311   */\n      tag_419\n        /* \"#utility.yul\":14306:14310   */\n      dup2\n        /* \"#utility.yul\":14180:14311   */\n      tag_290\n      jump\t// in\n    tag_419:\n        /* \"#utility.yul\":14172:14311   */\n      swap1\n      pop\n        /* \"#utility.yul\":13899:14318   */\n      swap2\n      swap1\n      pop\n      jump\t// out\n        /* \"#utility.yul\":14324:14495   */\n    tag_291:\n        /* \"#utility.yul\":14464:14487   */\n      0x4465706f7369746f20696e737566696369656e74650000000000000000000000\n        /* \"#utility.yul\":14460:14461   */\n      0x00\n        /* \"#utility.yul\":14452:14458   */\n      dup3\n        /* \"#utility.yul\":14448:14462   */\n      add\n        /* \"#utility.yul\":14441:14488   */\n      mstore\n        /* \"#utility.yul\":14324:14495   */\n      pop\n      jump\t// out\n        /* \"#utility.yul\":14501:14867   */\n    tag_292:\n        /* \"#utility.yul\":14643:14646   */\n      0x00\n        /* \"#utility.yul\":14664:14731   */\n      tag_422\n        /* \"#utility.yul\":14728:14730   */\n      0x15\n        /* \"#utility.yul\":14723:14726   */\n      dup4\n        /* \"#utility.yul\":14664:14731   */\n      tag_272\n      jump\t// in\n    tag_422:\n        /* \"#utility.yul\":14657:14731   */\n      swap2\n      pop\n        /* \"#utility.yul\":14740:14833   */\n      tag_423\n        /* \"#utility.yul\":14829:14832   */\n      dup3\n        /* \"#utility.yul\":14740:14833   */\n      tag_291\n      jump\t// in\n    tag_423:\n        /* \"#utility.yul\":14858:14860   */\n      0x20\n        /* \"#utility.yul\":14853:14856   */\n      dup3\n        /* \"#utility.yul\":14849:14861   */\n      add\n        /* \"#utility.yul\":14842:14861   */\n      swap1\n      pop\n        /* \"#utility.yul\":14501:14867   */\n      swap2\n      swap1\n      pop\n      jump\t// out\n        /* \"#utility.yul\":14873:15292   */\n    tag_191:\n        /* \"#utility.yul\":15039:15043   */\n      0x00\n        /* \"#utility.yul\":15077:15079   */\n      0x20\n        /* \"#utility.yul\":15066:15075   */\n      dup3\n        /* \"#utility.yul\":15062:15080   */\n      add\n        /* \"#utility.yul\":15054:15080   */\n      swap1\n      pop\n        /* \"#utility.yul\":15126:15135   */\n      dup2\n        /* \"#utility.yul\":15120:15124   */\n      dup2\n        /* \"#utility.yul\":15116:15136   */\n      sub\n        /* \"#utility.yul\":15112:15113   */\n      0x00\n        /* \"#utility.yul\":15101:15110   */\n      dup4\n        /* \"#utility.yul\":15097:15114   */\n      add\n        /* \"#utility.yul\":15090:15137   */\n      mstore\n        /* \"#utility.yul\":15154:15285   */\n      tag_425\n        /* \"#utility.yul\":15280:15284   */\n      dup2\n        /* \"#utility.yul\":15154:15285   */\n      tag_292\n      jump\t// in\n    tag_425:\n        /* \"#utility.yul\":15146:15285   */\n      swap1\n      pop\n        /* \"#utility.yul\":14873:15292   */\n      swap2\n      swap1\n      pop\n      jump\t// out\n        /* \"#utility.yul\":15298:15460   */\n    tag_293:\n        /* \"#utility.yul\":15438:15452   */\n      0x4e6f206861792070756a61730000000000000000000000000000000000000000\n        /* \"#utility.yul\":15434:15435   */\n      0x00\n        /* \"#utility.yul\":15426:15432   */\n      dup3\n        /* \"#utility.yul\":15422:15436   */\n      add\n        /* \"#utility.yul\":15415:15453   */\n      mstore\n        /* \"#utility.yul\":15298:15460   */\n      pop\n      jump\t// out\n        /* \"#utility.yul\":15466:15832   */\n    tag_294:\n        /* \"#utility.yul\":15608:15611   */\n      0x00\n        /* \"#utility.yul\":15629:15696   */\n      tag_428\n        /* \"#utility.yul\":15693:15695   */\n      0x0c\n        /* \"#utility.yul\":15688:15691   */\n      dup4\n        /* \"#utility.yul\":15629:15696   */\n      tag_272\n      jump\t// in\n    tag_428:\n        /* \"#utility.yul\":15622:15696   */\n      swap2\n      pop\n        /* \"#utility.yul\":15705:15798   */\n      tag_429\n        /* \"#utility.yul\":15794:15797   */\n      dup3\n        /* \"#utility.yul\":15705:15798   */\n      tag_293\n      jump\t// in\n    tag_429:\n        /* \"#utility.yul\":15823:15825   */\n      0x20\n        /* \"#utility.yul\":15818:15821   */\n      dup3\n        /* \"#utility.yul\":15814:15826   */\n      add\n        /* \"#utility.yul\":15807:15826   */\n      swap1\n      pop\n        /* \"#utility.yul\":15466:15832   */\n      swap2\n      swap1\n      pop\n      jump\t// out\n        /* \"#utility.yul\":15838:16257   */\n    tag_206:\n        /* \"#utility.yul\":16004:16008   */\n      0x00\n        /* \"#utility.yul\":16042:16044   */\n      0x20\n        /* \"#utility.yul\":16031:16040   */\n      dup3\n        /* \"#utility.yul\":16027:16045   */\n      add\n        /* \"#utility.yul\":16019:16045   */\n      swap1\n      pop\n        /* \"#utility.yul\":16091:16100   */\n      dup2\n        /* \"#utility.yul\":16085:16089   */\n      dup2\n        /* \"#utility.yul\":16081:16101   */\n      sub\n        /* \"#utility.yul\":16077:16078   */\n      0x00\n        /* \"#utility.yul\":16066:16075   */\n      dup4\n        /* \"#utility.yul\":16062:16079   */\n      add\n        /* \"#utility.yul\":16055:16102   */\n      mstore\n        /* \"#utility.yul\":16119:16250   */\n      tag_431\n        /* \"#utility.yul\":16245:16249   */\n      dup2\n        /* \"#utility.yul\":16119:16250   */\n      tag_294\n      jump\t// in\n    tag_431:\n        /* \"#utility.yul\":16111:16250   */\n      swap1\n      pop\n        /* \"#utility.yul\":15838:16257   */\n      swap2\n      swap1\n      pop\n      jump\t// out\n\n    auxdata: 0xa264697066735822122090b8743487b0282af27cd4805393d1d0f290a84cc2716bd382fb02b4e055790f64736f6c634300081e0033\n}\n",
				"bytecode": {
					"linkReferences": {},
					"object": "608060405234801561000f575f5ffd5b50604051611b79380380611b7983398181016040528101906100319190610106565b335f5f6101000a81548173ffffffffffffffffffffffffffffffffffffffff021916908373ffffffffffffffffffffffffffffffffffffffff1602179055508260018190555062015180826100869190610183565b8361009191906101c4565b600281905550806003819055505f60045f6101000a81548160ff021916908360028111156100c2576100c16101f7565b5b0217905550505050610224565b5f5ffd5b5f819050919050565b6100e5816100d3565b81146100ef575f5ffd5b50565b5f81519050610100816100dc565b92915050565b5f5f5f6060848603121561011d5761011c6100cf565b5b5f61012a868287016100f2565b935050602061013b868287016100f2565b925050604061014c868287016100f2565b9150509250925092565b7f4e487b71000000000000000000000000000000000000000000000000000000005f52601160045260245ffd5b5f61018d826100d3565b9150610198836100d3565b92508282026101a6816100d3565b915082820484148315176101bd576101bc610156565b5b5092915050565b5f6101ce826100d3565b91506101d9836100d3565b92508282019050808211156101f1576101f0610156565b5b92915050565b7f4e487b71000000000000000000000000000000000000000000000000000000005f52602160045260245ffd5b611948806102315f395ff3fe6080604052600436106100f2575f3560e01c80635a84d52a11610089578063c1f5260411610058578063c1f52604146102ed578063cff29dfd14610317578063dfbf53ae14610353578063ecfc7ecc1461037d576100f2565b80635a84d52a1461024557806374b11d8a1461026f5780638da5cb5b14610299578063c19d93fb146102c3576100f2565b8063378252f2116100c5578063378252f21461019c5780634423c5f1146101b25780634cc4f50d146101f15780634f245ef71461021b576100f2565b8063235f0e46146100f657806328f6a48a146101325780632a24f46c1461015c578063362e256514610186575b5f5ffd5b348015610101575f5ffd5b5061011c600480360381019061011791906111c0565b610387565b6040516101299190611205565b60405180910390f35b34801561013d575f5ffd5b50610146610429565b6040516101539190611236565b60405180910390f35b348015610167575f5ffd5b50610170610435565b60405161017d9190611236565b60405180910390f35b348015610191575f5ffd5b5061019a61043b565b005b3480156101a7575f5ffd5b506101b06107ea565b005b3480156101bd575f5ffd5b506101d860048036038101906101d39190611279565b6108f6565b6040516101e894939291906112c4565b60405180910390f35b3480156101fc575f5ffd5b5061020561095c565b6040516102129190611236565b60405180910390f35b348015610226575f5ffd5b5061022f610961565b60405161023c9190611236565b60405180910390f35b348015610250575f5ffd5b50610259610967565b6040516102669190611236565b60405180910390f35b34801561027a575f5ffd5b5061028361096c565b6040516102909190611236565b60405180910390f35b3480156102a4575f5ffd5b506102ad610972565b6040516102ba9190611307565b60405180910390f35b3480156102ce575f5ffd5b506102d7610996565b6040516102e49190611393565b60405180910390f35b3480156102f8575f5ffd5b506103016109a8565b60405161030e9190611236565b60405180910390f35b348015610322575f5ffd5b5061033d60048036038101906103389190611279565b6109ae565b60405161034a91906113bb565b60405180910390f35b34801561035e575f5ffd5b506103676109e9565b6040516103749190611307565b60405180910390f35b610385610a0e565b005b5f5f5f90505b60068054905081101561041f578273ffffffffffffffffffffffffffffffffffffffff16600682815481106103c5576103c46113d4565b5b905f5260205f20015f9054906101000a900473ffffffffffffffffffffffffffffffffffffffff1673ffffffffffffffffffffffffffffffffffffffff1603610412576001915050610424565b808060010191505061038d565b505f90505b919050565b5f600580549050905090565b60025481565b5f5f9054906101000a900473ffffffffffffffffffffffffffffffffffffffff1673ffffffffffffffffffffffffffffffffffffffff163373ffffffffffffffffffffffffffffffffffffffff16146104c9576040517f08c379a00000000000000000000000000000000000000000000000000000000081526004016104c090611481565b60405180910390fd5b600160028111156104dd576104dc611320565b5b60045f9054906101000a900460ff1660028111156104fe576104fd611320565b5b1461053e576040517f08c379a0000000000000000000000000000000000000000000000000000000008152600401610535906114e9565b60405180910390fd5b5f5f90505b6005805490508110156107bd5760075f9054906101000a900473ffffffffffffffffffffffffffffffffffffffff1673ffffffffffffffffffffffffffffffffffffffff166005828154811061059c5761059b6113d4565b5b905f5260205f2090600402015f015f9054906101000a900473ffffffffffffffffffffffffffffffffffffffff1673ffffffffffffffffffffffffffffffffffffffff161415801561061b5750600581815481106105fd576105fc6113d4565b5b905f5260205f2090600402016003015f9054906101000a900460ff16155b156107b0575f6064600a60058481548110610639576106386113d4565b5b905f5260205f209060040201600101546106539190611534565b61065d91906115a2565b9050600160058381548110610675576106746113d4565b5b905f5260205f2090600402016003015f6101000a81548160ff021916908315150217905550600582815481106106ae576106ad6113d4565b5b905f5260205f2090600402015f015f9054906101000a900473ffffffffffffffffffffffffffffffffffffffff1673ffffffffffffffffffffffffffffffffffffffff166108fc8290811502906040515f60405180830381858888f1935050505015801561071e573d5f5f3e3d5ffd5b5060058281548110610733576107326113d4565b5b905f5260205f2090600402015f015f9054906101000a900473ffffffffffffffffffffffffffffffffffffffff1673ffffffffffffffffffffffffffffffffffffffff167fa09244c122a83074363635dc89ce0098166c2f74827960ff64a7c8e6ad1c57a2826040516107a69190611236565b60405180910390a2505b8080600101915050610543565b50600260045f6101000a81548160ff021916908360028111156107e3576107e2611320565b5b0217905550565b5f5f9054906101000a900473ffffffffffffffffffffffffffffffffffffffff1673ffffffffffffffffffffffffffffffffffffffff163373ffffffffffffffffffffffffffffffffffffffff1614610878576040517f08c379a000000000000000000000000000000000000000000000000000000000815260040161086f90611481565b60405180910390fd5b5f600281111561088b5761088a611320565b5b60045f9054906101000a900460ff1660028111156108ac576108ab611320565b5b146108ec576040517f08c379a00000000000000000000000000000000000000000000000000000000081526004016108e39061161c565b60405180910390fd5b6108f4610da5565b565b60058181548110610905575f80fd5b905f5260205f2090600402015f91509050805f015f9054906101000a900473ffffffffffffffffffffffffffffffffffffffff1690806001015490806002015490806003015f9054906101000a900460ff16905084565b601e81565b60015481565b600a81565b60035481565b5f5f9054906101000a900473ffffffffffffffffffffffffffffffffffffffff1681565b60045f9054906101000a900460ff1681565b60085481565b600681815481106109bd575f80fd5b905f5260205f20015f915054906101000a900473ffffffffffffffffffffffffffffffffffffffff1681565b60075f9054906101000a900473ffffffffffffffffffffffffffffffffffffffff1681565b5f6002811115610a2157610a20611320565b5b60045f9054906101000a900460ff166002811115610a4257610a41611320565b5b14610a82576040517f08c379a0000000000000000000000000000000000000000000000000000000008152600401610a7990611684565b60405180910390fd5b6001544210158015610a9657506002544211155b610ad5576040517f08c379a0000000000000000000000000000000000000000000000000000000008152600401610acc906116ec565b60405180910390fd5b5f3411610b17576040517f08c379a0000000000000000000000000000000000000000000000000000000008152600401610b0e90611754565b60405180910390fd5b600354341115610b5c576040517f08c379a0000000000000000000000000000000000000000000000000000000008152600401610b53906117bc565b60405180910390fd5b610b6533610387565b15610ba5576040517f08c379a0000000000000000000000000000000000000000000000000000000008152600401610b9c90611824565b60405180910390fd5b5f6064600a34610bb59190611534565b610bbf91906115a2565b905080341015610c04576040517f08c379a0000000000000000000000000000000000000000000000000000000008152600401610bfb9061188c565b60405180910390fd5b600560405180608001604052803373ffffffffffffffffffffffffffffffffffffffff1681526020013481526020014281526020015f1515815250908060018154018082558091505060019003905f5260205f2090600402015f909190919091505f820151815f015f6101000a81548173ffffffffffffffffffffffffffffffffffffffff021916908373ffffffffffffffffffffffffffffffffffffffff16021790555060208201518160010155604082015181600201556060820151816003015f6101000a81548160ff0219169083151502179055505050600633908060018154018082558091505060019003905f5260205f20015f9091909190916101000a81548173ffffffffffffffffffffffffffffffffffffffff021916908373ffffffffffffffffffffffffffffffffffffffff160217905550601e60058054905003610d5457610d53610da5565b5b3373ffffffffffffffffffffffffffffffffffffffff167f3fabff0a9c3ecd6814702e247fa9733e5d0aa69e3a38590f92cb18f623a2254d34604051610d9a9190611236565b60405180910390a250565b600160045f6101000a81548160ff02191690836002811115610dca57610dc9611320565b5b0217905550610dd7610e96565b60075f60085f84919050558391906101000a81548173ffffffffffffffffffffffffffffffffffffffff021916908373ffffffffffffffffffffffffffffffffffffffff160217905550505060075f9054906101000a900473ffffffffffffffffffffffffffffffffffffffff1673ffffffffffffffffffffffffffffffffffffffff167f1d78ca6377547e2f5434a04066a4dcac7670fd77e146b686b06bf8fbc06fb435600854604051610e8c9190611236565b60405180910390a2565b5f5f5f60058054905011610edf576040517f08c379a0000000000000000000000000000000000000000000000000000000008152600401610ed6906118f4565b60405180910390fd5b5f60035490505f60035490505f5f7fffffffffffffffffffffffffffffffffffffffffffffffffffffffffffffffff90505f5f90505b60058054905081101561113f578460058281548110610f3757610f366113d4565b5b905f5260205f209060040201600101541015610fe55784935060058181548110610f6457610f636113d4565b5b905f5260205f20906004020160010154945060058181548110610f8a57610f896113d4565b5b905f5260205f2090600402015f015f9054906101000a900473ffffffffffffffffffffffffffffffffffffffff16925060058181548110610fce57610fcd6113d4565b5b905f5260205f209060040201600201549150611132565b8460058281548110610ffa57610ff96113d4565b5b905f5260205f2090600402016001015414801561103957508160058281548110611027576110266113d4565b5b905f5260205f20906004020160020154105b156110b05784935060058181548110611055576110546113d4565b5b905f5260205f2090600402015f015f9054906101000a900473ffffffffffffffffffffffffffffffffffffffff16925060058181548110611099576110986113d4565b5b905f5260205f209060040201600201549150611131565b83600582815481106110c5576110c46113d4565b5b905f5260205f20906004020160010154108015611104575084600582815481106110f2576110f16113d4565b5b905f5260205f20906004020160010154115b15611130576005818154811061111d5761111c6113d4565b5b905f5260205f2090600402016001015493505b5b5b8080600101915050610f15565b50816001600580549050146111545783611156565b845b95509550505050509091565b5f5ffd5b5f73ffffffffffffffffffffffffffffffffffffffff82169050919050565b5f61118f82611166565b9050919050565b61119f81611185565b81146111a9575f5ffd5b50565b5f813590506111ba81611196565b92915050565b5f602082840312156111d5576111d4611162565b5b5f6111e2848285016111ac565b91505092915050565b5f8115159050919050565b6111ff816111eb565b82525050565b5f6020820190506112185f8301846111f6565b92915050565b5f819050919050565b6112308161121e565b82525050565b5f6020820190506112495f830184611227565b92915050565b6112588161121e565b8114611262575f5ffd5b50565b5f813590506112738161124f565b92915050565b5f6020828403121561128e5761128d611162565b5b5f61129b84828501611265565b91505092915050565b5f6112ae82611166565b9050919050565b6112be816112a4565b82525050565b5f6080820190506112d75f8301876112b5565b6112e46020830186611227565b6112f16040830185611227565b6112fe60608301846111f6565b95945050505050565b5f60208201905061131a5f8301846112b5565b92915050565b7f4e487b71000000000000000000000000000000000000000000000000000000005f52602160045260245ffd5b6003811061135e5761135d611320565b5b50565b5f81905061136e8261134d565b919050565b5f61137d82611361565b9050919050565b61138d81611373565b82525050565b5f6020820190506113a65f830184611384565b92915050565b6113b581611185565b82525050565b5f6020820190506113ce5f8301846113ac565b92915050565b7f4e487b71000000000000000000000000000000000000000000000000000000005f52603260045260245ffd5b5f82825260208201905092915050565b7f536f6c6f20656c2070726f706965746172696f207075656465207265616c697a5f8201527f6172206573746120616363696f6e000000000000000000000000000000000000602082015250565b5f61146b602e83611401565b915061147682611411565b604082019050919050565b5f6020820190508181035f8301526114988161145f565b9050919050565b7f53756261737461206e6f2066696e616c697a61646100000000000000000000005f82015250565b5f6114d3601583611401565b91506114de8261149f565b602082019050919050565b5f6020820190508181035f830152611500816114c7565b9050919050565b7f4e487b71000000000000000000000000000000000000000000000000000000005f52601160045260245ffd5b5f61153e8261121e565b91506115498361121e565b92508282026115578161121e565b9150828204841483151761156e5761156d611507565b5b5092915050565b7f4e487b71000000000000000000000000000000000000000000000000000000005f52601260045260245ffd5b5f6115ac8261121e565b91506115b78361121e565b9250826115c7576115c6611575565b5b828204905092915050565b7f53756261737461207961206365727261646100000000000000000000000000005f82015250565b5f611606601283611401565b9150611611826115d2565b602082019050919050565b5f6020820190508181035f830152611633816115fa565b9050919050565b7f53756261737461206e6f206163746976610000000000000000000000000000005f82015250565b5f61166e601183611401565b91506116798261163a565b602082019050919050565b5f6020820190508181035f83015261169b81611662565b9050919050565b7f46756572612064656c20706572696f646f2064652073756261737461000000005f82015250565b5f6116d6601c83611401565b91506116e1826116a2565b602082019050919050565b5f6020820190508181035f830152611703816116ca565b9050919050565b7f4c612070756a61206465626520736572206d61796f7220717565206365726f005f82015250565b5f61173e601f83611401565b91506117498261170a565b602082019050919050565b5f6020820190508181035f83015261176b81611732565b9050919050565b7f50756a612065786365646520656c206d6178696d6f207065726d697469646f005f82015250565b5f6117a6601f83611401565b91506117b182611772565b602082019050919050565b5f6020820190508181035f8301526117d38161179a565b9050919050565b7f5961206861732070756a61646f000000000000000000000000000000000000005f82015250565b5f61180e600d83611401565b9150611819826117da565b602082019050919050565b5f6020820190508181035f83015261183b81611802565b9050919050565b7f4465706f7369746f20696e737566696369656e746500000000000000000000005f82015250565b5f611876601583611401565b915061188182611842565b602082019050919050565b5f6020820190508181035f8301526118a38161186a565b9050919050565b7f4e6f206861792070756a617300000000000000000000000000000000000000005f82015250565b5f6118de600c83611401565b91506118e9826118aa565b602082019050919050565b5f6020820190508181035f83015261190b816118d2565b905091905056fea264697066735822122090b8743487b0282af27cd4805393d1d0f290a84cc2716bd382fb02b4e055790f64736f6c634300081e0033",
					"opcodes": "PUSH1 0x80 PUSH1 0x40 MSTORE CALLVALUE DUP1 ISZERO PUSH2 0xF JUMPI PUSH0 PUSH0 REVERT JUMPDEST POP PUSH1 0x40 MLOAD PUSH2 0x1B79 CODESIZE SUB DUP1 PUSH2 0x1B79 DUP4 CODECOPY DUP2 DUP2 ADD PUSH1 0x40 MSTORE DUP2 ADD SWAP1 PUSH2 0x31 SWAP2 SWAP1 PUSH2 0x106 JUMP JUMPDEST CALLER PUSH0 PUSH0 PUSH2 0x100 EXP DUP2 SLOAD DUP2 PUSH20 0xFFFFFFFFFFFFFFFFFFFFFFFFFFFFFFFFFFFFFFFF MUL NOT AND SWAP1 DUP4 PUSH20 0xFFFFFFFFFFFFFFFFFFFFFFFFFFFFFFFFFFFFFFFF AND MUL OR SWAP1 SSTORE POP DUP3 PUSH1 0x1 DUP2 SWAP1 SSTORE POP PUSH3 0x15180 DUP3 PUSH2 0x86 SWAP2 SWAP1 PUSH2 0x183 JUMP JUMPDEST DUP4 PUSH2 0x91 SWAP2 SWAP1 PUSH2 0x1C4 JUMP JUMPDEST PUSH1 0x2 DUP2 SWAP1 SSTORE POP DUP1 PUSH1 0x3 DUP2 SWAP1 SSTORE POP PUSH0 PUSH1 0x4 PUSH0 PUSH2 0x100 EXP DUP2 SLOAD DUP2 PUSH1 0xFF MUL NOT AND SWAP1 DUP4 PUSH1 0x2 DUP2 GT ISZERO PUSH2 0xC2 JUMPI PUSH2 0xC1 PUSH2 0x1F7 JUMP JUMPDEST JUMPDEST MUL OR SWAP1 SSTORE POP POP POP POP PUSH2 0x224 JUMP JUMPDEST PUSH0 PUSH0 REVERT JUMPDEST PUSH0 DUP2 SWAP1 POP SWAP2 SWAP1 POP JUMP JUMPDEST PUSH2 0xE5 DUP2 PUSH2 0xD3 JUMP JUMPDEST DUP2 EQ PUSH2 0xEF JUMPI PUSH0 PUSH0 REVERT JUMPDEST POP JUMP JUMPDEST PUSH0 DUP2 MLOAD SWAP1 POP PUSH2 0x100 DUP2 PUSH2 0xDC JUMP JUMPDEST SWAP3 SWAP2 POP POP JUMP JUMPDEST PUSH0 PUSH0 PUSH0 PUSH1 0x60 DUP5 DUP7 SUB SLT ISZERO PUSH2 0x11D JUMPI PUSH2 0x11C PUSH2 0xCF JUMP JUMPDEST JUMPDEST PUSH0 PUSH2 0x12A DUP7 DUP3 DUP8 ADD PUSH2 0xF2 JUMP JUMPDEST SWAP4 POP POP PUSH1 0x20 PUSH2 0x13B DUP7 DUP3 DUP8 ADD PUSH2 0xF2 JUMP JUMPDEST SWAP3 POP POP PUSH1 0x40 PUSH2 0x14C DUP7 DUP3 DUP8 ADD PUSH2 0xF2 JUMP JUMPDEST SWAP2 POP POP SWAP3 POP SWAP3 POP SWAP3 JUMP JUMPDEST PUSH32 0x4E487B7100000000000000000000000000000000000000000000000000000000 PUSH0 MSTORE PUSH1 0x11 PUSH1 0x4 MSTORE PUSH1 0x24 PUSH0 REVERT JUMPDEST PUSH0 PUSH2 0x18D DUP3 PUSH2 0xD3 JUMP JUMPDEST SWAP2 POP PUSH2 0x198 DUP4 PUSH2 0xD3 JUMP JUMPDEST SWAP3 POP DUP3 DUP3 MUL PUSH2 0x1A6 DUP2 PUSH2 0xD3 JUMP JUMPDEST SWAP2 POP DUP3 DUP3 DIV DUP5 EQ DUP4 ISZERO OR PUSH2 0x1BD JUMPI PUSH2 0x1BC PUSH2 0x156 JUMP JUMPDEST JUMPDEST POP SWAP3 SWAP2 POP POP JUMP JUMPDEST PUSH0 PUSH2 0x1CE DUP3 PUSH2 0xD3 JUMP JUMPDEST SWAP2 POP PUSH2 0x1D9 DUP4 PUSH2 0xD3 JUMP JUMPDEST SWAP3 POP DUP3 DUP3 ADD SWAP1 POP DUP1 DUP3 GT ISZERO PUSH2 0x1F1 JUMPI PUSH2 0x1F0 PUSH2 0x156 JUMP JUMPDEST JUMPDEST SWAP3 SWAP2 POP POP JUMP JUMPDEST PUSH32 0x4E487B7100000000000000000000000000000000000000000000000000000000 PUSH0 MSTORE PUSH1 0x21 PUSH1 0x4 MSTORE PUSH1 0x24 PUSH0 REVERT JUMPDEST PUSH2 0x1948 DUP1 PUSH2 0x231 PUSH0 CODECOPY PUSH0 RETURN INVALID PUSH1 0x80 PUSH1 0x40 MSTORE PUSH1 0x4 CALLDATASIZE LT PUSH2 0xF2 JUMPI PUSH0 CALLDATALOAD PUSH1 0xE0 SHR DUP1 PUSH4 0x5A84D52A GT PUSH2 0x89 JUMPI DUP1 PUSH4 0xC1F52604 GT PUSH2 0x58 JUMPI DUP1 PUSH4 0xC1F52604 EQ PUSH2 0x2ED JUMPI DUP1 PUSH4 0xCFF29DFD EQ PUSH2 0x317 JUMPI DUP1 PUSH4 0xDFBF53AE EQ PUSH2 0x353 JUMPI DUP1 PUSH4 0xECFC7ECC EQ PUSH2 0x37D JUMPI PUSH2 0xF2 JUMP JUMPDEST DUP1 PUSH4 0x5A84D52A EQ PUSH2 0x245 JUMPI DUP1 PUSH4 0x74B11D8A EQ PUSH2 0x26F JUMPI DUP1 PUSH4 0x8DA5CB5B EQ PUSH2 0x299 JUMPI DUP1 PUSH4 0xC19D93FB EQ PUSH2 0x2C3 JUMPI PUSH2 0xF2 JUMP JUMPDEST DUP1 PUSH4 0x378252F2 GT PUSH2 0xC5 JUMPI DUP1 PUSH4 0x378252F2 EQ PUSH2 0x19C JUMPI DUP1 PUSH4 0x4423C5F1 EQ PUSH2 0x1B2 JUMPI DUP1 PUSH4 0x4CC4F50D EQ PUSH2 0x1F1 JUMPI DUP1 PUSH4 0x4F245EF7 EQ PUSH2 0x21B JUMPI PUSH2 0xF2 JUMP JUMPDEST DUP1 PUSH4 0x235F0E46 EQ PUSH2 0xF6 JUMPI DUP1 PUSH4 0x28F6A48A EQ PUSH2 0x132 JUMPI DUP1 PUSH4 0x2A24F46C EQ PUSH2 0x15C JUMPI DUP1 PUSH4 0x362E2565 EQ PUSH2 0x186 JUMPI JUMPDEST PUSH0 PUSH0 REVERT JUMPDEST CALLVALUE DUP1 ISZERO PUSH2 0x101 JUMPI PUSH0 PUSH0 REVERT JUMPDEST POP PUSH2 0x11C PUSH1 0x4 DUP1 CALLDATASIZE SUB DUP2 ADD SWAP1 PUSH2 0x117 SWAP2 SWAP1 PUSH2 0x11C0 JUMP JUMPDEST PUSH2 0x387 JUMP JUMPDEST PUSH1 0x40 MLOAD PUSH2 0x129 SWAP2 SWAP1 PUSH2 0x1205 JUMP JUMPDEST PUSH1 0x40 MLOAD DUP1 SWAP2 SUB SWAP1 RETURN JUMPDEST CALLVALUE DUP1 ISZERO PUSH2 0x13D JUMPI PUSH0 PUSH0 REVERT JUMPDEST POP PUSH2 0x146 PUSH2 0x429 JUMP JUMPDEST PUSH1 0x40 MLOAD PUSH2 0x153 SWAP2 SWAP1 PUSH2 0x1236 JUMP JUMPDEST PUSH1 0x40 MLOAD DUP1 SWAP2 SUB SWAP1 RETURN JUMPDEST CALLVALUE DUP1 ISZERO PUSH2 0x167 JUMPI PUSH0 PUSH0 REVERT JUMPDEST POP PUSH2 0x170 PUSH2 0x435 JUMP JUMPDEST PUSH1 0x40 MLOAD PUSH2 0x17D SWAP2 SWAP1 PUSH2 0x1236 JUMP JUMPDEST PUSH1 0x40 MLOAD DUP1 SWAP2 SUB SWAP1 RETURN JUMPDEST CALLVALUE DUP1 ISZERO PUSH2 0x191 JUMPI PUSH0 PUSH0 REVERT JUMPDEST POP PUSH2 0x19A PUSH2 0x43B JUMP JUMPDEST STOP JUMPDEST CALLVALUE DUP1 ISZERO PUSH2 0x1A7 JUMPI PUSH0 PUSH0 REVERT JUMPDEST POP PUSH2 0x1B0 PUSH2 0x7EA JUMP JUMPDEST STOP JUMPDEST CALLVALUE DUP1 ISZERO PUSH2 0x1BD JUMPI PUSH0 PUSH0 REVERT JUMPDEST POP PUSH2 0x1D8 PUSH1 0x4 DUP1 CALLDATASIZE SUB DUP2 ADD SWAP1 PUSH2 0x1D3 SWAP2 SWAP1 PUSH2 0x1279 JUMP JUMPDEST PUSH2 0x8F6 JUMP JUMPDEST PUSH1 0x40 MLOAD PUSH2 0x1E8 SWAP5 SWAP4 SWAP3 SWAP2 SWAP1 PUSH2 0x12C4 JUMP JUMPDEST PUSH1 0x40 MLOAD DUP1 SWAP2 SUB SWAP1 RETURN JUMPDEST CALLVALUE DUP1 ISZERO PUSH2 0x1FC JUMPI PUSH0 PUSH0 REVERT JUMPDEST POP PUSH2 0x205 PUSH2 0x95C JUMP JUMPDEST PUSH1 0x40 MLOAD PUSH2 0x212 SWAP2 SWAP1 PUSH2 0x1236 JUMP JUMPDEST PUSH1 0x40 MLOAD DUP1 SWAP2 SUB SWAP1 RETURN JUMPDEST CALLVALUE DUP1 ISZERO PUSH2 0x226 JUMPI PUSH0 PUSH0 REVERT JUMPDEST POP PUSH2 0x22F PUSH2 0x961 JUMP JUMPDEST PUSH1 0x40 MLOAD PUSH2 0x23C SWAP2 SWAP1 PUSH2 0x1236 JUMP JUMPDEST PUSH1 0x40 MLOAD DUP1 SWAP2 SUB SWAP1 RETURN JUMPDEST CALLVALUE DUP1 ISZERO PUSH2 0x250 JUMPI PUSH0 PUSH0 REVERT JUMPDEST POP PUSH2 0x259 PUSH2 0x967 JUMP JUMPDEST PUSH1 0x40 MLOAD PUSH2 0x266 SWAP2 SWAP1 PUSH2 0x1236 JUMP JUMPDEST PUSH1 0x40 MLOAD DUP1 SWAP2 SUB SWAP1 RETURN JUMPDEST CALLVALUE DUP1 ISZERO PUSH2 0x27A JUMPI PUSH0 PUSH0 REVERT JUMPDEST POP PUSH2 0x283 PUSH2 0x96C JUMP JUMPDEST PUSH1 0x40 MLOAD PUSH2 0x290 SWAP2 SWAP1 PUSH2 0x1236 JUMP JUMPDEST PUSH1 0x40 MLOAD DUP1 SWAP2 SUB SWAP1 RETURN JUMPDEST CALLVALUE DUP1 ISZERO PUSH2 0x2A4 JUMPI PUSH0 PUSH0 REVERT JUMPDEST POP PUSH2 0x2AD PUSH2 0x972 JUMP JUMPDEST PUSH1 0x40 MLOAD PUSH2 0x2BA SWAP2 SWAP1 PUSH2 0x1307 JUMP JUMPDEST PUSH1 0x40 MLOAD DUP1 SWAP2 SUB SWAP1 RETURN JUMPDEST CALLVALUE DUP1 ISZERO PUSH2 0x2CE JUMPI PUSH0 PUSH0 REVERT JUMPDEST POP PUSH2 0x2D7 PUSH2 0x996 JUMP JUMPDEST PUSH1 0x40 MLOAD PUSH2 0x2E4 SWAP2 SWAP1 PUSH2 0x1393 JUMP JUMPDEST PUSH1 0x40 MLOAD DUP1 SWAP2 SUB SWAP1 RETURN JUMPDEST CALLVALUE DUP1 ISZERO PUSH2 0x2F8 JUMPI PUSH0 PUSH0 REVERT JUMPDEST POP PUSH2 0x301 PUSH2 0x9A8 JUMP JUMPDEST PUSH1 0x40 MLOAD PUSH2 0x30E SWAP2 SWAP1 PUSH2 0x1236 JUMP JUMPDEST PUSH1 0x40 MLOAD DUP1 SWAP2 SUB SWAP1 RETURN JUMPDEST CALLVALUE DUP1 ISZERO PUSH2 0x322 JUMPI PUSH0 PUSH0 REVERT JUMPDEST POP PUSH2 0x33D PUSH1 0x4 DUP1 CALLDATASIZE SUB DUP2 ADD SWAP1 PUSH2 0x338 SWAP2 SWAP1 PUSH2 0x1279 JUMP JUMPDEST PUSH2 0x9AE JUMP JUMPDEST PUSH1 0x40 MLOAD PUSH2 0x34A SWAP2 SWAP1 PUSH2 0x13BB JUMP JUMPDEST PUSH1 0x40 MLOAD DUP1 SWAP2 SUB SWAP1 RETURN JUMPDEST CALLVALUE DUP1 ISZERO PUSH2 0x35E JUMPI PUSH0 PUSH0 REVERT JUMPDEST POP PUSH2 0x367 PUSH2 0x9E9 JUMP JUMPDEST PUSH1 0x40 MLOAD PUSH2 0x374 SWAP2 SWAP1 PUSH2 0x1307 JUMP JUMPDEST PUSH1 0x40 MLOAD DUP1 SWAP2 SUB SWAP1 RETURN JUMPDEST PUSH2 0x385 PUSH2 0xA0E JUMP JUMPDEST STOP JUMPDEST PUSH0 PUSH0 PUSH0 SWAP1 POP JUMPDEST PUSH1 0x6 DUP1 SLOAD SWAP1 POP DUP2 LT ISZERO PUSH2 0x41F JUMPI DUP3 PUSH20 0xFFFFFFFFFFFFFFFFFFFFFFFFFFFFFFFFFFFFFFFF AND PUSH1 0x6 DUP3 DUP2 SLOAD DUP2 LT PUSH2 0x3C5 JUMPI PUSH2 0x3C4 PUSH2 0x13D4 JUMP JUMPDEST JUMPDEST SWAP1 PUSH0 MSTORE PUSH1 0x20 PUSH0 KECCAK256 ADD PUSH0 SWAP1 SLOAD SWAP1 PUSH2 0x100 EXP SWAP1 DIV PUSH20 0xFFFFFFFFFFFFFFFFFFFFFFFFFFFFFFFFFFFFFFFF AND PUSH20 0xFFFFFFFFFFFFFFFFFFFFFFFFFFFFFFFFFFFFFFFF AND SUB PUSH2 0x412 JUMPI PUSH1 0x1 SWAP2 POP POP PUSH2 0x424 JUMP JUMPDEST DUP1 DUP1 PUSH1 0x1 ADD SWAP2 POP POP PUSH2 0x38D JUMP JUMPDEST POP PUSH0 SWAP1 POP JUMPDEST SWAP2 SWAP1 POP JUMP JUMPDEST PUSH0 PUSH1 0x5 DUP1 SLOAD SWAP1 POP SWAP1 POP SWAP1 JUMP JUMPDEST PUSH1 0x2 SLOAD DUP2 JUMP JUMPDEST PUSH0 PUSH0 SWAP1 SLOAD SWAP1 PUSH2 0x100 EXP SWAP1 DIV PUSH20 0xFFFFFFFFFFFFFFFFFFFFFFFFFFFFFFFFFFFFFFFF AND PUSH20 0xFFFFFFFFFFFFFFFFFFFFFFFFFFFFFFFFFFFFFFFF AND CALLER PUSH20 0xFFFFFFFFFFFFFFFFFFFFFFFFFFFFFFFFFFFFFFFF AND EQ PUSH2 0x4C9 JUMPI PUSH1 0x40 MLOAD PUSH32 0x8C379A000000000000000000000000000000000000000000000000000000000 DUP2 MSTORE PUSH1 0x4 ADD PUSH2 0x4C0 SWAP1 PUSH2 0x1481 JUMP JUMPDEST PUSH1 0x40 MLOAD DUP1 SWAP2 SUB SWAP1 REVERT JUMPDEST PUSH1 0x1 PUSH1 0x2 DUP2 GT ISZERO PUSH2 0x4DD JUMPI PUSH2 0x4DC PUSH2 0x1320 JUMP JUMPDEST JUMPDEST PUSH1 0x4 PUSH0 SWAP1 SLOAD SWAP1 PUSH2 0x100 EXP SWAP1 DIV PUSH1 0xFF AND PUSH1 0x2 DUP2 GT ISZERO PUSH2 0x4FE JUMPI PUSH2 0x4FD PUSH2 0x1320 JUMP JUMPDEST JUMPDEST EQ PUSH2 0x53E JUMPI PUSH1 0x40 MLOAD PUSH32 0x8C379A000000000000000000000000000000000000000000000000000000000 DUP2 MSTORE PUSH1 0x4 ADD PUSH2 0x535 SWAP1 PUSH2 0x14E9 JUMP JUMPDEST PUSH1 0x40 MLOAD DUP1 SWAP2 SUB SWAP1 REVERT JUMPDEST PUSH0 PUSH0 SWAP1 POP JUMPDEST PUSH1 0x5 DUP1 SLOAD SWAP1 POP DUP2 LT ISZERO PUSH2 0x7BD JUMPI PUSH1 0x7 PUSH0 SWAP1 SLOAD SWAP1 PUSH2 0x100 EXP SWAP1 DIV PUSH20 0xFFFFFFFFFFFFFFFFFFFFFFFFFFFFFFFFFFFFFFFF AND PUSH20 0xFFFFFFFFFFFFFFFFFFFFFFFFFFFFFFFFFFFFFFFF AND PUSH1 0x5 DUP3 DUP2 SLOAD DUP2 LT PUSH2 0x59C JUMPI PUSH2 0x59B PUSH2 0x13D4 JUMP JUMPDEST JUMPDEST SWAP1 PUSH0 MSTORE PUSH1 0x20 PUSH0 KECCAK256 SWAP1 PUSH1 0x4 MUL ADD PUSH0 ADD PUSH0 SWAP1 SLOAD SWAP1 PUSH2 0x100 EXP SWAP1 DIV PUSH20 0xFFFFFFFFFFFFFFFFFFFFFFFFFFFFFFFFFFFFFFFF AND PUSH20 0xFFFFFFFFFFFFFFFFFFFFFFFFFFFFFFFFFFFFFFFF AND EQ ISZERO DUP1 ISZERO PUSH2 0x61B JUMPI POP PUSH1 0x5 DUP2 DUP2 SLOAD DUP2 LT PUSH2 0x5FD JUMPI PUSH2 0x5FC PUSH2 0x13D4 JUMP JUMPDEST JUMPDEST SWAP1 PUSH0 MSTORE PUSH1 0x20 PUSH0 KECCAK256 SWAP1 PUSH1 0x4 MUL ADD PUSH1 0x3 ADD PUSH0 SWAP1 SLOAD SWAP1 PUSH2 0x100 EXP SWAP1 DIV PUSH1 0xFF AND ISZERO JUMPDEST ISZERO PUSH2 0x7B0 JUMPI PUSH0 PUSH1 0x64 PUSH1 0xA PUSH1 0x5 DUP5 DUP2 SLOAD DUP2 LT PUSH2 0x639 JUMPI PUSH2 0x638 PUSH2 0x13D4 JUMP JUMPDEST JUMPDEST SWAP1 PUSH0 MSTORE PUSH1 0x20 PUSH0 KECCAK256 SWAP1 PUSH1 0x4 MUL ADD PUSH1 0x1 ADD SLOAD PUSH2 0x653 SWAP2 SWAP1 PUSH2 0x1534 JUMP JUMPDEST PUSH2 0x65D SWAP2 SWAP1 PUSH2 0x15A2 JUMP JUMPDEST SWAP1 POP PUSH1 0x1 PUSH1 0x5 DUP4 DUP2 SLOAD DUP2 LT PUSH2 0x675 JUMPI PUSH2 0x674 PUSH2 0x13D4 JUMP JUMPDEST JUMPDEST SWAP1 PUSH0 MSTORE PUSH1 0x20 PUSH0 KECCAK256 SWAP1 PUSH1 0x4 MUL ADD PUSH1 0x3 ADD PUSH0 PUSH2 0x100 EXP DUP2 SLOAD DUP2 PUSH1 0xFF MUL NOT AND SWAP1 DUP4 ISZERO ISZERO MUL OR SWAP1 SSTORE POP PUSH1 0x5 DUP3 DUP2 SLOAD DUP2 LT PUSH2 0x6AE JUMPI PUSH2 0x6AD PUSH2 0x13D4 JUMP JUMPDEST JUMPDEST SWAP1 PUSH0 MSTORE PUSH1 0x20 PUSH0 KECCAK256 SWAP1 PUSH1 0x4 MUL ADD PUSH0 ADD PUSH0 SWAP1 SLOAD SWAP1 PUSH2 0x100 EXP SWAP1 DIV PUSH20 0xFFFFFFFFFFFFFFFFFFFFFFFFFFFFFFFFFFFFFFFF AND PUSH20 0xFFFFFFFFFFFFFFFFFFFFFFFFFFFFFFFFFFFFFFFF AND PUSH2 0x8FC DUP3 SWAP1 DUP2 ISZERO MUL SWAP1 PUSH1 0x40 MLOAD PUSH0 PUSH1 0x40 MLOAD DUP1 DUP4 SUB DUP2 DUP6 DUP9 DUP9 CALL SWAP4 POP POP POP POP ISZERO DUP1 ISZERO PUSH2 0x71E JUMPI RETURNDATASIZE PUSH0 PUSH0 RETURNDATACOPY RETURNDATASIZE PUSH0 REVERT JUMPDEST POP PUSH1 0x5 DUP3 DUP2 SLOAD DUP2 LT PUSH2 0x733 JUMPI PUSH2 0x732 PUSH2 0x13D4 JUMP JUMPDEST JUMPDEST SWAP1 PUSH0 MSTORE PUSH1 0x20 PUSH0 KECCAK256 SWAP1 PUSH1 0x4 MUL ADD PUSH0 ADD PUSH0 SWAP1 SLOAD SWAP1 PUSH2 0x100 EXP SWAP1 DIV PUSH20 0xFFFFFFFFFFFFFFFFFFFFFFFFFFFFFFFFFFFFFFFF AND PUSH20 0xFFFFFFFFFFFFFFFFFFFFFFFFFFFFFFFFFFFFFFFF AND PUSH32 0xA09244C122A83074363635DC89CE0098166C2F74827960FF64A7C8E6AD1C57A2 DUP3 PUSH1 0x40 MLOAD PUSH2 0x7A6 SWAP2 SWAP1 PUSH2 0x1236 JUMP JUMPDEST PUSH1 0x40 MLOAD DUP1 SWAP2 SUB SWAP1 LOG2 POP JUMPDEST DUP1 DUP1 PUSH1 0x1 ADD SWAP2 POP POP PUSH2 0x543 JUMP JUMPDEST POP PUSH1 0x2 PUSH1 0x4 PUSH0 PUSH2 0x100 EXP DUP2 SLOAD DUP2 PUSH1 0xFF MUL NOT AND SWAP1 DUP4 PUSH1 0x2 DUP2 GT ISZERO PUSH2 0x7E3 JUMPI PUSH2 0x7E2 PUSH2 0x1320 JUMP JUMPDEST JUMPDEST MUL OR SWAP1 SSTORE POP JUMP JUMPDEST PUSH0 PUSH0 SWAP1 SLOAD SWAP1 PUSH2 0x100 EXP SWAP1 DIV PUSH20 0xFFFFFFFFFFFFFFFFFFFFFFFFFFFFFFFFFFFFFFFF AND PUSH20 0xFFFFFFFFFFFFFFFFFFFFFFFFFFFFFFFFFFFFFFFF AND CALLER PUSH20 0xFFFFFFFFFFFFFFFFFFFFFFFFFFFFFFFFFFFFFFFF AND EQ PUSH2 0x878 JUMPI PUSH1 0x40 MLOAD PUSH32 0x8C379A000000000000000000000000000000000000000000000000000000000 DUP2 MSTORE PUSH1 0x4 ADD PUSH2 0x86F SWAP1 PUSH2 0x1481 JUMP JUMPDEST PUSH1 0x40 MLOAD DUP1 SWAP2 SUB SWAP1 REVERT JUMPDEST PUSH0 PUSH1 0x2 DUP2 GT ISZERO PUSH2 0x88B JUMPI PUSH2 0x88A PUSH2 0x1320 JUMP JUMPDEST JUMPDEST PUSH1 0x4 PUSH0 SWAP1 SLOAD SWAP1 PUSH2 0x100 EXP SWAP1 DIV PUSH1 0xFF AND PUSH1 0x2 DUP2 GT ISZERO PUSH2 0x8AC JUMPI PUSH2 0x8AB PUSH2 0x1320 JUMP JUMPDEST JUMPDEST EQ PUSH2 0x8EC JUMPI PUSH1 0x40 MLOAD PUSH32 0x8C379A000000000000000000000000000000000000000000000000000000000 DUP2 MSTORE PUSH1 0x4 ADD PUSH2 0x8E3 SWAP1 PUSH2 0x161C JUMP JUMPDEST PUSH1 0x40 MLOAD DUP1 SWAP2 SUB SWAP1 REVERT JUMPDEST PUSH2 0x8F4 PUSH2 0xDA5 JUMP JUMPDEST JUMP JUMPDEST PUSH1 0x5 DUP2 DUP2 SLOAD DUP2 LT PUSH2 0x905 JUMPI PUSH0 DUP1 REVERT JUMPDEST SWAP1 PUSH0 MSTORE PUSH1 0x20 PUSH0 KECCAK256 SWAP1 PUSH1 0x4 MUL ADD PUSH0 SWAP2 POP SWAP1 POP DUP1 PUSH0 ADD PUSH0 SWAP1 SLOAD SWAP1 PUSH2 0x100 EXP SWAP1 DIV PUSH20 0xFFFFFFFFFFFFFFFFFFFFFFFFFFFFFFFFFFFFFFFF AND SWAP1 DUP1 PUSH1 0x1 ADD SLOAD SWAP1 DUP1 PUSH1 0x2 ADD SLOAD SWAP1 DUP1 PUSH1 0x3 ADD PUSH0 SWAP1 SLOAD SWAP1 PUSH2 0x100 EXP SWAP1 DIV PUSH1 0xFF AND SWAP1 POP DUP5 JUMP JUMPDEST PUSH1 0x1E DUP2 JUMP JUMPDEST PUSH1 0x1 SLOAD DUP2 JUMP JUMPDEST PUSH1 0xA DUP2 JUMP JUMPDEST PUSH1 0x3 SLOAD DUP2 JUMP JUMPDEST PUSH0 PUSH0 SWAP1 SLOAD SWAP1 PUSH2 0x100 EXP SWAP1 DIV PUSH20 0xFFFFFFFFFFFFFFFFFFFFFFFFFFFFFFFFFFFFFFFF AND DUP2 JUMP JUMPDEST PUSH1 0x4 PUSH0 SWAP1 SLOAD SWAP1 PUSH2 0x100 EXP SWAP1 DIV PUSH1 0xFF AND DUP2 JUMP JUMPDEST PUSH1 0x8 SLOAD DUP2 JUMP JUMPDEST PUSH1 0x6 DUP2 DUP2 SLOAD DUP2 LT PUSH2 0x9BD JUMPI PUSH0 DUP1 REVERT JUMPDEST SWAP1 PUSH0 MSTORE PUSH1 0x20 PUSH0 KECCAK256 ADD PUSH0 SWAP2 POP SLOAD SWAP1 PUSH2 0x100 EXP SWAP1 DIV PUSH20 0xFFFFFFFFFFFFFFFFFFFFFFFFFFFFFFFFFFFFFFFF AND DUP2 JUMP JUMPDEST PUSH1 0x7 PUSH0 SWAP1 SLOAD SWAP1 PUSH2 0x100 EXP SWAP1 DIV PUSH20 0xFFFFFFFFFFFFFFFFFFFFFFFFFFFFFFFFFFFFFFFF AND DUP2 JUMP JUMPDEST PUSH0 PUSH1 0x2 DUP2 GT ISZERO PUSH2 0xA21 JUMPI PUSH2 0xA20 PUSH2 0x1320 JUMP JUMPDEST JUMPDEST PUSH1 0x4 PUSH0 SWAP1 SLOAD SWAP1 PUSH2 0x100 EXP SWAP1 DIV PUSH1 0xFF AND PUSH1 0x2 DUP2 GT ISZERO PUSH2 0xA42 JUMPI PUSH2 0xA41 PUSH2 0x1320 JUMP JUMPDEST JUMPDEST EQ PUSH2 0xA82 JUMPI PUSH1 0x40 MLOAD PUSH32 0x8C379A000000000000000000000000000000000000000000000000000000000 DUP2 MSTORE PUSH1 0x4 ADD PUSH2 0xA79 SWAP1 PUSH2 0x1684 JUMP JUMPDEST PUSH1 0x40 MLOAD DUP1 SWAP2 SUB SWAP1 REVERT JUMPDEST PUSH1 0x1 SLOAD TIMESTAMP LT ISZERO DUP1 ISZERO PUSH2 0xA96 JUMPI POP PUSH1 0x2 SLOAD TIMESTAMP GT ISZERO JUMPDEST PUSH2 0xAD5 JUMPI PUSH1 0x40 MLOAD PUSH32 0x8C379A000000000000000000000000000000000000000000000000000000000 DUP2 MSTORE PUSH1 0x4 ADD PUSH2 0xACC SWAP1 PUSH2 0x16EC JUMP JUMPDEST PUSH1 0x40 MLOAD DUP1 SWAP2 SUB SWAP1 REVERT JUMPDEST PUSH0 CALLVALUE GT PUSH2 0xB17 JUMPI PUSH1 0x40 MLOAD PUSH32 0x8C379A000000000000000000000000000000000000000000000000000000000 DUP2 MSTORE PUSH1 0x4 ADD PUSH2 0xB0E SWAP1 PUSH2 0x1754 JUMP JUMPDEST PUSH1 0x40 MLOAD DUP1 SWAP2 SUB SWAP1 REVERT JUMPDEST PUSH1 0x3 SLOAD CALLVALUE GT ISZERO PUSH2 0xB5C JUMPI PUSH1 0x40 MLOAD PUSH32 0x8C379A000000000000000000000000000000000000000000000000000000000 DUP2 MSTORE PUSH1 0x4 ADD PUSH2 0xB53 SWAP1 PUSH2 0x17BC JUMP JUMPDEST PUSH1 0x40 MLOAD DUP1 SWAP2 SUB SWAP1 REVERT JUMPDEST PUSH2 0xB65 CALLER PUSH2 0x387 JUMP JUMPDEST ISZERO PUSH2 0xBA5 JUMPI PUSH1 0x40 MLOAD PUSH32 0x8C379A000000000000000000000000000000000000000000000000000000000 DUP2 MSTORE PUSH1 0x4 ADD PUSH2 0xB9C SWAP1 PUSH2 0x1824 JUMP JUMPDEST PUSH1 0x40 MLOAD DUP1 SWAP2 SUB SWAP1 REVERT JUMPDEST PUSH0 PUSH1 0x64 PUSH1 0xA CALLVALUE PUSH2 0xBB5 SWAP2 SWAP1 PUSH2 0x1534 JUMP JUMPDEST PUSH2 0xBBF SWAP2 SWAP1 PUSH2 0x15A2 JUMP JUMPDEST SWAP1 POP DUP1 CALLVALUE LT ISZERO PUSH2 0xC04 JUMPI PUSH1 0x40 MLOAD PUSH32 0x8C379A000000000000000000000000000000000000000000000000000000000 DUP2 MSTORE PUSH1 0x4 ADD PUSH2 0xBFB SWAP1 PUSH2 0x188C JUMP JUMPDEST PUSH1 0x40 MLOAD DUP1 SWAP2 SUB SWAP1 REVERT JUMPDEST PUSH1 0x5 PUSH1 0x40 MLOAD DUP1 PUSH1 0x80 ADD PUSH1 0x40 MSTORE DUP1 CALLER PUSH20 0xFFFFFFFFFFFFFFFFFFFFFFFFFFFFFFFFFFFFFFFF AND DUP2 MSTORE PUSH1 0x20 ADD CALLVALUE DUP2 MSTORE PUSH1 0x20 ADD TIMESTAMP DUP2 MSTORE PUSH1 0x20 ADD PUSH0 ISZERO ISZERO DUP2 MSTORE POP SWAP1 DUP1 PUSH1 0x1 DUP2 SLOAD ADD DUP1 DUP3 SSTORE DUP1 SWAP2 POP POP PUSH1 0x1 SWAP1 SUB SWAP1 PUSH0 MSTORE PUSH1 0x20 PUSH0 KECCAK256 SWAP1 PUSH1 0x4 MUL ADD PUSH0 SWAP1 SWAP2 SWAP1 SWAP2 SWAP1 SWAP2 POP PUSH0 DUP3 ADD MLOAD DUP2 PUSH0 ADD PUSH0 PUSH2 0x100 EXP DUP2 SLOAD DUP2 PUSH20 0xFFFFFFFFFFFFFFFFFFFFFFFFFFFFFFFFFFFFFFFF MUL NOT AND SWAP1 DUP4 PUSH20 0xFFFFFFFFFFFFFFFFFFFFFFFFFFFFFFFFFFFFFFFF AND MUL OR SWAP1 SSTORE POP PUSH1 0x20 DUP3 ADD MLOAD DUP2 PUSH1 0x1 ADD SSTORE PUSH1 0x40 DUP3 ADD MLOAD DUP2 PUSH1 0x2 ADD SSTORE PUSH1 0x60 DUP3 ADD MLOAD DUP2 PUSH1 0x3 ADD PUSH0 PUSH2 0x100 EXP DUP2 SLOAD DUP2 PUSH1 0xFF MUL NOT AND SWAP1 DUP4 ISZERO ISZERO MUL OR SWAP1 SSTORE POP POP POP PUSH1 0x6 CALLER SWAP1 DUP1 PUSH1 0x1 DUP2 SLOAD ADD DUP1 DUP3 SSTORE DUP1 SWAP2 POP POP PUSH1 0x1 SWAP1 SUB SWAP1 PUSH0 MSTORE PUSH1 0x20 PUSH0 KECCAK256 ADD PUSH0 SWAP1 SWAP2 SWAP1 SWAP2 SWAP1 SWAP2 PUSH2 0x100 EXP DUP2 SLOAD DUP2 PUSH20 0xFFFFFFFFFFFFFFFFFFFFFFFFFFFFFFFFFFFFFFFF MUL NOT AND SWAP1 DUP4 PUSH20 0xFFFFFFFFFFFFFFFFFFFFFFFFFFFFFFFFFFFFFFFF AND MUL OR SWAP1 SSTORE POP PUSH1 0x1E PUSH1 0x5 DUP1 SLOAD SWAP1 POP SUB PUSH2 0xD54 JUMPI PUSH2 0xD53 PUSH2 0xDA5 JUMP JUMPDEST JUMPDEST CALLER PUSH20 0xFFFFFFFFFFFFFFFFFFFFFFFFFFFFFFFFFFFFFFFF AND PUSH32 0x3FABFF0A9C3ECD6814702E247FA9733E5D0AA69E3A38590F92CB18F623A2254D CALLVALUE PUSH1 0x40 MLOAD PUSH2 0xD9A SWAP2 SWAP1 PUSH2 0x1236 JUMP JUMPDEST PUSH1 0x40 MLOAD DUP1 SWAP2 SUB SWAP1 LOG2 POP JUMP JUMPDEST PUSH1 0x1 PUSH1 0x4 PUSH0 PUSH2 0x100 EXP DUP2 SLOAD DUP2 PUSH1 0xFF MUL NOT AND SWAP1 DUP4 PUSH1 0x2 DUP2 GT ISZERO PUSH2 0xDCA JUMPI PUSH2 0xDC9 PUSH2 0x1320 JUMP JUMPDEST JUMPDEST MUL OR SWAP1 SSTORE POP PUSH2 0xDD7 PUSH2 0xE96 JUMP JUMPDEST PUSH1 0x7 PUSH0 PUSH1 0x8 PUSH0 DUP5 SWAP2 SWAP1 POP SSTORE DUP4 SWAP2 SWAP1 PUSH2 0x100 EXP DUP2 SLOAD DUP2 PUSH20 0xFFFFFFFFFFFFFFFFFFFFFFFFFFFFFFFFFFFFFFFF MUL NOT AND SWAP1 DUP4 PUSH20 0xFFFFFFFFFFFFFFFFFFFFFFFFFFFFFFFFFFFFFFFF AND MUL OR SWAP1 SSTORE POP POP POP PUSH1 0x7 PUSH0 SWAP1 SLOAD SWAP1 PUSH2 0x100 EXP SWAP1 DIV PUSH20 0xFFFFFFFFFFFFFFFFFFFFFFFFFFFFFFFFFFFFFFFF AND PUSH20 0xFFFFFFFFFFFFFFFFFFFFFFFFFFFFFFFFFFFFFFFF AND PUSH32 0x1D78CA6377547E2F5434A04066A4DCAC7670FD77E146B686B06BF8FBC06FB435 PUSH1 0x8 SLOAD PUSH1 0x40 MLOAD PUSH2 0xE8C SWAP2 SWAP1 PUSH2 0x1236 JUMP JUMPDEST PUSH1 0x40 MLOAD DUP1 SWAP2 SUB SWAP1 LOG2 JUMP JUMPDEST PUSH0 PUSH0 PUSH0 PUSH1 0x5 DUP1 SLOAD SWAP1 POP GT PUSH2 0xEDF JUMPI PUSH1 0x40 MLOAD PUSH32 0x8C379A000000000000000000000000000000000000000000000000000000000 DUP2 MSTORE PUSH1 0x4 ADD PUSH2 0xED6 SWAP1 PUSH2 0x18F4 JUMP JUMPDEST PUSH1 0x40 MLOAD DUP1 SWAP2 SUB SWAP1 REVERT JUMPDEST PUSH0 PUSH1 0x3 SLOAD SWAP1 POP PUSH0 PUSH1 0x3 SLOAD SWAP1 POP PUSH0 PUSH0 PUSH32 0xFFFFFFFFFFFFFFFFFFFFFFFFFFFFFFFFFFFFFFFFFFFFFFFFFFFFFFFFFFFFFFFF SWAP1 POP PUSH0 PUSH0 SWAP1 POP JUMPDEST PUSH1 0x5 DUP1 SLOAD SWAP1 POP DUP2 LT ISZERO PUSH2 0x113F JUMPI DUP5 PUSH1 0x5 DUP3 DUP2 SLOAD DUP2 LT PUSH2 0xF37 JUMPI PUSH2 0xF36 PUSH2 0x13D4 JUMP JUMPDEST JUMPDEST SWAP1 PUSH0 MSTORE PUSH1 0x20 PUSH0 KECCAK256 SWAP1 PUSH1 0x4 MUL ADD PUSH1 0x1 ADD SLOAD LT ISZERO PUSH2 0xFE5 JUMPI DUP5 SWAP4 POP PUSH1 0x5 DUP2 DUP2 SLOAD DUP2 LT PUSH2 0xF64 JUMPI PUSH2 0xF63 PUSH2 0x13D4 JUMP JUMPDEST JUMPDEST SWAP1 PUSH0 MSTORE PUSH1 0x20 PUSH0 KECCAK256 SWAP1 PUSH1 0x4 MUL ADD PUSH1 0x1 ADD SLOAD SWAP5 POP PUSH1 0x5 DUP2 DUP2 SLOAD DUP2 LT PUSH2 0xF8A JUMPI PUSH2 0xF89 PUSH2 0x13D4 JUMP JUMPDEST JUMPDEST SWAP1 PUSH0 MSTORE PUSH1 0x20 PUSH0 KECCAK256 SWAP1 PUSH1 0x4 MUL ADD PUSH0 ADD PUSH0 SWAP1 SLOAD SWAP1 PUSH2 0x100 EXP SWAP1 DIV PUSH20 0xFFFFFFFFFFFFFFFFFFFFFFFFFFFFFFFFFFFFFFFF AND SWAP3 POP PUSH1 0x5 DUP2 DUP2 SLOAD DUP2 LT PUSH2 0xFCE JUMPI PUSH2 0xFCD PUSH2 0x13D4 JUMP JUMPDEST JUMPDEST SWAP1 PUSH0 MSTORE PUSH1 0x20 PUSH0 KECCAK256 SWAP1 PUSH1 0x4 MUL ADD PUSH1 0x2 ADD SLOAD SWAP2 POP PUSH2 0x1132 JUMP JUMPDEST DUP5 PUSH1 0x5 DUP3 DUP2 SLOAD DUP2 LT PUSH2 0xFFA JUMPI PUSH2 0xFF9 PUSH2 0x13D4 JUMP JUMPDEST JUMPDEST SWAP1 PUSH0 MSTORE PUSH1 0x20 PUSH0 KECCAK256 SWAP1 PUSH1 0x4 MUL ADD PUSH1 0x1 ADD SLOAD EQ DUP1 ISZERO PUSH2 0x1039 JUMPI POP DUP2 PUSH1 0x5 DUP3 DUP2 SLOAD DUP2 LT PUSH2 0x1027 JUMPI PUSH2 0x1026 PUSH2 0x13D4 JUMP JUMPDEST JUMPDEST SWAP1 PUSH0 MSTORE PUSH1 0x20 PUSH0 KECCAK256 SWAP1 PUSH1 0x4 MUL ADD PUSH1 0x2 ADD SLOAD LT JUMPDEST ISZERO PUSH2 0x10B0 JUMPI DUP5 SWAP4 POP PUSH1 0x5 DUP2 DUP2 SLOAD DUP2 LT PUSH2 0x1055 JUMPI PUSH2 0x1054 PUSH2 0x13D4 JUMP JUMPDEST JUMPDEST SWAP1 PUSH0 MSTORE PUSH1 0x20 PUSH0 KECCAK256 SWAP1 PUSH1 0x4 MUL ADD PUSH0 ADD PUSH0 SWAP1 SLOAD SWAP1 PUSH2 0x100 EXP SWAP1 DIV PUSH20 0xFFFFFFFFFFFFFFFFFFFFFFFFFFFFFFFFFFFFFFFF AND SWAP3 POP PUSH1 0x5 DUP2 DUP2 SLOAD DUP2 LT PUSH2 0x1099 JUMPI PUSH2 0x1098 PUSH2 0x13D4 JUMP JUMPDEST JUMPDEST SWAP1 PUSH0 MSTORE PUSH1 0x20 PUSH0 KECCAK256 SWAP1 PUSH1 0x4 MUL ADD PUSH1 0x2 ADD SLOAD SWAP2 POP PUSH2 0x1131 JUMP JUMPDEST DUP4 PUSH1 0x5 DUP3 DUP2 SLOAD DUP2 LT PUSH2 0x10C5 JUMPI PUSH2 0x10C4 PUSH2 0x13D4 JUMP JUMPDEST JUMPDEST SWAP1 PUSH0 MSTORE PUSH1 0x20 PUSH0 KECCAK256 SWAP1 PUSH1 0x4 MUL ADD PUSH1 0x1 ADD SLOAD LT DUP1 ISZERO PUSH2 0x1104 JUMPI POP DUP5 PUSH1 0x5 DUP3 DUP2 SLOAD DUP2 LT PUSH2 0x10F2 JUMPI PUSH2 0x10F1 PUSH2 0x13D4 JUMP JUMPDEST JUMPDEST SWAP1 PUSH0 MSTORE PUSH1 0x20 PUSH0 KECCAK256 SWAP1 PUSH1 0x4 MUL ADD PUSH1 0x1 ADD SLOAD GT JUMPDEST ISZERO PUSH2 0x1130 JUMPI PUSH1 0x5 DUP2 DUP2 SLOAD DUP2 LT PUSH2 0x111D JUMPI PUSH2 0x111C PUSH2 0x13D4 JUMP JUMPDEST JUMPDEST SWAP1 PUSH0 MSTORE PUSH1 0x20 PUSH0 KECCAK256 SWAP1 PUSH1 0x4 MUL ADD PUSH1 0x1 ADD SLOAD SWAP4 POP JUMPDEST JUMPDEST JUMPDEST DUP1 DUP1 PUSH1 0x1 ADD SWAP2 POP POP PUSH2 0xF15 JUMP JUMPDEST POP DUP2 PUSH1 0x1 PUSH1 0x5 DUP1 SLOAD SWAP1 POP EQ PUSH2 0x1154 JUMPI DUP4 PUSH2 0x1156 JUMP JUMPDEST DUP5 JUMPDEST SWAP6 POP SWAP6 POP POP POP POP POP SWAP1 SWAP2 JUMP JUMPDEST PUSH0 PUSH0 REVERT JUMPDEST PUSH0 PUSH20 0xFFFFFFFFFFFFFFFFFFFFFFFFFFFFFFFFFFFFFFFF DUP3 AND SWAP1 POP SWAP2 SWAP1 POP JUMP JUMPDEST PUSH0 PUSH2 0x118F DUP3 PUSH2 0x1166 JUMP JUMPDEST SWAP1 POP SWAP2 SWAP1 POP JUMP JUMPDEST PUSH2 0x119F DUP2 PUSH2 0x1185 JUMP JUMPDEST DUP2 EQ PUSH2 0x11A9 JUMPI PUSH0 PUSH0 REVERT JUMPDEST POP JUMP JUMPDEST PUSH0 DUP2 CALLDATALOAD SWAP1 POP PUSH2 0x11BA DUP2 PUSH2 0x1196 JUMP JUMPDEST SWAP3 SWAP2 POP POP JUMP JUMPDEST PUSH0 PUSH1 0x20 DUP3 DUP5 SUB SLT ISZERO PUSH2 0x11D5 JUMPI PUSH2 0x11D4 PUSH2 0x1162 JUMP JUMPDEST JUMPDEST PUSH0 PUSH2 0x11E2 DUP5 DUP3 DUP6 ADD PUSH2 0x11AC JUMP JUMPDEST SWAP2 POP POP SWAP3 SWAP2 POP POP JUMP JUMPDEST PUSH0 DUP2 ISZERO ISZERO SWAP1 POP SWAP2 SWAP1 POP JUMP JUMPDEST PUSH2 0x11FF DUP2 PUSH2 0x11EB JUMP JUMPDEST DUP3 MSTORE POP POP JUMP JUMPDEST PUSH0 PUSH1 0x20 DUP3 ADD SWAP1 POP PUSH2 0x1218 PUSH0 DUP4 ADD DUP5 PUSH2 0x11F6 JUMP JUMPDEST SWAP3 SWAP2 POP POP JUMP JUMPDEST PUSH0 DUP2 SWAP1 POP SWAP2 SWAP1 POP JUMP JUMPDEST PUSH2 0x1230 DUP2 PUSH2 0x121E JUMP JUMPDEST DUP3 MSTORE POP POP JUMP JUMPDEST PUSH0 PUSH1 0x20 DUP3 ADD SWAP1 POP PUSH2 0x1249 PUSH0 DUP4 ADD DUP5 PUSH2 0x1227 JUMP JUMPDEST SWAP3 SWAP2 POP POP JUMP JUMPDEST PUSH2 0x1258 DUP2 PUSH2 0x121E JUMP JUMPDEST DUP2 EQ PUSH2 0x1262 JUMPI PUSH0 PUSH0 REVERT JUMPDEST POP JUMP JUMPDEST PUSH0 DUP2 CALLDATALOAD SWAP1 POP PUSH2 0x1273 DUP2 PUSH2 0x124F JUMP JUMPDEST SWAP3 SWAP2 POP POP JUMP JUMPDEST PUSH0 PUSH1 0x20 DUP3 DUP5 SUB SLT ISZERO PUSH2 0x128E JUMPI PUSH2 0x128D PUSH2 0x1162 JUMP JUMPDEST JUMPDEST PUSH0 PUSH2 0x129B DUP5 DUP3 DUP6 ADD PUSH2 0x1265 JUMP JUMPDEST SWAP2 POP POP SWAP3 SWAP2 POP POP JUMP JUMPDEST PUSH0 PUSH2 0x12AE DUP3 PUSH2 0x1166 JUMP JUMPDEST SWAP1 POP SWAP2 SWAP1 POP JUMP JUMPDEST PUSH2 0x12BE DUP2 PUSH2 0x12A4 JUMP JUMPDEST DUP3 MSTORE POP POP JUMP JUMPDEST PUSH0 PUSH1 0x80 DUP3 ADD SWAP1 POP PUSH2 0x12D7 PUSH0 DUP4 ADD DUP8 PUSH2 0x12B5 JUMP JUMPDEST PUSH2 0x12E4 PUSH1 0x20 DUP4 ADD DUP7 PUSH2 0x1227 JUMP JUMPDEST PUSH2 0x12F1 PUSH1 0x40 DUP4 ADD DUP6 PUSH2 0x1227 JUMP JUMPDEST PUSH2 0x12FE PUSH1 0x60 DUP4 ADD DUP5 PUSH2 0x11F6 JUMP JUMPDEST SWAP6 SWAP5 POP POP POP POP POP JUMP JUMPDEST PUSH0 PUSH1 0x20 DUP3 ADD SWAP1 POP PUSH2 0x131A PUSH0 DUP4 ADD DUP5 PUSH2 0x12B5 JUMP JUMPDEST SWAP3 SWAP2 POP POP JUMP JUMPDEST PUSH32 0x4E487B7100000000000000000000000000000000000000000000000000000000 PUSH0 MSTORE PUSH1 0x21 PUSH1 0x4 MSTORE PUSH1 0x24 PUSH0 REVERT JUMPDEST PUSH1 0x3 DUP2 LT PUSH2 0x135E JUMPI PUSH2 0x135D PUSH2 0x1320 JUMP JUMPDEST JUMPDEST POP JUMP JUMPDEST PUSH0 DUP2 SWAP1 POP PUSH2 0x136E DUP3 PUSH2 0x134D JUMP JUMPDEST SWAP2 SWAP1 POP JUMP JUMPDEST PUSH0 PUSH2 0x137D DUP3 PUSH2 0x1361 JUMP JUMPDEST SWAP1 POP SWAP2 SWAP1 POP JUMP JUMPDEST PUSH2 0x138D DUP2 PUSH2 0x1373 JUMP JUMPDEST DUP3 MSTORE POP POP JUMP JUMPDEST PUSH0 PUSH1 0x20 DUP3 ADD SWAP1 POP PUSH2 0x13A6 PUSH0 DUP4 ADD DUP5 PUSH2 0x1384 JUMP JUMPDEST SWAP3 SWAP2 POP POP JUMP JUMPDEST PUSH2 0x13B5 DUP2 PUSH2 0x1185 JUMP JUMPDEST DUP3 MSTORE POP POP JUMP JUMPDEST PUSH0 PUSH1 0x20 DUP3 ADD SWAP1 POP PUSH2 0x13CE PUSH0 DUP4 ADD DUP5 PUSH2 0x13AC JUMP JUMPDEST SWAP3 SWAP2 POP POP JUMP JUMPDEST PUSH32 0x4E487B7100000000000000000000000000000000000000000000000000000000 PUSH0 MSTORE PUSH1 0x32 PUSH1 0x4 MSTORE PUSH1 0x24 PUSH0 REVERT JUMPDEST PUSH0 DUP3 DUP3 MSTORE PUSH1 0x20 DUP3 ADD SWAP1 POP SWAP3 SWAP2 POP POP JUMP JUMPDEST PUSH32 0x536F6C6F20656C2070726F706965746172696F207075656465207265616C697A PUSH0 DUP3 ADD MSTORE PUSH32 0x6172206573746120616363696F6E000000000000000000000000000000000000 PUSH1 0x20 DUP3 ADD MSTORE POP JUMP JUMPDEST PUSH0 PUSH2 0x146B PUSH1 0x2E DUP4 PUSH2 0x1401 JUMP JUMPDEST SWAP2 POP PUSH2 0x1476 DUP3 PUSH2 0x1411 JUMP JUMPDEST PUSH1 0x40 DUP3 ADD SWAP1 POP SWAP2 SWAP1 POP JUMP JUMPDEST PUSH0 PUSH1 0x20 DUP3 ADD SWAP1 POP DUP2 DUP2 SUB PUSH0 DUP4 ADD MSTORE PUSH2 0x1498 DUP2 PUSH2 0x145F JUMP JUMPDEST SWAP1 POP SWAP2 SWAP1 POP JUMP JUMPDEST PUSH32 0x53756261737461206E6F2066696E616C697A6164610000000000000000000000 PUSH0 DUP3 ADD MSTORE POP JUMP JUMPDEST PUSH0 PUSH2 0x14D3 PUSH1 0x15 DUP4 PUSH2 0x1401 JUMP JUMPDEST SWAP2 POP PUSH2 0x14DE DUP3 PUSH2 0x149F JUMP JUMPDEST PUSH1 0x20 DUP3 ADD SWAP1 POP SWAP2 SWAP1 POP JUMP JUMPDEST PUSH0 PUSH1 0x20 DUP3 ADD SWAP1 POP DUP2 DUP2 SUB PUSH0 DUP4 ADD MSTORE PUSH2 0x1500 DUP2 PUSH2 0x14C7 JUMP JUMPDEST SWAP1 POP SWAP2 SWAP1 POP JUMP JUMPDEST PUSH32 0x4E487B7100000000000000000000000000000000000000000000000000000000 PUSH0 MSTORE PUSH1 0x11 PUSH1 0x4 MSTORE PUSH1 0x24 PUSH0 REVERT JUMPDEST PUSH0 PUSH2 0x153E DUP3 PUSH2 0x121E JUMP JUMPDEST SWAP2 POP PUSH2 0x1549 DUP4 PUSH2 0x121E JUMP JUMPDEST SWAP3 POP DUP3 DUP3 MUL PUSH2 0x1557 DUP2 PUSH2 0x121E JUMP JUMPDEST SWAP2 POP DUP3 DUP3 DIV DUP5 EQ DUP4 ISZERO OR PUSH2 0x156E JUMPI PUSH2 0x156D PUSH2 0x1507 JUMP JUMPDEST JUMPDEST POP SWAP3 SWAP2 POP POP JUMP JUMPDEST PUSH32 0x4E487B7100000000000000000000000000000000000000000000000000000000 PUSH0 MSTORE PUSH1 0x12 PUSH1 0x4 MSTORE PUSH1 0x24 PUSH0 REVERT JUMPDEST PUSH0 PUSH2 0x15AC DUP3 PUSH2 0x121E JUMP JUMPDEST SWAP2 POP PUSH2 0x15B7 DUP4 PUSH2 0x121E JUMP JUMPDEST SWAP3 POP DUP3 PUSH2 0x15C7 JUMPI PUSH2 0x15C6 PUSH2 0x1575 JUMP JUMPDEST JUMPDEST DUP3 DUP3 DIV SWAP1 POP SWAP3 SWAP2 POP POP JUMP JUMPDEST PUSH32 0x5375626173746120796120636572726164610000000000000000000000000000 PUSH0 DUP3 ADD MSTORE POP JUMP JUMPDEST PUSH0 PUSH2 0x1606 PUSH1 0x12 DUP4 PUSH2 0x1401 JUMP JUMPDEST SWAP2 POP PUSH2 0x1611 DUP3 PUSH2 0x15D2 JUMP JUMPDEST PUSH1 0x20 DUP3 ADD SWAP1 POP SWAP2 SWAP1 POP JUMP JUMPDEST PUSH0 PUSH1 0x20 DUP3 ADD SWAP1 POP DUP2 DUP2 SUB PUSH0 DUP4 ADD MSTORE PUSH2 0x1633 DUP2 PUSH2 0x15FA JUMP JUMPDEST SWAP1 POP SWAP2 SWAP1 POP JUMP JUMPDEST PUSH32 0x53756261737461206E6F20616374697661000000000000000000000000000000 PUSH0 DUP3 ADD MSTORE POP JUMP JUMPDEST PUSH0 PUSH2 0x166E PUSH1 0x11 DUP4 PUSH2 0x1401 JUMP JUMPDEST SWAP2 POP PUSH2 0x1679 DUP3 PUSH2 0x163A JUMP JUMPDEST PUSH1 0x20 DUP3 ADD SWAP1 POP SWAP2 SWAP1 POP JUMP JUMPDEST PUSH0 PUSH1 0x20 DUP3 ADD SWAP1 POP DUP2 DUP2 SUB PUSH0 DUP4 ADD MSTORE PUSH2 0x169B DUP2 PUSH2 0x1662 JUMP JUMPDEST SWAP1 POP SWAP2 SWAP1 POP JUMP JUMPDEST PUSH32 0x46756572612064656C20706572696F646F206465207375626173746100000000 PUSH0 DUP3 ADD MSTORE POP JUMP JUMPDEST PUSH0 PUSH2 0x16D6 PUSH1 0x1C DUP4 PUSH2 0x1401 JUMP JUMPDEST SWAP2 POP PUSH2 0x16E1 DUP3 PUSH2 0x16A2 JUMP JUMPDEST PUSH1 0x20 DUP3 ADD SWAP1 POP SWAP2 SWAP1 POP JUMP JUMPDEST PUSH0 PUSH1 0x20 DUP3 ADD SWAP1 POP DUP2 DUP2 SUB PUSH0 DUP4 ADD MSTORE PUSH2 0x1703 DUP2 PUSH2 0x16CA JUMP JUMPDEST SWAP1 POP SWAP2 SWAP1 POP JUMP JUMPDEST PUSH32 0x4C612070756A61206465626520736572206D61796F7220717565206365726F00 PUSH0 DUP3 ADD MSTORE POP JUMP JUMPDEST PUSH0 PUSH2 0x173E PUSH1 0x1F DUP4 PUSH2 0x1401 JUMP JUMPDEST SWAP2 POP PUSH2 0x1749 DUP3 PUSH2 0x170A JUMP JUMPDEST PUSH1 0x20 DUP3 ADD SWAP1 POP SWAP2 SWAP1 POP JUMP JUMPDEST PUSH0 PUSH1 0x20 DUP3 ADD SWAP1 POP DUP2 DUP2 SUB PUSH0 DUP4 ADD MSTORE PUSH2 0x176B DUP2 PUSH2 0x1732 JUMP JUMPDEST SWAP1 POP SWAP2 SWAP1 POP JUMP JUMPDEST PUSH32 0x50756A612065786365646520656C206D6178696D6F207065726D697469646F00 PUSH0 DUP3 ADD MSTORE POP JUMP JUMPDEST PUSH0 PUSH2 0x17A6 PUSH1 0x1F DUP4 PUSH2 0x1401 JUMP JUMPDEST SWAP2 POP PUSH2 0x17B1 DUP3 PUSH2 0x1772 JUMP JUMPDEST PUSH1 0x20 DUP3 ADD SWAP1 POP SWAP2 SWAP1 POP JUMP JUMPDEST PUSH0 PUSH1 0x20 DUP3 ADD SWAP1 POP DUP2 DUP2 SUB PUSH0 DUP4 ADD MSTORE PUSH2 0x17D3 DUP2 PUSH2 0x179A JUMP JUMPDEST SWAP1 POP SWAP2 SWAP1 POP JUMP JUMPDEST PUSH32 0x5961206861732070756A61646F00000000000000000000000000000000000000 PUSH0 DUP3 ADD MSTORE POP JUMP JUMPDEST PUSH0 PUSH2 0x180E PUSH1 0xD DUP4 PUSH2 0x1401 JUMP JUMPDEST SWAP2 POP PUSH2 0x1819 DUP3 PUSH2 0x17DA JUMP JUMPDEST PUSH1 0x20 DUP3 ADD SWAP1 POP SWAP2 SWAP1 POP JUMP JUMPDEST PUSH0 PUSH1 0x20 DUP3 ADD SWAP1 POP DUP2 DUP2 SUB PUSH0 DUP4 ADD MSTORE PUSH2 0x183B DUP2 PUSH2 0x1802 JUMP JUMPDEST SWAP1 POP SWAP2 SWAP1 POP JUMP JUMPDEST PUSH32 0x4465706F7369746F20696E737566696369656E74650000000000000000000000 PUSH0 DUP3 ADD MSTORE POP JUMP JUMPDEST PUSH0 PUSH2 0x1876 PUSH1 0x15 DUP4 PUSH2 0x1401 JUMP JUMPDEST SWAP2 POP PUSH2 0x1881 DUP3 PUSH2 0x1842 JUMP JUMPDEST PUSH1 0x20 DUP3 ADD SWAP1 POP SWAP2 SWAP1 POP JUMP JUMPDEST PUSH0 PUSH1 0x20 DUP3 ADD SWAP1 POP DUP2 DUP2 SUB PUSH0 DUP4 ADD MSTORE PUSH2 0x18A3 DUP2 PUSH2 0x186A JUMP JUMPDEST SWAP1 POP SWAP2 SWAP1 POP JUMP JUMPDEST PUSH32 0x4E6F206861792070756A61730000000000000000000000000000000000000000 PUSH0 DUP3 ADD MSTORE POP JUMP JUMPDEST PUSH0 PUSH2 0x18DE PUSH1 0xC DUP4 PUSH2 0x1401 JUMP JUMPDEST SWAP2 POP PUSH2 0x18E9 DUP3 PUSH2 0x18AA JUMP JUMPDEST PUSH1 0x20 DUP3 ADD SWAP1 POP SWAP2 SWAP1 POP JUMP JUMPDEST PUSH0 PUSH1 0x20 DUP3 ADD SWAP1 POP DUP2 DUP2 SUB PUSH0 DUP4 ADD MSTORE PUSH2 0x190B DUP2 PUSH2 0x18D2 JUMP JUMPDEST SWAP1 POP SWAP2 SWAP1 POP JUMP INVALID LOG2 PUSH5 0x6970667358 0x22 SLT KECCAK256 SWAP1 0xB8 PUSH21 0x3487B0282AF27CD4805393D1D0F290A84CC2716BD3 DUP3 EXTSTATICCALL MUL 0xB4 RJUMP 0x5579 0xF PUSH5 0x736F6C6343 STOP ADDMOD 0x1E STOP CALLER "
				},
				"gasEstimates": {
					"creation": {
						"codeDepositCost": "1294400",
						"executionCost": "infinite",
						"totalCost": "infinite"
					},
					"external": {
						"DEPOSIT_PERCENTAGE()": "348",
						"MAX_BIDDERS()": "392",
						"auctionEnd()": "2493",
						"auctionStart()": "2514",
						"bidders(uint256)": "4988",
						"bids(uint256)": "infinite",
						"closeAuction()": "infinite",
						"getBidCount()": "2486",
						"hasAlreadyBid(address)": "infinite",
						"maxBid()": "2470",
						"owner()": "2574",
						"placeBid()": "infinite",
						"returnDeposits()": "infinite",
						"state()": "2643",
						"winner()": "2574",
						"winningPrice()": "2447"
					},
					"internal": {
						"_closeAuction()": "infinite",
						"_determineWinner()": "infinite"
					}
				},
				"methodIdentifiers": {
					"DEPOSIT_PERCENTAGE()": "5a84d52a",
					"MAX_BIDDERS()": "4cc4f50d",
					"auctionEnd()": "2a24f46c",
					"auctionStart()": "4f245ef7",
					"bidders(uint256)": "cff29dfd",
					"bids(uint256)": "4423c5f1",
					"closeAuction()": "378252f2",
					"getBidCount()": "28f6a48a",
					"hasAlreadyBid(address)": "235f0e46",
					"maxBid()": "74b11d8a",
					"owner()": "8da5cb5b",
					"placeBid()": "ecfc7ecc",
					"returnDeposits()": "362e2565",
					"state()": "c19d93fb",
					"winner()": "dfbf53ae",
					"winningPrice()": "c1f52604"
				}
			},
			"storageLayout": {
				"storage": [
					{
						"astId": 3,
						"contract": "contracts/VickEx.sol:VickreyAuction",
						"label": "owner",
						"offset": 0,
						"slot": "0",
						"type": "t_address_payable"
					},
					{
						"astId": 5,
						"contract": "contracts/VickEx.sol:VickreyAuction",
						"label": "auctionStart",
						"offset": 0,
						"slot": "1",
						"type": "t_uint256"
					},
					{
						"astId": 7,
						"contract": "contracts/VickEx.sol:VickreyAuction",
						"label": "auctionEnd",
						"offset": 0,
						"slot": "2",
						"type": "t_uint256"
					},
					{
						"astId": 9,
						"contract": "contracts/VickEx.sol:VickreyAuction",
						"label": "maxBid",
						"offset": 0,
						"slot": "3",
						"type": "t_uint256"
					},
					{
						"astId": 22,
						"contract": "contracts/VickEx.sol:VickreyAuction",
						"label": "state",
						"offset": 0,
						"slot": "4",
						"type": "t_enum(AuctionState)19"
					},
					{
						"astId": 35,
						"contract": "contracts/VickEx.sol:VickreyAuction",
						"label": "bids",
						"offset": 0,
						"slot": "5",
						"type": "t_array(t_struct(Bid)31_storage)dyn_storage"
					},
					{
						"astId": 38,
						"contract": "contracts/VickEx.sol:VickreyAuction",
						"label": "bidders",
						"offset": 0,
						"slot": "6",
						"type": "t_array(t_address)dyn_storage"
					},
					{
						"astId": 40,
						"contract": "contracts/VickEx.sol:VickreyAuction",
						"label": "winner",
						"offset": 0,
						"slot": "7",
						"type": "t_address_payable"
					},
					{
						"astId": 42,
						"contract": "contracts/VickEx.sol:VickreyAuction",
						"label": "winningPrice",
						"offset": 0,
						"slot": "8",
						"type": "t_uint256"
					}
				],
				"types": {
					"t_address": {
						"encoding": "inplace",
						"label": "address",
						"numberOfBytes": "20"
					},
					"t_address_payable": {
						"encoding": "inplace",
						"label": "address payable",
						"numberOfBytes": "20"
					},
					"t_array(t_address)dyn_storage": {
						"base": "t_address",
						"encoding": "dynamic_array",
						"label": "address[]",
						"numberOfBytes": "32"
					},
					"t_array(t_struct(Bid)31_storage)dyn_storage": {
						"base": "t_struct(Bid)31_storage",
						"encoding": "dynamic_array",
						"label": "struct VickreyAuction.Bid[]",
						"numberOfBytes": "32"
					},
					"t_bool": {
						"encoding": "inplace",
						"label": "bool",
						"numberOfBytes": "1"
					},
					"t_enum(AuctionState)19": {
						"encoding": "inplace",
						"label": "enum VickreyAuction.AuctionState",
						"numberOfBytes": "1"
					},
					"t_struct(Bid)31_storage": {
						"encoding": "inplace",
						"label": "struct VickreyAuction.Bid",
						"members": [
							{
								"astId": 24,
								"contract": "contracts/VickEx.sol:VickreyAuction",
								"label": "bidder",
								"offset": 0,
								"slot": "0",
								"type": "t_address_payable"
							},
							{
								"astId": 26,
								"contract": "contracts/VickEx.sol:VickreyAuction",
								"label": "amount",
								"offset": 0,
								"slot": "1",
								"type": "t_uint256"
							},
							{
								"astId": 28,
								"contract": "contracts/VickEx.sol:VickreyAuction",
								"label": "timestamp",
								"offset": 0,
								"slot": "2",
								"type": "t_uint256"
							},
							{
								"astId": 30,
								"contract": "contracts/VickEx.sol:VickreyAuction",
								"label": "depositReturned",
								"offset": 0,
								"slot": "3",
								"type": "t_bool"
							}
						],
						"numberOfBytes": "128"
					},
					"t_uint256": {
						"encoding": "inplace",
						"label": "uint256",
						"numberOfBytes": "32"
					}
				}
			},
			"userdoc": {
				"kind": "user",
				"methods": {},
				"version": 1
			}
		}
	}
}