{
	"contracts/VickreyAuction.sol": {
		"VickreyAuction": {
			"abi": [
				{
					"inputs": [
						{
							"internalType": "uint256",
							"name": "_startTime",
							"type": "uint256"
						},
						{
							"internalType": "uint256",
							"name": "_endTime",
							"type": "uint256"
						},
						{
							"internalType": "uint256",
							"name": "_maxPrice",
							"type": "uint256"
						}
					],
					"stateMutability": "payable",
					"type": "constructor"
				},
				{
					"anonymous": false,
					"inputs": [
						{
							"indexed": false,
							"internalType": "address",
							"name": "winner",
							"type": "address"
						},
						{
							"indexed": false,
							"internalType": "uint256",
							"name": "payment",
							"type": "uint256"
						}
					],
					"name": "AuctionFinalized",
					"type": "event"
				},
				{
					"anonymous": false,
					"inputs": [
						{
							"indexed": false,
							"internalType": "address",
							"name": "winner",
							"type": "address"
						},
						{
							"indexed": false,
							"internalType": "uint256",
							"name": "payment",
							"type": "uint256"
						},
						{
							"indexed": false,
							"internalType": "uint256",
							"name": "deposit",
							"type": "uint256"
						}
					],
					"name": "DeliveryConfirmed",
					"type": "event"
				},
				{
					"anonymous": false,
					"inputs": [
						{
							"indexed": false,
							"internalType": "address",
							"name": "winner",
							"type": "address"
						},
						{
							"indexed": false,
							"internalType": "uint256",
							"name": "payment",
							"type": "uint256"
						},
						{
							"indexed": false,
							"internalType": "uint256",
							"name": "deposit",
							"type": "uint256"
						}
					],
					"name": "DeliveryFailed",
					"type": "event"
				},
				{
					"anonymous": false,
					"inputs": [
						{
							"indexed": false,
							"internalType": "address",
							"name": "owner",
							"type": "address"
						},
						{
							"indexed": false,
							"internalType": "uint256",
							"name": "amount",
							"type": "uint256"
						}
					],
					"name": "FundsWithdrawn",
					"type": "event"
				},
				{
					"inputs": [],
					"name": "auctionEnded",
					"outputs": [
						{
							"internalType": "bool",
							"name": "",
							"type": "bool"
						}
					],
					"stateMutability": "view",
					"type": "function"
				},
				{
					"inputs": [
						{
							"internalType": "uint256",
							"name": "_amount",
							"type": "uint256"
						}
					],
					"name": "bid",
					"outputs": [],
					"stateMutability": "payable",
					"type": "function"
				},
				{
					"inputs": [
						{
							"internalType": "address",
							"name": "",
							"type": "address"
						}
					],
					"name": "bids",
					"outputs": [
						{
							"internalType": "uint256",
							"name": "amount",
							"type": "uint256"
						},
						{
							"internalType": "uint256",
							"name": "deposit",
							"type": "uint256"
						},
						{
							"internalType": "uint256",
							"name": "timestamp",
							"type": "uint256"
						}
					],
					"stateMutability": "view",
					"type": "function"
				},
				{
					"inputs": [],
					"name": "confirmDelivery",
					"outputs": [],
					"stateMutability": "nonpayable",
					"type": "function"
				},
				{
					"inputs": [],
					"name": "deliveryConfirmed",
					"outputs": [
						{
							"internalType": "bool",
							"name": "",
							"type": "bool"
						}
					],
					"stateMutability": "view",
					"type": "function"
				},
				{
					"inputs": [],
					"name": "deliveryFailed",
					"outputs": [
						{
							"internalType": "bool",
							"name": "",
							"type": "bool"
						}
					],
					"stateMutability": "view",
					"type": "function"
				},
				{
					"inputs": [],
					"name": "endTime",
					"outputs": [
						{
							"internalType": "uint256",
							"name": "",
							"type": "uint256"
						}
					],
					"stateMutability": "view",
					"type": "function"
				},
				{
					"inputs": [],
					"name": "finalizeAuction",
					"outputs": [],
					"stateMutability": "nonpayable",
					"type": "function"
				},
				{
					"inputs": [],
					"name": "getBids",
					"outputs": [
						{
							"internalType": "address[]",
							"name": "",
							"type": "address[]"
						},
						{
							"internalType": "uint256[]",
							"name": "",
							"type": "uint256[]"
						}
					],
					"stateMutability": "view",
					"type": "function"
				},
				{
					"inputs": [],
					"name": "markAsUndelivered",
					"outputs": [],
					"stateMutability": "nonpayable",
					"type": "function"
				},
				{
					"inputs": [],
					"name": "maxPrice",
					"outputs": [
						{
							"internalType": "uint256",
							"name": "",
							"type": "uint256"
						}
					],
					"stateMutability": "view",
					"type": "function"
				},
				{
					"inputs": [],
					"name": "owner",
					"outputs": [
						{
							"internalType": "address",
							"name": "",
							"type": "address"
						}
					],
					"stateMutability": "view",
					"type": "function"
				},
				{
					"inputs": [
						{
							"internalType": "uint256",
							"name": "",
							"type": "uint256"
						}
					],
					"name": "participants",
					"outputs": [
						{
							"internalType": "address",
							"name": "",
							"type": "address"
						}
					],
					"stateMutability": "view",
					"type": "function"
				},
				{
					"inputs": [],
					"name": "paymentAmount",
					"outputs": [
						{
							"internalType": "uint256",
							"name": "",
							"type": "uint256"
						}
					],
					"stateMutability": "view",
					"type": "function"
				},
				{
					"inputs": [],
					"name": "startTime",
					"outputs": [
						{
							"internalType": "uint256",
							"name": "",
							"type": "uint256"
						}
					],
					"stateMutability": "view",
					"type": "function"
				},
				{
					"inputs": [],
					"name": "winner",
					"outputs": [
						{
							"internalType": "address",
							"name": "",
							"type": "address"
						}
					],
					"stateMutability": "view",
					"type": "function"
				},
				{
					"inputs": [],
					"name": "withdrawRemaining",
					"outputs": [],
					"stateMutability": "nonpayable",
					"type": "function"
				}
			],
			"devdoc": {
				"kind": "dev",
				"methods": {},
				"version": 1
			},
			"evm": {
				"assembly": "    /* \"contracts/VickreyAuction.sol\":121:5101  contract VickreyAuction is ReentrancyGuard {... */\n  mstore(0x40, 0x80)\n    /* \"contracts/VickreyAuction.sol\":1170:1485  constructor(uint _startTime, uint _endTime, uint _maxPrice) payable {... */\n  mload(0x40)\n  sub(codesize, bytecodeSize)\n  dup1\n  bytecodeSize\n  dup4\n  codecopy\n  dup2\n  dup2\n  add\n  0x40\n  mstore\n  dup2\n  add\n  swap1\n  tag_1\n  swap2\n  swap1\n  tag_2\n  jump\t// in\ntag_1:\n    /* \"@openzeppelin/contracts/security/ReentrancyGuard.sol\":1716:1717  1 */\n  0x01\n    /* \"@openzeppelin/contracts/security/ReentrancyGuard.sol\":1821:1828  _status */\n  0x00\n    /* \"@openzeppelin/contracts/security/ReentrancyGuard.sol\":1821:1843  _status = _NOT_ENTERED */\n  dup2\n  swap1\n  sstore\n  pop\n    /* \"contracts/VickreyAuction.sol\":1269:1277  _endTime */\n  dup2\n    /* \"contracts/VickreyAuction.sol\":1256:1266  _startTime */\n  dup4\n    /* \"contracts/VickreyAuction.sol\":1256:1277  _startTime < _endTime */\n  lt\n    /* \"contracts/VickreyAuction.sol\":1248:1295  require(_startTime < _endTime, \"Invalid dates\") */\n  tag_7\n  jumpi\n  mload(0x40)\n  0x08c379a000000000000000000000000000000000000000000000000000000000\n  dup2\n  mstore\n  0x04\n  add\n  tag_8\n  swap1\n  tag_9\n  jump\t// in\ntag_8:\n  mload(0x40)\n  dup1\n  swap2\n  sub\n  swap1\n  revert\ntag_7:\n    /* \"contracts/VickreyAuction.sol\":1326:1335  _maxPrice */\n  dup1\n    /* \"contracts/VickreyAuction.sol\":1313:1322  msg.value */\n  callvalue\n    /* \"contracts/VickreyAuction.sol\":1313:1335  msg.value == _maxPrice */\n  eq\n    /* \"contracts/VickreyAuction.sol\":1305:1360  require(msg.value == _maxPrice, \"Max deposit required\") */\n  tag_10\n  jumpi\n  mload(0x40)\n  0x08c379a000000000000000000000000000000000000000000000000000000000\n  dup2\n  mstore\n  0x04\n  add\n  tag_11\n  swap1\n  tag_12\n  jump\t// in\ntag_11:\n  mload(0x40)\n  dup1\n  swap2\n  sub\n  swap1\n  revert\ntag_10:\n    /* \"contracts/VickreyAuction.sol\":1378:1388  msg.sender */\n  caller\n    /* \"contracts/VickreyAuction.sol\":1370:1375  owner */\n  0x01\n  0x00\n    /* \"contracts/VickreyAuction.sol\":1370:1388  owner = msg.sender */\n  0x0100\n  exp\n  dup2\n  sload\n  dup2\n  0xffffffffffffffffffffffffffffffffffffffff\n  mul\n  not\n  and\n  swap1\n  dup4\n  0xffffffffffffffffffffffffffffffffffffffff\n  and\n  mul\n  or\n  swap1\n  sstore\n  pop\n    /* \"contracts/VickreyAuction.sol\":1410:1420  _startTime */\n  dup3\n    /* \"contracts/VickreyAuction.sol\":1398:1407  startTime */\n  0x02\n    /* \"contracts/VickreyAuction.sol\":1398:1420  startTime = _startTime */\n  dup2\n  swap1\n  sstore\n  pop\n    /* \"contracts/VickreyAuction.sol\":1440:1448  _endTime */\n  dup2\n    /* \"contracts/VickreyAuction.sol\":1430:1437  endTime */\n  0x03\n    /* \"contracts/VickreyAuction.sol\":1430:1448  endTime = _endTime */\n  dup2\n  swap1\n  sstore\n  pop\n    /* \"contracts/VickreyAuction.sol\":1469:1478  _maxPrice */\n  dup1\n    /* \"contracts/VickreyAuction.sol\":1458:1466  maxPrice */\n  0x04\n    /* \"contracts/VickreyAuction.sol\":1458:1478  maxPrice = _maxPrice */\n  dup2\n  swap1\n  sstore\n  pop\n    /* \"contracts/VickreyAuction.sol\":1170:1485  constructor(uint _startTime, uint _endTime, uint _maxPrice) payable {... */\n  pop\n  pop\n  pop\n    /* \"contracts/VickreyAuction.sol\":121:5101  contract VickreyAuction is ReentrancyGuard {... */\n  jump(tag_13)\n    /* \"#utility.yul\":88:205   */\ntag_15:\n    /* \"#utility.yul\":197:198   */\n  0x00\n    /* \"#utility.yul\":194:195   */\n  0x00\n    /* \"#utility.yul\":187:199   */\n  revert\n    /* \"#utility.yul\":334:411   */\ntag_17:\n    /* \"#utility.yul\":371:378   */\n  0x00\n    /* \"#utility.yul\":400:405   */\n  dup2\n    /* \"#utility.yul\":389:405   */\n  swap1\n  pop\n    /* \"#utility.yul\":334:411   */\n  swap2\n  swap1\n  pop\n  jump\t// out\n    /* \"#utility.yul\":417:539   */\ntag_18:\n    /* \"#utility.yul\":490:514   */\n  tag_31\n    /* \"#utility.yul\":508:513   */\n  dup2\n    /* \"#utility.yul\":490:514   */\n  tag_17\n  jump\t// in\ntag_31:\n    /* \"#utility.yul\":483:488   */\n  dup2\n    /* \"#utility.yul\":480:515   */\n  eq\n    /* \"#utility.yul\":470:533   */\n  tag_32\n  jumpi\n    /* \"#utility.yul\":529:530   */\n  0x00\n    /* \"#utility.yul\":526:527   */\n  0x00\n    /* \"#utility.yul\":519:531   */\n  revert\n    /* \"#utility.yul\":470:533   */\ntag_32:\n    /* \"#utility.yul\":417:539   */\n  pop\n  jump\t// out\n    /* \"#utility.yul\":545:688   */\ntag_19:\n    /* \"#utility.yul\":602:607   */\n  0x00\n    /* \"#utility.yul\":633:639   */\n  dup2\n    /* \"#utility.yul\":627:640   */\n  mload\n    /* \"#utility.yul\":618:640   */\n  swap1\n  pop\n    /* \"#utility.yul\":649:682   */\n  tag_34\n    /* \"#utility.yul\":676:681   */\n  dup2\n    /* \"#utility.yul\":649:682   */\n  tag_18\n  jump\t// in\ntag_34:\n    /* \"#utility.yul\":545:688   */\n  swap3\n  swap2\n  pop\n  pop\n  jump\t// out\n    /* \"#utility.yul\":694:1357   */\ntag_2:\n    /* \"#utility.yul\":782:788   */\n  0x00\n    /* \"#utility.yul\":790:796   */\n  0x00\n    /* \"#utility.yul\":798:804   */\n  0x00\n    /* \"#utility.yul\":847:849   */\n  0x60\n    /* \"#utility.yul\":835:844   */\n  dup5\n    /* \"#utility.yul\":826:833   */\n  dup7\n    /* \"#utility.yul\":822:845   */\n  sub\n    /* \"#utility.yul\":818:850   */\n  slt\n    /* \"#utility.yul\":815:934   */\n  iszero\n  tag_36\n  jumpi\n    /* \"#utility.yul\":853:932   */\n  tag_37\n  tag_15\n  jump\t// in\ntag_37:\n    /* \"#utility.yul\":815:934   */\ntag_36:\n    /* \"#utility.yul\":973:974   */\n  0x00\n    /* \"#utility.yul\":998:1062   */\n  tag_38\n    /* \"#utility.yul\":1054:1061   */\n  dup7\n    /* \"#utility.yul\":1045:1051   */\n  dup3\n    /* \"#utility.yul\":1034:1043   */\n  dup8\n    /* \"#utility.yul\":1030:1052   */\n  add\n    /* \"#utility.yul\":998:1062   */\n  tag_19\n  jump\t// in\ntag_38:\n    /* \"#utility.yul\":988:1062   */\n  swap4\n  pop\n    /* \"#utility.yul\":944:1072   */\n  pop\n    /* \"#utility.yul\":1111:1113   */\n  0x20\n    /* \"#utility.yul\":1137:1201   */\n  tag_39\n    /* \"#utility.yul\":1193:1200   */\n  dup7\n    /* \"#utility.yul\":1184:1190   */\n  dup3\n    /* \"#utility.yul\":1173:1182   */\n  dup8\n    /* \"#utility.yul\":1169:1191   */\n  add\n    /* \"#utility.yul\":1137:1201   */\n  tag_19\n  jump\t// in\ntag_39:\n    /* \"#utility.yul\":1127:1201   */\n  swap3\n  pop\n    /* \"#utility.yul\":1082:1211   */\n  pop\n    /* \"#utility.yul\":1250:1252   */\n  0x40\n    /* \"#utility.yul\":1276:1340   */\n  tag_40\n    /* \"#utility.yul\":1332:1339   */\n  dup7\n    /* \"#utility.yul\":1323:1329   */\n  dup3\n    /* \"#utility.yul\":1312:1321   */\n  dup8\n    /* \"#utility.yul\":1308:1330   */\n  add\n    /* \"#utility.yul\":1276:1340   */\n  tag_19\n  jump\t// in\ntag_40:\n    /* \"#utility.yul\":1266:1340   */\n  swap2\n  pop\n    /* \"#utility.yul\":1221:1350   */\n  pop\n    /* \"#utility.yul\":694:1357   */\n  swap3\n  pop\n  swap3\n  pop\n  swap3\n  jump\t// out\n    /* \"#utility.yul\":1363:1532   */\ntag_20:\n    /* \"#utility.yul\":1447:1458   */\n  0x00\n    /* \"#utility.yul\":1481:1487   */\n  dup3\n    /* \"#utility.yul\":1476:1479   */\n  dup3\n    /* \"#utility.yul\":1469:1488   */\n  mstore\n    /* \"#utility.yul\":1521:1525   */\n  0x20\n    /* \"#utility.yul\":1516:1519   */\n  dup3\n    /* \"#utility.yul\":1512:1526   */\n  add\n    /* \"#utility.yul\":1497:1526   */\n  swap1\n  pop\n    /* \"#utility.yul\":1363:1532   */\n  swap3\n  swap2\n  pop\n  pop\n  jump\t// out\n    /* \"#utility.yul\":1538:1701   */\ntag_21:\n    /* \"#utility.yul\":1678:1693   */\n  0x496e76616c696420646174657300000000000000000000000000000000000000\n    /* \"#utility.yul\":1674:1675   */\n  0x00\n    /* \"#utility.yul\":1666:1672   */\n  dup3\n    /* \"#utility.yul\":1662:1676   */\n  add\n    /* \"#utility.yul\":1655:1694   */\n  mstore\n    /* \"#utility.yul\":1538:1701   */\n  pop\n  jump\t// out\n    /* \"#utility.yul\":1707:2073   */\ntag_22:\n    /* \"#utility.yul\":1849:1852   */\n  0x00\n    /* \"#utility.yul\":1870:1937   */\n  tag_44\n    /* \"#utility.yul\":1934:1936   */\n  0x0d\n    /* \"#utility.yul\":1929:1932   */\n  dup4\n    /* \"#utility.yul\":1870:1937   */\n  tag_20\n  jump\t// in\ntag_44:\n    /* \"#utility.yul\":1863:1937   */\n  swap2\n  pop\n    /* \"#utility.yul\":1946:2039   */\n  tag_45\n    /* \"#utility.yul\":2035:2038   */\n  dup3\n    /* \"#utility.yul\":1946:2039   */\n  tag_21\n  jump\t// in\ntag_45:\n    /* \"#utility.yul\":2064:2066   */\n  0x20\n    /* \"#utility.yul\":2059:2062   */\n  dup3\n    /* \"#utility.yul\":2055:2067   */\n  add\n    /* \"#utility.yul\":2048:2067   */\n  swap1\n  pop\n    /* \"#utility.yul\":1707:2073   */\n  swap2\n  swap1\n  pop\n  jump\t// out\n    /* \"#utility.yul\":2079:2498   */\ntag_9:\n    /* \"#utility.yul\":2245:2249   */\n  0x00\n    /* \"#utility.yul\":2283:2285   */\n  0x20\n    /* \"#utility.yul\":2272:2281   */\n  dup3\n    /* \"#utility.yul\":2268:2286   */\n  add\n    /* \"#utility.yul\":2260:2286   */\n  swap1\n  pop\n    /* \"#utility.yul\":2332:2341   */\n  dup2\n    /* \"#utility.yul\":2326:2330   */\n  dup2\n    /* \"#utility.yul\":2322:2342   */\n  sub\n    /* \"#utility.yul\":2318:2319   */\n  0x00\n    /* \"#utility.yul\":2307:2316   */\n  dup4\n    /* \"#utility.yul\":2303:2320   */\n  add\n    /* \"#utility.yul\":2296:2343   */\n  mstore\n    /* \"#utility.yul\":2360:2491   */\n  tag_47\n    /* \"#utility.yul\":2486:2490   */\n  dup2\n    /* \"#utility.yul\":2360:2491   */\n  tag_22\n  jump\t// in\ntag_47:\n    /* \"#utility.yul\":2352:2491   */\n  swap1\n  pop\n    /* \"#utility.yul\":2079:2498   */\n  swap2\n  swap1\n  pop\n  jump\t// out\n    /* \"#utility.yul\":2504:2674   */\ntag_23:\n    /* \"#utility.yul\":2644:2666   */\n  0x4d6178206465706f736974207265717569726564000000000000000000000000\n    /* \"#utility.yul\":2640:2641   */\n  0x00\n    /* \"#utility.yul\":2632:2638   */\n  dup3\n    /* \"#utility.yul\":2628:2642   */\n  add\n    /* \"#utility.yul\":2621:2667   */\n  mstore\n    /* \"#utility.yul\":2504:2674   */\n  pop\n  jump\t// out\n    /* \"#utility.yul\":2680:3046   */\ntag_24:\n    /* \"#utility.yul\":2822:2825   */\n  0x00\n    /* \"#utility.yul\":2843:2910   */\n  tag_50\n    /* \"#utility.yul\":2907:2909   */\n  0x14\n    /* \"#utility.yul\":2902:2905   */\n  dup4\n    /* \"#utility.yul\":2843:2910   */\n  tag_20\n  jump\t// in\ntag_50:\n    /* \"#utility.yul\":2836:2910   */\n  swap2\n  pop\n    /* \"#utility.yul\":2919:3012   */\n  tag_51\n    /* \"#utility.yul\":3008:3011   */\n  dup3\n    /* \"#utility.yul\":2919:3012   */\n  tag_23\n  jump\t// in\ntag_51:\n    /* \"#utility.yul\":3037:3039   */\n  0x20\n    /* \"#utility.yul\":3032:3035   */\n  dup3\n    /* \"#utility.yul\":3028:3040   */\n  add\n    /* \"#utility.yul\":3021:3040   */\n  swap1\n  pop\n    /* \"#utility.yul\":2680:3046   */\n  swap2\n  swap1\n  pop\n  jump\t// out\n    /* \"#utility.yul\":3052:3471   */\ntag_12:\n    /* \"#utility.yul\":3218:3222   */\n  0x00\n    /* \"#utility.yul\":3256:3258   */\n  0x20\n    /* \"#utility.yul\":3245:3254   */\n  dup3\n    /* \"#utility.yul\":3241:3259   */\n  add\n    /* \"#utility.yul\":3233:3259   */\n  swap1\n  pop\n    /* \"#utility.yul\":3305:3314   */\n  dup2\n    /* \"#utility.yul\":3299:3303   */\n  dup2\n    /* \"#utility.yul\":3295:3315   */\n  sub\n    /* \"#utility.yul\":3291:3292   */\n  0x00\n    /* \"#utility.yul\":3280:3289   */\n  dup4\n    /* \"#utility.yul\":3276:3293   */\n  add\n    /* \"#utility.yul\":3269:3316   */\n  mstore\n    /* \"#utility.yul\":3333:3464   */\n  tag_53\n    /* \"#utility.yul\":3459:3463   */\n  dup2\n    /* \"#utility.yul\":3333:3464   */\n  tag_24\n  jump\t// in\ntag_53:\n    /* \"#utility.yul\":3325:3464   */\n  swap1\n  pop\n    /* \"#utility.yul\":3052:3471   */\n  swap2\n  swap1\n  pop\n  jump\t// out\n    /* \"contracts/VickreyAuction.sol\":121:5101  contract VickreyAuction is ReentrancyGuard {... */\ntag_13:\n  dataSize(sub_0)\n  dup1\n  dataOffset(sub_0)\n  0x00\n  codecopy\n  0x00\n  return\nstop\n\nsub_0: assembly {\n        /* \"contracts/VickreyAuction.sol\":121:5101  contract VickreyAuction is ReentrancyGuard {... */\n      mstore(0x40, 0x80)\n      jumpi(tag_1, lt(calldatasize, 0x04))\n      shr(0xe0, calldataload(0x00))\n      dup1\n      0x8da5cb5b\n      gt\n      tag_19\n      jumpi\n      dup1\n      0xdfbf53ae\n      gt\n      tag_20\n      jumpi\n      dup1\n      0xdfbf53ae\n      eq\n      tag_14\n      jumpi\n      dup1\n      0xe38d6b5c\n      eq\n      tag_15\n      jumpi\n      dup1\n      0xee38db95\n      eq\n      tag_16\n      jumpi\n      dup1\n      0xef731be3\n      eq\n      tag_17\n      jumpi\n      dup1\n      0xf77282ab\n      eq\n      tag_18\n      jumpi\n      jump(tag_1)\n    tag_20:\n      dup1\n      0x8da5cb5b\n      eq\n      tag_10\n      jumpi\n      dup1\n      0x93171900\n      eq\n      tag_11\n      jumpi\n      dup1\n      0xb81c78ec\n      eq\n      tag_12\n      jumpi\n      dup1\n      0xc35905c6\n      eq\n      tag_13\n      jumpi\n      jump(tag_1)\n    tag_19:\n      dup1\n      0x5e10177b\n      gt\n      tag_21\n      jumpi\n      dup1\n      0x5e10177b\n      eq\n      tag_6\n      jumpi\n      dup1\n      0x62ea82db\n      eq\n      tag_7\n      jumpi\n      dup1\n      0x78e97925\n      eq\n      tag_8\n      jumpi\n      dup1\n      0x86433374\n      eq\n      tag_9\n      jumpi\n      jump(tag_1)\n    tag_21:\n      dup1\n      0x3197cbb6\n      eq\n      tag_2\n      jumpi\n      dup1\n      0x35c1d349\n      eq\n      tag_3\n      jumpi\n      dup1\n      0x36d6a26d\n      eq\n      tag_4\n      jumpi\n      dup1\n      0x454a2ab3\n      eq\n      tag_5\n      jumpi\n    tag_1:\n      revert(0x00, 0x00)\n        /* \"contracts/VickreyAuction.sol\":223:242  uint public endTime */\n    tag_2:\n      callvalue\n      dup1\n      iszero\n      tag_22\n      jumpi\n      revert(0x00, 0x00)\n    tag_22:\n      pop\n      tag_23\n      tag_24\n      jump\t// in\n    tag_23:\n      mload(0x40)\n      tag_25\n      swap2\n      swap1\n      tag_26\n      jump\t// in\n    tag_25:\n      mload(0x40)\n      dup1\n      swap2\n      sub\n      swap1\n      return\n        /* \"contracts/VickreyAuction.sol\":562:591  address[] public participants */\n    tag_3:\n      callvalue\n      dup1\n      iszero\n      tag_27\n      jumpi\n      revert(0x00, 0x00)\n    tag_27:\n      pop\n      tag_28\n      0x04\n      dup1\n      calldatasize\n      sub\n      dup2\n      add\n      swap1\n      tag_29\n      swap2\n      swap1\n      tag_30\n      jump\t// in\n    tag_29:\n      tag_31\n      jump\t// in\n    tag_28:\n      mload(0x40)\n      tag_32\n      swap2\n      swap1\n      tag_33\n      jump\t// in\n    tag_32:\n      mload(0x40)\n      dup1\n      swap2\n      sub\n      swap1\n      return\n        /* \"contracts/VickreyAuction.sol\":3894:4331  function markAsUndelivered() external onlyOwner nonReentrant {... */\n    tag_4:\n      callvalue\n      dup1\n      iszero\n      tag_34\n      jumpi\n      revert(0x00, 0x00)\n    tag_34:\n      pop\n      tag_35\n      tag_36\n      jump\t// in\n    tag_35:\n      stop\n        /* \"contracts/VickreyAuction.sol\":1491:2035  function bid(uint _amount) external payable auctionActive {... */\n    tag_5:\n      tag_37\n      0x04\n      dup1\n      calldatasize\n      sub\n      dup2\n      add\n      swap1\n      tag_38\n      swap2\n      swap1\n      tag_30\n      jump\t// in\n    tag_38:\n      tag_39\n      jump\t// in\n    tag_37:\n      stop\n        /* \"contracts/VickreyAuction.sol\":3446:3888  function confirmDelivery() external onlyOwner nonReentrant {... */\n    tag_6:\n      callvalue\n      dup1\n      iszero\n      tag_40\n      jumpi\n      revert(0x00, 0x00)\n    tag_40:\n      pop\n      tag_41\n      tag_42\n      jump\t// in\n    tag_41:\n      stop\n        /* \"contracts/VickreyAuction.sol\":521:556  mapping(address => Bid) public bids */\n    tag_7:\n      callvalue\n      dup1\n      iszero\n      tag_43\n      jumpi\n      revert(0x00, 0x00)\n    tag_43:\n      pop\n      tag_44\n      0x04\n      dup1\n      calldatasize\n      sub\n      dup2\n      add\n      swap1\n      tag_45\n      swap2\n      swap1\n      tag_46\n      jump\t// in\n    tag_45:\n      tag_47\n      jump\t// in\n    tag_44:\n      mload(0x40)\n      tag_48\n      swap4\n      swap3\n      swap2\n      swap1\n      tag_49\n      jump\t// in\n    tag_48:\n      mload(0x40)\n      dup1\n      swap2\n      sub\n      swap1\n      return\n        /* \"contracts/VickreyAuction.sol\":196:217  uint public startTime */\n    tag_8:\n      callvalue\n      dup1\n      iszero\n      tag_50\n      jumpi\n      revert(0x00, 0x00)\n    tag_50:\n      pop\n      tag_51\n      tag_52\n      jump\t// in\n    tag_51:\n      mload(0x40)\n      tag_53\n      swap2\n      swap1\n      tag_26\n      jump\t// in\n    tag_53:\n      mload(0x40)\n      dup1\n      swap2\n      sub\n      swap1\n      return\n        /* \"contracts/VickreyAuction.sol\":332:356  bool public auctionEnded */\n    tag_9:\n      callvalue\n      dup1\n      iszero\n      tag_54\n      jumpi\n      revert(0x00, 0x00)\n    tag_54:\n      pop\n      tag_55\n      tag_56\n      jump\t// in\n    tag_55:\n      mload(0x40)\n      tag_57\n      swap2\n      swap1\n      tag_58\n      jump\t// in\n    tag_57:\n      mload(0x40)\n      dup1\n      swap2\n      sub\n      swap1\n      return\n        /* \"contracts/VickreyAuction.sol\":170:190  address public owner */\n    tag_10:\n      callvalue\n      dup1\n      iszero\n      tag_59\n      jumpi\n      revert(0x00, 0x00)\n    tag_59:\n      pop\n      tag_60\n      tag_61\n      jump\t// in\n    tag_60:\n      mload(0x40)\n      tag_62\n      swap2\n      swap1\n      tag_33\n      jump\t// in\n    tag_62:\n      mload(0x40)\n      dup1\n      swap2\n      sub\n      swap1\n      return\n        /* \"contracts/VickreyAuction.sol\":362:391  bool public deliveryConfirmed */\n    tag_11:\n      callvalue\n      dup1\n      iszero\n      tag_63\n      jumpi\n      revert(0x00, 0x00)\n    tag_63:\n      pop\n      tag_64\n      tag_65\n      jump\t// in\n    tag_64:\n      mload(0x40)\n      tag_66\n      swap2\n      swap1\n      tag_58\n      jump\t// in\n    tag_66:\n      mload(0x40)\n      dup1\n      swap2\n      sub\n      swap1\n      return\n        /* \"contracts/VickreyAuction.sol\":4337:4656  function getBids() external view onlyOwner returns (address[] memory, uint[] memory) {... */\n    tag_12:\n      callvalue\n      dup1\n      iszero\n      tag_67\n      jumpi\n      revert(0x00, 0x00)\n    tag_67:\n      pop\n      tag_68\n      tag_69\n      jump\t// in\n    tag_68:\n      mload(0x40)\n      tag_70\n      swap3\n      swap2\n      swap1\n      tag_71\n      jump\t// in\n    tag_70:\n      mload(0x40)\n      dup1\n      swap2\n      sub\n      swap1\n      return\n        /* \"contracts/VickreyAuction.sol\":274:299  uint public paymentAmount */\n    tag_13:\n      callvalue\n      dup1\n      iszero\n      tag_72\n      jumpi\n      revert(0x00, 0x00)\n    tag_72:\n      pop\n      tag_73\n      tag_74\n      jump\t// in\n    tag_73:\n      mload(0x40)\n      tag_75\n      swap2\n      swap1\n      tag_26\n      jump\t// in\n    tag_75:\n      mload(0x40)\n      dup1\n      swap2\n      sub\n      swap1\n      return\n        /* \"contracts/VickreyAuction.sol\":305:326  address public winner */\n    tag_14:\n      callvalue\n      dup1\n      iszero\n      tag_76\n      jumpi\n      revert(0x00, 0x00)\n    tag_76:\n      pop\n      tag_77\n      tag_78\n      jump\t// in\n    tag_77:\n      mload(0x40)\n      tag_79\n      swap2\n      swap1\n      tag_33\n      jump\t// in\n    tag_79:\n      mload(0x40)\n      dup1\n      swap2\n      sub\n      swap1\n      return\n        /* \"contracts/VickreyAuction.sol\":248:268  uint public maxPrice */\n    tag_15:\n      callvalue\n      dup1\n      iszero\n      tag_80\n      jumpi\n      revert(0x00, 0x00)\n    tag_80:\n      pop\n      tag_81\n      tag_82\n      jump\t// in\n    tag_81:\n      mload(0x40)\n      tag_83\n      swap2\n      swap1\n      tag_26\n      jump\t// in\n    tag_83:\n      mload(0x40)\n      dup1\n      swap2\n      sub\n      swap1\n      return\n        /* \"contracts/VickreyAuction.sol\":4662:5099  function withdrawRemaining() external onlyOwner nonReentrant {... */\n    tag_16:\n      callvalue\n      dup1\n      iszero\n      tag_84\n      jumpi\n      revert(0x00, 0x00)\n    tag_84:\n      pop\n      tag_85\n      tag_86\n      jump\t// in\n    tag_85:\n      stop\n        /* \"contracts/VickreyAuction.sol\":397:423  bool public deliveryFailed */\n    tag_17:\n      callvalue\n      dup1\n      iszero\n      tag_87\n      jumpi\n      revert(0x00, 0x00)\n    tag_87:\n      pop\n      tag_88\n      tag_89\n      jump\t// in\n    tag_88:\n      mload(0x40)\n      tag_90\n      swap2\n      swap1\n      tag_58\n      jump\t// in\n    tag_90:\n      mload(0x40)\n      dup1\n      swap2\n      sub\n      swap1\n      return\n        /* \"contracts/VickreyAuction.sol\":2041:3440  function finalizeAuction() external onlyOwner nonReentrant {... */\n    tag_18:\n      callvalue\n      dup1\n      iszero\n      tag_91\n      jumpi\n      revert(0x00, 0x00)\n    tag_91:\n      pop\n      tag_92\n      tag_93\n      jump\t// in\n    tag_92:\n      stop\n        /* \"contracts/VickreyAuction.sol\":223:242  uint public endTime */\n    tag_24:\n      sload(0x03)\n      dup2\n      jump\t// out\n        /* \"contracts/VickreyAuction.sol\":562:591  address[] public participants */\n    tag_31:\n      0x08\n      dup2\n      dup2\n      sload\n      dup2\n      lt\n      tag_94\n      jumpi\n      0x00\n      dup1\n      revert\n    tag_94:\n      swap1\n      0x00\n      mstore\n      keccak256(0x00, 0x20)\n      add\n      0x00\n      swap2\n      pop\n      sload\n      swap1\n      0x0100\n      exp\n      swap1\n      div\n      0xffffffffffffffffffffffffffffffffffffffff\n      and\n      dup2\n      jump\t// out\n        /* \"contracts/VickreyAuction.sol\":3894:4331  function markAsUndelivered() external onlyOwner nonReentrant {... */\n    tag_36:\n        /* \"contracts/VickreyAuction.sol\":907:912  owner */\n      0x01\n      0x00\n      swap1\n      sload\n      swap1\n      0x0100\n      exp\n      swap1\n      div\n      0xffffffffffffffffffffffffffffffffffffffff\n      and\n        /* \"contracts/VickreyAuction.sol\":893:912  msg.sender == owner */\n      0xffffffffffffffffffffffffffffffffffffffff\n      and\n        /* \"contracts/VickreyAuction.sol\":893:903  msg.sender */\n      caller\n        /* \"contracts/VickreyAuction.sol\":893:912  msg.sender == owner */\n      0xffffffffffffffffffffffffffffffffffffffff\n      and\n      eq\n        /* \"contracts/VickreyAuction.sol\":885:941  require(msg.sender == owner, \"Only owner can call this\") */\n      tag_97\n      jumpi\n      mload(0x40)\n      0x08c379a000000000000000000000000000000000000000000000000000000000\n      dup2\n      mstore\n      0x04\n      add\n      tag_98\n      swap1\n      tag_99\n      jump\t// in\n    tag_98:\n      mload(0x40)\n      dup1\n      swap2\n      sub\n      swap1\n      revert\n    tag_97:\n        /* \"@openzeppelin/contracts/security/ReentrancyGuard.sol\":2261:2282  _nonReentrantBefore() */\n      tag_101\n        /* \"@openzeppelin/contracts/security/ReentrancyGuard.sol\":2261:2280  _nonReentrantBefore */\n      tag_102\n        /* \"@openzeppelin/contracts/security/ReentrancyGuard.sol\":2261:2282  _nonReentrantBefore() */\n      jump\t// in\n    tag_101:\n        /* \"contracts/VickreyAuction.sol\":3973:3985  auctionEnded */\n      0x06\n      0x14\n      swap1\n      sload\n      swap1\n      0x0100\n      exp\n      swap1\n      div\n      0xff\n      and\n        /* \"contracts/VickreyAuction.sol\":3965:4007  require(auctionEnded, \"Auction not ended\") */\n      tag_104\n      jumpi\n      mload(0x40)\n      0x08c379a000000000000000000000000000000000000000000000000000000000\n      dup2\n      mstore\n      0x04\n      add\n      tag_105\n      swap1\n      tag_106\n      jump\t// in\n    tag_105:\n      mload(0x40)\n      dup1\n      swap2\n      sub\n      swap1\n      revert\n    tag_104:\n        /* \"contracts/VickreyAuction.sol\":4026:4043  deliveryConfirmed */\n      0x06\n      0x15\n      swap1\n      sload\n      swap1\n      0x0100\n      exp\n      swap1\n      div\n      0xff\n      and\n        /* \"contracts/VickreyAuction.sol\":4025:4043  !deliveryConfirmed */\n      iszero\n        /* \"contracts/VickreyAuction.sol\":4025:4062  !deliveryConfirmed && !deliveryFailed */\n      dup1\n      iszero\n      tag_107\n      jumpi\n      pop\n        /* \"contracts/VickreyAuction.sol\":4048:4062  deliveryFailed */\n      0x06\n      0x16\n      swap1\n      sload\n      swap1\n      0x0100\n      exp\n      swap1\n      div\n      0xff\n      and\n        /* \"contracts/VickreyAuction.sol\":4047:4062  !deliveryFailed */\n      iszero\n        /* \"contracts/VickreyAuction.sol\":4025:4062  !deliveryConfirmed && !deliveryFailed */\n    tag_107:\n        /* \"contracts/VickreyAuction.sol\":4017:4093  require(!deliveryConfirmed && !deliveryFailed, \"Delivery already processed\") */\n      tag_108\n      jumpi\n      mload(0x40)\n      0x08c379a000000000000000000000000000000000000000000000000000000000\n      dup2\n      mstore\n      0x04\n      add\n      tag_109\n      swap1\n      tag_110\n      jump\t// in\n    tag_109:\n      mload(0x40)\n      dup1\n      swap2\n      sub\n      swap1\n      revert\n    tag_108:\n        /* \"contracts/VickreyAuction.sol\":4121:4125  true */\n      0x01\n        /* \"contracts/VickreyAuction.sol\":4104:4118  deliveryFailed */\n      0x06\n      0x16\n        /* \"contracts/VickreyAuction.sol\":4104:4125  deliveryFailed = true */\n      0x0100\n      exp\n      dup2\n      sload\n      dup2\n      0xff\n      mul\n      not\n      and\n      swap1\n      dup4\n      iszero\n      iszero\n      mul\n      or\n      swap1\n      sstore\n      pop\n        /* \"contracts/VickreyAuction.sol\":4135:4147  uint deposit */\n      0x00\n        /* \"contracts/VickreyAuction.sol\":4150:4154  bids */\n      0x07\n        /* \"contracts/VickreyAuction.sol\":4150:4162  bids[winner] */\n      0x00\n        /* \"contracts/VickreyAuction.sol\":4155:4161  winner */\n      0x06\n      0x00\n      swap1\n      sload\n      swap1\n      0x0100\n      exp\n      swap1\n      div\n      0xffffffffffffffffffffffffffffffffffffffff\n      and\n        /* \"contracts/VickreyAuction.sol\":4150:4162  bids[winner] */\n      0xffffffffffffffffffffffffffffffffffffffff\n      and\n      0xffffffffffffffffffffffffffffffffffffffff\n      and\n      dup2\n      mstore\n      0x20\n      add\n      swap1\n      dup2\n      mstore\n      0x20\n      add\n      0x00\n      keccak256\n        /* \"contracts/VickreyAuction.sol\":4150:4170  bids[winner].deposit */\n      0x01\n      add\n      sload\n        /* \"contracts/VickreyAuction.sol\":4135:4170  uint deposit = bids[winner].deposit */\n      swap1\n      pop\n        /* \"contracts/VickreyAuction.sol\":4203:4204  0 */\n      0x00\n        /* \"contracts/VickreyAuction.sol\":4180:4184  bids */\n      0x07\n        /* \"contracts/VickreyAuction.sol\":4180:4192  bids[winner] */\n      0x00\n        /* \"contracts/VickreyAuction.sol\":4185:4191  winner */\n      0x06\n      0x00\n      swap1\n      sload\n      swap1\n      0x0100\n      exp\n      swap1\n      div\n      0xffffffffffffffffffffffffffffffffffffffff\n      and\n        /* \"contracts/VickreyAuction.sol\":4180:4192  bids[winner] */\n      0xffffffffffffffffffffffffffffffffffffffff\n      and\n      0xffffffffffffffffffffffffffffffffffffffff\n      and\n      dup2\n      mstore\n      0x20\n      add\n      swap1\n      dup2\n      mstore\n      0x20\n      add\n      0x00\n      keccak256\n        /* \"contracts/VickreyAuction.sol\":4180:4200  bids[winner].deposit */\n      0x01\n      add\n        /* \"contracts/VickreyAuction.sol\":4180:4204  bids[winner].deposit = 0 */\n      dup2\n      swap1\n      sstore\n      pop\n        /* \"contracts/VickreyAuction.sol\":4223:4228  owner */\n      0x01\n      0x00\n      swap1\n      sload\n      swap1\n      0x0100\n      exp\n      swap1\n      div\n      0xffffffffffffffffffffffffffffffffffffffff\n      and\n        /* \"contracts/VickreyAuction.sol\":4215:4238  payable(owner).transfer */\n      0xffffffffffffffffffffffffffffffffffffffff\n      and\n        /* \"contracts/VickreyAuction.sol\":4215:4263  payable(owner).transfer(paymentAmount + deposit) */\n      0x08fc\n        /* \"contracts/VickreyAuction.sol\":4255:4262  deposit */\n      dup3\n        /* \"contracts/VickreyAuction.sol\":4239:4252  paymentAmount */\n      sload(0x05)\n        /* \"contracts/VickreyAuction.sol\":4239:4262  paymentAmount + deposit */\n      tag_111\n      swap2\n      swap1\n      tag_112\n      jump\t// in\n    tag_111:\n        /* \"contracts/VickreyAuction.sol\":4215:4263  payable(owner).transfer(paymentAmount + deposit) */\n      swap1\n      dup2\n      iszero\n      mul\n      swap1\n      mload(0x40)\n      0x00\n      mload(0x40)\n      dup1\n      dup4\n      sub\n      dup2\n      dup6\n      dup9\n      dup9\n      call\n      swap4\n      pop\n      pop\n      pop\n      pop\n      iszero\n      dup1\n      iszero\n      tag_114\n      jumpi\n      returndatacopy(0x00, 0x00, returndatasize)\n      revert(0x00, returndatasize)\n    tag_114:\n      pop\n        /* \"contracts/VickreyAuction.sol\":4278:4324  DeliveryFailed(winner, paymentAmount, deposit) */\n      0x3182579e603ab9c5a5e9fb5e63edead00f7e5b2088030e7c1ace31db3f88418d\n        /* \"contracts/VickreyAuction.sol\":4293:4299  winner */\n      0x06\n      0x00\n      swap1\n      sload\n      swap1\n      0x0100\n      exp\n      swap1\n      div\n      0xffffffffffffffffffffffffffffffffffffffff\n      and\n        /* \"contracts/VickreyAuction.sol\":4301:4314  paymentAmount */\n      sload(0x05)\n        /* \"contracts/VickreyAuction.sol\":4316:4323  deposit */\n      dup4\n        /* \"contracts/VickreyAuction.sol\":4278:4324  DeliveryFailed(winner, paymentAmount, deposit) */\n      mload(0x40)\n      tag_115\n      swap4\n      swap3\n      swap2\n      swap1\n      tag_116\n      jump\t// in\n    tag_115:\n      mload(0x40)\n      dup1\n      swap2\n      sub\n      swap1\n      log1\n        /* \"contracts/VickreyAuction.sol\":3955:4331  {... */\n      pop\n        /* \"@openzeppelin/contracts/security/ReentrancyGuard.sol\":2303:2323  _nonReentrantAfter() */\n      tag_117\n        /* \"@openzeppelin/contracts/security/ReentrancyGuard.sol\":2303:2321  _nonReentrantAfter */\n      tag_118\n        /* \"@openzeppelin/contracts/security/ReentrancyGuard.sol\":2303:2323  _nonReentrantAfter() */\n      jump\t// in\n    tag_117:\n        /* \"contracts/VickreyAuction.sol\":3894:4331  function markAsUndelivered() external onlyOwner nonReentrant {... */\n      jump\t// out\n        /* \"contracts/VickreyAuction.sol\":1491:2035  function bid(uint _amount) external payable auctionActive {... */\n    tag_39:\n        /* \"contracts/VickreyAuction.sol\":1027:1036  startTime */\n      sload(0x02)\n        /* \"contracts/VickreyAuction.sol\":1008:1023  block.timestamp */\n      timestamp\n        /* \"contracts/VickreyAuction.sol\":1008:1036  block.timestamp >= startTime */\n      lt\n      iszero\n        /* \"contracts/VickreyAuction.sol\":1008:1066  block.timestamp >= startTime && block.timestamp <= endTime */\n      dup1\n      iszero\n      tag_120\n      jumpi\n      pop\n        /* \"contracts/VickreyAuction.sol\":1059:1066  endTime */\n      sload(0x03)\n        /* \"contracts/VickreyAuction.sol\":1040:1055  block.timestamp */\n      timestamp\n        /* \"contracts/VickreyAuction.sol\":1040:1066  block.timestamp <= endTime */\n      gt\n      iszero\n        /* \"contracts/VickreyAuction.sol\":1008:1066  block.timestamp >= startTime && block.timestamp <= endTime */\n    tag_120:\n        /* \"contracts/VickreyAuction.sol\":1000:1089  require(block.timestamp >= startTime && block.timestamp <= endTime, \"Auction not active\") */\n      tag_121\n      jumpi\n      mload(0x40)\n      0x08c379a000000000000000000000000000000000000000000000000000000000\n      dup2\n      mstore\n      0x04\n      add\n      tag_122\n      swap1\n      tag_123\n      jump\t// in\n    tag_122:\n      mload(0x40)\n      dup1\n      swap2\n      sub\n      swap1\n      revert\n    tag_121:\n        /* \"contracts/VickreyAuction.sol\":1108:1120  auctionEnded */\n      0x06\n      0x14\n      swap1\n      sload\n      swap1\n      0x0100\n      exp\n      swap1\n      div\n      0xff\n      and\n        /* \"contracts/VickreyAuction.sol\":1107:1120  !auctionEnded */\n      iszero\n        /* \"contracts/VickreyAuction.sol\":1099:1146  require(!auctionEnded, \"Auction already ended\") */\n      tag_124\n      jumpi\n      mload(0x40)\n      0x08c379a000000000000000000000000000000000000000000000000000000000\n      dup2\n      mstore\n      0x04\n      add\n      tag_125\n      swap1\n      tag_126\n      jump\t// in\n    tag_125:\n      mload(0x40)\n      dup1\n      swap2\n      sub\n      swap1\n      revert\n    tag_124:\n        /* \"contracts/VickreyAuction.sol\":1581:1586  owner */\n      0x01\n      0x00\n      swap1\n      sload\n      swap1\n      0x0100\n      exp\n      swap1\n      div\n      0xffffffffffffffffffffffffffffffffffffffff\n      and\n        /* \"contracts/VickreyAuction.sol\":1567:1586  msg.sender != owner */\n      0xffffffffffffffffffffffffffffffffffffffff\n      and\n        /* \"contracts/VickreyAuction.sol\":1567:1577  msg.sender */\n      caller\n        /* \"contracts/VickreyAuction.sol\":1567:1586  msg.sender != owner */\n      0xffffffffffffffffffffffffffffffffffffffff\n      and\n      sub\n        /* \"contracts/VickreyAuction.sol\":1559:1607  require(msg.sender != owner, \"Owner cannot bid\") */\n      tag_128\n      jumpi\n      mload(0x40)\n      0x08c379a000000000000000000000000000000000000000000000000000000000\n      dup2\n      mstore\n      0x04\n      add\n      tag_129\n      swap1\n      tag_130\n      jump\t// in\n    tag_129:\n      mload(0x40)\n      dup1\n      swap2\n      sub\n      swap1\n      revert\n    tag_128:\n        /* \"contracts/VickreyAuction.sol\":1666:1667  0 */\n      0x00\n        /* \"contracts/VickreyAuction.sol\":1656:1663  _amount */\n      dup2\n        /* \"contracts/VickreyAuction.sol\":1656:1667  _amount > 0 */\n      gt\n        /* \"contracts/VickreyAuction.sol\":1656:1690  _amount > 0 && _amount <= maxPrice */\n      dup1\n      iszero\n      tag_131\n      jumpi\n      pop\n        /* \"contracts/VickreyAuction.sol\":1682:1690  maxPrice */\n      sload(0x04)\n        /* \"contracts/VickreyAuction.sol\":1671:1678  _amount */\n      dup2\n        /* \"contracts/VickreyAuction.sol\":1671:1690  _amount <= maxPrice */\n      gt\n      iszero\n        /* \"contracts/VickreyAuction.sol\":1656:1690  _amount > 0 && _amount <= maxPrice */\n    tag_131:\n        /* \"contracts/VickreyAuction.sol\":1648:1709  require(_amount > 0 && _amount <= maxPrice, \"Invalid amount\") */\n      tag_132\n      jumpi\n      mload(0x40)\n      0x08c379a000000000000000000000000000000000000000000000000000000000\n      dup2\n      mstore\n      0x04\n      add\n      tag_133\n      swap1\n      tag_134\n      jump\t// in\n    tag_133:\n      mload(0x40)\n      dup1\n      swap2\n      sub\n      swap1\n      revert\n    tag_132:\n        /* \"contracts/VickreyAuction.sol\":1754:1755  0 */\n      0x00\n        /* \"contracts/VickreyAuction.sol\":1727:1731  bids */\n      0x07\n        /* \"contracts/VickreyAuction.sol\":1727:1743  bids[msg.sender] */\n      0x00\n        /* \"contracts/VickreyAuction.sol\":1732:1742  msg.sender */\n      caller\n        /* \"contracts/VickreyAuction.sol\":1727:1743  bids[msg.sender] */\n      0xffffffffffffffffffffffffffffffffffffffff\n      and\n      0xffffffffffffffffffffffffffffffffffffffff\n      and\n      dup2\n      mstore\n      0x20\n      add\n      swap1\n      dup2\n      mstore\n      0x20\n      add\n      0x00\n      keccak256\n        /* \"contracts/VickreyAuction.sol\":1727:1750  bids[msg.sender].amount */\n      0x00\n      add\n      sload\n        /* \"contracts/VickreyAuction.sol\":1727:1755  bids[msg.sender].amount == 0 */\n      eq\n        /* \"contracts/VickreyAuction.sol\":1719:1780  require(bids[msg.sender].amount == 0, \"Already participated\") */\n      tag_135\n      jumpi\n      mload(0x40)\n      0x08c379a000000000000000000000000000000000000000000000000000000000\n      dup2\n      mstore\n      0x04\n      add\n      tag_136\n      swap1\n      tag_137\n      jump\t// in\n    tag_136:\n      mload(0x40)\n      dup1\n      swap2\n      sub\n      swap1\n      revert\n    tag_135:\n        /* \"contracts/VickreyAuction.sol\":1820:1822  30 */\n      0x1e\n        /* \"contracts/VickreyAuction.sol\":1798:1810  participants */\n      0x08\n        /* \"contracts/VickreyAuction.sol\":1798:1817  participants.length */\n      dup1\n      sload\n      swap1\n      pop\n        /* \"contracts/VickreyAuction.sol\":1798:1822  participants.length < 30 */\n      lt\n        /* \"contracts/VickreyAuction.sol\":1790:1843  require(participants.length < 30, \"Max bids reached\") */\n      tag_138\n      jumpi\n      mload(0x40)\n      0x08c379a000000000000000000000000000000000000000000000000000000000\n      dup2\n      mstore\n      0x04\n      add\n      tag_139\n      swap1\n      tag_140\n      jump\t// in\n    tag_139:\n      mload(0x40)\n      dup1\n      swap2\n      sub\n      swap1\n      revert\n    tag_138:\n        /* \"contracts/VickreyAuction.sol\":1891:1894  100 */\n      0x64\n        /* \"contracts/VickreyAuction.sol\":1885:1887  10 */\n      0x0a\n        /* \"contracts/VickreyAuction.sol\":1875:1882  _amount */\n      dup3\n        /* \"contracts/VickreyAuction.sol\":1875:1887  _amount * 10 */\n      tag_141\n      swap2\n      swap1\n      tag_142\n      jump\t// in\n    tag_141:\n        /* \"contracts/VickreyAuction.sol\":1874:1894  (_amount * 10) / 100 */\n      tag_143\n      swap2\n      swap1\n      tag_144\n      jump\t// in\n    tag_143:\n        /* \"contracts/VickreyAuction.sol\":1861:1870  msg.value */\n      callvalue\n        /* \"contracts/VickreyAuction.sol\":1861:1894  msg.value >= (_amount * 10) / 100 */\n      lt\n      iszero\n        /* \"contracts/VickreyAuction.sol\":1853:1919  require(msg.value >= (_amount * 10) / 100, \"Insufficient deposit\") */\n      tag_145\n      jumpi\n      mload(0x40)\n      0x08c379a000000000000000000000000000000000000000000000000000000000\n      dup2\n      mstore\n      0x04\n      add\n      tag_146\n      swap1\n      tag_147\n      jump\t// in\n    tag_146:\n      mload(0x40)\n      dup1\n      swap2\n      sub\n      swap1\n      revert\n    tag_145:\n        /* \"contracts/VickreyAuction.sol\":1949:1989  Bid(_amount, msg.value, block.timestamp) */\n      mload(0x40)\n      dup1\n      0x60\n      add\n      0x40\n      mstore\n      dup1\n        /* \"contracts/VickreyAuction.sol\":1953:1960  _amount */\n      dup3\n        /* \"contracts/VickreyAuction.sol\":1949:1989  Bid(_amount, msg.value, block.timestamp) */\n      dup2\n      mstore\n      0x20\n      add\n        /* \"contracts/VickreyAuction.sol\":1962:1971  msg.value */\n      callvalue\n        /* \"contracts/VickreyAuction.sol\":1949:1989  Bid(_amount, msg.value, block.timestamp) */\n      dup2\n      mstore\n      0x20\n      add\n        /* \"contracts/VickreyAuction.sol\":1973:1988  block.timestamp */\n      timestamp\n        /* \"contracts/VickreyAuction.sol\":1949:1989  Bid(_amount, msg.value, block.timestamp) */\n      dup2\n      mstore\n      pop\n        /* \"contracts/VickreyAuction.sol\":1930:1934  bids */\n      0x07\n        /* \"contracts/VickreyAuction.sol\":1930:1946  bids[msg.sender] */\n      0x00\n        /* \"contracts/VickreyAuction.sol\":1935:1945  msg.sender */\n      caller\n        /* \"contracts/VickreyAuction.sol\":1930:1946  bids[msg.sender] */\n      0xffffffffffffffffffffffffffffffffffffffff\n      and\n      0xffffffffffffffffffffffffffffffffffffffff\n      and\n      dup2\n      mstore\n      0x20\n      add\n      swap1\n      dup2\n      mstore\n      0x20\n      add\n      0x00\n      keccak256\n        /* \"contracts/VickreyAuction.sol\":1930:1989  bids[msg.sender] = Bid(_amount, msg.value, block.timestamp) */\n      0x00\n      dup3\n      add\n      mload\n      dup2\n      0x00\n      add\n      sstore\n      0x20\n      dup3\n      add\n      mload\n      dup2\n      0x01\n      add\n      sstore\n      0x40\n      dup3\n      add\n      mload\n      dup2\n      0x02\n      add\n      sstore\n      swap1\n      pop\n      pop\n        /* \"contracts/VickreyAuction.sol\":1999:2011  participants */\n      0x08\n        /* \"contracts/VickreyAuction.sol\":2017:2027  msg.sender */\n      caller\n        /* \"contracts/VickreyAuction.sol\":1999:2028  participants.push(msg.sender) */\n      swap1\n      dup1\n      0x01\n      dup2\n      sload\n      add\n      dup1\n      dup3\n      sstore\n      dup1\n      swap2\n      pop\n      pop\n      0x01\n      swap1\n      sub\n      swap1\n      0x00\n      mstore\n      keccak256(0x00, 0x20)\n      add\n      0x00\n      swap1\n      swap2\n      swap1\n      swap2\n      swap1\n      swap2\n      0x0100\n      exp\n      dup2\n      sload\n      dup2\n      0xffffffffffffffffffffffffffffffffffffffff\n      mul\n      not\n      and\n      swap1\n      dup4\n      0xffffffffffffffffffffffffffffffffffffffff\n      and\n      mul\n      or\n      swap1\n      sstore\n      pop\n        /* \"contracts/VickreyAuction.sol\":1491:2035  function bid(uint _amount) external payable auctionActive {... */\n      pop\n      jump\t// out\n        /* \"contracts/VickreyAuction.sol\":3446:3888  function confirmDelivery() external onlyOwner nonReentrant {... */\n    tag_42:\n        /* \"contracts/VickreyAuction.sol\":907:912  owner */\n      0x01\n      0x00\n      swap1\n      sload\n      swap1\n      0x0100\n      exp\n      swap1\n      div\n      0xffffffffffffffffffffffffffffffffffffffff\n      and\n        /* \"contracts/VickreyAuction.sol\":893:912  msg.sender == owner */\n      0xffffffffffffffffffffffffffffffffffffffff\n      and\n        /* \"contracts/VickreyAuction.sol\":893:903  msg.sender */\n      caller\n        /* \"contracts/VickreyAuction.sol\":893:912  msg.sender == owner */\n      0xffffffffffffffffffffffffffffffffffffffff\n      and\n      eq\n        /* \"contracts/VickreyAuction.sol\":885:941  require(msg.sender == owner, \"Only owner can call this\") */\n      tag_150\n      jumpi\n      mload(0x40)\n      0x08c379a000000000000000000000000000000000000000000000000000000000\n      dup2\n      mstore\n      0x04\n      add\n      tag_151\n      swap1\n      tag_99\n      jump\t// in\n    tag_151:\n      mload(0x40)\n      dup1\n      swap2\n      sub\n      swap1\n      revert\n    tag_150:\n        /* \"@openzeppelin/contracts/security/ReentrancyGuard.sol\":2261:2282  _nonReentrantBefore() */\n      tag_153\n        /* \"@openzeppelin/contracts/security/ReentrancyGuard.sol\":2261:2280  _nonReentrantBefore */\n      tag_102\n        /* \"@openzeppelin/contracts/security/ReentrancyGuard.sol\":2261:2282  _nonReentrantBefore() */\n      jump\t// in\n    tag_153:\n        /* \"contracts/VickreyAuction.sol\":3523:3535  auctionEnded */\n      0x06\n      0x14\n      swap1\n      sload\n      swap1\n      0x0100\n      exp\n      swap1\n      div\n      0xff\n      and\n        /* \"contracts/VickreyAuction.sol\":3515:3557  require(auctionEnded, \"Auction not ended\") */\n      tag_155\n      jumpi\n      mload(0x40)\n      0x08c379a000000000000000000000000000000000000000000000000000000000\n      dup2\n      mstore\n      0x04\n      add\n      tag_156\n      swap1\n      tag_106\n      jump\t// in\n    tag_156:\n      mload(0x40)\n      dup1\n      swap2\n      sub\n      swap1\n      revert\n    tag_155:\n        /* \"contracts/VickreyAuction.sol\":3576:3593  deliveryConfirmed */\n      0x06\n      0x15\n      swap1\n      sload\n      swap1\n      0x0100\n      exp\n      swap1\n      div\n      0xff\n      and\n        /* \"contracts/VickreyAuction.sol\":3575:3593  !deliveryConfirmed */\n      iszero\n        /* \"contracts/VickreyAuction.sol\":3575:3612  !deliveryConfirmed && !deliveryFailed */\n      dup1\n      iszero\n      tag_157\n      jumpi\n      pop\n        /* \"contracts/VickreyAuction.sol\":3598:3612  deliveryFailed */\n      0x06\n      0x16\n      swap1\n      sload\n      swap1\n      0x0100\n      exp\n      swap1\n      div\n      0xff\n      and\n        /* \"contracts/VickreyAuction.sol\":3597:3612  !deliveryFailed */\n      iszero\n        /* \"contracts/VickreyAuction.sol\":3575:3612  !deliveryConfirmed && !deliveryFailed */\n    tag_157:\n        /* \"contracts/VickreyAuction.sol\":3567:3643  require(!deliveryConfirmed && !deliveryFailed, \"Delivery already processed\") */\n      tag_158\n      jumpi\n      mload(0x40)\n      0x08c379a000000000000000000000000000000000000000000000000000000000\n      dup2\n      mstore\n      0x04\n      add\n      tag_159\n      swap1\n      tag_110\n      jump\t// in\n    tag_159:\n      mload(0x40)\n      dup1\n      swap2\n      sub\n      swap1\n      revert\n    tag_158:\n        /* \"contracts/VickreyAuction.sol\":3674:3678  true */\n      0x01\n        /* \"contracts/VickreyAuction.sol\":3654:3671  deliveryConfirmed */\n      0x06\n      0x15\n        /* \"contracts/VickreyAuction.sol\":3654:3678  deliveryConfirmed = true */\n      0x0100\n      exp\n      dup2\n      sload\n      dup2\n      0xff\n      mul\n      not\n      and\n      swap1\n      dup4\n      iszero\n      iszero\n      mul\n      or\n      swap1\n      sstore\n      pop\n        /* \"contracts/VickreyAuction.sol\":3688:3700  uint deposit */\n      0x00\n        /* \"contracts/VickreyAuction.sol\":3703:3707  bids */\n      0x07\n        /* \"contracts/VickreyAuction.sol\":3703:3715  bids[winner] */\n      0x00\n        /* \"contracts/VickreyAuction.sol\":3708:3714  winner */\n      0x06\n      0x00\n      swap1\n      sload\n      swap1\n      0x0100\n      exp\n      swap1\n      div\n      0xffffffffffffffffffffffffffffffffffffffff\n      and\n        /* \"contracts/VickreyAuction.sol\":3703:3715  bids[winner] */\n      0xffffffffffffffffffffffffffffffffffffffff\n      and\n      0xffffffffffffffffffffffffffffffffffffffff\n      and\n      dup2\n      mstore\n      0x20\n      add\n      swap1\n      dup2\n      mstore\n      0x20\n      add\n      0x00\n      keccak256\n        /* \"contracts/VickreyAuction.sol\":3703:3723  bids[winner].deposit */\n      0x01\n      add\n      sload\n        /* \"contracts/VickreyAuction.sol\":3688:3723  uint deposit = bids[winner].deposit */\n      swap1\n      pop\n        /* \"contracts/VickreyAuction.sol\":3756:3757  0 */\n      0x00\n        /* \"contracts/VickreyAuction.sol\":3733:3737  bids */\n      0x07\n        /* \"contracts/VickreyAuction.sol\":3733:3745  bids[winner] */\n      0x00\n        /* \"contracts/VickreyAuction.sol\":3738:3744  winner */\n      0x06\n      0x00\n      swap1\n      sload\n      swap1\n      0x0100\n      exp\n      swap1\n      div\n      0xffffffffffffffffffffffffffffffffffffffff\n      and\n        /* \"contracts/VickreyAuction.sol\":3733:3745  bids[winner] */\n      0xffffffffffffffffffffffffffffffffffffffff\n      and\n      0xffffffffffffffffffffffffffffffffffffffff\n      and\n      dup2\n      mstore\n      0x20\n      add\n      swap1\n      dup2\n      mstore\n      0x20\n      add\n      0x00\n      keccak256\n        /* \"contracts/VickreyAuction.sol\":3733:3753  bids[winner].deposit */\n      0x01\n      add\n        /* \"contracts/VickreyAuction.sol\":3733:3757  bids[winner].deposit = 0 */\n      dup2\n      swap1\n      sstore\n      pop\n        /* \"contracts/VickreyAuction.sol\":3776:3782  winner */\n      0x06\n      0x00\n      swap1\n      sload\n      swap1\n      0x0100\n      exp\n      swap1\n      div\n      0xffffffffffffffffffffffffffffffffffffffff\n      and\n        /* \"contracts/VickreyAuction.sol\":3768:3792  payable(winner).transfer */\n      0xffffffffffffffffffffffffffffffffffffffff\n      and\n        /* \"contracts/VickreyAuction.sol\":3768:3817  payable(winner).transfer(paymentAmount + deposit) */\n      0x08fc\n        /* \"contracts/VickreyAuction.sol\":3809:3816  deposit */\n      dup3\n        /* \"contracts/VickreyAuction.sol\":3793:3806  paymentAmount */\n      sload(0x05)\n        /* \"contracts/VickreyAuction.sol\":3793:3816  paymentAmount + deposit */\n      tag_160\n      swap2\n      swap1\n      tag_112\n      jump\t// in\n    tag_160:\n        /* \"contracts/VickreyAuction.sol\":3768:3817  payable(winner).transfer(paymentAmount + deposit) */\n      swap1\n      dup2\n      iszero\n      mul\n      swap1\n      mload(0x40)\n      0x00\n      mload(0x40)\n      dup1\n      dup4\n      sub\n      dup2\n      dup6\n      dup9\n      dup9\n      call\n      swap4\n      pop\n      pop\n      pop\n      pop\n      iszero\n      dup1\n      iszero\n      tag_162\n      jumpi\n      returndatacopy(0x00, 0x00, returndatasize)\n      revert(0x00, returndatasize)\n    tag_162:\n      pop\n        /* \"contracts/VickreyAuction.sol\":3832:3881  DeliveryConfirmed(winner, paymentAmount, deposit) */\n      0x91c4e2bbb437240699cd18f996c76ae5842de42aa9b2cebf234646a2d341e225\n        /* \"contracts/VickreyAuction.sol\":3850:3856  winner */\n      0x06\n      0x00\n      swap1\n      sload\n      swap1\n      0x0100\n      exp\n      swap1\n      div\n      0xffffffffffffffffffffffffffffffffffffffff\n      and\n        /* \"contracts/VickreyAuction.sol\":3858:3871  paymentAmount */\n      sload(0x05)\n        /* \"contracts/VickreyAuction.sol\":3873:3880  deposit */\n      dup4\n        /* \"contracts/VickreyAuction.sol\":3832:3881  DeliveryConfirmed(winner, paymentAmount, deposit) */\n      mload(0x40)\n      tag_163\n      swap4\n      swap3\n      swap2\n      swap1\n      tag_116\n      jump\t// in\n    tag_163:\n      mload(0x40)\n      dup1\n      swap2\n      sub\n      swap1\n      log1\n        /* \"contracts/VickreyAuction.sol\":3505:3888  {... */\n      pop\n        /* \"@openzeppelin/contracts/security/ReentrancyGuard.sol\":2303:2323  _nonReentrantAfter() */\n      tag_164\n        /* \"@openzeppelin/contracts/security/ReentrancyGuard.sol\":2303:2321  _nonReentrantAfter */\n      tag_118\n        /* \"@openzeppelin/contracts/security/ReentrancyGuard.sol\":2303:2323  _nonReentrantAfter() */\n      jump\t// in\n    tag_164:\n        /* \"contracts/VickreyAuction.sol\":3446:3888  function confirmDelivery() external onlyOwner nonReentrant {... */\n      jump\t// out\n        /* \"contracts/VickreyAuction.sol\":521:556  mapping(address => Bid) public bids */\n    tag_47:\n      mstore(0x20, 0x07)\n      dup1\n      0x00\n      mstore\n      keccak256(0x00, 0x40)\n      0x00\n      swap2\n      pop\n      swap1\n      pop\n      dup1\n      0x00\n      add\n      sload\n      swap1\n      dup1\n      0x01\n      add\n      sload\n      swap1\n      dup1\n      0x02\n      add\n      sload\n      swap1\n      pop\n      dup4\n      jump\t// out\n        /* \"contracts/VickreyAuction.sol\":196:217  uint public startTime */\n    tag_52:\n      sload(0x02)\n      dup2\n      jump\t// out\n        /* \"contracts/VickreyAuction.sol\":332:356  bool public auctionEnded */\n    tag_56:\n      0x06\n      0x14\n      swap1\n      sload\n      swap1\n      0x0100\n      exp\n      swap1\n      div\n      0xff\n      and\n      dup2\n      jump\t// out\n        /* \"contracts/VickreyAuction.sol\":170:190  address public owner */\n    tag_61:\n      0x01\n      0x00\n      swap1\n      sload\n      swap1\n      0x0100\n      exp\n      swap1\n      div\n      0xffffffffffffffffffffffffffffffffffffffff\n      and\n      dup2\n      jump\t// out\n        /* \"contracts/VickreyAuction.sol\":362:391  bool public deliveryConfirmed */\n    tag_65:\n      0x06\n      0x15\n      swap1\n      sload\n      swap1\n      0x0100\n      exp\n      swap1\n      div\n      0xff\n      and\n      dup2\n      jump\t// out\n        /* \"contracts/VickreyAuction.sol\":4337:4656  function getBids() external view onlyOwner returns (address[] memory, uint[] memory) {... */\n    tag_69:\n        /* \"contracts/VickreyAuction.sol\":4389:4405  address[] memory */\n      0x60\n        /* \"contracts/VickreyAuction.sol\":4407:4420  uint[] memory */\n      dup1\n        /* \"contracts/VickreyAuction.sol\":907:912  owner */\n      0x01\n      0x00\n      swap1\n      sload\n      swap1\n      0x0100\n      exp\n      swap1\n      div\n      0xffffffffffffffffffffffffffffffffffffffff\n      and\n        /* \"contracts/VickreyAuction.sol\":893:912  msg.sender == owner */\n      0xffffffffffffffffffffffffffffffffffffffff\n      and\n        /* \"contracts/VickreyAuction.sol\":893:903  msg.sender */\n      caller\n        /* \"contracts/VickreyAuction.sol\":893:912  msg.sender == owner */\n      0xffffffffffffffffffffffffffffffffffffffff\n      and\n      eq\n        /* \"contracts/VickreyAuction.sol\":885:941  require(msg.sender == owner, \"Only owner can call this\") */\n      tag_166\n      jumpi\n      mload(0x40)\n      0x08c379a000000000000000000000000000000000000000000000000000000000\n      dup2\n      mstore\n      0x04\n      add\n      tag_167\n      swap1\n      tag_99\n      jump\t// in\n    tag_167:\n      mload(0x40)\n      dup1\n      swap2\n      sub\n      swap1\n      revert\n    tag_166:\n        /* \"contracts/VickreyAuction.sol\":4432:4453  uint[] memory amounts */\n      0x00\n        /* \"contracts/VickreyAuction.sol\":4467:4479  participants */\n      0x08\n        /* \"contracts/VickreyAuction.sol\":4467:4486  participants.length */\n      dup1\n      sload\n      swap1\n      pop\n        /* \"contracts/VickreyAuction.sol\":4456:4487  new uint[](participants.length) */\n      0xffffffffffffffff\n      dup2\n      gt\n      iszero\n      tag_169\n      jumpi\n      tag_170\n      tag_171\n      jump\t// in\n    tag_170:\n    tag_169:\n      mload(0x40)\n      swap1\n      dup1\n      dup3\n      mstore\n      dup1\n      0x20\n      mul\n      0x20\n      add\n      dup3\n      add\n      0x40\n      mstore\n      dup1\n      iszero\n      tag_172\n      jumpi\n      dup2\n      0x20\n      add\n      0x20\n      dup3\n      mul\n      dup1\n      calldatasize\n      dup4\n      calldatacopy\n      dup1\n      dup3\n      add\n      swap2\n      pop\n      pop\n      swap1\n      pop\n    tag_172:\n      pop\n        /* \"contracts/VickreyAuction.sol\":4432:4487  uint[] memory amounts = new uint[](participants.length) */\n      swap1\n      pop\n        /* \"contracts/VickreyAuction.sol\":4502:4508  uint i */\n      0x00\n        /* \"contracts/VickreyAuction.sol\":4511:4512  0 */\n      0x00\n        /* \"contracts/VickreyAuction.sol\":4502:4512  uint i = 0 */\n      swap1\n      pop\n        /* \"contracts/VickreyAuction.sol\":4497:4610  for (uint i = 0; i < participants.length; i++) {... */\n    tag_173:\n        /* \"contracts/VickreyAuction.sol\":4518:4530  participants */\n      0x08\n        /* \"contracts/VickreyAuction.sol\":4518:4537  participants.length */\n      dup1\n      sload\n      swap1\n      pop\n        /* \"contracts/VickreyAuction.sol\":4514:4515  i */\n      dup2\n        /* \"contracts/VickreyAuction.sol\":4514:4537  i < participants.length */\n      lt\n        /* \"contracts/VickreyAuction.sol\":4497:4610  for (uint i = 0; i < participants.length; i++) {... */\n      iszero\n      tag_174\n      jumpi\n        /* \"contracts/VickreyAuction.sol\":4571:4575  bids */\n      0x07\n        /* \"contracts/VickreyAuction.sol\":4571:4592  bids[participants[i]] */\n      0x00\n        /* \"contracts/VickreyAuction.sol\":4576:4588  participants */\n      0x08\n        /* \"contracts/VickreyAuction.sol\":4589:4590  i */\n      dup4\n        /* \"contracts/VickreyAuction.sol\":4576:4591  participants[i] */\n      dup2\n      sload\n      dup2\n      lt\n      tag_176\n      jumpi\n      tag_177\n      tag_178\n      jump\t// in\n    tag_177:\n    tag_176:\n      swap1\n      0x00\n      mstore\n      keccak256(0x00, 0x20)\n      add\n      0x00\n      swap1\n      sload\n      swap1\n      0x0100\n      exp\n      swap1\n      div\n      0xffffffffffffffffffffffffffffffffffffffff\n      and\n        /* \"contracts/VickreyAuction.sol\":4571:4592  bids[participants[i]] */\n      0xffffffffffffffffffffffffffffffffffffffff\n      and\n      0xffffffffffffffffffffffffffffffffffffffff\n      and\n      dup2\n      mstore\n      0x20\n      add\n      swap1\n      dup2\n      mstore\n      0x20\n      add\n      0x00\n      keccak256\n        /* \"contracts/VickreyAuction.sol\":4571:4599  bids[participants[i]].amount */\n      0x00\n      add\n      sload\n        /* \"contracts/VickreyAuction.sol\":4558:4565  amounts */\n      dup3\n        /* \"contracts/VickreyAuction.sol\":4566:4567  i */\n      dup3\n        /* \"contracts/VickreyAuction.sol\":4558:4568  amounts[i] */\n      dup2\n      mload\n      dup2\n      lt\n      tag_180\n      jumpi\n      tag_181\n      tag_178\n      jump\t// in\n    tag_181:\n    tag_180:\n      0x20\n      mul\n      0x20\n      add\n      add\n        /* \"contracts/VickreyAuction.sol\":4558:4599  amounts[i] = bids[participants[i]].amount */\n      dup2\n      dup2\n      mstore\n      pop\n      pop\n        /* \"contracts/VickreyAuction.sol\":4539:4542  i++ */\n      dup1\n      dup1\n      0x01\n      add\n      swap2\n      pop\n      pop\n        /* \"contracts/VickreyAuction.sol\":4497:4610  for (uint i = 0; i < participants.length; i++) {... */\n      jump(tag_173)\n    tag_174:\n      pop\n        /* \"contracts/VickreyAuction.sol\":4627:4639  participants */\n      0x08\n        /* \"contracts/VickreyAuction.sol\":4641:4648  amounts */\n      dup2\n        /* \"contracts/VickreyAuction.sol\":4619:4649  return (participants, amounts) */\n      dup2\n      dup1\n      sload\n      dup1\n      0x20\n      mul\n      0x20\n      add\n      mload(0x40)\n      swap1\n      dup2\n      add\n      0x40\n      mstore\n      dup1\n      swap3\n      swap2\n      swap1\n      dup2\n      dup2\n      mstore\n      0x20\n      add\n      dup3\n      dup1\n      sload\n      dup1\n      iszero\n      tag_182\n      jumpi\n      0x20\n      mul\n      dup3\n      add\n      swap2\n      swap1\n      0x00\n      mstore\n      keccak256(0x00, 0x20)\n      swap1\n    tag_183:\n      dup2\n      0x00\n      swap1\n      sload\n      swap1\n      0x0100\n      exp\n      swap1\n      div\n      0xffffffffffffffffffffffffffffffffffffffff\n      and\n      0xffffffffffffffffffffffffffffffffffffffff\n      and\n      dup2\n      mstore\n      0x20\n      add\n      swap1\n      0x01\n      add\n      swap1\n      dup1\n      dup4\n      gt\n      tag_183\n      jumpi\n    tag_182:\n      pop\n      pop\n      pop\n      pop\n      pop\n      swap2\n      pop\n      swap3\n      pop\n      swap3\n      pop\n      pop\n        /* \"contracts/VickreyAuction.sol\":4337:4656  function getBids() external view onlyOwner returns (address[] memory, uint[] memory) {... */\n      swap1\n      swap2\n      jump\t// out\n        /* \"contracts/VickreyAuction.sol\":274:299  uint public paymentAmount */\n    tag_74:\n      sload(0x05)\n      dup2\n      jump\t// out\n        /* \"contracts/VickreyAuction.sol\":305:326  address public winner */\n    tag_78:\n      0x06\n      0x00\n      swap1\n      sload\n      swap1\n      0x0100\n      exp\n      swap1\n      div\n      0xffffffffffffffffffffffffffffffffffffffff\n      and\n      dup2\n      jump\t// out\n        /* \"contracts/VickreyAuction.sol\":248:268  uint public maxPrice */\n    tag_82:\n      sload(0x04)\n      dup2\n      jump\t// out\n        /* \"contracts/VickreyAuction.sol\":4662:5099  function withdrawRemaining() external onlyOwner nonReentrant {... */\n    tag_86:\n        /* \"contracts/VickreyAuction.sol\":907:912  owner */\n      0x01\n      0x00\n      swap1\n      sload\n      swap1\n      0x0100\n      exp\n      swap1\n      div\n      0xffffffffffffffffffffffffffffffffffffffff\n      and\n        /* \"contracts/VickreyAuction.sol\":893:912  msg.sender == owner */\n      0xffffffffffffffffffffffffffffffffffffffff\n      and\n        /* \"contracts/VickreyAuction.sol\":893:903  msg.sender */\n      caller\n        /* \"contracts/VickreyAuction.sol\":893:912  msg.sender == owner */\n      0xffffffffffffffffffffffffffffffffffffffff\n      and\n      eq\n        /* \"contracts/VickreyAuction.sol\":885:941  require(msg.sender == owner, \"Only owner can call this\") */\n      tag_185\n      jumpi\n      mload(0x40)\n      0x08c379a000000000000000000000000000000000000000000000000000000000\n      dup2\n      mstore\n      0x04\n      add\n      tag_186\n      swap1\n      tag_99\n      jump\t// in\n    tag_186:\n      mload(0x40)\n      dup1\n      swap2\n      sub\n      swap1\n      revert\n    tag_185:\n        /* \"@openzeppelin/contracts/security/ReentrancyGuard.sol\":2261:2282  _nonReentrantBefore() */\n      tag_188\n        /* \"@openzeppelin/contracts/security/ReentrancyGuard.sol\":2261:2280  _nonReentrantBefore */\n      tag_102\n        /* \"@openzeppelin/contracts/security/ReentrancyGuard.sol\":2261:2282  _nonReentrantBefore() */\n      jump\t// in\n    tag_188:\n        /* \"contracts/VickreyAuction.sol\":4741:4753  auctionEnded */\n      0x06\n      0x14\n      swap1\n      sload\n      swap1\n      0x0100\n      exp\n      swap1\n      div\n      0xff\n      and\n        /* \"contracts/VickreyAuction.sol\":4733:4783  require(auctionEnded, \"Auction must be finalized\") */\n      tag_190\n      jumpi\n      mload(0x40)\n      0x08c379a000000000000000000000000000000000000000000000000000000000\n      dup2\n      mstore\n      0x04\n      add\n      tag_191\n      swap1\n      tag_192\n      jump\t// in\n    tag_191:\n      mload(0x40)\n      dup1\n      swap2\n      sub\n      swap1\n      revert\n    tag_190:\n        /* \"contracts/VickreyAuction.sol\":4825:4826  0 */\n      0x00\n        /* \"contracts/VickreyAuction.sol\":4801:4822  address(this).balance */\n      selfbalance\n        /* \"contracts/VickreyAuction.sol\":4801:4826  address(this).balance > 0 */\n      gt\n        /* \"contracts/VickreyAuction.sol\":4793:4849  require(address(this).balance > 0, \"No funds available\") */\n      tag_193\n      jumpi\n      mload(0x40)\n      0x08c379a000000000000000000000000000000000000000000000000000000000\n      dup2\n      mstore\n      0x04\n      add\n      tag_194\n      swap1\n      tag_195\n      jump\t// in\n    tag_194:\n      mload(0x40)\n      dup1\n      swap2\n      sub\n      swap1\n      revert\n    tag_193:\n        /* \"contracts/VickreyAuction.sol\":4885:4886  0 */\n      0x00\n        /* \"contracts/VickreyAuction.sol\":4867:4887  winner == address(0) */\n      0xffffffffffffffffffffffffffffffffffffffff\n      and\n        /* \"contracts/VickreyAuction.sol\":4867:4873  winner */\n      0x06\n      0x00\n      swap1\n      sload\n      swap1\n      0x0100\n      exp\n      swap1\n      div\n      0xffffffffffffffffffffffffffffffffffffffff\n      and\n        /* \"contracts/VickreyAuction.sol\":4867:4887  winner == address(0) */\n      0xffffffffffffffffffffffffffffffffffffffff\n      and\n      eq\n        /* \"contracts/VickreyAuction.sol\":4867:4908  winner == address(0) || deliveryConfirmed */\n      dup1\n      tag_196\n      jumpi\n      pop\n        /* \"contracts/VickreyAuction.sol\":4891:4908  deliveryConfirmed */\n      0x06\n      0x15\n      swap1\n      sload\n      swap1\n      0x0100\n      exp\n      swap1\n      div\n      0xff\n      and\n        /* \"contracts/VickreyAuction.sol\":4867:4908  winner == address(0) || deliveryConfirmed */\n    tag_196:\n        /* \"contracts/VickreyAuction.sol\":4867:4926  winner == address(0) || deliveryConfirmed || deliveryFailed */\n      dup1\n      tag_197\n      jumpi\n      pop\n        /* \"contracts/VickreyAuction.sol\":4912:4926  deliveryFailed */\n      0x06\n      0x16\n      swap1\n      sload\n      swap1\n      0x0100\n      exp\n      swap1\n      div\n      0xff\n      and\n        /* \"contracts/VickreyAuction.sol\":4867:4926  winner == address(0) || deliveryConfirmed || deliveryFailed */\n    tag_197:\n        /* \"contracts/VickreyAuction.sol\":4859:4961  require(winner == address(0) || deliveryConfirmed || deliveryFailed, \"Awaiting delivery confirmation\") */\n      tag_198\n      jumpi\n      mload(0x40)\n      0x08c379a000000000000000000000000000000000000000000000000000000000\n      dup2\n      mstore\n      0x04\n      add\n      tag_199\n      swap1\n      tag_200\n      jump\t// in\n    tag_199:\n      mload(0x40)\n      dup1\n      swap2\n      sub\n      swap1\n      revert\n    tag_198:\n        /* \"contracts/VickreyAuction.sol\":4972:4983  uint amount */\n      0x00\n        /* \"contracts/VickreyAuction.sol\":4986:5007  address(this).balance */\n      selfbalance\n        /* \"contracts/VickreyAuction.sol\":4972:5007  uint amount = address(this).balance */\n      swap1\n      pop\n        /* \"contracts/VickreyAuction.sol\":5025:5030  owner */\n      0x01\n      0x00\n      swap1\n      sload\n      swap1\n      0x0100\n      exp\n      swap1\n      div\n      0xffffffffffffffffffffffffffffffffffffffff\n      and\n        /* \"contracts/VickreyAuction.sol\":5017:5040  payable(owner).transfer */\n      0xffffffffffffffffffffffffffffffffffffffff\n      and\n        /* \"contracts/VickreyAuction.sol\":5017:5048  payable(owner).transfer(amount) */\n      0x08fc\n        /* \"contracts/VickreyAuction.sol\":5041:5047  amount */\n      dup3\n        /* \"contracts/VickreyAuction.sol\":5017:5048  payable(owner).transfer(amount) */\n      swap1\n      dup2\n      iszero\n      mul\n      swap1\n      mload(0x40)\n      0x00\n      mload(0x40)\n      dup1\n      dup4\n      sub\n      dup2\n      dup6\n      dup9\n      dup9\n      call\n      swap4\n      pop\n      pop\n      pop\n      pop\n      iszero\n      dup1\n      iszero\n      tag_202\n      jumpi\n      returndatacopy(0x00, 0x00, returndatasize)\n      revert(0x00, returndatasize)\n    tag_202:\n      pop\n        /* \"contracts/VickreyAuction.sol\":5063:5092  FundsWithdrawn(owner, amount) */\n      0xeaff4b37086828766ad3268786972c0cd24259d4c87a80f9d3963a3c3d999b0d\n        /* \"contracts/VickreyAuction.sol\":5078:5083  owner */\n      0x01\n      0x00\n      swap1\n      sload\n      swap1\n      0x0100\n      exp\n      swap1\n      div\n      0xffffffffffffffffffffffffffffffffffffffff\n      and\n        /* \"contracts/VickreyAuction.sol\":5085:5091  amount */\n      dup3\n        /* \"contracts/VickreyAuction.sol\":5063:5092  FundsWithdrawn(owner, amount) */\n      mload(0x40)\n      tag_203\n      swap3\n      swap2\n      swap1\n      tag_204\n      jump\t// in\n    tag_203:\n      mload(0x40)\n      dup1\n      swap2\n      sub\n      swap1\n      log1\n        /* \"contracts/VickreyAuction.sol\":4723:5099  {... */\n      pop\n        /* \"@openzeppelin/contracts/security/ReentrancyGuard.sol\":2303:2323  _nonReentrantAfter() */\n      tag_205\n        /* \"@openzeppelin/contracts/security/ReentrancyGuard.sol\":2303:2321  _nonReentrantAfter */\n      tag_118\n        /* \"@openzeppelin/contracts/security/ReentrancyGuard.sol\":2303:2323  _nonReentrantAfter() */\n      jump\t// in\n    tag_205:\n        /* \"contracts/VickreyAuction.sol\":4662:5099  function withdrawRemaining() external onlyOwner nonReentrant {... */\n      jump\t// out\n        /* \"contracts/VickreyAuction.sol\":397:423  bool public deliveryFailed */\n    tag_89:\n      0x06\n      0x16\n      swap1\n      sload\n      swap1\n      0x0100\n      exp\n      swap1\n      div\n      0xff\n      and\n      dup2\n      jump\t// out\n        /* \"contracts/VickreyAuction.sol\":2041:3440  function finalizeAuction() external onlyOwner nonReentrant {... */\n    tag_93:\n        /* \"contracts/VickreyAuction.sol\":907:912  owner */\n      0x01\n      0x00\n      swap1\n      sload\n      swap1\n      0x0100\n      exp\n      swap1\n      div\n      0xffffffffffffffffffffffffffffffffffffffff\n      and\n        /* \"contracts/VickreyAuction.sol\":893:912  msg.sender == owner */\n      0xffffffffffffffffffffffffffffffffffffffff\n      and\n        /* \"contracts/VickreyAuction.sol\":893:903  msg.sender */\n      caller\n        /* \"contracts/VickreyAuction.sol\":893:912  msg.sender == owner */\n      0xffffffffffffffffffffffffffffffffffffffff\n      and\n      eq\n        /* \"contracts/VickreyAuction.sol\":885:941  require(msg.sender == owner, \"Only owner can call this\") */\n      tag_207\n      jumpi\n      mload(0x40)\n      0x08c379a000000000000000000000000000000000000000000000000000000000\n      dup2\n      mstore\n      0x04\n      add\n      tag_208\n      swap1\n      tag_99\n      jump\t// in\n    tag_208:\n      mload(0x40)\n      dup1\n      swap2\n      sub\n      swap1\n      revert\n    tag_207:\n        /* \"@openzeppelin/contracts/security/ReentrancyGuard.sol\":2261:2282  _nonReentrantBefore() */\n      tag_210\n        /* \"@openzeppelin/contracts/security/ReentrancyGuard.sol\":2261:2280  _nonReentrantBefore */\n      tag_102\n        /* \"@openzeppelin/contracts/security/ReentrancyGuard.sol\":2261:2282  _nonReentrantBefore() */\n      jump\t// in\n    tag_210:\n        /* \"contracts/VickreyAuction.sol\":2136:2143  endTime */\n      sload(0x03)\n        /* \"contracts/VickreyAuction.sol\":2118:2133  block.timestamp */\n      timestamp\n        /* \"contracts/VickreyAuction.sol\":2118:2143  block.timestamp > endTime */\n      gt\n        /* \"contracts/VickreyAuction.sol\":2118:2172  block.timestamp > endTime || participants.length >= 30 */\n      dup1\n      tag_212\n      jumpi\n      pop\n        /* \"contracts/VickreyAuction.sol\":2170:2172  30 */\n      0x1e\n        /* \"contracts/VickreyAuction.sol\":2147:2159  participants */\n      0x08\n        /* \"contracts/VickreyAuction.sol\":2147:2166  participants.length */\n      dup1\n      sload\n      swap1\n      pop\n        /* \"contracts/VickreyAuction.sol\":2147:2172  participants.length >= 30 */\n      lt\n      iszero\n        /* \"contracts/VickreyAuction.sol\":2118:2172  block.timestamp > endTime || participants.length >= 30 */\n    tag_212:\n        /* \"contracts/VickreyAuction.sol\":2110:2197  require(block.timestamp > endTime || participants.length >= 30, \"Auction still active\") */\n      tag_213\n      jumpi\n      mload(0x40)\n      0x08c379a000000000000000000000000000000000000000000000000000000000\n      dup2\n      mstore\n      0x04\n      add\n      tag_214\n      swap1\n      tag_215\n      jump\t// in\n    tag_214:\n      mload(0x40)\n      dup1\n      swap2\n      sub\n      swap1\n      revert\n    tag_213:\n        /* \"contracts/VickreyAuction.sol\":2216:2228  auctionEnded */\n      0x06\n      0x14\n      swap1\n      sload\n      swap1\n      0x0100\n      exp\n      swap1\n      div\n      0xff\n      and\n        /* \"contracts/VickreyAuction.sol\":2215:2228  !auctionEnded */\n      iszero\n        /* \"contracts/VickreyAuction.sol\":2207:2258  require(!auctionEnded, \"Auction already finalized\") */\n      tag_216\n      jumpi\n      mload(0x40)\n      0x08c379a000000000000000000000000000000000000000000000000000000000\n      dup2\n      mstore\n      0x04\n      add\n      tag_217\n      swap1\n      tag_218\n      jump\t// in\n    tag_217:\n      mload(0x40)\n      dup1\n      swap2\n      sub\n      swap1\n      revert\n    tag_216:\n        /* \"contracts/VickreyAuction.sol\":2284:2288  true */\n      0x01\n        /* \"contracts/VickreyAuction.sol\":2269:2281  auctionEnded */\n      0x06\n      0x14\n        /* \"contracts/VickreyAuction.sol\":2269:2288  auctionEnded = true */\n      0x0100\n      exp\n      dup2\n      sload\n      dup2\n      0xff\n      mul\n      not\n      and\n      swap1\n      dup4\n      iszero\n      iszero\n      mul\n      or\n      swap1\n      sstore\n      pop\n        /* \"contracts/VickreyAuction.sol\":2325:2326  0 */\n      0x00\n        /* \"contracts/VickreyAuction.sol\":2302:2314  participants */\n      0x08\n        /* \"contracts/VickreyAuction.sol\":2302:2321  participants.length */\n      dup1\n      sload\n      swap1\n      pop\n        /* \"contracts/VickreyAuction.sol\":2302:2326  participants.length == 0 */\n      sub\n        /* \"contracts/VickreyAuction.sol\":2298:2335  if (participants.length == 0) return; */\n      iszero\n        /* \"contracts/VickreyAuction.sol\":2328:2335  return; */\n      tag_211\n        /* \"contracts/VickreyAuction.sol\":2298:2335  if (participants.length == 0) return; */\n      jumpi\n        /* \"contracts/VickreyAuction.sol\":2391:2414  address[] memory sorted */\n      0x00\n        /* \"contracts/VickreyAuction.sol\":2417:2429  participants */\n      0x08\n        /* \"contracts/VickreyAuction.sol\":2391:2429  address[] memory sorted = participants */\n      dup1\n      sload\n      dup1\n      0x20\n      mul\n      0x20\n      add\n      mload(0x40)\n      swap1\n      dup2\n      add\n      0x40\n      mstore\n      dup1\n      swap3\n      swap2\n      swap1\n      dup2\n      dup2\n      mstore\n      0x20\n      add\n      dup3\n      dup1\n      sload\n      dup1\n      iszero\n      tag_220\n      jumpi\n      0x20\n      mul\n      dup3\n      add\n      swap2\n      swap1\n      0x00\n      mstore\n      keccak256(0x00, 0x20)\n      swap1\n    tag_221:\n      dup2\n      0x00\n      swap1\n      sload\n      swap1\n      0x0100\n      exp\n      swap1\n      div\n      0xffffffffffffffffffffffffffffffffffffffff\n      and\n      0xffffffffffffffffffffffffffffffffffffffff\n      and\n      dup2\n      mstore\n      0x20\n      add\n      swap1\n      0x01\n      add\n      swap1\n      dup1\n      dup4\n      gt\n      tag_221\n      jumpi\n    tag_220:\n      pop\n      pop\n      pop\n      pop\n      pop\n      swap1\n      pop\n        /* \"contracts/VickreyAuction.sol\":2444:2450  uint i */\n      0x00\n        /* \"contracts/VickreyAuction.sol\":2453:2454  0 */\n      0x00\n        /* \"contracts/VickreyAuction.sol\":2444:2454  uint i = 0 */\n      swap1\n      pop\n        /* \"contracts/VickreyAuction.sol\":2439:2849  for (uint i = 0; i < sorted.length - 1; i++) {... */\n    tag_222:\n        /* \"contracts/VickreyAuction.sol\":2476:2477  1 */\n      0x01\n        /* \"contracts/VickreyAuction.sol\":2460:2466  sorted */\n      dup3\n        /* \"contracts/VickreyAuction.sol\":2460:2473  sorted.length */\n      mload\n        /* \"contracts/VickreyAuction.sol\":2460:2477  sorted.length - 1 */\n      tag_225\n      swap2\n      swap1\n      tag_226\n      jump\t// in\n    tag_225:\n        /* \"contracts/VickreyAuction.sol\":2456:2457  i */\n      dup2\n        /* \"contracts/VickreyAuction.sol\":2456:2477  i < sorted.length - 1 */\n      lt\n        /* \"contracts/VickreyAuction.sol\":2439:2849  for (uint i = 0; i < sorted.length - 1; i++) {... */\n      iszero\n      tag_223\n      jumpi\n        /* \"contracts/VickreyAuction.sol\":2503:2509  uint j */\n      0x00\n        /* \"contracts/VickreyAuction.sol\":2516:2517  1 */\n      0x01\n        /* \"contracts/VickreyAuction.sol\":2512:2513  i */\n      dup3\n        /* \"contracts/VickreyAuction.sol\":2512:2517  i + 1 */\n      tag_230\n      swap2\n      swap1\n      tag_112\n      jump\t// in\n    tag_230:\n        /* \"contracts/VickreyAuction.sol\":2503:2517  uint j = i + 1 */\n      swap1\n      pop\n        /* \"contracts/VickreyAuction.sol\":2498:2839  for (uint j = i + 1; j < sorted.length; j++) {... */\n    tag_227:\n        /* \"contracts/VickreyAuction.sol\":2523:2529  sorted */\n      dup3\n        /* \"contracts/VickreyAuction.sol\":2523:2536  sorted.length */\n      mload\n        /* \"contracts/VickreyAuction.sol\":2519:2520  j */\n      dup2\n        /* \"contracts/VickreyAuction.sol\":2519:2536  j < sorted.length */\n      lt\n        /* \"contracts/VickreyAuction.sol\":2498:2839  for (uint j = i + 1; j < sorted.length; j++) {... */\n      iszero\n      tag_228\n      jumpi\n        /* \"contracts/VickreyAuction.sol\":2561:2573  Bid memory a */\n      0x00\n        /* \"contracts/VickreyAuction.sol\":2576:2580  bids */\n      0x07\n        /* \"contracts/VickreyAuction.sol\":2576:2591  bids[sorted[i]] */\n      0x00\n        /* \"contracts/VickreyAuction.sol\":2581:2587  sorted */\n      dup6\n        /* \"contracts/VickreyAuction.sol\":2588:2589  i */\n      dup6\n        /* \"contracts/VickreyAuction.sol\":2581:2590  sorted[i] */\n      dup2\n      mload\n      dup2\n      lt\n      tag_231\n      jumpi\n      tag_232\n      tag_178\n      jump\t// in\n    tag_232:\n    tag_231:\n      0x20\n      mul\n      0x20\n      add\n      add\n      mload\n        /* \"contracts/VickreyAuction.sol\":2576:2591  bids[sorted[i]] */\n      0xffffffffffffffffffffffffffffffffffffffff\n      and\n      0xffffffffffffffffffffffffffffffffffffffff\n      and\n      dup2\n      mstore\n      0x20\n      add\n      swap1\n      dup2\n      mstore\n      0x20\n      add\n      0x00\n      keccak256\n        /* \"contracts/VickreyAuction.sol\":2561:2591  Bid memory a = bids[sorted[i]] */\n      mload(0x40)\n      dup1\n      0x60\n      add\n      0x40\n      mstore\n      swap1\n      dup2\n      0x00\n      dup3\n      add\n      sload\n      dup2\n      mstore\n      0x20\n      add\n      0x01\n      dup3\n      add\n      sload\n      dup2\n      mstore\n      0x20\n      add\n      0x02\n      dup3\n      add\n      sload\n      dup2\n      mstore\n      pop\n      pop\n      swap1\n      pop\n        /* \"contracts/VickreyAuction.sol\":2609:2621  Bid memory b */\n      0x00\n        /* \"contracts/VickreyAuction.sol\":2624:2628  bids */\n      0x07\n        /* \"contracts/VickreyAuction.sol\":2624:2639  bids[sorted[j]] */\n      0x00\n        /* \"contracts/VickreyAuction.sol\":2629:2635  sorted */\n      dup7\n        /* \"contracts/VickreyAuction.sol\":2636:2637  j */\n      dup6\n        /* \"contracts/VickreyAuction.sol\":2629:2638  sorted[j] */\n      dup2\n      mload\n      dup2\n      lt\n      tag_233\n      jumpi\n      tag_234\n      tag_178\n      jump\t// in\n    tag_234:\n    tag_233:\n      0x20\n      mul\n      0x20\n      add\n      add\n      mload\n        /* \"contracts/VickreyAuction.sol\":2624:2639  bids[sorted[j]] */\n      0xffffffffffffffffffffffffffffffffffffffff\n      and\n      0xffffffffffffffffffffffffffffffffffffffff\n      and\n      dup2\n      mstore\n      0x20\n      add\n      swap1\n      dup2\n      mstore\n      0x20\n      add\n      0x00\n      keccak256\n        /* \"contracts/VickreyAuction.sol\":2609:2639  Bid memory b = bids[sorted[j]] */\n      mload(0x40)\n      dup1\n      0x60\n      add\n      0x40\n      mstore\n      swap1\n      dup2\n      0x00\n      dup3\n      add\n      sload\n      dup2\n      mstore\n      0x20\n      add\n      0x01\n      dup3\n      add\n      sload\n      dup2\n      mstore\n      0x20\n      add\n      0x02\n      dup3\n      add\n      sload\n      dup2\n      mstore\n      pop\n      pop\n      swap1\n      pop\n        /* \"contracts/VickreyAuction.sol\":2672:2673  b */\n      dup1\n        /* \"contracts/VickreyAuction.sol\":2672:2680  b.amount */\n      0x00\n      add\n      mload\n        /* \"contracts/VickreyAuction.sol\":2661:2662  a */\n      dup3\n        /* \"contracts/VickreyAuction.sol\":2661:2669  a.amount */\n      0x00\n      add\n      mload\n        /* \"contracts/VickreyAuction.sol\":2661:2680  a.amount > b.amount */\n      gt\n        /* \"contracts/VickreyAuction.sol\":2661:2735  a.amount > b.amount || (a.amount == b.amount && a.timestamp > b.timestamp) */\n      dup1\n      tag_235\n      jumpi\n      pop\n        /* \"contracts/VickreyAuction.sol\":2697:2698  b */\n      dup1\n        /* \"contracts/VickreyAuction.sol\":2697:2705  b.amount */\n      0x00\n      add\n      mload\n        /* \"contracts/VickreyAuction.sol\":2685:2686  a */\n      dup3\n        /* \"contracts/VickreyAuction.sol\":2685:2693  a.amount */\n      0x00\n      add\n      mload\n        /* \"contracts/VickreyAuction.sol\":2685:2705  a.amount == b.amount */\n      eq\n        /* \"contracts/VickreyAuction.sol\":2685:2734  a.amount == b.amount && a.timestamp > b.timestamp */\n      dup1\n      iszero\n      tag_236\n      jumpi\n      pop\n        /* \"contracts/VickreyAuction.sol\":2723:2724  b */\n      dup1\n        /* \"contracts/VickreyAuction.sol\":2723:2734  b.timestamp */\n      0x40\n      add\n      mload\n        /* \"contracts/VickreyAuction.sol\":2709:2710  a */\n      dup3\n        /* \"contracts/VickreyAuction.sol\":2709:2720  a.timestamp */\n      0x40\n      add\n      mload\n        /* \"contracts/VickreyAuction.sol\":2709:2734  a.timestamp > b.timestamp */\n      gt\n        /* \"contracts/VickreyAuction.sol\":2685:2734  a.amount == b.amount && a.timestamp > b.timestamp */\n    tag_236:\n        /* \"contracts/VickreyAuction.sol\":2661:2735  a.amount > b.amount || (a.amount == b.amount && a.timestamp > b.timestamp) */\n    tag_235:\n        /* \"contracts/VickreyAuction.sol\":2657:2825  if (a.amount > b.amount || (a.amount == b.amount && a.timestamp > b.timestamp)) {... */\n      iszero\n      tag_237\n      jumpi\n        /* \"contracts/VickreyAuction.sol\":2785:2791  sorted */\n      dup5\n        /* \"contracts/VickreyAuction.sol\":2792:2793  j */\n      dup4\n        /* \"contracts/VickreyAuction.sol\":2785:2794  sorted[j] */\n      dup2\n      mload\n      dup2\n      lt\n      tag_238\n      jumpi\n      tag_239\n      tag_178\n      jump\t// in\n    tag_239:\n    tag_238:\n      0x20\n      mul\n      0x20\n      add\n      add\n      mload\n        /* \"contracts/VickreyAuction.sol\":2796:2802  sorted */\n      dup6\n        /* \"contracts/VickreyAuction.sol\":2803:2804  i */\n      dup6\n        /* \"contracts/VickreyAuction.sol\":2796:2805  sorted[i] */\n      dup2\n      mload\n      dup2\n      lt\n      tag_240\n      jumpi\n      tag_241\n      tag_178\n      jump\t// in\n    tag_241:\n    tag_240:\n      0x20\n      mul\n      0x20\n      add\n      add\n      mload\n        /* \"contracts/VickreyAuction.sol\":2760:2766  sorted */\n      dup7\n        /* \"contracts/VickreyAuction.sol\":2767:2768  i */\n      dup7\n        /* \"contracts/VickreyAuction.sol\":2760:2769  sorted[i] */\n      dup2\n      mload\n      dup2\n      lt\n      tag_242\n      jumpi\n      tag_243\n      tag_178\n      jump\t// in\n    tag_243:\n    tag_242:\n      0x20\n      mul\n      0x20\n      add\n      add\n        /* \"contracts/VickreyAuction.sol\":2771:2777  sorted */\n      dup8\n        /* \"contracts/VickreyAuction.sol\":2778:2779  j */\n      dup7\n        /* \"contracts/VickreyAuction.sol\":2771:2780  sorted[j] */\n      dup2\n      mload\n      dup2\n      lt\n      tag_244\n      jumpi\n      tag_245\n      tag_178\n      jump\t// in\n    tag_245:\n    tag_244:\n      0x20\n      mul\n      0x20\n      add\n      add\n        /* \"contracts/VickreyAuction.sol\":2759:2806  (sorted[i], sorted[j]) = (sorted[j], sorted[i]) */\n      dup3\n      0xffffffffffffffffffffffffffffffffffffffff\n      and\n      0xffffffffffffffffffffffffffffffffffffffff\n      and\n      dup2\n      mstore\n      pop\n      dup3\n      0xffffffffffffffffffffffffffffffffffffffff\n      and\n      0xffffffffffffffffffffffffffffffffffffffff\n      and\n      dup2\n      mstore\n      pop\n      pop\n      pop\n        /* \"contracts/VickreyAuction.sol\":2657:2825  if (a.amount > b.amount || (a.amount == b.amount && a.timestamp > b.timestamp)) {... */\n    tag_237:\n        /* \"contracts/VickreyAuction.sol\":2543:2839  {... */\n      pop\n      pop\n        /* \"contracts/VickreyAuction.sol\":2538:2541  j++ */\n      dup1\n      dup1\n      0x01\n      add\n      swap2\n      pop\n      pop\n        /* \"contracts/VickreyAuction.sol\":2498:2839  for (uint j = i + 1; j < sorted.length; j++) {... */\n      jump(tag_227)\n    tag_228:\n      pop\n        /* \"contracts/VickreyAuction.sol\":2479:2482  i++ */\n      dup1\n      dup1\n      0x01\n      add\n      swap2\n      pop\n      pop\n        /* \"contracts/VickreyAuction.sol\":2439:2849  for (uint i = 0; i < sorted.length - 1; i++) {... */\n      jump(tag_222)\n    tag_223:\n      pop\n        /* \"contracts/VickreyAuction.sol\":2868:2874  sorted */\n      dup1\n        /* \"contracts/VickreyAuction.sol\":2875:2876  0 */\n      0x00\n        /* \"contracts/VickreyAuction.sol\":2868:2877  sorted[0] */\n      dup2\n      mload\n      dup2\n      lt\n      tag_246\n      jumpi\n      tag_247\n      tag_178\n      jump\t// in\n    tag_247:\n    tag_246:\n      0x20\n      mul\n      0x20\n      add\n      add\n      mload\n        /* \"contracts/VickreyAuction.sol\":2859:2865  winner */\n      0x06\n      0x00\n        /* \"contracts/VickreyAuction.sol\":2859:2877  winner = sorted[0] */\n      0x0100\n      exp\n      dup2\n      sload\n      dup2\n      0xffffffffffffffffffffffffffffffffffffffff\n      mul\n      not\n      and\n      swap1\n      dup4\n      0xffffffffffffffffffffffffffffffffffffffff\n      and\n      mul\n      or\n      swap1\n      sstore\n      pop\n        /* \"contracts/VickreyAuction.sol\":2925:2926  1 */\n      0x01\n        /* \"contracts/VickreyAuction.sol\":2903:2915  participants */\n      0x08\n        /* \"contracts/VickreyAuction.sol\":2903:2922  participants.length */\n      dup1\n      sload\n      swap1\n      pop\n        /* \"contracts/VickreyAuction.sol\":2903:2926  participants.length > 1 */\n      gt\n        /* \"contracts/VickreyAuction.sol\":2903:2973  participants.length > 1 ? bids[sorted[1]].amount : bids[winner].amount */\n      tag_248\n      jumpi\n        /* \"contracts/VickreyAuction.sol\":2954:2958  bids */\n      0x07\n        /* \"contracts/VickreyAuction.sol\":2954:2966  bids[winner] */\n      0x00\n        /* \"contracts/VickreyAuction.sol\":2959:2965  winner */\n      0x06\n      0x00\n      swap1\n      sload\n      swap1\n      0x0100\n      exp\n      swap1\n      div\n      0xffffffffffffffffffffffffffffffffffffffff\n      and\n        /* \"contracts/VickreyAuction.sol\":2954:2966  bids[winner] */\n      0xffffffffffffffffffffffffffffffffffffffff\n      and\n      0xffffffffffffffffffffffffffffffffffffffff\n      and\n      dup2\n      mstore\n      0x20\n      add\n      swap1\n      dup2\n      mstore\n      0x20\n      add\n      0x00\n      keccak256\n        /* \"contracts/VickreyAuction.sol\":2954:2973  bids[winner].amount */\n      0x00\n      add\n      sload\n        /* \"contracts/VickreyAuction.sol\":2903:2973  participants.length > 1 ? bids[sorted[1]].amount : bids[winner].amount */\n      jump(tag_249)\n    tag_248:\n        /* \"contracts/VickreyAuction.sol\":2929:2933  bids */\n      0x07\n        /* \"contracts/VickreyAuction.sol\":2929:2944  bids[sorted[1]] */\n      0x00\n        /* \"contracts/VickreyAuction.sol\":2934:2940  sorted */\n      dup3\n        /* \"contracts/VickreyAuction.sol\":2941:2942  1 */\n      0x01\n        /* \"contracts/VickreyAuction.sol\":2934:2943  sorted[1] */\n      dup2\n      mload\n      dup2\n      lt\n      tag_250\n      jumpi\n      tag_251\n      tag_178\n      jump\t// in\n    tag_251:\n    tag_250:\n      0x20\n      mul\n      0x20\n      add\n      add\n      mload\n        /* \"contracts/VickreyAuction.sol\":2929:2944  bids[sorted[1]] */\n      0xffffffffffffffffffffffffffffffffffffffff\n      and\n      0xffffffffffffffffffffffffffffffffffffffff\n      and\n      dup2\n      mstore\n      0x20\n      add\n      swap1\n      dup2\n      mstore\n      0x20\n      add\n      0x00\n      keccak256\n        /* \"contracts/VickreyAuction.sol\":2929:2951  bids[sorted[1]].amount */\n      0x00\n      add\n      sload\n        /* \"contracts/VickreyAuction.sol\":2903:2973  participants.length > 1 ? bids[sorted[1]].amount : bids[winner].amount */\n    tag_249:\n        /* \"contracts/VickreyAuction.sol\":2887:2900  paymentAmount */\n      0x05\n        /* \"contracts/VickreyAuction.sol\":2887:2973  paymentAmount = participants.length > 1 ? bids[sorted[1]].amount : bids[winner].amount */\n      dup2\n      swap1\n      sstore\n      pop\n        /* \"contracts/VickreyAuction.sol\":3021:3033  participants */\n      0x08\n      0x00\n        /* \"contracts/VickreyAuction.sol\":3014:3033  delete participants */\n      tag_252\n      swap2\n      swap1\n      tag_253\n      jump\t// in\n    tag_252:\n        /* \"contracts/VickreyAuction.sol\":3074:3080  uint i */\n      0x00\n        /* \"contracts/VickreyAuction.sol\":3083:3084  0 */\n      0x00\n        /* \"contracts/VickreyAuction.sol\":3074:3084  uint i = 0 */\n      swap1\n      pop\n        /* \"contracts/VickreyAuction.sol\":3069:3379  for (uint i = 0; i < sorted.length; i++) {... */\n    tag_254:\n        /* \"contracts/VickreyAuction.sol\":3090:3096  sorted */\n      dup2\n        /* \"contracts/VickreyAuction.sol\":3090:3103  sorted.length */\n      mload\n        /* \"contracts/VickreyAuction.sol\":3086:3087  i */\n      dup2\n        /* \"contracts/VickreyAuction.sol\":3086:3103  i < sorted.length */\n      lt\n        /* \"contracts/VickreyAuction.sol\":3069:3379  for (uint i = 0; i < sorted.length; i++) {... */\n      iszero\n      tag_255\n      jumpi\n        /* \"contracts/VickreyAuction.sol\":3124:3138  address bidder */\n      0x00\n        /* \"contracts/VickreyAuction.sol\":3141:3147  sorted */\n      dup3\n        /* \"contracts/VickreyAuction.sol\":3148:3149  i */\n      dup3\n        /* \"contracts/VickreyAuction.sol\":3141:3150  sorted[i] */\n      dup2\n      mload\n      dup2\n      lt\n      tag_257\n      jumpi\n      tag_258\n      tag_178\n      jump\t// in\n    tag_258:\n    tag_257:\n      0x20\n      mul\n      0x20\n      add\n      add\n      mload\n        /* \"contracts/VickreyAuction.sol\":3124:3150  address bidder = sorted[i] */\n      swap1\n      pop\n        /* \"contracts/VickreyAuction.sol\":3178:3184  winner */\n      0x06\n      0x00\n      swap1\n      sload\n      swap1\n      0x0100\n      exp\n      swap1\n      div\n      0xffffffffffffffffffffffffffffffffffffffff\n      and\n        /* \"contracts/VickreyAuction.sol\":3168:3184  bidder != winner */\n      0xffffffffffffffffffffffffffffffffffffffff\n      and\n        /* \"contracts/VickreyAuction.sol\":3168:3174  bidder */\n      dup2\n        /* \"contracts/VickreyAuction.sol\":3168:3184  bidder != winner */\n      0xffffffffffffffffffffffffffffffffffffffff\n      and\n      eq\n        /* \"contracts/VickreyAuction.sol\":3164:3369  if (bidder != winner) {... */\n      tag_259\n      jumpi\n        /* \"contracts/VickreyAuction.sol\":3204:3216  uint deposit */\n      0x00\n        /* \"contracts/VickreyAuction.sol\":3219:3223  bids */\n      0x07\n        /* \"contracts/VickreyAuction.sol\":3219:3231  bids[bidder] */\n      0x00\n        /* \"contracts/VickreyAuction.sol\":3224:3230  bidder */\n      dup4\n        /* \"contracts/VickreyAuction.sol\":3219:3231  bids[bidder] */\n      0xffffffffffffffffffffffffffffffffffffffff\n      and\n      0xffffffffffffffffffffffffffffffffffffffff\n      and\n      dup2\n      mstore\n      0x20\n      add\n      swap1\n      dup2\n      mstore\n      0x20\n      add\n      0x00\n      keccak256\n        /* \"contracts/VickreyAuction.sol\":3219:3239  bids[bidder].deposit */\n      0x01\n      add\n      sload\n        /* \"contracts/VickreyAuction.sol\":3204:3239  uint deposit = bids[bidder].deposit */\n      swap1\n      pop\n        /* \"contracts/VickreyAuction.sol\":3280:3281  0 */\n      0x00\n        /* \"contracts/VickreyAuction.sol\":3257:3261  bids */\n      0x07\n        /* \"contracts/VickreyAuction.sol\":3257:3269  bids[bidder] */\n      0x00\n        /* \"contracts/VickreyAuction.sol\":3262:3268  bidder */\n      dup5\n        /* \"contracts/VickreyAuction.sol\":3257:3269  bids[bidder] */\n      0xffffffffffffffffffffffffffffffffffffffff\n      and\n      0xffffffffffffffffffffffffffffffffffffffff\n      and\n      dup2\n      mstore\n      0x20\n      add\n      swap1\n      dup2\n      mstore\n      0x20\n      add\n      0x00\n      keccak256\n        /* \"contracts/VickreyAuction.sol\":3257:3277  bids[bidder].deposit */\n      0x01\n      add\n        /* \"contracts/VickreyAuction.sol\":3257:3281  bids[bidder].deposit = 0 */\n      dup2\n      swap1\n      sstore\n      pop\n        /* \"contracts/VickreyAuction.sol\":3329:3335  bidder */\n      dup2\n        /* \"contracts/VickreyAuction.sol\":3321:3345  payable(bidder).transfer */\n      0xffffffffffffffffffffffffffffffffffffffff\n      and\n        /* \"contracts/VickreyAuction.sol\":3321:3354  payable(bidder).transfer(deposit) */\n      0x08fc\n        /* \"contracts/VickreyAuction.sol\":3346:3353  deposit */\n      dup3\n        /* \"contracts/VickreyAuction.sol\":3321:3354  payable(bidder).transfer(deposit) */\n      swap1\n      dup2\n      iszero\n      mul\n      swap1\n      mload(0x40)\n      0x00\n      mload(0x40)\n      dup1\n      dup4\n      sub\n      dup2\n      dup6\n      dup9\n      dup9\n      call\n      swap4\n      pop\n      pop\n      pop\n      pop\n      iszero\n      dup1\n      iszero\n      tag_261\n      jumpi\n      returndatacopy(0x00, 0x00, returndatasize)\n      revert(0x00, returndatasize)\n    tag_261:\n      pop\n        /* \"contracts/VickreyAuction.sol\":3186:3369  {... */\n      pop\n        /* \"contracts/VickreyAuction.sol\":3164:3369  if (bidder != winner) {... */\n    tag_259:\n        /* \"contracts/VickreyAuction.sol\":3110:3379  {... */\n      pop\n        /* \"contracts/VickreyAuction.sol\":3105:3108  i++ */\n      dup1\n      dup1\n      0x01\n      add\n      swap2\n      pop\n      pop\n        /* \"contracts/VickreyAuction.sol\":3069:3379  for (uint i = 0; i < sorted.length; i++) {... */\n      jump(tag_254)\n    tag_255:\n      pop\n        /* \"contracts/VickreyAuction.sol\":3394:3433  AuctionFinalized(winner, paymentAmount) */\n      0x357afab190ee87fe0ef1c717f2728d2904d9e415a069d99f4d9382873cb3279d\n        /* \"contracts/VickreyAuction.sol\":3411:3417  winner */\n      0x06\n      0x00\n      swap1\n      sload\n      swap1\n      0x0100\n      exp\n      swap1\n      div\n      0xffffffffffffffffffffffffffffffffffffffff\n      and\n        /* \"contracts/VickreyAuction.sol\":3419:3432  paymentAmount */\n      sload(0x05)\n        /* \"contracts/VickreyAuction.sol\":3394:3433  AuctionFinalized(winner, paymentAmount) */\n      mload(0x40)\n      tag_262\n      swap3\n      swap2\n      swap1\n      tag_204\n      jump\t// in\n    tag_262:\n      mload(0x40)\n      dup1\n      swap2\n      sub\n      swap1\n      log1\n        /* \"contracts/VickreyAuction.sol\":2100:3440  {... */\n      pop\n        /* \"@openzeppelin/contracts/security/ReentrancyGuard.sol\":2292:2293  _ */\n    tag_211:\n        /* \"@openzeppelin/contracts/security/ReentrancyGuard.sol\":2303:2323  _nonReentrantAfter() */\n      tag_263\n        /* \"@openzeppelin/contracts/security/ReentrancyGuard.sol\":2303:2321  _nonReentrantAfter */\n      tag_118\n        /* \"@openzeppelin/contracts/security/ReentrancyGuard.sol\":2303:2323  _nonReentrantAfter() */\n      jump\t// in\n    tag_263:\n        /* \"contracts/VickreyAuction.sol\":2041:3440  function finalizeAuction() external onlyOwner nonReentrant {... */\n      jump\t// out\n        /* \"@openzeppelin/contracts/security/ReentrancyGuard.sol\":2336:2623  function _nonReentrantBefore() private {... */\n    tag_102:\n        /* \"@openzeppelin/contracts/security/ReentrancyGuard.sol\":1759:1760  2 */\n      0x02\n        /* \"@openzeppelin/contracts/security/ReentrancyGuard.sol\":2468:2475  _status */\n      sload(0x00)\n        /* \"@openzeppelin/contracts/security/ReentrancyGuard.sol\":2468:2487  _status != _ENTERED */\n      sub\n        /* \"@openzeppelin/contracts/security/ReentrancyGuard.sol\":2460:2523  require(_status != _ENTERED, \"ReentrancyGuard: reentrant call\") */\n      tag_265\n      jumpi\n      mload(0x40)\n      0x08c379a000000000000000000000000000000000000000000000000000000000\n      dup2\n      mstore\n      0x04\n      add\n      tag_266\n      swap1\n      tag_267\n      jump\t// in\n    tag_266:\n      mload(0x40)\n      dup1\n      swap2\n      sub\n      swap1\n      revert\n    tag_265:\n        /* \"@openzeppelin/contracts/security/ReentrancyGuard.sol\":1759:1760  2 */\n      0x02\n        /* \"@openzeppelin/contracts/security/ReentrancyGuard.sol\":2598:2605  _status */\n      0x00\n        /* \"@openzeppelin/contracts/security/ReentrancyGuard.sol\":2598:2616  _status = _ENTERED */\n      dup2\n      swap1\n      sstore\n      pop\n        /* \"@openzeppelin/contracts/security/ReentrancyGuard.sol\":2336:2623  function _nonReentrantBefore() private {... */\n      jump\t// out\n        /* \"@openzeppelin/contracts/security/ReentrancyGuard.sol\":2629:2838  function _nonReentrantAfter() private {... */\n    tag_118:\n        /* \"@openzeppelin/contracts/security/ReentrancyGuard.sol\":1716:1717  1 */\n      0x01\n        /* \"@openzeppelin/contracts/security/ReentrancyGuard.sol\":2809:2816  _status */\n      0x00\n        /* \"@openzeppelin/contracts/security/ReentrancyGuard.sol\":2809:2831  _status = _NOT_ENTERED */\n      dup2\n      swap1\n      sstore\n      pop\n        /* \"@openzeppelin/contracts/security/ReentrancyGuard.sol\":2629:2838  function _nonReentrantAfter() private {... */\n      jump\t// out\n    tag_253:\n      pop\n      dup1\n      sload\n      0x00\n      dup3\n      sstore\n      swap1\n      0x00\n      mstore\n      keccak256(0x00, 0x20)\n      swap1\n      dup2\n      add\n      swap1\n      tag_270\n      swap2\n      swap1\n      tag_271\n      jump\t// in\n    tag_270:\n      pop\n      jump\t// out\n    tag_271:\n    tag_272:\n      dup1\n      dup3\n      gt\n      iszero\n      tag_273\n      jumpi\n      0x00\n      dup2\n      0x00\n      swap1\n      sstore\n      pop\n      0x01\n      add\n      jump(tag_272)\n    tag_273:\n      pop\n      swap1\n      jump\t// out\n        /* \"#utility.yul\":7:84   */\n    tag_274:\n        /* \"#utility.yul\":44:51   */\n      0x00\n        /* \"#utility.yul\":73:78   */\n      dup2\n        /* \"#utility.yul\":62:78   */\n      swap1\n      pop\n        /* \"#utility.yul\":7:84   */\n      swap2\n      swap1\n      pop\n      jump\t// out\n        /* \"#utility.yul\":90:208   */\n    tag_275:\n        /* \"#utility.yul\":177:201   */\n      tag_340\n        /* \"#utility.yul\":195:200   */\n      dup2\n        /* \"#utility.yul\":177:201   */\n      tag_274\n      jump\t// in\n    tag_340:\n        /* \"#utility.yul\":172:175   */\n      dup3\n        /* \"#utility.yul\":165:202   */\n      mstore\n        /* \"#utility.yul\":90:208   */\n      pop\n      pop\n      jump\t// out\n        /* \"#utility.yul\":214:436   */\n    tag_26:\n        /* \"#utility.yul\":307:311   */\n      0x00\n        /* \"#utility.yul\":345:347   */\n      0x20\n        /* \"#utility.yul\":334:343   */\n      dup3\n        /* \"#utility.yul\":330:348   */\n      add\n        /* \"#utility.yul\":322:348   */\n      swap1\n      pop\n        /* \"#utility.yul\":358:429   */\n      tag_342\n        /* \"#utility.yul\":426:427   */\n      0x00\n        /* \"#utility.yul\":415:424   */\n      dup4\n        /* \"#utility.yul\":411:428   */\n      add\n        /* \"#utility.yul\":402:408   */\n      dup5\n        /* \"#utility.yul\":358:429   */\n      tag_275\n      jump\t// in\n    tag_342:\n        /* \"#utility.yul\":214:436   */\n      swap3\n      swap2\n      pop\n      pop\n      jump\t// out\n        /* \"#utility.yul\":523:640   */\n    tag_277:\n        /* \"#utility.yul\":632:633   */\n      0x00\n        /* \"#utility.yul\":629:630   */\n      0x00\n        /* \"#utility.yul\":622:634   */\n      revert\n        /* \"#utility.yul\":769:891   */\n    tag_279:\n        /* \"#utility.yul\":842:866   */\n      tag_347\n        /* \"#utility.yul\":860:865   */\n      dup2\n        /* \"#utility.yul\":842:866   */\n      tag_274\n      jump\t// in\n    tag_347:\n        /* \"#utility.yul\":835:840   */\n      dup2\n        /* \"#utility.yul\":832:867   */\n      eq\n        /* \"#utility.yul\":822:885   */\n      tag_348\n      jumpi\n        /* \"#utility.yul\":881:882   */\n      0x00\n        /* \"#utility.yul\":878:879   */\n      0x00\n        /* \"#utility.yul\":871:883   */\n      revert\n        /* \"#utility.yul\":822:885   */\n    tag_348:\n        /* \"#utility.yul\":769:891   */\n      pop\n      jump\t// out\n        /* \"#utility.yul\":897:1036   */\n    tag_280:\n        /* \"#utility.yul\":943:948   */\n      0x00\n        /* \"#utility.yul\":981:987   */\n      dup2\n        /* \"#utility.yul\":968:988   */\n      calldataload\n        /* \"#utility.yul\":959:988   */\n      swap1\n      pop\n        /* \"#utility.yul\":997:1030   */\n      tag_350\n        /* \"#utility.yul\":1024:1029   */\n      dup2\n        /* \"#utility.yul\":997:1030   */\n      tag_279\n      jump\t// in\n    tag_350:\n        /* \"#utility.yul\":897:1036   */\n      swap3\n      swap2\n      pop\n      pop\n      jump\t// out\n        /* \"#utility.yul\":1042:1371   */\n    tag_30:\n        /* \"#utility.yul\":1101:1107   */\n      0x00\n        /* \"#utility.yul\":1150:1152   */\n      0x20\n        /* \"#utility.yul\":1138:1147   */\n      dup3\n        /* \"#utility.yul\":1129:1136   */\n      dup5\n        /* \"#utility.yul\":1125:1148   */\n      sub\n        /* \"#utility.yul\":1121:1153   */\n      slt\n        /* \"#utility.yul\":1118:1237   */\n      iszero\n      tag_352\n      jumpi\n        /* \"#utility.yul\":1156:1235   */\n      tag_353\n      tag_277\n      jump\t// in\n    tag_353:\n        /* \"#utility.yul\":1118:1237   */\n    tag_352:\n        /* \"#utility.yul\":1276:1277   */\n      0x00\n        /* \"#utility.yul\":1301:1354   */\n      tag_354\n        /* \"#utility.yul\":1346:1353   */\n      dup5\n        /* \"#utility.yul\":1337:1343   */\n      dup3\n        /* \"#utility.yul\":1326:1335   */\n      dup6\n        /* \"#utility.yul\":1322:1344   */\n      add\n        /* \"#utility.yul\":1301:1354   */\n      tag_280\n      jump\t// in\n    tag_354:\n        /* \"#utility.yul\":1291:1354   */\n      swap2\n      pop\n        /* \"#utility.yul\":1247:1364   */\n      pop\n        /* \"#utility.yul\":1042:1371   */\n      swap3\n      swap2\n      pop\n      pop\n      jump\t// out\n        /* \"#utility.yul\":1377:1503   */\n    tag_281:\n        /* \"#utility.yul\":1414:1421   */\n      0x00\n        /* \"#utility.yul\":1454:1496   */\n      0xffffffffffffffffffffffffffffffffffffffff\n        /* \"#utility.yul\":1447:1452   */\n      dup3\n        /* \"#utility.yul\":1443:1497   */\n      and\n        /* \"#utility.yul\":1432:1497   */\n      swap1\n      pop\n        /* \"#utility.yul\":1377:1503   */\n      swap2\n      swap1\n      pop\n      jump\t// out\n        /* \"#utility.yul\":1509:1605   */\n    tag_282:\n        /* \"#utility.yul\":1546:1553   */\n      0x00\n        /* \"#utility.yul\":1575:1599   */\n      tag_357\n        /* \"#utility.yul\":1593:1598   */\n      dup3\n        /* \"#utility.yul\":1575:1599   */\n      tag_281\n      jump\t// in\n    tag_357:\n        /* \"#utility.yul\":1564:1599   */\n      swap1\n      pop\n        /* \"#utility.yul\":1509:1605   */\n      swap2\n      swap1\n      pop\n      jump\t// out\n        /* \"#utility.yul\":1611:1729   */\n    tag_283:\n        /* \"#utility.yul\":1698:1722   */\n      tag_359\n        /* \"#utility.yul\":1716:1721   */\n      dup2\n        /* \"#utility.yul\":1698:1722   */\n      tag_282\n      jump\t// in\n    tag_359:\n        /* \"#utility.yul\":1693:1696   */\n      dup3\n        /* \"#utility.yul\":1686:1723   */\n      mstore\n        /* \"#utility.yul\":1611:1729   */\n      pop\n      pop\n      jump\t// out\n        /* \"#utility.yul\":1735:1957   */\n    tag_33:\n        /* \"#utility.yul\":1828:1832   */\n      0x00\n        /* \"#utility.yul\":1866:1868   */\n      0x20\n        /* \"#utility.yul\":1855:1864   */\n      dup3\n        /* \"#utility.yul\":1851:1869   */\n      add\n        /* \"#utility.yul\":1843:1869   */\n      swap1\n      pop\n        /* \"#utility.yul\":1879:1950   */\n      tag_361\n        /* \"#utility.yul\":1947:1948   */\n      0x00\n        /* \"#utility.yul\":1936:1945   */\n      dup4\n        /* \"#utility.yul\":1932:1949   */\n      add\n        /* \"#utility.yul\":1923:1929   */\n      dup5\n        /* \"#utility.yul\":1879:1950   */\n      tag_283\n      jump\t// in\n    tag_361:\n        /* \"#utility.yul\":1735:1957   */\n      swap3\n      swap2\n      pop\n      pop\n      jump\t// out\n        /* \"#utility.yul\":1963:2085   */\n    tag_284:\n        /* \"#utility.yul\":2036:2060   */\n      tag_363\n        /* \"#utility.yul\":2054:2059   */\n      dup2\n        /* \"#utility.yul\":2036:2060   */\n      tag_282\n      jump\t// in\n    tag_363:\n        /* \"#utility.yul\":2029:2034   */\n      dup2\n        /* \"#utility.yul\":2026:2061   */\n      eq\n        /* \"#utility.yul\":2016:2079   */\n      tag_364\n      jumpi\n        /* \"#utility.yul\":2075:2076   */\n      0x00\n        /* \"#utility.yul\":2072:2073   */\n      0x00\n        /* \"#utility.yul\":2065:2077   */\n      revert\n        /* \"#utility.yul\":2016:2079   */\n    tag_364:\n        /* \"#utility.yul\":1963:2085   */\n      pop\n      jump\t// out\n        /* \"#utility.yul\":2091:2230   */\n    tag_285:\n        /* \"#utility.yul\":2137:2142   */\n      0x00\n        /* \"#utility.yul\":2175:2181   */\n      dup2\n        /* \"#utility.yul\":2162:2182   */\n      calldataload\n        /* \"#utility.yul\":2153:2182   */\n      swap1\n      pop\n        /* \"#utility.yul\":2191:2224   */\n      tag_366\n        /* \"#utility.yul\":2218:2223   */\n      dup2\n        /* \"#utility.yul\":2191:2224   */\n      tag_284\n      jump\t// in\n    tag_366:\n        /* \"#utility.yul\":2091:2230   */\n      swap3\n      swap2\n      pop\n      pop\n      jump\t// out\n        /* \"#utility.yul\":2236:2565   */\n    tag_46:\n        /* \"#utility.yul\":2295:2301   */\n      0x00\n        /* \"#utility.yul\":2344:2346   */\n      0x20\n        /* \"#utility.yul\":2332:2341   */\n      dup3\n        /* \"#utility.yul\":2323:2330   */\n      dup5\n        /* \"#utility.yul\":2319:2342   */\n      sub\n        /* \"#utility.yul\":2315:2347   */\n      slt\n        /* \"#utility.yul\":2312:2431   */\n      iszero\n      tag_368\n      jumpi\n        /* \"#utility.yul\":2350:2429   */\n      tag_369\n      tag_277\n      jump\t// in\n    tag_369:\n        /* \"#utility.yul\":2312:2431   */\n    tag_368:\n        /* \"#utility.yul\":2470:2471   */\n      0x00\n        /* \"#utility.yul\":2495:2548   */\n      tag_370\n        /* \"#utility.yul\":2540:2547   */\n      dup5\n        /* \"#utility.yul\":2531:2537   */\n      dup3\n        /* \"#utility.yul\":2520:2529   */\n      dup6\n        /* \"#utility.yul\":2516:2538   */\n      add\n        /* \"#utility.yul\":2495:2548   */\n      tag_285\n      jump\t// in\n    tag_370:\n        /* \"#utility.yul\":2485:2548   */\n      swap2\n      pop\n        /* \"#utility.yul\":2441:2558   */\n      pop\n        /* \"#utility.yul\":2236:2565   */\n      swap3\n      swap2\n      pop\n      pop\n      jump\t// out\n        /* \"#utility.yul\":2571:3013   */\n    tag_49:\n        /* \"#utility.yul\":2720:2724   */\n      0x00\n        /* \"#utility.yul\":2758:2760   */\n      0x60\n        /* \"#utility.yul\":2747:2756   */\n      dup3\n        /* \"#utility.yul\":2743:2761   */\n      add\n        /* \"#utility.yul\":2735:2761   */\n      swap1\n      pop\n        /* \"#utility.yul\":2771:2842   */\n      tag_372\n        /* \"#utility.yul\":2839:2840   */\n      0x00\n        /* \"#utility.yul\":2828:2837   */\n      dup4\n        /* \"#utility.yul\":2824:2841   */\n      add\n        /* \"#utility.yul\":2815:2821   */\n      dup7\n        /* \"#utility.yul\":2771:2842   */\n      tag_275\n      jump\t// in\n    tag_372:\n        /* \"#utility.yul\":2852:2924   */\n      tag_373\n        /* \"#utility.yul\":2920:2922   */\n      0x20\n        /* \"#utility.yul\":2909:2918   */\n      dup4\n        /* \"#utility.yul\":2905:2923   */\n      add\n        /* \"#utility.yul\":2896:2902   */\n      dup6\n        /* \"#utility.yul\":2852:2924   */\n      tag_275\n      jump\t// in\n    tag_373:\n        /* \"#utility.yul\":2934:3006   */\n      tag_374\n        /* \"#utility.yul\":3002:3004   */\n      0x40\n        /* \"#utility.yul\":2991:3000   */\n      dup4\n        /* \"#utility.yul\":2987:3005   */\n      add\n        /* \"#utility.yul\":2978:2984   */\n      dup5\n        /* \"#utility.yul\":2934:3006   */\n      tag_275\n      jump\t// in\n    tag_374:\n        /* \"#utility.yul\":2571:3013   */\n      swap5\n      swap4\n      pop\n      pop\n      pop\n      pop\n      jump\t// out\n        /* \"#utility.yul\":3019:3109   */\n    tag_286:\n        /* \"#utility.yul\":3053:3060   */\n      0x00\n        /* \"#utility.yul\":3096:3101   */\n      dup2\n        /* \"#utility.yul\":3089:3102   */\n      iszero\n        /* \"#utility.yul\":3082:3103   */\n      iszero\n        /* \"#utility.yul\":3071:3103   */\n      swap1\n      pop\n        /* \"#utility.yul\":3019:3109   */\n      swap2\n      swap1\n      pop\n      jump\t// out\n        /* \"#utility.yul\":3115:3224   */\n    tag_287:\n        /* \"#utility.yul\":3196:3217   */\n      tag_377\n        /* \"#utility.yul\":3211:3216   */\n      dup2\n        /* \"#utility.yul\":3196:3217   */\n      tag_286\n      jump\t// in\n    tag_377:\n        /* \"#utility.yul\":3191:3194   */\n      dup3\n        /* \"#utility.yul\":3184:3218   */\n      mstore\n        /* \"#utility.yul\":3115:3224   */\n      pop\n      pop\n      jump\t// out\n        /* \"#utility.yul\":3230:3440   */\n    tag_58:\n        /* \"#utility.yul\":3317:3321   */\n      0x00\n        /* \"#utility.yul\":3355:3357   */\n      0x20\n        /* \"#utility.yul\":3344:3353   */\n      dup3\n        /* \"#utility.yul\":3340:3358   */\n      add\n        /* \"#utility.yul\":3332:3358   */\n      swap1\n      pop\n        /* \"#utility.yul\":3368:3433   */\n      tag_379\n        /* \"#utility.yul\":3430:3431   */\n      0x00\n        /* \"#utility.yul\":3419:3428   */\n      dup4\n        /* \"#utility.yul\":3415:3432   */\n      add\n        /* \"#utility.yul\":3406:3412   */\n      dup5\n        /* \"#utility.yul\":3368:3433   */\n      tag_287\n      jump\t// in\n    tag_379:\n        /* \"#utility.yul\":3230:3440   */\n      swap3\n      swap2\n      pop\n      pop\n      jump\t// out\n        /* \"#utility.yul\":3446:3560   */\n    tag_288:\n        /* \"#utility.yul\":3513:3519   */\n      0x00\n        /* \"#utility.yul\":3547:3552   */\n      dup2\n        /* \"#utility.yul\":3541:3553   */\n      mload\n        /* \"#utility.yul\":3531:3553   */\n      swap1\n      pop\n        /* \"#utility.yul\":3446:3560   */\n      swap2\n      swap1\n      pop\n      jump\t// out\n        /* \"#utility.yul\":3566:3750   */\n    tag_289:\n        /* \"#utility.yul\":3665:3676   */\n      0x00\n        /* \"#utility.yul\":3699:3705   */\n      dup3\n        /* \"#utility.yul\":3694:3697   */\n      dup3\n        /* \"#utility.yul\":3687:3706   */\n      mstore\n        /* \"#utility.yul\":3739:3743   */\n      0x20\n        /* \"#utility.yul\":3734:3737   */\n      dup3\n        /* \"#utility.yul\":3730:3744   */\n      add\n        /* \"#utility.yul\":3715:3744   */\n      swap1\n      pop\n        /* \"#utility.yul\":3566:3750   */\n      swap3\n      swap2\n      pop\n      pop\n      jump\t// out\n        /* \"#utility.yul\":3756:3888   */\n    tag_290:\n        /* \"#utility.yul\":3823:3827   */\n      0x00\n        /* \"#utility.yul\":3846:3849   */\n      dup2\n        /* \"#utility.yul\":3838:3849   */\n      swap1\n      pop\n        /* \"#utility.yul\":3876:3880   */\n      0x20\n        /* \"#utility.yul\":3871:3874   */\n      dup3\n        /* \"#utility.yul\":3867:3881   */\n      add\n        /* \"#utility.yul\":3859:3881   */\n      swap1\n      pop\n        /* \"#utility.yul\":3756:3888   */\n      swap2\n      swap1\n      pop\n      jump\t// out\n        /* \"#utility.yul\":3894:4002   */\n    tag_291:\n        /* \"#utility.yul\":3971:3995   */\n      tag_384\n        /* \"#utility.yul\":3989:3994   */\n      dup2\n        /* \"#utility.yul\":3971:3995   */\n      tag_282\n      jump\t// in\n    tag_384:\n        /* \"#utility.yul\":3966:3969   */\n      dup3\n        /* \"#utility.yul\":3959:3996   */\n      mstore\n        /* \"#utility.yul\":3894:4002   */\n      pop\n      pop\n      jump\t// out\n        /* \"#utility.yul\":4008:4187   */\n    tag_292:\n        /* \"#utility.yul\":4077:4087   */\n      0x00\n        /* \"#utility.yul\":4098:4144   */\n      tag_386\n        /* \"#utility.yul\":4140:4143   */\n      dup4\n        /* \"#utility.yul\":4132:4138   */\n      dup4\n        /* \"#utility.yul\":4098:4144   */\n      tag_291\n      jump\t// in\n    tag_386:\n        /* \"#utility.yul\":4176:4180   */\n      0x20\n        /* \"#utility.yul\":4171:4174   */\n      dup4\n        /* \"#utility.yul\":4167:4181   */\n      add\n        /* \"#utility.yul\":4153:4181   */\n      swap1\n      pop\n        /* \"#utility.yul\":4008:4187   */\n      swap3\n      swap2\n      pop\n      pop\n      jump\t// out\n        /* \"#utility.yul\":4193:4306   */\n    tag_293:\n        /* \"#utility.yul\":4263:4267   */\n      0x00\n        /* \"#utility.yul\":4295:4299   */\n      0x20\n        /* \"#utility.yul\":4290:4293   */\n      dup3\n        /* \"#utility.yul\":4286:4300   */\n      add\n        /* \"#utility.yul\":4278:4300   */\n      swap1\n      pop\n        /* \"#utility.yul\":4193:4306   */\n      swap2\n      swap1\n      pop\n      jump\t// out\n        /* \"#utility.yul\":4342:5074   */\n    tag_294:\n        /* \"#utility.yul\":4461:4464   */\n      0x00\n        /* \"#utility.yul\":4490:4544   */\n      tag_389\n        /* \"#utility.yul\":4538:4543   */\n      dup3\n        /* \"#utility.yul\":4490:4544   */\n      tag_288\n      jump\t// in\n    tag_389:\n        /* \"#utility.yul\":4560:4646   */\n      tag_390\n        /* \"#utility.yul\":4639:4645   */\n      dup2\n        /* \"#utility.yul\":4634:4637   */\n      dup6\n        /* \"#utility.yul\":4560:4646   */\n      tag_289\n      jump\t// in\n    tag_390:\n        /* \"#utility.yul\":4553:4646   */\n      swap4\n      pop\n        /* \"#utility.yul\":4670:4726   */\n      tag_391\n        /* \"#utility.yul\":4720:4725   */\n      dup4\n        /* \"#utility.yul\":4670:4726   */\n      tag_290\n      jump\t// in\n    tag_391:\n        /* \"#utility.yul\":4749:4756   */\n      dup1\n        /* \"#utility.yul\":4780:4781   */\n      0x00\n        /* \"#utility.yul\":4765:5049   */\n    tag_392:\n        /* \"#utility.yul\":4790:4796   */\n      dup4\n        /* \"#utility.yul\":4787:4788   */\n      dup2\n        /* \"#utility.yul\":4784:4797   */\n      lt\n        /* \"#utility.yul\":4765:5049   */\n      iszero\n      tag_394\n      jumpi\n        /* \"#utility.yul\":4866:4872   */\n      dup2\n        /* \"#utility.yul\":4860:4873   */\n      mload\n        /* \"#utility.yul\":4893:4956   */\n      tag_395\n        /* \"#utility.yul\":4952:4955   */\n      dup9\n        /* \"#utility.yul\":4937:4950   */\n      dup3\n        /* \"#utility.yul\":4893:4956   */\n      tag_292\n      jump\t// in\n    tag_395:\n        /* \"#utility.yul\":4886:4956   */\n      swap8\n      pop\n        /* \"#utility.yul\":4979:5039   */\n      tag_396\n        /* \"#utility.yul\":5032:5038   */\n      dup4\n        /* \"#utility.yul\":4979:5039   */\n      tag_293\n      jump\t// in\n    tag_396:\n        /* \"#utility.yul\":4969:5039   */\n      swap3\n      pop\n        /* \"#utility.yul\":4825:5049   */\n      pop\n        /* \"#utility.yul\":4812:4813   */\n      0x01\n        /* \"#utility.yul\":4809:4810   */\n      dup2\n        /* \"#utility.yul\":4805:4814   */\n      add\n        /* \"#utility.yul\":4800:4814   */\n      swap1\n      pop\n        /* \"#utility.yul\":4765:5049   */\n      jump(tag_392)\n    tag_394:\n        /* \"#utility.yul\":4769:4783   */\n      pop\n        /* \"#utility.yul\":5065:5068   */\n      dup6\n        /* \"#utility.yul\":5058:5068   */\n      swap4\n      pop\n        /* \"#utility.yul\":4466:5074   */\n      pop\n      pop\n      pop\n        /* \"#utility.yul\":4342:5074   */\n      swap3\n      swap2\n      pop\n      pop\n      jump\t// out\n        /* \"#utility.yul\":5080:5194   */\n    tag_295:\n        /* \"#utility.yul\":5147:5153   */\n      0x00\n        /* \"#utility.yul\":5181:5186   */\n      dup2\n        /* \"#utility.yul\":5175:5187   */\n      mload\n        /* \"#utility.yul\":5165:5187   */\n      swap1\n      pop\n        /* \"#utility.yul\":5080:5194   */\n      swap2\n      swap1\n      pop\n      jump\t// out\n        /* \"#utility.yul\":5200:5384   */\n    tag_296:\n        /* \"#utility.yul\":5299:5310   */\n      0x00\n        /* \"#utility.yul\":5333:5339   */\n      dup3\n        /* \"#utility.yul\":5328:5331   */\n      dup3\n        /* \"#utility.yul\":5321:5340   */\n      mstore\n        /* \"#utility.yul\":5373:5377   */\n      0x20\n        /* \"#utility.yul\":5368:5371   */\n      dup3\n        /* \"#utility.yul\":5364:5378   */\n      add\n        /* \"#utility.yul\":5349:5378   */\n      swap1\n      pop\n        /* \"#utility.yul\":5200:5384   */\n      swap3\n      swap2\n      pop\n      pop\n      jump\t// out\n        /* \"#utility.yul\":5390:5522   */\n    tag_297:\n        /* \"#utility.yul\":5457:5461   */\n      0x00\n        /* \"#utility.yul\":5480:5483   */\n      dup2\n        /* \"#utility.yul\":5472:5483   */\n      swap1\n      pop\n        /* \"#utility.yul\":5510:5514   */\n      0x20\n        /* \"#utility.yul\":5505:5508   */\n      dup3\n        /* \"#utility.yul\":5501:5515   */\n      add\n        /* \"#utility.yul\":5493:5515   */\n      swap1\n      pop\n        /* \"#utility.yul\":5390:5522   */\n      swap2\n      swap1\n      pop\n      jump\t// out\n        /* \"#utility.yul\":5528:5636   */\n    tag_298:\n        /* \"#utility.yul\":5605:5629   */\n      tag_401\n        /* \"#utility.yul\":5623:5628   */\n      dup2\n        /* \"#utility.yul\":5605:5629   */\n      tag_274\n      jump\t// in\n    tag_401:\n        /* \"#utility.yul\":5600:5603   */\n      dup3\n        /* \"#utility.yul\":5593:5630   */\n      mstore\n        /* \"#utility.yul\":5528:5636   */\n      pop\n      pop\n      jump\t// out\n        /* \"#utility.yul\":5642:5821   */\n    tag_299:\n        /* \"#utility.yul\":5711:5721   */\n      0x00\n        /* \"#utility.yul\":5732:5778   */\n      tag_403\n        /* \"#utility.yul\":5774:5777   */\n      dup4\n        /* \"#utility.yul\":5766:5772   */\n      dup4\n        /* \"#utility.yul\":5732:5778   */\n      tag_298\n      jump\t// in\n    tag_403:\n        /* \"#utility.yul\":5810:5814   */\n      0x20\n        /* \"#utility.yul\":5805:5808   */\n      dup4\n        /* \"#utility.yul\":5801:5815   */\n      add\n        /* \"#utility.yul\":5787:5815   */\n      swap1\n      pop\n        /* \"#utility.yul\":5642:5821   */\n      swap3\n      swap2\n      pop\n      pop\n      jump\t// out\n        /* \"#utility.yul\":5827:5940   */\n    tag_300:\n        /* \"#utility.yul\":5897:5901   */\n      0x00\n        /* \"#utility.yul\":5929:5933   */\n      0x20\n        /* \"#utility.yul\":5924:5927   */\n      dup3\n        /* \"#utility.yul\":5920:5934   */\n      add\n        /* \"#utility.yul\":5912:5934   */\n      swap1\n      pop\n        /* \"#utility.yul\":5827:5940   */\n      swap2\n      swap1\n      pop\n      jump\t// out\n        /* \"#utility.yul\":5976:6708   */\n    tag_301:\n        /* \"#utility.yul\":6095:6098   */\n      0x00\n        /* \"#utility.yul\":6124:6178   */\n      tag_406\n        /* \"#utility.yul\":6172:6177   */\n      dup3\n        /* \"#utility.yul\":6124:6178   */\n      tag_295\n      jump\t// in\n    tag_406:\n        /* \"#utility.yul\":6194:6280   */\n      tag_407\n        /* \"#utility.yul\":6273:6279   */\n      dup2\n        /* \"#utility.yul\":6268:6271   */\n      dup6\n        /* \"#utility.yul\":6194:6280   */\n      tag_296\n      jump\t// in\n    tag_407:\n        /* \"#utility.yul\":6187:6280   */\n      swap4\n      pop\n        /* \"#utility.yul\":6304:6360   */\n      tag_408\n        /* \"#utility.yul\":6354:6359   */\n      dup4\n        /* \"#utility.yul\":6304:6360   */\n      tag_297\n      jump\t// in\n    tag_408:\n        /* \"#utility.yul\":6383:6390   */\n      dup1\n        /* \"#utility.yul\":6414:6415   */\n      0x00\n        /* \"#utility.yul\":6399:6683   */\n    tag_409:\n        /* \"#utility.yul\":6424:6430   */\n      dup4\n        /* \"#utility.yul\":6421:6422   */\n      dup2\n        /* \"#utility.yul\":6418:6431   */\n      lt\n        /* \"#utility.yul\":6399:6683   */\n      iszero\n      tag_411\n      jumpi\n        /* \"#utility.yul\":6500:6506   */\n      dup2\n        /* \"#utility.yul\":6494:6507   */\n      mload\n        /* \"#utility.yul\":6527:6590   */\n      tag_412\n        /* \"#utility.yul\":6586:6589   */\n      dup9\n        /* \"#utility.yul\":6571:6584   */\n      dup3\n        /* \"#utility.yul\":6527:6590   */\n      tag_299\n      jump\t// in\n    tag_412:\n        /* \"#utility.yul\":6520:6590   */\n      swap8\n      pop\n        /* \"#utility.yul\":6613:6673   */\n      tag_413\n        /* \"#utility.yul\":6666:6672   */\n      dup4\n        /* \"#utility.yul\":6613:6673   */\n      tag_300\n      jump\t// in\n    tag_413:\n        /* \"#utility.yul\":6603:6673   */\n      swap3\n      pop\n        /* \"#utility.yul\":6459:6683   */\n      pop\n        /* \"#utility.yul\":6446:6447   */\n      0x01\n        /* \"#utility.yul\":6443:6444   */\n      dup2\n        /* \"#utility.yul\":6439:6448   */\n      add\n        /* \"#utility.yul\":6434:6448   */\n      swap1\n      pop\n        /* \"#utility.yul\":6399:6683   */\n      jump(tag_409)\n    tag_411:\n        /* \"#utility.yul\":6403:6417   */\n      pop\n        /* \"#utility.yul\":6699:6702   */\n      dup6\n        /* \"#utility.yul\":6692:6702   */\n      swap4\n      pop\n        /* \"#utility.yul\":6100:6708   */\n      pop\n      pop\n      pop\n        /* \"#utility.yul\":5976:6708   */\n      swap3\n      swap2\n      pop\n      pop\n      jump\t// out\n        /* \"#utility.yul\":6714:7348   */\n    tag_71:\n        /* \"#utility.yul\":6935:6939   */\n      0x00\n        /* \"#utility.yul\":6973:6975   */\n      0x40\n        /* \"#utility.yul\":6962:6971   */\n      dup3\n        /* \"#utility.yul\":6958:6976   */\n      add\n        /* \"#utility.yul\":6950:6976   */\n      swap1\n      pop\n        /* \"#utility.yul\":7022:7031   */\n      dup2\n        /* \"#utility.yul\":7016:7020   */\n      dup2\n        /* \"#utility.yul\":7012:7032   */\n      sub\n        /* \"#utility.yul\":7008:7009   */\n      0x00\n        /* \"#utility.yul\":6997:7006   */\n      dup4\n        /* \"#utility.yul\":6993:7010   */\n      add\n        /* \"#utility.yul\":6986:7033   */\n      mstore\n        /* \"#utility.yul\":7050:7158   */\n      tag_415\n        /* \"#utility.yul\":7153:7157   */\n      dup2\n        /* \"#utility.yul\":7144:7150   */\n      dup6\n        /* \"#utility.yul\":7050:7158   */\n      tag_294\n      jump\t// in\n    tag_415:\n        /* \"#utility.yul\":7042:7158   */\n      swap1\n      pop\n        /* \"#utility.yul\":7205:7214   */\n      dup2\n        /* \"#utility.yul\":7199:7203   */\n      dup2\n        /* \"#utility.yul\":7195:7215   */\n      sub\n        /* \"#utility.yul\":7190:7192   */\n      0x20\n        /* \"#utility.yul\":7179:7188   */\n      dup4\n        /* \"#utility.yul\":7175:7193   */\n      add\n        /* \"#utility.yul\":7168:7216   */\n      mstore\n        /* \"#utility.yul\":7233:7341   */\n      tag_416\n        /* \"#utility.yul\":7336:7340   */\n      dup2\n        /* \"#utility.yul\":7327:7333   */\n      dup5\n        /* \"#utility.yul\":7233:7341   */\n      tag_301\n      jump\t// in\n    tag_416:\n        /* \"#utility.yul\":7225:7341   */\n      swap1\n      pop\n        /* \"#utility.yul\":6714:7348   */\n      swap4\n      swap3\n      pop\n      pop\n      pop\n      jump\t// out\n        /* \"#utility.yul\":7354:7523   */\n    tag_302:\n        /* \"#utility.yul\":7438:7449   */\n      0x00\n        /* \"#utility.yul\":7472:7478   */\n      dup3\n        /* \"#utility.yul\":7467:7470   */\n      dup3\n        /* \"#utility.yul\":7460:7479   */\n      mstore\n        /* \"#utility.yul\":7512:7516   */\n      0x20\n        /* \"#utility.yul\":7507:7510   */\n      dup3\n        /* \"#utility.yul\":7503:7517   */\n      add\n        /* \"#utility.yul\":7488:7517   */\n      swap1\n      pop\n        /* \"#utility.yul\":7354:7523   */\n      swap3\n      swap2\n      pop\n      pop\n      jump\t// out\n        /* \"#utility.yul\":7529:7703   */\n    tag_303:\n        /* \"#utility.yul\":7669:7695   */\n      0x4f6e6c79206f776e65722063616e2063616c6c20746869730000000000000000\n        /* \"#utility.yul\":7665:7666   */\n      0x00\n        /* \"#utility.yul\":7657:7663   */\n      dup3\n        /* \"#utility.yul\":7653:7667   */\n      add\n        /* \"#utility.yul\":7646:7696   */\n      mstore\n        /* \"#utility.yul\":7529:7703   */\n      pop\n      jump\t// out\n        /* \"#utility.yul\":7709:8075   */\n    tag_304:\n        /* \"#utility.yul\":7851:7854   */\n      0x00\n        /* \"#utility.yul\":7872:7939   */\n      tag_420\n        /* \"#utility.yul\":7936:7938   */\n      0x18\n        /* \"#utility.yul\":7931:7934   */\n      dup4\n        /* \"#utility.yul\":7872:7939   */\n      tag_302\n      jump\t// in\n    tag_420:\n        /* \"#utility.yul\":7865:7939   */\n      swap2\n      pop\n        /* \"#utility.yul\":7948:8041   */\n      tag_421\n        /* \"#utility.yul\":8037:8040   */\n      dup3\n        /* \"#utility.yul\":7948:8041   */\n      tag_303\n      jump\t// in\n    tag_421:\n        /* \"#utility.yul\":8066:8068   */\n      0x20\n        /* \"#utility.yul\":8061:8064   */\n      dup3\n        /* \"#utility.yul\":8057:8069   */\n      add\n        /* \"#utility.yul\":8050:8069   */\n      swap1\n      pop\n        /* \"#utility.yul\":7709:8075   */\n      swap2\n      swap1\n      pop\n      jump\t// out\n        /* \"#utility.yul\":8081:8500   */\n    tag_99:\n        /* \"#utility.yul\":8247:8251   */\n      0x00\n        /* \"#utility.yul\":8285:8287   */\n      0x20\n        /* \"#utility.yul\":8274:8283   */\n      dup3\n        /* \"#utility.yul\":8270:8288   */\n      add\n        /* \"#utility.yul\":8262:8288   */\n      swap1\n      pop\n        /* \"#utility.yul\":8334:8343   */\n      dup2\n        /* \"#utility.yul\":8328:8332   */\n      dup2\n        /* \"#utility.yul\":8324:8344   */\n      sub\n        /* \"#utility.yul\":8320:8321   */\n      0x00\n        /* \"#utility.yul\":8309:8318   */\n      dup4\n        /* \"#utility.yul\":8305:8322   */\n      add\n        /* \"#utility.yul\":8298:8345   */\n      mstore\n        /* \"#utility.yul\":8362:8493   */\n      tag_423\n        /* \"#utility.yul\":8488:8492   */\n      dup2\n        /* \"#utility.yul\":8362:8493   */\n      tag_304\n      jump\t// in\n    tag_423:\n        /* \"#utility.yul\":8354:8493   */\n      swap1\n      pop\n        /* \"#utility.yul\":8081:8500   */\n      swap2\n      swap1\n      pop\n      jump\t// out\n        /* \"#utility.yul\":8506:8673   */\n    tag_305:\n        /* \"#utility.yul\":8646:8665   */\n      0x41756374696f6e206e6f7420656e646564000000000000000000000000000000\n        /* \"#utility.yul\":8642:8643   */\n      0x00\n        /* \"#utility.yul\":8634:8640   */\n      dup3\n        /* \"#utility.yul\":8630:8644   */\n      add\n        /* \"#utility.yul\":8623:8666   */\n      mstore\n        /* \"#utility.yul\":8506:8673   */\n      pop\n      jump\t// out\n        /* \"#utility.yul\":8679:9045   */\n    tag_306:\n        /* \"#utility.yul\":8821:8824   */\n      0x00\n        /* \"#utility.yul\":8842:8909   */\n      tag_426\n        /* \"#utility.yul\":8906:8908   */\n      0x11\n        /* \"#utility.yul\":8901:8904   */\n      dup4\n        /* \"#utility.yul\":8842:8909   */\n      tag_302\n      jump\t// in\n    tag_426:\n        /* \"#utility.yul\":8835:8909   */\n      swap2\n      pop\n        /* \"#utility.yul\":8918:9011   */\n      tag_427\n        /* \"#utility.yul\":9007:9010   */\n      dup3\n        /* \"#utility.yul\":8918:9011   */\n      tag_305\n      jump\t// in\n    tag_427:\n        /* \"#utility.yul\":9036:9038   */\n      0x20\n        /* \"#utility.yul\":9031:9034   */\n      dup3\n        /* \"#utility.yul\":9027:9039   */\n      add\n        /* \"#utility.yul\":9020:9039   */\n      swap1\n      pop\n        /* \"#utility.yul\":8679:9045   */\n      swap2\n      swap1\n      pop\n      jump\t// out\n        /* \"#utility.yul\":9051:9470   */\n    tag_106:\n        /* \"#utility.yul\":9217:9221   */\n      0x00\n        /* \"#utility.yul\":9255:9257   */\n      0x20\n        /* \"#utility.yul\":9244:9253   */\n      dup3\n        /* \"#utility.yul\":9240:9258   */\n      add\n        /* \"#utility.yul\":9232:9258   */\n      swap1\n      pop\n        /* \"#utility.yul\":9304:9313   */\n      dup2\n        /* \"#utility.yul\":9298:9302   */\n      dup2\n        /* \"#utility.yul\":9294:9314   */\n      sub\n        /* \"#utility.yul\":9290:9291   */\n      0x00\n        /* \"#utility.yul\":9279:9288   */\n      dup4\n        /* \"#utility.yul\":9275:9292   */\n      add\n        /* \"#utility.yul\":9268:9315   */\n      mstore\n        /* \"#utility.yul\":9332:9463   */\n      tag_429\n        /* \"#utility.yul\":9458:9462   */\n      dup2\n        /* \"#utility.yul\":9332:9463   */\n      tag_306\n      jump\t// in\n    tag_429:\n        /* \"#utility.yul\":9324:9463   */\n      swap1\n      pop\n        /* \"#utility.yul\":9051:9470   */\n      swap2\n      swap1\n      pop\n      jump\t// out\n        /* \"#utility.yul\":9476:9652   */\n    tag_307:\n        /* \"#utility.yul\":9616:9644   */\n      0x44656c697665727920616c72656164792070726f636573736564000000000000\n        /* \"#utility.yul\":9612:9613   */\n      0x00\n        /* \"#utility.yul\":9604:9610   */\n      dup3\n        /* \"#utility.yul\":9600:9614   */\n      add\n        /* \"#utility.yul\":9593:9645   */\n      mstore\n        /* \"#utility.yul\":9476:9652   */\n      pop\n      jump\t// out\n        /* \"#utility.yul\":9658:10024   */\n    tag_308:\n        /* \"#utility.yul\":9800:9803   */\n      0x00\n        /* \"#utility.yul\":9821:9888   */\n      tag_432\n        /* \"#utility.yul\":9885:9887   */\n      0x1a\n        /* \"#utility.yul\":9880:9883   */\n      dup4\n        /* \"#utility.yul\":9821:9888   */\n      tag_302\n      jump\t// in\n    tag_432:\n        /* \"#utility.yul\":9814:9888   */\n      swap2\n      pop\n        /* \"#utility.yul\":9897:9990   */\n      tag_433\n        /* \"#utility.yul\":9986:9989   */\n      dup3\n        /* \"#utility.yul\":9897:9990   */\n      tag_307\n      jump\t// in\n    tag_433:\n        /* \"#utility.yul\":10015:10017   */\n      0x20\n        /* \"#utility.yul\":10010:10013   */\n      dup3\n        /* \"#utility.yul\":10006:10018   */\n      add\n        /* \"#utility.yul\":9999:10018   */\n      swap1\n      pop\n        /* \"#utility.yul\":9658:10024   */\n      swap2\n      swap1\n      pop\n      jump\t// out\n        /* \"#utility.yul\":10030:10449   */\n    tag_110:\n        /* \"#utility.yul\":10196:10200   */\n      0x00\n        /* \"#utility.yul\":10234:10236   */\n      0x20\n        /* \"#utility.yul\":10223:10232   */\n      dup3\n        /* \"#utility.yul\":10219:10237   */\n      add\n        /* \"#utility.yul\":10211:10237   */\n      swap1\n      pop\n        /* \"#utility.yul\":10283:10292   */\n      dup2\n        /* \"#utility.yul\":10277:10281   */\n      dup2\n        /* \"#utility.yul\":10273:10293   */\n      sub\n        /* \"#utility.yul\":10269:10270   */\n      0x00\n        /* \"#utility.yul\":10258:10267   */\n      dup4\n        /* \"#utility.yul\":10254:10271   */\n      add\n        /* \"#utility.yul\":10247:10294   */\n      mstore\n        /* \"#utility.yul\":10311:10442   */\n      tag_435\n        /* \"#utility.yul\":10437:10441   */\n      dup2\n        /* \"#utility.yul\":10311:10442   */\n      tag_308\n      jump\t// in\n    tag_435:\n        /* \"#utility.yul\":10303:10442   */\n      swap1\n      pop\n        /* \"#utility.yul\":10030:10449   */\n      swap2\n      swap1\n      pop\n      jump\t// out\n        /* \"#utility.yul\":10455:10635   */\n    tag_309:\n        /* \"#utility.yul\":10503:10580   */\n      0x4e487b7100000000000000000000000000000000000000000000000000000000\n        /* \"#utility.yul\":10500:10501   */\n      0x00\n        /* \"#utility.yul\":10493:10581   */\n      mstore\n        /* \"#utility.yul\":10600:10604   */\n      0x11\n        /* \"#utility.yul\":10597:10598   */\n      0x04\n        /* \"#utility.yul\":10590:10605   */\n      mstore\n        /* \"#utility.yul\":10624:10628   */\n      0x24\n        /* \"#utility.yul\":10621:10622   */\n      0x00\n        /* \"#utility.yul\":10614:10629   */\n      revert\n        /* \"#utility.yul\":10641:10832   */\n    tag_112:\n        /* \"#utility.yul\":10681:10684   */\n      0x00\n        /* \"#utility.yul\":10700:10720   */\n      tag_438\n        /* \"#utility.yul\":10718:10719   */\n      dup3\n        /* \"#utility.yul\":10700:10720   */\n      tag_274\n      jump\t// in\n    tag_438:\n        /* \"#utility.yul\":10695:10720   */\n      swap2\n      pop\n        /* \"#utility.yul\":10734:10754   */\n      tag_439\n        /* \"#utility.yul\":10752:10753   */\n      dup4\n        /* \"#utility.yul\":10734:10754   */\n      tag_274\n      jump\t// in\n    tag_439:\n        /* \"#utility.yul\":10729:10754   */\n      swap3\n      pop\n        /* \"#utility.yul\":10777:10778   */\n      dup3\n        /* \"#utility.yul\":10774:10775   */\n      dup3\n        /* \"#utility.yul\":10770:10779   */\n      add\n        /* \"#utility.yul\":10763:10779   */\n      swap1\n      pop\n        /* \"#utility.yul\":10798:10801   */\n      dup1\n        /* \"#utility.yul\":10795:10796   */\n      dup3\n        /* \"#utility.yul\":10792:10802   */\n      gt\n        /* \"#utility.yul\":10789:10825   */\n      iszero\n      tag_440\n      jumpi\n        /* \"#utility.yul\":10805:10823   */\n      tag_441\n      tag_309\n      jump\t// in\n    tag_441:\n        /* \"#utility.yul\":10789:10825   */\n    tag_440:\n        /* \"#utility.yul\":10641:10832   */\n      swap3\n      swap2\n      pop\n      pop\n      jump\t// out\n        /* \"#utility.yul\":10838:11280   */\n    tag_116:\n        /* \"#utility.yul\":10987:10991   */\n      0x00\n        /* \"#utility.yul\":11025:11027   */\n      0x60\n        /* \"#utility.yul\":11014:11023   */\n      dup3\n        /* \"#utility.yul\":11010:11028   */\n      add\n        /* \"#utility.yul\":11002:11028   */\n      swap1\n      pop\n        /* \"#utility.yul\":11038:11109   */\n      tag_443\n        /* \"#utility.yul\":11106:11107   */\n      0x00\n        /* \"#utility.yul\":11095:11104   */\n      dup4\n        /* \"#utility.yul\":11091:11108   */\n      add\n        /* \"#utility.yul\":11082:11088   */\n      dup7\n        /* \"#utility.yul\":11038:11109   */\n      tag_283\n      jump\t// in\n    tag_443:\n        /* \"#utility.yul\":11119:11191   */\n      tag_444\n        /* \"#utility.yul\":11187:11189   */\n      0x20\n        /* \"#utility.yul\":11176:11185   */\n      dup4\n        /* \"#utility.yul\":11172:11190   */\n      add\n        /* \"#utility.yul\":11163:11169   */\n      dup6\n        /* \"#utility.yul\":11119:11191   */\n      tag_275\n      jump\t// in\n    tag_444:\n        /* \"#utility.yul\":11201:11273   */\n      tag_445\n        /* \"#utility.yul\":11269:11271   */\n      0x40\n        /* \"#utility.yul\":11258:11267   */\n      dup4\n        /* \"#utility.yul\":11254:11272   */\n      add\n        /* \"#utility.yul\":11245:11251   */\n      dup5\n        /* \"#utility.yul\":11201:11273   */\n      tag_275\n      jump\t// in\n    tag_445:\n        /* \"#utility.yul\":10838:11280   */\n      swap5\n      swap4\n      pop\n      pop\n      pop\n      pop\n      jump\t// out\n        /* \"#utility.yul\":11286:11454   */\n    tag_310:\n        /* \"#utility.yul\":11426:11446   */\n      0x41756374696f6e206e6f74206163746976650000000000000000000000000000\n        /* \"#utility.yul\":11422:11423   */\n      0x00\n        /* \"#utility.yul\":11414:11420   */\n      dup3\n        /* \"#utility.yul\":11410:11424   */\n      add\n        /* \"#utility.yul\":11403:11447   */\n      mstore\n        /* \"#utility.yul\":11286:11454   */\n      pop\n      jump\t// out\n        /* \"#utility.yul\":11460:11826   */\n    tag_311:\n        /* \"#utility.yul\":11602:11605   */\n      0x00\n        /* \"#utility.yul\":11623:11690   */\n      tag_448\n        /* \"#utility.yul\":11687:11689   */\n      0x12\n        /* \"#utility.yul\":11682:11685   */\n      dup4\n        /* \"#utility.yul\":11623:11690   */\n      tag_302\n      jump\t// in\n    tag_448:\n        /* \"#utility.yul\":11616:11690   */\n      swap2\n      pop\n        /* \"#utility.yul\":11699:11792   */\n      tag_449\n        /* \"#utility.yul\":11788:11791   */\n      dup3\n        /* \"#utility.yul\":11699:11792   */\n      tag_310\n      jump\t// in\n    tag_449:\n        /* \"#utility.yul\":11817:11819   */\n      0x20\n        /* \"#utility.yul\":11812:11815   */\n      dup3\n        /* \"#utility.yul\":11808:11820   */\n      add\n        /* \"#utility.yul\":11801:11820   */\n      swap1\n      pop\n        /* \"#utility.yul\":11460:11826   */\n      swap2\n      swap1\n      pop\n      jump\t// out\n        /* \"#utility.yul\":11832:12251   */\n    tag_123:\n        /* \"#utility.yul\":11998:12002   */\n      0x00\n        /* \"#utility.yul\":12036:12038   */\n      0x20\n        /* \"#utility.yul\":12025:12034   */\n      dup3\n        /* \"#utility.yul\":12021:12039   */\n      add\n        /* \"#utility.yul\":12013:12039   */\n      swap1\n      pop\n        /* \"#utility.yul\":12085:12094   */\n      dup2\n        /* \"#utility.yul\":12079:12083   */\n      dup2\n        /* \"#utility.yul\":12075:12095   */\n      sub\n        /* \"#utility.yul\":12071:12072   */\n      0x00\n        /* \"#utility.yul\":12060:12069   */\n      dup4\n        /* \"#utility.yul\":12056:12073   */\n      add\n        /* \"#utility.yul\":12049:12096   */\n      mstore\n        /* \"#utility.yul\":12113:12244   */\n      tag_451\n        /* \"#utility.yul\":12239:12243   */\n      dup2\n        /* \"#utility.yul\":12113:12244   */\n      tag_311\n      jump\t// in\n    tag_451:\n        /* \"#utility.yul\":12105:12244   */\n      swap1\n      pop\n        /* \"#utility.yul\":11832:12251   */\n      swap2\n      swap1\n      pop\n      jump\t// out\n        /* \"#utility.yul\":12257:12428   */\n    tag_312:\n        /* \"#utility.yul\":12397:12420   */\n      0x41756374696f6e20616c726561647920656e6465640000000000000000000000\n        /* \"#utility.yul\":12393:12394   */\n      0x00\n        /* \"#utility.yul\":12385:12391   */\n      dup3\n        /* \"#utility.yul\":12381:12395   */\n      add\n        /* \"#utility.yul\":12374:12421   */\n      mstore\n        /* \"#utility.yul\":12257:12428   */\n      pop\n      jump\t// out\n        /* \"#utility.yul\":12434:12800   */\n    tag_313:\n        /* \"#utility.yul\":12576:12579   */\n      0x00\n        /* \"#utility.yul\":12597:12664   */\n      tag_454\n        /* \"#utility.yul\":12661:12663   */\n      0x15\n        /* \"#utility.yul\":12656:12659   */\n      dup4\n        /* \"#utility.yul\":12597:12664   */\n      tag_302\n      jump\t// in\n    tag_454:\n        /* \"#utility.yul\":12590:12664   */\n      swap2\n      pop\n        /* \"#utility.yul\":12673:12766   */\n      tag_455\n        /* \"#utility.yul\":12762:12765   */\n      dup3\n        /* \"#utility.yul\":12673:12766   */\n      tag_312\n      jump\t// in\n    tag_455:\n        /* \"#utility.yul\":12791:12793   */\n      0x20\n        /* \"#utility.yul\":12786:12789   */\n      dup3\n        /* \"#utility.yul\":12782:12794   */\n      add\n        /* \"#utility.yul\":12775:12794   */\n      swap1\n      pop\n        /* \"#utility.yul\":12434:12800   */\n      swap2\n      swap1\n      pop\n      jump\t// out\n        /* \"#utility.yul\":12806:13225   */\n    tag_126:\n        /* \"#utility.yul\":12972:12976   */\n      0x00\n        /* \"#utility.yul\":13010:13012   */\n      0x20\n        /* \"#utility.yul\":12999:13008   */\n      dup3\n        /* \"#utility.yul\":12995:13013   */\n      add\n        /* \"#utility.yul\":12987:13013   */\n      swap1\n      pop\n        /* \"#utility.yul\":13059:13068   */\n      dup2\n        /* \"#utility.yul\":13053:13057   */\n      dup2\n        /* \"#utility.yul\":13049:13069   */\n      sub\n        /* \"#utility.yul\":13045:13046   */\n      0x00\n        /* \"#utility.yul\":13034:13043   */\n      dup4\n        /* \"#utility.yul\":13030:13047   */\n      add\n        /* \"#utility.yul\":13023:13070   */\n      mstore\n        /* \"#utility.yul\":13087:13218   */\n      tag_457\n        /* \"#utility.yul\":13213:13217   */\n      dup2\n        /* \"#utility.yul\":13087:13218   */\n      tag_313\n      jump\t// in\n    tag_457:\n        /* \"#utility.yul\":13079:13218   */\n      swap1\n      pop\n        /* \"#utility.yul\":12806:13225   */\n      swap2\n      swap1\n      pop\n      jump\t// out\n        /* \"#utility.yul\":13231:13397   */\n    tag_314:\n        /* \"#utility.yul\":13371:13389   */\n      0x4f776e65722063616e6e6f742062696400000000000000000000000000000000\n        /* \"#utility.yul\":13367:13368   */\n      0x00\n        /* \"#utility.yul\":13359:13365   */\n      dup3\n        /* \"#utility.yul\":13355:13369   */\n      add\n        /* \"#utility.yul\":13348:13390   */\n      mstore\n        /* \"#utility.yul\":13231:13397   */\n      pop\n      jump\t// out\n        /* \"#utility.yul\":13403:13769   */\n    tag_315:\n        /* \"#utility.yul\":13545:13548   */\n      0x00\n        /* \"#utility.yul\":13566:13633   */\n      tag_460\n        /* \"#utility.yul\":13630:13632   */\n      0x10\n        /* \"#utility.yul\":13625:13628   */\n      dup4\n        /* \"#utility.yul\":13566:13633   */\n      tag_302\n      jump\t// in\n    tag_460:\n        /* \"#utility.yul\":13559:13633   */\n      swap2\n      pop\n        /* \"#utility.yul\":13642:13735   */\n      tag_461\n        /* \"#utility.yul\":13731:13734   */\n      dup3\n        /* \"#utility.yul\":13642:13735   */\n      tag_314\n      jump\t// in\n    tag_461:\n        /* \"#utility.yul\":13760:13762   */\n      0x20\n        /* \"#utility.yul\":13755:13758   */\n      dup3\n        /* \"#utility.yul\":13751:13763   */\n      add\n        /* \"#utility.yul\":13744:13763   */\n      swap1\n      pop\n        /* \"#utility.yul\":13403:13769   */\n      swap2\n      swap1\n      pop\n      jump\t// out\n        /* \"#utility.yul\":13775:14194   */\n    tag_130:\n        /* \"#utility.yul\":13941:13945   */\n      0x00\n        /* \"#utility.yul\":13979:13981   */\n      0x20\n        /* \"#utility.yul\":13968:13977   */\n      dup3\n        /* \"#utility.yul\":13964:13982   */\n      add\n        /* \"#utility.yul\":13956:13982   */\n      swap1\n      pop\n        /* \"#utility.yul\":14028:14037   */\n      dup2\n        /* \"#utility.yul\":14022:14026   */\n      dup2\n        /* \"#utility.yul\":14018:14038   */\n      sub\n        /* \"#utility.yul\":14014:14015   */\n      0x00\n        /* \"#utility.yul\":14003:14012   */\n      dup4\n        /* \"#utility.yul\":13999:14016   */\n      add\n        /* \"#utility.yul\":13992:14039   */\n      mstore\n        /* \"#utility.yul\":14056:14187   */\n      tag_463\n        /* \"#utility.yul\":14182:14186   */\n      dup2\n        /* \"#utility.yul\":14056:14187   */\n      tag_315\n      jump\t// in\n    tag_463:\n        /* \"#utility.yul\":14048:14187   */\n      swap1\n      pop\n        /* \"#utility.yul\":13775:14194   */\n      swap2\n      swap1\n      pop\n      jump\t// out\n        /* \"#utility.yul\":14200:14364   */\n    tag_316:\n        /* \"#utility.yul\":14340:14356   */\n      0x496e76616c696420616d6f756e74000000000000000000000000000000000000\n        /* \"#utility.yul\":14336:14337   */\n      0x00\n        /* \"#utility.yul\":14328:14334   */\n      dup3\n        /* \"#utility.yul\":14324:14338   */\n      add\n        /* \"#utility.yul\":14317:14357   */\n      mstore\n        /* \"#utility.yul\":14200:14364   */\n      pop\n      jump\t// out\n        /* \"#utility.yul\":14370:14736   */\n    tag_317:\n        /* \"#utility.yul\":14512:14515   */\n      0x00\n        /* \"#utility.yul\":14533:14600   */\n      tag_466\n        /* \"#utility.yul\":14597:14599   */\n      0x0e\n        /* \"#utility.yul\":14592:14595   */\n      dup4\n        /* \"#utility.yul\":14533:14600   */\n      tag_302\n      jump\t// in\n    tag_466:\n        /* \"#utility.yul\":14526:14600   */\n      swap2\n      pop\n        /* \"#utility.yul\":14609:14702   */\n      tag_467\n        /* \"#utility.yul\":14698:14701   */\n      dup3\n        /* \"#utility.yul\":14609:14702   */\n      tag_316\n      jump\t// in\n    tag_467:\n        /* \"#utility.yul\":14727:14729   */\n      0x20\n        /* \"#utility.yul\":14722:14725   */\n      dup3\n        /* \"#utility.yul\":14718:14730   */\n      add\n        /* \"#utility.yul\":14711:14730   */\n      swap1\n      pop\n        /* \"#utility.yul\":14370:14736   */\n      swap2\n      swap1\n      pop\n      jump\t// out\n        /* \"#utility.yul\":14742:15161   */\n    tag_134:\n        /* \"#utility.yul\":14908:14912   */\n      0x00\n        /* \"#utility.yul\":14946:14948   */\n      0x20\n        /* \"#utility.yul\":14935:14944   */\n      dup3\n        /* \"#utility.yul\":14931:14949   */\n      add\n        /* \"#utility.yul\":14923:14949   */\n      swap1\n      pop\n        /* \"#utility.yul\":14995:15004   */\n      dup2\n        /* \"#utility.yul\":14989:14993   */\n      dup2\n        /* \"#utility.yul\":14985:15005   */\n      sub\n        /* \"#utility.yul\":14981:14982   */\n      0x00\n        /* \"#utility.yul\":14970:14979   */\n      dup4\n        /* \"#utility.yul\":14966:14983   */\n      add\n        /* \"#utility.yul\":14959:15006   */\n      mstore\n        /* \"#utility.yul\":15023:15154   */\n      tag_469\n        /* \"#utility.yul\":15149:15153   */\n      dup2\n        /* \"#utility.yul\":15023:15154   */\n      tag_317\n      jump\t// in\n    tag_469:\n        /* \"#utility.yul\":15015:15154   */\n      swap1\n      pop\n        /* \"#utility.yul\":14742:15161   */\n      swap2\n      swap1\n      pop\n      jump\t// out\n        /* \"#utility.yul\":15167:15337   */\n    tag_318:\n        /* \"#utility.yul\":15307:15329   */\n      0x416c726561647920706172746963697061746564000000000000000000000000\n        /* \"#utility.yul\":15303:15304   */\n      0x00\n        /* \"#utility.yul\":15295:15301   */\n      dup3\n        /* \"#utility.yul\":15291:15305   */\n      add\n        /* \"#utility.yul\":15284:15330   */\n      mstore\n        /* \"#utility.yul\":15167:15337   */\n      pop\n      jump\t// out\n        /* \"#utility.yul\":15343:15709   */\n    tag_319:\n        /* \"#utility.yul\":15485:15488   */\n      0x00\n        /* \"#utility.yul\":15506:15573   */\n      tag_472\n        /* \"#utility.yul\":15570:15572   */\n      0x14\n        /* \"#utility.yul\":15565:15568   */\n      dup4\n        /* \"#utility.yul\":15506:15573   */\n      tag_302\n      jump\t// in\n    tag_472:\n        /* \"#utility.yul\":15499:15573   */\n      swap2\n      pop\n        /* \"#utility.yul\":15582:15675   */\n      tag_473\n        /* \"#utility.yul\":15671:15674   */\n      dup3\n        /* \"#utility.yul\":15582:15675   */\n      tag_318\n      jump\t// in\n    tag_473:\n        /* \"#utility.yul\":15700:15702   */\n      0x20\n        /* \"#utility.yul\":15695:15698   */\n      dup3\n        /* \"#utility.yul\":15691:15703   */\n      add\n        /* \"#utility.yul\":15684:15703   */\n      swap1\n      pop\n        /* \"#utility.yul\":15343:15709   */\n      swap2\n      swap1\n      pop\n      jump\t// out\n        /* \"#utility.yul\":15715:16134   */\n    tag_137:\n        /* \"#utility.yul\":15881:15885   */\n      0x00\n        /* \"#utility.yul\":15919:15921   */\n      0x20\n        /* \"#utility.yul\":15908:15917   */\n      dup3\n        /* \"#utility.yul\":15904:15922   */\n      add\n        /* \"#utility.yul\":15896:15922   */\n      swap1\n      pop\n        /* \"#utility.yul\":15968:15977   */\n      dup2\n        /* \"#utility.yul\":15962:15966   */\n      dup2\n        /* \"#utility.yul\":15958:15978   */\n      sub\n        /* \"#utility.yul\":15954:15955   */\n      0x00\n        /* \"#utility.yul\":15943:15952   */\n      dup4\n        /* \"#utility.yul\":15939:15956   */\n      add\n        /* \"#utility.yul\":15932:15979   */\n      mstore\n        /* \"#utility.yul\":15996:16127   */\n      tag_475\n        /* \"#utility.yul\":16122:16126   */\n      dup2\n        /* \"#utility.yul\":15996:16127   */\n      tag_319\n      jump\t// in\n    tag_475:\n        /* \"#utility.yul\":15988:16127   */\n      swap1\n      pop\n        /* \"#utility.yul\":15715:16134   */\n      swap2\n      swap1\n      pop\n      jump\t// out\n        /* \"#utility.yul\":16140:16306   */\n    tag_320:\n        /* \"#utility.yul\":16280:16298   */\n      0x4d61782062696473207265616368656400000000000000000000000000000000\n        /* \"#utility.yul\":16276:16277   */\n      0x00\n        /* \"#utility.yul\":16268:16274   */\n      dup3\n        /* \"#utility.yul\":16264:16278   */\n      add\n        /* \"#utility.yul\":16257:16299   */\n      mstore\n        /* \"#utility.yul\":16140:16306   */\n      pop\n      jump\t// out\n        /* \"#utility.yul\":16312:16678   */\n    tag_321:\n        /* \"#utility.yul\":16454:16457   */\n      0x00\n        /* \"#utility.yul\":16475:16542   */\n      tag_478\n        /* \"#utility.yul\":16539:16541   */\n      0x10\n        /* \"#utility.yul\":16534:16537   */\n      dup4\n        /* \"#utility.yul\":16475:16542   */\n      tag_302\n      jump\t// in\n    tag_478:\n        /* \"#utility.yul\":16468:16542   */\n      swap2\n      pop\n        /* \"#utility.yul\":16551:16644   */\n      tag_479\n        /* \"#utility.yul\":16640:16643   */\n      dup3\n        /* \"#utility.yul\":16551:16644   */\n      tag_320\n      jump\t// in\n    tag_479:\n        /* \"#utility.yul\":16669:16671   */\n      0x20\n        /* \"#utility.yul\":16664:16667   */\n      dup3\n        /* \"#utility.yul\":16660:16672   */\n      add\n        /* \"#utility.yul\":16653:16672   */\n      swap1\n      pop\n        /* \"#utility.yul\":16312:16678   */\n      swap2\n      swap1\n      pop\n      jump\t// out\n        /* \"#utility.yul\":16684:17103   */\n    tag_140:\n        /* \"#utility.yul\":16850:16854   */\n      0x00\n        /* \"#utility.yul\":16888:16890   */\n      0x20\n        /* \"#utility.yul\":16877:16886   */\n      dup3\n        /* \"#utility.yul\":16873:16891   */\n      add\n        /* \"#utility.yul\":16865:16891   */\n      swap1\n      pop\n        /* \"#utility.yul\":16937:16946   */\n      dup2\n        /* \"#utility.yul\":16931:16935   */\n      dup2\n        /* \"#utility.yul\":16927:16947   */\n      sub\n        /* \"#utility.yul\":16923:16924   */\n      0x00\n        /* \"#utility.yul\":16912:16921   */\n      dup4\n        /* \"#utility.yul\":16908:16925   */\n      add\n        /* \"#utility.yul\":16901:16948   */\n      mstore\n        /* \"#utility.yul\":16965:17096   */\n      tag_481\n        /* \"#utility.yul\":17091:17095   */\n      dup2\n        /* \"#utility.yul\":16965:17096   */\n      tag_321\n      jump\t// in\n    tag_481:\n        /* \"#utility.yul\":16957:17096   */\n      swap1\n      pop\n        /* \"#utility.yul\":16684:17103   */\n      swap2\n      swap1\n      pop\n      jump\t// out\n        /* \"#utility.yul\":17109:17519   */\n    tag_142:\n        /* \"#utility.yul\":17149:17156   */\n      0x00\n        /* \"#utility.yul\":17172:17192   */\n      tag_483\n        /* \"#utility.yul\":17190:17191   */\n      dup3\n        /* \"#utility.yul\":17172:17192   */\n      tag_274\n      jump\t// in\n    tag_483:\n        /* \"#utility.yul\":17167:17192   */\n      swap2\n      pop\n        /* \"#utility.yul\":17206:17226   */\n      tag_484\n        /* \"#utility.yul\":17224:17225   */\n      dup4\n        /* \"#utility.yul\":17206:17226   */\n      tag_274\n      jump\t// in\n    tag_484:\n        /* \"#utility.yul\":17201:17226   */\n      swap3\n      pop\n        /* \"#utility.yul\":17261:17262   */\n      dup3\n        /* \"#utility.yul\":17258:17259   */\n      dup3\n        /* \"#utility.yul\":17254:17263   */\n      mul\n        /* \"#utility.yul\":17283:17313   */\n      tag_485\n        /* \"#utility.yul\":17301:17312   */\n      dup2\n        /* \"#utility.yul\":17283:17313   */\n      tag_274\n      jump\t// in\n    tag_485:\n        /* \"#utility.yul\":17272:17313   */\n      swap2\n      pop\n        /* \"#utility.yul\":17462:17463   */\n      dup3\n        /* \"#utility.yul\":17453:17460   */\n      dup3\n        /* \"#utility.yul\":17449:17464   */\n      div\n        /* \"#utility.yul\":17446:17447   */\n      dup5\n        /* \"#utility.yul\":17443:17465   */\n      eq\n        /* \"#utility.yul\":17423:17424   */\n      dup4\n        /* \"#utility.yul\":17416:17425   */\n      iszero\n        /* \"#utility.yul\":17396:17479   */\n      or\n        /* \"#utility.yul\":17373:17512   */\n      tag_486\n      jumpi\n        /* \"#utility.yul\":17492:17510   */\n      tag_487\n      tag_309\n      jump\t// in\n    tag_487:\n        /* \"#utility.yul\":17373:17512   */\n    tag_486:\n        /* \"#utility.yul\":17157:17519   */\n      pop\n        /* \"#utility.yul\":17109:17519   */\n      swap3\n      swap2\n      pop\n      pop\n      jump\t// out\n        /* \"#utility.yul\":17525:17705   */\n    tag_322:\n        /* \"#utility.yul\":17573:17650   */\n      0x4e487b7100000000000000000000000000000000000000000000000000000000\n        /* \"#utility.yul\":17570:17571   */\n      0x00\n        /* \"#utility.yul\":17563:17651   */\n      mstore\n        /* \"#utility.yul\":17670:17674   */\n      0x12\n        /* \"#utility.yul\":17667:17668   */\n      0x04\n        /* \"#utility.yul\":17660:17675   */\n      mstore\n        /* \"#utility.yul\":17694:17698   */\n      0x24\n        /* \"#utility.yul\":17691:17692   */\n      0x00\n        /* \"#utility.yul\":17684:17699   */\n      revert\n        /* \"#utility.yul\":17711:17896   */\n    tag_144:\n        /* \"#utility.yul\":17751:17752   */\n      0x00\n        /* \"#utility.yul\":17768:17788   */\n      tag_490\n        /* \"#utility.yul\":17786:17787   */\n      dup3\n        /* \"#utility.yul\":17768:17788   */\n      tag_274\n      jump\t// in\n    tag_490:\n        /* \"#utility.yul\":17763:17788   */\n      swap2\n      pop\n        /* \"#utility.yul\":17802:17822   */\n      tag_491\n        /* \"#utility.yul\":17820:17821   */\n      dup4\n        /* \"#utility.yul\":17802:17822   */\n      tag_274\n      jump\t// in\n    tag_491:\n        /* \"#utility.yul\":17797:17822   */\n      swap3\n      pop\n        /* \"#utility.yul\":17841:17842   */\n      dup3\n        /* \"#utility.yul\":17831:17866   */\n      tag_492\n      jumpi\n        /* \"#utility.yul\":17846:17864   */\n      tag_493\n      tag_322\n      jump\t// in\n    tag_493:\n        /* \"#utility.yul\":17831:17866   */\n    tag_492:\n        /* \"#utility.yul\":17888:17889   */\n      dup3\n        /* \"#utility.yul\":17885:17886   */\n      dup3\n        /* \"#utility.yul\":17881:17890   */\n      div\n        /* \"#utility.yul\":17876:17890   */\n      swap1\n      pop\n        /* \"#utility.yul\":17711:17896   */\n      swap3\n      swap2\n      pop\n      pop\n      jump\t// out\n        /* \"#utility.yul\":17902:18072   */\n    tag_323:\n        /* \"#utility.yul\":18042:18064   */\n      0x496e73756666696369656e74206465706f736974000000000000000000000000\n        /* \"#utility.yul\":18038:18039   */\n      0x00\n        /* \"#utility.yul\":18030:18036   */\n      dup3\n        /* \"#utility.yul\":18026:18040   */\n      add\n        /* \"#utility.yul\":18019:18065   */\n      mstore\n        /* \"#utility.yul\":17902:18072   */\n      pop\n      jump\t// out\n        /* \"#utility.yul\":18078:18444   */\n    tag_324:\n        /* \"#utility.yul\":18220:18223   */\n      0x00\n        /* \"#utility.yul\":18241:18308   */\n      tag_496\n        /* \"#utility.yul\":18305:18307   */\n      0x14\n        /* \"#utility.yul\":18300:18303   */\n      dup4\n        /* \"#utility.yul\":18241:18308   */\n      tag_302\n      jump\t// in\n    tag_496:\n        /* \"#utility.yul\":18234:18308   */\n      swap2\n      pop\n        /* \"#utility.yul\":18317:18410   */\n      tag_497\n        /* \"#utility.yul\":18406:18409   */\n      dup3\n        /* \"#utility.yul\":18317:18410   */\n      tag_323\n      jump\t// in\n    tag_497:\n        /* \"#utility.yul\":18435:18437   */\n      0x20\n        /* \"#utility.yul\":18430:18433   */\n      dup3\n        /* \"#utility.yul\":18426:18438   */\n      add\n        /* \"#utility.yul\":18419:18438   */\n      swap1\n      pop\n        /* \"#utility.yul\":18078:18444   */\n      swap2\n      swap1\n      pop\n      jump\t// out\n        /* \"#utility.yul\":18450:18869   */\n    tag_147:\n        /* \"#utility.yul\":18616:18620   */\n      0x00\n        /* \"#utility.yul\":18654:18656   */\n      0x20\n        /* \"#utility.yul\":18643:18652   */\n      dup3\n        /* \"#utility.yul\":18639:18657   */\n      add\n        /* \"#utility.yul\":18631:18657   */\n      swap1\n      pop\n        /* \"#utility.yul\":18703:18712   */\n      dup2\n        /* \"#utility.yul\":18697:18701   */\n      dup2\n        /* \"#utility.yul\":18693:18713   */\n      sub\n        /* \"#utility.yul\":18689:18690   */\n      0x00\n        /* \"#utility.yul\":18678:18687   */\n      dup4\n        /* \"#utility.yul\":18674:18691   */\n      add\n        /* \"#utility.yul\":18667:18714   */\n      mstore\n        /* \"#utility.yul\":18731:18862   */\n      tag_499\n        /* \"#utility.yul\":18857:18861   */\n      dup2\n        /* \"#utility.yul\":18731:18862   */\n      tag_324\n      jump\t// in\n    tag_499:\n        /* \"#utility.yul\":18723:18862   */\n      swap1\n      pop\n        /* \"#utility.yul\":18450:18869   */\n      swap2\n      swap1\n      pop\n      jump\t// out\n        /* \"#utility.yul\":18875:19055   */\n    tag_171:\n        /* \"#utility.yul\":18923:19000   */\n      0x4e487b7100000000000000000000000000000000000000000000000000000000\n        /* \"#utility.yul\":18920:18921   */\n      0x00\n        /* \"#utility.yul\":18913:19001   */\n      mstore\n        /* \"#utility.yul\":19020:19024   */\n      0x41\n        /* \"#utility.yul\":19017:19018   */\n      0x04\n        /* \"#utility.yul\":19010:19025   */\n      mstore\n        /* \"#utility.yul\":19044:19048   */\n      0x24\n        /* \"#utility.yul\":19041:19042   */\n      0x00\n        /* \"#utility.yul\":19034:19049   */\n      revert\n        /* \"#utility.yul\":19061:19241   */\n    tag_178:\n        /* \"#utility.yul\":19109:19186   */\n      0x4e487b7100000000000000000000000000000000000000000000000000000000\n        /* \"#utility.yul\":19106:19107   */\n      0x00\n        /* \"#utility.yul\":19099:19187   */\n      mstore\n        /* \"#utility.yul\":19206:19210   */\n      0x32\n        /* \"#utility.yul\":19203:19204   */\n      0x04\n        /* \"#utility.yul\":19196:19211   */\n      mstore\n        /* \"#utility.yul\":19230:19234   */\n      0x24\n        /* \"#utility.yul\":19227:19228   */\n      0x00\n        /* \"#utility.yul\":19220:19235   */\n      revert\n        /* \"#utility.yul\":19247:19422   */\n    tag_325:\n        /* \"#utility.yul\":19387:19414   */\n      0x41756374696f6e206d7573742062652066696e616c697a656400000000000000\n        /* \"#utility.yul\":19383:19384   */\n      0x00\n        /* \"#utility.yul\":19375:19381   */\n      dup3\n        /* \"#utility.yul\":19371:19385   */\n      add\n        /* \"#utility.yul\":19364:19415   */\n      mstore\n        /* \"#utility.yul\":19247:19422   */\n      pop\n      jump\t// out\n        /* \"#utility.yul\":19428:19794   */\n    tag_326:\n        /* \"#utility.yul\":19570:19573   */\n      0x00\n        /* \"#utility.yul\":19591:19658   */\n      tag_504\n        /* \"#utility.yul\":19655:19657   */\n      0x19\n        /* \"#utility.yul\":19650:19653   */\n      dup4\n        /* \"#utility.yul\":19591:19658   */\n      tag_302\n      jump\t// in\n    tag_504:\n        /* \"#utility.yul\":19584:19658   */\n      swap2\n      pop\n        /* \"#utility.yul\":19667:19760   */\n      tag_505\n        /* \"#utility.yul\":19756:19759   */\n      dup3\n        /* \"#utility.yul\":19667:19760   */\n      tag_325\n      jump\t// in\n    tag_505:\n        /* \"#utility.yul\":19785:19787   */\n      0x20\n        /* \"#utility.yul\":19780:19783   */\n      dup3\n        /* \"#utility.yul\":19776:19788   */\n      add\n        /* \"#utility.yul\":19769:19788   */\n      swap1\n      pop\n        /* \"#utility.yul\":19428:19794   */\n      swap2\n      swap1\n      pop\n      jump\t// out\n        /* \"#utility.yul\":19800:20219   */\n    tag_192:\n        /* \"#utility.yul\":19966:19970   */\n      0x00\n        /* \"#utility.yul\":20004:20006   */\n      0x20\n        /* \"#utility.yul\":19993:20002   */\n      dup3\n        /* \"#utility.yul\":19989:20007   */\n      add\n        /* \"#utility.yul\":19981:20007   */\n      swap1\n      pop\n        /* \"#utility.yul\":20053:20062   */\n      dup2\n        /* \"#utility.yul\":20047:20051   */\n      dup2\n        /* \"#utility.yul\":20043:20063   */\n      sub\n        /* \"#utility.yul\":20039:20040   */\n      0x00\n        /* \"#utility.yul\":20028:20037   */\n      dup4\n        /* \"#utility.yul\":20024:20041   */\n      add\n        /* \"#utility.yul\":20017:20064   */\n      mstore\n        /* \"#utility.yul\":20081:20212   */\n      tag_507\n        /* \"#utility.yul\":20207:20211   */\n      dup2\n        /* \"#utility.yul\":20081:20212   */\n      tag_326\n      jump\t// in\n    tag_507:\n        /* \"#utility.yul\":20073:20212   */\n      swap1\n      pop\n        /* \"#utility.yul\":19800:20219   */\n      swap2\n      swap1\n      pop\n      jump\t// out\n        /* \"#utility.yul\":20225:20393   */\n    tag_327:\n        /* \"#utility.yul\":20365:20385   */\n      0x4e6f2066756e647320617661696c61626c650000000000000000000000000000\n        /* \"#utility.yul\":20361:20362   */\n      0x00\n        /* \"#utility.yul\":20353:20359   */\n      dup3\n        /* \"#utility.yul\":20349:20363   */\n      add\n        /* \"#utility.yul\":20342:20386   */\n      mstore\n        /* \"#utility.yul\":20225:20393   */\n      pop\n      jump\t// out\n        /* \"#utility.yul\":20399:20765   */\n    tag_328:\n        /* \"#utility.yul\":20541:20544   */\n      0x00\n        /* \"#utility.yul\":20562:20629   */\n      tag_510\n        /* \"#utility.yul\":20626:20628   */\n      0x12\n        /* \"#utility.yul\":20621:20624   */\n      dup4\n        /* \"#utility.yul\":20562:20629   */\n      tag_302\n      jump\t// in\n    tag_510:\n        /* \"#utility.yul\":20555:20629   */\n      swap2\n      pop\n        /* \"#utility.yul\":20638:20731   */\n      tag_511\n        /* \"#utility.yul\":20727:20730   */\n      dup3\n        /* \"#utility.yul\":20638:20731   */\n      tag_327\n      jump\t// in\n    tag_511:\n        /* \"#utility.yul\":20756:20758   */\n      0x20\n        /* \"#utility.yul\":20751:20754   */\n      dup3\n        /* \"#utility.yul\":20747:20759   */\n      add\n        /* \"#utility.yul\":20740:20759   */\n      swap1\n      pop\n        /* \"#utility.yul\":20399:20765   */\n      swap2\n      swap1\n      pop\n      jump\t// out\n        /* \"#utility.yul\":20771:21190   */\n    tag_195:\n        /* \"#utility.yul\":20937:20941   */\n      0x00\n        /* \"#utility.yul\":20975:20977   */\n      0x20\n        /* \"#utility.yul\":20964:20973   */\n      dup3\n        /* \"#utility.yul\":20960:20978   */\n      add\n        /* \"#utility.yul\":20952:20978   */\n      swap1\n      pop\n        /* \"#utility.yul\":21024:21033   */\n      dup2\n        /* \"#utility.yul\":21018:21022   */\n      dup2\n        /* \"#utility.yul\":21014:21034   */\n      sub\n        /* \"#utility.yul\":21010:21011   */\n      0x00\n        /* \"#utility.yul\":20999:21008   */\n      dup4\n        /* \"#utility.yul\":20995:21012   */\n      add\n        /* \"#utility.yul\":20988:21035   */\n      mstore\n        /* \"#utility.yul\":21052:21183   */\n      tag_513\n        /* \"#utility.yul\":21178:21182   */\n      dup2\n        /* \"#utility.yul\":21052:21183   */\n      tag_328\n      jump\t// in\n    tag_513:\n        /* \"#utility.yul\":21044:21183   */\n      swap1\n      pop\n        /* \"#utility.yul\":20771:21190   */\n      swap2\n      swap1\n      pop\n      jump\t// out\n        /* \"#utility.yul\":21196:21376   */\n    tag_329:\n        /* \"#utility.yul\":21336:21368   */\n      0x4177616974696e672064656c697665727920636f6e6669726d6174696f6e0000\n        /* \"#utility.yul\":21332:21333   */\n      0x00\n        /* \"#utility.yul\":21324:21330   */\n      dup3\n        /* \"#utility.yul\":21320:21334   */\n      add\n        /* \"#utility.yul\":21313:21369   */\n      mstore\n        /* \"#utility.yul\":21196:21376   */\n      pop\n      jump\t// out\n        /* \"#utility.yul\":21382:21748   */\n    tag_330:\n        /* \"#utility.yul\":21524:21527   */\n      0x00\n        /* \"#utility.yul\":21545:21612   */\n      tag_516\n        /* \"#utility.yul\":21609:21611   */\n      0x1e\n        /* \"#utility.yul\":21604:21607   */\n      dup4\n        /* \"#utility.yul\":21545:21612   */\n      tag_302\n      jump\t// in\n    tag_516:\n        /* \"#utility.yul\":21538:21612   */\n      swap2\n      pop\n        /* \"#utility.yul\":21621:21714   */\n      tag_517\n        /* \"#utility.yul\":21710:21713   */\n      dup3\n        /* \"#utility.yul\":21621:21714   */\n      tag_329\n      jump\t// in\n    tag_517:\n        /* \"#utility.yul\":21739:21741   */\n      0x20\n        /* \"#utility.yul\":21734:21737   */\n      dup3\n        /* \"#utility.yul\":21730:21742   */\n      add\n        /* \"#utility.yul\":21723:21742   */\n      swap1\n      pop\n        /* \"#utility.yul\":21382:21748   */\n      swap2\n      swap1\n      pop\n      jump\t// out\n        /* \"#utility.yul\":21754:22173   */\n    tag_200:\n        /* \"#utility.yul\":21920:21924   */\n      0x00\n        /* \"#utility.yul\":21958:21960   */\n      0x20\n        /* \"#utility.yul\":21947:21956   */\n      dup3\n        /* \"#utility.yul\":21943:21961   */\n      add\n        /* \"#utility.yul\":21935:21961   */\n      swap1\n      pop\n        /* \"#utility.yul\":22007:22016   */\n      dup2\n        /* \"#utility.yul\":22001:22005   */\n      dup2\n        /* \"#utility.yul\":21997:22017   */\n      sub\n        /* \"#utility.yul\":21993:21994   */\n      0x00\n        /* \"#utility.yul\":21982:21991   */\n      dup4\n        /* \"#utility.yul\":21978:21995   */\n      add\n        /* \"#utility.yul\":21971:22018   */\n      mstore\n        /* \"#utility.yul\":22035:22166   */\n      tag_519\n        /* \"#utility.yul\":22161:22165   */\n      dup2\n        /* \"#utility.yul\":22035:22166   */\n      tag_330\n      jump\t// in\n    tag_519:\n        /* \"#utility.yul\":22027:22166   */\n      swap1\n      pop\n        /* \"#utility.yul\":21754:22173   */\n      swap2\n      swap1\n      pop\n      jump\t// out\n        /* \"#utility.yul\":22179:22511   */\n    tag_204:\n        /* \"#utility.yul\":22300:22304   */\n      0x00\n        /* \"#utility.yul\":22338:22340   */\n      0x40\n        /* \"#utility.yul\":22327:22336   */\n      dup3\n        /* \"#utility.yul\":22323:22341   */\n      add\n        /* \"#utility.yul\":22315:22341   */\n      swap1\n      pop\n        /* \"#utility.yul\":22351:22422   */\n      tag_521\n        /* \"#utility.yul\":22419:22420   */\n      0x00\n        /* \"#utility.yul\":22408:22417   */\n      dup4\n        /* \"#utility.yul\":22404:22421   */\n      add\n        /* \"#utility.yul\":22395:22401   */\n      dup6\n        /* \"#utility.yul\":22351:22422   */\n      tag_283\n      jump\t// in\n    tag_521:\n        /* \"#utility.yul\":22432:22504   */\n      tag_522\n        /* \"#utility.yul\":22500:22502   */\n      0x20\n        /* \"#utility.yul\":22489:22498   */\n      dup4\n        /* \"#utility.yul\":22485:22503   */\n      add\n        /* \"#utility.yul\":22476:22482   */\n      dup5\n        /* \"#utility.yul\":22432:22504   */\n      tag_275\n      jump\t// in\n    tag_522:\n        /* \"#utility.yul\":22179:22511   */\n      swap4\n      swap3\n      pop\n      pop\n      pop\n      jump\t// out\n        /* \"#utility.yul\":22517:22687   */\n    tag_331:\n        /* \"#utility.yul\":22657:22679   */\n      0x41756374696f6e207374696c6c20616374697665000000000000000000000000\n        /* \"#utility.yul\":22653:22654   */\n      0x00\n        /* \"#utility.yul\":22645:22651   */\n      dup3\n        /* \"#utility.yul\":22641:22655   */\n      add\n        /* \"#utility.yul\":22634:22680   */\n      mstore\n        /* \"#utility.yul\":22517:22687   */\n      pop\n      jump\t// out\n        /* \"#utility.yul\":22693:23059   */\n    tag_332:\n        /* \"#utility.yul\":22835:22838   */\n      0x00\n        /* \"#utility.yul\":22856:22923   */\n      tag_525\n        /* \"#utility.yul\":22920:22922   */\n      0x14\n        /* \"#utility.yul\":22915:22918   */\n      dup4\n        /* \"#utility.yul\":22856:22923   */\n      tag_302\n      jump\t// in\n    tag_525:\n        /* \"#utility.yul\":22849:22923   */\n      swap2\n      pop\n        /* \"#utility.yul\":22932:23025   */\n      tag_526\n        /* \"#utility.yul\":23021:23024   */\n      dup3\n        /* \"#utility.yul\":22932:23025   */\n      tag_331\n      jump\t// in\n    tag_526:\n        /* \"#utility.yul\":23050:23052   */\n      0x20\n        /* \"#utility.yul\":23045:23048   */\n      dup3\n        /* \"#utility.yul\":23041:23053   */\n      add\n        /* \"#utility.yul\":23034:23053   */\n      swap1\n      pop\n        /* \"#utility.yul\":22693:23059   */\n      swap2\n      swap1\n      pop\n      jump\t// out\n        /* \"#utility.yul\":23065:23484   */\n    tag_215:\n        /* \"#utility.yul\":23231:23235   */\n      0x00\n        /* \"#utility.yul\":23269:23271   */\n      0x20\n        /* \"#utility.yul\":23258:23267   */\n      dup3\n        /* \"#utility.yul\":23254:23272   */\n      add\n        /* \"#utility.yul\":23246:23272   */\n      swap1\n      pop\n        /* \"#utility.yul\":23318:23327   */\n      dup2\n        /* \"#utility.yul\":23312:23316   */\n      dup2\n        /* \"#utility.yul\":23308:23328   */\n      sub\n        /* \"#utility.yul\":23304:23305   */\n      0x00\n        /* \"#utility.yul\":23293:23302   */\n      dup4\n        /* \"#utility.yul\":23289:23306   */\n      add\n        /* \"#utility.yul\":23282:23329   */\n      mstore\n        /* \"#utility.yul\":23346:23477   */\n      tag_528\n        /* \"#utility.yul\":23472:23476   */\n      dup2\n        /* \"#utility.yul\":23346:23477   */\n      tag_332\n      jump\t// in\n    tag_528:\n        /* \"#utility.yul\":23338:23477   */\n      swap1\n      pop\n        /* \"#utility.yul\":23065:23484   */\n      swap2\n      swap1\n      pop\n      jump\t// out\n        /* \"#utility.yul\":23490:23665   */\n    tag_333:\n        /* \"#utility.yul\":23630:23657   */\n      0x41756374696f6e20616c72656164792066696e616c697a656400000000000000\n        /* \"#utility.yul\":23626:23627   */\n      0x00\n        /* \"#utility.yul\":23618:23624   */\n      dup3\n        /* \"#utility.yul\":23614:23628   */\n      add\n        /* \"#utility.yul\":23607:23658   */\n      mstore\n        /* \"#utility.yul\":23490:23665   */\n      pop\n      jump\t// out\n        /* \"#utility.yul\":23671:24037   */\n    tag_334:\n        /* \"#utility.yul\":23813:23816   */\n      0x00\n        /* \"#utility.yul\":23834:23901   */\n      tag_531\n        /* \"#utility.yul\":23898:23900   */\n      0x19\n        /* \"#utility.yul\":23893:23896   */\n      dup4\n        /* \"#utility.yul\":23834:23901   */\n      tag_302\n      jump\t// in\n    tag_531:\n        /* \"#utility.yul\":23827:23901   */\n      swap2\n      pop\n        /* \"#utility.yul\":23910:24003   */\n      tag_532\n        /* \"#utility.yul\":23999:24002   */\n      dup3\n        /* \"#utility.yul\":23910:24003   */\n      tag_333\n      jump\t// in\n    tag_532:\n        /* \"#utility.yul\":24028:24030   */\n      0x20\n        /* \"#utility.yul\":24023:24026   */\n      dup3\n        /* \"#utility.yul\":24019:24031   */\n      add\n        /* \"#utility.yul\":24012:24031   */\n      swap1\n      pop\n        /* \"#utility.yul\":23671:24037   */\n      swap2\n      swap1\n      pop\n      jump\t// out\n        /* \"#utility.yul\":24043:24462   */\n    tag_218:\n        /* \"#utility.yul\":24209:24213   */\n      0x00\n        /* \"#utility.yul\":24247:24249   */\n      0x20\n        /* \"#utility.yul\":24236:24245   */\n      dup3\n        /* \"#utility.yul\":24232:24250   */\n      add\n        /* \"#utility.yul\":24224:24250   */\n      swap1\n      pop\n        /* \"#utility.yul\":24296:24305   */\n      dup2\n        /* \"#utility.yul\":24290:24294   */\n      dup2\n        /* \"#utility.yul\":24286:24306   */\n      sub\n        /* \"#utility.yul\":24282:24283   */\n      0x00\n        /* \"#utility.yul\":24271:24280   */\n      dup4\n        /* \"#utility.yul\":24267:24284   */\n      add\n        /* \"#utility.yul\":24260:24307   */\n      mstore\n        /* \"#utility.yul\":24324:24455   */\n      tag_534\n        /* \"#utility.yul\":24450:24454   */\n      dup2\n        /* \"#utility.yul\":24324:24455   */\n      tag_334\n      jump\t// in\n    tag_534:\n        /* \"#utility.yul\":24316:24455   */\n      swap1\n      pop\n        /* \"#utility.yul\":24043:24462   */\n      swap2\n      swap1\n      pop\n      jump\t// out\n        /* \"#utility.yul\":24468:24662   */\n    tag_226:\n        /* \"#utility.yul\":24508:24512   */\n      0x00\n        /* \"#utility.yul\":24528:24548   */\n      tag_536\n        /* \"#utility.yul\":24546:24547   */\n      dup3\n        /* \"#utility.yul\":24528:24548   */\n      tag_274\n      jump\t// in\n    tag_536:\n        /* \"#utility.yul\":24523:24548   */\n      swap2\n      pop\n        /* \"#utility.yul\":24562:24582   */\n      tag_537\n        /* \"#utility.yul\":24580:24581   */\n      dup4\n        /* \"#utility.yul\":24562:24582   */\n      tag_274\n      jump\t// in\n    tag_537:\n        /* \"#utility.yul\":24557:24582   */\n      swap3\n      pop\n        /* \"#utility.yul\":24606:24607   */\n      dup3\n        /* \"#utility.yul\":24603:24604   */\n      dup3\n        /* \"#utility.yul\":24599:24608   */\n      sub\n        /* \"#utility.yul\":24591:24608   */\n      swap1\n      pop\n        /* \"#utility.yul\":24630:24631   */\n      dup2\n        /* \"#utility.yul\":24624:24628   */\n      dup2\n        /* \"#utility.yul\":24621:24632   */\n      gt\n        /* \"#utility.yul\":24618:24655   */\n      iszero\n      tag_538\n      jumpi\n        /* \"#utility.yul\":24635:24653   */\n      tag_539\n      tag_309\n      jump\t// in\n    tag_539:\n        /* \"#utility.yul\":24618:24655   */\n    tag_538:\n        /* \"#utility.yul\":24468:24662   */\n      swap3\n      swap2\n      pop\n      pop\n      jump\t// out\n        /* \"#utility.yul\":24668:24849   */\n    tag_335:\n        /* \"#utility.yul\":24808:24841   */\n      0x5265656e7472616e637947756172643a207265656e7472616e742063616c6c00\n        /* \"#utility.yul\":24804:24805   */\n      0x00\n        /* \"#utility.yul\":24796:24802   */\n      dup3\n        /* \"#utility.yul\":24792:24806   */\n      add\n        /* \"#utility.yul\":24785:24842   */\n      mstore\n        /* \"#utility.yul\":24668:24849   */\n      pop\n      jump\t// out\n        /* \"#utility.yul\":24855:25221   */\n    tag_336:\n        /* \"#utility.yul\":24997:25000   */\n      0x00\n        /* \"#utility.yul\":25018:25085   */\n      tag_542\n        /* \"#utility.yul\":25082:25084   */\n      0x1f\n        /* \"#utility.yul\":25077:25080   */\n      dup4\n        /* \"#utility.yul\":25018:25085   */\n      tag_302\n      jump\t// in\n    tag_542:\n        /* \"#utility.yul\":25011:25085   */\n      swap2\n      pop\n        /* \"#utility.yul\":25094:25187   */\n      tag_543\n        /* \"#utility.yul\":25183:25186   */\n      dup3\n        /* \"#utility.yul\":25094:25187   */\n      tag_335\n      jump\t// in\n    tag_543:\n        /* \"#utility.yul\":25212:25214   */\n      0x20\n        /* \"#utility.yul\":25207:25210   */\n      dup3\n        /* \"#utility.yul\":25203:25215   */\n      add\n        /* \"#utility.yul\":25196:25215   */\n      swap1\n      pop\n        /* \"#utility.yul\":24855:25221   */\n      swap2\n      swap1\n      pop\n      jump\t// out\n        /* \"#utility.yul\":25227:25646   */\n    tag_267:\n        /* \"#utility.yul\":25393:25397   */\n      0x00\n        /* \"#utility.yul\":25431:25433   */\n      0x20\n        /* \"#utility.yul\":25420:25429   */\n      dup3\n        /* \"#utility.yul\":25416:25434   */\n      add\n        /* \"#utility.yul\":25408:25434   */\n      swap1\n      pop\n        /* \"#utility.yul\":25480:25489   */\n      dup2\n        /* \"#utility.yul\":25474:25478   */\n      dup2\n        /* \"#utility.yul\":25470:25490   */\n      sub\n        /* \"#utility.yul\":25466:25467   */\n      0x00\n        /* \"#utility.yul\":25455:25464   */\n      dup4\n        /* \"#utility.yul\":25451:25468   */\n      add\n        /* \"#utility.yul\":25444:25491   */\n      mstore\n        /* \"#utility.yul\":25508:25639   */\n      tag_545\n        /* \"#utility.yul\":25634:25638   */\n      dup2\n        /* \"#utility.yul\":25508:25639   */\n      tag_336\n      jump\t// in\n    tag_545:\n        /* \"#utility.yul\":25500:25639   */\n      swap1\n      pop\n        /* \"#utility.yul\":25227:25646   */\n      swap2\n      swap1\n      pop\n      jump\t// out\n\n    auxdata: 0xa26469706673582212201f272bc6e0fa938710cdbddcfcb8d3a93d8637ad64a94519f60059bf1b5df64864736f6c634300081e0033\n}\n",
				"bytecode": {
					"linkReferences": {},
					"object": "608060405260405161295138038061295183398181016040528101906100259190610144565b60015f8190555081831061006e576040517f08c379a0000000000000000000000000000000000000000000000000000000008152600401610065906101ee565b60405180910390fd5b8034146100b0576040517f08c379a00000000000000000000000000000000000000000000000000000000081526004016100a790610256565b60405180910390fd5b3360015f6101000a81548173ffffffffffffffffffffffffffffffffffffffff021916908373ffffffffffffffffffffffffffffffffffffffff160217905550826002819055508160038190555080600481905550505050610274565b5f5ffd5b5f819050919050565b61012381610111565b811461012d575f5ffd5b50565b5f8151905061013e8161011a565b92915050565b5f5f5f6060848603121561015b5761015a61010d565b5b5f61016886828701610130565b935050602061017986828701610130565b925050604061018a86828701610130565b9150509250925092565b5f82825260208201905092915050565b7f496e76616c6964206461746573000000000000000000000000000000000000005f82015250565b5f6101d8600d83610194565b91506101e3826101a4565b602082019050919050565b5f6020820190508181035f830152610205816101cc565b9050919050565b7f4d6178206465706f7369742072657175697265640000000000000000000000005f82015250565b5f610240601483610194565b915061024b8261020c565b602082019050919050565b5f6020820190508181035f83015261026d81610234565b9050919050565b6126d0806102815f395ff3fe6080604052600436106100fd575f3560e01c80638da5cb5b11610094578063dfbf53ae11610063578063dfbf53ae146102ea578063e38d6b5c14610314578063ee38db951461033e578063ef731be314610354578063f77282ab1461037e576100fd565b80638da5cb5b14610241578063931719001461026b578063b81c78ec14610295578063c35905c6146102c0576100fd565b80635e10177b116100d05780635e10177b1461019957806362ea82db146101af57806378e97925146101ed5780638643337414610217576100fd565b80633197cbb61461010157806335c1d3491461012b57806336d6a26d14610167578063454a2ab31461017d575b5f5ffd5b34801561010c575f5ffd5b50610115610394565b6040516101229190611af9565b60405180910390f35b348015610136575f5ffd5b50610151600480360381019061014c9190611b40565b61039a565b60405161015e9190611baa565b60405180910390f35b348015610172575f5ffd5b5061017b6103d5565b005b61019760048036038101906101929190611b40565b6106e5565b005b3480156101a4575f5ffd5b506101ad610a65565b005b3480156101ba575f5ffd5b506101d560048036038101906101d09190611bed565b610d75565b6040516101e493929190611c18565b60405180910390f35b3480156101f8575f5ffd5b50610201610d9b565b60405161020e9190611af9565b60405180910390f35b348015610222575f5ffd5b5061022b610da1565b6040516102389190611c67565b60405180910390f35b34801561024c575f5ffd5b50610255610db4565b6040516102629190611baa565b60405180910390f35b348015610276575f5ffd5b5061027f610dd9565b60405161028c9190611c67565b60405180910390f35b3480156102a0575f5ffd5b506102a9610dec565b6040516102b7929190611dee565b60405180910390f35b3480156102cb575f5ffd5b506102d461101a565b6040516102e19190611af9565b60405180910390f35b3480156102f5575f5ffd5b506102fe611020565b60405161030b9190611baa565b60405180910390f35b34801561031f575f5ffd5b50610328611045565b6040516103359190611af9565b60405180910390f35b348015610349575f5ffd5b5061035261104b565b005b34801561035f575f5ffd5b506103686112fe565b6040516103759190611c67565b60405180910390f35b348015610389575f5ffd5b50610392611311565b005b60035481565b600881815481106103a9575f80fd5b905f5260205f20015f915054906101000a900473ffffffffffffffffffffffffffffffffffffffff1681565b60015f9054906101000a900473ffffffffffffffffffffffffffffffffffffffff1673ffffffffffffffffffffffffffffffffffffffff163373ffffffffffffffffffffffffffffffffffffffff1614610464576040517f08c379a000000000000000000000000000000000000000000000000000000000815260040161045b90611e7d565b60405180910390fd5b61046c611a52565b600660149054906101000a900460ff166104bb576040517f08c379a00000000000000000000000000000000000000000000000000000000081526004016104b290611ee5565b60405180910390fd5b600660159054906101000a900460ff161580156104e55750600660169054906101000a900460ff16155b610524576040517f08c379a000000000000000000000000000000000000000000000000000000000815260040161051b90611f4d565b60405180910390fd5b6001600660166101000a81548160ff0219169083151502179055505f60075f60065f9054906101000a900473ffffffffffffffffffffffffffffffffffffffff1673ffffffffffffffffffffffffffffffffffffffff1673ffffffffffffffffffffffffffffffffffffffff1681526020019081526020015f206001015490505f60075f60065f9054906101000a900473ffffffffffffffffffffffffffffffffffffffff1673ffffffffffffffffffffffffffffffffffffffff1673ffffffffffffffffffffffffffffffffffffffff1681526020019081526020015f206001018190555060015f9054906101000a900473ffffffffffffffffffffffffffffffffffffffff1673ffffffffffffffffffffffffffffffffffffffff166108fc826005546106539190611f98565b90811502906040515f60405180830381858888f1935050505015801561067b573d5f5f3e3d5ffd5b507f3182579e603ab9c5a5e9fb5e63edead00f7e5b2088030e7c1ace31db3f88418d60065f9054906101000a900473ffffffffffffffffffffffffffffffffffffffff16600554836040516106d293929190611fcb565b60405180910390a1506106e3611a9f565b565b60025442101580156106f957506003544211155b610738576040517f08c379a000000000000000000000000000000000000000000000000000000000815260040161072f9061204a565b60405180910390fd5b600660149054906101000a900460ff1615610788576040517f08c379a000000000000000000000000000000000000000000000000000000000815260040161077f906120b2565b60405180910390fd5b60015f9054906101000a900473ffffffffffffffffffffffffffffffffffffffff1673ffffffffffffffffffffffffffffffffffffffff163373ffffffffffffffffffffffffffffffffffffffff1603610817576040517f08c379a000000000000000000000000000000000000000000000000000000000815260040161080e9061211a565b60405180910390fd5b5f8111801561082857506004548111155b610867576040517f08c379a000000000000000000000000000000000000000000000000000000000815260040161085e90612182565b60405180910390fd5b5f60075f3373ffffffffffffffffffffffffffffffffffffffff1673ffffffffffffffffffffffffffffffffffffffff1681526020019081526020015f205f0154146108e8576040517f08c379a00000000000000000000000000000000000000000000000000000000081526004016108df906121ea565b60405180910390fd5b601e60088054905010610930576040517f08c379a000000000000000000000000000000000000000000000000000000000815260040161092790612252565b60405180910390fd5b6064600a8261093f9190612270565b61094991906122de565b34101561098b576040517f08c379a000000000000000000000000000000000000000000000000000000000815260040161098290612358565b60405180910390fd5b60405180606001604052808281526020013481526020014281525060075f3373ffffffffffffffffffffffffffffffffffffffff1673ffffffffffffffffffffffffffffffffffffffff1681526020019081526020015f205f820151815f01556020820151816001015560408201518160020155905050600833908060018154018082558091505060019003905f5260205f20015f9091909190916101000a81548173ffffffffffffffffffffffffffffffffffffffff021916908373ffffffffffffffffffffffffffffffffffffffff16021790555050565b60015f9054906101000a900473ffffffffffffffffffffffffffffffffffffffff1673ffffffffffffffffffffffffffffffffffffffff163373ffffffffffffffffffffffffffffffffffffffff1614610af4576040517f08c379a0000000000000000000000000000000000000000000000000000000008152600401610aeb90611e7d565b60405180910390fd5b610afc611a52565b600660149054906101000a900460ff16610b4b576040517f08c379a0000000000000000000000000000000000000000000000000000000008152600401610b4290611ee5565b60405180910390fd5b600660159054906101000a900460ff16158015610b755750600660169054906101000a900460ff16155b610bb4576040517f08c379a0000000000000000000000000000000000000000000000000000000008152600401610bab90611f4d565b60405180910390fd5b6001600660156101000a81548160ff0219169083151502179055505f60075f60065f9054906101000a900473ffffffffffffffffffffffffffffffffffffffff1673ffffffffffffffffffffffffffffffffffffffff1673ffffffffffffffffffffffffffffffffffffffff1681526020019081526020015f206001015490505f60075f60065f9054906101000a900473ffffffffffffffffffffffffffffffffffffffff1673ffffffffffffffffffffffffffffffffffffffff1673ffffffffffffffffffffffffffffffffffffffff1681526020019081526020015f206001018190555060065f9054906101000a900473ffffffffffffffffffffffffffffffffffffffff1673ffffffffffffffffffffffffffffffffffffffff166108fc82600554610ce39190611f98565b90811502906040515f60405180830381858888f19350505050158015610d0b573d5f5f3e3d5ffd5b507f91c4e2bbb437240699cd18f996c76ae5842de42aa9b2cebf234646a2d341e22560065f9054906101000a900473ffffffffffffffffffffffffffffffffffffffff1660055483604051610d6293929190611fcb565b60405180910390a150610d73611a9f565b565b6007602052805f5260405f205f91509050805f0154908060010154908060020154905083565b60025481565b600660149054906101000a900460ff1681565b60015f9054906101000a900473ffffffffffffffffffffffffffffffffffffffff1681565b600660159054906101000a900460ff1681565b60608060015f9054906101000a900473ffffffffffffffffffffffffffffffffffffffff1673ffffffffffffffffffffffffffffffffffffffff163373ffffffffffffffffffffffffffffffffffffffff1614610e7e576040517f08c379a0000000000000000000000000000000000000000000000000000000008152600401610e7590611e7d565b60405180910390fd5b5f60088054905067ffffffffffffffff811115610e9e57610e9d612376565b5b604051908082528060200260200182016040528015610ecc5781602001602082028036833780820191505090505b5090505f5f90505b600880549050811015610f885760075f60088381548110610ef857610ef76123a3565b5b905f5260205f20015f9054906101000a900473ffffffffffffffffffffffffffffffffffffffff1673ffffffffffffffffffffffffffffffffffffffff1673ffffffffffffffffffffffffffffffffffffffff1681526020019081526020015f205f0154828281518110610f6f57610f6e6123a3565b5b6020026020010181815250508080600101915050610ed4565b506008818180548060200260200160405190810160405280929190818152602001828054801561100a57602002820191905f5260205f20905b815f9054906101000a900473ffffffffffffffffffffffffffffffffffffffff1673ffffffffffffffffffffffffffffffffffffffff1681526020019060010190808311610fc1575b5050505050915092509250509091565b60055481565b60065f9054906101000a900473ffffffffffffffffffffffffffffffffffffffff1681565b60045481565b60015f9054906101000a900473ffffffffffffffffffffffffffffffffffffffff1673ffffffffffffffffffffffffffffffffffffffff163373ffffffffffffffffffffffffffffffffffffffff16146110da576040517f08c379a00000000000000000000000000000000000000000000000000000000081526004016110d190611e7d565b60405180910390fd5b6110e2611a52565b600660149054906101000a900460ff16611131576040517f08c379a00000000000000000000000000000000000000000000000000000000081526004016111289061241a565b60405180910390fd5b5f4711611173576040517f08c379a000000000000000000000000000000000000000000000000000000000815260040161116a90612482565b60405180910390fd5b5f73ffffffffffffffffffffffffffffffffffffffff1660065f9054906101000a900473ffffffffffffffffffffffffffffffffffffffff1673ffffffffffffffffffffffffffffffffffffffff1614806111da5750600660159054906101000a900460ff165b806111f15750600660169054906101000a900460ff165b611230576040517f08c379a0000000000000000000000000000000000000000000000000000000008152600401611227906124ea565b60405180910390fd5b5f47905060015f9054906101000a900473ffffffffffffffffffffffffffffffffffffffff1673ffffffffffffffffffffffffffffffffffffffff166108fc8290811502906040515f60405180830381858888f19350505050158015611298573d5f5f3e3d5ffd5b507feaff4b37086828766ad3268786972c0cd24259d4c87a80f9d3963a3c3d999b0d60015f9054906101000a900473ffffffffffffffffffffffffffffffffffffffff16826040516112eb929190612508565b60405180910390a1506112fc611a9f565b565b600660169054906101000a900460ff1681565b60015f9054906101000a900473ffffffffffffffffffffffffffffffffffffffff1673ffffffffffffffffffffffffffffffffffffffff163373ffffffffffffffffffffffffffffffffffffffff16146113a0576040517f08c379a000000000000000000000000000000000000000000000000000000000815260040161139790611e7d565b60405180910390fd5b6113a8611a52565b6003544211806113be5750601e60088054905010155b6113fd576040517f08c379a00000000000000000000000000000000000000000000000000000000081526004016113f490612579565b60405180910390fd5b600660149054906101000a900460ff161561144d576040517f08c379a0000000000000000000000000000000000000000000000000000000008152600401611444906125e1565b60405180910390fd5b6001600660146101000a81548160ff0219169083151502179055505f6008805490500315611a48575f60088054806020026020016040519081016040528092919081815260200182805480156114f557602002820191905f5260205f20905b815f9054906101000a900473ffffffffffffffffffffffffffffffffffffffff1673ffffffffffffffffffffffffffffffffffffffff16815260200190600101908083116114ac575b505050505090505f5f90505b6001825161150f91906125ff565b81101561174f575f6001826115249190611f98565b90505b8251811015611741575f60075f858581518110611547576115466123a3565b5b602002602001015173ffffffffffffffffffffffffffffffffffffffff1673ffffffffffffffffffffffffffffffffffffffff1681526020019081526020015f206040518060600160405290815f82015481526020016001820154815260200160028201548152505090505f60075f8685815181106115c9576115c86123a3565b5b602002602001015173ffffffffffffffffffffffffffffffffffffffff1673ffffffffffffffffffffffffffffffffffffffff1681526020019081526020015f206040518060600160405290815f8201548152602001600182015481526020016002820154815250509050805f0151825f015111806116605750805f0151825f015114801561165f575080604001518260400151115b5b1561173257848381518110611678576116776123a3565b5b6020026020010151858581518110611693576116926123a3565b5b60200260200101518686815181106116ae576116ad6123a3565b5b602002602001018786815181106116c8576116c76123a3565b5b602002602001018273ffffffffffffffffffffffffffffffffffffffff1673ffffffffffffffffffffffffffffffffffffffff168152508273ffffffffffffffffffffffffffffffffffffffff1673ffffffffffffffffffffffffffffffffffffffff1681525050505b50508080600101915050611527565b508080600101915050611501565b50805f81518110611763576117626123a3565b5b602002602001015160065f6101000a81548173ffffffffffffffffffffffffffffffffffffffff021916908373ffffffffffffffffffffffffffffffffffffffff16021790555060016008805490501161181d5760075f60065f9054906101000a900473ffffffffffffffffffffffffffffffffffffffff1673ffffffffffffffffffffffffffffffffffffffff1673ffffffffffffffffffffffffffffffffffffffff1681526020019081526020015f205f0154611879565b60075f82600181518110611834576118336123a3565b5b602002602001015173ffffffffffffffffffffffffffffffffffffffff1673ffffffffffffffffffffffffffffffffffffffff1681526020019081526020015f205f01545b60058190555060085f61188c9190611aa8565b5f5f90505b81518110156119e9575f8282815181106118ae576118ad6123a3565b5b6020026020010151905060065f9054906101000a900473ffffffffffffffffffffffffffffffffffffffff1673ffffffffffffffffffffffffffffffffffffffff168173ffffffffffffffffffffffffffffffffffffffff16146119db575f60075f8373ffffffffffffffffffffffffffffffffffffffff1673ffffffffffffffffffffffffffffffffffffffff1681526020019081526020015f206001015490505f60075f8473ffffffffffffffffffffffffffffffffffffffff1673ffffffffffffffffffffffffffffffffffffffff1681526020019081526020015f20600101819055508173ffffffffffffffffffffffffffffffffffffffff166108fc8290811502906040515f60405180830381858888f193505050501580156119d8573d5f5f3e3d5ffd5b50505b508080600101915050611891565b507f357afab190ee87fe0ef1c717f2728d2904d9e415a069d99f4d9382873cb3279d60065f9054906101000a900473ffffffffffffffffffffffffffffffffffffffff16600554604051611a3e929190612508565b60405180910390a1505b611a50611a9f565b565b60025f5403611a96576040517f08c379a0000000000000000000000000000000000000000000000000000000008152600401611a8d9061267c565b60405180910390fd5b60025f81905550565b60015f81905550565b5080545f8255905f5260205f2090810190611ac39190611ac6565b50565b5b80821115611add575f815f905550600101611ac7565b5090565b5f819050919050565b611af381611ae1565b82525050565b5f602082019050611b0c5f830184611aea565b92915050565b5f5ffd5b611b1f81611ae1565b8114611b29575f5ffd5b50565b5f81359050611b3a81611b16565b92915050565b5f60208284031215611b5557611b54611b12565b5b5f611b6284828501611b2c565b91505092915050565b5f73ffffffffffffffffffffffffffffffffffffffff82169050919050565b5f611b9482611b6b565b9050919050565b611ba481611b8a565b82525050565b5f602082019050611bbd5f830184611b9b565b92915050565b611bcc81611b8a565b8114611bd6575f5ffd5b50565b5f81359050611be781611bc3565b92915050565b5f60208284031215611c0257611c01611b12565b5b5f611c0f84828501611bd9565b91505092915050565b5f606082019050611c2b5f830186611aea565b611c386020830185611aea565b611c456040830184611aea565b949350505050565b5f8115159050919050565b611c6181611c4d565b82525050565b5f602082019050611c7a5f830184611c58565b92915050565b5f81519050919050565b5f82825260208201905092915050565b5f819050602082019050919050565b611cb281611b8a565b82525050565b5f611cc38383611ca9565b60208301905092915050565b5f602082019050919050565b5f611ce582611c80565b611cef8185611c8a565b9350611cfa83611c9a565b805f5b83811015611d2a578151611d118882611cb8565b9750611d1c83611ccf565b925050600181019050611cfd565b5085935050505092915050565b5f81519050919050565b5f82825260208201905092915050565b5f819050602082019050919050565b611d6981611ae1565b82525050565b5f611d7a8383611d60565b60208301905092915050565b5f602082019050919050565b5f611d9c82611d37565b611da68185611d41565b9350611db183611d51565b805f5b83811015611de1578151611dc88882611d6f565b9750611dd383611d86565b925050600181019050611db4565b5085935050505092915050565b5f6040820190508181035f830152611e068185611cdb565b90508181036020830152611e1a8184611d92565b90509392505050565b5f82825260208201905092915050565b7f4f6e6c79206f776e65722063616e2063616c6c207468697300000000000000005f82015250565b5f611e67601883611e23565b9150611e7282611e33565b602082019050919050565b5f6020820190508181035f830152611e9481611e5b565b9050919050565b7f41756374696f6e206e6f7420656e6465640000000000000000000000000000005f82015250565b5f611ecf601183611e23565b9150611eda82611e9b565b602082019050919050565b5f6020820190508181035f830152611efc81611ec3565b9050919050565b7f44656c697665727920616c72656164792070726f6365737365640000000000005f82015250565b5f611f37601a83611e23565b9150611f4282611f03565b602082019050919050565b5f6020820190508181035f830152611f6481611f2b565b9050919050565b7f4e487b71000000000000000000000000000000000000000000000000000000005f52601160045260245ffd5b5f611fa282611ae1565b9150611fad83611ae1565b9250828201905080821115611fc557611fc4611f6b565b5b92915050565b5f606082019050611fde5f830186611b9b565b611feb6020830185611aea565b611ff86040830184611aea565b949350505050565b7f41756374696f6e206e6f742061637469766500000000000000000000000000005f82015250565b5f612034601283611e23565b915061203f82612000565b602082019050919050565b5f6020820190508181035f83015261206181612028565b9050919050565b7f41756374696f6e20616c726561647920656e64656400000000000000000000005f82015250565b5f61209c601583611e23565b91506120a782612068565b602082019050919050565b5f6020820190508181035f8301526120c981612090565b9050919050565b7f4f776e65722063616e6e6f7420626964000000000000000000000000000000005f82015250565b5f612104601083611e23565b915061210f826120d0565b602082019050919050565b5f6020820190508181035f830152612131816120f8565b9050919050565b7f496e76616c696420616d6f756e740000000000000000000000000000000000005f82015250565b5f61216c600e83611e23565b915061217782612138565b602082019050919050565b5f6020820190508181035f83015261219981612160565b9050919050565b7f416c7265616479207061727469636970617465640000000000000000000000005f82015250565b5f6121d4601483611e23565b91506121df826121a0565b602082019050919050565b5f6020820190508181035f830152612201816121c8565b9050919050565b7f4d617820626964732072656163686564000000000000000000000000000000005f82015250565b5f61223c601083611e23565b915061224782612208565b602082019050919050565b5f6020820190508181035f83015261226981612230565b9050919050565b5f61227a82611ae1565b915061228583611ae1565b925082820261229381611ae1565b915082820484148315176122aa576122a9611f6b565b5b5092915050565b7f4e487b71000000000000000000000000000000000000000000000000000000005f52601260045260245ffd5b5f6122e882611ae1565b91506122f383611ae1565b925082612303576123026122b1565b5b828204905092915050565b7f496e73756666696369656e74206465706f7369740000000000000000000000005f82015250565b5f612342601483611e23565b915061234d8261230e565b602082019050919050565b5f6020820190508181035f83015261236f81612336565b9050919050565b7f4e487b71000000000000000000000000000000000000000000000000000000005f52604160045260245ffd5b7f4e487b71000000000000000000000000000000000000000000000000000000005f52603260045260245ffd5b7f41756374696f6e206d7573742062652066696e616c697a6564000000000000005f82015250565b5f612404601983611e23565b915061240f826123d0565b602082019050919050565b5f6020820190508181035f830152612431816123f8565b9050919050565b7f4e6f2066756e647320617661696c61626c6500000000000000000000000000005f82015250565b5f61246c601283611e23565b915061247782612438565b602082019050919050565b5f6020820190508181035f83015261249981612460565b9050919050565b7f4177616974696e672064656c697665727920636f6e6669726d6174696f6e00005f82015250565b5f6124d4601e83611e23565b91506124df826124a0565b602082019050919050565b5f6020820190508181035f830152612501816124c8565b9050919050565b5f60408201905061251b5f830185611b9b565b6125286020830184611aea565b9392505050565b7f41756374696f6e207374696c6c206163746976650000000000000000000000005f82015250565b5f612563601483611e23565b915061256e8261252f565b602082019050919050565b5f6020820190508181035f83015261259081612557565b9050919050565b7f41756374696f6e20616c72656164792066696e616c697a6564000000000000005f82015250565b5f6125cb601983611e23565b91506125d682612597565b602082019050919050565b5f6020820190508181035f8301526125f8816125bf565b9050919050565b5f61260982611ae1565b915061261483611ae1565b925082820390508181111561262c5761262b611f6b565b5b92915050565b7f5265656e7472616e637947756172643a207265656e7472616e742063616c6c005f82015250565b5f612666601f83611e23565b915061267182612632565b602082019050919050565b5f6020820190508181035f8301526126938161265a565b905091905056fea26469706673582212201f272bc6e0fa938710cdbddcfcb8d3a93d8637ad64a94519f60059bf1b5df64864736f6c634300081e0033",
					"opcodes": "PUSH1 0x80 PUSH1 0x40 MSTORE PUSH1 0x40 MLOAD PUSH2 0x2951 CODESIZE SUB DUP1 PUSH2 0x2951 DUP4 CODECOPY DUP2 DUP2 ADD PUSH1 0x40 MSTORE DUP2 ADD SWAP1 PUSH2 0x25 SWAP2 SWAP1 PUSH2 0x144 JUMP JUMPDEST PUSH1 0x1 PUSH0 DUP2 SWAP1 SSTORE POP DUP2 DUP4 LT PUSH2 0x6E JUMPI PUSH1 0x40 MLOAD PUSH32 0x8C379A000000000000000000000000000000000000000000000000000000000 DUP2 MSTORE PUSH1 0x4 ADD PUSH2 0x65 SWAP1 PUSH2 0x1EE JUMP JUMPDEST PUSH1 0x40 MLOAD DUP1 SWAP2 SUB SWAP1 REVERT JUMPDEST DUP1 CALLVALUE EQ PUSH2 0xB0 JUMPI PUSH1 0x40 MLOAD PUSH32 0x8C379A000000000000000000000000000000000000000000000000000000000 DUP2 MSTORE PUSH1 0x4 ADD PUSH2 0xA7 SWAP1 PUSH2 0x256 JUMP JUMPDEST PUSH1 0x40 MLOAD DUP1 SWAP2 SUB SWAP1 REVERT JUMPDEST CALLER PUSH1 0x1 PUSH0 PUSH2 0x100 EXP DUP2 SLOAD DUP2 PUSH20 0xFFFFFFFFFFFFFFFFFFFFFFFFFFFFFFFFFFFFFFFF MUL NOT AND SWAP1 DUP4 PUSH20 0xFFFFFFFFFFFFFFFFFFFFFFFFFFFFFFFFFFFFFFFF AND MUL OR SWAP1 SSTORE POP DUP3 PUSH1 0x2 DUP2 SWAP1 SSTORE POP DUP2 PUSH1 0x3 DUP2 SWAP1 SSTORE POP DUP1 PUSH1 0x4 DUP2 SWAP1 SSTORE POP POP POP POP PUSH2 0x274 JUMP JUMPDEST PUSH0 PUSH0 REVERT JUMPDEST PUSH0 DUP2 SWAP1 POP SWAP2 SWAP1 POP JUMP JUMPDEST PUSH2 0x123 DUP2 PUSH2 0x111 JUMP JUMPDEST DUP2 EQ PUSH2 0x12D JUMPI PUSH0 PUSH0 REVERT JUMPDEST POP JUMP JUMPDEST PUSH0 DUP2 MLOAD SWAP1 POP PUSH2 0x13E DUP2 PUSH2 0x11A JUMP JUMPDEST SWAP3 SWAP2 POP POP JUMP JUMPDEST PUSH0 PUSH0 PUSH0 PUSH1 0x60 DUP5 DUP7 SUB SLT ISZERO PUSH2 0x15B JUMPI PUSH2 0x15A PUSH2 0x10D JUMP JUMPDEST JUMPDEST PUSH0 PUSH2 0x168 DUP7 DUP3 DUP8 ADD PUSH2 0x130 JUMP JUMPDEST SWAP4 POP POP PUSH1 0x20 PUSH2 0x179 DUP7 DUP3 DUP8 ADD PUSH2 0x130 JUMP JUMPDEST SWAP3 POP POP PUSH1 0x40 PUSH2 0x18A DUP7 DUP3 DUP8 ADD PUSH2 0x130 JUMP JUMPDEST SWAP2 POP POP SWAP3 POP SWAP3 POP SWAP3 JUMP JUMPDEST PUSH0 DUP3 DUP3 MSTORE PUSH1 0x20 DUP3 ADD SWAP1 POP SWAP3 SWAP2 POP POP JUMP JUMPDEST PUSH32 0x496E76616C696420646174657300000000000000000000000000000000000000 PUSH0 DUP3 ADD MSTORE POP JUMP JUMPDEST PUSH0 PUSH2 0x1D8 PUSH1 0xD DUP4 PUSH2 0x194 JUMP JUMPDEST SWAP2 POP PUSH2 0x1E3 DUP3 PUSH2 0x1A4 JUMP JUMPDEST PUSH1 0x20 DUP3 ADD SWAP1 POP SWAP2 SWAP1 POP JUMP JUMPDEST PUSH0 PUSH1 0x20 DUP3 ADD SWAP1 POP DUP2 DUP2 SUB PUSH0 DUP4 ADD MSTORE PUSH2 0x205 DUP2 PUSH2 0x1CC JUMP JUMPDEST SWAP1 POP SWAP2 SWAP1 POP JUMP JUMPDEST PUSH32 0x4D6178206465706F736974207265717569726564000000000000000000000000 PUSH0 DUP3 ADD MSTORE POP JUMP JUMPDEST PUSH0 PUSH2 0x240 PUSH1 0x14 DUP4 PUSH2 0x194 JUMP JUMPDEST SWAP2 POP PUSH2 0x24B DUP3 PUSH2 0x20C JUMP JUMPDEST PUSH1 0x20 DUP3 ADD SWAP1 POP SWAP2 SWAP1 POP JUMP JUMPDEST PUSH0 PUSH1 0x20 DUP3 ADD SWAP1 POP DUP2 DUP2 SUB PUSH0 DUP4 ADD MSTORE PUSH2 0x26D DUP2 PUSH2 0x234 JUMP JUMPDEST SWAP1 POP SWAP2 SWAP1 POP JUMP JUMPDEST PUSH2 0x26D0 DUP1 PUSH2 0x281 PUSH0 CODECOPY PUSH0 RETURN INVALID PUSH1 0x80 PUSH1 0x40 MSTORE PUSH1 0x4 CALLDATASIZE LT PUSH2 0xFD JUMPI PUSH0 CALLDATALOAD PUSH1 0xE0 SHR DUP1 PUSH4 0x8DA5CB5B GT PUSH2 0x94 JUMPI DUP1 PUSH4 0xDFBF53AE GT PUSH2 0x63 JUMPI DUP1 PUSH4 0xDFBF53AE EQ PUSH2 0x2EA JUMPI DUP1 PUSH4 0xE38D6B5C EQ PUSH2 0x314 JUMPI DUP1 PUSH4 0xEE38DB95 EQ PUSH2 0x33E JUMPI DUP1 PUSH4 0xEF731BE3 EQ PUSH2 0x354 JUMPI DUP1 PUSH4 0xF77282AB EQ PUSH2 0x37E JUMPI PUSH2 0xFD JUMP JUMPDEST DUP1 PUSH4 0x8DA5CB5B EQ PUSH2 0x241 JUMPI DUP1 PUSH4 0x93171900 EQ PUSH2 0x26B JUMPI DUP1 PUSH4 0xB81C78EC EQ PUSH2 0x295 JUMPI DUP1 PUSH4 0xC35905C6 EQ PUSH2 0x2C0 JUMPI PUSH2 0xFD JUMP JUMPDEST DUP1 PUSH4 0x5E10177B GT PUSH2 0xD0 JUMPI DUP1 PUSH4 0x5E10177B EQ PUSH2 0x199 JUMPI DUP1 PUSH4 0x62EA82DB EQ PUSH2 0x1AF JUMPI DUP1 PUSH4 0x78E97925 EQ PUSH2 0x1ED JUMPI DUP1 PUSH4 0x86433374 EQ PUSH2 0x217 JUMPI PUSH2 0xFD JUMP JUMPDEST DUP1 PUSH4 0x3197CBB6 EQ PUSH2 0x101 JUMPI DUP1 PUSH4 0x35C1D349 EQ PUSH2 0x12B JUMPI DUP1 PUSH4 0x36D6A26D EQ PUSH2 0x167 JUMPI DUP1 PUSH4 0x454A2AB3 EQ PUSH2 0x17D JUMPI JUMPDEST PUSH0 PUSH0 REVERT JUMPDEST CALLVALUE DUP1 ISZERO PUSH2 0x10C JUMPI PUSH0 PUSH0 REVERT JUMPDEST POP PUSH2 0x115 PUSH2 0x394 JUMP JUMPDEST PUSH1 0x40 MLOAD PUSH2 0x122 SWAP2 SWAP1 PUSH2 0x1AF9 JUMP JUMPDEST PUSH1 0x40 MLOAD DUP1 SWAP2 SUB SWAP1 RETURN JUMPDEST CALLVALUE DUP1 ISZERO PUSH2 0x136 JUMPI PUSH0 PUSH0 REVERT JUMPDEST POP PUSH2 0x151 PUSH1 0x4 DUP1 CALLDATASIZE SUB DUP2 ADD SWAP1 PUSH2 0x14C SWAP2 SWAP1 PUSH2 0x1B40 JUMP JUMPDEST PUSH2 0x39A JUMP JUMPDEST PUSH1 0x40 MLOAD PUSH2 0x15E SWAP2 SWAP1 PUSH2 0x1BAA JUMP JUMPDEST PUSH1 0x40 MLOAD DUP1 SWAP2 SUB SWAP1 RETURN JUMPDEST CALLVALUE DUP1 ISZERO PUSH2 0x172 JUMPI PUSH0 PUSH0 REVERT JUMPDEST POP PUSH2 0x17B PUSH2 0x3D5 JUMP JUMPDEST STOP JUMPDEST PUSH2 0x197 PUSH1 0x4 DUP1 CALLDATASIZE SUB DUP2 ADD SWAP1 PUSH2 0x192 SWAP2 SWAP1 PUSH2 0x1B40 JUMP JUMPDEST PUSH2 0x6E5 JUMP JUMPDEST STOP JUMPDEST CALLVALUE DUP1 ISZERO PUSH2 0x1A4 JUMPI PUSH0 PUSH0 REVERT JUMPDEST POP PUSH2 0x1AD PUSH2 0xA65 JUMP JUMPDEST STOP JUMPDEST CALLVALUE DUP1 ISZERO PUSH2 0x1BA JUMPI PUSH0 PUSH0 REVERT JUMPDEST POP PUSH2 0x1D5 PUSH1 0x4 DUP1 CALLDATASIZE SUB DUP2 ADD SWAP1 PUSH2 0x1D0 SWAP2 SWAP1 PUSH2 0x1BED JUMP JUMPDEST PUSH2 0xD75 JUMP JUMPDEST PUSH1 0x40 MLOAD PUSH2 0x1E4 SWAP4 SWAP3 SWAP2 SWAP1 PUSH2 0x1C18 JUMP JUMPDEST PUSH1 0x40 MLOAD DUP1 SWAP2 SUB SWAP1 RETURN JUMPDEST CALLVALUE DUP1 ISZERO PUSH2 0x1F8 JUMPI PUSH0 PUSH0 REVERT JUMPDEST POP PUSH2 0x201 PUSH2 0xD9B JUMP JUMPDEST PUSH1 0x40 MLOAD PUSH2 0x20E SWAP2 SWAP1 PUSH2 0x1AF9 JUMP JUMPDEST PUSH1 0x40 MLOAD DUP1 SWAP2 SUB SWAP1 RETURN JUMPDEST CALLVALUE DUP1 ISZERO PUSH2 0x222 JUMPI PUSH0 PUSH0 REVERT JUMPDEST POP PUSH2 0x22B PUSH2 0xDA1 JUMP JUMPDEST PUSH1 0x40 MLOAD PUSH2 0x238 SWAP2 SWAP1 PUSH2 0x1C67 JUMP JUMPDEST PUSH1 0x40 MLOAD DUP1 SWAP2 SUB SWAP1 RETURN JUMPDEST CALLVALUE DUP1 ISZERO PUSH2 0x24C JUMPI PUSH0 PUSH0 REVERT JUMPDEST POP PUSH2 0x255 PUSH2 0xDB4 JUMP JUMPDEST PUSH1 0x40 MLOAD PUSH2 0x262 SWAP2 SWAP1 PUSH2 0x1BAA JUMP JUMPDEST PUSH1 0x40 MLOAD DUP1 SWAP2 SUB SWAP1 RETURN JUMPDEST CALLVALUE DUP1 ISZERO PUSH2 0x276 JUMPI PUSH0 PUSH0 REVERT JUMPDEST POP PUSH2 0x27F PUSH2 0xDD9 JUMP JUMPDEST PUSH1 0x40 MLOAD PUSH2 0x28C SWAP2 SWAP1 PUSH2 0x1C67 JUMP JUMPDEST PUSH1 0x40 MLOAD DUP1 SWAP2 SUB SWAP1 RETURN JUMPDEST CALLVALUE DUP1 ISZERO PUSH2 0x2A0 JUMPI PUSH0 PUSH0 REVERT JUMPDEST POP PUSH2 0x2A9 PUSH2 0xDEC JUMP JUMPDEST PUSH1 0x40 MLOAD PUSH2 0x2B7 SWAP3 SWAP2 SWAP1 PUSH2 0x1DEE JUMP JUMPDEST PUSH1 0x40 MLOAD DUP1 SWAP2 SUB SWAP1 RETURN JUMPDEST CALLVALUE DUP1 ISZERO PUSH2 0x2CB JUMPI PUSH0 PUSH0 REVERT JUMPDEST POP PUSH2 0x2D4 PUSH2 0x101A JUMP JUMPDEST PUSH1 0x40 MLOAD PUSH2 0x2E1 SWAP2 SWAP1 PUSH2 0x1AF9 JUMP JUMPDEST PUSH1 0x40 MLOAD DUP1 SWAP2 SUB SWAP1 RETURN JUMPDEST CALLVALUE DUP1 ISZERO PUSH2 0x2F5 JUMPI PUSH0 PUSH0 REVERT JUMPDEST POP PUSH2 0x2FE PUSH2 0x1020 JUMP JUMPDEST PUSH1 0x40 MLOAD PUSH2 0x30B SWAP2 SWAP1 PUSH2 0x1BAA JUMP JUMPDEST PUSH1 0x40 MLOAD DUP1 SWAP2 SUB SWAP1 RETURN JUMPDEST CALLVALUE DUP1 ISZERO PUSH2 0x31F JUMPI PUSH0 PUSH0 REVERT JUMPDEST POP PUSH2 0x328 PUSH2 0x1045 JUMP JUMPDEST PUSH1 0x40 MLOAD PUSH2 0x335 SWAP2 SWAP1 PUSH2 0x1AF9 JUMP JUMPDEST PUSH1 0x40 MLOAD DUP1 SWAP2 SUB SWAP1 RETURN JUMPDEST CALLVALUE DUP1 ISZERO PUSH2 0x349 JUMPI PUSH0 PUSH0 REVERT JUMPDEST POP PUSH2 0x352 PUSH2 0x104B JUMP JUMPDEST STOP JUMPDEST CALLVALUE DUP1 ISZERO PUSH2 0x35F JUMPI PUSH0 PUSH0 REVERT JUMPDEST POP PUSH2 0x368 PUSH2 0x12FE JUMP JUMPDEST PUSH1 0x40 MLOAD PUSH2 0x375 SWAP2 SWAP1 PUSH2 0x1C67 JUMP JUMPDEST PUSH1 0x40 MLOAD DUP1 SWAP2 SUB SWAP1 RETURN JUMPDEST CALLVALUE DUP1 ISZERO PUSH2 0x389 JUMPI PUSH0 PUSH0 REVERT JUMPDEST POP PUSH2 0x392 PUSH2 0x1311 JUMP JUMPDEST STOP JUMPDEST PUSH1 0x3 SLOAD DUP2 JUMP JUMPDEST PUSH1 0x8 DUP2 DUP2 SLOAD DUP2 LT PUSH2 0x3A9 JUMPI PUSH0 DUP1 REVERT JUMPDEST SWAP1 PUSH0 MSTORE PUSH1 0x20 PUSH0 KECCAK256 ADD PUSH0 SWAP2 POP SLOAD SWAP1 PUSH2 0x100 EXP SWAP1 DIV PUSH20 0xFFFFFFFFFFFFFFFFFFFFFFFFFFFFFFFFFFFFFFFF AND DUP2 JUMP JUMPDEST PUSH1 0x1 PUSH0 SWAP1 SLOAD SWAP1 PUSH2 0x100 EXP SWAP1 DIV PUSH20 0xFFFFFFFFFFFFFFFFFFFFFFFFFFFFFFFFFFFFFFFF AND PUSH20 0xFFFFFFFFFFFFFFFFFFFFFFFFFFFFFFFFFFFFFFFF AND CALLER PUSH20 0xFFFFFFFFFFFFFFFFFFFFFFFFFFFFFFFFFFFFFFFF AND EQ PUSH2 0x464 JUMPI PUSH1 0x40 MLOAD PUSH32 0x8C379A000000000000000000000000000000000000000000000000000000000 DUP2 MSTORE PUSH1 0x4 ADD PUSH2 0x45B SWAP1 PUSH2 0x1E7D JUMP JUMPDEST PUSH1 0x40 MLOAD DUP1 SWAP2 SUB SWAP1 REVERT JUMPDEST PUSH2 0x46C PUSH2 0x1A52 JUMP JUMPDEST PUSH1 0x6 PUSH1 0x14 SWAP1 SLOAD SWAP1 PUSH2 0x100 EXP SWAP1 DIV PUSH1 0xFF AND PUSH2 0x4BB JUMPI PUSH1 0x40 MLOAD PUSH32 0x8C379A000000000000000000000000000000000000000000000000000000000 DUP2 MSTORE PUSH1 0x4 ADD PUSH2 0x4B2 SWAP1 PUSH2 0x1EE5 JUMP JUMPDEST PUSH1 0x40 MLOAD DUP1 SWAP2 SUB SWAP1 REVERT JUMPDEST PUSH1 0x6 PUSH1 0x15 SWAP1 SLOAD SWAP1 PUSH2 0x100 EXP SWAP1 DIV PUSH1 0xFF AND ISZERO DUP1 ISZERO PUSH2 0x4E5 JUMPI POP PUSH1 0x6 PUSH1 0x16 SWAP1 SLOAD SWAP1 PUSH2 0x100 EXP SWAP1 DIV PUSH1 0xFF AND ISZERO JUMPDEST PUSH2 0x524 JUMPI PUSH1 0x40 MLOAD PUSH32 0x8C379A000000000000000000000000000000000000000000000000000000000 DUP2 MSTORE PUSH1 0x4 ADD PUSH2 0x51B SWAP1 PUSH2 0x1F4D JUMP JUMPDEST PUSH1 0x40 MLOAD DUP1 SWAP2 SUB SWAP1 REVERT JUMPDEST PUSH1 0x1 PUSH1 0x6 PUSH1 0x16 PUSH2 0x100 EXP DUP2 SLOAD DUP2 PUSH1 0xFF MUL NOT AND SWAP1 DUP4 ISZERO ISZERO MUL OR SWAP1 SSTORE POP PUSH0 PUSH1 0x7 PUSH0 PUSH1 0x6 PUSH0 SWAP1 SLOAD SWAP1 PUSH2 0x100 EXP SWAP1 DIV PUSH20 0xFFFFFFFFFFFFFFFFFFFFFFFFFFFFFFFFFFFFFFFF AND PUSH20 0xFFFFFFFFFFFFFFFFFFFFFFFFFFFFFFFFFFFFFFFF AND PUSH20 0xFFFFFFFFFFFFFFFFFFFFFFFFFFFFFFFFFFFFFFFF AND DUP2 MSTORE PUSH1 0x20 ADD SWAP1 DUP2 MSTORE PUSH1 0x20 ADD PUSH0 KECCAK256 PUSH1 0x1 ADD SLOAD SWAP1 POP PUSH0 PUSH1 0x7 PUSH0 PUSH1 0x6 PUSH0 SWAP1 SLOAD SWAP1 PUSH2 0x100 EXP SWAP1 DIV PUSH20 0xFFFFFFFFFFFFFFFFFFFFFFFFFFFFFFFFFFFFFFFF AND PUSH20 0xFFFFFFFFFFFFFFFFFFFFFFFFFFFFFFFFFFFFFFFF AND PUSH20 0xFFFFFFFFFFFFFFFFFFFFFFFFFFFFFFFFFFFFFFFF AND DUP2 MSTORE PUSH1 0x20 ADD SWAP1 DUP2 MSTORE PUSH1 0x20 ADD PUSH0 KECCAK256 PUSH1 0x1 ADD DUP2 SWAP1 SSTORE POP PUSH1 0x1 PUSH0 SWAP1 SLOAD SWAP1 PUSH2 0x100 EXP SWAP1 DIV PUSH20 0xFFFFFFFFFFFFFFFFFFFFFFFFFFFFFFFFFFFFFFFF AND PUSH20 0xFFFFFFFFFFFFFFFFFFFFFFFFFFFFFFFFFFFFFFFF AND PUSH2 0x8FC DUP3 PUSH1 0x5 SLOAD PUSH2 0x653 SWAP2 SWAP1 PUSH2 0x1F98 JUMP JUMPDEST SWAP1 DUP2 ISZERO MUL SWAP1 PUSH1 0x40 MLOAD PUSH0 PUSH1 0x40 MLOAD DUP1 DUP4 SUB DUP2 DUP6 DUP9 DUP9 CALL SWAP4 POP POP POP POP ISZERO DUP1 ISZERO PUSH2 0x67B JUMPI RETURNDATASIZE PUSH0 PUSH0 RETURNDATACOPY RETURNDATASIZE PUSH0 REVERT JUMPDEST POP PUSH32 0x3182579E603AB9C5A5E9FB5E63EDEAD00F7E5B2088030E7C1ACE31DB3F88418D PUSH1 0x6 PUSH0 SWAP1 SLOAD SWAP1 PUSH2 0x100 EXP SWAP1 DIV PUSH20 0xFFFFFFFFFFFFFFFFFFFFFFFFFFFFFFFFFFFFFFFF AND PUSH1 0x5 SLOAD DUP4 PUSH1 0x40 MLOAD PUSH2 0x6D2 SWAP4 SWAP3 SWAP2 SWAP1 PUSH2 0x1FCB JUMP JUMPDEST PUSH1 0x40 MLOAD DUP1 SWAP2 SUB SWAP1 LOG1 POP PUSH2 0x6E3 PUSH2 0x1A9F JUMP JUMPDEST JUMP JUMPDEST PUSH1 0x2 SLOAD TIMESTAMP LT ISZERO DUP1 ISZERO PUSH2 0x6F9 JUMPI POP PUSH1 0x3 SLOAD TIMESTAMP GT ISZERO JUMPDEST PUSH2 0x738 JUMPI PUSH1 0x40 MLOAD PUSH32 0x8C379A000000000000000000000000000000000000000000000000000000000 DUP2 MSTORE PUSH1 0x4 ADD PUSH2 0x72F SWAP1 PUSH2 0x204A JUMP JUMPDEST PUSH1 0x40 MLOAD DUP1 SWAP2 SUB SWAP1 REVERT JUMPDEST PUSH1 0x6 PUSH1 0x14 SWAP1 SLOAD SWAP1 PUSH2 0x100 EXP SWAP1 DIV PUSH1 0xFF AND ISZERO PUSH2 0x788 JUMPI PUSH1 0x40 MLOAD PUSH32 0x8C379A000000000000000000000000000000000000000000000000000000000 DUP2 MSTORE PUSH1 0x4 ADD PUSH2 0x77F SWAP1 PUSH2 0x20B2 JUMP JUMPDEST PUSH1 0x40 MLOAD DUP1 SWAP2 SUB SWAP1 REVERT JUMPDEST PUSH1 0x1 PUSH0 SWAP1 SLOAD SWAP1 PUSH2 0x100 EXP SWAP1 DIV PUSH20 0xFFFFFFFFFFFFFFFFFFFFFFFFFFFFFFFFFFFFFFFF AND PUSH20 0xFFFFFFFFFFFFFFFFFFFFFFFFFFFFFFFFFFFFFFFF AND CALLER PUSH20 0xFFFFFFFFFFFFFFFFFFFFFFFFFFFFFFFFFFFFFFFF AND SUB PUSH2 0x817 JUMPI PUSH1 0x40 MLOAD PUSH32 0x8C379A000000000000000000000000000000000000000000000000000000000 DUP2 MSTORE PUSH1 0x4 ADD PUSH2 0x80E SWAP1 PUSH2 0x211A JUMP JUMPDEST PUSH1 0x40 MLOAD DUP1 SWAP2 SUB SWAP1 REVERT JUMPDEST PUSH0 DUP2 GT DUP1 ISZERO PUSH2 0x828 JUMPI POP PUSH1 0x4 SLOAD DUP2 GT ISZERO JUMPDEST PUSH2 0x867 JUMPI PUSH1 0x40 MLOAD PUSH32 0x8C379A000000000000000000000000000000000000000000000000000000000 DUP2 MSTORE PUSH1 0x4 ADD PUSH2 0x85E SWAP1 PUSH2 0x2182 JUMP JUMPDEST PUSH1 0x40 MLOAD DUP1 SWAP2 SUB SWAP1 REVERT JUMPDEST PUSH0 PUSH1 0x7 PUSH0 CALLER PUSH20 0xFFFFFFFFFFFFFFFFFFFFFFFFFFFFFFFFFFFFFFFF AND PUSH20 0xFFFFFFFFFFFFFFFFFFFFFFFFFFFFFFFFFFFFFFFF AND DUP2 MSTORE PUSH1 0x20 ADD SWAP1 DUP2 MSTORE PUSH1 0x20 ADD PUSH0 KECCAK256 PUSH0 ADD SLOAD EQ PUSH2 0x8E8 JUMPI PUSH1 0x40 MLOAD PUSH32 0x8C379A000000000000000000000000000000000000000000000000000000000 DUP2 MSTORE PUSH1 0x4 ADD PUSH2 0x8DF SWAP1 PUSH2 0x21EA JUMP JUMPDEST PUSH1 0x40 MLOAD DUP1 SWAP2 SUB SWAP1 REVERT JUMPDEST PUSH1 0x1E PUSH1 0x8 DUP1 SLOAD SWAP1 POP LT PUSH2 0x930 JUMPI PUSH1 0x40 MLOAD PUSH32 0x8C379A000000000000000000000000000000000000000000000000000000000 DUP2 MSTORE PUSH1 0x4 ADD PUSH2 0x927 SWAP1 PUSH2 0x2252 JUMP JUMPDEST PUSH1 0x40 MLOAD DUP1 SWAP2 SUB SWAP1 REVERT JUMPDEST PUSH1 0x64 PUSH1 0xA DUP3 PUSH2 0x93F SWAP2 SWAP1 PUSH2 0x2270 JUMP JUMPDEST PUSH2 0x949 SWAP2 SWAP1 PUSH2 0x22DE JUMP JUMPDEST CALLVALUE LT ISZERO PUSH2 0x98B JUMPI PUSH1 0x40 MLOAD PUSH32 0x8C379A000000000000000000000000000000000000000000000000000000000 DUP2 MSTORE PUSH1 0x4 ADD PUSH2 0x982 SWAP1 PUSH2 0x2358 JUMP JUMPDEST PUSH1 0x40 MLOAD DUP1 SWAP2 SUB SWAP1 REVERT JUMPDEST PUSH1 0x40 MLOAD DUP1 PUSH1 0x60 ADD PUSH1 0x40 MSTORE DUP1 DUP3 DUP2 MSTORE PUSH1 0x20 ADD CALLVALUE DUP2 MSTORE PUSH1 0x20 ADD TIMESTAMP DUP2 MSTORE POP PUSH1 0x7 PUSH0 CALLER PUSH20 0xFFFFFFFFFFFFFFFFFFFFFFFFFFFFFFFFFFFFFFFF AND PUSH20 0xFFFFFFFFFFFFFFFFFFFFFFFFFFFFFFFFFFFFFFFF AND DUP2 MSTORE PUSH1 0x20 ADD SWAP1 DUP2 MSTORE PUSH1 0x20 ADD PUSH0 KECCAK256 PUSH0 DUP3 ADD MLOAD DUP2 PUSH0 ADD SSTORE PUSH1 0x20 DUP3 ADD MLOAD DUP2 PUSH1 0x1 ADD SSTORE PUSH1 0x40 DUP3 ADD MLOAD DUP2 PUSH1 0x2 ADD SSTORE SWAP1 POP POP PUSH1 0x8 CALLER SWAP1 DUP1 PUSH1 0x1 DUP2 SLOAD ADD DUP1 DUP3 SSTORE DUP1 SWAP2 POP POP PUSH1 0x1 SWAP1 SUB SWAP1 PUSH0 MSTORE PUSH1 0x20 PUSH0 KECCAK256 ADD PUSH0 SWAP1 SWAP2 SWAP1 SWAP2 SWAP1 SWAP2 PUSH2 0x100 EXP DUP2 SLOAD DUP2 PUSH20 0xFFFFFFFFFFFFFFFFFFFFFFFFFFFFFFFFFFFFFFFF MUL NOT AND SWAP1 DUP4 PUSH20 0xFFFFFFFFFFFFFFFFFFFFFFFFFFFFFFFFFFFFFFFF AND MUL OR SWAP1 SSTORE POP POP JUMP JUMPDEST PUSH1 0x1 PUSH0 SWAP1 SLOAD SWAP1 PUSH2 0x100 EXP SWAP1 DIV PUSH20 0xFFFFFFFFFFFFFFFFFFFFFFFFFFFFFFFFFFFFFFFF AND PUSH20 0xFFFFFFFFFFFFFFFFFFFFFFFFFFFFFFFFFFFFFFFF AND CALLER PUSH20 0xFFFFFFFFFFFFFFFFFFFFFFFFFFFFFFFFFFFFFFFF AND EQ PUSH2 0xAF4 JUMPI PUSH1 0x40 MLOAD PUSH32 0x8C379A000000000000000000000000000000000000000000000000000000000 DUP2 MSTORE PUSH1 0x4 ADD PUSH2 0xAEB SWAP1 PUSH2 0x1E7D JUMP JUMPDEST PUSH1 0x40 MLOAD DUP1 SWAP2 SUB SWAP1 REVERT JUMPDEST PUSH2 0xAFC PUSH2 0x1A52 JUMP JUMPDEST PUSH1 0x6 PUSH1 0x14 SWAP1 SLOAD SWAP1 PUSH2 0x100 EXP SWAP1 DIV PUSH1 0xFF AND PUSH2 0xB4B JUMPI PUSH1 0x40 MLOAD PUSH32 0x8C379A000000000000000000000000000000000000000000000000000000000 DUP2 MSTORE PUSH1 0x4 ADD PUSH2 0xB42 SWAP1 PUSH2 0x1EE5 JUMP JUMPDEST PUSH1 0x40 MLOAD DUP1 SWAP2 SUB SWAP1 REVERT JUMPDEST PUSH1 0x6 PUSH1 0x15 SWAP1 SLOAD SWAP1 PUSH2 0x100 EXP SWAP1 DIV PUSH1 0xFF AND ISZERO DUP1 ISZERO PUSH2 0xB75 JUMPI POP PUSH1 0x6 PUSH1 0x16 SWAP1 SLOAD SWAP1 PUSH2 0x100 EXP SWAP1 DIV PUSH1 0xFF AND ISZERO JUMPDEST PUSH2 0xBB4 JUMPI PUSH1 0x40 MLOAD PUSH32 0x8C379A000000000000000000000000000000000000000000000000000000000 DUP2 MSTORE PUSH1 0x4 ADD PUSH2 0xBAB SWAP1 PUSH2 0x1F4D JUMP JUMPDEST PUSH1 0x40 MLOAD DUP1 SWAP2 SUB SWAP1 REVERT JUMPDEST PUSH1 0x1 PUSH1 0x6 PUSH1 0x15 PUSH2 0x100 EXP DUP2 SLOAD DUP2 PUSH1 0xFF MUL NOT AND SWAP1 DUP4 ISZERO ISZERO MUL OR SWAP1 SSTORE POP PUSH0 PUSH1 0x7 PUSH0 PUSH1 0x6 PUSH0 SWAP1 SLOAD SWAP1 PUSH2 0x100 EXP SWAP1 DIV PUSH20 0xFFFFFFFFFFFFFFFFFFFFFFFFFFFFFFFFFFFFFFFF AND PUSH20 0xFFFFFFFFFFFFFFFFFFFFFFFFFFFFFFFFFFFFFFFF AND PUSH20 0xFFFFFFFFFFFFFFFFFFFFFFFFFFFFFFFFFFFFFFFF AND DUP2 MSTORE PUSH1 0x20 ADD SWAP1 DUP2 MSTORE PUSH1 0x20 ADD PUSH0 KECCAK256 PUSH1 0x1 ADD SLOAD SWAP1 POP PUSH0 PUSH1 0x7 PUSH0 PUSH1 0x6 PUSH0 SWAP1 SLOAD SWAP1 PUSH2 0x100 EXP SWAP1 DIV PUSH20 0xFFFFFFFFFFFFFFFFFFFFFFFFFFFFFFFFFFFFFFFF AND PUSH20 0xFFFFFFFFFFFFFFFFFFFFFFFFFFFFFFFFFFFFFFFF AND PUSH20 0xFFFFFFFFFFFFFFFFFFFFFFFFFFFFFFFFFFFFFFFF AND DUP2 MSTORE PUSH1 0x20 ADD SWAP1 DUP2 MSTORE PUSH1 0x20 ADD PUSH0 KECCAK256 PUSH1 0x1 ADD DUP2 SWAP1 SSTORE POP PUSH1 0x6 PUSH0 SWAP1 SLOAD SWAP1 PUSH2 0x100 EXP SWAP1 DIV PUSH20 0xFFFFFFFFFFFFFFFFFFFFFFFFFFFFFFFFFFFFFFFF AND PUSH20 0xFFFFFFFFFFFFFFFFFFFFFFFFFFFFFFFFFFFFFFFF AND PUSH2 0x8FC DUP3 PUSH1 0x5 SLOAD PUSH2 0xCE3 SWAP2 SWAP1 PUSH2 0x1F98 JUMP JUMPDEST SWAP1 DUP2 ISZERO MUL SWAP1 PUSH1 0x40 MLOAD PUSH0 PUSH1 0x40 MLOAD DUP1 DUP4 SUB DUP2 DUP6 DUP9 DUP9 CALL SWAP4 POP POP POP POP ISZERO DUP1 ISZERO PUSH2 0xD0B JUMPI RETURNDATASIZE PUSH0 PUSH0 RETURNDATACOPY RETURNDATASIZE PUSH0 REVERT JUMPDEST POP PUSH32 0x91C4E2BBB437240699CD18F996C76AE5842DE42AA9B2CEBF234646A2D341E225 PUSH1 0x6 PUSH0 SWAP1 SLOAD SWAP1 PUSH2 0x100 EXP SWAP1 DIV PUSH20 0xFFFFFFFFFFFFFFFFFFFFFFFFFFFFFFFFFFFFFFFF AND PUSH1 0x5 SLOAD DUP4 PUSH1 0x40 MLOAD PUSH2 0xD62 SWAP4 SWAP3 SWAP2 SWAP1 PUSH2 0x1FCB JUMP JUMPDEST PUSH1 0x40 MLOAD DUP1 SWAP2 SUB SWAP1 LOG1 POP PUSH2 0xD73 PUSH2 0x1A9F JUMP JUMPDEST JUMP JUMPDEST PUSH1 0x7 PUSH1 0x20 MSTORE DUP1 PUSH0 MSTORE PUSH1 0x40 PUSH0 KECCAK256 PUSH0 SWAP2 POP SWAP1 POP DUP1 PUSH0 ADD SLOAD SWAP1 DUP1 PUSH1 0x1 ADD SLOAD SWAP1 DUP1 PUSH1 0x2 ADD SLOAD SWAP1 POP DUP4 JUMP JUMPDEST PUSH1 0x2 SLOAD DUP2 JUMP JUMPDEST PUSH1 0x6 PUSH1 0x14 SWAP1 SLOAD SWAP1 PUSH2 0x100 EXP SWAP1 DIV PUSH1 0xFF AND DUP2 JUMP JUMPDEST PUSH1 0x1 PUSH0 SWAP1 SLOAD SWAP1 PUSH2 0x100 EXP SWAP1 DIV PUSH20 0xFFFFFFFFFFFFFFFFFFFFFFFFFFFFFFFFFFFFFFFF AND DUP2 JUMP JUMPDEST PUSH1 0x6 PUSH1 0x15 SWAP1 SLOAD SWAP1 PUSH2 0x100 EXP SWAP1 DIV PUSH1 0xFF AND DUP2 JUMP JUMPDEST PUSH1 0x60 DUP1 PUSH1 0x1 PUSH0 SWAP1 SLOAD SWAP1 PUSH2 0x100 EXP SWAP1 DIV PUSH20 0xFFFFFFFFFFFFFFFFFFFFFFFFFFFFFFFFFFFFFFFF AND PUSH20 0xFFFFFFFFFFFFFFFFFFFFFFFFFFFFFFFFFFFFFFFF AND CALLER PUSH20 0xFFFFFFFFFFFFFFFFFFFFFFFFFFFFFFFFFFFFFFFF AND EQ PUSH2 0xE7E JUMPI PUSH1 0x40 MLOAD PUSH32 0x8C379A000000000000000000000000000000000000000000000000000000000 DUP2 MSTORE PUSH1 0x4 ADD PUSH2 0xE75 SWAP1 PUSH2 0x1E7D JUMP JUMPDEST PUSH1 0x40 MLOAD DUP1 SWAP2 SUB SWAP1 REVERT JUMPDEST PUSH0 PUSH1 0x8 DUP1 SLOAD SWAP1 POP PUSH8 0xFFFFFFFFFFFFFFFF DUP2 GT ISZERO PUSH2 0xE9E JUMPI PUSH2 0xE9D PUSH2 0x2376 JUMP JUMPDEST JUMPDEST PUSH1 0x40 MLOAD SWAP1 DUP1 DUP3 MSTORE DUP1 PUSH1 0x20 MUL PUSH1 0x20 ADD DUP3 ADD PUSH1 0x40 MSTORE DUP1 ISZERO PUSH2 0xECC JUMPI DUP2 PUSH1 0x20 ADD PUSH1 0x20 DUP3 MUL DUP1 CALLDATASIZE DUP4 CALLDATACOPY DUP1 DUP3 ADD SWAP2 POP POP SWAP1 POP JUMPDEST POP SWAP1 POP PUSH0 PUSH0 SWAP1 POP JUMPDEST PUSH1 0x8 DUP1 SLOAD SWAP1 POP DUP2 LT ISZERO PUSH2 0xF88 JUMPI PUSH1 0x7 PUSH0 PUSH1 0x8 DUP4 DUP2 SLOAD DUP2 LT PUSH2 0xEF8 JUMPI PUSH2 0xEF7 PUSH2 0x23A3 JUMP JUMPDEST JUMPDEST SWAP1 PUSH0 MSTORE PUSH1 0x20 PUSH0 KECCAK256 ADD PUSH0 SWAP1 SLOAD SWAP1 PUSH2 0x100 EXP SWAP1 DIV PUSH20 0xFFFFFFFFFFFFFFFFFFFFFFFFFFFFFFFFFFFFFFFF AND PUSH20 0xFFFFFFFFFFFFFFFFFFFFFFFFFFFFFFFFFFFFFFFF AND PUSH20 0xFFFFFFFFFFFFFFFFFFFFFFFFFFFFFFFFFFFFFFFF AND DUP2 MSTORE PUSH1 0x20 ADD SWAP1 DUP2 MSTORE PUSH1 0x20 ADD PUSH0 KECCAK256 PUSH0 ADD SLOAD DUP3 DUP3 DUP2 MLOAD DUP2 LT PUSH2 0xF6F JUMPI PUSH2 0xF6E PUSH2 0x23A3 JUMP JUMPDEST JUMPDEST PUSH1 0x20 MUL PUSH1 0x20 ADD ADD DUP2 DUP2 MSTORE POP POP DUP1 DUP1 PUSH1 0x1 ADD SWAP2 POP POP PUSH2 0xED4 JUMP JUMPDEST POP PUSH1 0x8 DUP2 DUP2 DUP1 SLOAD DUP1 PUSH1 0x20 MUL PUSH1 0x20 ADD PUSH1 0x40 MLOAD SWAP1 DUP2 ADD PUSH1 0x40 MSTORE DUP1 SWAP3 SWAP2 SWAP1 DUP2 DUP2 MSTORE PUSH1 0x20 ADD DUP3 DUP1 SLOAD DUP1 ISZERO PUSH2 0x100A JUMPI PUSH1 0x20 MUL DUP3 ADD SWAP2 SWAP1 PUSH0 MSTORE PUSH1 0x20 PUSH0 KECCAK256 SWAP1 JUMPDEST DUP2 PUSH0 SWAP1 SLOAD SWAP1 PUSH2 0x100 EXP SWAP1 DIV PUSH20 0xFFFFFFFFFFFFFFFFFFFFFFFFFFFFFFFFFFFFFFFF AND PUSH20 0xFFFFFFFFFFFFFFFFFFFFFFFFFFFFFFFFFFFFFFFF AND DUP2 MSTORE PUSH1 0x20 ADD SWAP1 PUSH1 0x1 ADD SWAP1 DUP1 DUP4 GT PUSH2 0xFC1 JUMPI JUMPDEST POP POP POP POP POP SWAP2 POP SWAP3 POP SWAP3 POP POP SWAP1 SWAP2 JUMP JUMPDEST PUSH1 0x5 SLOAD DUP2 JUMP JUMPDEST PUSH1 0x6 PUSH0 SWAP1 SLOAD SWAP1 PUSH2 0x100 EXP SWAP1 DIV PUSH20 0xFFFFFFFFFFFFFFFFFFFFFFFFFFFFFFFFFFFFFFFF AND DUP2 JUMP JUMPDEST PUSH1 0x4 SLOAD DUP2 JUMP JUMPDEST PUSH1 0x1 PUSH0 SWAP1 SLOAD SWAP1 PUSH2 0x100 EXP SWAP1 DIV PUSH20 0xFFFFFFFFFFFFFFFFFFFFFFFFFFFFFFFFFFFFFFFF AND PUSH20 0xFFFFFFFFFFFFFFFFFFFFFFFFFFFFFFFFFFFFFFFF AND CALLER PUSH20 0xFFFFFFFFFFFFFFFFFFFFFFFFFFFFFFFFFFFFFFFF AND EQ PUSH2 0x10DA JUMPI PUSH1 0x40 MLOAD PUSH32 0x8C379A000000000000000000000000000000000000000000000000000000000 DUP2 MSTORE PUSH1 0x4 ADD PUSH2 0x10D1 SWAP1 PUSH2 0x1E7D JUMP JUMPDEST PUSH1 0x40 MLOAD DUP1 SWAP2 SUB SWAP1 REVERT JUMPDEST PUSH2 0x10E2 PUSH2 0x1A52 JUMP JUMPDEST PUSH1 0x6 PUSH1 0x14 SWAP1 SLOAD SWAP1 PUSH2 0x100 EXP SWAP1 DIV PUSH1 0xFF AND PUSH2 0x1131 JUMPI PUSH1 0x40 MLOAD PUSH32 0x8C379A000000000000000000000000000000000000000000000000000000000 DUP2 MSTORE PUSH1 0x4 ADD PUSH2 0x1128 SWAP1 PUSH2 0x241A JUMP JUMPDEST PUSH1 0x40 MLOAD DUP1 SWAP2 SUB SWAP1 REVERT JUMPDEST PUSH0 SELFBALANCE GT PUSH2 0x1173 JUMPI PUSH1 0x40 MLOAD PUSH32 0x8C379A000000000000000000000000000000000000000000000000000000000 DUP2 MSTORE PUSH1 0x4 ADD PUSH2 0x116A SWAP1 PUSH2 0x2482 JUMP JUMPDEST PUSH1 0x40 MLOAD DUP1 SWAP2 SUB SWAP1 REVERT JUMPDEST PUSH0 PUSH20 0xFFFFFFFFFFFFFFFFFFFFFFFFFFFFFFFFFFFFFFFF AND PUSH1 0x6 PUSH0 SWAP1 SLOAD SWAP1 PUSH2 0x100 EXP SWAP1 DIV PUSH20 0xFFFFFFFFFFFFFFFFFFFFFFFFFFFFFFFFFFFFFFFF AND PUSH20 0xFFFFFFFFFFFFFFFFFFFFFFFFFFFFFFFFFFFFFFFF AND EQ DUP1 PUSH2 0x11DA JUMPI POP PUSH1 0x6 PUSH1 0x15 SWAP1 SLOAD SWAP1 PUSH2 0x100 EXP SWAP1 DIV PUSH1 0xFF AND JUMPDEST DUP1 PUSH2 0x11F1 JUMPI POP PUSH1 0x6 PUSH1 0x16 SWAP1 SLOAD SWAP1 PUSH2 0x100 EXP SWAP1 DIV PUSH1 0xFF AND JUMPDEST PUSH2 0x1230 JUMPI PUSH1 0x40 MLOAD PUSH32 0x8C379A000000000000000000000000000000000000000000000000000000000 DUP2 MSTORE PUSH1 0x4 ADD PUSH2 0x1227 SWAP1 PUSH2 0x24EA JUMP JUMPDEST PUSH1 0x40 MLOAD DUP1 SWAP2 SUB SWAP1 REVERT JUMPDEST PUSH0 SELFBALANCE SWAP1 POP PUSH1 0x1 PUSH0 SWAP1 SLOAD SWAP1 PUSH2 0x100 EXP SWAP1 DIV PUSH20 0xFFFFFFFFFFFFFFFFFFFFFFFFFFFFFFFFFFFFFFFF AND PUSH20 0xFFFFFFFFFFFFFFFFFFFFFFFFFFFFFFFFFFFFFFFF AND PUSH2 0x8FC DUP3 SWAP1 DUP2 ISZERO MUL SWAP1 PUSH1 0x40 MLOAD PUSH0 PUSH1 0x40 MLOAD DUP1 DUP4 SUB DUP2 DUP6 DUP9 DUP9 CALL SWAP4 POP POP POP POP ISZERO DUP1 ISZERO PUSH2 0x1298 JUMPI RETURNDATASIZE PUSH0 PUSH0 RETURNDATACOPY RETURNDATASIZE PUSH0 REVERT JUMPDEST POP PUSH32 0xEAFF4B37086828766AD3268786972C0CD24259D4C87A80F9D3963A3C3D999B0D PUSH1 0x1 PUSH0 SWAP1 SLOAD SWAP1 PUSH2 0x100 EXP SWAP1 DIV PUSH20 0xFFFFFFFFFFFFFFFFFFFFFFFFFFFFFFFFFFFFFFFF AND DUP3 PUSH1 0x40 MLOAD PUSH2 0x12EB SWAP3 SWAP2 SWAP1 PUSH2 0x2508 JUMP JUMPDEST PUSH1 0x40 MLOAD DUP1 SWAP2 SUB SWAP1 LOG1 POP PUSH2 0x12FC PUSH2 0x1A9F JUMP JUMPDEST JUMP JUMPDEST PUSH1 0x6 PUSH1 0x16 SWAP1 SLOAD SWAP1 PUSH2 0x100 EXP SWAP1 DIV PUSH1 0xFF AND DUP2 JUMP JUMPDEST PUSH1 0x1 PUSH0 SWAP1 SLOAD SWAP1 PUSH2 0x100 EXP SWAP1 DIV PUSH20 0xFFFFFFFFFFFFFFFFFFFFFFFFFFFFFFFFFFFFFFFF AND PUSH20 0xFFFFFFFFFFFFFFFFFFFFFFFFFFFFFFFFFFFFFFFF AND CALLER PUSH20 0xFFFFFFFFFFFFFFFFFFFFFFFFFFFFFFFFFFFFFFFF AND EQ PUSH2 0x13A0 JUMPI PUSH1 0x40 MLOAD PUSH32 0x8C379A000000000000000000000000000000000000000000000000000000000 DUP2 MSTORE PUSH1 0x4 ADD PUSH2 0x1397 SWAP1 PUSH2 0x1E7D JUMP JUMPDEST PUSH1 0x40 MLOAD DUP1 SWAP2 SUB SWAP1 REVERT JUMPDEST PUSH2 0x13A8 PUSH2 0x1A52 JUMP JUMPDEST PUSH1 0x3 SLOAD TIMESTAMP GT DUP1 PUSH2 0x13BE JUMPI POP PUSH1 0x1E PUSH1 0x8 DUP1 SLOAD SWAP1 POP LT ISZERO JUMPDEST PUSH2 0x13FD JUMPI PUSH1 0x40 MLOAD PUSH32 0x8C379A000000000000000000000000000000000000000000000000000000000 DUP2 MSTORE PUSH1 0x4 ADD PUSH2 0x13F4 SWAP1 PUSH2 0x2579 JUMP JUMPDEST PUSH1 0x40 MLOAD DUP1 SWAP2 SUB SWAP1 REVERT JUMPDEST PUSH1 0x6 PUSH1 0x14 SWAP1 SLOAD SWAP1 PUSH2 0x100 EXP SWAP1 DIV PUSH1 0xFF AND ISZERO PUSH2 0x144D JUMPI PUSH1 0x40 MLOAD PUSH32 0x8C379A000000000000000000000000000000000000000000000000000000000 DUP2 MSTORE PUSH1 0x4 ADD PUSH2 0x1444 SWAP1 PUSH2 0x25E1 JUMP JUMPDEST PUSH1 0x40 MLOAD DUP1 SWAP2 SUB SWAP1 REVERT JUMPDEST PUSH1 0x1 PUSH1 0x6 PUSH1 0x14 PUSH2 0x100 EXP DUP2 SLOAD DUP2 PUSH1 0xFF MUL NOT AND SWAP1 DUP4 ISZERO ISZERO MUL OR SWAP1 SSTORE POP PUSH0 PUSH1 0x8 DUP1 SLOAD SWAP1 POP SUB ISZERO PUSH2 0x1A48 JUMPI PUSH0 PUSH1 0x8 DUP1 SLOAD DUP1 PUSH1 0x20 MUL PUSH1 0x20 ADD PUSH1 0x40 MLOAD SWAP1 DUP2 ADD PUSH1 0x40 MSTORE DUP1 SWAP3 SWAP2 SWAP1 DUP2 DUP2 MSTORE PUSH1 0x20 ADD DUP3 DUP1 SLOAD DUP1 ISZERO PUSH2 0x14F5 JUMPI PUSH1 0x20 MUL DUP3 ADD SWAP2 SWAP1 PUSH0 MSTORE PUSH1 0x20 PUSH0 KECCAK256 SWAP1 JUMPDEST DUP2 PUSH0 SWAP1 SLOAD SWAP1 PUSH2 0x100 EXP SWAP1 DIV PUSH20 0xFFFFFFFFFFFFFFFFFFFFFFFFFFFFFFFFFFFFFFFF AND PUSH20 0xFFFFFFFFFFFFFFFFFFFFFFFFFFFFFFFFFFFFFFFF AND DUP2 MSTORE PUSH1 0x20 ADD SWAP1 PUSH1 0x1 ADD SWAP1 DUP1 DUP4 GT PUSH2 0x14AC JUMPI JUMPDEST POP POP POP POP POP SWAP1 POP PUSH0 PUSH0 SWAP1 POP JUMPDEST PUSH1 0x1 DUP3 MLOAD PUSH2 0x150F SWAP2 SWAP1 PUSH2 0x25FF JUMP JUMPDEST DUP2 LT ISZERO PUSH2 0x174F JUMPI PUSH0 PUSH1 0x1 DUP3 PUSH2 0x1524 SWAP2 SWAP1 PUSH2 0x1F98 JUMP JUMPDEST SWAP1 POP JUMPDEST DUP3 MLOAD DUP2 LT ISZERO PUSH2 0x1741 JUMPI PUSH0 PUSH1 0x7 PUSH0 DUP6 DUP6 DUP2 MLOAD DUP2 LT PUSH2 0x1547 JUMPI PUSH2 0x1546 PUSH2 0x23A3 JUMP JUMPDEST JUMPDEST PUSH1 0x20 MUL PUSH1 0x20 ADD ADD MLOAD PUSH20 0xFFFFFFFFFFFFFFFFFFFFFFFFFFFFFFFFFFFFFFFF AND PUSH20 0xFFFFFFFFFFFFFFFFFFFFFFFFFFFFFFFFFFFFFFFF AND DUP2 MSTORE PUSH1 0x20 ADD SWAP1 DUP2 MSTORE PUSH1 0x20 ADD PUSH0 KECCAK256 PUSH1 0x40 MLOAD DUP1 PUSH1 0x60 ADD PUSH1 0x40 MSTORE SWAP1 DUP2 PUSH0 DUP3 ADD SLOAD DUP2 MSTORE PUSH1 0x20 ADD PUSH1 0x1 DUP3 ADD SLOAD DUP2 MSTORE PUSH1 0x20 ADD PUSH1 0x2 DUP3 ADD SLOAD DUP2 MSTORE POP POP SWAP1 POP PUSH0 PUSH1 0x7 PUSH0 DUP7 DUP6 DUP2 MLOAD DUP2 LT PUSH2 0x15C9 JUMPI PUSH2 0x15C8 PUSH2 0x23A3 JUMP JUMPDEST JUMPDEST PUSH1 0x20 MUL PUSH1 0x20 ADD ADD MLOAD PUSH20 0xFFFFFFFFFFFFFFFFFFFFFFFFFFFFFFFFFFFFFFFF AND PUSH20 0xFFFFFFFFFFFFFFFFFFFFFFFFFFFFFFFFFFFFFFFF AND DUP2 MSTORE PUSH1 0x20 ADD SWAP1 DUP2 MSTORE PUSH1 0x20 ADD PUSH0 KECCAK256 PUSH1 0x40 MLOAD DUP1 PUSH1 0x60 ADD PUSH1 0x40 MSTORE SWAP1 DUP2 PUSH0 DUP3 ADD SLOAD DUP2 MSTORE PUSH1 0x20 ADD PUSH1 0x1 DUP3 ADD SLOAD DUP2 MSTORE PUSH1 0x20 ADD PUSH1 0x2 DUP3 ADD SLOAD DUP2 MSTORE POP POP SWAP1 POP DUP1 PUSH0 ADD MLOAD DUP3 PUSH0 ADD MLOAD GT DUP1 PUSH2 0x1660 JUMPI POP DUP1 PUSH0 ADD MLOAD DUP3 PUSH0 ADD MLOAD EQ DUP1 ISZERO PUSH2 0x165F JUMPI POP DUP1 PUSH1 0x40 ADD MLOAD DUP3 PUSH1 0x40 ADD MLOAD GT JUMPDEST JUMPDEST ISZERO PUSH2 0x1732 JUMPI DUP5 DUP4 DUP2 MLOAD DUP2 LT PUSH2 0x1678 JUMPI PUSH2 0x1677 PUSH2 0x23A3 JUMP JUMPDEST JUMPDEST PUSH1 0x20 MUL PUSH1 0x20 ADD ADD MLOAD DUP6 DUP6 DUP2 MLOAD DUP2 LT PUSH2 0x1693 JUMPI PUSH2 0x1692 PUSH2 0x23A3 JUMP JUMPDEST JUMPDEST PUSH1 0x20 MUL PUSH1 0x20 ADD ADD MLOAD DUP7 DUP7 DUP2 MLOAD DUP2 LT PUSH2 0x16AE JUMPI PUSH2 0x16AD PUSH2 0x23A3 JUMP JUMPDEST JUMPDEST PUSH1 0x20 MUL PUSH1 0x20 ADD ADD DUP8 DUP7 DUP2 MLOAD DUP2 LT PUSH2 0x16C8 JUMPI PUSH2 0x16C7 PUSH2 0x23A3 JUMP JUMPDEST JUMPDEST PUSH1 0x20 MUL PUSH1 0x20 ADD ADD DUP3 PUSH20 0xFFFFFFFFFFFFFFFFFFFFFFFFFFFFFFFFFFFFFFFF AND PUSH20 0xFFFFFFFFFFFFFFFFFFFFFFFFFFFFFFFFFFFFFFFF AND DUP2 MSTORE POP DUP3 PUSH20 0xFFFFFFFFFFFFFFFFFFFFFFFFFFFFFFFFFFFFFFFF AND PUSH20 0xFFFFFFFFFFFFFFFFFFFFFFFFFFFFFFFFFFFFFFFF AND DUP2 MSTORE POP POP POP JUMPDEST POP POP DUP1 DUP1 PUSH1 0x1 ADD SWAP2 POP POP PUSH2 0x1527 JUMP JUMPDEST POP DUP1 DUP1 PUSH1 0x1 ADD SWAP2 POP POP PUSH2 0x1501 JUMP JUMPDEST POP DUP1 PUSH0 DUP2 MLOAD DUP2 LT PUSH2 0x1763 JUMPI PUSH2 0x1762 PUSH2 0x23A3 JUMP JUMPDEST JUMPDEST PUSH1 0x20 MUL PUSH1 0x20 ADD ADD MLOAD PUSH1 0x6 PUSH0 PUSH2 0x100 EXP DUP2 SLOAD DUP2 PUSH20 0xFFFFFFFFFFFFFFFFFFFFFFFFFFFFFFFFFFFFFFFF MUL NOT AND SWAP1 DUP4 PUSH20 0xFFFFFFFFFFFFFFFFFFFFFFFFFFFFFFFFFFFFFFFF AND MUL OR SWAP1 SSTORE POP PUSH1 0x1 PUSH1 0x8 DUP1 SLOAD SWAP1 POP GT PUSH2 0x181D JUMPI PUSH1 0x7 PUSH0 PUSH1 0x6 PUSH0 SWAP1 SLOAD SWAP1 PUSH2 0x100 EXP SWAP1 DIV PUSH20 0xFFFFFFFFFFFFFFFFFFFFFFFFFFFFFFFFFFFFFFFF AND PUSH20 0xFFFFFFFFFFFFFFFFFFFFFFFFFFFFFFFFFFFFFFFF AND PUSH20 0xFFFFFFFFFFFFFFFFFFFFFFFFFFFFFFFFFFFFFFFF AND DUP2 MSTORE PUSH1 0x20 ADD SWAP1 DUP2 MSTORE PUSH1 0x20 ADD PUSH0 KECCAK256 PUSH0 ADD SLOAD PUSH2 0x1879 JUMP JUMPDEST PUSH1 0x7 PUSH0 DUP3 PUSH1 0x1 DUP2 MLOAD DUP2 LT PUSH2 0x1834 JUMPI PUSH2 0x1833 PUSH2 0x23A3 JUMP JUMPDEST JUMPDEST PUSH1 0x20 MUL PUSH1 0x20 ADD ADD MLOAD PUSH20 0xFFFFFFFFFFFFFFFFFFFFFFFFFFFFFFFFFFFFFFFF AND PUSH20 0xFFFFFFFFFFFFFFFFFFFFFFFFFFFFFFFFFFFFFFFF AND DUP2 MSTORE PUSH1 0x20 ADD SWAP1 DUP2 MSTORE PUSH1 0x20 ADD PUSH0 KECCAK256 PUSH0 ADD SLOAD JUMPDEST PUSH1 0x5 DUP2 SWAP1 SSTORE POP PUSH1 0x8 PUSH0 PUSH2 0x188C SWAP2 SWAP1 PUSH2 0x1AA8 JUMP JUMPDEST PUSH0 PUSH0 SWAP1 POP JUMPDEST DUP2 MLOAD DUP2 LT ISZERO PUSH2 0x19E9 JUMPI PUSH0 DUP3 DUP3 DUP2 MLOAD DUP2 LT PUSH2 0x18AE JUMPI PUSH2 0x18AD PUSH2 0x23A3 JUMP JUMPDEST JUMPDEST PUSH1 0x20 MUL PUSH1 0x20 ADD ADD MLOAD SWAP1 POP PUSH1 0x6 PUSH0 SWAP1 SLOAD SWAP1 PUSH2 0x100 EXP SWAP1 DIV PUSH20 0xFFFFFFFFFFFFFFFFFFFFFFFFFFFFFFFFFFFFFFFF AND PUSH20 0xFFFFFFFFFFFFFFFFFFFFFFFFFFFFFFFFFFFFFFFF AND DUP2 PUSH20 0xFFFFFFFFFFFFFFFFFFFFFFFFFFFFFFFFFFFFFFFF AND EQ PUSH2 0x19DB JUMPI PUSH0 PUSH1 0x7 PUSH0 DUP4 PUSH20 0xFFFFFFFFFFFFFFFFFFFFFFFFFFFFFFFFFFFFFFFF AND PUSH20 0xFFFFFFFFFFFFFFFFFFFFFFFFFFFFFFFFFFFFFFFF AND DUP2 MSTORE PUSH1 0x20 ADD SWAP1 DUP2 MSTORE PUSH1 0x20 ADD PUSH0 KECCAK256 PUSH1 0x1 ADD SLOAD SWAP1 POP PUSH0 PUSH1 0x7 PUSH0 DUP5 PUSH20 0xFFFFFFFFFFFFFFFFFFFFFFFFFFFFFFFFFFFFFFFF AND PUSH20 0xFFFFFFFFFFFFFFFFFFFFFFFFFFFFFFFFFFFFFFFF AND DUP2 MSTORE PUSH1 0x20 ADD SWAP1 DUP2 MSTORE PUSH1 0x20 ADD PUSH0 KECCAK256 PUSH1 0x1 ADD DUP2 SWAP1 SSTORE POP DUP2 PUSH20 0xFFFFFFFFFFFFFFFFFFFFFFFFFFFFFFFFFFFFFFFF AND PUSH2 0x8FC DUP3 SWAP1 DUP2 ISZERO MUL SWAP1 PUSH1 0x40 MLOAD PUSH0 PUSH1 0x40 MLOAD DUP1 DUP4 SUB DUP2 DUP6 DUP9 DUP9 CALL SWAP4 POP POP POP POP ISZERO DUP1 ISZERO PUSH2 0x19D8 JUMPI RETURNDATASIZE PUSH0 PUSH0 RETURNDATACOPY RETURNDATASIZE PUSH0 REVERT JUMPDEST POP POP JUMPDEST POP DUP1 DUP1 PUSH1 0x1 ADD SWAP2 POP POP PUSH2 0x1891 JUMP JUMPDEST POP PUSH32 0x357AFAB190EE87FE0EF1C717F2728D2904D9E415A069D99F4D9382873CB3279D PUSH1 0x6 PUSH0 SWAP1 SLOAD SWAP1 PUSH2 0x100 EXP SWAP1 DIV PUSH20 0xFFFFFFFFFFFFFFFFFFFFFFFFFFFFFFFFFFFFFFFF AND PUSH1 0x5 SLOAD PUSH1 0x40 MLOAD PUSH2 0x1A3E SWAP3 SWAP2 SWAP1 PUSH2 0x2508 JUMP JUMPDEST PUSH1 0x40 MLOAD DUP1 SWAP2 SUB SWAP1 LOG1 POP JUMPDEST PUSH2 0x1A50 PUSH2 0x1A9F JUMP JUMPDEST JUMP JUMPDEST PUSH1 0x2 PUSH0 SLOAD SUB PUSH2 0x1A96 JUMPI PUSH1 0x40 MLOAD PUSH32 0x8C379A000000000000000000000000000000000000000000000000000000000 DUP2 MSTORE PUSH1 0x4 ADD PUSH2 0x1A8D SWAP1 PUSH2 0x267C JUMP JUMPDEST PUSH1 0x40 MLOAD DUP1 SWAP2 SUB SWAP1 REVERT JUMPDEST PUSH1 0x2 PUSH0 DUP2 SWAP1 SSTORE POP JUMP JUMPDEST PUSH1 0x1 PUSH0 DUP2 SWAP1 SSTORE POP JUMP JUMPDEST POP DUP1 SLOAD PUSH0 DUP3 SSTORE SWAP1 PUSH0 MSTORE PUSH1 0x20 PUSH0 KECCAK256 SWAP1 DUP2 ADD SWAP1 PUSH2 0x1AC3 SWAP2 SWAP1 PUSH2 0x1AC6 JUMP JUMPDEST POP JUMP JUMPDEST JUMPDEST DUP1 DUP3 GT ISZERO PUSH2 0x1ADD JUMPI PUSH0 DUP2 PUSH0 SWAP1 SSTORE POP PUSH1 0x1 ADD PUSH2 0x1AC7 JUMP JUMPDEST POP SWAP1 JUMP JUMPDEST PUSH0 DUP2 SWAP1 POP SWAP2 SWAP1 POP JUMP JUMPDEST PUSH2 0x1AF3 DUP2 PUSH2 0x1AE1 JUMP JUMPDEST DUP3 MSTORE POP POP JUMP JUMPDEST PUSH0 PUSH1 0x20 DUP3 ADD SWAP1 POP PUSH2 0x1B0C PUSH0 DUP4 ADD DUP5 PUSH2 0x1AEA JUMP JUMPDEST SWAP3 SWAP2 POP POP JUMP JUMPDEST PUSH0 PUSH0 REVERT JUMPDEST PUSH2 0x1B1F DUP2 PUSH2 0x1AE1 JUMP JUMPDEST DUP2 EQ PUSH2 0x1B29 JUMPI PUSH0 PUSH0 REVERT JUMPDEST POP JUMP JUMPDEST PUSH0 DUP2 CALLDATALOAD SWAP1 POP PUSH2 0x1B3A DUP2 PUSH2 0x1B16 JUMP JUMPDEST SWAP3 SWAP2 POP POP JUMP JUMPDEST PUSH0 PUSH1 0x20 DUP3 DUP5 SUB SLT ISZERO PUSH2 0x1B55 JUMPI PUSH2 0x1B54 PUSH2 0x1B12 JUMP JUMPDEST JUMPDEST PUSH0 PUSH2 0x1B62 DUP5 DUP3 DUP6 ADD PUSH2 0x1B2C JUMP JUMPDEST SWAP2 POP POP SWAP3 SWAP2 POP POP JUMP JUMPDEST PUSH0 PUSH20 0xFFFFFFFFFFFFFFFFFFFFFFFFFFFFFFFFFFFFFFFF DUP3 AND SWAP1 POP SWAP2 SWAP1 POP JUMP JUMPDEST PUSH0 PUSH2 0x1B94 DUP3 PUSH2 0x1B6B JUMP JUMPDEST SWAP1 POP SWAP2 SWAP1 POP JUMP JUMPDEST PUSH2 0x1BA4 DUP2 PUSH2 0x1B8A JUMP JUMPDEST DUP3 MSTORE POP POP JUMP JUMPDEST PUSH0 PUSH1 0x20 DUP3 ADD SWAP1 POP PUSH2 0x1BBD PUSH0 DUP4 ADD DUP5 PUSH2 0x1B9B JUMP JUMPDEST SWAP3 SWAP2 POP POP JUMP JUMPDEST PUSH2 0x1BCC DUP2 PUSH2 0x1B8A JUMP JUMPDEST DUP2 EQ PUSH2 0x1BD6 JUMPI PUSH0 PUSH0 REVERT JUMPDEST POP JUMP JUMPDEST PUSH0 DUP2 CALLDATALOAD SWAP1 POP PUSH2 0x1BE7 DUP2 PUSH2 0x1BC3 JUMP JUMPDEST SWAP3 SWAP2 POP POP JUMP JUMPDEST PUSH0 PUSH1 0x20 DUP3 DUP5 SUB SLT ISZERO PUSH2 0x1C02 JUMPI PUSH2 0x1C01 PUSH2 0x1B12 JUMP JUMPDEST JUMPDEST PUSH0 PUSH2 0x1C0F DUP5 DUP3 DUP6 ADD PUSH2 0x1BD9 JUMP JUMPDEST SWAP2 POP POP SWAP3 SWAP2 POP POP JUMP JUMPDEST PUSH0 PUSH1 0x60 DUP3 ADD SWAP1 POP PUSH2 0x1C2B PUSH0 DUP4 ADD DUP7 PUSH2 0x1AEA JUMP JUMPDEST PUSH2 0x1C38 PUSH1 0x20 DUP4 ADD DUP6 PUSH2 0x1AEA JUMP JUMPDEST PUSH2 0x1C45 PUSH1 0x40 DUP4 ADD DUP5 PUSH2 0x1AEA JUMP JUMPDEST SWAP5 SWAP4 POP POP POP POP JUMP JUMPDEST PUSH0 DUP2 ISZERO ISZERO SWAP1 POP SWAP2 SWAP1 POP JUMP JUMPDEST PUSH2 0x1C61 DUP2 PUSH2 0x1C4D JUMP JUMPDEST DUP3 MSTORE POP POP JUMP JUMPDEST PUSH0 PUSH1 0x20 DUP3 ADD SWAP1 POP PUSH2 0x1C7A PUSH0 DUP4 ADD DUP5 PUSH2 0x1C58 JUMP JUMPDEST SWAP3 SWAP2 POP POP JUMP JUMPDEST PUSH0 DUP2 MLOAD SWAP1 POP SWAP2 SWAP1 POP JUMP JUMPDEST PUSH0 DUP3 DUP3 MSTORE PUSH1 0x20 DUP3 ADD SWAP1 POP SWAP3 SWAP2 POP POP JUMP JUMPDEST PUSH0 DUP2 SWAP1 POP PUSH1 0x20 DUP3 ADD SWAP1 POP SWAP2 SWAP1 POP JUMP JUMPDEST PUSH2 0x1CB2 DUP2 PUSH2 0x1B8A JUMP JUMPDEST DUP3 MSTORE POP POP JUMP JUMPDEST PUSH0 PUSH2 0x1CC3 DUP4 DUP4 PUSH2 0x1CA9 JUMP JUMPDEST PUSH1 0x20 DUP4 ADD SWAP1 POP SWAP3 SWAP2 POP POP JUMP JUMPDEST PUSH0 PUSH1 0x20 DUP3 ADD SWAP1 POP SWAP2 SWAP1 POP JUMP JUMPDEST PUSH0 PUSH2 0x1CE5 DUP3 PUSH2 0x1C80 JUMP JUMPDEST PUSH2 0x1CEF DUP2 DUP6 PUSH2 0x1C8A JUMP JUMPDEST SWAP4 POP PUSH2 0x1CFA DUP4 PUSH2 0x1C9A JUMP JUMPDEST DUP1 PUSH0 JUMPDEST DUP4 DUP2 LT ISZERO PUSH2 0x1D2A JUMPI DUP2 MLOAD PUSH2 0x1D11 DUP9 DUP3 PUSH2 0x1CB8 JUMP JUMPDEST SWAP8 POP PUSH2 0x1D1C DUP4 PUSH2 0x1CCF JUMP JUMPDEST SWAP3 POP POP PUSH1 0x1 DUP2 ADD SWAP1 POP PUSH2 0x1CFD JUMP JUMPDEST POP DUP6 SWAP4 POP POP POP POP SWAP3 SWAP2 POP POP JUMP JUMPDEST PUSH0 DUP2 MLOAD SWAP1 POP SWAP2 SWAP1 POP JUMP JUMPDEST PUSH0 DUP3 DUP3 MSTORE PUSH1 0x20 DUP3 ADD SWAP1 POP SWAP3 SWAP2 POP POP JUMP JUMPDEST PUSH0 DUP2 SWAP1 POP PUSH1 0x20 DUP3 ADD SWAP1 POP SWAP2 SWAP1 POP JUMP JUMPDEST PUSH2 0x1D69 DUP2 PUSH2 0x1AE1 JUMP JUMPDEST DUP3 MSTORE POP POP JUMP JUMPDEST PUSH0 PUSH2 0x1D7A DUP4 DUP4 PUSH2 0x1D60 JUMP JUMPDEST PUSH1 0x20 DUP4 ADD SWAP1 POP SWAP3 SWAP2 POP POP JUMP JUMPDEST PUSH0 PUSH1 0x20 DUP3 ADD SWAP1 POP SWAP2 SWAP1 POP JUMP JUMPDEST PUSH0 PUSH2 0x1D9C DUP3 PUSH2 0x1D37 JUMP JUMPDEST PUSH2 0x1DA6 DUP2 DUP6 PUSH2 0x1D41 JUMP JUMPDEST SWAP4 POP PUSH2 0x1DB1 DUP4 PUSH2 0x1D51 JUMP JUMPDEST DUP1 PUSH0 JUMPDEST DUP4 DUP2 LT ISZERO PUSH2 0x1DE1 JUMPI DUP2 MLOAD PUSH2 0x1DC8 DUP9 DUP3 PUSH2 0x1D6F JUMP JUMPDEST SWAP8 POP PUSH2 0x1DD3 DUP4 PUSH2 0x1D86 JUMP JUMPDEST SWAP3 POP POP PUSH1 0x1 DUP2 ADD SWAP1 POP PUSH2 0x1DB4 JUMP JUMPDEST POP DUP6 SWAP4 POP POP POP POP SWAP3 SWAP2 POP POP JUMP JUMPDEST PUSH0 PUSH1 0x40 DUP3 ADD SWAP1 POP DUP2 DUP2 SUB PUSH0 DUP4 ADD MSTORE PUSH2 0x1E06 DUP2 DUP6 PUSH2 0x1CDB JUMP JUMPDEST SWAP1 POP DUP2 DUP2 SUB PUSH1 0x20 DUP4 ADD MSTORE PUSH2 0x1E1A DUP2 DUP5 PUSH2 0x1D92 JUMP JUMPDEST SWAP1 POP SWAP4 SWAP3 POP POP POP JUMP JUMPDEST PUSH0 DUP3 DUP3 MSTORE PUSH1 0x20 DUP3 ADD SWAP1 POP SWAP3 SWAP2 POP POP JUMP JUMPDEST PUSH32 0x4F6E6C79206F776E65722063616E2063616C6C20746869730000000000000000 PUSH0 DUP3 ADD MSTORE POP JUMP JUMPDEST PUSH0 PUSH2 0x1E67 PUSH1 0x18 DUP4 PUSH2 0x1E23 JUMP JUMPDEST SWAP2 POP PUSH2 0x1E72 DUP3 PUSH2 0x1E33 JUMP JUMPDEST PUSH1 0x20 DUP3 ADD SWAP1 POP SWAP2 SWAP1 POP JUMP JUMPDEST PUSH0 PUSH1 0x20 DUP3 ADD SWAP1 POP DUP2 DUP2 SUB PUSH0 DUP4 ADD MSTORE PUSH2 0x1E94 DUP2 PUSH2 0x1E5B JUMP JUMPDEST SWAP1 POP SWAP2 SWAP1 POP JUMP JUMPDEST PUSH32 0x41756374696F6E206E6F7420656E646564000000000000000000000000000000 PUSH0 DUP3 ADD MSTORE POP JUMP JUMPDEST PUSH0 PUSH2 0x1ECF PUSH1 0x11 DUP4 PUSH2 0x1E23 JUMP JUMPDEST SWAP2 POP PUSH2 0x1EDA DUP3 PUSH2 0x1E9B JUMP JUMPDEST PUSH1 0x20 DUP3 ADD SWAP1 POP SWAP2 SWAP1 POP JUMP JUMPDEST PUSH0 PUSH1 0x20 DUP3 ADD SWAP1 POP DUP2 DUP2 SUB PUSH0 DUP4 ADD MSTORE PUSH2 0x1EFC DUP2 PUSH2 0x1EC3 JUMP JUMPDEST SWAP1 POP SWAP2 SWAP1 POP JUMP JUMPDEST PUSH32 0x44656C697665727920616C72656164792070726F636573736564000000000000 PUSH0 DUP3 ADD MSTORE POP JUMP JUMPDEST PUSH0 PUSH2 0x1F37 PUSH1 0x1A DUP4 PUSH2 0x1E23 JUMP JUMPDEST SWAP2 POP PUSH2 0x1F42 DUP3 PUSH2 0x1F03 JUMP JUMPDEST PUSH1 0x20 DUP3 ADD SWAP1 POP SWAP2 SWAP1 POP JUMP JUMPDEST PUSH0 PUSH1 0x20 DUP3 ADD SWAP1 POP DUP2 DUP2 SUB PUSH0 DUP4 ADD MSTORE PUSH2 0x1F64 DUP2 PUSH2 0x1F2B JUMP JUMPDEST SWAP1 POP SWAP2 SWAP1 POP JUMP JUMPDEST PUSH32 0x4E487B7100000000000000000000000000000000000000000000000000000000 PUSH0 MSTORE PUSH1 0x11 PUSH1 0x4 MSTORE PUSH1 0x24 PUSH0 REVERT JUMPDEST PUSH0 PUSH2 0x1FA2 DUP3 PUSH2 0x1AE1 JUMP JUMPDEST SWAP2 POP PUSH2 0x1FAD DUP4 PUSH2 0x1AE1 JUMP JUMPDEST SWAP3 POP DUP3 DUP3 ADD SWAP1 POP DUP1 DUP3 GT ISZERO PUSH2 0x1FC5 JUMPI PUSH2 0x1FC4 PUSH2 0x1F6B JUMP JUMPDEST JUMPDEST SWAP3 SWAP2 POP POP JUMP JUMPDEST PUSH0 PUSH1 0x60 DUP3 ADD SWAP1 POP PUSH2 0x1FDE PUSH0 DUP4 ADD DUP7 PUSH2 0x1B9B JUMP JUMPDEST PUSH2 0x1FEB PUSH1 0x20 DUP4 ADD DUP6 PUSH2 0x1AEA JUMP JUMPDEST PUSH2 0x1FF8 PUSH1 0x40 DUP4 ADD DUP5 PUSH2 0x1AEA JUMP JUMPDEST SWAP5 SWAP4 POP POP POP POP JUMP JUMPDEST PUSH32 0x41756374696F6E206E6F74206163746976650000000000000000000000000000 PUSH0 DUP3 ADD MSTORE POP JUMP JUMPDEST PUSH0 PUSH2 0x2034 PUSH1 0x12 DUP4 PUSH2 0x1E23 JUMP JUMPDEST SWAP2 POP PUSH2 0x203F DUP3 PUSH2 0x2000 JUMP JUMPDEST PUSH1 0x20 DUP3 ADD SWAP1 POP SWAP2 SWAP1 POP JUMP JUMPDEST PUSH0 PUSH1 0x20 DUP3 ADD SWAP1 POP DUP2 DUP2 SUB PUSH0 DUP4 ADD MSTORE PUSH2 0x2061 DUP2 PUSH2 0x2028 JUMP JUMPDEST SWAP1 POP SWAP2 SWAP1 POP JUMP JUMPDEST PUSH32 0x41756374696F6E20616C726561647920656E6465640000000000000000000000 PUSH0 DUP3 ADD MSTORE POP JUMP JUMPDEST PUSH0 PUSH2 0x209C PUSH1 0x15 DUP4 PUSH2 0x1E23 JUMP JUMPDEST SWAP2 POP PUSH2 0x20A7 DUP3 PUSH2 0x2068 JUMP JUMPDEST PUSH1 0x20 DUP3 ADD SWAP1 POP SWAP2 SWAP1 POP JUMP JUMPDEST PUSH0 PUSH1 0x20 DUP3 ADD SWAP1 POP DUP2 DUP2 SUB PUSH0 DUP4 ADD MSTORE PUSH2 0x20C9 DUP2 PUSH2 0x2090 JUMP JUMPDEST SWAP1 POP SWAP2 SWAP1 POP JUMP JUMPDEST PUSH32 0x4F776E65722063616E6E6F742062696400000000000000000000000000000000 PUSH0 DUP3 ADD MSTORE POP JUMP JUMPDEST PUSH0 PUSH2 0x2104 PUSH1 0x10 DUP4 PUSH2 0x1E23 JUMP JUMPDEST SWAP2 POP PUSH2 0x210F DUP3 PUSH2 0x20D0 JUMP JUMPDEST PUSH1 0x20 DUP3 ADD SWAP1 POP SWAP2 SWAP1 POP JUMP JUMPDEST PUSH0 PUSH1 0x20 DUP3 ADD SWAP1 POP DUP2 DUP2 SUB PUSH0 DUP4 ADD MSTORE PUSH2 0x2131 DUP2 PUSH2 0x20F8 JUMP JUMPDEST SWAP1 POP SWAP2 SWAP1 POP JUMP JUMPDEST PUSH32 0x496E76616C696420616D6F756E74000000000000000000000000000000000000 PUSH0 DUP3 ADD MSTORE POP JUMP JUMPDEST PUSH0 PUSH2 0x216C PUSH1 0xE DUP4 PUSH2 0x1E23 JUMP JUMPDEST SWAP2 POP PUSH2 0x2177 DUP3 PUSH2 0x2138 JUMP JUMPDEST PUSH1 0x20 DUP3 ADD SWAP1 POP SWAP2 SWAP1 POP JUMP JUMPDEST PUSH0 PUSH1 0x20 DUP3 ADD SWAP1 POP DUP2 DUP2 SUB PUSH0 DUP4 ADD MSTORE PUSH2 0x2199 DUP2 PUSH2 0x2160 JUMP JUMPDEST SWAP1 POP SWAP2 SWAP1 POP JUMP JUMPDEST PUSH32 0x416C726561647920706172746963697061746564000000000000000000000000 PUSH0 DUP3 ADD MSTORE POP JUMP JUMPDEST PUSH0 PUSH2 0x21D4 PUSH1 0x14 DUP4 PUSH2 0x1E23 JUMP JUMPDEST SWAP2 POP PUSH2 0x21DF DUP3 PUSH2 0x21A0 JUMP JUMPDEST PUSH1 0x20 DUP3 ADD SWAP1 POP SWAP2 SWAP1 POP JUMP JUMPDEST PUSH0 PUSH1 0x20 DUP3 ADD SWAP1 POP DUP2 DUP2 SUB PUSH0 DUP4 ADD MSTORE PUSH2 0x2201 DUP2 PUSH2 0x21C8 JUMP JUMPDEST SWAP1 POP SWAP2 SWAP1 POP JUMP JUMPDEST PUSH32 0x4D61782062696473207265616368656400000000000000000000000000000000 PUSH0 DUP3 ADD MSTORE POP JUMP JUMPDEST PUSH0 PUSH2 0x223C PUSH1 0x10 DUP4 PUSH2 0x1E23 JUMP JUMPDEST SWAP2 POP PUSH2 0x2247 DUP3 PUSH2 0x2208 JUMP JUMPDEST PUSH1 0x20 DUP3 ADD SWAP1 POP SWAP2 SWAP1 POP JUMP JUMPDEST PUSH0 PUSH1 0x20 DUP3 ADD SWAP1 POP DUP2 DUP2 SUB PUSH0 DUP4 ADD MSTORE PUSH2 0x2269 DUP2 PUSH2 0x2230 JUMP JUMPDEST SWAP1 POP SWAP2 SWAP1 POP JUMP JUMPDEST PUSH0 PUSH2 0x227A DUP3 PUSH2 0x1AE1 JUMP JUMPDEST SWAP2 POP PUSH2 0x2285 DUP4 PUSH2 0x1AE1 JUMP JUMPDEST SWAP3 POP DUP3 DUP3 MUL PUSH2 0x2293 DUP2 PUSH2 0x1AE1 JUMP JUMPDEST SWAP2 POP DUP3 DUP3 DIV DUP5 EQ DUP4 ISZERO OR PUSH2 0x22AA JUMPI PUSH2 0x22A9 PUSH2 0x1F6B JUMP JUMPDEST JUMPDEST POP SWAP3 SWAP2 POP POP JUMP JUMPDEST PUSH32 0x4E487B7100000000000000000000000000000000000000000000000000000000 PUSH0 MSTORE PUSH1 0x12 PUSH1 0x4 MSTORE PUSH1 0x24 PUSH0 REVERT JUMPDEST PUSH0 PUSH2 0x22E8 DUP3 PUSH2 0x1AE1 JUMP JUMPDEST SWAP2 POP PUSH2 0x22F3 DUP4 PUSH2 0x1AE1 JUMP JUMPDEST SWAP3 POP DUP3 PUSH2 0x2303 JUMPI PUSH2 0x2302 PUSH2 0x22B1 JUMP JUMPDEST JUMPDEST DUP3 DUP3 DIV SWAP1 POP SWAP3 SWAP2 POP POP JUMP JUMPDEST PUSH32 0x496E73756666696369656E74206465706F736974000000000000000000000000 PUSH0 DUP3 ADD MSTORE POP JUMP JUMPDEST PUSH0 PUSH2 0x2342 PUSH1 0x14 DUP4 PUSH2 0x1E23 JUMP JUMPDEST SWAP2 POP PUSH2 0x234D DUP3 PUSH2 0x230E JUMP JUMPDEST PUSH1 0x20 DUP3 ADD SWAP1 POP SWAP2 SWAP1 POP JUMP JUMPDEST PUSH0 PUSH1 0x20 DUP3 ADD SWAP1 POP DUP2 DUP2 SUB PUSH0 DUP4 ADD MSTORE PUSH2 0x236F DUP2 PUSH2 0x2336 JUMP JUMPDEST SWAP1 POP SWAP2 SWAP1 POP JUMP JUMPDEST PUSH32 0x4E487B7100000000000000000000000000000000000000000000000000000000 PUSH0 MSTORE PUSH1 0x41 PUSH1 0x4 MSTORE PUSH1 0x24 PUSH0 REVERT JUMPDEST PUSH32 0x4E487B7100000000000000000000000000000000000000000000000000000000 PUSH0 MSTORE PUSH1 0x32 PUSH1 0x4 MSTORE PUSH1 0x24 PUSH0 REVERT JUMPDEST PUSH32 0x41756374696F6E206D7573742062652066696E616C697A656400000000000000 PUSH0 DUP3 ADD MSTORE POP JUMP JUMPDEST PUSH0 PUSH2 0x2404 PUSH1 0x19 DUP4 PUSH2 0x1E23 JUMP JUMPDEST SWAP2 POP PUSH2 0x240F DUP3 PUSH2 0x23D0 JUMP JUMPDEST PUSH1 0x20 DUP3 ADD SWAP1 POP SWAP2 SWAP1 POP JUMP JUMPDEST PUSH0 PUSH1 0x20 DUP3 ADD SWAP1 POP DUP2 DUP2 SUB PUSH0 DUP4 ADD MSTORE PUSH2 0x2431 DUP2 PUSH2 0x23F8 JUMP JUMPDEST SWAP1 POP SWAP2 SWAP1 POP JUMP JUMPDEST PUSH32 0x4E6F2066756E647320617661696C61626C650000000000000000000000000000 PUSH0 DUP3 ADD MSTORE POP JUMP JUMPDEST PUSH0 PUSH2 0x246C PUSH1 0x12 DUP4 PUSH2 0x1E23 JUMP JUMPDEST SWAP2 POP PUSH2 0x2477 DUP3 PUSH2 0x2438 JUMP JUMPDEST PUSH1 0x20 DUP3 ADD SWAP1 POP SWAP2 SWAP1 POP JUMP JUMPDEST PUSH0 PUSH1 0x20 DUP3 ADD SWAP1 POP DUP2 DUP2 SUB PUSH0 DUP4 ADD MSTORE PUSH2 0x2499 DUP2 PUSH2 0x2460 JUMP JUMPDEST SWAP1 POP SWAP2 SWAP1 POP JUMP JUMPDEST PUSH32 0x4177616974696E672064656C697665727920636F6E6669726D6174696F6E0000 PUSH0 DUP3 ADD MSTORE POP JUMP JUMPDEST PUSH0 PUSH2 0x24D4 PUSH1 0x1E DUP4 PUSH2 0x1E23 JUMP JUMPDEST SWAP2 POP PUSH2 0x24DF DUP3 PUSH2 0x24A0 JUMP JUMPDEST PUSH1 0x20 DUP3 ADD SWAP1 POP SWAP2 SWAP1 POP JUMP JUMPDEST PUSH0 PUSH1 0x20 DUP3 ADD SWAP1 POP DUP2 DUP2 SUB PUSH0 DUP4 ADD MSTORE PUSH2 0x2501 DUP2 PUSH2 0x24C8 JUMP JUMPDEST SWAP1 POP SWAP2 SWAP1 POP JUMP JUMPDEST PUSH0 PUSH1 0x40 DUP3 ADD SWAP1 POP PUSH2 0x251B PUSH0 DUP4 ADD DUP6 PUSH2 0x1B9B JUMP JUMPDEST PUSH2 0x2528 PUSH1 0x20 DUP4 ADD DUP5 PUSH2 0x1AEA JUMP JUMPDEST SWAP4 SWAP3 POP POP POP JUMP JUMPDEST PUSH32 0x41756374696F6E207374696C6C20616374697665000000000000000000000000 PUSH0 DUP3 ADD MSTORE POP JUMP JUMPDEST PUSH0 PUSH2 0x2563 PUSH1 0x14 DUP4 PUSH2 0x1E23 JUMP JUMPDEST SWAP2 POP PUSH2 0x256E DUP3 PUSH2 0x252F JUMP JUMPDEST PUSH1 0x20 DUP3 ADD SWAP1 POP SWAP2 SWAP1 POP JUMP JUMPDEST PUSH0 PUSH1 0x20 DUP3 ADD SWAP1 POP DUP2 DUP2 SUB PUSH0 DUP4 ADD MSTORE PUSH2 0x2590 DUP2 PUSH2 0x2557 JUMP JUMPDEST SWAP1 POP SWAP2 SWAP1 POP JUMP JUMPDEST PUSH32 0x41756374696F6E20616C72656164792066696E616C697A656400000000000000 PUSH0 DUP3 ADD MSTORE POP JUMP JUMPDEST PUSH0 PUSH2 0x25CB PUSH1 0x19 DUP4 PUSH2 0x1E23 JUMP JUMPDEST SWAP2 POP PUSH2 0x25D6 DUP3 PUSH2 0x2597 JUMP JUMPDEST PUSH1 0x20 DUP3 ADD SWAP1 POP SWAP2 SWAP1 POP JUMP JUMPDEST PUSH0 PUSH1 0x20 DUP3 ADD SWAP1 POP DUP2 DUP2 SUB PUSH0 DUP4 ADD MSTORE PUSH2 0x25F8 DUP2 PUSH2 0x25BF JUMP JUMPDEST SWAP1 POP SWAP2 SWAP1 POP JUMP JUMPDEST PUSH0 PUSH2 0x2609 DUP3 PUSH2 0x1AE1 JUMP JUMPDEST SWAP2 POP PUSH2 0x2614 DUP4 PUSH2 0x1AE1 JUMP JUMPDEST SWAP3 POP DUP3 DUP3 SUB SWAP1 POP DUP2 DUP2 GT ISZERO PUSH2 0x262C JUMPI PUSH2 0x262B PUSH2 0x1F6B JUMP JUMPDEST JUMPDEST SWAP3 SWAP2 POP POP JUMP JUMPDEST PUSH32 0x5265656E7472616E637947756172643A207265656E7472616E742063616C6C00 PUSH0 DUP3 ADD MSTORE POP JUMP JUMPDEST PUSH0 PUSH2 0x2666 PUSH1 0x1F DUP4 PUSH2 0x1E23 JUMP JUMPDEST SWAP2 POP PUSH2 0x2671 DUP3 PUSH2 0x2632 JUMP JUMPDEST PUSH1 0x20 DUP3 ADD SWAP1 POP SWAP2 SWAP1 POP JUMP JUMPDEST PUSH0 PUSH1 0x20 DUP3 ADD SWAP1 POP DUP2 DUP2 SUB PUSH0 DUP4 ADD MSTORE PUSH2 0x2693 DUP2 PUSH2 0x265A JUMP JUMPDEST SWAP1 POP SWAP2 SWAP1 POP JUMP INVALID LOG2 PUSH5 0x6970667358 0x22 SLT KECCAK256 0x1F 0x27 0x2B 0xC6 RJUMP 0xFA93 DUP8 LT 0xCD 0xBD 0xDC 0xFC 0xB8 0xD3 0xA9 RETURNDATASIZE DUP7 CALLDATACOPY 0xAD PUSH5 0xA94519F600 MSIZE 0xBF SHL TSTORE 0xF6 BASEFEE PUSH5 0x736F6C6343 STOP ADDMOD 0x1E STOP CALLER "
				},
				"gasEstimates": {
					"creation": {
						"codeDepositCost": "1987200",
						"executionCost": "infinite",
						"totalCost": "infinite"
					},
					"external": {
						"auctionEnded()": "2606",
						"bid(uint256)": "infinite",
						"bids(address)": "infinite",
						"confirmDelivery()": "infinite",
						"deliveryConfirmed()": "2562",
						"deliveryFailed()": "2605",
						"endTime()": "2449",
						"finalizeAuction()": "infinite",
						"getBids()": "infinite",
						"markAsUndelivered()": "infinite",
						"maxPrice()": "2469",
						"owner()": "2531",
						"participants(uint256)": "4990",
						"paymentAmount()": "2514",
						"startTime()": "2492",
						"winner()": "2530",
						"withdrawRemaining()": "infinite"
					}
				},
				"methodIdentifiers": {
					"auctionEnded()": "86433374",
					"bid(uint256)": "454a2ab3",
					"bids(address)": "62ea82db",
					"confirmDelivery()": "5e10177b",
					"deliveryConfirmed()": "93171900",
					"deliveryFailed()": "ef731be3",
					"endTime()": "3197cbb6",
					"finalizeAuction()": "f77282ab",
					"getBids()": "b81c78ec",
					"markAsUndelivered()": "36d6a26d",
					"maxPrice()": "e38d6b5c",
					"owner()": "8da5cb5b",
					"participants(uint256)": "35c1d349",
					"paymentAmount()": "c35905c6",
					"startTime()": "78e97925",
					"winner()": "dfbf53ae",
					"withdrawRemaining()": "ee38db95"
				}
			},
			"storageLayout": {
				"storage": [
					{
						"astId": 10,
						"contract": "contracts/VickreyAuction.sol:VickreyAuction",
						"label": "_status",
						"offset": 0,
						"slot": "0",
						"type": "t_uint256"
					},
					{
						"astId": 71,
						"contract": "contracts/VickreyAuction.sol:VickreyAuction",
						"label": "owner",
						"offset": 0,
						"slot": "1",
						"type": "t_address"
					},
					{
						"astId": 73,
						"contract": "contracts/VickreyAuction.sol:VickreyAuction",
						"label": "startTime",
						"offset": 0,
						"slot": "2",
						"type": "t_uint256"
					},
					{
						"astId": 75,
						"contract": "contracts/VickreyAuction.sol:VickreyAuction",
						"label": "endTime",
						"offset": 0,
						"slot": "3",
						"type": "t_uint256"
					},
					{
						"astId": 77,
						"contract": "contracts/VickreyAuction.sol:VickreyAuction",
						"label": "maxPrice",
						"offset": 0,
						"slot": "4",
						"type": "t_uint256"
					},
					{
						"astId": 79,
						"contract": "contracts/VickreyAuction.sol:VickreyAuction",
						"label": "paymentAmount",
						"offset": 0,
						"slot": "5",
						"type": "t_uint256"
					},
					{
						"astId": 81,
						"contract": "contracts/VickreyAuction.sol:VickreyAuction",
						"label": "winner",
						"offset": 0,
						"slot": "6",
						"type": "t_address"
					},
					{
						"astId": 83,
						"contract": "contracts/VickreyAuction.sol:VickreyAuction",
						"label": "auctionEnded",
						"offset": 20,
						"slot": "6",
						"type": "t_bool"
					},
					{
						"astId": 85,
						"contract": "contracts/VickreyAuction.sol:VickreyAuction",
						"label": "deliveryConfirmed",
						"offset": 21,
						"slot": "6",
						"type": "t_bool"
					},
					{
						"astId": 87,
						"contract": "contracts/VickreyAuction.sol:VickreyAuction",
						"label": "deliveryFailed",
						"offset": 22,
						"slot": "6",
						"type": "t_bool"
					},
					{
						"astId": 99,
						"contract": "contracts/VickreyAuction.sol:VickreyAuction",
						"label": "bids",
						"offset": 0,
						"slot": "7",
						"type": "t_mapping(t_address,t_struct(Bid)94_storage)"
					},
					{
						"astId": 102,
						"contract": "contracts/VickreyAuction.sol:VickreyAuction",
						"label": "participants",
						"offset": 0,
						"slot": "8",
						"type": "t_array(t_address)dyn_storage"
					}
				],
				"types": {
					"t_address": {
						"encoding": "inplace",
						"label": "address",
						"numberOfBytes": "20"
					},
					"t_array(t_address)dyn_storage": {
						"base": "t_address",
						"encoding": "dynamic_array",
						"label": "address[]",
						"numberOfBytes": "32"
					},
					"t_bool": {
						"encoding": "inplace",
						"label": "bool",
						"numberOfBytes": "1"
					},
					"t_mapping(t_address,t_struct(Bid)94_storage)": {
						"encoding": "mapping",
						"key": "t_address",
						"label": "mapping(address => struct VickreyAuction.Bid)",
						"numberOfBytes": "32",
						"value": "t_struct(Bid)94_storage"
					},
					"t_struct(Bid)94_storage": {
						"encoding": "inplace",
						"label": "struct VickreyAuction.Bid",
						"members": [
							{
								"astId": 89,
								"contract": "contracts/VickreyAuction.sol:VickreyAuction",
								"label": "amount",
								"offset": 0,
								"slot": "0",
								"type": "t_uint256"
							},
							{
								"astId": 91,
								"contract": "contracts/VickreyAuction.sol:VickreyAuction",
								"label": "deposit",
								"offset": 0,
								"slot": "1",
								"type": "t_uint256"
							},
							{
								"astId": 93,
								"contract": "contracts/VickreyAuction.sol:VickreyAuction",
								"label": "timestamp",
								"offset": 0,
								"slot": "2",
								"type": "t_uint256"
							}
						],
						"numberOfBytes": "96"
					},
					"t_uint256": {
						"encoding": "inplace",
						"label": "uint256",
						"numberOfBytes": "32"
					}
				}
			},
			"userdoc": {
				"kind": "user",
				"methods": {},
				"version": 1
			}
		}
	}
}