{
	"contracts/subasta.sol": {
		"VickreyAuctionSimple": {
			"abi": [
				{
					"inputs": [
						{
							"internalType": "uint256",
							"name": "_startDate",
							"type": "uint256"
						},
						{
							"internalType": "uint256",
							"name": "_endDate",
							"type": "uint256"
						},
						{
							"internalType": "uint256",
							"name": "_deliveryDueDate",
							"type": "uint256"
						},
						{
							"internalType": "uint256",
							"name": "_maxBid",
							"type": "uint256"
						}
					],
					"stateMutability": "payable",
					"type": "constructor"
				},
				{
					"anonymous": false,
					"inputs": [
						{
							"indexed": true,
							"internalType": "address",
							"name": "winner",
							"type": "address"
						},
						{
							"indexed": false,
							"internalType": "uint256",
							"name": "winnerDeposit",
							"type": "uint256"
						},
						{
							"indexed": false,
							"internalType": "uint256",
							"name": "winningPrice",
							"type": "uint256"
						}
					],
					"name": "AuctionClosed",
					"type": "event"
				},
				{
					"anonymous": false,
					"inputs": [
						{
							"indexed": true,
							"internalType": "address",
							"name": "bidder",
							"type": "address"
						}
					],
					"name": "BidPlaced",
					"type": "event"
				},
				{
					"anonymous": false,
					"inputs": [
						{
							"indexed": true,
							"internalType": "address",
							"name": "bidder",
							"type": "address"
						},
						{
							"indexed": false,
							"internalType": "uint256",
							"name": "amount",
							"type": "uint256"
						}
					],
					"name": "DepositReturned",
					"type": "event"
				},
				{
					"inputs": [],
					"name": "DEPOSIT_PERCENTAGE",
					"outputs": [
						{
							"internalType": "uint256",
							"name": "",
							"type": "uint256"
						}
					],
					"stateMutability": "view",
					"type": "function"
				},
				{
					"inputs": [],
					"name": "MAX_BIDDERS",
					"outputs": [
						{
							"internalType": "uint256",
							"name": "",
							"type": "uint256"
						}
					],
					"stateMutability": "view",
					"type": "function"
				},
				{
					"inputs": [],
					"name": "auctionEnd",
					"outputs": [
						{
							"internalType": "uint256",
							"name": "",
							"type": "uint256"
						}
					],
					"stateMutability": "view",
					"type": "function"
				},
				{
					"inputs": [],
					"name": "auctionStart",
					"outputs": [
						{
							"internalType": "uint256",
							"name": "",
							"type": "uint256"
						}
					],
					"stateMutability": "view",
					"type": "function"
				},
				{
					"inputs": [
						{
							"internalType": "uint256",
							"name": "",
							"type": "uint256"
						}
					],
					"name": "bidders",
					"outputs": [
						{
							"internalType": "address",
							"name": "",
							"type": "address"
						}
					],
					"stateMutability": "view",
					"type": "function"
				},
				{
					"inputs": [
						{
							"internalType": "uint256",
							"name": "",
							"type": "uint256"
						}
					],
					"name": "bids",
					"outputs": [
						{
							"internalType": "address payable",
							"name": "bidder",
							"type": "address"
						},
						{
							"internalType": "uint256",
							"name": "amount",
							"type": "uint256"
						},
						{
							"internalType": "uint256",
							"name": "deposit",
							"type": "uint256"
						},
						{
							"internalType": "uint256",
							"name": "timestamp",
							"type": "uint256"
						},
						{
							"internalType": "bool",
							"name": "depositReturned",
							"type": "bool"
						}
					],
					"stateMutability": "view",
					"type": "function"
				},
				{
					"inputs": [],
					"name": "deliveryDueDate",
					"outputs": [
						{
							"internalType": "uint256",
							"name": "",
							"type": "uint256"
						}
					],
					"stateMutability": "view",
					"type": "function"
				},
				{
					"inputs": [],
					"name": "deliveryReceived",
					"outputs": [],
					"stateMutability": "nonpayable",
					"type": "function"
				},
				{
					"inputs": [],
					"name": "finalizeAuction",
					"outputs": [],
					"stateMutability": "nonpayable",
					"type": "function"
				},
				{
					"inputs": [],
					"name": "getBidCount",
					"outputs": [
						{
							"internalType": "uint256",
							"name": "",
							"type": "uint256"
						}
					],
					"stateMutability": "view",
					"type": "function"
				},
				{
					"inputs": [
						{
							"internalType": "address",
							"name": "bidder",
							"type": "address"
						}
					],
					"name": "hasAlreadyBid",
					"outputs": [
						{
							"internalType": "bool",
							"name": "",
							"type": "bool"
						}
					],
					"stateMutability": "view",
					"type": "function"
				},
				{
					"inputs": [],
					"name": "maxBid",
					"outputs": [
						{
							"internalType": "uint256",
							"name": "",
							"type": "uint256"
						}
					],
					"stateMutability": "view",
					"type": "function"
				},
				{
					"inputs": [],
					"name": "notDelivered",
					"outputs": [],
					"stateMutability": "nonpayable",
					"type": "function"
				},
				{
					"inputs": [],
					"name": "numBidders",
					"outputs": [
						{
							"internalType": "uint256",
							"name": "",
							"type": "uint256"
						}
					],
					"stateMutability": "view",
					"type": "function"
				},
				{
					"inputs": [],
					"name": "owner",
					"outputs": [
						{
							"internalType": "address payable",
							"name": "",
							"type": "address"
						}
					],
					"stateMutability": "view",
					"type": "function"
				},
				{
					"inputs": [
						{
							"internalType": "uint256",
							"name": "_amount",
							"type": "uint256"
						}
					],
					"name": "placeBid",
					"outputs": [],
					"stateMutability": "payable",
					"type": "function"
				},
				{
					"inputs": [],
					"name": "returnDeposits",
					"outputs": [],
					"stateMutability": "nonpayable",
					"type": "function"
				},
				{
					"inputs": [],
					"name": "state",
					"outputs": [
						{
							"internalType": "enum VickreyAuctionSimple.AuctionState",
							"name": "",
							"type": "uint8"
						}
					],
					"stateMutability": "view",
					"type": "function"
				},
				{
					"inputs": [],
					"name": "winner",
					"outputs": [
						{
							"internalType": "address payable",
							"name": "",
							"type": "address"
						}
					],
					"stateMutability": "view",
					"type": "function"
				},
				{
					"inputs": [],
					"name": "winnerDeposit",
					"outputs": [
						{
							"internalType": "uint256",
							"name": "",
							"type": "uint256"
						}
					],
					"stateMutability": "view",
					"type": "function"
				},
				{
					"inputs": [],
					"name": "winningPrice",
					"outputs": [
						{
							"internalType": "uint256",
							"name": "",
							"type": "uint256"
						}
					],
					"stateMutability": "view",
					"type": "function"
				}
			],
			"devdoc": {
				"kind": "dev",
				"methods": {},
				"version": 1
			},
			"evm": {
				"assembly": "    /* \"contracts/subasta.sol\":57:5913  contract VickreyAuctionSimple {... */\n  mstore(0x40, 0x80)\n    /* \"contracts/subasta.sol\":1363:1915  constructor(... */\n  mload(0x40)\n  sub(codesize, bytecodeSize)\n  dup1\n  bytecodeSize\n  dup4\n  codecopy\n  dup2\n  dup2\n  add\n  0x40\n  mstore\n  dup2\n  add\n  swap1\n  tag_1\n  swap2\n  swap1\n  tag_2\n  jump\t// in\ntag_1:\n    /* \"contracts/subasta.sol\":1533:1540  _maxBid */\n  dup1\n    /* \"contracts/subasta.sol\":1520:1529  msg.value */\n  callvalue\n    /* \"contracts/subasta.sol\":1520:1540  msg.value >= _maxBid */\n  lt\n  iszero\n    /* \"contracts/subasta.sol\":1512:1603  require(msg.value >= _maxBid, \"You have to deposit the amount of the maximum possible bid\") */\n  tag_5\n  jumpi\n  mload(0x40)\n  0x08c379a000000000000000000000000000000000000000000000000000000000\n  dup2\n  mstore\n  0x04\n  add\n  tag_6\n  swap1\n  tag_7\n  jump\t// in\ntag_6:\n  mload(0x40)\n  dup1\n  swap2\n  sub\n  swap1\n  revert\ntag_5:\n    /* \"contracts/subasta.sol\":1634:1642  _endDate */\n  dup3\n    /* \"contracts/subasta.sol\":1621:1631  _startDate */\n  dup5\n    /* \"contracts/subasta.sol\":1621:1642  _startDate < _endDate */\n  lt\n    /* \"contracts/subasta.sol\":1621:1673  _startDate < _endDate && _endDate < _deliveryDueDate */\n  dup1\n  iszero\n  tag_8\n  jumpi\n  pop\n    /* \"contracts/subasta.sol\":1657:1673  _deliveryDueDate */\n  dup2\n    /* \"contracts/subasta.sol\":1646:1654  _endDate */\n  dup4\n    /* \"contracts/subasta.sol\":1646:1673  _endDate < _deliveryDueDate */\n  lt\n    /* \"contracts/subasta.sol\":1621:1673  _startDate < _endDate && _endDate < _deliveryDueDate */\ntag_8:\n    /* \"contracts/subasta.sol\":1613:1699  require(_startDate < _endDate && _endDate < _deliveryDueDate, \"Invalid auction dates\") */\n  tag_9\n  jumpi\n  mload(0x40)\n  0x08c379a000000000000000000000000000000000000000000000000000000000\n  dup2\n  mstore\n  0x04\n  add\n  tag_10\n  swap1\n  tag_11\n  jump\t// in\ntag_10:\n  mload(0x40)\n  dup1\n  swap2\n  sub\n  swap1\n  revert\ntag_9:\n    /* \"contracts/subasta.sol\":1726:1736  msg.sender */\n  caller\n    /* \"contracts/subasta.sol\":1710:1715  owner */\n  0x00\n  0x00\n    /* \"contracts/subasta.sol\":1710:1737  owner = payable(msg.sender) */\n  0x0100\n  exp\n  dup2\n  sload\n  dup2\n  0xffffffffffffffffffffffffffffffffffffffff\n  mul\n  not\n  and\n  swap1\n  dup4\n  0xffffffffffffffffffffffffffffffffffffffff\n  and\n  mul\n  or\n  swap1\n  sstore\n  pop\n    /* \"contracts/subasta.sol\":1762:1772  _startDate */\n  dup4\n    /* \"contracts/subasta.sol\":1747:1759  auctionStart */\n  0x01\n    /* \"contracts/subasta.sol\":1747:1772  auctionStart = _startDate */\n  dup2\n  swap1\n  sstore\n  pop\n    /* \"contracts/subasta.sol\":1795:1803  _endDate */\n  dup3\n    /* \"contracts/subasta.sol\":1782:1792  auctionEnd */\n  0x02\n    /* \"contracts/subasta.sol\":1782:1803  auctionEnd = _endDate */\n  dup2\n  swap1\n  sstore\n  pop\n    /* \"contracts/subasta.sol\":1831:1847  _deliveryDueDate */\n  dup2\n    /* \"contracts/subasta.sol\":1813:1828  deliveryDueDate */\n  0x03\n    /* \"contracts/subasta.sol\":1813:1847  deliveryDueDate = _deliveryDueDate */\n  dup2\n  swap1\n  sstore\n  pop\n    /* \"contracts/subasta.sol\":1866:1873  _maxBid */\n  dup1\n    /* \"contracts/subasta.sol\":1857:1863  maxBid */\n  0x04\n    /* \"contracts/subasta.sol\":1857:1873  maxBid = _maxBid */\n  dup2\n  swap1\n  sstore\n  pop\n    /* \"contracts/subasta.sol\":1891:1908  AuctionState.Open */\n  0x00\n    /* \"contracts/subasta.sol\":1883:1888  state */\n  0x06\n  0x00\n    /* \"contracts/subasta.sol\":1883:1908  state = AuctionState.Open */\n  0x0100\n  exp\n  dup2\n  sload\n  dup2\n  0xff\n  mul\n  not\n  and\n  swap1\n  dup4\n  0x02\n  dup2\n  gt\n  iszero\n  tag_12\n  jumpi\n  tag_13\n  tag_14\n  jump\t// in\ntag_13:\ntag_12:\n  mul\n  or\n  swap1\n  sstore\n  pop\n    /* \"contracts/subasta.sol\":1363:1915  constructor(... */\n  pop\n  pop\n  pop\n  pop\n    /* \"contracts/subasta.sol\":57:5913  contract VickreyAuctionSimple {... */\n  jump(tag_15)\n    /* \"#utility.yul\":88:205   */\ntag_17:\n    /* \"#utility.yul\":197:198   */\n  0x00\n    /* \"#utility.yul\":194:195   */\n  0x00\n    /* \"#utility.yul\":187:199   */\n  revert\n    /* \"#utility.yul\":334:411   */\ntag_19:\n    /* \"#utility.yul\":371:378   */\n  0x00\n    /* \"#utility.yul\":400:405   */\n  dup2\n    /* \"#utility.yul\":389:405   */\n  swap1\n  pop\n    /* \"#utility.yul\":334:411   */\n  swap2\n  swap1\n  pop\n  jump\t// out\n    /* \"#utility.yul\":417:539   */\ntag_20:\n    /* \"#utility.yul\":490:514   */\n  tag_33\n    /* \"#utility.yul\":508:513   */\n  dup2\n    /* \"#utility.yul\":490:514   */\n  tag_19\n  jump\t// in\ntag_33:\n    /* \"#utility.yul\":483:488   */\n  dup2\n    /* \"#utility.yul\":480:515   */\n  eq\n    /* \"#utility.yul\":470:533   */\n  tag_34\n  jumpi\n    /* \"#utility.yul\":529:530   */\n  0x00\n    /* \"#utility.yul\":526:527   */\n  0x00\n    /* \"#utility.yul\":519:531   */\n  revert\n    /* \"#utility.yul\":470:533   */\ntag_34:\n    /* \"#utility.yul\":417:539   */\n  pop\n  jump\t// out\n    /* \"#utility.yul\":545:688   */\ntag_21:\n    /* \"#utility.yul\":602:607   */\n  0x00\n    /* \"#utility.yul\":633:639   */\n  dup2\n    /* \"#utility.yul\":627:640   */\n  mload\n    /* \"#utility.yul\":618:640   */\n  swap1\n  pop\n    /* \"#utility.yul\":649:682   */\n  tag_36\n    /* \"#utility.yul\":676:681   */\n  dup2\n    /* \"#utility.yul\":649:682   */\n  tag_20\n  jump\t// in\ntag_36:\n    /* \"#utility.yul\":545:688   */\n  swap3\n  swap2\n  pop\n  pop\n  jump\t// out\n    /* \"#utility.yul\":694:1514   */\ntag_2:\n    /* \"#utility.yul\":791:797   */\n  0x00\n    /* \"#utility.yul\":799:805   */\n  0x00\n    /* \"#utility.yul\":807:813   */\n  0x00\n    /* \"#utility.yul\":815:821   */\n  0x00\n    /* \"#utility.yul\":864:867   */\n  0x80\n    /* \"#utility.yul\":852:861   */\n  dup6\n    /* \"#utility.yul\":843:850   */\n  dup8\n    /* \"#utility.yul\":839:862   */\n  sub\n    /* \"#utility.yul\":835:868   */\n  slt\n    /* \"#utility.yul\":832:952   */\n  iszero\n  tag_38\n  jumpi\n    /* \"#utility.yul\":871:950   */\n  tag_39\n  tag_17\n  jump\t// in\ntag_39:\n    /* \"#utility.yul\":832:952   */\ntag_38:\n    /* \"#utility.yul\":991:992   */\n  0x00\n    /* \"#utility.yul\":1016:1080   */\n  tag_40\n    /* \"#utility.yul\":1072:1079   */\n  dup8\n    /* \"#utility.yul\":1063:1069   */\n  dup3\n    /* \"#utility.yul\":1052:1061   */\n  dup9\n    /* \"#utility.yul\":1048:1070   */\n  add\n    /* \"#utility.yul\":1016:1080   */\n  tag_21\n  jump\t// in\ntag_40:\n    /* \"#utility.yul\":1006:1080   */\n  swap5\n  pop\n    /* \"#utility.yul\":962:1090   */\n  pop\n    /* \"#utility.yul\":1129:1131   */\n  0x20\n    /* \"#utility.yul\":1155:1219   */\n  tag_41\n    /* \"#utility.yul\":1211:1218   */\n  dup8\n    /* \"#utility.yul\":1202:1208   */\n  dup3\n    /* \"#utility.yul\":1191:1200   */\n  dup9\n    /* \"#utility.yul\":1187:1209   */\n  add\n    /* \"#utility.yul\":1155:1219   */\n  tag_21\n  jump\t// in\ntag_41:\n    /* \"#utility.yul\":1145:1219   */\n  swap4\n  pop\n    /* \"#utility.yul\":1100:1229   */\n  pop\n    /* \"#utility.yul\":1268:1270   */\n  0x40\n    /* \"#utility.yul\":1294:1358   */\n  tag_42\n    /* \"#utility.yul\":1350:1357   */\n  dup8\n    /* \"#utility.yul\":1341:1347   */\n  dup3\n    /* \"#utility.yul\":1330:1339   */\n  dup9\n    /* \"#utility.yul\":1326:1348   */\n  add\n    /* \"#utility.yul\":1294:1358   */\n  tag_21\n  jump\t// in\ntag_42:\n    /* \"#utility.yul\":1284:1358   */\n  swap3\n  pop\n    /* \"#utility.yul\":1239:1368   */\n  pop\n    /* \"#utility.yul\":1407:1409   */\n  0x60\n    /* \"#utility.yul\":1433:1497   */\n  tag_43\n    /* \"#utility.yul\":1489:1496   */\n  dup8\n    /* \"#utility.yul\":1480:1486   */\n  dup3\n    /* \"#utility.yul\":1469:1478   */\n  dup9\n    /* \"#utility.yul\":1465:1487   */\n  add\n    /* \"#utility.yul\":1433:1497   */\n  tag_21\n  jump\t// in\ntag_43:\n    /* \"#utility.yul\":1423:1497   */\n  swap2\n  pop\n    /* \"#utility.yul\":1378:1507   */\n  pop\n    /* \"#utility.yul\":694:1514   */\n  swap3\n  swap6\n  swap2\n  swap5\n  pop\n  swap3\n  pop\n  jump\t// out\n    /* \"#utility.yul\":1520:1689   */\ntag_22:\n    /* \"#utility.yul\":1604:1615   */\n  0x00\n    /* \"#utility.yul\":1638:1644   */\n  dup3\n    /* \"#utility.yul\":1633:1636   */\n  dup3\n    /* \"#utility.yul\":1626:1645   */\n  mstore\n    /* \"#utility.yul\":1678:1682   */\n  0x20\n    /* \"#utility.yul\":1673:1676   */\n  dup3\n    /* \"#utility.yul\":1669:1683   */\n  add\n    /* \"#utility.yul\":1654:1683   */\n  swap1\n  pop\n    /* \"#utility.yul\":1520:1689   */\n  swap3\n  swap2\n  pop\n  pop\n  jump\t// out\n    /* \"#utility.yul\":1695:1940   */\ntag_23:\n    /* \"#utility.yul\":1835:1869   */\n  0x596f75206861766520746f206465706f7369742074686520616d6f756e74206f\n    /* \"#utility.yul\":1831:1832   */\n  0x00\n    /* \"#utility.yul\":1823:1829   */\n  dup3\n    /* \"#utility.yul\":1819:1833   */\n  add\n    /* \"#utility.yul\":1812:1870   */\n  mstore\n    /* \"#utility.yul\":1904:1932   */\n  0x6620746865206d6178696d756d20706f737369626c6520626964000000000000\n    /* \"#utility.yul\":1899:1901   */\n  0x20\n    /* \"#utility.yul\":1891:1897   */\n  dup3\n    /* \"#utility.yul\":1887:1902   */\n  add\n    /* \"#utility.yul\":1880:1933   */\n  mstore\n    /* \"#utility.yul\":1695:1940   */\n  pop\n  jump\t// out\n    /* \"#utility.yul\":1946:2312   */\ntag_24:\n    /* \"#utility.yul\":2088:2091   */\n  0x00\n    /* \"#utility.yul\":2109:2176   */\n  tag_47\n    /* \"#utility.yul\":2173:2175   */\n  0x3a\n    /* \"#utility.yul\":2168:2171   */\n  dup4\n    /* \"#utility.yul\":2109:2176   */\n  tag_22\n  jump\t// in\ntag_47:\n    /* \"#utility.yul\":2102:2176   */\n  swap2\n  pop\n    /* \"#utility.yul\":2185:2278   */\n  tag_48\n    /* \"#utility.yul\":2274:2277   */\n  dup3\n    /* \"#utility.yul\":2185:2278   */\n  tag_23\n  jump\t// in\ntag_48:\n    /* \"#utility.yul\":2303:2305   */\n  0x40\n    /* \"#utility.yul\":2298:2301   */\n  dup3\n    /* \"#utility.yul\":2294:2306   */\n  add\n    /* \"#utility.yul\":2287:2306   */\n  swap1\n  pop\n    /* \"#utility.yul\":1946:2312   */\n  swap2\n  swap1\n  pop\n  jump\t// out\n    /* \"#utility.yul\":2318:2737   */\ntag_7:\n    /* \"#utility.yul\":2484:2488   */\n  0x00\n    /* \"#utility.yul\":2522:2524   */\n  0x20\n    /* \"#utility.yul\":2511:2520   */\n  dup3\n    /* \"#utility.yul\":2507:2525   */\n  add\n    /* \"#utility.yul\":2499:2525   */\n  swap1\n  pop\n    /* \"#utility.yul\":2571:2580   */\n  dup2\n    /* \"#utility.yul\":2565:2569   */\n  dup2\n    /* \"#utility.yul\":2561:2581   */\n  sub\n    /* \"#utility.yul\":2557:2558   */\n  0x00\n    /* \"#utility.yul\":2546:2555   */\n  dup4\n    /* \"#utility.yul\":2542:2559   */\n  add\n    /* \"#utility.yul\":2535:2582   */\n  mstore\n    /* \"#utility.yul\":2599:2730   */\n  tag_50\n    /* \"#utility.yul\":2725:2729   */\n  dup2\n    /* \"#utility.yul\":2599:2730   */\n  tag_24\n  jump\t// in\ntag_50:\n    /* \"#utility.yul\":2591:2730   */\n  swap1\n  pop\n    /* \"#utility.yul\":2318:2737   */\n  swap2\n  swap1\n  pop\n  jump\t// out\n    /* \"#utility.yul\":2743:2914   */\ntag_25:\n    /* \"#utility.yul\":2883:2906   */\n  0x496e76616c69642061756374696f6e2064617465730000000000000000000000\n    /* \"#utility.yul\":2879:2880   */\n  0x00\n    /* \"#utility.yul\":2871:2877   */\n  dup3\n    /* \"#utility.yul\":2867:2881   */\n  add\n    /* \"#utility.yul\":2860:2907   */\n  mstore\n    /* \"#utility.yul\":2743:2914   */\n  pop\n  jump\t// out\n    /* \"#utility.yul\":2920:3286   */\ntag_26:\n    /* \"#utility.yul\":3062:3065   */\n  0x00\n    /* \"#utility.yul\":3083:3150   */\n  tag_53\n    /* \"#utility.yul\":3147:3149   */\n  0x15\n    /* \"#utility.yul\":3142:3145   */\n  dup4\n    /* \"#utility.yul\":3083:3150   */\n  tag_22\n  jump\t// in\ntag_53:\n    /* \"#utility.yul\":3076:3150   */\n  swap2\n  pop\n    /* \"#utility.yul\":3159:3252   */\n  tag_54\n    /* \"#utility.yul\":3248:3251   */\n  dup3\n    /* \"#utility.yul\":3159:3252   */\n  tag_25\n  jump\t// in\ntag_54:\n    /* \"#utility.yul\":3277:3279   */\n  0x20\n    /* \"#utility.yul\":3272:3275   */\n  dup3\n    /* \"#utility.yul\":3268:3280   */\n  add\n    /* \"#utility.yul\":3261:3280   */\n  swap1\n  pop\n    /* \"#utility.yul\":2920:3286   */\n  swap2\n  swap1\n  pop\n  jump\t// out\n    /* \"#utility.yul\":3292:3711   */\ntag_11:\n    /* \"#utility.yul\":3458:3462   */\n  0x00\n    /* \"#utility.yul\":3496:3498   */\n  0x20\n    /* \"#utility.yul\":3485:3494   */\n  dup3\n    /* \"#utility.yul\":3481:3499   */\n  add\n    /* \"#utility.yul\":3473:3499   */\n  swap1\n  pop\n    /* \"#utility.yul\":3545:3554   */\n  dup2\n    /* \"#utility.yul\":3539:3543   */\n  dup2\n    /* \"#utility.yul\":3535:3555   */\n  sub\n    /* \"#utility.yul\":3531:3532   */\n  0x00\n    /* \"#utility.yul\":3520:3529   */\n  dup4\n    /* \"#utility.yul\":3516:3533   */\n  add\n    /* \"#utility.yul\":3509:3556   */\n  mstore\n    /* \"#utility.yul\":3573:3704   */\n  tag_56\n    /* \"#utility.yul\":3699:3703   */\n  dup2\n    /* \"#utility.yul\":3573:3704   */\n  tag_26\n  jump\t// in\ntag_56:\n    /* \"#utility.yul\":3565:3704   */\n  swap1\n  pop\n    /* \"#utility.yul\":3292:3711   */\n  swap2\n  swap1\n  pop\n  jump\t// out\n    /* \"#utility.yul\":3717:3897   */\ntag_14:\n    /* \"#utility.yul\":3765:3842   */\n  0x4e487b7100000000000000000000000000000000000000000000000000000000\n    /* \"#utility.yul\":3762:3763   */\n  0x00\n    /* \"#utility.yul\":3755:3843   */\n  mstore\n    /* \"#utility.yul\":3862:3866   */\n  0x21\n    /* \"#utility.yul\":3859:3860   */\n  0x04\n    /* \"#utility.yul\":3852:3867   */\n  mstore\n    /* \"#utility.yul\":3886:3890   */\n  0x24\n    /* \"#utility.yul\":3883:3884   */\n  0x00\n    /* \"#utility.yul\":3876:3891   */\n  revert\n    /* \"contracts/subasta.sol\":57:5913  contract VickreyAuctionSimple {... */\ntag_15:\n  dataSize(sub_0)\n  dup1\n  dataOffset(sub_0)\n  0x00\n  codecopy\n  0x00\n  return\nstop\n\nsub_0: assembly {\n        /* \"contracts/subasta.sol\":57:5913  contract VickreyAuctionSimple {... */\n      mstore(0x40, 0x80)\n      jumpi(tag_1, lt(calldatasize, 0x04))\n      shr(0xe0, calldataload(0x00))\n      dup1\n      0x5d7e0b51\n      gt\n      tag_23\n      jumpi\n      dup1\n      0xc1f52604\n      gt\n      tag_24\n      jumpi\n      dup1\n      0xc1f52604\n      eq\n      tag_17\n      jumpi\n      dup1\n      0xcff29dfd\n      eq\n      tag_18\n      jumpi\n      dup1\n      0xd3124946\n      eq\n      tag_19\n      jumpi\n      dup1\n      0xdfbf53ae\n      eq\n      tag_20\n      jumpi\n      dup1\n      0xf77282ab\n      eq\n      tag_21\n      jumpi\n      dup1\n      0xfb4cd8e2\n      eq\n      tag_22\n      jumpi\n      jump(tag_1)\n    tag_24:\n      dup1\n      0x5d7e0b51\n      eq\n      tag_12\n      jumpi\n      dup1\n      0x74b11d8a\n      eq\n      tag_13\n      jumpi\n      dup1\n      0x8da5cb5b\n      eq\n      tag_14\n      jumpi\n      dup1\n      0x9979ef45\n      eq\n      tag_15\n      jumpi\n      dup1\n      0xc19d93fb\n      eq\n      tag_16\n      jumpi\n      jump(tag_1)\n    tag_23:\n      dup1\n      0x4423c5f1\n      gt\n      tag_25\n      jumpi\n      dup1\n      0x4423c5f1\n      eq\n      tag_7\n      jumpi\n      dup1\n      0x4cc4f50d\n      eq\n      tag_8\n      jumpi\n      dup1\n      0x4e9edd1b\n      eq\n      tag_9\n      jumpi\n      dup1\n      0x4f245ef7\n      eq\n      tag_10\n      jumpi\n      dup1\n      0x5a84d52a\n      eq\n      tag_11\n      jumpi\n      jump(tag_1)\n    tag_25:\n      dup1\n      0x11d72e47\n      eq\n      tag_2\n      jumpi\n      dup1\n      0x235f0e46\n      eq\n      tag_3\n      jumpi\n      dup1\n      0x28f6a48a\n      eq\n      tag_4\n      jumpi\n      dup1\n      0x2a24f46c\n      eq\n      tag_5\n      jumpi\n      dup1\n      0x362e2565\n      eq\n      tag_6\n      jumpi\n    tag_1:\n      revert(0x00, 0x00)\n        /* \"contracts/subasta.sol\":5619:5910  function notDelivered() public onlyOwner {... */\n    tag_2:\n      callvalue\n      dup1\n      iszero\n      tag_26\n      jumpi\n      revert(0x00, 0x00)\n    tag_26:\n      pop\n      tag_27\n      tag_28\n      jump\t// in\n    tag_27:\n      stop\n        /* \"contracts/subasta.sol\":4880:5091  function hasAlreadyBid(address bidder) public view returns (bool) {... */\n    tag_3:\n      callvalue\n      dup1\n      iszero\n      tag_29\n      jumpi\n      revert(0x00, 0x00)\n    tag_29:\n      pop\n      tag_30\n      0x04\n      dup1\n      calldatasize\n      sub\n      dup2\n      add\n      swap1\n      tag_31\n      swap2\n      swap1\n      tag_32\n      jump\t// in\n    tag_31:\n      tag_33\n      jump\t// in\n    tag_30:\n      mload(0x40)\n      tag_34\n      swap2\n      swap1\n      tag_35\n      jump\t// in\n    tag_34:\n      mload(0x40)\n      dup1\n      swap2\n      sub\n      swap1\n      return\n        /* \"contracts/subasta.sol\":5098:5186  function getBidCount() public view returns (uint256) {... */\n    tag_4:\n      callvalue\n      dup1\n      iszero\n      tag_36\n      jumpi\n      revert(0x00, 0x00)\n    tag_36:\n      pop\n      tag_37\n      tag_38\n      jump\t// in\n    tag_37:\n      mload(0x40)\n      tag_39\n      swap2\n      swap1\n      tag_40\n      jump\t// in\n    tag_39:\n      mload(0x40)\n      dup1\n      swap2\n      sub\n      swap1\n      return\n        /* \"contracts/subasta.sol\":160:185  uint256 public auctionEnd */\n    tag_5:\n      callvalue\n      dup1\n      iszero\n      tag_41\n      jumpi\n      revert(0x00, 0x00)\n    tag_41:\n      pop\n      tag_42\n      tag_43\n      jump\t// in\n    tag_42:\n      mload(0x40)\n      tag_44\n      swap2\n      swap1\n      tag_40\n      jump\t// in\n    tag_44:\n      mload(0x40)\n      dup1\n      swap2\n      sub\n      swap1\n      return\n        /* \"contracts/subasta.sol\":4360:4873  function returnDeposits() external onlyOwner {... */\n    tag_6:\n      callvalue\n      dup1\n      iszero\n      tag_45\n      jumpi\n      revert(0x00, 0x00)\n    tag_45:\n      pop\n      tag_46\n      tag_47\n      jump\t// in\n    tag_46:\n      stop\n        /* \"contracts/subasta.sol\":636:653  Bid[] public bids */\n    tag_7:\n      callvalue\n      dup1\n      iszero\n      tag_48\n      jumpi\n      revert(0x00, 0x00)\n    tag_48:\n      pop\n      tag_49\n      0x04\n      dup1\n      calldatasize\n      sub\n      dup2\n      add\n      swap1\n      tag_50\n      swap2\n      swap1\n      tag_51\n      jump\t// in\n    tag_50:\n      tag_52\n      jump\t// in\n    tag_49:\n      mload(0x40)\n      tag_53\n      swap6\n      swap5\n      swap4\n      swap3\n      swap2\n      swap1\n      tag_54\n      jump\t// in\n    tag_53:\n      mload(0x40)\n      dup1\n      swap2\n      sub\n      swap1\n      return\n        /* \"contracts/subasta.sol\":285:324  uint256 public constant MAX_BIDDERS = 3 */\n    tag_8:\n      callvalue\n      dup1\n      iszero\n      tag_55\n      jumpi\n      revert(0x00, 0x00)\n    tag_55:\n      pop\n      tag_56\n      tag_57\n      jump\t// in\n    tag_56:\n      mload(0x40)\n      tag_58\n      swap2\n      swap1\n      tag_40\n      jump\t// in\n    tag_58:\n      mload(0x40)\n      dup1\n      swap2\n      sub\n      swap1\n      return\n        /* \"contracts/subasta.sol\":757:785  uint256 public winnerDeposit */\n    tag_9:\n      callvalue\n      dup1\n      iszero\n      tag_59\n      jumpi\n      revert(0x00, 0x00)\n    tag_59:\n      pop\n      tag_60\n      tag_61\n      jump\t// in\n    tag_60:\n      mload(0x40)\n      tag_62\n      swap2\n      swap1\n      tag_40\n      jump\t// in\n    tag_62:\n      mload(0x40)\n      dup1\n      swap2\n      sub\n      swap1\n      return\n        /* \"contracts/subasta.sol\":127:154  uint256 public auctionStart */\n    tag_10:\n      callvalue\n      dup1\n      iszero\n      tag_63\n      jumpi\n      revert(0x00, 0x00)\n    tag_63:\n      pop\n      tag_64\n      tag_65\n      jump\t// in\n    tag_64:\n      mload(0x40)\n      tag_66\n      swap2\n      swap1\n      tag_40\n      jump\t// in\n    tag_66:\n      mload(0x40)\n      dup1\n      swap2\n      sub\n      swap1\n      return\n        /* \"contracts/subasta.sol\":330:377  uint256 public constant DEPOSIT_PERCENTAGE = 10 */\n    tag_11:\n      callvalue\n      dup1\n      iszero\n      tag_67\n      jumpi\n      revert(0x00, 0x00)\n    tag_67:\n      pop\n      tag_68\n      tag_69\n      jump\t// in\n    tag_68:\n      mload(0x40)\n      tag_70\n      swap2\n      swap1\n      tag_40\n      jump\t// in\n    tag_70:\n      mload(0x40)\n      dup1\n      swap2\n      sub\n      swap1\n      return\n        /* \"contracts/subasta.sol\":5214:5558  function deliveryReceived() public onlyOwner {... */\n    tag_12:\n      callvalue\n      dup1\n      iszero\n      tag_71\n      jumpi\n      revert(0x00, 0x00)\n    tag_71:\n      pop\n      tag_72\n      tag_73\n      jump\t// in\n    tag_72:\n      stop\n        /* \"contracts/subasta.sol\":227:248  uint256 public maxBid */\n    tag_13:\n      callvalue\n      dup1\n      iszero\n      tag_74\n      jumpi\n      revert(0x00, 0x00)\n    tag_74:\n      pop\n      tag_75\n      tag_76\n      jump\t// in\n    tag_75:\n      mload(0x40)\n      tag_77\n      swap2\n      swap1\n      tag_40\n      jump\t// in\n    tag_77:\n      mload(0x40)\n      dup1\n      swap2\n      sub\n      swap1\n      return\n        /* \"contracts/subasta.sol\":93:121  address payable public owner */\n    tag_14:\n      callvalue\n      dup1\n      iszero\n      tag_78\n      jumpi\n      revert(0x00, 0x00)\n    tag_78:\n      pop\n      tag_79\n      tag_80\n      jump\t// in\n    tag_79:\n      mload(0x40)\n      tag_81\n      swap2\n      swap1\n      tag_82\n      jump\t// in\n    tag_81:\n      mload(0x40)\n      dup1\n      swap2\n      sub\n      swap1\n      return\n        /* \"contracts/subasta.sol\":1922:2759  function placeBid(uint256 _amount) external payable auctionOpen {... */\n    tag_15:\n      tag_83\n      0x04\n      dup1\n      calldatasize\n      sub\n      dup2\n      add\n      swap1\n      tag_84\n      swap2\n      swap1\n      tag_51\n      jump\t// in\n    tag_84:\n      tag_85\n      jump\t// in\n    tag_83:\n      stop\n        /* \"contracts/subasta.sol\":438:463  AuctionState public state */\n    tag_16:\n      callvalue\n      dup1\n      iszero\n      tag_86\n      jumpi\n      revert(0x00, 0x00)\n    tag_86:\n      pop\n      tag_87\n      tag_88\n      jump\t// in\n    tag_87:\n      mload(0x40)\n      tag_89\n      swap2\n      swap1\n      tag_90\n      jump\t// in\n    tag_89:\n      mload(0x40)\n      dup1\n      swap2\n      sub\n      swap1\n      return\n        /* \"contracts/subasta.sol\":724:751  uint256 public winningPrice */\n    tag_17:\n      callvalue\n      dup1\n      iszero\n      tag_91\n      jumpi\n      revert(0x00, 0x00)\n    tag_91:\n      pop\n      tag_92\n      tag_93\n      jump\t// in\n    tag_92:\n      mload(0x40)\n      tag_94\n      swap2\n      swap1\n      tag_40\n      jump\t// in\n    tag_94:\n      mload(0x40)\n      dup1\n      swap2\n      sub\n      swap1\n      return\n        /* \"contracts/subasta.sol\":659:683  address[] public bidders */\n    tag_18:\n      callvalue\n      dup1\n      iszero\n      tag_95\n      jumpi\n      revert(0x00, 0x00)\n    tag_95:\n      pop\n      tag_96\n      0x04\n      dup1\n      calldatasize\n      sub\n      dup2\n      add\n      swap1\n      tag_97\n      swap2\n      swap1\n      tag_51\n      jump\t// in\n    tag_97:\n      tag_98\n      jump\t// in\n    tag_96:\n      mload(0x40)\n      tag_99\n      swap2\n      swap1\n      tag_100\n      jump\t// in\n    tag_99:\n      mload(0x40)\n      dup1\n      swap2\n      sub\n      swap1\n      return\n        /* \"contracts/subasta.sol\":191:221  uint256 public deliveryDueDate */\n    tag_19:\n      callvalue\n      dup1\n      iszero\n      tag_101\n      jumpi\n      revert(0x00, 0x00)\n    tag_101:\n      pop\n      tag_102\n      tag_103\n      jump\t// in\n    tag_102:\n      mload(0x40)\n      tag_104\n      swap2\n      swap1\n      tag_40\n      jump\t// in\n    tag_104:\n      mload(0x40)\n      dup1\n      swap2\n      sub\n      swap1\n      return\n        /* \"contracts/subasta.sol\":689:718  address payable public winner */\n    tag_20:\n      callvalue\n      dup1\n      iszero\n      tag_105\n      jumpi\n      revert(0x00, 0x00)\n    tag_105:\n      pop\n      tag_106\n      tag_107\n      jump\t// in\n    tag_106:\n      mload(0x40)\n      tag_108\n      swap2\n      swap1\n      tag_82\n      jump\t// in\n    tag_108:\n      mload(0x40)\n      dup1\n      swap2\n      sub\n      swap1\n      return\n        /* \"contracts/subasta.sol\":2765:3026  function finalizeAuction() external onlyOwner {... */\n    tag_21:\n      callvalue\n      dup1\n      iszero\n      tag_109\n      jumpi\n      revert(0x00, 0x00)\n    tag_109:\n      pop\n      tag_110\n      tag_111\n      jump\t// in\n    tag_110:\n      stop\n        /* \"contracts/subasta.sol\":254:279  uint256 public numBidders */\n    tag_22:\n      callvalue\n      dup1\n      iszero\n      tag_112\n      jumpi\n      revert(0x00, 0x00)\n    tag_112:\n      pop\n      tag_113\n      tag_114\n      jump\t// in\n    tag_113:\n      mload(0x40)\n      tag_115\n      swap2\n      swap1\n      tag_40\n      jump\t// in\n    tag_115:\n      mload(0x40)\n      dup1\n      swap2\n      sub\n      swap1\n      return\n        /* \"contracts/subasta.sol\":5619:5910  function notDelivered() public onlyOwner {... */\n    tag_28:\n        /* \"contracts/subasta.sol\":1056:1061  owner */\n      0x00\n      0x00\n      swap1\n      sload\n      swap1\n      0x0100\n      exp\n      swap1\n      div\n      0xffffffffffffffffffffffffffffffffffffffff\n      and\n        /* \"contracts/subasta.sol\":1042:1061  msg.sender == owner */\n      0xffffffffffffffffffffffffffffffffffffffff\n      and\n        /* \"contracts/subasta.sol\":1042:1052  msg.sender */\n      caller\n        /* \"contracts/subasta.sol\":1042:1061  msg.sender == owner */\n      0xffffffffffffffffffffffffffffffffffffffff\n      and\n      eq\n        /* \"contracts/subasta.sol\":1034:1103  require(msg.sender == owner, \"Only the owner can call this function\") */\n      tag_117\n      jumpi\n      mload(0x40)\n      0x08c379a000000000000000000000000000000000000000000000000000000000\n      dup2\n      mstore\n      0x04\n      add\n      tag_118\n      swap1\n      tag_119\n      jump\t// in\n    tag_118:\n      mload(0x40)\n      dup1\n      swap2\n      sub\n      swap1\n      revert\n    tag_117:\n        /* \"contracts/subasta.sol\":5687:5709  AuctionState.Completed */\n      0x02\n        /* \"contracts/subasta.sol\":5678:5709  state == AuctionState.Completed */\n      dup1\n      dup2\n      gt\n      iszero\n      tag_121\n      jumpi\n      tag_122\n      tag_123\n      jump\t// in\n    tag_122:\n    tag_121:\n        /* \"contracts/subasta.sol\":5678:5683  state */\n      0x06\n      0x00\n      swap1\n      sload\n      swap1\n      0x0100\n      exp\n      swap1\n      div\n      0xff\n      and\n        /* \"contracts/subasta.sol\":5678:5709  state == AuctionState.Completed */\n      0x02\n      dup2\n      gt\n      iszero\n      tag_124\n      jumpi\n      tag_125\n      tag_123\n      jump\t// in\n    tag_125:\n    tag_124:\n      eq\n        /* \"contracts/subasta.sol\":5670:5769  require(state == AuctionState.Completed, \"Auction still open or didn't paid back the deposits yet\") */\n      tag_126\n      jumpi\n      mload(0x40)\n      0x08c379a000000000000000000000000000000000000000000000000000000000\n      dup2\n      mstore\n      0x04\n      add\n      tag_127\n      swap1\n      tag_128\n      jump\t// in\n    tag_127:\n      mload(0x40)\n      dup1\n      swap2\n      sub\n      swap1\n      revert\n    tag_126:\n        /* \"contracts/subasta.sol\":5805:5820  deliveryDueDate */\n      sload(0x03)\n        /* \"contracts/subasta.sol\":5787:5802  block.timestamp */\n      timestamp\n        /* \"contracts/subasta.sol\":5787:5820  block.timestamp > deliveryDueDate */\n      gt\n        /* \"contracts/subasta.sol\":5779:5855  require(block.timestamp > deliveryDueDate, \"The delivery can still be made\") */\n      tag_129\n      jumpi\n      mload(0x40)\n      0x08c379a000000000000000000000000000000000000000000000000000000000\n      dup2\n      mstore\n      0x04\n      add\n      tag_130\n      swap1\n      tag_131\n      jump\t// in\n    tag_130:\n      mload(0x40)\n      dup1\n      swap2\n      sub\n      swap1\n      revert\n    tag_129:\n        /* \"contracts/subasta.sol\":5866:5871  owner */\n      0x00\n      0x00\n      swap1\n      sload\n      swap1\n      0x0100\n      exp\n      swap1\n      div\n      0xffffffffffffffffffffffffffffffffffffffff\n      and\n        /* \"contracts/subasta.sol\":5866:5880  owner.transfer */\n      0xffffffffffffffffffffffffffffffffffffffff\n      and\n        /* \"contracts/subasta.sol\":5866:5903  owner.transfer(address(this).balance) */\n      0x08fc\n        /* \"contracts/subasta.sol\":5881:5902  address(this).balance */\n      selfbalance\n        /* \"contracts/subasta.sol\":5866:5903  owner.transfer(address(this).balance) */\n      swap1\n      dup2\n      iszero\n      mul\n      swap1\n      mload(0x40)\n      0x00\n      mload(0x40)\n      dup1\n      dup4\n      sub\n      dup2\n      dup6\n      dup9\n      dup9\n      call\n      swap4\n      pop\n      pop\n      pop\n      pop\n      iszero\n      dup1\n      iszero\n      tag_133\n      jumpi\n      returndatacopy(0x00, 0x00, returndatasize)\n      revert(0x00, returndatasize)\n    tag_133:\n      pop\n        /* \"contracts/subasta.sol\":5619:5910  function notDelivered() public onlyOwner {... */\n      jump\t// out\n        /* \"contracts/subasta.sol\":4880:5091  function hasAlreadyBid(address bidder) public view returns (bool) {... */\n    tag_33:\n        /* \"contracts/subasta.sol\":4940:4944  bool */\n      0x00\n        /* \"contracts/subasta.sol\":4961:4970  uint256 i */\n      0x00\n        /* \"contracts/subasta.sol\":4973:4974  0 */\n      0x00\n        /* \"contracts/subasta.sol\":4961:4974  uint256 i = 0 */\n      swap1\n      pop\n        /* \"contracts/subasta.sol\":4956:5063  for (uint256 i = 0; i < bidders.length; i++) {... */\n    tag_135:\n        /* \"contracts/subasta.sol\":4980:4987  bidders */\n      0x08\n        /* \"contracts/subasta.sol\":4980:4994  bidders.length */\n      dup1\n      sload\n      swap1\n      pop\n        /* \"contracts/subasta.sol\":4976:4977  i */\n      dup2\n        /* \"contracts/subasta.sol\":4976:4994  i < bidders.length */\n      lt\n        /* \"contracts/subasta.sol\":4956:5063  for (uint256 i = 0; i < bidders.length; i++) {... */\n      iszero\n      tag_136\n      jumpi\n        /* \"contracts/subasta.sol\":5033:5039  bidder */\n      dup3\n        /* \"contracts/subasta.sol\":5019:5039  bidders[i] == bidder */\n      0xffffffffffffffffffffffffffffffffffffffff\n      and\n        /* \"contracts/subasta.sol\":5019:5026  bidders */\n      0x08\n        /* \"contracts/subasta.sol\":5027:5028  i */\n      dup3\n        /* \"contracts/subasta.sol\":5019:5029  bidders[i] */\n      dup2\n      sload\n      dup2\n      lt\n      tag_138\n      jumpi\n      tag_139\n      tag_140\n      jump\t// in\n    tag_139:\n    tag_138:\n      swap1\n      0x00\n      mstore\n      keccak256(0x00, 0x20)\n      add\n      0x00\n      swap1\n      sload\n      swap1\n      0x0100\n      exp\n      swap1\n      div\n      0xffffffffffffffffffffffffffffffffffffffff\n      and\n        /* \"contracts/subasta.sol\":5019:5039  bidders[i] == bidder */\n      0xffffffffffffffffffffffffffffffffffffffff\n      and\n      sub\n        /* \"contracts/subasta.sol\":5015:5052  if (bidders[i] == bidder) return true */\n      tag_142\n      jumpi\n        /* \"contracts/subasta.sol\":5048:5052  true */\n      0x01\n        /* \"contracts/subasta.sol\":5041:5052  return true */\n      swap2\n      pop\n      pop\n      jump(tag_134)\n        /* \"contracts/subasta.sol\":5015:5052  if (bidders[i] == bidder) return true */\n    tag_142:\n        /* \"contracts/subasta.sol\":4996:4999  i++ */\n      dup1\n      dup1\n      0x01\n      add\n      swap2\n      pop\n      pop\n        /* \"contracts/subasta.sol\":4956:5063  for (uint256 i = 0; i < bidders.length; i++) {... */\n      jump(tag_135)\n    tag_136:\n      pop\n        /* \"contracts/subasta.sol\":5079:5084  false */\n      0x00\n        /* \"contracts/subasta.sol\":5072:5084  return false */\n      swap1\n      pop\n        /* \"contracts/subasta.sol\":4880:5091  function hasAlreadyBid(address bidder) public view returns (bool) {... */\n    tag_134:\n      swap2\n      swap1\n      pop\n      jump\t// out\n        /* \"contracts/subasta.sol\":5098:5186  function getBidCount() public view returns (uint256) {... */\n    tag_38:\n        /* \"contracts/subasta.sol\":5142:5149  uint256 */\n      0x00\n        /* \"contracts/subasta.sol\":5168:5172  bids */\n      0x07\n        /* \"contracts/subasta.sol\":5168:5179  bids.length */\n      dup1\n      sload\n      swap1\n      pop\n        /* \"contracts/subasta.sol\":5161:5179  return bids.length */\n      swap1\n      pop\n        /* \"contracts/subasta.sol\":5098:5186  function getBidCount() public view returns (uint256) {... */\n      swap1\n      jump\t// out\n        /* \"contracts/subasta.sol\":160:185  uint256 public auctionEnd */\n    tag_43:\n      sload(0x02)\n      dup2\n      jump\t// out\n        /* \"contracts/subasta.sol\":4360:4873  function returnDeposits() external onlyOwner {... */\n    tag_47:\n        /* \"contracts/subasta.sol\":1056:1061  owner */\n      0x00\n      0x00\n      swap1\n      sload\n      swap1\n      0x0100\n      exp\n      swap1\n      div\n      0xffffffffffffffffffffffffffffffffffffffff\n      and\n        /* \"contracts/subasta.sol\":1042:1061  msg.sender == owner */\n      0xffffffffffffffffffffffffffffffffffffffff\n      and\n        /* \"contracts/subasta.sol\":1042:1052  msg.sender */\n      caller\n        /* \"contracts/subasta.sol\":1042:1061  msg.sender == owner */\n      0xffffffffffffffffffffffffffffffffffffffff\n      and\n      eq\n        /* \"contracts/subasta.sol\":1034:1103  require(msg.sender == owner, \"Only the owner can call this function\") */\n      tag_145\n      jumpi\n      mload(0x40)\n      0x08c379a000000000000000000000000000000000000000000000000000000000\n      dup2\n      mstore\n      0x04\n      add\n      tag_146\n      swap1\n      tag_119\n      jump\t// in\n    tag_146:\n      mload(0x40)\n      dup1\n      swap2\n      sub\n      swap1\n      revert\n    tag_145:\n        /* \"contracts/subasta.sol\":4432:4451  AuctionState.Closed */\n      0x01\n        /* \"contracts/subasta.sol\":4423:4451  state == AuctionState.Closed */\n      0x02\n      dup2\n      gt\n      iszero\n      tag_148\n      jumpi\n      tag_149\n      tag_123\n      jump\t// in\n    tag_149:\n    tag_148:\n        /* \"contracts/subasta.sol\":4423:4428  state */\n      0x06\n      0x00\n      swap1\n      sload\n      swap1\n      0x0100\n      exp\n      swap1\n      div\n      0xff\n      and\n        /* \"contracts/subasta.sol\":4423:4451  state == AuctionState.Closed */\n      0x02\n      dup2\n      gt\n      iszero\n      tag_150\n      jumpi\n      tag_151\n      tag_123\n      jump\t// in\n    tag_151:\n    tag_150:\n      eq\n        /* \"contracts/subasta.sol\":4415:4474  require(state == AuctionState.Closed, \"Auction still open\") */\n      tag_152\n      jumpi\n      mload(0x40)\n      0x08c379a000000000000000000000000000000000000000000000000000000000\n      dup2\n      mstore\n      0x04\n      add\n      tag_153\n      swap1\n      tag_154\n      jump\t// in\n    tag_153:\n      mload(0x40)\n      dup1\n      swap2\n      sub\n      swap1\n      revert\n    tag_152:\n        /* \"contracts/subasta.sol\":4498:4507  uint256 i */\n      0x00\n        /* \"contracts/subasta.sol\":4510:4511  0 */\n      0x00\n        /* \"contracts/subasta.sol\":4498:4511  uint256 i = 0 */\n      swap1\n      pop\n        /* \"contracts/subasta.sol\":4493:4818  for (uint256 i = 0; i < bids.length; i++) {... */\n    tag_155:\n        /* \"contracts/subasta.sol\":4517:4521  bids */\n      0x07\n        /* \"contracts/subasta.sol\":4517:4528  bids.length */\n      dup1\n      sload\n      swap1\n      pop\n        /* \"contracts/subasta.sol\":4513:4514  i */\n      dup2\n        /* \"contracts/subasta.sol\":4513:4528  i < bids.length */\n      lt\n        /* \"contracts/subasta.sol\":4493:4818  for (uint256 i = 0; i < bids.length; i++) {... */\n      iszero\n      tag_156\n      jumpi\n        /* \"contracts/subasta.sol\":4571:4577  winner */\n      0x09\n      0x00\n      swap1\n      sload\n      swap1\n      0x0100\n      exp\n      swap1\n      div\n      0xffffffffffffffffffffffffffffffffffffffff\n      and\n        /* \"contracts/subasta.sol\":4553:4577  bids[i].bidder != winner */\n      0xffffffffffffffffffffffffffffffffffffffff\n      and\n        /* \"contracts/subasta.sol\":4553:4557  bids */\n      0x07\n        /* \"contracts/subasta.sol\":4558:4559  i */\n      dup3\n        /* \"contracts/subasta.sol\":4553:4560  bids[i] */\n      dup2\n      sload\n      dup2\n      lt\n      tag_158\n      jumpi\n      tag_159\n      tag_140\n      jump\t// in\n    tag_159:\n    tag_158:\n      swap1\n      0x00\n      mstore\n      keccak256(0x00, 0x20)\n      swap1\n      0x05\n      mul\n      add\n        /* \"contracts/subasta.sol\":4553:4567  bids[i].bidder */\n      0x00\n      add\n      0x00\n      swap1\n      sload\n      swap1\n      0x0100\n      exp\n      swap1\n      div\n      0xffffffffffffffffffffffffffffffffffffffff\n      and\n        /* \"contracts/subasta.sol\":4553:4577  bids[i].bidder != winner */\n      0xffffffffffffffffffffffffffffffffffffffff\n      and\n      eq\n      iszero\n        /* \"contracts/subasta.sol\":4553:4605  bids[i].bidder != winner && !bids[i].depositReturned */\n      dup1\n      iszero\n      tag_161\n      jumpi\n      pop\n        /* \"contracts/subasta.sol\":4582:4586  bids */\n      0x07\n        /* \"contracts/subasta.sol\":4587:4588  i */\n      dup2\n        /* \"contracts/subasta.sol\":4582:4589  bids[i] */\n      dup2\n      sload\n      dup2\n      lt\n      tag_162\n      jumpi\n      tag_163\n      tag_140\n      jump\t// in\n    tag_163:\n    tag_162:\n      swap1\n      0x00\n      mstore\n      keccak256(0x00, 0x20)\n      swap1\n      0x05\n      mul\n      add\n        /* \"contracts/subasta.sol\":4582:4605  bids[i].depositReturned */\n      0x04\n      add\n      0x00\n      swap1\n      sload\n      swap1\n      0x0100\n      exp\n      swap1\n      div\n      0xff\n      and\n        /* \"contracts/subasta.sol\":4581:4605  !bids[i].depositReturned */\n      iszero\n        /* \"contracts/subasta.sol\":4553:4605  bids[i].bidder != winner && !bids[i].depositReturned */\n    tag_161:\n        /* \"contracts/subasta.sol\":4549:4808  if (bids[i].bidder != winner && !bids[i].depositReturned) {... */\n      iszero\n      tag_165\n      jumpi\n        /* \"contracts/subasta.sol\":4651:4655  true */\n      0x01\n        /* \"contracts/subasta.sol\":4625:4629  bids */\n      0x07\n        /* \"contracts/subasta.sol\":4630:4631  i */\n      dup3\n        /* \"contracts/subasta.sol\":4625:4632  bids[i] */\n      dup2\n      sload\n      dup2\n      lt\n      tag_166\n      jumpi\n      tag_167\n      tag_140\n      jump\t// in\n    tag_167:\n    tag_166:\n      swap1\n      0x00\n      mstore\n      keccak256(0x00, 0x20)\n      swap1\n      0x05\n      mul\n      add\n        /* \"contracts/subasta.sol\":4625:4648  bids[i].depositReturned */\n      0x04\n      add\n      0x00\n        /* \"contracts/subasta.sol\":4625:4655  bids[i].depositReturned = true */\n      0x0100\n      exp\n      dup2\n      sload\n      dup2\n      0xff\n      mul\n      not\n      and\n      swap1\n      dup4\n      iszero\n      iszero\n      mul\n      or\n      swap1\n      sstore\n      pop\n        /* \"contracts/subasta.sol\":4681:4685  bids */\n      0x07\n        /* \"contracts/subasta.sol\":4686:4687  i */\n      dup2\n        /* \"contracts/subasta.sol\":4681:4688  bids[i] */\n      dup2\n      sload\n      dup2\n      lt\n      tag_169\n      jumpi\n      tag_170\n      tag_140\n      jump\t// in\n    tag_170:\n    tag_169:\n      swap1\n      0x00\n      mstore\n      keccak256(0x00, 0x20)\n      swap1\n      0x05\n      mul\n      add\n        /* \"contracts/subasta.sol\":4681:4695  bids[i].bidder */\n      0x00\n      add\n      0x00\n      swap1\n      sload\n      swap1\n      0x0100\n      exp\n      swap1\n      div\n      0xffffffffffffffffffffffffffffffffffffffff\n      and\n        /* \"contracts/subasta.sol\":4673:4705  payable(bids[i].bidder).transfer */\n      0xffffffffffffffffffffffffffffffffffffffff\n      and\n        /* \"contracts/subasta.sol\":4673:4722  payable(bids[i].bidder).transfer(bids[i].deposit) */\n      0x08fc\n        /* \"contracts/subasta.sol\":4706:4710  bids */\n      0x07\n        /* \"contracts/subasta.sol\":4711:4712  i */\n      dup4\n        /* \"contracts/subasta.sol\":4706:4713  bids[i] */\n      dup2\n      sload\n      dup2\n      lt\n      tag_172\n      jumpi\n      tag_173\n      tag_140\n      jump\t// in\n    tag_173:\n    tag_172:\n      swap1\n      0x00\n      mstore\n      keccak256(0x00, 0x20)\n      swap1\n      0x05\n      mul\n      add\n        /* \"contracts/subasta.sol\":4706:4721  bids[i].deposit */\n      0x02\n      add\n      sload\n        /* \"contracts/subasta.sol\":4673:4722  payable(bids[i].bidder).transfer(bids[i].deposit) */\n      swap1\n      dup2\n      iszero\n      mul\n      swap1\n      mload(0x40)\n      0x00\n      mload(0x40)\n      dup1\n      dup4\n      sub\n      dup2\n      dup6\n      dup9\n      dup9\n      call\n      swap4\n      pop\n      pop\n      pop\n      pop\n      iszero\n      dup1\n      iszero\n      tag_176\n      jumpi\n      returndatacopy(0x00, 0x00, returndatasize)\n      revert(0x00, returndatasize)\n    tag_176:\n      pop\n        /* \"contracts/subasta.sol\":4761:4765  bids */\n      0x07\n        /* \"contracts/subasta.sol\":4766:4767  i */\n      dup2\n        /* \"contracts/subasta.sol\":4761:4768  bids[i] */\n      dup2\n      sload\n      dup2\n      lt\n      tag_177\n      jumpi\n      tag_178\n      tag_140\n      jump\t// in\n    tag_178:\n    tag_177:\n      swap1\n      0x00\n      mstore\n      keccak256(0x00, 0x20)\n      swap1\n      0x05\n      mul\n      add\n        /* \"contracts/subasta.sol\":4761:4775  bids[i].bidder */\n      0x00\n      add\n      0x00\n      swap1\n      sload\n      swap1\n      0x0100\n      exp\n      swap1\n      div\n      0xffffffffffffffffffffffffffffffffffffffff\n      and\n        /* \"contracts/subasta.sol\":4745:4793  DepositReturned(bids[i].bidder, bids[i].deposit) */\n      0xffffffffffffffffffffffffffffffffffffffff\n      and\n      0xa09244c122a83074363635dc89ce0098166c2f74827960ff64a7c8e6ad1c57a2\n        /* \"contracts/subasta.sol\":4777:4781  bids */\n      0x07\n        /* \"contracts/subasta.sol\":4782:4783  i */\n      dup4\n        /* \"contracts/subasta.sol\":4777:4784  bids[i] */\n      dup2\n      sload\n      dup2\n      lt\n      tag_180\n      jumpi\n      tag_181\n      tag_140\n      jump\t// in\n    tag_181:\n    tag_180:\n      swap1\n      0x00\n      mstore\n      keccak256(0x00, 0x20)\n      swap1\n      0x05\n      mul\n      add\n        /* \"contracts/subasta.sol\":4777:4792  bids[i].deposit */\n      0x02\n      add\n      sload\n        /* \"contracts/subasta.sol\":4745:4793  DepositReturned(bids[i].bidder, bids[i].deposit) */\n      mload(0x40)\n      tag_183\n      swap2\n      swap1\n      tag_40\n      jump\t// in\n    tag_183:\n      mload(0x40)\n      dup1\n      swap2\n      sub\n      swap1\n      log2\n        /* \"contracts/subasta.sol\":4549:4808  if (bids[i].bidder != winner && !bids[i].depositReturned) {... */\n    tag_165:\n        /* \"contracts/subasta.sol\":4530:4533  i++ */\n      dup1\n      dup1\n      0x01\n      add\n      swap2\n      pop\n      pop\n        /* \"contracts/subasta.sol\":4493:4818  for (uint256 i = 0; i < bids.length; i++) {... */\n      jump(tag_155)\n    tag_156:\n      pop\n        /* \"contracts/subasta.sol\":4844:4866  AuctionState.Completed */\n      0x02\n        /* \"contracts/subasta.sol\":4836:4841  state */\n      0x06\n      0x00\n        /* \"contracts/subasta.sol\":4836:4866  state = AuctionState.Completed */\n      0x0100\n      exp\n      dup2\n      sload\n      dup2\n      0xff\n      mul\n      not\n      and\n      swap1\n      dup4\n      0x02\n      dup2\n      gt\n      iszero\n      tag_184\n      jumpi\n      tag_185\n      tag_123\n      jump\t// in\n    tag_185:\n    tag_184:\n      mul\n      or\n      swap1\n      sstore\n      pop\n        /* \"contracts/subasta.sol\":4360:4873  function returnDeposits() external onlyOwner {... */\n      jump\t// out\n        /* \"contracts/subasta.sol\":636:653  Bid[] public bids */\n    tag_52:\n      0x07\n      dup2\n      dup2\n      sload\n      dup2\n      lt\n      tag_186\n      jumpi\n      0x00\n      dup1\n      revert\n    tag_186:\n      swap1\n      0x00\n      mstore\n      keccak256(0x00, 0x20)\n      swap1\n      0x05\n      mul\n      add\n      0x00\n      swap2\n      pop\n      swap1\n      pop\n      dup1\n      0x00\n      add\n      0x00\n      swap1\n      sload\n      swap1\n      0x0100\n      exp\n      swap1\n      div\n      0xffffffffffffffffffffffffffffffffffffffff\n      and\n      swap1\n      dup1\n      0x01\n      add\n      sload\n      swap1\n      dup1\n      0x02\n      add\n      sload\n      swap1\n      dup1\n      0x03\n      add\n      sload\n      swap1\n      dup1\n      0x04\n      add\n      0x00\n      swap1\n      sload\n      swap1\n      0x0100\n      exp\n      swap1\n      div\n      0xff\n      and\n      swap1\n      pop\n      dup6\n      jump\t// out\n        /* \"contracts/subasta.sol\":285:324  uint256 public constant MAX_BIDDERS = 3 */\n    tag_57:\n        /* \"contracts/subasta.sol\":323:324  3 */\n      0x03\n        /* \"contracts/subasta.sol\":285:324  uint256 public constant MAX_BIDDERS = 3 */\n      dup2\n      jump\t// out\n        /* \"contracts/subasta.sol\":757:785  uint256 public winnerDeposit */\n    tag_61:\n      sload(0x0b)\n      dup2\n      jump\t// out\n        /* \"contracts/subasta.sol\":127:154  uint256 public auctionStart */\n    tag_65:\n      sload(0x01)\n      dup2\n      jump\t// out\n        /* \"contracts/subasta.sol\":330:377  uint256 public constant DEPOSIT_PERCENTAGE = 10 */\n    tag_69:\n        /* \"contracts/subasta.sol\":375:377  10 */\n      0x0a\n        /* \"contracts/subasta.sol\":330:377  uint256 public constant DEPOSIT_PERCENTAGE = 10 */\n      dup2\n      jump\t// out\n        /* \"contracts/subasta.sol\":5214:5558  function deliveryReceived() public onlyOwner {... */\n    tag_73:\n        /* \"contracts/subasta.sol\":1056:1061  owner */\n      0x00\n      0x00\n      swap1\n      sload\n      swap1\n      0x0100\n      exp\n      swap1\n      div\n      0xffffffffffffffffffffffffffffffffffffffff\n      and\n        /* \"contracts/subasta.sol\":1042:1061  msg.sender == owner */\n      0xffffffffffffffffffffffffffffffffffffffff\n      and\n        /* \"contracts/subasta.sol\":1042:1052  msg.sender */\n      caller\n        /* \"contracts/subasta.sol\":1042:1061  msg.sender == owner */\n      0xffffffffffffffffffffffffffffffffffffffff\n      and\n      eq\n        /* \"contracts/subasta.sol\":1034:1103  require(msg.sender == owner, \"Only the owner can call this function\") */\n      tag_189\n      jumpi\n      mload(0x40)\n      0x08c379a000000000000000000000000000000000000000000000000000000000\n      dup2\n      mstore\n      0x04\n      add\n      tag_190\n      swap1\n      tag_119\n      jump\t// in\n    tag_190:\n      mload(0x40)\n      dup1\n      swap2\n      sub\n      swap1\n      revert\n    tag_189:\n        /* \"contracts/subasta.sol\":5286:5308  AuctionState.Completed */\n      0x02\n        /* \"contracts/subasta.sol\":5277:5308  state == AuctionState.Completed */\n      dup1\n      dup2\n      gt\n      iszero\n      tag_192\n      jumpi\n      tag_193\n      tag_123\n      jump\t// in\n    tag_193:\n    tag_192:\n        /* \"contracts/subasta.sol\":5277:5282  state */\n      0x06\n      0x00\n      swap1\n      sload\n      swap1\n      0x0100\n      exp\n      swap1\n      div\n      0xff\n      and\n        /* \"contracts/subasta.sol\":5277:5308  state == AuctionState.Completed */\n      0x02\n      dup2\n      gt\n      iszero\n      tag_194\n      jumpi\n      tag_195\n      tag_123\n      jump\t// in\n    tag_195:\n    tag_194:\n      eq\n        /* \"contracts/subasta.sol\":5269:5368  require(state == AuctionState.Completed, \"Auction still open or didn't paid back the deposits yet\") */\n      tag_196\n      jumpi\n      mload(0x40)\n      0x08c379a000000000000000000000000000000000000000000000000000000000\n      dup2\n      mstore\n      0x04\n      add\n      tag_197\n      swap1\n      tag_128\n      jump\t// in\n    tag_197:\n      mload(0x40)\n      dup1\n      swap2\n      sub\n      swap1\n      revert\n    tag_196:\n        /* \"contracts/subasta.sol\":5404:5419  deliveryDueDate */\n      sload(0x03)\n        /* \"contracts/subasta.sol\":5386:5401  block.timestamp */\n      timestamp\n        /* \"contracts/subasta.sol\":5386:5419  block.timestamp < deliveryDueDate */\n      lt\n        /* \"contracts/subasta.sol\":5378:5447  require(block.timestamp < deliveryDueDate, \"The delivery is overdue\") */\n      tag_198\n      jumpi\n      mload(0x40)\n      0x08c379a000000000000000000000000000000000000000000000000000000000\n      dup2\n      mstore\n      0x04\n      add\n      tag_199\n      swap1\n      tag_200\n      jump\t// in\n    tag_199:\n      mload(0x40)\n      dup1\n      swap2\n      sub\n      swap1\n      revert\n    tag_198:\n        /* \"contracts/subasta.sol\":5458:5464  winner */\n      0x09\n      0x00\n      swap1\n      sload\n      swap1\n      0x0100\n      exp\n      swap1\n      div\n      0xffffffffffffffffffffffffffffffffffffffff\n      and\n        /* \"contracts/subasta.sol\":5458:5473  winner.transfer */\n      0xffffffffffffffffffffffffffffffffffffffff\n      and\n        /* \"contracts/subasta.sol\":5458:5504  winner.transfer(winningPrice + winner.balance) */\n      0x08fc\n        /* \"contracts/subasta.sol\":5489:5495  winner */\n      0x09\n      0x00\n      swap1\n      sload\n      swap1\n      0x0100\n      exp\n      swap1\n      div\n      0xffffffffffffffffffffffffffffffffffffffff\n      and\n        /* \"contracts/subasta.sol\":5489:5503  winner.balance */\n      0xffffffffffffffffffffffffffffffffffffffff\n      and\n      balance\n        /* \"contracts/subasta.sol\":5474:5486  winningPrice */\n      sload(0x0a)\n        /* \"contracts/subasta.sol\":5474:5503  winningPrice + winner.balance */\n      tag_201\n      swap2\n      swap1\n      tag_202\n      jump\t// in\n    tag_201:\n        /* \"contracts/subasta.sol\":5458:5504  winner.transfer(winningPrice + winner.balance) */\n      swap1\n      dup2\n      iszero\n      mul\n      swap1\n      mload(0x40)\n      0x00\n      mload(0x40)\n      dup1\n      dup4\n      sub\n      dup2\n      dup6\n      dup9\n      dup9\n      call\n      swap4\n      pop\n      pop\n      pop\n      pop\n      iszero\n      dup1\n      iszero\n      tag_204\n      jumpi\n      returndatacopy(0x00, 0x00, returndatasize)\n      revert(0x00, returndatasize)\n    tag_204:\n      pop\n        /* \"contracts/subasta.sol\":5514:5519  owner */\n      0x00\n      0x00\n      swap1\n      sload\n      swap1\n      0x0100\n      exp\n      swap1\n      div\n      0xffffffffffffffffffffffffffffffffffffffff\n      and\n        /* \"contracts/subasta.sol\":5514:5528  owner.transfer */\n      0xffffffffffffffffffffffffffffffffffffffff\n      and\n        /* \"contracts/subasta.sol\":5514:5551  owner.transfer(address(this).balance) */\n      0x08fc\n        /* \"contracts/subasta.sol\":5529:5550  address(this).balance */\n      selfbalance\n        /* \"contracts/subasta.sol\":5514:5551  owner.transfer(address(this).balance) */\n      swap1\n      dup2\n      iszero\n      mul\n      swap1\n      mload(0x40)\n      0x00\n      mload(0x40)\n      dup1\n      dup4\n      sub\n      dup2\n      dup6\n      dup9\n      dup9\n      call\n      swap4\n      pop\n      pop\n      pop\n      pop\n      iszero\n      dup1\n      iszero\n      tag_206\n      jumpi\n      returndatacopy(0x00, 0x00, returndatasize)\n      revert(0x00, returndatasize)\n    tag_206:\n      pop\n        /* \"contracts/subasta.sol\":5214:5558  function deliveryReceived() public onlyOwner {... */\n      jump\t// out\n        /* \"contracts/subasta.sol\":227:248  uint256 public maxBid */\n    tag_76:\n      sload(0x04)\n      dup2\n      jump\t// out\n        /* \"contracts/subasta.sol\":93:121  address payable public owner */\n    tag_80:\n      0x00\n      0x00\n      swap1\n      sload\n      swap1\n      0x0100\n      exp\n      swap1\n      div\n      0xffffffffffffffffffffffffffffffffffffffff\n      and\n      dup2\n      jump\t// out\n        /* \"contracts/subasta.sol\":1922:2759  function placeBid(uint256 _amount) external payable auctionOpen {... */\n    tag_85:\n        /* \"contracts/subasta.sol\":1177:1194  AuctionState.Open */\n      0x00\n        /* \"contracts/subasta.sol\":1168:1194  state == AuctionState.Open */\n      0x02\n      dup2\n      gt\n      iszero\n      tag_208\n      jumpi\n      tag_209\n      tag_123\n      jump\t// in\n    tag_209:\n    tag_208:\n        /* \"contracts/subasta.sol\":1168:1173  state */\n      0x06\n      0x00\n      swap1\n      sload\n      swap1\n      0x0100\n      exp\n      swap1\n      div\n      0xff\n      and\n        /* \"contracts/subasta.sol\":1168:1194  state == AuctionState.Open */\n      0x02\n      dup2\n      gt\n      iszero\n      tag_210\n      jumpi\n      tag_211\n      tag_123\n      jump\t// in\n    tag_211:\n    tag_210:\n      eq\n        /* \"contracts/subasta.sol\":1160:1217  require(state == AuctionState.Open, \"Auction not active\") */\n      tag_212\n      jumpi\n      mload(0x40)\n      0x08c379a000000000000000000000000000000000000000000000000000000000\n      dup2\n      mstore\n      0x04\n      add\n      tag_213\n      swap1\n      tag_214\n      jump\t// in\n    tag_213:\n      mload(0x40)\n      dup1\n      swap2\n      sub\n      swap1\n      revert\n    tag_212:\n        /* \"contracts/subasta.sol\":1254:1266  auctionStart */\n      sload(0x01)\n        /* \"contracts/subasta.sol\":1235:1250  block.timestamp */\n      timestamp\n        /* \"contracts/subasta.sol\":1235:1266  block.timestamp >= auctionStart */\n      lt\n      iszero\n        /* \"contracts/subasta.sol\":1235:1299  block.timestamp >= auctionStart && block.timestamp <= auctionEnd */\n      dup1\n      iszero\n      tag_215\n      jumpi\n      pop\n        /* \"contracts/subasta.sol\":1289:1299  auctionEnd */\n      sload(0x02)\n        /* \"contracts/subasta.sol\":1270:1285  block.timestamp */\n      timestamp\n        /* \"contracts/subasta.sol\":1270:1299  block.timestamp <= auctionEnd */\n      gt\n      iszero\n        /* \"contracts/subasta.sol\":1235:1299  block.timestamp >= auctionStart && block.timestamp <= auctionEnd */\n    tag_215:\n        /* \"contracts/subasta.sol\":1227:1339  require(block.timestamp >= auctionStart && block.timestamp <= auctionEnd, \"Outside of the auction's time range\") */\n      tag_216\n      jumpi\n      mload(0x40)\n      0x08c379a000000000000000000000000000000000000000000000000000000000\n      dup2\n      mstore\n      0x04\n      add\n      tag_217\n      swap1\n      tag_218\n      jump\t// in\n    tag_217:\n      mload(0x40)\n      dup1\n      swap2\n      sub\n      swap1\n      revert\n    tag_216:\n        /* \"contracts/subasta.sol\":2014:2015  0 */\n      0x00\n        /* \"contracts/subasta.sol\":2004:2011  _amount */\n      dup2\n        /* \"contracts/subasta.sol\":2004:2015  _amount > 0 */\n      gt\n        /* \"contracts/subasta.sol\":1996:2039  require(_amount > 0, \"The bid must be > 0\") */\n      tag_220\n      jumpi\n      mload(0x40)\n      0x08c379a000000000000000000000000000000000000000000000000000000000\n      dup2\n      mstore\n      0x04\n      add\n      tag_221\n      swap1\n      tag_222\n      jump\t// in\n    tag_221:\n      mload(0x40)\n      dup1\n      swap2\n      sub\n      swap1\n      revert\n    tag_220:\n        /* \"contracts/subasta.sol\":2068:2074  maxBid */\n      sload(0x04)\n        /* \"contracts/subasta.sol\":2057:2064  _amount */\n      dup2\n        /* \"contracts/subasta.sol\":2057:2074  _amount <= maxBid */\n      gt\n      iszero\n        /* \"contracts/subasta.sol\":2049:2113  require(_amount <= maxBid, \"The bid is higher than the maximum\") */\n      tag_223\n      jumpi\n      mload(0x40)\n      0x08c379a000000000000000000000000000000000000000000000000000000000\n      dup2\n      mstore\n      0x04\n      add\n      tag_224\n      swap1\n      tag_225\n      jump\t// in\n    tag_224:\n      mload(0x40)\n      dup1\n      swap2\n      sub\n      swap1\n      revert\n    tag_223:\n        /* \"contracts/subasta.sol\":2132:2157  hasAlreadyBid(msg.sender) */\n      tag_226\n        /* \"contracts/subasta.sol\":2146:2156  msg.sender */\n      caller\n        /* \"contracts/subasta.sol\":2132:2145  hasAlreadyBid */\n      tag_33\n        /* \"contracts/subasta.sol\":2132:2157  hasAlreadyBid(msg.sender) */\n      jump\t// in\n    tag_226:\n        /* \"contracts/subasta.sol\":2131:2157  !hasAlreadyBid(msg.sender) */\n      iszero\n        /* \"contracts/subasta.sol\":2123:2191  require(!hasAlreadyBid(msg.sender), \"You have already participated\") */\n      tag_227\n      jumpi\n      mload(0x40)\n      0x08c379a000000000000000000000000000000000000000000000000000000000\n      dup2\n      mstore\n      0x04\n      add\n      tag_228\n      swap1\n      tag_229\n      jump\t// in\n    tag_228:\n      mload(0x40)\n      dup1\n      swap2\n      sub\n      swap1\n      revert\n    tag_227:\n        /* \"contracts/subasta.sol\":323:324  3 */\n      0x03\n        /* \"contracts/subasta.sol\":2209:2219  numBidders */\n      sload(0x05)\n        /* \"contracts/subasta.sol\":2209:2233  numBidders < MAX_BIDDERS */\n      lt\n        /* \"contracts/subasta.sol\":2201:2296  require(numBidders < MAX_BIDDERS, \"The auction has reached the maximum number of participants\") */\n      tag_230\n      jumpi\n      mload(0x40)\n      0x08c379a000000000000000000000000000000000000000000000000000000000\n      dup2\n      mstore\n      0x04\n      add\n      tag_231\n      swap1\n      tag_232\n      jump\t// in\n    tag_231:\n      mload(0x40)\n      dup1\n      swap2\n      sub\n      swap1\n      revert\n    tag_230:\n        /* \"contracts/subasta.sol\":2328:2333  owner */\n      0x00\n      0x00\n      swap1\n      sload\n      swap1\n      0x0100\n      exp\n      swap1\n      div\n      0xffffffffffffffffffffffffffffffffffffffff\n      and\n        /* \"contracts/subasta.sol\":2314:2333  msg.sender != owner */\n      0xffffffffffffffffffffffffffffffffffffffff\n      and\n        /* \"contracts/subasta.sol\":2314:2324  msg.sender */\n      caller\n        /* \"contracts/subasta.sol\":2314:2333  msg.sender != owner */\n      0xffffffffffffffffffffffffffffffffffffffff\n      and\n      sub\n        /* \"contracts/subasta.sol\":2306:2380  require(msg.sender != owner, \"You cannot place a bid on your own auction\") */\n      tag_233\n      jumpi\n      mload(0x40)\n      0x08c379a000000000000000000000000000000000000000000000000000000000\n      dup2\n      mstore\n      0x04\n      add\n      tag_234\n      swap1\n      tag_235\n      jump\t// in\n    tag_234:\n      mload(0x40)\n      dup1\n      swap2\n      sub\n      swap1\n      revert\n    tag_233:\n        /* \"contracts/subasta.sol\":2444:2447  100 */\n      0x64\n        /* \"contracts/subasta.sol\":375:377  10 */\n      0x0a\n        /* \"contracts/subasta.sol\":2412:2419  _amount */\n      dup3\n        /* \"contracts/subasta.sol\":2412:2440  _amount * DEPOSIT_PERCENTAGE */\n      tag_236\n      swap2\n      swap1\n      tag_237\n      jump\t// in\n    tag_236:\n        /* \"contracts/subasta.sol\":2411:2447  (_amount * DEPOSIT_PERCENTAGE) / 100 */\n      tag_238\n      swap2\n      swap1\n      tag_239\n      jump\t// in\n    tag_238:\n        /* \"contracts/subasta.sol\":2398:2407  msg.value */\n      callvalue\n        /* \"contracts/subasta.sol\":2398:2447  msg.value == (_amount * DEPOSIT_PERCENTAGE) / 100 */\n      eq\n        /* \"contracts/subasta.sol\":2390:2495  require(msg.value == (_amount * DEPOSIT_PERCENTAGE) / 100, \"The deposit must be at least 10% of the bid\") */\n      tag_240\n      jumpi\n      mload(0x40)\n      0x08c379a000000000000000000000000000000000000000000000000000000000\n      dup2\n      mstore\n      0x04\n      add\n      tag_241\n      swap1\n      tag_242\n      jump\t// in\n    tag_241:\n      mload(0x40)\n      dup1\n      swap2\n      sub\n      swap1\n      revert\n    tag_240:\n        /* \"contracts/subasta.sol\":2520:2521  1 */\n      0x01\n        /* \"contracts/subasta.sol\":2506:2516  numBidders */\n      0x05\n      0x00\n        /* \"contracts/subasta.sol\":2506:2521  numBidders += 1 */\n      dup3\n      dup3\n      sload\n      tag_243\n      swap2\n      swap1\n      tag_202\n      jump\t// in\n    tag_243:\n      swap3\n      pop\n      pop\n      dup2\n      swap1\n      sstore\n      pop\n        /* \"contracts/subasta.sol\":2532:2536  bids */\n      0x07\n        /* \"contracts/subasta.sol\":2542:2680  Bid(... */\n      mload(0x40)\n      dup1\n      0xa0\n      add\n      0x40\n      mstore\n      dup1\n        /* \"contracts/subasta.sol\":2567:2577  msg.sender */\n      caller\n        /* \"contracts/subasta.sol\":2542:2680  Bid(... */\n      0xffffffffffffffffffffffffffffffffffffffff\n      and\n      dup2\n      mstore\n      0x20\n      add\n        /* \"contracts/subasta.sol\":2592:2599  _amount */\n      dup4\n        /* \"contracts/subasta.sol\":2542:2680  Bid(... */\n      dup2\n      mstore\n      0x20\n      add\n        /* \"contracts/subasta.sol\":2613:2628  block.timestamp */\n      timestamp\n        /* \"contracts/subasta.sol\":2542:2680  Bid(... */\n      dup2\n      mstore\n      0x20\n      add\n        /* \"contracts/subasta.sol\":2642:2651  msg.value */\n      callvalue\n        /* \"contracts/subasta.sol\":2542:2680  Bid(... */\n      dup2\n      mstore\n      0x20\n      add\n        /* \"contracts/subasta.sol\":2665:2670  false */\n      0x00\n        /* \"contracts/subasta.sol\":2542:2680  Bid(... */\n      iszero\n      iszero\n      dup2\n      mstore\n      pop\n        /* \"contracts/subasta.sol\":2532:2681  bids.push(Bid(... */\n      swap1\n      dup1\n      0x01\n      dup2\n      sload\n      add\n      dup1\n      dup3\n      sstore\n      dup1\n      swap2\n      pop\n      pop\n      0x01\n      swap1\n      sub\n      swap1\n      0x00\n      mstore\n      keccak256(0x00, 0x20)\n      swap1\n      0x05\n      mul\n      add\n      0x00\n      swap1\n      swap2\n      swap1\n      swap2\n      swap1\n      swap2\n      pop\n      0x00\n      dup3\n      add\n      mload\n      dup2\n      0x00\n      add\n      exp(0x0100, 0x00)\n      dup2\n      sload\n      dup2\n      0xffffffffffffffffffffffffffffffffffffffff\n      mul\n      not\n      and\n      swap1\n      dup4\n      0xffffffffffffffffffffffffffffffffffffffff\n      and\n      mul\n      or\n      swap1\n      sstore\n      pop\n      0x20\n      dup3\n      add\n      mload\n      dup2\n      0x01\n      add\n      sstore\n      0x40\n      dup3\n      add\n      mload\n      dup2\n      0x02\n      add\n      sstore\n      0x60\n      dup3\n      add\n      mload\n      dup2\n      0x03\n      add\n      sstore\n      0x80\n      dup3\n      add\n      mload\n      dup2\n      0x04\n      add\n      exp(0x0100, 0x00)\n      dup2\n      sload\n      dup2\n      0xff\n      mul\n      not\n      and\n      swap1\n      dup4\n      iszero\n      iszero\n      mul\n      or\n      swap1\n      sstore\n      pop\n      pop\n      pop\n        /* \"contracts/subasta.sol\":2691:2698  bidders */\n      0x08\n        /* \"contracts/subasta.sol\":2704:2714  msg.sender */\n      caller\n        /* \"contracts/subasta.sol\":2691:2715  bidders.push(msg.sender) */\n      swap1\n      dup1\n      0x01\n      dup2\n      sload\n      add\n      dup1\n      dup3\n      sstore\n      dup1\n      swap2\n      pop\n      pop\n      0x01\n      swap1\n      sub\n      swap1\n      0x00\n      mstore\n      keccak256(0x00, 0x20)\n      add\n      0x00\n      swap1\n      swap2\n      swap1\n      swap2\n      swap1\n      swap2\n      0x0100\n      exp\n      dup2\n      sload\n      dup2\n      0xffffffffffffffffffffffffffffffffffffffff\n      mul\n      not\n      and\n      swap1\n      dup4\n      0xffffffffffffffffffffffffffffffffffffffff\n      and\n      mul\n      or\n      swap1\n      sstore\n      pop\n        /* \"contracts/subasta.sol\":2741:2751  msg.sender */\n      caller\n        /* \"contracts/subasta.sol\":2731:2752  BidPlaced(msg.sender) */\n      0xffffffffffffffffffffffffffffffffffffffff\n      and\n      0xe677a6b9a16a696674f50d2c98a1ce8c5cb51d6b48a0223412c512bbc93664d5\n      mload(0x40)\n      mload(0x40)\n      dup1\n      swap2\n      sub\n      swap1\n      log2\n        /* \"contracts/subasta.sol\":1922:2759  function placeBid(uint256 _amount) external payable auctionOpen {... */\n      pop\n      jump\t// out\n        /* \"contracts/subasta.sol\":438:463  AuctionState public state */\n    tag_88:\n      0x06\n      0x00\n      swap1\n      sload\n      swap1\n      0x0100\n      exp\n      swap1\n      div\n      0xff\n      and\n      dup2\n      jump\t// out\n        /* \"contracts/subasta.sol\":724:751  uint256 public winningPrice */\n    tag_93:\n      sload(0x0a)\n      dup2\n      jump\t// out\n        /* \"contracts/subasta.sol\":659:683  address[] public bidders */\n    tag_98:\n      0x08\n      dup2\n      dup2\n      sload\n      dup2\n      lt\n      tag_246\n      jumpi\n      0x00\n      dup1\n      revert\n    tag_246:\n      swap1\n      0x00\n      mstore\n      keccak256(0x00, 0x20)\n      add\n      0x00\n      swap2\n      pop\n      sload\n      swap1\n      0x0100\n      exp\n      swap1\n      div\n      0xffffffffffffffffffffffffffffffffffffffff\n      and\n      dup2\n      jump\t// out\n        /* \"contracts/subasta.sol\":191:221  uint256 public deliveryDueDate */\n    tag_103:\n      sload(0x03)\n      dup2\n      jump\t// out\n        /* \"contracts/subasta.sol\":689:718  address payable public winner */\n    tag_107:\n      0x09\n      0x00\n      swap1\n      sload\n      swap1\n      0x0100\n      exp\n      swap1\n      div\n      0xffffffffffffffffffffffffffffffffffffffff\n      and\n      dup2\n      jump\t// out\n        /* \"contracts/subasta.sol\":2765:3026  function finalizeAuction() external onlyOwner {... */\n    tag_111:\n        /* \"contracts/subasta.sol\":1056:1061  owner */\n      0x00\n      0x00\n      swap1\n      sload\n      swap1\n      0x0100\n      exp\n      swap1\n      div\n      0xffffffffffffffffffffffffffffffffffffffff\n      and\n        /* \"contracts/subasta.sol\":1042:1061  msg.sender == owner */\n      0xffffffffffffffffffffffffffffffffffffffff\n      and\n        /* \"contracts/subasta.sol\":1042:1052  msg.sender */\n      caller\n        /* \"contracts/subasta.sol\":1042:1061  msg.sender == owner */\n      0xffffffffffffffffffffffffffffffffffffffff\n      and\n      eq\n        /* \"contracts/subasta.sol\":1034:1103  require(msg.sender == owner, \"Only the owner can call this function\") */\n      tag_249\n      jumpi\n      mload(0x40)\n      0x08c379a000000000000000000000000000000000000000000000000000000000\n      dup2\n      mstore\n      0x04\n      add\n      tag_250\n      swap1\n      tag_119\n      jump\t// in\n    tag_250:\n      mload(0x40)\n      dup1\n      swap2\n      sub\n      swap1\n      revert\n    tag_249:\n        /* \"contracts/subasta.sol\":2838:2855  AuctionState.Open */\n      0x00\n        /* \"contracts/subasta.sol\":2829:2855  state == AuctionState.Open */\n      0x02\n      dup2\n      gt\n      iszero\n      tag_252\n      jumpi\n      tag_253\n      tag_123\n      jump\t// in\n    tag_253:\n    tag_252:\n        /* \"contracts/subasta.sol\":2829:2834  state */\n      0x06\n      0x00\n      swap1\n      sload\n      swap1\n      0x0100\n      exp\n      swap1\n      div\n      0xff\n      and\n        /* \"contracts/subasta.sol\":2829:2855  state == AuctionState.Open */\n      0x02\n      dup2\n      gt\n      iszero\n      tag_254\n      jumpi\n      tag_255\n      tag_123\n      jump\t// in\n    tag_255:\n    tag_254:\n      eq\n        /* \"contracts/subasta.sol\":2821:2874  require(state == AuctionState.Open, \"Auction closed\") */\n      tag_256\n      jumpi\n      mload(0x40)\n      0x08c379a000000000000000000000000000000000000000000000000000000000\n      dup2\n      mstore\n      0x04\n      add\n      tag_257\n      swap1\n      tag_258\n      jump\t// in\n    tag_257:\n      mload(0x40)\n      dup1\n      swap2\n      sub\n      swap1\n      revert\n    tag_256:\n        /* \"contracts/subasta.sol\":2911:2921  auctionEnd */\n      sload(0x02)\n        /* \"contracts/subasta.sol\":2892:2907  block.timestamp */\n      timestamp\n        /* \"contracts/subasta.sol\":2892:2921  block.timestamp >= auctionEnd */\n      lt\n      iszero\n        /* \"contracts/subasta.sol\":2892:2950  block.timestamp >= auctionEnd || numBidders >= MAX_BIDDERS */\n      dup1\n      tag_259\n      jumpi\n      pop\n        /* \"contracts/subasta.sol\":323:324  3 */\n      0x03\n        /* \"contracts/subasta.sol\":2925:2935  numBidders */\n      sload(0x05)\n        /* \"contracts/subasta.sol\":2925:2950  numBidders >= MAX_BIDDERS */\n      lt\n      iszero\n        /* \"contracts/subasta.sol\":2892:2950  block.timestamp >= auctionEnd || numBidders >= MAX_BIDDERS */\n    tag_259:\n        /* \"contracts/subasta.sol\":2884:2991  require(block.timestamp >= auctionEnd || numBidders >= MAX_BIDDERS, \"The auction cannot be closed earlier\") */\n      tag_260\n      jumpi\n      mload(0x40)\n      0x08c379a000000000000000000000000000000000000000000000000000000000\n      dup2\n      mstore\n      0x04\n      add\n      tag_261\n      swap1\n      tag_262\n      jump\t// in\n    tag_261:\n      mload(0x40)\n      dup1\n      swap2\n      sub\n      swap1\n      revert\n    tag_260:\n        /* \"contracts/subasta.sol\":3001:3019  _finalizeAuction() */\n      tag_263\n        /* \"contracts/subasta.sol\":3001:3017  _finalizeAuction */\n      tag_264\n        /* \"contracts/subasta.sol\":3001:3019  _finalizeAuction() */\n      jump\t// in\n    tag_263:\n        /* \"contracts/subasta.sol\":2765:3026  function finalizeAuction() external onlyOwner {... */\n      jump\t// out\n        /* \"contracts/subasta.sol\":254:279  uint256 public numBidders */\n    tag_114:\n      sload(0x05)\n      dup2\n      jump\t// out\n        /* \"contracts/subasta.sol\":3032:3230  function _finalizeAuction() private {... */\n    tag_264:\n        /* \"contracts/subasta.sol\":3086:3105  AuctionState.Closed */\n      0x01\n        /* \"contracts/subasta.sol\":3078:3083  state */\n      0x06\n      0x00\n        /* \"contracts/subasta.sol\":3078:3105  state = AuctionState.Closed */\n      0x0100\n      exp\n      dup2\n      sload\n      dup2\n      0xff\n      mul\n      not\n      and\n      swap1\n      dup4\n      0x02\n      dup2\n      gt\n      iszero\n      tag_266\n      jumpi\n      tag_267\n      tag_123\n      jump\t// in\n    tag_267:\n    tag_266:\n      mul\n      or\n      swap1\n      sstore\n      pop\n        /* \"contracts/subasta.sol\":3140:3158  _determineWinner() */\n      tag_268\n        /* \"contracts/subasta.sol\":3140:3156  _determineWinner */\n      tag_269\n        /* \"contracts/subasta.sol\":3140:3158  _determineWinner() */\n      jump\t// in\n    tag_268:\n        /* \"contracts/subasta.sol\":3116:3122  winner */\n      0x09\n      0x00\n        /* \"contracts/subasta.sol\":3124:3136  winningPrice */\n      0x0a\n      0x00\n        /* \"contracts/subasta.sol\":3115:3158  (winner, winningPrice) = _determineWinner() */\n      dup5\n      swap2\n      swap1\n      pop\n      sstore\n      dup4\n      swap2\n      swap1\n      0x0100\n      exp\n      dup2\n      sload\n      dup2\n      0xffffffffffffffffffffffffffffffffffffffff\n      mul\n      not\n      and\n      swap1\n      dup4\n      0xffffffffffffffffffffffffffffffffffffffff\n      and\n      mul\n      or\n      swap1\n      sstore\n      pop\n      pop\n      pop\n        /* \"contracts/subasta.sol\":3187:3193  winner */\n      0x09\n      0x00\n      swap1\n      sload\n      swap1\n      0x0100\n      exp\n      swap1\n      div\n      0xffffffffffffffffffffffffffffffffffffffff\n      and\n        /* \"contracts/subasta.sol\":3173:3223  AuctionClosed(winner, winnerDeposit, winningPrice) */\n      0xffffffffffffffffffffffffffffffffffffffff\n      and\n      0xfd8f22870817ee413fcb464d7ffd8415666c2ab6285fe8d409dc1dc21fffb4f6\n        /* \"contracts/subasta.sol\":3195:3208  winnerDeposit */\n      sload(0x0b)\n        /* \"contracts/subasta.sol\":3210:3222  winningPrice */\n      sload(0x0a)\n        /* \"contracts/subasta.sol\":3173:3223  AuctionClosed(winner, winnerDeposit, winningPrice) */\n      mload(0x40)\n      tag_270\n      swap3\n      swap2\n      swap1\n      tag_271\n      jump\t// in\n    tag_270:\n      mload(0x40)\n      dup1\n      swap2\n      sub\n      swap1\n      log2\n        /* \"contracts/subasta.sol\":3032:3230  function _finalizeAuction() private {... */\n      jump\t// out\n        /* \"contracts/subasta.sol\":3237:4353  function _determineWinner() private view returns (address payable, uint256) {... */\n    tag_269:\n        /* \"contracts/subasta.sol\":3287:3302  address payable */\n      0x00\n        /* \"contracts/subasta.sol\":3304:3311  uint256 */\n      0x00\n        /* \"contracts/subasta.sol\":3345:3346  0 */\n      0x00\n        /* \"contracts/subasta.sol\":3331:3335  bids */\n      0x07\n        /* \"contracts/subasta.sol\":3331:3342  bids.length */\n      dup1\n      sload\n      swap1\n      pop\n        /* \"contracts/subasta.sol\":3331:3346  bids.length > 0 */\n      gt\n        /* \"contracts/subasta.sol\":3323:3360  require(bids.length > 0, \"No offers\") */\n      tag_273\n      jumpi\n      mload(0x40)\n      0x08c379a000000000000000000000000000000000000000000000000000000000\n      dup2\n      mstore\n      0x04\n      add\n      tag_274\n      swap1\n      tag_275\n      jump\t// in\n    tag_274:\n      mload(0x40)\n      dup1\n      swap2\n      sub\n      swap1\n      revert\n    tag_273:\n        /* \"contracts/subasta.sol\":3371:3385  uint256 lowest */\n      0x00\n        /* \"contracts/subasta.sol\":3388:3394  maxBid */\n      sload(0x04)\n        /* \"contracts/subasta.sol\":3371:3394  uint256 lowest = maxBid */\n      swap1\n      pop\n        /* \"contracts/subasta.sol\":3404:3424  uint256 secondLowest */\n      0x00\n        /* \"contracts/subasta.sol\":3427:3433  maxBid */\n      sload(0x04)\n        /* \"contracts/subasta.sol\":3404:3433  uint256 secondLowest = maxBid */\n      swap1\n      pop\n        /* \"contracts/subasta.sol\":3443:3472  address payable winnerAddress */\n      0x00\n        /* \"contracts/subasta.sol\":3482:3507  uint256 earliestTimestamp */\n      0x00\n        /* \"contracts/subasta.sol\":3510:3527  type(uint256).max */\n      0xffffffffffffffffffffffffffffffffffffffffffffffffffffffffffffffff\n        /* \"contracts/subasta.sol\":3482:3527  uint256 earliestTimestamp = type(uint256).max */\n      swap1\n      pop\n        /* \"contracts/subasta.sol\":3543:3552  uint256 i */\n      0x00\n        /* \"contracts/subasta.sol\":3555:3556  0 */\n      0x00\n        /* \"contracts/subasta.sol\":3543:3556  uint256 i = 0 */\n      swap1\n      pop\n        /* \"contracts/subasta.sol\":3538:4272  for (uint256 i = 0; i < bids.length; i++) {... */\n    tag_276:\n        /* \"contracts/subasta.sol\":3562:3566  bids */\n      0x07\n        /* \"contracts/subasta.sol\":3562:3573  bids.length */\n      dup1\n      sload\n      swap1\n      pop\n        /* \"contracts/subasta.sol\":3558:3559  i */\n      dup2\n        /* \"contracts/subasta.sol\":3558:3573  i < bids.length */\n      lt\n        /* \"contracts/subasta.sol\":3538:4272  for (uint256 i = 0; i < bids.length; i++) {... */\n      iszero\n      tag_277\n      jumpi\n        /* \"contracts/subasta.sol\":3594:3608  uint256 amount */\n      0x00\n        /* \"contracts/subasta.sol\":3611:3615  bids */\n      0x07\n        /* \"contracts/subasta.sol\":3616:3617  i */\n      dup3\n        /* \"contracts/subasta.sol\":3611:3618  bids[i] */\n      dup2\n      sload\n      dup2\n      lt\n      tag_279\n      jumpi\n      tag_280\n      tag_140\n      jump\t// in\n    tag_280:\n    tag_279:\n      swap1\n      0x00\n      mstore\n      keccak256(0x00, 0x20)\n      swap1\n      0x05\n      mul\n      add\n        /* \"contracts/subasta.sol\":3611:3625  bids[i].amount */\n      0x01\n      add\n      sload\n        /* \"contracts/subasta.sol\":3594:3625  uint256 amount = bids[i].amount */\n      swap1\n      pop\n        /* \"contracts/subasta.sol\":3639:3656  uint256 timestamp */\n      0x00\n        /* \"contracts/subasta.sol\":3659:3663  bids */\n      0x07\n        /* \"contracts/subasta.sol\":3664:3665  i */\n      dup4\n        /* \"contracts/subasta.sol\":3659:3666  bids[i] */\n      dup2\n      sload\n      dup2\n      lt\n      tag_282\n      jumpi\n      tag_283\n      tag_140\n      jump\t// in\n    tag_283:\n    tag_282:\n      swap1\n      0x00\n      mstore\n      keccak256(0x00, 0x20)\n      swap1\n      0x05\n      mul\n      add\n        /* \"contracts/subasta.sol\":3659:3676  bids[i].timestamp */\n      0x03\n      add\n      sload\n        /* \"contracts/subasta.sol\":3639:3676  uint256 timestamp = bids[i].timestamp */\n      swap1\n      pop\n        /* \"contracts/subasta.sol\":3704:3710  lowest */\n      dup7\n        /* \"contracts/subasta.sol\":3695:3701  amount */\n      dup3\n        /* \"contracts/subasta.sol\":3695:3710  amount < lowest */\n      lt\n        /* \"contracts/subasta.sol\":3691:4262  if (amount < lowest) {... */\n      iszero\n      tag_285\n      jumpi\n        /* \"contracts/subasta.sol\":3745:3751  lowest */\n      dup7\n        /* \"contracts/subasta.sol\":3730:3751  secondLowest = lowest */\n      swap6\n      pop\n        /* \"contracts/subasta.sol\":3778:3784  amount */\n      dup2\n        /* \"contracts/subasta.sol\":3769:3784  lowest = amount */\n      swap7\n      pop\n        /* \"contracts/subasta.sol\":3818:3822  bids */\n      0x07\n        /* \"contracts/subasta.sol\":3823:3824  i */\n      dup4\n        /* \"contracts/subasta.sol\":3818:3825  bids[i] */\n      dup2\n      sload\n      dup2\n      lt\n      tag_286\n      jumpi\n      tag_287\n      tag_140\n      jump\t// in\n    tag_287:\n    tag_286:\n      swap1\n      0x00\n      mstore\n      keccak256(0x00, 0x20)\n      swap1\n      0x05\n      mul\n      add\n        /* \"contracts/subasta.sol\":3818:3832  bids[i].bidder */\n      0x00\n      add\n      0x00\n      swap1\n      sload\n      swap1\n      0x0100\n      exp\n      swap1\n      div\n      0xffffffffffffffffffffffffffffffffffffffff\n      and\n        /* \"contracts/subasta.sol\":3802:3832  winnerAddress = bids[i].bidder */\n      swap5\n      pop\n        /* \"contracts/subasta.sol\":3870:3879  timestamp */\n      dup1\n        /* \"contracts/subasta.sol\":3850:3879  earliestTimestamp = timestamp */\n      swap4\n      pop\n        /* \"contracts/subasta.sol\":3691:4262  if (amount < lowest) {... */\n      jump(tag_289)\n    tag_285:\n        /* \"contracts/subasta.sol\":3914:3920  lowest */\n      dup7\n        /* \"contracts/subasta.sol\":3904:3910  amount */\n      dup3\n        /* \"contracts/subasta.sol\":3904:3920  amount == lowest */\n      eq\n        /* \"contracts/subasta.sol\":3904:3953  amount == lowest && timestamp < earliestTimestamp */\n      dup1\n      iszero\n      tag_290\n      jumpi\n      pop\n        /* \"contracts/subasta.sol\":3936:3953  earliestTimestamp */\n      dup4\n        /* \"contracts/subasta.sol\":3924:3933  timestamp */\n      dup2\n        /* \"contracts/subasta.sol\":3924:3953  timestamp < earliestTimestamp */\n      lt\n        /* \"contracts/subasta.sol\":3904:3953  amount == lowest && timestamp < earliestTimestamp */\n    tag_290:\n        /* \"contracts/subasta.sol\":3900:4262  if (amount == lowest && timestamp < earliestTimestamp) {... */\n      iszero\n      tag_291\n      jumpi\n        /* \"contracts/subasta.sol\":3988:3994  lowest */\n      dup7\n        /* \"contracts/subasta.sol\":3973:3994  secondLowest = lowest */\n      swap6\n      pop\n        /* \"contracts/subasta.sol\":4028:4032  bids */\n      0x07\n        /* \"contracts/subasta.sol\":4033:4034  i */\n      dup4\n        /* \"contracts/subasta.sol\":4028:4035  bids[i] */\n      dup2\n      sload\n      dup2\n      lt\n      tag_292\n      jumpi\n      tag_293\n      tag_140\n      jump\t// in\n    tag_293:\n    tag_292:\n      swap1\n      0x00\n      mstore\n      keccak256(0x00, 0x20)\n      swap1\n      0x05\n      mul\n      add\n        /* \"contracts/subasta.sol\":4028:4042  bids[i].bidder */\n      0x00\n      add\n      0x00\n      swap1\n      sload\n      swap1\n      0x0100\n      exp\n      swap1\n      div\n      0xffffffffffffffffffffffffffffffffffffffff\n      and\n        /* \"contracts/subasta.sol\":4012:4042  winnerAddress = bids[i].bidder */\n      swap5\n      pop\n        /* \"contracts/subasta.sol\":4132:4141  timestamp */\n      dup1\n        /* \"contracts/subasta.sol\":4112:4141  earliestTimestamp = timestamp */\n      swap4\n      pop\n        /* \"contracts/subasta.sol\":3900:4262  if (amount == lowest && timestamp < earliestTimestamp) {... */\n      jump(tag_295)\n    tag_291:\n        /* \"contracts/subasta.sol\":4175:4187  secondLowest */\n      dup6\n        /* \"contracts/subasta.sol\":4166:4172  amount */\n      dup3\n        /* \"contracts/subasta.sol\":4166:4187  amount < secondLowest */\n      lt\n        /* \"contracts/subasta.sol\":4166:4206  amount < secondLowest && amount > lowest */\n      dup1\n      iszero\n      tag_296\n      jumpi\n      pop\n        /* \"contracts/subasta.sol\":4200:4206  lowest */\n      dup7\n        /* \"contracts/subasta.sol\":4191:4197  amount */\n      dup3\n        /* \"contracts/subasta.sol\":4191:4206  amount > lowest */\n      gt\n        /* \"contracts/subasta.sol\":4166:4206  amount < secondLowest && amount > lowest */\n    tag_296:\n        /* \"contracts/subasta.sol\":4162:4262  if (amount < secondLowest && amount > lowest) {... */\n      iszero\n      tag_297\n      jumpi\n        /* \"contracts/subasta.sol\":4241:4247  amount */\n      dup2\n        /* \"contracts/subasta.sol\":4226:4247  secondLowest = amount */\n      swap6\n      pop\n        /* \"contracts/subasta.sol\":4162:4262  if (amount < secondLowest && amount > lowest) {... */\n    tag_297:\n        /* \"contracts/subasta.sol\":3900:4262  if (amount == lowest && timestamp < earliestTimestamp) {... */\n    tag_295:\n        /* \"contracts/subasta.sol\":3691:4262  if (amount < lowest) {... */\n    tag_289:\n        /* \"contracts/subasta.sol\":3580:4272  {... */\n      pop\n      pop\n        /* \"contracts/subasta.sol\":3575:3578  i++ */\n      dup1\n      dup1\n      0x01\n      add\n      swap2\n      pop\n      pop\n        /* \"contracts/subasta.sol\":3538:4272  for (uint256 i = 0; i < bids.length; i++) {... */\n      jump(tag_276)\n    tag_277:\n      pop\n        /* \"contracts/subasta.sol\":4290:4303  winnerAddress */\n      dup2\n        /* \"contracts/subasta.sol\":4320:4321  1 */\n      0x01\n        /* \"contracts/subasta.sol\":4305:4309  bids */\n      0x07\n        /* \"contracts/subasta.sol\":4305:4316  bids.length */\n      dup1\n      sload\n      swap1\n      pop\n        /* \"contracts/subasta.sol\":4305:4321  bids.length == 1 */\n      eq\n        /* \"contracts/subasta.sol\":4305:4345  bids.length == 1 ? lowest : secondLowest */\n      tag_298\n      jumpi\n        /* \"contracts/subasta.sol\":4333:4345  secondLowest */\n      dup4\n        /* \"contracts/subasta.sol\":4305:4345  bids.length == 1 ? lowest : secondLowest */\n      jump(tag_299)\n    tag_298:\n        /* \"contracts/subasta.sol\":4324:4330  lowest */\n      dup5\n        /* \"contracts/subasta.sol\":4305:4345  bids.length == 1 ? lowest : secondLowest */\n    tag_299:\n        /* \"contracts/subasta.sol\":4282:4346  return (winnerAddress, bids.length == 1 ? lowest : secondLowest) */\n      swap6\n      pop\n      swap6\n      pop\n      pop\n      pop\n      pop\n      pop\n        /* \"contracts/subasta.sol\":3237:4353  function _determineWinner() private view returns (address payable, uint256) {... */\n      swap1\n      swap2\n      jump\t// out\n        /* \"#utility.yul\":88:205   */\n    tag_301:\n        /* \"#utility.yul\":197:198   */\n      0x00\n        /* \"#utility.yul\":194:195   */\n      0x00\n        /* \"#utility.yul\":187:199   */\n      revert\n        /* \"#utility.yul\":334:460   */\n    tag_303:\n        /* \"#utility.yul\":371:378   */\n      0x00\n        /* \"#utility.yul\":411:453   */\n      0xffffffffffffffffffffffffffffffffffffffff\n        /* \"#utility.yul\":404:409   */\n      dup3\n        /* \"#utility.yul\":400:454   */\n      and\n        /* \"#utility.yul\":389:454   */\n      swap1\n      pop\n        /* \"#utility.yul\":334:460   */\n      swap2\n      swap1\n      pop\n      jump\t// out\n        /* \"#utility.yul\":466:562   */\n    tag_304:\n        /* \"#utility.yul\":503:510   */\n      0x00\n        /* \"#utility.yul\":532:556   */\n      tag_361\n        /* \"#utility.yul\":550:555   */\n      dup3\n        /* \"#utility.yul\":532:556   */\n      tag_303\n      jump\t// in\n    tag_361:\n        /* \"#utility.yul\":521:556   */\n      swap1\n      pop\n        /* \"#utility.yul\":466:562   */\n      swap2\n      swap1\n      pop\n      jump\t// out\n        /* \"#utility.yul\":568:690   */\n    tag_305:\n        /* \"#utility.yul\":641:665   */\n      tag_363\n        /* \"#utility.yul\":659:664   */\n      dup2\n        /* \"#utility.yul\":641:665   */\n      tag_304\n      jump\t// in\n    tag_363:\n        /* \"#utility.yul\":634:639   */\n      dup2\n        /* \"#utility.yul\":631:666   */\n      eq\n        /* \"#utility.yul\":621:684   */\n      tag_364\n      jumpi\n        /* \"#utility.yul\":680:681   */\n      0x00\n        /* \"#utility.yul\":677:678   */\n      0x00\n        /* \"#utility.yul\":670:682   */\n      revert\n        /* \"#utility.yul\":621:684   */\n    tag_364:\n        /* \"#utility.yul\":568:690   */\n      pop\n      jump\t// out\n        /* \"#utility.yul\":696:835   */\n    tag_306:\n        /* \"#utility.yul\":742:747   */\n      0x00\n        /* \"#utility.yul\":780:786   */\n      dup2\n        /* \"#utility.yul\":767:787   */\n      calldataload\n        /* \"#utility.yul\":758:787   */\n      swap1\n      pop\n        /* \"#utility.yul\":796:829   */\n      tag_366\n        /* \"#utility.yul\":823:828   */\n      dup2\n        /* \"#utility.yul\":796:829   */\n      tag_305\n      jump\t// in\n    tag_366:\n        /* \"#utility.yul\":696:835   */\n      swap3\n      swap2\n      pop\n      pop\n      jump\t// out\n        /* \"#utility.yul\":841:1170   */\n    tag_32:\n        /* \"#utility.yul\":900:906   */\n      0x00\n        /* \"#utility.yul\":949:951   */\n      0x20\n        /* \"#utility.yul\":937:946   */\n      dup3\n        /* \"#utility.yul\":928:935   */\n      dup5\n        /* \"#utility.yul\":924:947   */\n      sub\n        /* \"#utility.yul\":920:952   */\n      slt\n        /* \"#utility.yul\":917:1036   */\n      iszero\n      tag_368\n      jumpi\n        /* \"#utility.yul\":955:1034   */\n      tag_369\n      tag_301\n      jump\t// in\n    tag_369:\n        /* \"#utility.yul\":917:1036   */\n    tag_368:\n        /* \"#utility.yul\":1075:1076   */\n      0x00\n        /* \"#utility.yul\":1100:1153   */\n      tag_370\n        /* \"#utility.yul\":1145:1152   */\n      dup5\n        /* \"#utility.yul\":1136:1142   */\n      dup3\n        /* \"#utility.yul\":1125:1134   */\n      dup6\n        /* \"#utility.yul\":1121:1143   */\n      add\n        /* \"#utility.yul\":1100:1153   */\n      tag_306\n      jump\t// in\n    tag_370:\n        /* \"#utility.yul\":1090:1153   */\n      swap2\n      pop\n        /* \"#utility.yul\":1046:1163   */\n      pop\n        /* \"#utility.yul\":841:1170   */\n      swap3\n      swap2\n      pop\n      pop\n      jump\t// out\n        /* \"#utility.yul\":1176:1266   */\n    tag_307:\n        /* \"#utility.yul\":1210:1217   */\n      0x00\n        /* \"#utility.yul\":1253:1258   */\n      dup2\n        /* \"#utility.yul\":1246:1259   */\n      iszero\n        /* \"#utility.yul\":1239:1260   */\n      iszero\n        /* \"#utility.yul\":1228:1260   */\n      swap1\n      pop\n        /* \"#utility.yul\":1176:1266   */\n      swap2\n      swap1\n      pop\n      jump\t// out\n        /* \"#utility.yul\":1272:1381   */\n    tag_308:\n        /* \"#utility.yul\":1353:1374   */\n      tag_373\n        /* \"#utility.yul\":1368:1373   */\n      dup2\n        /* \"#utility.yul\":1353:1374   */\n      tag_307\n      jump\t// in\n    tag_373:\n        /* \"#utility.yul\":1348:1351   */\n      dup3\n        /* \"#utility.yul\":1341:1375   */\n      mstore\n        /* \"#utility.yul\":1272:1381   */\n      pop\n      pop\n      jump\t// out\n        /* \"#utility.yul\":1387:1597   */\n    tag_35:\n        /* \"#utility.yul\":1474:1478   */\n      0x00\n        /* \"#utility.yul\":1512:1514   */\n      0x20\n        /* \"#utility.yul\":1501:1510   */\n      dup3\n        /* \"#utility.yul\":1497:1515   */\n      add\n        /* \"#utility.yul\":1489:1515   */\n      swap1\n      pop\n        /* \"#utility.yul\":1525:1590   */\n      tag_375\n        /* \"#utility.yul\":1587:1588   */\n      0x00\n        /* \"#utility.yul\":1576:1585   */\n      dup4\n        /* \"#utility.yul\":1572:1589   */\n      add\n        /* \"#utility.yul\":1563:1569   */\n      dup5\n        /* \"#utility.yul\":1525:1590   */\n      tag_308\n      jump\t// in\n    tag_375:\n        /* \"#utility.yul\":1387:1597   */\n      swap3\n      swap2\n      pop\n      pop\n      jump\t// out\n        /* \"#utility.yul\":1603:1680   */\n    tag_309:\n        /* \"#utility.yul\":1640:1647   */\n      0x00\n        /* \"#utility.yul\":1669:1674   */\n      dup2\n        /* \"#utility.yul\":1658:1674   */\n      swap1\n      pop\n        /* \"#utility.yul\":1603:1680   */\n      swap2\n      swap1\n      pop\n      jump\t// out\n        /* \"#utility.yul\":1686:1804   */\n    tag_310:\n        /* \"#utility.yul\":1773:1797   */\n      tag_378\n        /* \"#utility.yul\":1791:1796   */\n      dup2\n        /* \"#utility.yul\":1773:1797   */\n      tag_309\n      jump\t// in\n    tag_378:\n        /* \"#utility.yul\":1768:1771   */\n      dup3\n        /* \"#utility.yul\":1761:1798   */\n      mstore\n        /* \"#utility.yul\":1686:1804   */\n      pop\n      pop\n      jump\t// out\n        /* \"#utility.yul\":1810:2032   */\n    tag_40:\n        /* \"#utility.yul\":1903:1907   */\n      0x00\n        /* \"#utility.yul\":1941:1943   */\n      0x20\n        /* \"#utility.yul\":1930:1939   */\n      dup3\n        /* \"#utility.yul\":1926:1944   */\n      add\n        /* \"#utility.yul\":1918:1944   */\n      swap1\n      pop\n        /* \"#utility.yul\":1954:2025   */\n      tag_380\n        /* \"#utility.yul\":2022:2023   */\n      0x00\n        /* \"#utility.yul\":2011:2020   */\n      dup4\n        /* \"#utility.yul\":2007:2024   */\n      add\n        /* \"#utility.yul\":1998:2004   */\n      dup5\n        /* \"#utility.yul\":1954:2025   */\n      tag_310\n      jump\t// in\n    tag_380:\n        /* \"#utility.yul\":1810:2032   */\n      swap3\n      swap2\n      pop\n      pop\n      jump\t// out\n        /* \"#utility.yul\":2038:2160   */\n    tag_311:\n        /* \"#utility.yul\":2111:2135   */\n      tag_382\n        /* \"#utility.yul\":2129:2134   */\n      dup2\n        /* \"#utility.yul\":2111:2135   */\n      tag_309\n      jump\t// in\n    tag_382:\n        /* \"#utility.yul\":2104:2109   */\n      dup2\n        /* \"#utility.yul\":2101:2136   */\n      eq\n        /* \"#utility.yul\":2091:2154   */\n      tag_383\n      jumpi\n        /* \"#utility.yul\":2150:2151   */\n      0x00\n        /* \"#utility.yul\":2147:2148   */\n      0x00\n        /* \"#utility.yul\":2140:2152   */\n      revert\n        /* \"#utility.yul\":2091:2154   */\n    tag_383:\n        /* \"#utility.yul\":2038:2160   */\n      pop\n      jump\t// out\n        /* \"#utility.yul\":2166:2305   */\n    tag_312:\n        /* \"#utility.yul\":2212:2217   */\n      0x00\n        /* \"#utility.yul\":2250:2256   */\n      dup2\n        /* \"#utility.yul\":2237:2257   */\n      calldataload\n        /* \"#utility.yul\":2228:2257   */\n      swap1\n      pop\n        /* \"#utility.yul\":2266:2299   */\n      tag_385\n        /* \"#utility.yul\":2293:2298   */\n      dup2\n        /* \"#utility.yul\":2266:2299   */\n      tag_311\n      jump\t// in\n    tag_385:\n        /* \"#utility.yul\":2166:2305   */\n      swap3\n      swap2\n      pop\n      pop\n      jump\t// out\n        /* \"#utility.yul\":2311:2640   */\n    tag_51:\n        /* \"#utility.yul\":2370:2376   */\n      0x00\n        /* \"#utility.yul\":2419:2421   */\n      0x20\n        /* \"#utility.yul\":2407:2416   */\n      dup3\n        /* \"#utility.yul\":2398:2405   */\n      dup5\n        /* \"#utility.yul\":2394:2417   */\n      sub\n        /* \"#utility.yul\":2390:2422   */\n      slt\n        /* \"#utility.yul\":2387:2506   */\n      iszero\n      tag_387\n      jumpi\n        /* \"#utility.yul\":2425:2504   */\n      tag_388\n      tag_301\n      jump\t// in\n    tag_388:\n        /* \"#utility.yul\":2387:2506   */\n    tag_387:\n        /* \"#utility.yul\":2545:2546   */\n      0x00\n        /* \"#utility.yul\":2570:2623   */\n      tag_389\n        /* \"#utility.yul\":2615:2622   */\n      dup5\n        /* \"#utility.yul\":2606:2612   */\n      dup3\n        /* \"#utility.yul\":2595:2604   */\n      dup6\n        /* \"#utility.yul\":2591:2613   */\n      add\n        /* \"#utility.yul\":2570:2623   */\n      tag_312\n      jump\t// in\n    tag_389:\n        /* \"#utility.yul\":2560:2623   */\n      swap2\n      pop\n        /* \"#utility.yul\":2516:2633   */\n      pop\n        /* \"#utility.yul\":2311:2640   */\n      swap3\n      swap2\n      pop\n      pop\n      jump\t// out\n        /* \"#utility.yul\":2646:2750   */\n    tag_313:\n        /* \"#utility.yul\":2691:2698   */\n      0x00\n        /* \"#utility.yul\":2720:2744   */\n      tag_391\n        /* \"#utility.yul\":2738:2743   */\n      dup3\n        /* \"#utility.yul\":2720:2744   */\n      tag_303\n      jump\t// in\n    tag_391:\n        /* \"#utility.yul\":2709:2744   */\n      swap1\n      pop\n        /* \"#utility.yul\":2646:2750   */\n      swap2\n      swap1\n      pop\n      jump\t// out\n        /* \"#utility.yul\":2756:2898   */\n    tag_314:\n        /* \"#utility.yul\":2859:2891   */\n      tag_393\n        /* \"#utility.yul\":2885:2890   */\n      dup2\n        /* \"#utility.yul\":2859:2891   */\n      tag_313\n      jump\t// in\n    tag_393:\n        /* \"#utility.yul\":2854:2857   */\n      dup3\n        /* \"#utility.yul\":2847:2892   */\n      mstore\n        /* \"#utility.yul\":2756:2898   */\n      pop\n      pop\n      jump\t// out\n        /* \"#utility.yul\":2904:3588   */\n    tag_54:\n        /* \"#utility.yul\":3119:3123   */\n      0x00\n        /* \"#utility.yul\":3157:3160   */\n      0xa0\n        /* \"#utility.yul\":3146:3155   */\n      dup3\n        /* \"#utility.yul\":3142:3161   */\n      add\n        /* \"#utility.yul\":3134:3161   */\n      swap1\n      pop\n        /* \"#utility.yul\":3171:3258   */\n      tag_395\n        /* \"#utility.yul\":3255:3256   */\n      0x00\n        /* \"#utility.yul\":3244:3253   */\n      dup4\n        /* \"#utility.yul\":3240:3257   */\n      add\n        /* \"#utility.yul\":3231:3237   */\n      dup9\n        /* \"#utility.yul\":3171:3258   */\n      tag_314\n      jump\t// in\n    tag_395:\n        /* \"#utility.yul\":3268:3340   */\n      tag_396\n        /* \"#utility.yul\":3336:3338   */\n      0x20\n        /* \"#utility.yul\":3325:3334   */\n      dup4\n        /* \"#utility.yul\":3321:3339   */\n      add\n        /* \"#utility.yul\":3312:3318   */\n      dup8\n        /* \"#utility.yul\":3268:3340   */\n      tag_310\n      jump\t// in\n    tag_396:\n        /* \"#utility.yul\":3350:3422   */\n      tag_397\n        /* \"#utility.yul\":3418:3420   */\n      0x40\n        /* \"#utility.yul\":3407:3416   */\n      dup4\n        /* \"#utility.yul\":3403:3421   */\n      add\n        /* \"#utility.yul\":3394:3400   */\n      dup7\n        /* \"#utility.yul\":3350:3422   */\n      tag_310\n      jump\t// in\n    tag_397:\n        /* \"#utility.yul\":3432:3504   */\n      tag_398\n        /* \"#utility.yul\":3500:3502   */\n      0x60\n        /* \"#utility.yul\":3489:3498   */\n      dup4\n        /* \"#utility.yul\":3485:3503   */\n      add\n        /* \"#utility.yul\":3476:3482   */\n      dup6\n        /* \"#utility.yul\":3432:3504   */\n      tag_310\n      jump\t// in\n    tag_398:\n        /* \"#utility.yul\":3514:3581   */\n      tag_399\n        /* \"#utility.yul\":3576:3579   */\n      0x80\n        /* \"#utility.yul\":3565:3574   */\n      dup4\n        /* \"#utility.yul\":3561:3580   */\n      add\n        /* \"#utility.yul\":3552:3558   */\n      dup5\n        /* \"#utility.yul\":3514:3581   */\n      tag_308\n      jump\t// in\n    tag_399:\n        /* \"#utility.yul\":2904:3588   */\n      swap7\n      swap6\n      pop\n      pop\n      pop\n      pop\n      pop\n      pop\n      jump\t// out\n        /* \"#utility.yul\":3594:3848   */\n    tag_82:\n        /* \"#utility.yul\":3703:3707   */\n      0x00\n        /* \"#utility.yul\":3741:3743   */\n      0x20\n        /* \"#utility.yul\":3730:3739   */\n      dup3\n        /* \"#utility.yul\":3726:3744   */\n      add\n        /* \"#utility.yul\":3718:3744   */\n      swap1\n      pop\n        /* \"#utility.yul\":3754:3841   */\n      tag_401\n        /* \"#utility.yul\":3838:3839   */\n      0x00\n        /* \"#utility.yul\":3827:3836   */\n      dup4\n        /* \"#utility.yul\":3823:3840   */\n      add\n        /* \"#utility.yul\":3814:3820   */\n      dup5\n        /* \"#utility.yul\":3754:3841   */\n      tag_314\n      jump\t// in\n    tag_401:\n        /* \"#utility.yul\":3594:3848   */\n      swap3\n      swap2\n      pop\n      pop\n      jump\t// out\n        /* \"#utility.yul\":3854:4034   */\n    tag_123:\n        /* \"#utility.yul\":3902:3979   */\n      0x4e487b7100000000000000000000000000000000000000000000000000000000\n        /* \"#utility.yul\":3899:3900   */\n      0x00\n        /* \"#utility.yul\":3892:3980   */\n      mstore\n        /* \"#utility.yul\":3999:4003   */\n      0x21\n        /* \"#utility.yul\":3996:3997   */\n      0x04\n        /* \"#utility.yul\":3989:4004   */\n      mstore\n        /* \"#utility.yul\":4023:4027   */\n      0x24\n        /* \"#utility.yul\":4020:4021   */\n      0x00\n        /* \"#utility.yul\":4013:4028   */\n      revert\n        /* \"#utility.yul\":4040:4160   */\n    tag_315:\n        /* \"#utility.yul\":4128:4129   */\n      0x03\n        /* \"#utility.yul\":4121:4126   */\n      dup2\n        /* \"#utility.yul\":4118:4130   */\n      lt\n        /* \"#utility.yul\":4108:4154   */\n      tag_404\n      jumpi\n        /* \"#utility.yul\":4134:4152   */\n      tag_405\n      tag_123\n      jump\t// in\n    tag_405:\n        /* \"#utility.yul\":4108:4154   */\n    tag_404:\n        /* \"#utility.yul\":4040:4160   */\n      pop\n      jump\t// out\n        /* \"#utility.yul\":4166:4307   */\n    tag_316:\n        /* \"#utility.yul\":4218:4225   */\n      0x00\n        /* \"#utility.yul\":4247:4252   */\n      dup2\n        /* \"#utility.yul\":4236:4252   */\n      swap1\n      pop\n        /* \"#utility.yul\":4253:4301   */\n      tag_407\n        /* \"#utility.yul\":4295:4300   */\n      dup3\n        /* \"#utility.yul\":4253:4301   */\n      tag_315\n      jump\t// in\n    tag_407:\n        /* \"#utility.yul\":4166:4307   */\n      swap2\n      swap1\n      pop\n      jump\t// out\n        /* \"#utility.yul\":4313:4454   */\n    tag_317:\n        /* \"#utility.yul\":4376:4385   */\n      0x00\n        /* \"#utility.yul\":4409:4448   */\n      tag_409\n        /* \"#utility.yul\":4442:4447   */\n      dup3\n        /* \"#utility.yul\":4409:4448   */\n      tag_316\n      jump\t// in\n    tag_409:\n        /* \"#utility.yul\":4396:4448   */\n      swap1\n      pop\n        /* \"#utility.yul\":4313:4454   */\n      swap2\n      swap1\n      pop\n      jump\t// out\n        /* \"#utility.yul\":4460:4617   */\n    tag_318:\n        /* \"#utility.yul\":4560:4610   */\n      tag_411\n        /* \"#utility.yul\":4604:4609   */\n      dup2\n        /* \"#utility.yul\":4560:4610   */\n      tag_317\n      jump\t// in\n    tag_411:\n        /* \"#utility.yul\":4555:4558   */\n      dup3\n        /* \"#utility.yul\":4548:4611   */\n      mstore\n        /* \"#utility.yul\":4460:4617   */\n      pop\n      pop\n      jump\t// out\n        /* \"#utility.yul\":4623:4871   */\n    tag_90:\n        /* \"#utility.yul\":4729:4733   */\n      0x00\n        /* \"#utility.yul\":4767:4769   */\n      0x20\n        /* \"#utility.yul\":4756:4765   */\n      dup3\n        /* \"#utility.yul\":4752:4770   */\n      add\n        /* \"#utility.yul\":4744:4770   */\n      swap1\n      pop\n        /* \"#utility.yul\":4780:4864   */\n      tag_413\n        /* \"#utility.yul\":4861:4862   */\n      0x00\n        /* \"#utility.yul\":4850:4859   */\n      dup4\n        /* \"#utility.yul\":4846:4863   */\n      add\n        /* \"#utility.yul\":4837:4843   */\n      dup5\n        /* \"#utility.yul\":4780:4864   */\n      tag_318\n      jump\t// in\n    tag_413:\n        /* \"#utility.yul\":4623:4871   */\n      swap3\n      swap2\n      pop\n      pop\n      jump\t// out\n        /* \"#utility.yul\":4877:4995   */\n    tag_319:\n        /* \"#utility.yul\":4964:4988   */\n      tag_415\n        /* \"#utility.yul\":4982:4987   */\n      dup2\n        /* \"#utility.yul\":4964:4988   */\n      tag_304\n      jump\t// in\n    tag_415:\n        /* \"#utility.yul\":4959:4962   */\n      dup3\n        /* \"#utility.yul\":4952:4989   */\n      mstore\n        /* \"#utility.yul\":4877:4995   */\n      pop\n      pop\n      jump\t// out\n        /* \"#utility.yul\":5001:5223   */\n    tag_100:\n        /* \"#utility.yul\":5094:5098   */\n      0x00\n        /* \"#utility.yul\":5132:5134   */\n      0x20\n        /* \"#utility.yul\":5121:5130   */\n      dup3\n        /* \"#utility.yul\":5117:5135   */\n      add\n        /* \"#utility.yul\":5109:5135   */\n      swap1\n      pop\n        /* \"#utility.yul\":5145:5216   */\n      tag_417\n        /* \"#utility.yul\":5213:5214   */\n      0x00\n        /* \"#utility.yul\":5202:5211   */\n      dup4\n        /* \"#utility.yul\":5198:5215   */\n      add\n        /* \"#utility.yul\":5189:5195   */\n      dup5\n        /* \"#utility.yul\":5145:5216   */\n      tag_319\n      jump\t// in\n    tag_417:\n        /* \"#utility.yul\":5001:5223   */\n      swap3\n      swap2\n      pop\n      pop\n      jump\t// out\n        /* \"#utility.yul\":5229:5398   */\n    tag_320:\n        /* \"#utility.yul\":5313:5324   */\n      0x00\n        /* \"#utility.yul\":5347:5353   */\n      dup3\n        /* \"#utility.yul\":5342:5345   */\n      dup3\n        /* \"#utility.yul\":5335:5354   */\n      mstore\n        /* \"#utility.yul\":5387:5391   */\n      0x20\n        /* \"#utility.yul\":5382:5385   */\n      dup3\n        /* \"#utility.yul\":5378:5392   */\n      add\n        /* \"#utility.yul\":5363:5392   */\n      swap1\n      pop\n        /* \"#utility.yul\":5229:5398   */\n      swap3\n      swap2\n      pop\n      pop\n      jump\t// out\n        /* \"#utility.yul\":5404:5628   */\n    tag_321:\n        /* \"#utility.yul\":5544:5578   */\n      0x4f6e6c7920746865206f776e65722063616e2063616c6c20746869732066756e\n        /* \"#utility.yul\":5540:5541   */\n      0x00\n        /* \"#utility.yul\":5532:5538   */\n      dup3\n        /* \"#utility.yul\":5528:5542   */\n      add\n        /* \"#utility.yul\":5521:5579   */\n      mstore\n        /* \"#utility.yul\":5613:5620   */\n      0x6374696f6e000000000000000000000000000000000000000000000000000000\n        /* \"#utility.yul\":5608:5610   */\n      0x20\n        /* \"#utility.yul\":5600:5606   */\n      dup3\n        /* \"#utility.yul\":5596:5611   */\n      add\n        /* \"#utility.yul\":5589:5621   */\n      mstore\n        /* \"#utility.yul\":5404:5628   */\n      pop\n      jump\t// out\n        /* \"#utility.yul\":5634:6000   */\n    tag_322:\n        /* \"#utility.yul\":5776:5779   */\n      0x00\n        /* \"#utility.yul\":5797:5864   */\n      tag_421\n        /* \"#utility.yul\":5861:5863   */\n      0x25\n        /* \"#utility.yul\":5856:5859   */\n      dup4\n        /* \"#utility.yul\":5797:5864   */\n      tag_320\n      jump\t// in\n    tag_421:\n        /* \"#utility.yul\":5790:5864   */\n      swap2\n      pop\n        /* \"#utility.yul\":5873:5966   */\n      tag_422\n        /* \"#utility.yul\":5962:5965   */\n      dup3\n        /* \"#utility.yul\":5873:5966   */\n      tag_321\n      jump\t// in\n    tag_422:\n        /* \"#utility.yul\":5991:5993   */\n      0x40\n        /* \"#utility.yul\":5986:5989   */\n      dup3\n        /* \"#utility.yul\":5982:5994   */\n      add\n        /* \"#utility.yul\":5975:5994   */\n      swap1\n      pop\n        /* \"#utility.yul\":5634:6000   */\n      swap2\n      swap1\n      pop\n      jump\t// out\n        /* \"#utility.yul\":6006:6425   */\n    tag_119:\n        /* \"#utility.yul\":6172:6176   */\n      0x00\n        /* \"#utility.yul\":6210:6212   */\n      0x20\n        /* \"#utility.yul\":6199:6208   */\n      dup3\n        /* \"#utility.yul\":6195:6213   */\n      add\n        /* \"#utility.yul\":6187:6213   */\n      swap1\n      pop\n        /* \"#utility.yul\":6259:6268   */\n      dup2\n        /* \"#utility.yul\":6253:6257   */\n      dup2\n        /* \"#utility.yul\":6249:6269   */\n      sub\n        /* \"#utility.yul\":6245:6246   */\n      0x00\n        /* \"#utility.yul\":6234:6243   */\n      dup4\n        /* \"#utility.yul\":6230:6247   */\n      add\n        /* \"#utility.yul\":6223:6270   */\n      mstore\n        /* \"#utility.yul\":6287:6418   */\n      tag_424\n        /* \"#utility.yul\":6413:6417   */\n      dup2\n        /* \"#utility.yul\":6287:6418   */\n      tag_322\n      jump\t// in\n    tag_424:\n        /* \"#utility.yul\":6279:6418   */\n      swap1\n      pop\n        /* \"#utility.yul\":6006:6425   */\n      swap2\n      swap1\n      pop\n      jump\t// out\n        /* \"#utility.yul\":6431:6673   */\n    tag_323:\n        /* \"#utility.yul\":6571:6605   */\n      0x41756374696f6e207374696c6c206f70656e206f72206469646e277420706169\n        /* \"#utility.yul\":6567:6568   */\n      0x00\n        /* \"#utility.yul\":6559:6565   */\n      dup3\n        /* \"#utility.yul\":6555:6569   */\n      add\n        /* \"#utility.yul\":6548:6606   */\n      mstore\n        /* \"#utility.yul\":6640:6665   */\n      0x64206261636b20746865206465706f7369747320796574000000000000000000\n        /* \"#utility.yul\":6635:6637   */\n      0x20\n        /* \"#utility.yul\":6627:6633   */\n      dup3\n        /* \"#utility.yul\":6623:6638   */\n      add\n        /* \"#utility.yul\":6616:6666   */\n      mstore\n        /* \"#utility.yul\":6431:6673   */\n      pop\n      jump\t// out\n        /* \"#utility.yul\":6679:7045   */\n    tag_324:\n        /* \"#utility.yul\":6821:6824   */\n      0x00\n        /* \"#utility.yul\":6842:6909   */\n      tag_427\n        /* \"#utility.yul\":6906:6908   */\n      0x37\n        /* \"#utility.yul\":6901:6904   */\n      dup4\n        /* \"#utility.yul\":6842:6909   */\n      tag_320\n      jump\t// in\n    tag_427:\n        /* \"#utility.yul\":6835:6909   */\n      swap2\n      pop\n        /* \"#utility.yul\":6918:7011   */\n      tag_428\n        /* \"#utility.yul\":7007:7010   */\n      dup3\n        /* \"#utility.yul\":6918:7011   */\n      tag_323\n      jump\t// in\n    tag_428:\n        /* \"#utility.yul\":7036:7038   */\n      0x40\n        /* \"#utility.yul\":7031:7034   */\n      dup3\n        /* \"#utility.yul\":7027:7039   */\n      add\n        /* \"#utility.yul\":7020:7039   */\n      swap1\n      pop\n        /* \"#utility.yul\":6679:7045   */\n      swap2\n      swap1\n      pop\n      jump\t// out\n        /* \"#utility.yul\":7051:7470   */\n    tag_128:\n        /* \"#utility.yul\":7217:7221   */\n      0x00\n        /* \"#utility.yul\":7255:7257   */\n      0x20\n        /* \"#utility.yul\":7244:7253   */\n      dup3\n        /* \"#utility.yul\":7240:7258   */\n      add\n        /* \"#utility.yul\":7232:7258   */\n      swap1\n      pop\n        /* \"#utility.yul\":7304:7313   */\n      dup2\n        /* \"#utility.yul\":7298:7302   */\n      dup2\n        /* \"#utility.yul\":7294:7314   */\n      sub\n        /* \"#utility.yul\":7290:7291   */\n      0x00\n        /* \"#utility.yul\":7279:7288   */\n      dup4\n        /* \"#utility.yul\":7275:7292   */\n      add\n        /* \"#utility.yul\":7268:7315   */\n      mstore\n        /* \"#utility.yul\":7332:7463   */\n      tag_430\n        /* \"#utility.yul\":7458:7462   */\n      dup2\n        /* \"#utility.yul\":7332:7463   */\n      tag_324\n      jump\t// in\n    tag_430:\n        /* \"#utility.yul\":7324:7463   */\n      swap1\n      pop\n        /* \"#utility.yul\":7051:7470   */\n      swap2\n      swap1\n      pop\n      jump\t// out\n        /* \"#utility.yul\":7476:7656   */\n    tag_325:\n        /* \"#utility.yul\":7616:7648   */\n      0x5468652064656c69766572792063616e207374696c6c206265206d6164650000\n        /* \"#utility.yul\":7612:7613   */\n      0x00\n        /* \"#utility.yul\":7604:7610   */\n      dup3\n        /* \"#utility.yul\":7600:7614   */\n      add\n        /* \"#utility.yul\":7593:7649   */\n      mstore\n        /* \"#utility.yul\":7476:7656   */\n      pop\n      jump\t// out\n        /* \"#utility.yul\":7662:8028   */\n    tag_326:\n        /* \"#utility.yul\":7804:7807   */\n      0x00\n        /* \"#utility.yul\":7825:7892   */\n      tag_433\n        /* \"#utility.yul\":7889:7891   */\n      0x1e\n        /* \"#utility.yul\":7884:7887   */\n      dup4\n        /* \"#utility.yul\":7825:7892   */\n      tag_320\n      jump\t// in\n    tag_433:\n        /* \"#utility.yul\":7818:7892   */\n      swap2\n      pop\n        /* \"#utility.yul\":7901:7994   */\n      tag_434\n        /* \"#utility.yul\":7990:7993   */\n      dup3\n        /* \"#utility.yul\":7901:7994   */\n      tag_325\n      jump\t// in\n    tag_434:\n        /* \"#utility.yul\":8019:8021   */\n      0x20\n        /* \"#utility.yul\":8014:8017   */\n      dup3\n        /* \"#utility.yul\":8010:8022   */\n      add\n        /* \"#utility.yul\":8003:8022   */\n      swap1\n      pop\n        /* \"#utility.yul\":7662:8028   */\n      swap2\n      swap1\n      pop\n      jump\t// out\n        /* \"#utility.yul\":8034:8453   */\n    tag_131:\n        /* \"#utility.yul\":8200:8204   */\n      0x00\n        /* \"#utility.yul\":8238:8240   */\n      0x20\n        /* \"#utility.yul\":8227:8236   */\n      dup3\n        /* \"#utility.yul\":8223:8241   */\n      add\n        /* \"#utility.yul\":8215:8241   */\n      swap1\n      pop\n        /* \"#utility.yul\":8287:8296   */\n      dup2\n        /* \"#utility.yul\":8281:8285   */\n      dup2\n        /* \"#utility.yul\":8277:8297   */\n      sub\n        /* \"#utility.yul\":8273:8274   */\n      0x00\n        /* \"#utility.yul\":8262:8271   */\n      dup4\n        /* \"#utility.yul\":8258:8275   */\n      add\n        /* \"#utility.yul\":8251:8298   */\n      mstore\n        /* \"#utility.yul\":8315:8446   */\n      tag_436\n        /* \"#utility.yul\":8441:8445   */\n      dup2\n        /* \"#utility.yul\":8315:8446   */\n      tag_326\n      jump\t// in\n    tag_436:\n        /* \"#utility.yul\":8307:8446   */\n      swap1\n      pop\n        /* \"#utility.yul\":8034:8453   */\n      swap2\n      swap1\n      pop\n      jump\t// out\n        /* \"#utility.yul\":8459:8639   */\n    tag_140:\n        /* \"#utility.yul\":8507:8584   */\n      0x4e487b7100000000000000000000000000000000000000000000000000000000\n        /* \"#utility.yul\":8504:8505   */\n      0x00\n        /* \"#utility.yul\":8497:8585   */\n      mstore\n        /* \"#utility.yul\":8604:8608   */\n      0x32\n        /* \"#utility.yul\":8601:8602   */\n      0x04\n        /* \"#utility.yul\":8594:8609   */\n      mstore\n        /* \"#utility.yul\":8628:8632   */\n      0x24\n        /* \"#utility.yul\":8625:8626   */\n      0x00\n        /* \"#utility.yul\":8618:8633   */\n      revert\n        /* \"#utility.yul\":8645:8813   */\n    tag_327:\n        /* \"#utility.yul\":8785:8805   */\n      0x41756374696f6e207374696c6c206f70656e0000000000000000000000000000\n        /* \"#utility.yul\":8781:8782   */\n      0x00\n        /* \"#utility.yul\":8773:8779   */\n      dup3\n        /* \"#utility.yul\":8769:8783   */\n      add\n        /* \"#utility.yul\":8762:8806   */\n      mstore\n        /* \"#utility.yul\":8645:8813   */\n      pop\n      jump\t// out\n        /* \"#utility.yul\":8819:9185   */\n    tag_328:\n        /* \"#utility.yul\":8961:8964   */\n      0x00\n        /* \"#utility.yul\":8982:9049   */\n      tag_440\n        /* \"#utility.yul\":9046:9048   */\n      0x12\n        /* \"#utility.yul\":9041:9044   */\n      dup4\n        /* \"#utility.yul\":8982:9049   */\n      tag_320\n      jump\t// in\n    tag_440:\n        /* \"#utility.yul\":8975:9049   */\n      swap2\n      pop\n        /* \"#utility.yul\":9058:9151   */\n      tag_441\n        /* \"#utility.yul\":9147:9150   */\n      dup3\n        /* \"#utility.yul\":9058:9151   */\n      tag_327\n      jump\t// in\n    tag_441:\n        /* \"#utility.yul\":9176:9178   */\n      0x20\n        /* \"#utility.yul\":9171:9174   */\n      dup3\n        /* \"#utility.yul\":9167:9179   */\n      add\n        /* \"#utility.yul\":9160:9179   */\n      swap1\n      pop\n        /* \"#utility.yul\":8819:9185   */\n      swap2\n      swap1\n      pop\n      jump\t// out\n        /* \"#utility.yul\":9191:9610   */\n    tag_154:\n        /* \"#utility.yul\":9357:9361   */\n      0x00\n        /* \"#utility.yul\":9395:9397   */\n      0x20\n        /* \"#utility.yul\":9384:9393   */\n      dup3\n        /* \"#utility.yul\":9380:9398   */\n      add\n        /* \"#utility.yul\":9372:9398   */\n      swap1\n      pop\n        /* \"#utility.yul\":9444:9453   */\n      dup2\n        /* \"#utility.yul\":9438:9442   */\n      dup2\n        /* \"#utility.yul\":9434:9454   */\n      sub\n        /* \"#utility.yul\":9430:9431   */\n      0x00\n        /* \"#utility.yul\":9419:9428   */\n      dup4\n        /* \"#utility.yul\":9415:9432   */\n      add\n        /* \"#utility.yul\":9408:9455   */\n      mstore\n        /* \"#utility.yul\":9472:9603   */\n      tag_443\n        /* \"#utility.yul\":9598:9602   */\n      dup2\n        /* \"#utility.yul\":9472:9603   */\n      tag_328\n      jump\t// in\n    tag_443:\n        /* \"#utility.yul\":9464:9603   */\n      swap1\n      pop\n        /* \"#utility.yul\":9191:9610   */\n      swap2\n      swap1\n      pop\n      jump\t// out\n        /* \"#utility.yul\":9616:9789   */\n    tag_329:\n        /* \"#utility.yul\":9756:9781   */\n      0x5468652064656c6976657279206973206f766572647565000000000000000000\n        /* \"#utility.yul\":9752:9753   */\n      0x00\n        /* \"#utility.yul\":9744:9750   */\n      dup3\n        /* \"#utility.yul\":9740:9754   */\n      add\n        /* \"#utility.yul\":9733:9782   */\n      mstore\n        /* \"#utility.yul\":9616:9789   */\n      pop\n      jump\t// out\n        /* \"#utility.yul\":9795:10161   */\n    tag_330:\n        /* \"#utility.yul\":9937:9940   */\n      0x00\n        /* \"#utility.yul\":9958:10025   */\n      tag_446\n        /* \"#utility.yul\":10022:10024   */\n      0x17\n        /* \"#utility.yul\":10017:10020   */\n      dup4\n        /* \"#utility.yul\":9958:10025   */\n      tag_320\n      jump\t// in\n    tag_446:\n        /* \"#utility.yul\":9951:10025   */\n      swap2\n      pop\n        /* \"#utility.yul\":10034:10127   */\n      tag_447\n        /* \"#utility.yul\":10123:10126   */\n      dup3\n        /* \"#utility.yul\":10034:10127   */\n      tag_329\n      jump\t// in\n    tag_447:\n        /* \"#utility.yul\":10152:10154   */\n      0x20\n        /* \"#utility.yul\":10147:10150   */\n      dup3\n        /* \"#utility.yul\":10143:10155   */\n      add\n        /* \"#utility.yul\":10136:10155   */\n      swap1\n      pop\n        /* \"#utility.yul\":9795:10161   */\n      swap2\n      swap1\n      pop\n      jump\t// out\n        /* \"#utility.yul\":10167:10586   */\n    tag_200:\n        /* \"#utility.yul\":10333:10337   */\n      0x00\n        /* \"#utility.yul\":10371:10373   */\n      0x20\n        /* \"#utility.yul\":10360:10369   */\n      dup3\n        /* \"#utility.yul\":10356:10374   */\n      add\n        /* \"#utility.yul\":10348:10374   */\n      swap1\n      pop\n        /* \"#utility.yul\":10420:10429   */\n      dup2\n        /* \"#utility.yul\":10414:10418   */\n      dup2\n        /* \"#utility.yul\":10410:10430   */\n      sub\n        /* \"#utility.yul\":10406:10407   */\n      0x00\n        /* \"#utility.yul\":10395:10404   */\n      dup4\n        /* \"#utility.yul\":10391:10408   */\n      add\n        /* \"#utility.yul\":10384:10431   */\n      mstore\n        /* \"#utility.yul\":10448:10579   */\n      tag_449\n        /* \"#utility.yul\":10574:10578   */\n      dup2\n        /* \"#utility.yul\":10448:10579   */\n      tag_330\n      jump\t// in\n    tag_449:\n        /* \"#utility.yul\":10440:10579   */\n      swap1\n      pop\n        /* \"#utility.yul\":10167:10586   */\n      swap2\n      swap1\n      pop\n      jump\t// out\n        /* \"#utility.yul\":10592:10772   */\n    tag_331:\n        /* \"#utility.yul\":10640:10717   */\n      0x4e487b7100000000000000000000000000000000000000000000000000000000\n        /* \"#utility.yul\":10637:10638   */\n      0x00\n        /* \"#utility.yul\":10630:10718   */\n      mstore\n        /* \"#utility.yul\":10737:10741   */\n      0x11\n        /* \"#utility.yul\":10734:10735   */\n      0x04\n        /* \"#utility.yul\":10727:10742   */\n      mstore\n        /* \"#utility.yul\":10761:10765   */\n      0x24\n        /* \"#utility.yul\":10758:10759   */\n      0x00\n        /* \"#utility.yul\":10751:10766   */\n      revert\n        /* \"#utility.yul\":10778:10969   */\n    tag_202:\n        /* \"#utility.yul\":10818:10821   */\n      0x00\n        /* \"#utility.yul\":10837:10857   */\n      tag_452\n        /* \"#utility.yul\":10855:10856   */\n      dup3\n        /* \"#utility.yul\":10837:10857   */\n      tag_309\n      jump\t// in\n    tag_452:\n        /* \"#utility.yul\":10832:10857   */\n      swap2\n      pop\n        /* \"#utility.yul\":10871:10891   */\n      tag_453\n        /* \"#utility.yul\":10889:10890   */\n      dup4\n        /* \"#utility.yul\":10871:10891   */\n      tag_309\n      jump\t// in\n    tag_453:\n        /* \"#utility.yul\":10866:10891   */\n      swap3\n      pop\n        /* \"#utility.yul\":10914:10915   */\n      dup3\n        /* \"#utility.yul\":10911:10912   */\n      dup3\n        /* \"#utility.yul\":10907:10916   */\n      add\n        /* \"#utility.yul\":10900:10916   */\n      swap1\n      pop\n        /* \"#utility.yul\":10935:10938   */\n      dup1\n        /* \"#utility.yul\":10932:10933   */\n      dup3\n        /* \"#utility.yul\":10929:10939   */\n      gt\n        /* \"#utility.yul\":10926:10962   */\n      iszero\n      tag_454\n      jumpi\n        /* \"#utility.yul\":10942:10960   */\n      tag_455\n      tag_331\n      jump\t// in\n    tag_455:\n        /* \"#utility.yul\":10926:10962   */\n    tag_454:\n        /* \"#utility.yul\":10778:10969   */\n      swap3\n      swap2\n      pop\n      pop\n      jump\t// out\n        /* \"#utility.yul\":10975:11143   */\n    tag_332:\n        /* \"#utility.yul\":11115:11135   */\n      0x41756374696f6e206e6f74206163746976650000000000000000000000000000\n        /* \"#utility.yul\":11111:11112   */\n      0x00\n        /* \"#utility.yul\":11103:11109   */\n      dup3\n        /* \"#utility.yul\":11099:11113   */\n      add\n        /* \"#utility.yul\":11092:11136   */\n      mstore\n        /* \"#utility.yul\":10975:11143   */\n      pop\n      jump\t// out\n        /* \"#utility.yul\":11149:11515   */\n    tag_333:\n        /* \"#utility.yul\":11291:11294   */\n      0x00\n        /* \"#utility.yul\":11312:11379   */\n      tag_458\n        /* \"#utility.yul\":11376:11378   */\n      0x12\n        /* \"#utility.yul\":11371:11374   */\n      dup4\n        /* \"#utility.yul\":11312:11379   */\n      tag_320\n      jump\t// in\n    tag_458:\n        /* \"#utility.yul\":11305:11379   */\n      swap2\n      pop\n        /* \"#utility.yul\":11388:11481   */\n      tag_459\n        /* \"#utility.yul\":11477:11480   */\n      dup3\n        /* \"#utility.yul\":11388:11481   */\n      tag_332\n      jump\t// in\n    tag_459:\n        /* \"#utility.yul\":11506:11508   */\n      0x20\n        /* \"#utility.yul\":11501:11504   */\n      dup3\n        /* \"#utility.yul\":11497:11509   */\n      add\n        /* \"#utility.yul\":11490:11509   */\n      swap1\n      pop\n        /* \"#utility.yul\":11149:11515   */\n      swap2\n      swap1\n      pop\n      jump\t// out\n        /* \"#utility.yul\":11521:11940   */\n    tag_214:\n        /* \"#utility.yul\":11687:11691   */\n      0x00\n        /* \"#utility.yul\":11725:11727   */\n      0x20\n        /* \"#utility.yul\":11714:11723   */\n      dup3\n        /* \"#utility.yul\":11710:11728   */\n      add\n        /* \"#utility.yul\":11702:11728   */\n      swap1\n      pop\n        /* \"#utility.yul\":11774:11783   */\n      dup2\n        /* \"#utility.yul\":11768:11772   */\n      dup2\n        /* \"#utility.yul\":11764:11784   */\n      sub\n        /* \"#utility.yul\":11760:11761   */\n      0x00\n        /* \"#utility.yul\":11749:11758   */\n      dup4\n        /* \"#utility.yul\":11745:11762   */\n      add\n        /* \"#utility.yul\":11738:11785   */\n      mstore\n        /* \"#utility.yul\":11802:11933   */\n      tag_461\n        /* \"#utility.yul\":11928:11932   */\n      dup2\n        /* \"#utility.yul\":11802:11933   */\n      tag_333\n      jump\t// in\n    tag_461:\n        /* \"#utility.yul\":11794:11933   */\n      swap1\n      pop\n        /* \"#utility.yul\":11521:11940   */\n      swap2\n      swap1\n      pop\n      jump\t// out\n        /* \"#utility.yul\":11946:12168   */\n    tag_334:\n        /* \"#utility.yul\":12086:12120   */\n      0x4f757473696465206f66207468652061756374696f6e27732074696d65207261\n        /* \"#utility.yul\":12082:12083   */\n      0x00\n        /* \"#utility.yul\":12074:12080   */\n      dup3\n        /* \"#utility.yul\":12070:12084   */\n      add\n        /* \"#utility.yul\":12063:12121   */\n      mstore\n        /* \"#utility.yul\":12155:12160   */\n      0x6e67650000000000000000000000000000000000000000000000000000000000\n        /* \"#utility.yul\":12150:12152   */\n      0x20\n        /* \"#utility.yul\":12142:12148   */\n      dup3\n        /* \"#utility.yul\":12138:12153   */\n      add\n        /* \"#utility.yul\":12131:12161   */\n      mstore\n        /* \"#utility.yul\":11946:12168   */\n      pop\n      jump\t// out\n        /* \"#utility.yul\":12174:12540   */\n    tag_335:\n        /* \"#utility.yul\":12316:12319   */\n      0x00\n        /* \"#utility.yul\":12337:12404   */\n      tag_464\n        /* \"#utility.yul\":12401:12403   */\n      0x23\n        /* \"#utility.yul\":12396:12399   */\n      dup4\n        /* \"#utility.yul\":12337:12404   */\n      tag_320\n      jump\t// in\n    tag_464:\n        /* \"#utility.yul\":12330:12404   */\n      swap2\n      pop\n        /* \"#utility.yul\":12413:12506   */\n      tag_465\n        /* \"#utility.yul\":12502:12505   */\n      dup3\n        /* \"#utility.yul\":12413:12506   */\n      tag_334\n      jump\t// in\n    tag_465:\n        /* \"#utility.yul\":12531:12533   */\n      0x40\n        /* \"#utility.yul\":12526:12529   */\n      dup3\n        /* \"#utility.yul\":12522:12534   */\n      add\n        /* \"#utility.yul\":12515:12534   */\n      swap1\n      pop\n        /* \"#utility.yul\":12174:12540   */\n      swap2\n      swap1\n      pop\n      jump\t// out\n        /* \"#utility.yul\":12546:12965   */\n    tag_218:\n        /* \"#utility.yul\":12712:12716   */\n      0x00\n        /* \"#utility.yul\":12750:12752   */\n      0x20\n        /* \"#utility.yul\":12739:12748   */\n      dup3\n        /* \"#utility.yul\":12735:12753   */\n      add\n        /* \"#utility.yul\":12727:12753   */\n      swap1\n      pop\n        /* \"#utility.yul\":12799:12808   */\n      dup2\n        /* \"#utility.yul\":12793:12797   */\n      dup2\n        /* \"#utility.yul\":12789:12809   */\n      sub\n        /* \"#utility.yul\":12785:12786   */\n      0x00\n        /* \"#utility.yul\":12774:12783   */\n      dup4\n        /* \"#utility.yul\":12770:12787   */\n      add\n        /* \"#utility.yul\":12763:12810   */\n      mstore\n        /* \"#utility.yul\":12827:12958   */\n      tag_467\n        /* \"#utility.yul\":12953:12957   */\n      dup2\n        /* \"#utility.yul\":12827:12958   */\n      tag_335\n      jump\t// in\n    tag_467:\n        /* \"#utility.yul\":12819:12958   */\n      swap1\n      pop\n        /* \"#utility.yul\":12546:12965   */\n      swap2\n      swap1\n      pop\n      jump\t// out\n        /* \"#utility.yul\":12971:13140   */\n    tag_336:\n        /* \"#utility.yul\":13111:13132   */\n      0x54686520626964206d757374206265203e203000000000000000000000000000\n        /* \"#utility.yul\":13107:13108   */\n      0x00\n        /* \"#utility.yul\":13099:13105   */\n      dup3\n        /* \"#utility.yul\":13095:13109   */\n      add\n        /* \"#utility.yul\":13088:13133   */\n      mstore\n        /* \"#utility.yul\":12971:13140   */\n      pop\n      jump\t// out\n        /* \"#utility.yul\":13146:13512   */\n    tag_337:\n        /* \"#utility.yul\":13288:13291   */\n      0x00\n        /* \"#utility.yul\":13309:13376   */\n      tag_470\n        /* \"#utility.yul\":13373:13375   */\n      0x13\n        /* \"#utility.yul\":13368:13371   */\n      dup4\n        /* \"#utility.yul\":13309:13376   */\n      tag_320\n      jump\t// in\n    tag_470:\n        /* \"#utility.yul\":13302:13376   */\n      swap2\n      pop\n        /* \"#utility.yul\":13385:13478   */\n      tag_471\n        /* \"#utility.yul\":13474:13477   */\n      dup3\n        /* \"#utility.yul\":13385:13478   */\n      tag_336\n      jump\t// in\n    tag_471:\n        /* \"#utility.yul\":13503:13505   */\n      0x20\n        /* \"#utility.yul\":13498:13501   */\n      dup3\n        /* \"#utility.yul\":13494:13506   */\n      add\n        /* \"#utility.yul\":13487:13506   */\n      swap1\n      pop\n        /* \"#utility.yul\":13146:13512   */\n      swap2\n      swap1\n      pop\n      jump\t// out\n        /* \"#utility.yul\":13518:13937   */\n    tag_222:\n        /* \"#utility.yul\":13684:13688   */\n      0x00\n        /* \"#utility.yul\":13722:13724   */\n      0x20\n        /* \"#utility.yul\":13711:13720   */\n      dup3\n        /* \"#utility.yul\":13707:13725   */\n      add\n        /* \"#utility.yul\":13699:13725   */\n      swap1\n      pop\n        /* \"#utility.yul\":13771:13780   */\n      dup2\n        /* \"#utility.yul\":13765:13769   */\n      dup2\n        /* \"#utility.yul\":13761:13781   */\n      sub\n        /* \"#utility.yul\":13757:13758   */\n      0x00\n        /* \"#utility.yul\":13746:13755   */\n      dup4\n        /* \"#utility.yul\":13742:13759   */\n      add\n        /* \"#utility.yul\":13735:13782   */\n      mstore\n        /* \"#utility.yul\":13799:13930   */\n      tag_473\n        /* \"#utility.yul\":13925:13929   */\n      dup2\n        /* \"#utility.yul\":13799:13930   */\n      tag_337\n      jump\t// in\n    tag_473:\n        /* \"#utility.yul\":13791:13930   */\n      swap1\n      pop\n        /* \"#utility.yul\":13518:13937   */\n      swap2\n      swap1\n      pop\n      jump\t// out\n        /* \"#utility.yul\":13943:14164   */\n    tag_338:\n        /* \"#utility.yul\":14083:14117   */\n      0x5468652062696420697320686967686572207468616e20746865206d6178696d\n        /* \"#utility.yul\":14079:14080   */\n      0x00\n        /* \"#utility.yul\":14071:14077   */\n      dup3\n        /* \"#utility.yul\":14067:14081   */\n      add\n        /* \"#utility.yul\":14060:14118   */\n      mstore\n        /* \"#utility.yul\":14152:14156   */\n      0x756d000000000000000000000000000000000000000000000000000000000000\n        /* \"#utility.yul\":14147:14149   */\n      0x20\n        /* \"#utility.yul\":14139:14145   */\n      dup3\n        /* \"#utility.yul\":14135:14150   */\n      add\n        /* \"#utility.yul\":14128:14157   */\n      mstore\n        /* \"#utility.yul\":13943:14164   */\n      pop\n      jump\t// out\n        /* \"#utility.yul\":14170:14536   */\n    tag_339:\n        /* \"#utility.yul\":14312:14315   */\n      0x00\n        /* \"#utility.yul\":14333:14400   */\n      tag_476\n        /* \"#utility.yul\":14397:14399   */\n      0x22\n        /* \"#utility.yul\":14392:14395   */\n      dup4\n        /* \"#utility.yul\":14333:14400   */\n      tag_320\n      jump\t// in\n    tag_476:\n        /* \"#utility.yul\":14326:14400   */\n      swap2\n      pop\n        /* \"#utility.yul\":14409:14502   */\n      tag_477\n        /* \"#utility.yul\":14498:14501   */\n      dup3\n        /* \"#utility.yul\":14409:14502   */\n      tag_338\n      jump\t// in\n    tag_477:\n        /* \"#utility.yul\":14527:14529   */\n      0x40\n        /* \"#utility.yul\":14522:14525   */\n      dup3\n        /* \"#utility.yul\":14518:14530   */\n      add\n        /* \"#utility.yul\":14511:14530   */\n      swap1\n      pop\n        /* \"#utility.yul\":14170:14536   */\n      swap2\n      swap1\n      pop\n      jump\t// out\n        /* \"#utility.yul\":14542:14961   */\n    tag_225:\n        /* \"#utility.yul\":14708:14712   */\n      0x00\n        /* \"#utility.yul\":14746:14748   */\n      0x20\n        /* \"#utility.yul\":14735:14744   */\n      dup3\n        /* \"#utility.yul\":14731:14749   */\n      add\n        /* \"#utility.yul\":14723:14749   */\n      swap1\n      pop\n        /* \"#utility.yul\":14795:14804   */\n      dup2\n        /* \"#utility.yul\":14789:14793   */\n      dup2\n        /* \"#utility.yul\":14785:14805   */\n      sub\n        /* \"#utility.yul\":14781:14782   */\n      0x00\n        /* \"#utility.yul\":14770:14779   */\n      dup4\n        /* \"#utility.yul\":14766:14783   */\n      add\n        /* \"#utility.yul\":14759:14806   */\n      mstore\n        /* \"#utility.yul\":14823:14954   */\n      tag_479\n        /* \"#utility.yul\":14949:14953   */\n      dup2\n        /* \"#utility.yul\":14823:14954   */\n      tag_339\n      jump\t// in\n    tag_479:\n        /* \"#utility.yul\":14815:14954   */\n      swap1\n      pop\n        /* \"#utility.yul\":14542:14961   */\n      swap2\n      swap1\n      pop\n      jump\t// out\n        /* \"#utility.yul\":14967:15146   */\n    tag_340:\n        /* \"#utility.yul\":15107:15138   */\n      0x596f75206861766520616c726561647920706172746963697061746564000000\n        /* \"#utility.yul\":15103:15104   */\n      0x00\n        /* \"#utility.yul\":15095:15101   */\n      dup3\n        /* \"#utility.yul\":15091:15105   */\n      add\n        /* \"#utility.yul\":15084:15139   */\n      mstore\n        /* \"#utility.yul\":14967:15146   */\n      pop\n      jump\t// out\n        /* \"#utility.yul\":15152:15518   */\n    tag_341:\n        /* \"#utility.yul\":15294:15297   */\n      0x00\n        /* \"#utility.yul\":15315:15382   */\n      tag_482\n        /* \"#utility.yul\":15379:15381   */\n      0x1d\n        /* \"#utility.yul\":15374:15377   */\n      dup4\n        /* \"#utility.yul\":15315:15382   */\n      tag_320\n      jump\t// in\n    tag_482:\n        /* \"#utility.yul\":15308:15382   */\n      swap2\n      pop\n        /* \"#utility.yul\":15391:15484   */\n      tag_483\n        /* \"#utility.yul\":15480:15483   */\n      dup3\n        /* \"#utility.yul\":15391:15484   */\n      tag_340\n      jump\t// in\n    tag_483:\n        /* \"#utility.yul\":15509:15511   */\n      0x20\n        /* \"#utility.yul\":15504:15507   */\n      dup3\n        /* \"#utility.yul\":15500:15512   */\n      add\n        /* \"#utility.yul\":15493:15512   */\n      swap1\n      pop\n        /* \"#utility.yul\":15152:15518   */\n      swap2\n      swap1\n      pop\n      jump\t// out\n        /* \"#utility.yul\":15524:15943   */\n    tag_229:\n        /* \"#utility.yul\":15690:15694   */\n      0x00\n        /* \"#utility.yul\":15728:15730   */\n      0x20\n        /* \"#utility.yul\":15717:15726   */\n      dup3\n        /* \"#utility.yul\":15713:15731   */\n      add\n        /* \"#utility.yul\":15705:15731   */\n      swap1\n      pop\n        /* \"#utility.yul\":15777:15786   */\n      dup2\n        /* \"#utility.yul\":15771:15775   */\n      dup2\n        /* \"#utility.yul\":15767:15787   */\n      sub\n        /* \"#utility.yul\":15763:15764   */\n      0x00\n        /* \"#utility.yul\":15752:15761   */\n      dup4\n        /* \"#utility.yul\":15748:15765   */\n      add\n        /* \"#utility.yul\":15741:15788   */\n      mstore\n        /* \"#utility.yul\":15805:15936   */\n      tag_485\n        /* \"#utility.yul\":15931:15935   */\n      dup2\n        /* \"#utility.yul\":15805:15936   */\n      tag_341\n      jump\t// in\n    tag_485:\n        /* \"#utility.yul\":15797:15936   */\n      swap1\n      pop\n        /* \"#utility.yul\":15524:15943   */\n      swap2\n      swap1\n      pop\n      jump\t// out\n        /* \"#utility.yul\":15949:16194   */\n    tag_342:\n        /* \"#utility.yul\":16089:16123   */\n      0x5468652061756374696f6e20686173207265616368656420746865206d617869\n        /* \"#utility.yul\":16085:16086   */\n      0x00\n        /* \"#utility.yul\":16077:16083   */\n      dup3\n        /* \"#utility.yul\":16073:16087   */\n      add\n        /* \"#utility.yul\":16066:16124   */\n      mstore\n        /* \"#utility.yul\":16158:16186   */\n      0x6d756d206e756d626572206f66207061727469636970616e7473000000000000\n        /* \"#utility.yul\":16153:16155   */\n      0x20\n        /* \"#utility.yul\":16145:16151   */\n      dup3\n        /* \"#utility.yul\":16141:16156   */\n      add\n        /* \"#utility.yul\":16134:16187   */\n      mstore\n        /* \"#utility.yul\":15949:16194   */\n      pop\n      jump\t// out\n        /* \"#utility.yul\":16200:16566   */\n    tag_343:\n        /* \"#utility.yul\":16342:16345   */\n      0x00\n        /* \"#utility.yul\":16363:16430   */\n      tag_488\n        /* \"#utility.yul\":16427:16429   */\n      0x3a\n        /* \"#utility.yul\":16422:16425   */\n      dup4\n        /* \"#utility.yul\":16363:16430   */\n      tag_320\n      jump\t// in\n    tag_488:\n        /* \"#utility.yul\":16356:16430   */\n      swap2\n      pop\n        /* \"#utility.yul\":16439:16532   */\n      tag_489\n        /* \"#utility.yul\":16528:16531   */\n      dup3\n        /* \"#utility.yul\":16439:16532   */\n      tag_342\n      jump\t// in\n    tag_489:\n        /* \"#utility.yul\":16557:16559   */\n      0x40\n        /* \"#utility.yul\":16552:16555   */\n      dup3\n        /* \"#utility.yul\":16548:16560   */\n      add\n        /* \"#utility.yul\":16541:16560   */\n      swap1\n      pop\n        /* \"#utility.yul\":16200:16566   */\n      swap2\n      swap1\n      pop\n      jump\t// out\n        /* \"#utility.yul\":16572:16991   */\n    tag_232:\n        /* \"#utility.yul\":16738:16742   */\n      0x00\n        /* \"#utility.yul\":16776:16778   */\n      0x20\n        /* \"#utility.yul\":16765:16774   */\n      dup3\n        /* \"#utility.yul\":16761:16779   */\n      add\n        /* \"#utility.yul\":16753:16779   */\n      swap1\n      pop\n        /* \"#utility.yul\":16825:16834   */\n      dup2\n        /* \"#utility.yul\":16819:16823   */\n      dup2\n        /* \"#utility.yul\":16815:16835   */\n      sub\n        /* \"#utility.yul\":16811:16812   */\n      0x00\n        /* \"#utility.yul\":16800:16809   */\n      dup4\n        /* \"#utility.yul\":16796:16813   */\n      add\n        /* \"#utility.yul\":16789:16836   */\n      mstore\n        /* \"#utility.yul\":16853:16984   */\n      tag_491\n        /* \"#utility.yul\":16979:16983   */\n      dup2\n        /* \"#utility.yul\":16853:16984   */\n      tag_343\n      jump\t// in\n    tag_491:\n        /* \"#utility.yul\":16845:16984   */\n      swap1\n      pop\n        /* \"#utility.yul\":16572:16991   */\n      swap2\n      swap1\n      pop\n      jump\t// out\n        /* \"#utility.yul\":16997:17226   */\n    tag_344:\n        /* \"#utility.yul\":17137:17171   */\n      0x596f752063616e6e6f7420706c616365206120626964206f6e20796f7572206f\n        /* \"#utility.yul\":17133:17134   */\n      0x00\n        /* \"#utility.yul\":17125:17131   */\n      dup3\n        /* \"#utility.yul\":17121:17135   */\n      add\n        /* \"#utility.yul\":17114:17172   */\n      mstore\n        /* \"#utility.yul\":17206:17218   */\n      0x776e2061756374696f6e00000000000000000000000000000000000000000000\n        /* \"#utility.yul\":17201:17203   */\n      0x20\n        /* \"#utility.yul\":17193:17199   */\n      dup3\n        /* \"#utility.yul\":17189:17204   */\n      add\n        /* \"#utility.yul\":17182:17219   */\n      mstore\n        /* \"#utility.yul\":16997:17226   */\n      pop\n      jump\t// out\n        /* \"#utility.yul\":17232:17598   */\n    tag_345:\n        /* \"#utility.yul\":17374:17377   */\n      0x00\n        /* \"#utility.yul\":17395:17462   */\n      tag_494\n        /* \"#utility.yul\":17459:17461   */\n      0x2a\n        /* \"#utility.yul\":17454:17457   */\n      dup4\n        /* \"#utility.yul\":17395:17462   */\n      tag_320\n      jump\t// in\n    tag_494:\n        /* \"#utility.yul\":17388:17462   */\n      swap2\n      pop\n        /* \"#utility.yul\":17471:17564   */\n      tag_495\n        /* \"#utility.yul\":17560:17563   */\n      dup3\n        /* \"#utility.yul\":17471:17564   */\n      tag_344\n      jump\t// in\n    tag_495:\n        /* \"#utility.yul\":17589:17591   */\n      0x40\n        /* \"#utility.yul\":17584:17587   */\n      dup3\n        /* \"#utility.yul\":17580:17592   */\n      add\n        /* \"#utility.yul\":17573:17592   */\n      swap1\n      pop\n        /* \"#utility.yul\":17232:17598   */\n      swap2\n      swap1\n      pop\n      jump\t// out\n        /* \"#utility.yul\":17604:18023   */\n    tag_235:\n        /* \"#utility.yul\":17770:17774   */\n      0x00\n        /* \"#utility.yul\":17808:17810   */\n      0x20\n        /* \"#utility.yul\":17797:17806   */\n      dup3\n        /* \"#utility.yul\":17793:17811   */\n      add\n        /* \"#utility.yul\":17785:17811   */\n      swap1\n      pop\n        /* \"#utility.yul\":17857:17866   */\n      dup2\n        /* \"#utility.yul\":17851:17855   */\n      dup2\n        /* \"#utility.yul\":17847:17867   */\n      sub\n        /* \"#utility.yul\":17843:17844   */\n      0x00\n        /* \"#utility.yul\":17832:17841   */\n      dup4\n        /* \"#utility.yul\":17828:17845   */\n      add\n        /* \"#utility.yul\":17821:17868   */\n      mstore\n        /* \"#utility.yul\":17885:18016   */\n      tag_497\n        /* \"#utility.yul\":18011:18015   */\n      dup2\n        /* \"#utility.yul\":17885:18016   */\n      tag_345\n      jump\t// in\n    tag_497:\n        /* \"#utility.yul\":17877:18016   */\n      swap1\n      pop\n        /* \"#utility.yul\":17604:18023   */\n      swap2\n      swap1\n      pop\n      jump\t// out\n        /* \"#utility.yul\":18029:18439   */\n    tag_237:\n        /* \"#utility.yul\":18069:18076   */\n      0x00\n        /* \"#utility.yul\":18092:18112   */\n      tag_499\n        /* \"#utility.yul\":18110:18111   */\n      dup3\n        /* \"#utility.yul\":18092:18112   */\n      tag_309\n      jump\t// in\n    tag_499:\n        /* \"#utility.yul\":18087:18112   */\n      swap2\n      pop\n        /* \"#utility.yul\":18126:18146   */\n      tag_500\n        /* \"#utility.yul\":18144:18145   */\n      dup4\n        /* \"#utility.yul\":18126:18146   */\n      tag_309\n      jump\t// in\n    tag_500:\n        /* \"#utility.yul\":18121:18146   */\n      swap3\n      pop\n        /* \"#utility.yul\":18181:18182   */\n      dup3\n        /* \"#utility.yul\":18178:18179   */\n      dup3\n        /* \"#utility.yul\":18174:18183   */\n      mul\n        /* \"#utility.yul\":18203:18233   */\n      tag_501\n        /* \"#utility.yul\":18221:18232   */\n      dup2\n        /* \"#utility.yul\":18203:18233   */\n      tag_309\n      jump\t// in\n    tag_501:\n        /* \"#utility.yul\":18192:18233   */\n      swap2\n      pop\n        /* \"#utility.yul\":18382:18383   */\n      dup3\n        /* \"#utility.yul\":18373:18380   */\n      dup3\n        /* \"#utility.yul\":18369:18384   */\n      div\n        /* \"#utility.yul\":18366:18367   */\n      dup5\n        /* \"#utility.yul\":18363:18385   */\n      eq\n        /* \"#utility.yul\":18343:18344   */\n      dup4\n        /* \"#utility.yul\":18336:18345   */\n      iszero\n        /* \"#utility.yul\":18316:18399   */\n      or\n        /* \"#utility.yul\":18293:18432   */\n      tag_502\n      jumpi\n        /* \"#utility.yul\":18412:18430   */\n      tag_503\n      tag_331\n      jump\t// in\n    tag_503:\n        /* \"#utility.yul\":18293:18432   */\n    tag_502:\n        /* \"#utility.yul\":18077:18439   */\n      pop\n        /* \"#utility.yul\":18029:18439   */\n      swap3\n      swap2\n      pop\n      pop\n      jump\t// out\n        /* \"#utility.yul\":18445:18625   */\n    tag_346:\n        /* \"#utility.yul\":18493:18570   */\n      0x4e487b7100000000000000000000000000000000000000000000000000000000\n        /* \"#utility.yul\":18490:18491   */\n      0x00\n        /* \"#utility.yul\":18483:18571   */\n      mstore\n        /* \"#utility.yul\":18590:18594   */\n      0x12\n        /* \"#utility.yul\":18587:18588   */\n      0x04\n        /* \"#utility.yul\":18580:18595   */\n      mstore\n        /* \"#utility.yul\":18614:18618   */\n      0x24\n        /* \"#utility.yul\":18611:18612   */\n      0x00\n        /* \"#utility.yul\":18604:18619   */\n      revert\n        /* \"#utility.yul\":18631:18816   */\n    tag_239:\n        /* \"#utility.yul\":18671:18672   */\n      0x00\n        /* \"#utility.yul\":18688:18708   */\n      tag_506\n        /* \"#utility.yul\":18706:18707   */\n      dup3\n        /* \"#utility.yul\":18688:18708   */\n      tag_309\n      jump\t// in\n    tag_506:\n        /* \"#utility.yul\":18683:18708   */\n      swap2\n      pop\n        /* \"#utility.yul\":18722:18742   */\n      tag_507\n        /* \"#utility.yul\":18740:18741   */\n      dup4\n        /* \"#utility.yul\":18722:18742   */\n      tag_309\n      jump\t// in\n    tag_507:\n        /* \"#utility.yul\":18717:18742   */\n      swap3\n      pop\n        /* \"#utility.yul\":18761:18762   */\n      dup3\n        /* \"#utility.yul\":18751:18786   */\n      tag_508\n      jumpi\n        /* \"#utility.yul\":18766:18784   */\n      tag_509\n      tag_346\n      jump\t// in\n    tag_509:\n        /* \"#utility.yul\":18751:18786   */\n    tag_508:\n        /* \"#utility.yul\":18808:18809   */\n      dup3\n        /* \"#utility.yul\":18805:18806   */\n      dup3\n        /* \"#utility.yul\":18801:18810   */\n      div\n        /* \"#utility.yul\":18796:18810   */\n      swap1\n      pop\n        /* \"#utility.yul\":18631:18816   */\n      swap3\n      swap2\n      pop\n      pop\n      jump\t// out\n        /* \"#utility.yul\":18822:19052   */\n    tag_347:\n        /* \"#utility.yul\":18962:18996   */\n      0x546865206465706f736974206d757374206265206174206c6561737420313025\n        /* \"#utility.yul\":18958:18959   */\n      0x00\n        /* \"#utility.yul\":18950:18956   */\n      dup3\n        /* \"#utility.yul\":18946:18960   */\n      add\n        /* \"#utility.yul\":18939:18997   */\n      mstore\n        /* \"#utility.yul\":19031:19044   */\n      0x206f662074686520626964000000000000000000000000000000000000000000\n        /* \"#utility.yul\":19026:19028   */\n      0x20\n        /* \"#utility.yul\":19018:19024   */\n      dup3\n        /* \"#utility.yul\":19014:19029   */\n      add\n        /* \"#utility.yul\":19007:19045   */\n      mstore\n        /* \"#utility.yul\":18822:19052   */\n      pop\n      jump\t// out\n        /* \"#utility.yul\":19058:19424   */\n    tag_348:\n        /* \"#utility.yul\":19200:19203   */\n      0x00\n        /* \"#utility.yul\":19221:19288   */\n      tag_512\n        /* \"#utility.yul\":19285:19287   */\n      0x2b\n        /* \"#utility.yul\":19280:19283   */\n      dup4\n        /* \"#utility.yul\":19221:19288   */\n      tag_320\n      jump\t// in\n    tag_512:\n        /* \"#utility.yul\":19214:19288   */\n      swap2\n      pop\n        /* \"#utility.yul\":19297:19390   */\n      tag_513\n        /* \"#utility.yul\":19386:19389   */\n      dup3\n        /* \"#utility.yul\":19297:19390   */\n      tag_347\n      jump\t// in\n    tag_513:\n        /* \"#utility.yul\":19415:19417   */\n      0x40\n        /* \"#utility.yul\":19410:19413   */\n      dup3\n        /* \"#utility.yul\":19406:19418   */\n      add\n        /* \"#utility.yul\":19399:19418   */\n      swap1\n      pop\n        /* \"#utility.yul\":19058:19424   */\n      swap2\n      swap1\n      pop\n      jump\t// out\n        /* \"#utility.yul\":19430:19849   */\n    tag_242:\n        /* \"#utility.yul\":19596:19600   */\n      0x00\n        /* \"#utility.yul\":19634:19636   */\n      0x20\n        /* \"#utility.yul\":19623:19632   */\n      dup3\n        /* \"#utility.yul\":19619:19637   */\n      add\n        /* \"#utility.yul\":19611:19637   */\n      swap1\n      pop\n        /* \"#utility.yul\":19683:19692   */\n      dup2\n        /* \"#utility.yul\":19677:19681   */\n      dup2\n        /* \"#utility.yul\":19673:19693   */\n      sub\n        /* \"#utility.yul\":19669:19670   */\n      0x00\n        /* \"#utility.yul\":19658:19667   */\n      dup4\n        /* \"#utility.yul\":19654:19671   */\n      add\n        /* \"#utility.yul\":19647:19694   */\n      mstore\n        /* \"#utility.yul\":19711:19842   */\n      tag_515\n        /* \"#utility.yul\":19837:19841   */\n      dup2\n        /* \"#utility.yul\":19711:19842   */\n      tag_348\n      jump\t// in\n    tag_515:\n        /* \"#utility.yul\":19703:19842   */\n      swap1\n      pop\n        /* \"#utility.yul\":19430:19849   */\n      swap2\n      swap1\n      pop\n      jump\t// out\n        /* \"#utility.yul\":19855:20019   */\n    tag_349:\n        /* \"#utility.yul\":19995:20011   */\n      0x41756374696f6e20636c6f736564000000000000000000000000000000000000\n        /* \"#utility.yul\":19991:19992   */\n      0x00\n        /* \"#utility.yul\":19983:19989   */\n      dup3\n        /* \"#utility.yul\":19979:19993   */\n      add\n        /* \"#utility.yul\":19972:20012   */\n      mstore\n        /* \"#utility.yul\":19855:20019   */\n      pop\n      jump\t// out\n        /* \"#utility.yul\":20025:20391   */\n    tag_350:\n        /* \"#utility.yul\":20167:20170   */\n      0x00\n        /* \"#utility.yul\":20188:20255   */\n      tag_518\n        /* \"#utility.yul\":20252:20254   */\n      0x0e\n        /* \"#utility.yul\":20247:20250   */\n      dup4\n        /* \"#utility.yul\":20188:20255   */\n      tag_320\n      jump\t// in\n    tag_518:\n        /* \"#utility.yul\":20181:20255   */\n      swap2\n      pop\n        /* \"#utility.yul\":20264:20357   */\n      tag_519\n        /* \"#utility.yul\":20353:20356   */\n      dup3\n        /* \"#utility.yul\":20264:20357   */\n      tag_349\n      jump\t// in\n    tag_519:\n        /* \"#utility.yul\":20382:20384   */\n      0x20\n        /* \"#utility.yul\":20377:20380   */\n      dup3\n        /* \"#utility.yul\":20373:20385   */\n      add\n        /* \"#utility.yul\":20366:20385   */\n      swap1\n      pop\n        /* \"#utility.yul\":20025:20391   */\n      swap2\n      swap1\n      pop\n      jump\t// out\n        /* \"#utility.yul\":20397:20816   */\n    tag_258:\n        /* \"#utility.yul\":20563:20567   */\n      0x00\n        /* \"#utility.yul\":20601:20603   */\n      0x20\n        /* \"#utility.yul\":20590:20599   */\n      dup3\n        /* \"#utility.yul\":20586:20604   */\n      add\n        /* \"#utility.yul\":20578:20604   */\n      swap1\n      pop\n        /* \"#utility.yul\":20650:20659   */\n      dup2\n        /* \"#utility.yul\":20644:20648   */\n      dup2\n        /* \"#utility.yul\":20640:20660   */\n      sub\n        /* \"#utility.yul\":20636:20637   */\n      0x00\n        /* \"#utility.yul\":20625:20634   */\n      dup4\n        /* \"#utility.yul\":20621:20638   */\n      add\n        /* \"#utility.yul\":20614:20661   */\n      mstore\n        /* \"#utility.yul\":20678:20809   */\n      tag_521\n        /* \"#utility.yul\":20804:20808   */\n      dup2\n        /* \"#utility.yul\":20678:20809   */\n      tag_350\n      jump\t// in\n    tag_521:\n        /* \"#utility.yul\":20670:20809   */\n      swap1\n      pop\n        /* \"#utility.yul\":20397:20816   */\n      swap2\n      swap1\n      pop\n      jump\t// out\n        /* \"#utility.yul\":20822:21045   */\n    tag_351:\n        /* \"#utility.yul\":20962:20996   */\n      0x5468652061756374696f6e2063616e6e6f7420626520636c6f73656420656172\n        /* \"#utility.yul\":20958:20959   */\n      0x00\n        /* \"#utility.yul\":20950:20956   */\n      dup3\n        /* \"#utility.yul\":20946:20960   */\n      add\n        /* \"#utility.yul\":20939:20997   */\n      mstore\n        /* \"#utility.yul\":21031:21037   */\n      0x6c69657200000000000000000000000000000000000000000000000000000000\n        /* \"#utility.yul\":21026:21028   */\n      0x20\n        /* \"#utility.yul\":21018:21024   */\n      dup3\n        /* \"#utility.yul\":21014:21029   */\n      add\n        /* \"#utility.yul\":21007:21038   */\n      mstore\n        /* \"#utility.yul\":20822:21045   */\n      pop\n      jump\t// out\n        /* \"#utility.yul\":21051:21417   */\n    tag_352:\n        /* \"#utility.yul\":21193:21196   */\n      0x00\n        /* \"#utility.yul\":21214:21281   */\n      tag_524\n        /* \"#utility.yul\":21278:21280   */\n      0x24\n        /* \"#utility.yul\":21273:21276   */\n      dup4\n        /* \"#utility.yul\":21214:21281   */\n      tag_320\n      jump\t// in\n    tag_524:\n        /* \"#utility.yul\":21207:21281   */\n      swap2\n      pop\n        /* \"#utility.yul\":21290:21383   */\n      tag_525\n        /* \"#utility.yul\":21379:21382   */\n      dup3\n        /* \"#utility.yul\":21290:21383   */\n      tag_351\n      jump\t// in\n    tag_525:\n        /* \"#utility.yul\":21408:21410   */\n      0x40\n        /* \"#utility.yul\":21403:21406   */\n      dup3\n        /* \"#utility.yul\":21399:21411   */\n      add\n        /* \"#utility.yul\":21392:21411   */\n      swap1\n      pop\n        /* \"#utility.yul\":21051:21417   */\n      swap2\n      swap1\n      pop\n      jump\t// out\n        /* \"#utility.yul\":21423:21842   */\n    tag_262:\n        /* \"#utility.yul\":21589:21593   */\n      0x00\n        /* \"#utility.yul\":21627:21629   */\n      0x20\n        /* \"#utility.yul\":21616:21625   */\n      dup3\n        /* \"#utility.yul\":21612:21630   */\n      add\n        /* \"#utility.yul\":21604:21630   */\n      swap1\n      pop\n        /* \"#utility.yul\":21676:21685   */\n      dup2\n        /* \"#utility.yul\":21670:21674   */\n      dup2\n        /* \"#utility.yul\":21666:21686   */\n      sub\n        /* \"#utility.yul\":21662:21663   */\n      0x00\n        /* \"#utility.yul\":21651:21660   */\n      dup4\n        /* \"#utility.yul\":21647:21664   */\n      add\n        /* \"#utility.yul\":21640:21687   */\n      mstore\n        /* \"#utility.yul\":21704:21835   */\n      tag_527\n        /* \"#utility.yul\":21830:21834   */\n      dup2\n        /* \"#utility.yul\":21704:21835   */\n      tag_352\n      jump\t// in\n    tag_527:\n        /* \"#utility.yul\":21696:21835   */\n      swap1\n      pop\n        /* \"#utility.yul\":21423:21842   */\n      swap2\n      swap1\n      pop\n      jump\t// out\n        /* \"#utility.yul\":21848:22180   */\n    tag_271:\n        /* \"#utility.yul\":21969:21973   */\n      0x00\n        /* \"#utility.yul\":22007:22009   */\n      0x40\n        /* \"#utility.yul\":21996:22005   */\n      dup3\n        /* \"#utility.yul\":21992:22010   */\n      add\n        /* \"#utility.yul\":21984:22010   */\n      swap1\n      pop\n        /* \"#utility.yul\":22020:22091   */\n      tag_529\n        /* \"#utility.yul\":22088:22089   */\n      0x00\n        /* \"#utility.yul\":22077:22086   */\n      dup4\n        /* \"#utility.yul\":22073:22090   */\n      add\n        /* \"#utility.yul\":22064:22070   */\n      dup6\n        /* \"#utility.yul\":22020:22091   */\n      tag_310\n      jump\t// in\n    tag_529:\n        /* \"#utility.yul\":22101:22173   */\n      tag_530\n        /* \"#utility.yul\":22169:22171   */\n      0x20\n        /* \"#utility.yul\":22158:22167   */\n      dup4\n        /* \"#utility.yul\":22154:22172   */\n      add\n        /* \"#utility.yul\":22145:22151   */\n      dup5\n        /* \"#utility.yul\":22101:22173   */\n      tag_310\n      jump\t// in\n    tag_530:\n        /* \"#utility.yul\":21848:22180   */\n      swap4\n      swap3\n      pop\n      pop\n      pop\n      jump\t// out\n        /* \"#utility.yul\":22186:22345   */\n    tag_353:\n        /* \"#utility.yul\":22326:22337   */\n      0x4e6f206f66666572730000000000000000000000000000000000000000000000\n        /* \"#utility.yul\":22322:22323   */\n      0x00\n        /* \"#utility.yul\":22314:22320   */\n      dup3\n        /* \"#utility.yul\":22310:22324   */\n      add\n        /* \"#utility.yul\":22303:22338   */\n      mstore\n        /* \"#utility.yul\":22186:22345   */\n      pop\n      jump\t// out\n        /* \"#utility.yul\":22351:22716   */\n    tag_354:\n        /* \"#utility.yul\":22493:22496   */\n      0x00\n        /* \"#utility.yul\":22514:22580   */\n      tag_533\n        /* \"#utility.yul\":22578:22579   */\n      0x09\n        /* \"#utility.yul\":22573:22576   */\n      dup4\n        /* \"#utility.yul\":22514:22580   */\n      tag_320\n      jump\t// in\n    tag_533:\n        /* \"#utility.yul\":22507:22580   */\n      swap2\n      pop\n        /* \"#utility.yul\":22589:22682   */\n      tag_534\n        /* \"#utility.yul\":22678:22681   */\n      dup3\n        /* \"#utility.yul\":22589:22682   */\n      tag_353\n      jump\t// in\n    tag_534:\n        /* \"#utility.yul\":22707:22709   */\n      0x20\n        /* \"#utility.yul\":22702:22705   */\n      dup3\n        /* \"#utility.yul\":22698:22710   */\n      add\n        /* \"#utility.yul\":22691:22710   */\n      swap1\n      pop\n        /* \"#utility.yul\":22351:22716   */\n      swap2\n      swap1\n      pop\n      jump\t// out\n        /* \"#utility.yul\":22722:23141   */\n    tag_275:\n        /* \"#utility.yul\":22888:22892   */\n      0x00\n        /* \"#utility.yul\":22926:22928   */\n      0x20\n        /* \"#utility.yul\":22915:22924   */\n      dup3\n        /* \"#utility.yul\":22911:22929   */\n      add\n        /* \"#utility.yul\":22903:22929   */\n      swap1\n      pop\n        /* \"#utility.yul\":22975:22984   */\n      dup2\n        /* \"#utility.yul\":22969:22973   */\n      dup2\n        /* \"#utility.yul\":22965:22985   */\n      sub\n        /* \"#utility.yul\":22961:22962   */\n      0x00\n        /* \"#utility.yul\":22950:22959   */\n      dup4\n        /* \"#utility.yul\":22946:22963   */\n      add\n        /* \"#utility.yul\":22939:22986   */\n      mstore\n        /* \"#utility.yul\":23003:23134   */\n      tag_536\n        /* \"#utility.yul\":23129:23133   */\n      dup2\n        /* \"#utility.yul\":23003:23134   */\n      tag_354\n      jump\t// in\n    tag_536:\n        /* \"#utility.yul\":22995:23134   */\n      swap1\n      pop\n        /* \"#utility.yul\":22722:23141   */\n      swap2\n      swap1\n      pop\n      jump\t// out\n\n    auxdata: 0xa26469706673582212208aa29a113536a466a044f59b87d849a304be831b0a386f1c890b00eb9e15ecbd64736f6c634300081e0033\n}\n",
				"bytecode": {
					"linkReferences": {},
					"object": "608060405260405161259d38038061259d83398181016040528101906100259190610179565b80341015610068576040517f08c379a000000000000000000000000000000000000000000000000000000000815260040161005f9061025d565b60405180910390fd5b828410801561007657508183105b6100b5576040517f08c379a00000000000000000000000000000000000000000000000000000000081526004016100ac906102c5565b60405180910390fd5b335f5f6101000a81548173ffffffffffffffffffffffffffffffffffffffff021916908373ffffffffffffffffffffffffffffffffffffffff160217905550836001819055508260028190555081600381905550806004819055505f60065f6101000a81548160ff02191690836002811115610134576101336102e3565b5b021790555050505050610310565b5f5ffd5b5f819050919050565b61015881610146565b8114610162575f5ffd5b50565b5f815190506101738161014f565b92915050565b5f5f5f5f6080858703121561019157610190610142565b5b5f61019e87828801610165565b94505060206101af87828801610165565b93505060406101c087828801610165565b92505060606101d187828801610165565b91505092959194509250565b5f82825260208201905092915050565b7f596f75206861766520746f206465706f7369742074686520616d6f756e74206f5f8201527f6620746865206d6178696d756d20706f737369626c6520626964000000000000602082015250565b5f610247603a836101dd565b9150610252826101ed565b604082019050919050565b5f6020820190508181035f8301526102748161023b565b9050919050565b7f496e76616c69642061756374696f6e20646174657300000000000000000000005f82015250565b5f6102af6015836101dd565b91506102ba8261027b565b602082019050919050565b5f6020820190508181035f8301526102dc816102a3565b9050919050565b7f4e487b71000000000000000000000000000000000000000000000000000000005f52602160045260245ffd5b6122808061031d5f395ff3fe608060405260043610610129575f3560e01c80635d7e0b51116100aa578063c1f526041161006e578063c1f5260414610381578063cff29dfd146103ab578063d3124946146103e7578063dfbf53ae14610411578063f77282ab1461043b578063fb4cd8e21461045157610129565b80635d7e0b51146102d157806374b11d8a146102e75780638da5cb5b146103115780639979ef451461033b578063c19d93fb1461035757610129565b80634423c5f1116100f15780634423c5f1146101e95780634cc4f50d146102295780634e9edd1b146102535780634f245ef71461027d5780635a84d52a146102a757610129565b806311d72e471461012d578063235f0e461461014357806328f6a48a1461017f5780632a24f46c146101a9578063362e2565146101d3575b5f5ffd5b348015610138575f5ffd5b5061014161047b565b005b34801561014e575f5ffd5b5061016960048036038101906101649190611716565b610627565b604051610176919061175b565b60405180910390f35b34801561018a575f5ffd5b506101936106c9565b6040516101a0919061178c565b60405180910390f35b3480156101b4575f5ffd5b506101bd6106d5565b6040516101ca919061178c565b60405180910390f35b3480156101de575f5ffd5b506101e76106db565b005b3480156101f4575f5ffd5b5061020f600480360381019061020a91906117cf565b610a90565b60405161022095949392919061181a565b60405180910390f35b348015610234575f5ffd5b5061023d610afc565b60405161024a919061178c565b60405180910390f35b34801561025e575f5ffd5b50610267610b01565b604051610274919061178c565b60405180910390f35b348015610288575f5ffd5b50610291610b07565b60405161029e919061178c565b60405180910390f35b3480156102b2575f5ffd5b506102bb610b0d565b6040516102c8919061178c565b60405180910390f35b3480156102dc575f5ffd5b506102e5610b12565b005b3480156102f2575f5ffd5b506102fb610d68565b604051610308919061178c565b60405180910390f35b34801561031c575f5ffd5b50610325610d6e565b604051610332919061186b565b60405180910390f35b610355600480360381019061035091906117cf565b610d92565b005b348015610362575f5ffd5b5061036b6111ff565b60405161037891906118f7565b60405180910390f35b34801561038c575f5ffd5b50610395611211565b6040516103a2919061178c565b60405180910390f35b3480156103b6575f5ffd5b506103d160048036038101906103cc91906117cf565b611217565b6040516103de919061191f565b60405180910390f35b3480156103f2575f5ffd5b506103fb611252565b604051610408919061178c565b60405180910390f35b34801561041c575f5ffd5b50610425611258565b604051610432919061186b565b60405180910390f35b348015610446575f5ffd5b5061044f61127d565b005b34801561045c575f5ffd5b506104656113dc565b604051610472919061178c565b60405180910390f35b5f5f9054906101000a900473ffffffffffffffffffffffffffffffffffffffff1673ffffffffffffffffffffffffffffffffffffffff163373ffffffffffffffffffffffffffffffffffffffff1614610509576040517f08c379a0000000000000000000000000000000000000000000000000000000008152600401610500906119b8565b60405180910390fd5b60028081111561051c5761051b611884565b5b60065f9054906101000a900460ff16600281111561053d5761053c611884565b5b1461057d576040517f08c379a000000000000000000000000000000000000000000000000000000000815260040161057490611a46565b60405180910390fd5b60035442116105c1576040517f08c379a00000000000000000000000000000000000000000000000000000000081526004016105b890611aae565b60405180910390fd5b5f5f9054906101000a900473ffffffffffffffffffffffffffffffffffffffff1673ffffffffffffffffffffffffffffffffffffffff166108fc4790811502906040515f60405180830381858888f19350505050158015610624573d5f5f3e3d5ffd5b50565b5f5f5f90505b6008805490508110156106bf578273ffffffffffffffffffffffffffffffffffffffff166008828154811061066557610664611acc565b5b905f5260205f20015f9054906101000a900473ffffffffffffffffffffffffffffffffffffffff1673ffffffffffffffffffffffffffffffffffffffff16036106b25760019150506106c4565b808060010191505061062d565b505f90505b919050565b5f600780549050905090565b60025481565b5f5f9054906101000a900473ffffffffffffffffffffffffffffffffffffffff1673ffffffffffffffffffffffffffffffffffffffff163373ffffffffffffffffffffffffffffffffffffffff1614610769576040517f08c379a0000000000000000000000000000000000000000000000000000000008152600401610760906119b8565b60405180910390fd5b6001600281111561077d5761077c611884565b5b60065f9054906101000a900460ff16600281111561079e5761079d611884565b5b146107de576040517f08c379a00000000000000000000000000000000000000000000000000000000081526004016107d590611b43565b60405180910390fd5b5f5f90505b600780549050811015610a635760095f9054906101000a900473ffffffffffffffffffffffffffffffffffffffff1673ffffffffffffffffffffffffffffffffffffffff166007828154811061083c5761083b611acc565b5b905f5260205f2090600502015f015f9054906101000a900473ffffffffffffffffffffffffffffffffffffffff1673ffffffffffffffffffffffffffffffffffffffff16141580156108bb57506007818154811061089d5761089c611acc565b5b905f5260205f2090600502016004015f9054906101000a900460ff16155b15610a56576001600782815481106108d6576108d5611acc565b5b905f5260205f2090600502016004015f6101000a81548160ff0219169083151502179055506007818154811061090f5761090e611acc565b5b905f5260205f2090600502015f015f9054906101000a900473ffffffffffffffffffffffffffffffffffffffff1673ffffffffffffffffffffffffffffffffffffffff166108fc6007838154811061096a57610969611acc565b5b905f5260205f2090600502016002015490811502906040515f60405180830381858888f193505050501580156109a2573d5f5f3e3d5ffd5b50600781815481106109b7576109b6611acc565b5b905f5260205f2090600502015f015f9054906101000a900473ffffffffffffffffffffffffffffffffffffffff1673ffffffffffffffffffffffffffffffffffffffff167fa09244c122a83074363635dc89ce0098166c2f74827960ff64a7c8e6ad1c57a260078381548110610a3057610a2f611acc565b5b905f5260205f20906005020160020154604051610a4d919061178c565b60405180910390a25b80806001019150506107e3565b50600260065f6101000a81548160ff02191690836002811115610a8957610a88611884565b5b0217905550565b60078181548110610a9f575f80fd5b905f5260205f2090600502015f91509050805f015f9054906101000a900473ffffffffffffffffffffffffffffffffffffffff1690806001015490806002015490806003015490806004015f9054906101000a900460ff16905085565b600381565b600b5481565b60015481565b600a81565b5f5f9054906101000a900473ffffffffffffffffffffffffffffffffffffffff1673ffffffffffffffffffffffffffffffffffffffff163373ffffffffffffffffffffffffffffffffffffffff1614610ba0576040517f08c379a0000000000000000000000000000000000000000000000000000000008152600401610b97906119b8565b60405180910390fd5b600280811115610bb357610bb2611884565b5b60065f9054906101000a900460ff166002811115610bd457610bd3611884565b5b14610c14576040517f08c379a0000000000000000000000000000000000000000000000000000000008152600401610c0b90611a46565b60405180910390fd5b6003544210610c58576040517f08c379a0000000000000000000000000000000000000000000000000000000008152600401610c4f90611bab565b60405180910390fd5b60095f9054906101000a900473ffffffffffffffffffffffffffffffffffffffff1673ffffffffffffffffffffffffffffffffffffffff166108fc60095f9054906101000a900473ffffffffffffffffffffffffffffffffffffffff1673ffffffffffffffffffffffffffffffffffffffff1631600a54610cd99190611bf6565b90811502906040515f60405180830381858888f19350505050158015610d01573d5f5f3e3d5ffd5b505f5f9054906101000a900473ffffffffffffffffffffffffffffffffffffffff1673ffffffffffffffffffffffffffffffffffffffff166108fc4790811502906040515f60405180830381858888f19350505050158015610d65573d5f5f3e3d5ffd5b50565b60045481565b5f5f9054906101000a900473ffffffffffffffffffffffffffffffffffffffff1681565b5f6002811115610da557610da4611884565b5b60065f9054906101000a900460ff166002811115610dc657610dc5611884565b5b14610e06576040517f08c379a0000000000000000000000000000000000000000000000000000000008152600401610dfd90611c73565b60405180910390fd5b6001544210158015610e1a57506002544211155b610e59576040517f08c379a0000000000000000000000000000000000000000000000000000000008152600401610e5090611d01565b60405180910390fd5b5f8111610e9b576040517f08c379a0000000000000000000000000000000000000000000000000000000008152600401610e9290611d69565b60405180910390fd5b600454811115610ee0576040517f08c379a0000000000000000000000000000000000000000000000000000000008152600401610ed790611df7565b60405180910390fd5b610ee933610627565b15610f29576040517f08c379a0000000000000000000000000000000000000000000000000000000008152600401610f2090611e5f565b60405180910390fd5b600360055410610f6e576040517f08c379a0000000000000000000000000000000000000000000000000000000008152600401610f6590611eed565b60405180910390fd5b5f5f9054906101000a900473ffffffffffffffffffffffffffffffffffffffff1673ffffffffffffffffffffffffffffffffffffffff163373ffffffffffffffffffffffffffffffffffffffff1603610ffc576040517f08c379a0000000000000000000000000000000000000000000000000000000008152600401610ff390611f7b565b60405180910390fd5b6064600a8261100b9190611f99565b6110159190612007565b3414611056576040517f08c379a000000000000000000000000000000000000000000000000000000000815260040161104d906120a7565b60405180910390fd5b600160055f8282546110689190611bf6565b9250508190555060076040518060a001604052803373ffffffffffffffffffffffffffffffffffffffff1681526020018381526020014281526020013481526020015f1515815250908060018154018082558091505060019003905f5260205f2090600502015f909190919091505f820151815f015f6101000a81548173ffffffffffffffffffffffffffffffffffffffff021916908373ffffffffffffffffffffffffffffffffffffffff1602179055506020820151816001015560408201518160020155606082015181600301556080820151816004015f6101000a81548160ff0219169083151502179055505050600833908060018154018082558091505060019003905f5260205f20015f9091909190916101000a81548173ffffffffffffffffffffffffffffffffffffffff021916908373ffffffffffffffffffffffffffffffffffffffff1602179055503373ffffffffffffffffffffffffffffffffffffffff167fe677a6b9a16a696674f50d2c98a1ce8c5cb51d6b48a0223412c512bbc93664d560405160405180910390a250565b60065f9054906101000a900460ff1681565b600a5481565b60088181548110611226575f80fd5b905f5260205f20015f915054906101000a900473ffffffffffffffffffffffffffffffffffffffff1681565b60035481565b60095f9054906101000a900473ffffffffffffffffffffffffffffffffffffffff1681565b5f5f9054906101000a900473ffffffffffffffffffffffffffffffffffffffff1673ffffffffffffffffffffffffffffffffffffffff163373ffffffffffffffffffffffffffffffffffffffff161461130b576040517f08c379a0000000000000000000000000000000000000000000000000000000008152600401611302906119b8565b60405180910390fd5b5f600281111561131e5761131d611884565b5b60065f9054906101000a900460ff16600281111561133f5761133e611884565b5b1461137f576040517f08c379a00000000000000000000000000000000000000000000000000000000081526004016113769061210f565b60405180910390fd5b600254421015806113935750600360055410155b6113d2576040517f08c379a00000000000000000000000000000000000000000000000000000000081526004016113c99061219d565b60405180910390fd5b6113da6113e2565b565b60055481565b600160065f6101000a81548160ff0219169083600281111561140757611406611884565b5b02179055506114146114d7565b60095f600a5f84919050558391906101000a81548173ffffffffffffffffffffffffffffffffffffffff021916908373ffffffffffffffffffffffffffffffffffffffff160217905550505060095f9054906101000a900473ffffffffffffffffffffffffffffffffffffffff1673ffffffffffffffffffffffffffffffffffffffff167ffd8f22870817ee413fcb464d7ffd8415666c2ab6285fe8d409dc1dc21fffb4f6600b54600a546040516114cd9291906121bb565b60405180910390a2565b5f5f5f60078054905011611520576040517f08c379a00000000000000000000000000000000000000000000000000000000081526004016115179061222c565b60405180910390fd5b5f60045490505f60045490505f5f7fffffffffffffffffffffffffffffffffffffffffffffffffffffffffffffffff90505f5f90505b600780549050811015611695575f6007828154811061157857611577611acc565b5b905f5260205f2090600502016001015490505f6007838154811061159f5761159e611acc565b5b905f5260205f2090600502016003015490508682101561160b57869550819650600783815481106115d3576115d2611acc565b5b905f5260205f2090600502015f015f9054906101000a900473ffffffffffffffffffffffffffffffffffffffff169450809350611686565b868214801561161957508381105b1561166d578695506007838154811061163557611634611acc565b5b905f5260205f2090600502015f015f9054906101000a900473ffffffffffffffffffffffffffffffffffffffff169450809350611685565b858210801561167b57508682115b15611684578195505b5b5b50508080600101915050611556565b50816001600780549050146116aa57836116ac565b845b95509550505050509091565b5f5ffd5b5f73ffffffffffffffffffffffffffffffffffffffff82169050919050565b5f6116e5826116bc565b9050919050565b6116f5816116db565b81146116ff575f5ffd5b50565b5f81359050611710816116ec565b92915050565b5f6020828403121561172b5761172a6116b8565b5b5f61173884828501611702565b91505092915050565b5f8115159050919050565b61175581611741565b82525050565b5f60208201905061176e5f83018461174c565b92915050565b5f819050919050565b61178681611774565b82525050565b5f60208201905061179f5f83018461177d565b92915050565b6117ae81611774565b81146117b8575f5ffd5b50565b5f813590506117c9816117a5565b92915050565b5f602082840312156117e4576117e36116b8565b5b5f6117f1848285016117bb565b91505092915050565b5f611804826116bc565b9050919050565b611814816117fa565b82525050565b5f60a08201905061182d5f83018861180b565b61183a602083018761177d565b611847604083018661177d565b611854606083018561177d565b611861608083018461174c565b9695505050505050565b5f60208201905061187e5f83018461180b565b92915050565b7f4e487b71000000000000000000000000000000000000000000000000000000005f52602160045260245ffd5b600381106118c2576118c1611884565b5b50565b5f8190506118d2826118b1565b919050565b5f6118e1826118c5565b9050919050565b6118f1816118d7565b82525050565b5f60208201905061190a5f8301846118e8565b92915050565b611919816116db565b82525050565b5f6020820190506119325f830184611910565b92915050565b5f82825260208201905092915050565b7f4f6e6c7920746865206f776e65722063616e2063616c6c20746869732066756e5f8201527f6374696f6e000000000000000000000000000000000000000000000000000000602082015250565b5f6119a2602583611938565b91506119ad82611948565b604082019050919050565b5f6020820190508181035f8301526119cf81611996565b9050919050565b7f41756374696f6e207374696c6c206f70656e206f72206469646e2774207061695f8201527f64206261636b20746865206465706f7369747320796574000000000000000000602082015250565b5f611a30603783611938565b9150611a3b826119d6565b604082019050919050565b5f6020820190508181035f830152611a5d81611a24565b9050919050565b7f5468652064656c69766572792063616e207374696c6c206265206d61646500005f82015250565b5f611a98601e83611938565b9150611aa382611a64565b602082019050919050565b5f6020820190508181035f830152611ac581611a8c565b9050919050565b7f4e487b71000000000000000000000000000000000000000000000000000000005f52603260045260245ffd5b7f41756374696f6e207374696c6c206f70656e00000000000000000000000000005f82015250565b5f611b2d601283611938565b9150611b3882611af9565b602082019050919050565b5f6020820190508181035f830152611b5a81611b21565b9050919050565b7f5468652064656c6976657279206973206f7665726475650000000000000000005f82015250565b5f611b95601783611938565b9150611ba082611b61565b602082019050919050565b5f6020820190508181035f830152611bc281611b89565b9050919050565b7f4e487b71000000000000000000000000000000000000000000000000000000005f52601160045260245ffd5b5f611c0082611774565b9150611c0b83611774565b9250828201905080821115611c2357611c22611bc9565b5b92915050565b7f41756374696f6e206e6f742061637469766500000000000000000000000000005f82015250565b5f611c5d601283611938565b9150611c6882611c29565b602082019050919050565b5f6020820190508181035f830152611c8a81611c51565b9050919050565b7f4f757473696465206f66207468652061756374696f6e27732074696d652072615f8201527f6e67650000000000000000000000000000000000000000000000000000000000602082015250565b5f611ceb602383611938565b9150611cf682611c91565b604082019050919050565b5f6020820190508181035f830152611d1881611cdf565b9050919050565b7f54686520626964206d757374206265203e2030000000000000000000000000005f82015250565b5f611d53601383611938565b9150611d5e82611d1f565b602082019050919050565b5f6020820190508181035f830152611d8081611d47565b9050919050565b7f5468652062696420697320686967686572207468616e20746865206d6178696d5f8201527f756d000000000000000000000000000000000000000000000000000000000000602082015250565b5f611de1602283611938565b9150611dec82611d87565b604082019050919050565b5f6020820190508181035f830152611e0e81611dd5565b9050919050565b7f596f75206861766520616c7265616479207061727469636970617465640000005f82015250565b5f611e49601d83611938565b9150611e5482611e15565b602082019050919050565b5f6020820190508181035f830152611e7681611e3d565b9050919050565b7f5468652061756374696f6e20686173207265616368656420746865206d6178695f8201527f6d756d206e756d626572206f66207061727469636970616e7473000000000000602082015250565b5f611ed7603a83611938565b9150611ee282611e7d565b604082019050919050565b5f6020820190508181035f830152611f0481611ecb565b9050919050565b7f596f752063616e6e6f7420706c616365206120626964206f6e20796f7572206f5f8201527f776e2061756374696f6e00000000000000000000000000000000000000000000602082015250565b5f611f65602a83611938565b9150611f7082611f0b565b604082019050919050565b5f6020820190508181035f830152611f9281611f59565b9050919050565b5f611fa382611774565b9150611fae83611774565b9250828202611fbc81611774565b91508282048414831517611fd357611fd2611bc9565b5b5092915050565b7f4e487b71000000000000000000000000000000000000000000000000000000005f52601260045260245ffd5b5f61201182611774565b915061201c83611774565b92508261202c5761202b611fda565b5b828204905092915050565b7f546865206465706f736974206d757374206265206174206c65617374203130255f8201527f206f662074686520626964000000000000000000000000000000000000000000602082015250565b5f612091602b83611938565b915061209c82612037565b604082019050919050565b5f6020820190508181035f8301526120be81612085565b9050919050565b7f41756374696f6e20636c6f7365640000000000000000000000000000000000005f82015250565b5f6120f9600e83611938565b9150612104826120c5565b602082019050919050565b5f6020820190508181035f830152612126816120ed565b9050919050565b7f5468652061756374696f6e2063616e6e6f7420626520636c6f736564206561725f8201527f6c69657200000000000000000000000000000000000000000000000000000000602082015250565b5f612187602483611938565b91506121928261212d565b604082019050919050565b5f6020820190508181035f8301526121b48161217b565b9050919050565b5f6040820190506121ce5f83018561177d565b6121db602083018461177d565b9392505050565b7f4e6f206f666665727300000000000000000000000000000000000000000000005f82015250565b5f612216600983611938565b9150612221826121e2565b602082019050919050565b5f6020820190508181035f8301526122438161220a565b905091905056fea26469706673582212208aa29a113536a466a044f59b87d849a304be831b0a386f1c890b00eb9e15ecbd64736f6c634300081e0033",
					"opcodes": "PUSH1 0x80 PUSH1 0x40 MSTORE PUSH1 0x40 MLOAD PUSH2 0x259D CODESIZE SUB DUP1 PUSH2 0x259D DUP4 CODECOPY DUP2 DUP2 ADD PUSH1 0x40 MSTORE DUP2 ADD SWAP1 PUSH2 0x25 SWAP2 SWAP1 PUSH2 0x179 JUMP JUMPDEST DUP1 CALLVALUE LT ISZERO PUSH2 0x68 JUMPI PUSH1 0x40 MLOAD PUSH32 0x8C379A000000000000000000000000000000000000000000000000000000000 DUP2 MSTORE PUSH1 0x4 ADD PUSH2 0x5F SWAP1 PUSH2 0x25D JUMP JUMPDEST PUSH1 0x40 MLOAD DUP1 SWAP2 SUB SWAP1 REVERT JUMPDEST DUP3 DUP5 LT DUP1 ISZERO PUSH2 0x76 JUMPI POP DUP2 DUP4 LT JUMPDEST PUSH2 0xB5 JUMPI PUSH1 0x40 MLOAD PUSH32 0x8C379A000000000000000000000000000000000000000000000000000000000 DUP2 MSTORE PUSH1 0x4 ADD PUSH2 0xAC SWAP1 PUSH2 0x2C5 JUMP JUMPDEST PUSH1 0x40 MLOAD DUP1 SWAP2 SUB SWAP1 REVERT JUMPDEST CALLER PUSH0 PUSH0 PUSH2 0x100 EXP DUP2 SLOAD DUP2 PUSH20 0xFFFFFFFFFFFFFFFFFFFFFFFFFFFFFFFFFFFFFFFF MUL NOT AND SWAP1 DUP4 PUSH20 0xFFFFFFFFFFFFFFFFFFFFFFFFFFFFFFFFFFFFFFFF AND MUL OR SWAP1 SSTORE POP DUP4 PUSH1 0x1 DUP2 SWAP1 SSTORE POP DUP3 PUSH1 0x2 DUP2 SWAP1 SSTORE POP DUP2 PUSH1 0x3 DUP2 SWAP1 SSTORE POP DUP1 PUSH1 0x4 DUP2 SWAP1 SSTORE POP PUSH0 PUSH1 0x6 PUSH0 PUSH2 0x100 EXP DUP2 SLOAD DUP2 PUSH1 0xFF MUL NOT AND SWAP1 DUP4 PUSH1 0x2 DUP2 GT ISZERO PUSH2 0x134 JUMPI PUSH2 0x133 PUSH2 0x2E3 JUMP JUMPDEST JUMPDEST MUL OR SWAP1 SSTORE POP POP POP POP POP PUSH2 0x310 JUMP JUMPDEST PUSH0 PUSH0 REVERT JUMPDEST PUSH0 DUP2 SWAP1 POP SWAP2 SWAP1 POP JUMP JUMPDEST PUSH2 0x158 DUP2 PUSH2 0x146 JUMP JUMPDEST DUP2 EQ PUSH2 0x162 JUMPI PUSH0 PUSH0 REVERT JUMPDEST POP JUMP JUMPDEST PUSH0 DUP2 MLOAD SWAP1 POP PUSH2 0x173 DUP2 PUSH2 0x14F JUMP JUMPDEST SWAP3 SWAP2 POP POP JUMP JUMPDEST PUSH0 PUSH0 PUSH0 PUSH0 PUSH1 0x80 DUP6 DUP8 SUB SLT ISZERO PUSH2 0x191 JUMPI PUSH2 0x190 PUSH2 0x142 JUMP JUMPDEST JUMPDEST PUSH0 PUSH2 0x19E DUP8 DUP3 DUP9 ADD PUSH2 0x165 JUMP JUMPDEST SWAP5 POP POP PUSH1 0x20 PUSH2 0x1AF DUP8 DUP3 DUP9 ADD PUSH2 0x165 JUMP JUMPDEST SWAP4 POP POP PUSH1 0x40 PUSH2 0x1C0 DUP8 DUP3 DUP9 ADD PUSH2 0x165 JUMP JUMPDEST SWAP3 POP POP PUSH1 0x60 PUSH2 0x1D1 DUP8 DUP3 DUP9 ADD PUSH2 0x165 JUMP JUMPDEST SWAP2 POP POP SWAP3 SWAP6 SWAP2 SWAP5 POP SWAP3 POP JUMP JUMPDEST PUSH0 DUP3 DUP3 MSTORE PUSH1 0x20 DUP3 ADD SWAP1 POP SWAP3 SWAP2 POP POP JUMP JUMPDEST PUSH32 0x596F75206861766520746F206465706F7369742074686520616D6F756E74206F PUSH0 DUP3 ADD MSTORE PUSH32 0x6620746865206D6178696D756D20706F737369626C6520626964000000000000 PUSH1 0x20 DUP3 ADD MSTORE POP JUMP JUMPDEST PUSH0 PUSH2 0x247 PUSH1 0x3A DUP4 PUSH2 0x1DD JUMP JUMPDEST SWAP2 POP PUSH2 0x252 DUP3 PUSH2 0x1ED JUMP JUMPDEST PUSH1 0x40 DUP3 ADD SWAP1 POP SWAP2 SWAP1 POP JUMP JUMPDEST PUSH0 PUSH1 0x20 DUP3 ADD SWAP1 POP DUP2 DUP2 SUB PUSH0 DUP4 ADD MSTORE PUSH2 0x274 DUP2 PUSH2 0x23B JUMP JUMPDEST SWAP1 POP SWAP2 SWAP1 POP JUMP JUMPDEST PUSH32 0x496E76616C69642061756374696F6E2064617465730000000000000000000000 PUSH0 DUP3 ADD MSTORE POP JUMP JUMPDEST PUSH0 PUSH2 0x2AF PUSH1 0x15 DUP4 PUSH2 0x1DD JUMP JUMPDEST SWAP2 POP PUSH2 0x2BA DUP3 PUSH2 0x27B JUMP JUMPDEST PUSH1 0x20 DUP3 ADD SWAP1 POP SWAP2 SWAP1 POP JUMP JUMPDEST PUSH0 PUSH1 0x20 DUP3 ADD SWAP1 POP DUP2 DUP2 SUB PUSH0 DUP4 ADD MSTORE PUSH2 0x2DC DUP2 PUSH2 0x2A3 JUMP JUMPDEST SWAP1 POP SWAP2 SWAP1 POP JUMP JUMPDEST PUSH32 0x4E487B7100000000000000000000000000000000000000000000000000000000 PUSH0 MSTORE PUSH1 0x21 PUSH1 0x4 MSTORE PUSH1 0x24 PUSH0 REVERT JUMPDEST PUSH2 0x2280 DUP1 PUSH2 0x31D PUSH0 CODECOPY PUSH0 RETURN INVALID PUSH1 0x80 PUSH1 0x40 MSTORE PUSH1 0x4 CALLDATASIZE LT PUSH2 0x129 JUMPI PUSH0 CALLDATALOAD PUSH1 0xE0 SHR DUP1 PUSH4 0x5D7E0B51 GT PUSH2 0xAA JUMPI DUP1 PUSH4 0xC1F52604 GT PUSH2 0x6E JUMPI DUP1 PUSH4 0xC1F52604 EQ PUSH2 0x381 JUMPI DUP1 PUSH4 0xCFF29DFD EQ PUSH2 0x3AB JUMPI DUP1 PUSH4 0xD3124946 EQ PUSH2 0x3E7 JUMPI DUP1 PUSH4 0xDFBF53AE EQ PUSH2 0x411 JUMPI DUP1 PUSH4 0xF77282AB EQ PUSH2 0x43B JUMPI DUP1 PUSH4 0xFB4CD8E2 EQ PUSH2 0x451 JUMPI PUSH2 0x129 JUMP JUMPDEST DUP1 PUSH4 0x5D7E0B51 EQ PUSH2 0x2D1 JUMPI DUP1 PUSH4 0x74B11D8A EQ PUSH2 0x2E7 JUMPI DUP1 PUSH4 0x8DA5CB5B EQ PUSH2 0x311 JUMPI DUP1 PUSH4 0x9979EF45 EQ PUSH2 0x33B JUMPI DUP1 PUSH4 0xC19D93FB EQ PUSH2 0x357 JUMPI PUSH2 0x129 JUMP JUMPDEST DUP1 PUSH4 0x4423C5F1 GT PUSH2 0xF1 JUMPI DUP1 PUSH4 0x4423C5F1 EQ PUSH2 0x1E9 JUMPI DUP1 PUSH4 0x4CC4F50D EQ PUSH2 0x229 JUMPI DUP1 PUSH4 0x4E9EDD1B EQ PUSH2 0x253 JUMPI DUP1 PUSH4 0x4F245EF7 EQ PUSH2 0x27D JUMPI DUP1 PUSH4 0x5A84D52A EQ PUSH2 0x2A7 JUMPI PUSH2 0x129 JUMP JUMPDEST DUP1 PUSH4 0x11D72E47 EQ PUSH2 0x12D JUMPI DUP1 PUSH4 0x235F0E46 EQ PUSH2 0x143 JUMPI DUP1 PUSH4 0x28F6A48A EQ PUSH2 0x17F JUMPI DUP1 PUSH4 0x2A24F46C EQ PUSH2 0x1A9 JUMPI DUP1 PUSH4 0x362E2565 EQ PUSH2 0x1D3 JUMPI JUMPDEST PUSH0 PUSH0 REVERT JUMPDEST CALLVALUE DUP1 ISZERO PUSH2 0x138 JUMPI PUSH0 PUSH0 REVERT JUMPDEST POP PUSH2 0x141 PUSH2 0x47B JUMP JUMPDEST STOP JUMPDEST CALLVALUE DUP1 ISZERO PUSH2 0x14E JUMPI PUSH0 PUSH0 REVERT JUMPDEST POP PUSH2 0x169 PUSH1 0x4 DUP1 CALLDATASIZE SUB DUP2 ADD SWAP1 PUSH2 0x164 SWAP2 SWAP1 PUSH2 0x1716 JUMP JUMPDEST PUSH2 0x627 JUMP JUMPDEST PUSH1 0x40 MLOAD PUSH2 0x176 SWAP2 SWAP1 PUSH2 0x175B JUMP JUMPDEST PUSH1 0x40 MLOAD DUP1 SWAP2 SUB SWAP1 RETURN JUMPDEST CALLVALUE DUP1 ISZERO PUSH2 0x18A JUMPI PUSH0 PUSH0 REVERT JUMPDEST POP PUSH2 0x193 PUSH2 0x6C9 JUMP JUMPDEST PUSH1 0x40 MLOAD PUSH2 0x1A0 SWAP2 SWAP1 PUSH2 0x178C JUMP JUMPDEST PUSH1 0x40 MLOAD DUP1 SWAP2 SUB SWAP1 RETURN JUMPDEST CALLVALUE DUP1 ISZERO PUSH2 0x1B4 JUMPI PUSH0 PUSH0 REVERT JUMPDEST POP PUSH2 0x1BD PUSH2 0x6D5 JUMP JUMPDEST PUSH1 0x40 MLOAD PUSH2 0x1CA SWAP2 SWAP1 PUSH2 0x178C JUMP JUMPDEST PUSH1 0x40 MLOAD DUP1 SWAP2 SUB SWAP1 RETURN JUMPDEST CALLVALUE DUP1 ISZERO PUSH2 0x1DE JUMPI PUSH0 PUSH0 REVERT JUMPDEST POP PUSH2 0x1E7 PUSH2 0x6DB JUMP JUMPDEST STOP JUMPDEST CALLVALUE DUP1 ISZERO PUSH2 0x1F4 JUMPI PUSH0 PUSH0 REVERT JUMPDEST POP PUSH2 0x20F PUSH1 0x4 DUP1 CALLDATASIZE SUB DUP2 ADD SWAP1 PUSH2 0x20A SWAP2 SWAP1 PUSH2 0x17CF JUMP JUMPDEST PUSH2 0xA90 JUMP JUMPDEST PUSH1 0x40 MLOAD PUSH2 0x220 SWAP6 SWAP5 SWAP4 SWAP3 SWAP2 SWAP1 PUSH2 0x181A JUMP JUMPDEST PUSH1 0x40 MLOAD DUP1 SWAP2 SUB SWAP1 RETURN JUMPDEST CALLVALUE DUP1 ISZERO PUSH2 0x234 JUMPI PUSH0 PUSH0 REVERT JUMPDEST POP PUSH2 0x23D PUSH2 0xAFC JUMP JUMPDEST PUSH1 0x40 MLOAD PUSH2 0x24A SWAP2 SWAP1 PUSH2 0x178C JUMP JUMPDEST PUSH1 0x40 MLOAD DUP1 SWAP2 SUB SWAP1 RETURN JUMPDEST CALLVALUE DUP1 ISZERO PUSH2 0x25E JUMPI PUSH0 PUSH0 REVERT JUMPDEST POP PUSH2 0x267 PUSH2 0xB01 JUMP JUMPDEST PUSH1 0x40 MLOAD PUSH2 0x274 SWAP2 SWAP1 PUSH2 0x178C JUMP JUMPDEST PUSH1 0x40 MLOAD DUP1 SWAP2 SUB SWAP1 RETURN JUMPDEST CALLVALUE DUP1 ISZERO PUSH2 0x288 JUMPI PUSH0 PUSH0 REVERT JUMPDEST POP PUSH2 0x291 PUSH2 0xB07 JUMP JUMPDEST PUSH1 0x40 MLOAD PUSH2 0x29E SWAP2 SWAP1 PUSH2 0x178C JUMP JUMPDEST PUSH1 0x40 MLOAD DUP1 SWAP2 SUB SWAP1 RETURN JUMPDEST CALLVALUE DUP1 ISZERO PUSH2 0x2B2 JUMPI PUSH0 PUSH0 REVERT JUMPDEST POP PUSH2 0x2BB PUSH2 0xB0D JUMP JUMPDEST PUSH1 0x40 MLOAD PUSH2 0x2C8 SWAP2 SWAP1 PUSH2 0x178C JUMP JUMPDEST PUSH1 0x40 MLOAD DUP1 SWAP2 SUB SWAP1 RETURN JUMPDEST CALLVALUE DUP1 ISZERO PUSH2 0x2DC JUMPI PUSH0 PUSH0 REVERT JUMPDEST POP PUSH2 0x2E5 PUSH2 0xB12 JUMP JUMPDEST STOP JUMPDEST CALLVALUE DUP1 ISZERO PUSH2 0x2F2 JUMPI PUSH0 PUSH0 REVERT JUMPDEST POP PUSH2 0x2FB PUSH2 0xD68 JUMP JUMPDEST PUSH1 0x40 MLOAD PUSH2 0x308 SWAP2 SWAP1 PUSH2 0x178C JUMP JUMPDEST PUSH1 0x40 MLOAD DUP1 SWAP2 SUB SWAP1 RETURN JUMPDEST CALLVALUE DUP1 ISZERO PUSH2 0x31C JUMPI PUSH0 PUSH0 REVERT JUMPDEST POP PUSH2 0x325 PUSH2 0xD6E JUMP JUMPDEST PUSH1 0x40 MLOAD PUSH2 0x332 SWAP2 SWAP1 PUSH2 0x186B JUMP JUMPDEST PUSH1 0x40 MLOAD DUP1 SWAP2 SUB SWAP1 RETURN JUMPDEST PUSH2 0x355 PUSH1 0x4 DUP1 CALLDATASIZE SUB DUP2 ADD SWAP1 PUSH2 0x350 SWAP2 SWAP1 PUSH2 0x17CF JUMP JUMPDEST PUSH2 0xD92 JUMP JUMPDEST STOP JUMPDEST CALLVALUE DUP1 ISZERO PUSH2 0x362 JUMPI PUSH0 PUSH0 REVERT JUMPDEST POP PUSH2 0x36B PUSH2 0x11FF JUMP JUMPDEST PUSH1 0x40 MLOAD PUSH2 0x378 SWAP2 SWAP1 PUSH2 0x18F7 JUMP JUMPDEST PUSH1 0x40 MLOAD DUP1 SWAP2 SUB SWAP1 RETURN JUMPDEST CALLVALUE DUP1 ISZERO PUSH2 0x38C JUMPI PUSH0 PUSH0 REVERT JUMPDEST POP PUSH2 0x395 PUSH2 0x1211 JUMP JUMPDEST PUSH1 0x40 MLOAD PUSH2 0x3A2 SWAP2 SWAP1 PUSH2 0x178C JUMP JUMPDEST PUSH1 0x40 MLOAD DUP1 SWAP2 SUB SWAP1 RETURN JUMPDEST CALLVALUE DUP1 ISZERO PUSH2 0x3B6 JUMPI PUSH0 PUSH0 REVERT JUMPDEST POP PUSH2 0x3D1 PUSH1 0x4 DUP1 CALLDATASIZE SUB DUP2 ADD SWAP1 PUSH2 0x3CC SWAP2 SWAP1 PUSH2 0x17CF JUMP JUMPDEST PUSH2 0x1217 JUMP JUMPDEST PUSH1 0x40 MLOAD PUSH2 0x3DE SWAP2 SWAP1 PUSH2 0x191F JUMP JUMPDEST PUSH1 0x40 MLOAD DUP1 SWAP2 SUB SWAP1 RETURN JUMPDEST CALLVALUE DUP1 ISZERO PUSH2 0x3F2 JUMPI PUSH0 PUSH0 REVERT JUMPDEST POP PUSH2 0x3FB PUSH2 0x1252 JUMP JUMPDEST PUSH1 0x40 MLOAD PUSH2 0x408 SWAP2 SWAP1 PUSH2 0x178C JUMP JUMPDEST PUSH1 0x40 MLOAD DUP1 SWAP2 SUB SWAP1 RETURN JUMPDEST CALLVALUE DUP1 ISZERO PUSH2 0x41C JUMPI PUSH0 PUSH0 REVERT JUMPDEST POP PUSH2 0x425 PUSH2 0x1258 JUMP JUMPDEST PUSH1 0x40 MLOAD PUSH2 0x432 SWAP2 SWAP1 PUSH2 0x186B JUMP JUMPDEST PUSH1 0x40 MLOAD DUP1 SWAP2 SUB SWAP1 RETURN JUMPDEST CALLVALUE DUP1 ISZERO PUSH2 0x446 JUMPI PUSH0 PUSH0 REVERT JUMPDEST POP PUSH2 0x44F PUSH2 0x127D JUMP JUMPDEST STOP JUMPDEST CALLVALUE DUP1 ISZERO PUSH2 0x45C JUMPI PUSH0 PUSH0 REVERT JUMPDEST POP PUSH2 0x465 PUSH2 0x13DC JUMP JUMPDEST PUSH1 0x40 MLOAD PUSH2 0x472 SWAP2 SWAP1 PUSH2 0x178C JUMP JUMPDEST PUSH1 0x40 MLOAD DUP1 SWAP2 SUB SWAP1 RETURN JUMPDEST PUSH0 PUSH0 SWAP1 SLOAD SWAP1 PUSH2 0x100 EXP SWAP1 DIV PUSH20 0xFFFFFFFFFFFFFFFFFFFFFFFFFFFFFFFFFFFFFFFF AND PUSH20 0xFFFFFFFFFFFFFFFFFFFFFFFFFFFFFFFFFFFFFFFF AND CALLER PUSH20 0xFFFFFFFFFFFFFFFFFFFFFFFFFFFFFFFFFFFFFFFF AND EQ PUSH2 0x509 JUMPI PUSH1 0x40 MLOAD PUSH32 0x8C379A000000000000000000000000000000000000000000000000000000000 DUP2 MSTORE PUSH1 0x4 ADD PUSH2 0x500 SWAP1 PUSH2 0x19B8 JUMP JUMPDEST PUSH1 0x40 MLOAD DUP1 SWAP2 SUB SWAP1 REVERT JUMPDEST PUSH1 0x2 DUP1 DUP2 GT ISZERO PUSH2 0x51C JUMPI PUSH2 0x51B PUSH2 0x1884 JUMP JUMPDEST JUMPDEST PUSH1 0x6 PUSH0 SWAP1 SLOAD SWAP1 PUSH2 0x100 EXP SWAP1 DIV PUSH1 0xFF AND PUSH1 0x2 DUP2 GT ISZERO PUSH2 0x53D JUMPI PUSH2 0x53C PUSH2 0x1884 JUMP JUMPDEST JUMPDEST EQ PUSH2 0x57D JUMPI PUSH1 0x40 MLOAD PUSH32 0x8C379A000000000000000000000000000000000000000000000000000000000 DUP2 MSTORE PUSH1 0x4 ADD PUSH2 0x574 SWAP1 PUSH2 0x1A46 JUMP JUMPDEST PUSH1 0x40 MLOAD DUP1 SWAP2 SUB SWAP1 REVERT JUMPDEST PUSH1 0x3 SLOAD TIMESTAMP GT PUSH2 0x5C1 JUMPI PUSH1 0x40 MLOAD PUSH32 0x8C379A000000000000000000000000000000000000000000000000000000000 DUP2 MSTORE PUSH1 0x4 ADD PUSH2 0x5B8 SWAP1 PUSH2 0x1AAE JUMP JUMPDEST PUSH1 0x40 MLOAD DUP1 SWAP2 SUB SWAP1 REVERT JUMPDEST PUSH0 PUSH0 SWAP1 SLOAD SWAP1 PUSH2 0x100 EXP SWAP1 DIV PUSH20 0xFFFFFFFFFFFFFFFFFFFFFFFFFFFFFFFFFFFFFFFF AND PUSH20 0xFFFFFFFFFFFFFFFFFFFFFFFFFFFFFFFFFFFFFFFF AND PUSH2 0x8FC SELFBALANCE SWAP1 DUP2 ISZERO MUL SWAP1 PUSH1 0x40 MLOAD PUSH0 PUSH1 0x40 MLOAD DUP1 DUP4 SUB DUP2 DUP6 DUP9 DUP9 CALL SWAP4 POP POP POP POP ISZERO DUP1 ISZERO PUSH2 0x624 JUMPI RETURNDATASIZE PUSH0 PUSH0 RETURNDATACOPY RETURNDATASIZE PUSH0 REVERT JUMPDEST POP JUMP JUMPDEST PUSH0 PUSH0 PUSH0 SWAP1 POP JUMPDEST PUSH1 0x8 DUP1 SLOAD SWAP1 POP DUP2 LT ISZERO PUSH2 0x6BF JUMPI DUP3 PUSH20 0xFFFFFFFFFFFFFFFFFFFFFFFFFFFFFFFFFFFFFFFF AND PUSH1 0x8 DUP3 DUP2 SLOAD DUP2 LT PUSH2 0x665 JUMPI PUSH2 0x664 PUSH2 0x1ACC JUMP JUMPDEST JUMPDEST SWAP1 PUSH0 MSTORE PUSH1 0x20 PUSH0 KECCAK256 ADD PUSH0 SWAP1 SLOAD SWAP1 PUSH2 0x100 EXP SWAP1 DIV PUSH20 0xFFFFFFFFFFFFFFFFFFFFFFFFFFFFFFFFFFFFFFFF AND PUSH20 0xFFFFFFFFFFFFFFFFFFFFFFFFFFFFFFFFFFFFFFFF AND SUB PUSH2 0x6B2 JUMPI PUSH1 0x1 SWAP2 POP POP PUSH2 0x6C4 JUMP JUMPDEST DUP1 DUP1 PUSH1 0x1 ADD SWAP2 POP POP PUSH2 0x62D JUMP JUMPDEST POP PUSH0 SWAP1 POP JUMPDEST SWAP2 SWAP1 POP JUMP JUMPDEST PUSH0 PUSH1 0x7 DUP1 SLOAD SWAP1 POP SWAP1 POP SWAP1 JUMP JUMPDEST PUSH1 0x2 SLOAD DUP2 JUMP JUMPDEST PUSH0 PUSH0 SWAP1 SLOAD SWAP1 PUSH2 0x100 EXP SWAP1 DIV PUSH20 0xFFFFFFFFFFFFFFFFFFFFFFFFFFFFFFFFFFFFFFFF AND PUSH20 0xFFFFFFFFFFFFFFFFFFFFFFFFFFFFFFFFFFFFFFFF AND CALLER PUSH20 0xFFFFFFFFFFFFFFFFFFFFFFFFFFFFFFFFFFFFFFFF AND EQ PUSH2 0x769 JUMPI PUSH1 0x40 MLOAD PUSH32 0x8C379A000000000000000000000000000000000000000000000000000000000 DUP2 MSTORE PUSH1 0x4 ADD PUSH2 0x760 SWAP1 PUSH2 0x19B8 JUMP JUMPDEST PUSH1 0x40 MLOAD DUP1 SWAP2 SUB SWAP1 REVERT JUMPDEST PUSH1 0x1 PUSH1 0x2 DUP2 GT ISZERO PUSH2 0x77D JUMPI PUSH2 0x77C PUSH2 0x1884 JUMP JUMPDEST JUMPDEST PUSH1 0x6 PUSH0 SWAP1 SLOAD SWAP1 PUSH2 0x100 EXP SWAP1 DIV PUSH1 0xFF AND PUSH1 0x2 DUP2 GT ISZERO PUSH2 0x79E JUMPI PUSH2 0x79D PUSH2 0x1884 JUMP JUMPDEST JUMPDEST EQ PUSH2 0x7DE JUMPI PUSH1 0x40 MLOAD PUSH32 0x8C379A000000000000000000000000000000000000000000000000000000000 DUP2 MSTORE PUSH1 0x4 ADD PUSH2 0x7D5 SWAP1 PUSH2 0x1B43 JUMP JUMPDEST PUSH1 0x40 MLOAD DUP1 SWAP2 SUB SWAP1 REVERT JUMPDEST PUSH0 PUSH0 SWAP1 POP JUMPDEST PUSH1 0x7 DUP1 SLOAD SWAP1 POP DUP2 LT ISZERO PUSH2 0xA63 JUMPI PUSH1 0x9 PUSH0 SWAP1 SLOAD SWAP1 PUSH2 0x100 EXP SWAP1 DIV PUSH20 0xFFFFFFFFFFFFFFFFFFFFFFFFFFFFFFFFFFFFFFFF AND PUSH20 0xFFFFFFFFFFFFFFFFFFFFFFFFFFFFFFFFFFFFFFFF AND PUSH1 0x7 DUP3 DUP2 SLOAD DUP2 LT PUSH2 0x83C JUMPI PUSH2 0x83B PUSH2 0x1ACC JUMP JUMPDEST JUMPDEST SWAP1 PUSH0 MSTORE PUSH1 0x20 PUSH0 KECCAK256 SWAP1 PUSH1 0x5 MUL ADD PUSH0 ADD PUSH0 SWAP1 SLOAD SWAP1 PUSH2 0x100 EXP SWAP1 DIV PUSH20 0xFFFFFFFFFFFFFFFFFFFFFFFFFFFFFFFFFFFFFFFF AND PUSH20 0xFFFFFFFFFFFFFFFFFFFFFFFFFFFFFFFFFFFFFFFF AND EQ ISZERO DUP1 ISZERO PUSH2 0x8BB JUMPI POP PUSH1 0x7 DUP2 DUP2 SLOAD DUP2 LT PUSH2 0x89D JUMPI PUSH2 0x89C PUSH2 0x1ACC JUMP JUMPDEST JUMPDEST SWAP1 PUSH0 MSTORE PUSH1 0x20 PUSH0 KECCAK256 SWAP1 PUSH1 0x5 MUL ADD PUSH1 0x4 ADD PUSH0 SWAP1 SLOAD SWAP1 PUSH2 0x100 EXP SWAP1 DIV PUSH1 0xFF AND ISZERO JUMPDEST ISZERO PUSH2 0xA56 JUMPI PUSH1 0x1 PUSH1 0x7 DUP3 DUP2 SLOAD DUP2 LT PUSH2 0x8D6 JUMPI PUSH2 0x8D5 PUSH2 0x1ACC JUMP JUMPDEST JUMPDEST SWAP1 PUSH0 MSTORE PUSH1 0x20 PUSH0 KECCAK256 SWAP1 PUSH1 0x5 MUL ADD PUSH1 0x4 ADD PUSH0 PUSH2 0x100 EXP DUP2 SLOAD DUP2 PUSH1 0xFF MUL NOT AND SWAP1 DUP4 ISZERO ISZERO MUL OR SWAP1 SSTORE POP PUSH1 0x7 DUP2 DUP2 SLOAD DUP2 LT PUSH2 0x90F JUMPI PUSH2 0x90E PUSH2 0x1ACC JUMP JUMPDEST JUMPDEST SWAP1 PUSH0 MSTORE PUSH1 0x20 PUSH0 KECCAK256 SWAP1 PUSH1 0x5 MUL ADD PUSH0 ADD PUSH0 SWAP1 SLOAD SWAP1 PUSH2 0x100 EXP SWAP1 DIV PUSH20 0xFFFFFFFFFFFFFFFFFFFFFFFFFFFFFFFFFFFFFFFF AND PUSH20 0xFFFFFFFFFFFFFFFFFFFFFFFFFFFFFFFFFFFFFFFF AND PUSH2 0x8FC PUSH1 0x7 DUP4 DUP2 SLOAD DUP2 LT PUSH2 0x96A JUMPI PUSH2 0x969 PUSH2 0x1ACC JUMP JUMPDEST JUMPDEST SWAP1 PUSH0 MSTORE PUSH1 0x20 PUSH0 KECCAK256 SWAP1 PUSH1 0x5 MUL ADD PUSH1 0x2 ADD SLOAD SWAP1 DUP2 ISZERO MUL SWAP1 PUSH1 0x40 MLOAD PUSH0 PUSH1 0x40 MLOAD DUP1 DUP4 SUB DUP2 DUP6 DUP9 DUP9 CALL SWAP4 POP POP POP POP ISZERO DUP1 ISZERO PUSH2 0x9A2 JUMPI RETURNDATASIZE PUSH0 PUSH0 RETURNDATACOPY RETURNDATASIZE PUSH0 REVERT JUMPDEST POP PUSH1 0x7 DUP2 DUP2 SLOAD DUP2 LT PUSH2 0x9B7 JUMPI PUSH2 0x9B6 PUSH2 0x1ACC JUMP JUMPDEST JUMPDEST SWAP1 PUSH0 MSTORE PUSH1 0x20 PUSH0 KECCAK256 SWAP1 PUSH1 0x5 MUL ADD PUSH0 ADD PUSH0 SWAP1 SLOAD SWAP1 PUSH2 0x100 EXP SWAP1 DIV PUSH20 0xFFFFFFFFFFFFFFFFFFFFFFFFFFFFFFFFFFFFFFFF AND PUSH20 0xFFFFFFFFFFFFFFFFFFFFFFFFFFFFFFFFFFFFFFFF AND PUSH32 0xA09244C122A83074363635DC89CE0098166C2F74827960FF64A7C8E6AD1C57A2 PUSH1 0x7 DUP4 DUP2 SLOAD DUP2 LT PUSH2 0xA30 JUMPI PUSH2 0xA2F PUSH2 0x1ACC JUMP JUMPDEST JUMPDEST SWAP1 PUSH0 MSTORE PUSH1 0x20 PUSH0 KECCAK256 SWAP1 PUSH1 0x5 MUL ADD PUSH1 0x2 ADD SLOAD PUSH1 0x40 MLOAD PUSH2 0xA4D SWAP2 SWAP1 PUSH2 0x178C JUMP JUMPDEST PUSH1 0x40 MLOAD DUP1 SWAP2 SUB SWAP1 LOG2 JUMPDEST DUP1 DUP1 PUSH1 0x1 ADD SWAP2 POP POP PUSH2 0x7E3 JUMP JUMPDEST POP PUSH1 0x2 PUSH1 0x6 PUSH0 PUSH2 0x100 EXP DUP2 SLOAD DUP2 PUSH1 0xFF MUL NOT AND SWAP1 DUP4 PUSH1 0x2 DUP2 GT ISZERO PUSH2 0xA89 JUMPI PUSH2 0xA88 PUSH2 0x1884 JUMP JUMPDEST JUMPDEST MUL OR SWAP1 SSTORE POP JUMP JUMPDEST PUSH1 0x7 DUP2 DUP2 SLOAD DUP2 LT PUSH2 0xA9F JUMPI PUSH0 DUP1 REVERT JUMPDEST SWAP1 PUSH0 MSTORE PUSH1 0x20 PUSH0 KECCAK256 SWAP1 PUSH1 0x5 MUL ADD PUSH0 SWAP2 POP SWAP1 POP DUP1 PUSH0 ADD PUSH0 SWAP1 SLOAD SWAP1 PUSH2 0x100 EXP SWAP1 DIV PUSH20 0xFFFFFFFFFFFFFFFFFFFFFFFFFFFFFFFFFFFFFFFF AND SWAP1 DUP1 PUSH1 0x1 ADD SLOAD SWAP1 DUP1 PUSH1 0x2 ADD SLOAD SWAP1 DUP1 PUSH1 0x3 ADD SLOAD SWAP1 DUP1 PUSH1 0x4 ADD PUSH0 SWAP1 SLOAD SWAP1 PUSH2 0x100 EXP SWAP1 DIV PUSH1 0xFF AND SWAP1 POP DUP6 JUMP JUMPDEST PUSH1 0x3 DUP2 JUMP JUMPDEST PUSH1 0xB SLOAD DUP2 JUMP JUMPDEST PUSH1 0x1 SLOAD DUP2 JUMP JUMPDEST PUSH1 0xA DUP2 JUMP JUMPDEST PUSH0 PUSH0 SWAP1 SLOAD SWAP1 PUSH2 0x100 EXP SWAP1 DIV PUSH20 0xFFFFFFFFFFFFFFFFFFFFFFFFFFFFFFFFFFFFFFFF AND PUSH20 0xFFFFFFFFFFFFFFFFFFFFFFFFFFFFFFFFFFFFFFFF AND CALLER PUSH20 0xFFFFFFFFFFFFFFFFFFFFFFFFFFFFFFFFFFFFFFFF AND EQ PUSH2 0xBA0 JUMPI PUSH1 0x40 MLOAD PUSH32 0x8C379A000000000000000000000000000000000000000000000000000000000 DUP2 MSTORE PUSH1 0x4 ADD PUSH2 0xB97 SWAP1 PUSH2 0x19B8 JUMP JUMPDEST PUSH1 0x40 MLOAD DUP1 SWAP2 SUB SWAP1 REVERT JUMPDEST PUSH1 0x2 DUP1 DUP2 GT ISZERO PUSH2 0xBB3 JUMPI PUSH2 0xBB2 PUSH2 0x1884 JUMP JUMPDEST JUMPDEST PUSH1 0x6 PUSH0 SWAP1 SLOAD SWAP1 PUSH2 0x100 EXP SWAP1 DIV PUSH1 0xFF AND PUSH1 0x2 DUP2 GT ISZERO PUSH2 0xBD4 JUMPI PUSH2 0xBD3 PUSH2 0x1884 JUMP JUMPDEST JUMPDEST EQ PUSH2 0xC14 JUMPI PUSH1 0x40 MLOAD PUSH32 0x8C379A000000000000000000000000000000000000000000000000000000000 DUP2 MSTORE PUSH1 0x4 ADD PUSH2 0xC0B SWAP1 PUSH2 0x1A46 JUMP JUMPDEST PUSH1 0x40 MLOAD DUP1 SWAP2 SUB SWAP1 REVERT JUMPDEST PUSH1 0x3 SLOAD TIMESTAMP LT PUSH2 0xC58 JUMPI PUSH1 0x40 MLOAD PUSH32 0x8C379A000000000000000000000000000000000000000000000000000000000 DUP2 MSTORE PUSH1 0x4 ADD PUSH2 0xC4F SWAP1 PUSH2 0x1BAB JUMP JUMPDEST PUSH1 0x40 MLOAD DUP1 SWAP2 SUB SWAP1 REVERT JUMPDEST PUSH1 0x9 PUSH0 SWAP1 SLOAD SWAP1 PUSH2 0x100 EXP SWAP1 DIV PUSH20 0xFFFFFFFFFFFFFFFFFFFFFFFFFFFFFFFFFFFFFFFF AND PUSH20 0xFFFFFFFFFFFFFFFFFFFFFFFFFFFFFFFFFFFFFFFF AND PUSH2 0x8FC PUSH1 0x9 PUSH0 SWAP1 SLOAD SWAP1 PUSH2 0x100 EXP SWAP1 DIV PUSH20 0xFFFFFFFFFFFFFFFFFFFFFFFFFFFFFFFFFFFFFFFF AND PUSH20 0xFFFFFFFFFFFFFFFFFFFFFFFFFFFFFFFFFFFFFFFF AND BALANCE PUSH1 0xA SLOAD PUSH2 0xCD9 SWAP2 SWAP1 PUSH2 0x1BF6 JUMP JUMPDEST SWAP1 DUP2 ISZERO MUL SWAP1 PUSH1 0x40 MLOAD PUSH0 PUSH1 0x40 MLOAD DUP1 DUP4 SUB DUP2 DUP6 DUP9 DUP9 CALL SWAP4 POP POP POP POP ISZERO DUP1 ISZERO PUSH2 0xD01 JUMPI RETURNDATASIZE PUSH0 PUSH0 RETURNDATACOPY RETURNDATASIZE PUSH0 REVERT JUMPDEST POP PUSH0 PUSH0 SWAP1 SLOAD SWAP1 PUSH2 0x100 EXP SWAP1 DIV PUSH20 0xFFFFFFFFFFFFFFFFFFFFFFFFFFFFFFFFFFFFFFFF AND PUSH20 0xFFFFFFFFFFFFFFFFFFFFFFFFFFFFFFFFFFFFFFFF AND PUSH2 0x8FC SELFBALANCE SWAP1 DUP2 ISZERO MUL SWAP1 PUSH1 0x40 MLOAD PUSH0 PUSH1 0x40 MLOAD DUP1 DUP4 SUB DUP2 DUP6 DUP9 DUP9 CALL SWAP4 POP POP POP POP ISZERO DUP1 ISZERO PUSH2 0xD65 JUMPI RETURNDATASIZE PUSH0 PUSH0 RETURNDATACOPY RETURNDATASIZE PUSH0 REVERT JUMPDEST POP JUMP JUMPDEST PUSH1 0x4 SLOAD DUP2 JUMP JUMPDEST PUSH0 PUSH0 SWAP1 SLOAD SWAP1 PUSH2 0x100 EXP SWAP1 DIV PUSH20 0xFFFFFFFFFFFFFFFFFFFFFFFFFFFFFFFFFFFFFFFF AND DUP2 JUMP JUMPDEST PUSH0 PUSH1 0x2 DUP2 GT ISZERO PUSH2 0xDA5 JUMPI PUSH2 0xDA4 PUSH2 0x1884 JUMP JUMPDEST JUMPDEST PUSH1 0x6 PUSH0 SWAP1 SLOAD SWAP1 PUSH2 0x100 EXP SWAP1 DIV PUSH1 0xFF AND PUSH1 0x2 DUP2 GT ISZERO PUSH2 0xDC6 JUMPI PUSH2 0xDC5 PUSH2 0x1884 JUMP JUMPDEST JUMPDEST EQ PUSH2 0xE06 JUMPI PUSH1 0x40 MLOAD PUSH32 0x8C379A000000000000000000000000000000000000000000000000000000000 DUP2 MSTORE PUSH1 0x4 ADD PUSH2 0xDFD SWAP1 PUSH2 0x1C73 JUMP JUMPDEST PUSH1 0x40 MLOAD DUP1 SWAP2 SUB SWAP1 REVERT JUMPDEST PUSH1 0x1 SLOAD TIMESTAMP LT ISZERO DUP1 ISZERO PUSH2 0xE1A JUMPI POP PUSH1 0x2 SLOAD TIMESTAMP GT ISZERO JUMPDEST PUSH2 0xE59 JUMPI PUSH1 0x40 MLOAD PUSH32 0x8C379A000000000000000000000000000000000000000000000000000000000 DUP2 MSTORE PUSH1 0x4 ADD PUSH2 0xE50 SWAP1 PUSH2 0x1D01 JUMP JUMPDEST PUSH1 0x40 MLOAD DUP1 SWAP2 SUB SWAP1 REVERT JUMPDEST PUSH0 DUP2 GT PUSH2 0xE9B JUMPI PUSH1 0x40 MLOAD PUSH32 0x8C379A000000000000000000000000000000000000000000000000000000000 DUP2 MSTORE PUSH1 0x4 ADD PUSH2 0xE92 SWAP1 PUSH2 0x1D69 JUMP JUMPDEST PUSH1 0x40 MLOAD DUP1 SWAP2 SUB SWAP1 REVERT JUMPDEST PUSH1 0x4 SLOAD DUP2 GT ISZERO PUSH2 0xEE0 JUMPI PUSH1 0x40 MLOAD PUSH32 0x8C379A000000000000000000000000000000000000000000000000000000000 DUP2 MSTORE PUSH1 0x4 ADD PUSH2 0xED7 SWAP1 PUSH2 0x1DF7 JUMP JUMPDEST PUSH1 0x40 MLOAD DUP1 SWAP2 SUB SWAP1 REVERT JUMPDEST PUSH2 0xEE9 CALLER PUSH2 0x627 JUMP JUMPDEST ISZERO PUSH2 0xF29 JUMPI PUSH1 0x40 MLOAD PUSH32 0x8C379A000000000000000000000000000000000000000000000000000000000 DUP2 MSTORE PUSH1 0x4 ADD PUSH2 0xF20 SWAP1 PUSH2 0x1E5F JUMP JUMPDEST PUSH1 0x40 MLOAD DUP1 SWAP2 SUB SWAP1 REVERT JUMPDEST PUSH1 0x3 PUSH1 0x5 SLOAD LT PUSH2 0xF6E JUMPI PUSH1 0x40 MLOAD PUSH32 0x8C379A000000000000000000000000000000000000000000000000000000000 DUP2 MSTORE PUSH1 0x4 ADD PUSH2 0xF65 SWAP1 PUSH2 0x1EED JUMP JUMPDEST PUSH1 0x40 MLOAD DUP1 SWAP2 SUB SWAP1 REVERT JUMPDEST PUSH0 PUSH0 SWAP1 SLOAD SWAP1 PUSH2 0x100 EXP SWAP1 DIV PUSH20 0xFFFFFFFFFFFFFFFFFFFFFFFFFFFFFFFFFFFFFFFF AND PUSH20 0xFFFFFFFFFFFFFFFFFFFFFFFFFFFFFFFFFFFFFFFF AND CALLER PUSH20 0xFFFFFFFFFFFFFFFFFFFFFFFFFFFFFFFFFFFFFFFF AND SUB PUSH2 0xFFC JUMPI PUSH1 0x40 MLOAD PUSH32 0x8C379A000000000000000000000000000000000000000000000000000000000 DUP2 MSTORE PUSH1 0x4 ADD PUSH2 0xFF3 SWAP1 PUSH2 0x1F7B JUMP JUMPDEST PUSH1 0x40 MLOAD DUP1 SWAP2 SUB SWAP1 REVERT JUMPDEST PUSH1 0x64 PUSH1 0xA DUP3 PUSH2 0x100B SWAP2 SWAP1 PUSH2 0x1F99 JUMP JUMPDEST PUSH2 0x1015 SWAP2 SWAP1 PUSH2 0x2007 JUMP JUMPDEST CALLVALUE EQ PUSH2 0x1056 JUMPI PUSH1 0x40 MLOAD PUSH32 0x8C379A000000000000000000000000000000000000000000000000000000000 DUP2 MSTORE PUSH1 0x4 ADD PUSH2 0x104D SWAP1 PUSH2 0x20A7 JUMP JUMPDEST PUSH1 0x40 MLOAD DUP1 SWAP2 SUB SWAP1 REVERT JUMPDEST PUSH1 0x1 PUSH1 0x5 PUSH0 DUP3 DUP3 SLOAD PUSH2 0x1068 SWAP2 SWAP1 PUSH2 0x1BF6 JUMP JUMPDEST SWAP3 POP POP DUP2 SWAP1 SSTORE POP PUSH1 0x7 PUSH1 0x40 MLOAD DUP1 PUSH1 0xA0 ADD PUSH1 0x40 MSTORE DUP1 CALLER PUSH20 0xFFFFFFFFFFFFFFFFFFFFFFFFFFFFFFFFFFFFFFFF AND DUP2 MSTORE PUSH1 0x20 ADD DUP4 DUP2 MSTORE PUSH1 0x20 ADD TIMESTAMP DUP2 MSTORE PUSH1 0x20 ADD CALLVALUE DUP2 MSTORE PUSH1 0x20 ADD PUSH0 ISZERO ISZERO DUP2 MSTORE POP SWAP1 DUP1 PUSH1 0x1 DUP2 SLOAD ADD DUP1 DUP3 SSTORE DUP1 SWAP2 POP POP PUSH1 0x1 SWAP1 SUB SWAP1 PUSH0 MSTORE PUSH1 0x20 PUSH0 KECCAK256 SWAP1 PUSH1 0x5 MUL ADD PUSH0 SWAP1 SWAP2 SWAP1 SWAP2 SWAP1 SWAP2 POP PUSH0 DUP3 ADD MLOAD DUP2 PUSH0 ADD PUSH0 PUSH2 0x100 EXP DUP2 SLOAD DUP2 PUSH20 0xFFFFFFFFFFFFFFFFFFFFFFFFFFFFFFFFFFFFFFFF MUL NOT AND SWAP1 DUP4 PUSH20 0xFFFFFFFFFFFFFFFFFFFFFFFFFFFFFFFFFFFFFFFF AND MUL OR SWAP1 SSTORE POP PUSH1 0x20 DUP3 ADD MLOAD DUP2 PUSH1 0x1 ADD SSTORE PUSH1 0x40 DUP3 ADD MLOAD DUP2 PUSH1 0x2 ADD SSTORE PUSH1 0x60 DUP3 ADD MLOAD DUP2 PUSH1 0x3 ADD SSTORE PUSH1 0x80 DUP3 ADD MLOAD DUP2 PUSH1 0x4 ADD PUSH0 PUSH2 0x100 EXP DUP2 SLOAD DUP2 PUSH1 0xFF MUL NOT AND SWAP1 DUP4 ISZERO ISZERO MUL OR SWAP1 SSTORE POP POP POP PUSH1 0x8 CALLER SWAP1 DUP1 PUSH1 0x1 DUP2 SLOAD ADD DUP1 DUP3 SSTORE DUP1 SWAP2 POP POP PUSH1 0x1 SWAP1 SUB SWAP1 PUSH0 MSTORE PUSH1 0x20 PUSH0 KECCAK256 ADD PUSH0 SWAP1 SWAP2 SWAP1 SWAP2 SWAP1 SWAP2 PUSH2 0x100 EXP DUP2 SLOAD DUP2 PUSH20 0xFFFFFFFFFFFFFFFFFFFFFFFFFFFFFFFFFFFFFFFF MUL NOT AND SWAP1 DUP4 PUSH20 0xFFFFFFFFFFFFFFFFFFFFFFFFFFFFFFFFFFFFFFFF AND MUL OR SWAP1 SSTORE POP CALLER PUSH20 0xFFFFFFFFFFFFFFFFFFFFFFFFFFFFFFFFFFFFFFFF AND PUSH32 0xE677A6B9A16A696674F50D2C98A1CE8C5CB51D6B48A0223412C512BBC93664D5 PUSH1 0x40 MLOAD PUSH1 0x40 MLOAD DUP1 SWAP2 SUB SWAP1 LOG2 POP JUMP JUMPDEST PUSH1 0x6 PUSH0 SWAP1 SLOAD SWAP1 PUSH2 0x100 EXP SWAP1 DIV PUSH1 0xFF AND DUP2 JUMP JUMPDEST PUSH1 0xA SLOAD DUP2 JUMP JUMPDEST PUSH1 0x8 DUP2 DUP2 SLOAD DUP2 LT PUSH2 0x1226 JUMPI PUSH0 DUP1 REVERT JUMPDEST SWAP1 PUSH0 MSTORE PUSH1 0x20 PUSH0 KECCAK256 ADD PUSH0 SWAP2 POP SLOAD SWAP1 PUSH2 0x100 EXP SWAP1 DIV PUSH20 0xFFFFFFFFFFFFFFFFFFFFFFFFFFFFFFFFFFFFFFFF AND DUP2 JUMP JUMPDEST PUSH1 0x3 SLOAD DUP2 JUMP JUMPDEST PUSH1 0x9 PUSH0 SWAP1 SLOAD SWAP1 PUSH2 0x100 EXP SWAP1 DIV PUSH20 0xFFFFFFFFFFFFFFFFFFFFFFFFFFFFFFFFFFFFFFFF AND DUP2 JUMP JUMPDEST PUSH0 PUSH0 SWAP1 SLOAD SWAP1 PUSH2 0x100 EXP SWAP1 DIV PUSH20 0xFFFFFFFFFFFFFFFFFFFFFFFFFFFFFFFFFFFFFFFF AND PUSH20 0xFFFFFFFFFFFFFFFFFFFFFFFFFFFFFFFFFFFFFFFF AND CALLER PUSH20 0xFFFFFFFFFFFFFFFFFFFFFFFFFFFFFFFFFFFFFFFF AND EQ PUSH2 0x130B JUMPI PUSH1 0x40 MLOAD PUSH32 0x8C379A000000000000000000000000000000000000000000000000000000000 DUP2 MSTORE PUSH1 0x4 ADD PUSH2 0x1302 SWAP1 PUSH2 0x19B8 JUMP JUMPDEST PUSH1 0x40 MLOAD DUP1 SWAP2 SUB SWAP1 REVERT JUMPDEST PUSH0 PUSH1 0x2 DUP2 GT ISZERO PUSH2 0x131E JUMPI PUSH2 0x131D PUSH2 0x1884 JUMP JUMPDEST JUMPDEST PUSH1 0x6 PUSH0 SWAP1 SLOAD SWAP1 PUSH2 0x100 EXP SWAP1 DIV PUSH1 0xFF AND PUSH1 0x2 DUP2 GT ISZERO PUSH2 0x133F JUMPI PUSH2 0x133E PUSH2 0x1884 JUMP JUMPDEST JUMPDEST EQ PUSH2 0x137F JUMPI PUSH1 0x40 MLOAD PUSH32 0x8C379A000000000000000000000000000000000000000000000000000000000 DUP2 MSTORE PUSH1 0x4 ADD PUSH2 0x1376 SWAP1 PUSH2 0x210F JUMP JUMPDEST PUSH1 0x40 MLOAD DUP1 SWAP2 SUB SWAP1 REVERT JUMPDEST PUSH1 0x2 SLOAD TIMESTAMP LT ISZERO DUP1 PUSH2 0x1393 JUMPI POP PUSH1 0x3 PUSH1 0x5 SLOAD LT ISZERO JUMPDEST PUSH2 0x13D2 JUMPI PUSH1 0x40 MLOAD PUSH32 0x8C379A000000000000000000000000000000000000000000000000000000000 DUP2 MSTORE PUSH1 0x4 ADD PUSH2 0x13C9 SWAP1 PUSH2 0x219D JUMP JUMPDEST PUSH1 0x40 MLOAD DUP1 SWAP2 SUB SWAP1 REVERT JUMPDEST PUSH2 0x13DA PUSH2 0x13E2 JUMP JUMPDEST JUMP JUMPDEST PUSH1 0x5 SLOAD DUP2 JUMP JUMPDEST PUSH1 0x1 PUSH1 0x6 PUSH0 PUSH2 0x100 EXP DUP2 SLOAD DUP2 PUSH1 0xFF MUL NOT AND SWAP1 DUP4 PUSH1 0x2 DUP2 GT ISZERO PUSH2 0x1407 JUMPI PUSH2 0x1406 PUSH2 0x1884 JUMP JUMPDEST JUMPDEST MUL OR SWAP1 SSTORE POP PUSH2 0x1414 PUSH2 0x14D7 JUMP JUMPDEST PUSH1 0x9 PUSH0 PUSH1 0xA PUSH0 DUP5 SWAP2 SWAP1 POP SSTORE DUP4 SWAP2 SWAP1 PUSH2 0x100 EXP DUP2 SLOAD DUP2 PUSH20 0xFFFFFFFFFFFFFFFFFFFFFFFFFFFFFFFFFFFFFFFF MUL NOT AND SWAP1 DUP4 PUSH20 0xFFFFFFFFFFFFFFFFFFFFFFFFFFFFFFFFFFFFFFFF AND MUL OR SWAP1 SSTORE POP POP POP PUSH1 0x9 PUSH0 SWAP1 SLOAD SWAP1 PUSH2 0x100 EXP SWAP1 DIV PUSH20 0xFFFFFFFFFFFFFFFFFFFFFFFFFFFFFFFFFFFFFFFF AND PUSH20 0xFFFFFFFFFFFFFFFFFFFFFFFFFFFFFFFFFFFFFFFF AND PUSH32 0xFD8F22870817EE413FCB464D7FFD8415666C2AB6285FE8D409DC1DC21FFFB4F6 PUSH1 0xB SLOAD PUSH1 0xA SLOAD PUSH1 0x40 MLOAD PUSH2 0x14CD SWAP3 SWAP2 SWAP1 PUSH2 0x21BB JUMP JUMPDEST PUSH1 0x40 MLOAD DUP1 SWAP2 SUB SWAP1 LOG2 JUMP JUMPDEST PUSH0 PUSH0 PUSH0 PUSH1 0x7 DUP1 SLOAD SWAP1 POP GT PUSH2 0x1520 JUMPI PUSH1 0x40 MLOAD PUSH32 0x8C379A000000000000000000000000000000000000000000000000000000000 DUP2 MSTORE PUSH1 0x4 ADD PUSH2 0x1517 SWAP1 PUSH2 0x222C JUMP JUMPDEST PUSH1 0x40 MLOAD DUP1 SWAP2 SUB SWAP1 REVERT JUMPDEST PUSH0 PUSH1 0x4 SLOAD SWAP1 POP PUSH0 PUSH1 0x4 SLOAD SWAP1 POP PUSH0 PUSH0 PUSH32 0xFFFFFFFFFFFFFFFFFFFFFFFFFFFFFFFFFFFFFFFFFFFFFFFFFFFFFFFFFFFFFFFF SWAP1 POP PUSH0 PUSH0 SWAP1 POP JUMPDEST PUSH1 0x7 DUP1 SLOAD SWAP1 POP DUP2 LT ISZERO PUSH2 0x1695 JUMPI PUSH0 PUSH1 0x7 DUP3 DUP2 SLOAD DUP2 LT PUSH2 0x1578 JUMPI PUSH2 0x1577 PUSH2 0x1ACC JUMP JUMPDEST JUMPDEST SWAP1 PUSH0 MSTORE PUSH1 0x20 PUSH0 KECCAK256 SWAP1 PUSH1 0x5 MUL ADD PUSH1 0x1 ADD SLOAD SWAP1 POP PUSH0 PUSH1 0x7 DUP4 DUP2 SLOAD DUP2 LT PUSH2 0x159F JUMPI PUSH2 0x159E PUSH2 0x1ACC JUMP JUMPDEST JUMPDEST SWAP1 PUSH0 MSTORE PUSH1 0x20 PUSH0 KECCAK256 SWAP1 PUSH1 0x5 MUL ADD PUSH1 0x3 ADD SLOAD SWAP1 POP DUP7 DUP3 LT ISZERO PUSH2 0x160B JUMPI DUP7 SWAP6 POP DUP2 SWAP7 POP PUSH1 0x7 DUP4 DUP2 SLOAD DUP2 LT PUSH2 0x15D3 JUMPI PUSH2 0x15D2 PUSH2 0x1ACC JUMP JUMPDEST JUMPDEST SWAP1 PUSH0 MSTORE PUSH1 0x20 PUSH0 KECCAK256 SWAP1 PUSH1 0x5 MUL ADD PUSH0 ADD PUSH0 SWAP1 SLOAD SWAP1 PUSH2 0x100 EXP SWAP1 DIV PUSH20 0xFFFFFFFFFFFFFFFFFFFFFFFFFFFFFFFFFFFFFFFF AND SWAP5 POP DUP1 SWAP4 POP PUSH2 0x1686 JUMP JUMPDEST DUP7 DUP3 EQ DUP1 ISZERO PUSH2 0x1619 JUMPI POP DUP4 DUP2 LT JUMPDEST ISZERO PUSH2 0x166D JUMPI DUP7 SWAP6 POP PUSH1 0x7 DUP4 DUP2 SLOAD DUP2 LT PUSH2 0x1635 JUMPI PUSH2 0x1634 PUSH2 0x1ACC JUMP JUMPDEST JUMPDEST SWAP1 PUSH0 MSTORE PUSH1 0x20 PUSH0 KECCAK256 SWAP1 PUSH1 0x5 MUL ADD PUSH0 ADD PUSH0 SWAP1 SLOAD SWAP1 PUSH2 0x100 EXP SWAP1 DIV PUSH20 0xFFFFFFFFFFFFFFFFFFFFFFFFFFFFFFFFFFFFFFFF AND SWAP5 POP DUP1 SWAP4 POP PUSH2 0x1685 JUMP JUMPDEST DUP6 DUP3 LT DUP1 ISZERO PUSH2 0x167B JUMPI POP DUP7 DUP3 GT JUMPDEST ISZERO PUSH2 0x1684 JUMPI DUP2 SWAP6 POP JUMPDEST JUMPDEST JUMPDEST POP POP DUP1 DUP1 PUSH1 0x1 ADD SWAP2 POP POP PUSH2 0x1556 JUMP JUMPDEST POP DUP2 PUSH1 0x1 PUSH1 0x7 DUP1 SLOAD SWAP1 POP EQ PUSH2 0x16AA JUMPI DUP4 PUSH2 0x16AC JUMP JUMPDEST DUP5 JUMPDEST SWAP6 POP SWAP6 POP POP POP POP POP SWAP1 SWAP2 JUMP JUMPDEST PUSH0 PUSH0 REVERT JUMPDEST PUSH0 PUSH20 0xFFFFFFFFFFFFFFFFFFFFFFFFFFFFFFFFFFFFFFFF DUP3 AND SWAP1 POP SWAP2 SWAP1 POP JUMP JUMPDEST PUSH0 PUSH2 0x16E5 DUP3 PUSH2 0x16BC JUMP JUMPDEST SWAP1 POP SWAP2 SWAP1 POP JUMP JUMPDEST PUSH2 0x16F5 DUP2 PUSH2 0x16DB JUMP JUMPDEST DUP2 EQ PUSH2 0x16FF JUMPI PUSH0 PUSH0 REVERT JUMPDEST POP JUMP JUMPDEST PUSH0 DUP2 CALLDATALOAD SWAP1 POP PUSH2 0x1710 DUP2 PUSH2 0x16EC JUMP JUMPDEST SWAP3 SWAP2 POP POP JUMP JUMPDEST PUSH0 PUSH1 0x20 DUP3 DUP5 SUB SLT ISZERO PUSH2 0x172B JUMPI PUSH2 0x172A PUSH2 0x16B8 JUMP JUMPDEST JUMPDEST PUSH0 PUSH2 0x1738 DUP5 DUP3 DUP6 ADD PUSH2 0x1702 JUMP JUMPDEST SWAP2 POP POP SWAP3 SWAP2 POP POP JUMP JUMPDEST PUSH0 DUP2 ISZERO ISZERO SWAP1 POP SWAP2 SWAP1 POP JUMP JUMPDEST PUSH2 0x1755 DUP2 PUSH2 0x1741 JUMP JUMPDEST DUP3 MSTORE POP POP JUMP JUMPDEST PUSH0 PUSH1 0x20 DUP3 ADD SWAP1 POP PUSH2 0x176E PUSH0 DUP4 ADD DUP5 PUSH2 0x174C JUMP JUMPDEST SWAP3 SWAP2 POP POP JUMP JUMPDEST PUSH0 DUP2 SWAP1 POP SWAP2 SWAP1 POP JUMP JUMPDEST PUSH2 0x1786 DUP2 PUSH2 0x1774 JUMP JUMPDEST DUP3 MSTORE POP POP JUMP JUMPDEST PUSH0 PUSH1 0x20 DUP3 ADD SWAP1 POP PUSH2 0x179F PUSH0 DUP4 ADD DUP5 PUSH2 0x177D JUMP JUMPDEST SWAP3 SWAP2 POP POP JUMP JUMPDEST PUSH2 0x17AE DUP2 PUSH2 0x1774 JUMP JUMPDEST DUP2 EQ PUSH2 0x17B8 JUMPI PUSH0 PUSH0 REVERT JUMPDEST POP JUMP JUMPDEST PUSH0 DUP2 CALLDATALOAD SWAP1 POP PUSH2 0x17C9 DUP2 PUSH2 0x17A5 JUMP JUMPDEST SWAP3 SWAP2 POP POP JUMP JUMPDEST PUSH0 PUSH1 0x20 DUP3 DUP5 SUB SLT ISZERO PUSH2 0x17E4 JUMPI PUSH2 0x17E3 PUSH2 0x16B8 JUMP JUMPDEST JUMPDEST PUSH0 PUSH2 0x17F1 DUP5 DUP3 DUP6 ADD PUSH2 0x17BB JUMP JUMPDEST SWAP2 POP POP SWAP3 SWAP2 POP POP JUMP JUMPDEST PUSH0 PUSH2 0x1804 DUP3 PUSH2 0x16BC JUMP JUMPDEST SWAP1 POP SWAP2 SWAP1 POP JUMP JUMPDEST PUSH2 0x1814 DUP2 PUSH2 0x17FA JUMP JUMPDEST DUP3 MSTORE POP POP JUMP JUMPDEST PUSH0 PUSH1 0xA0 DUP3 ADD SWAP1 POP PUSH2 0x182D PUSH0 DUP4 ADD DUP9 PUSH2 0x180B JUMP JUMPDEST PUSH2 0x183A PUSH1 0x20 DUP4 ADD DUP8 PUSH2 0x177D JUMP JUMPDEST PUSH2 0x1847 PUSH1 0x40 DUP4 ADD DUP7 PUSH2 0x177D JUMP JUMPDEST PUSH2 0x1854 PUSH1 0x60 DUP4 ADD DUP6 PUSH2 0x177D JUMP JUMPDEST PUSH2 0x1861 PUSH1 0x80 DUP4 ADD DUP5 PUSH2 0x174C JUMP JUMPDEST SWAP7 SWAP6 POP POP POP POP POP POP JUMP JUMPDEST PUSH0 PUSH1 0x20 DUP3 ADD SWAP1 POP PUSH2 0x187E PUSH0 DUP4 ADD DUP5 PUSH2 0x180B JUMP JUMPDEST SWAP3 SWAP2 POP POP JUMP JUMPDEST PUSH32 0x4E487B7100000000000000000000000000000000000000000000000000000000 PUSH0 MSTORE PUSH1 0x21 PUSH1 0x4 MSTORE PUSH1 0x24 PUSH0 REVERT JUMPDEST PUSH1 0x3 DUP2 LT PUSH2 0x18C2 JUMPI PUSH2 0x18C1 PUSH2 0x1884 JUMP JUMPDEST JUMPDEST POP JUMP JUMPDEST PUSH0 DUP2 SWAP1 POP PUSH2 0x18D2 DUP3 PUSH2 0x18B1 JUMP JUMPDEST SWAP2 SWAP1 POP JUMP JUMPDEST PUSH0 PUSH2 0x18E1 DUP3 PUSH2 0x18C5 JUMP JUMPDEST SWAP1 POP SWAP2 SWAP1 POP JUMP JUMPDEST PUSH2 0x18F1 DUP2 PUSH2 0x18D7 JUMP JUMPDEST DUP3 MSTORE POP POP JUMP JUMPDEST PUSH0 PUSH1 0x20 DUP3 ADD SWAP1 POP PUSH2 0x190A PUSH0 DUP4 ADD DUP5 PUSH2 0x18E8 JUMP JUMPDEST SWAP3 SWAP2 POP POP JUMP JUMPDEST PUSH2 0x1919 DUP2 PUSH2 0x16DB JUMP JUMPDEST DUP3 MSTORE POP POP JUMP JUMPDEST PUSH0 PUSH1 0x20 DUP3 ADD SWAP1 POP PUSH2 0x1932 PUSH0 DUP4 ADD DUP5 PUSH2 0x1910 JUMP JUMPDEST SWAP3 SWAP2 POP POP JUMP JUMPDEST PUSH0 DUP3 DUP3 MSTORE PUSH1 0x20 DUP3 ADD SWAP1 POP SWAP3 SWAP2 POP POP JUMP JUMPDEST PUSH32 0x4F6E6C7920746865206F776E65722063616E2063616C6C20746869732066756E PUSH0 DUP3 ADD MSTORE PUSH32 0x6374696F6E000000000000000000000000000000000000000000000000000000 PUSH1 0x20 DUP3 ADD MSTORE POP JUMP JUMPDEST PUSH0 PUSH2 0x19A2 PUSH1 0x25 DUP4 PUSH2 0x1938 JUMP JUMPDEST SWAP2 POP PUSH2 0x19AD DUP3 PUSH2 0x1948 JUMP JUMPDEST PUSH1 0x40 DUP3 ADD SWAP1 POP SWAP2 SWAP1 POP JUMP JUMPDEST PUSH0 PUSH1 0x20 DUP3 ADD SWAP1 POP DUP2 DUP2 SUB PUSH0 DUP4 ADD MSTORE PUSH2 0x19CF DUP2 PUSH2 0x1996 JUMP JUMPDEST SWAP1 POP SWAP2 SWAP1 POP JUMP JUMPDEST PUSH32 0x41756374696F6E207374696C6C206F70656E206F72206469646E277420706169 PUSH0 DUP3 ADD MSTORE PUSH32 0x64206261636B20746865206465706F7369747320796574000000000000000000 PUSH1 0x20 DUP3 ADD MSTORE POP JUMP JUMPDEST PUSH0 PUSH2 0x1A30 PUSH1 0x37 DUP4 PUSH2 0x1938 JUMP JUMPDEST SWAP2 POP PUSH2 0x1A3B DUP3 PUSH2 0x19D6 JUMP JUMPDEST PUSH1 0x40 DUP3 ADD SWAP1 POP SWAP2 SWAP1 POP JUMP JUMPDEST PUSH0 PUSH1 0x20 DUP3 ADD SWAP1 POP DUP2 DUP2 SUB PUSH0 DUP4 ADD MSTORE PUSH2 0x1A5D DUP2 PUSH2 0x1A24 JUMP JUMPDEST SWAP1 POP SWAP2 SWAP1 POP JUMP JUMPDEST PUSH32 0x5468652064656C69766572792063616E207374696C6C206265206D6164650000 PUSH0 DUP3 ADD MSTORE POP JUMP JUMPDEST PUSH0 PUSH2 0x1A98 PUSH1 0x1E DUP4 PUSH2 0x1938 JUMP JUMPDEST SWAP2 POP PUSH2 0x1AA3 DUP3 PUSH2 0x1A64 JUMP JUMPDEST PUSH1 0x20 DUP3 ADD SWAP1 POP SWAP2 SWAP1 POP JUMP JUMPDEST PUSH0 PUSH1 0x20 DUP3 ADD SWAP1 POP DUP2 DUP2 SUB PUSH0 DUP4 ADD MSTORE PUSH2 0x1AC5 DUP2 PUSH2 0x1A8C JUMP JUMPDEST SWAP1 POP SWAP2 SWAP1 POP JUMP JUMPDEST PUSH32 0x4E487B7100000000000000000000000000000000000000000000000000000000 PUSH0 MSTORE PUSH1 0x32 PUSH1 0x4 MSTORE PUSH1 0x24 PUSH0 REVERT JUMPDEST PUSH32 0x41756374696F6E207374696C6C206F70656E0000000000000000000000000000 PUSH0 DUP3 ADD MSTORE POP JUMP JUMPDEST PUSH0 PUSH2 0x1B2D PUSH1 0x12 DUP4 PUSH2 0x1938 JUMP JUMPDEST SWAP2 POP PUSH2 0x1B38 DUP3 PUSH2 0x1AF9 JUMP JUMPDEST PUSH1 0x20 DUP3 ADD SWAP1 POP SWAP2 SWAP1 POP JUMP JUMPDEST PUSH0 PUSH1 0x20 DUP3 ADD SWAP1 POP DUP2 DUP2 SUB PUSH0 DUP4 ADD MSTORE PUSH2 0x1B5A DUP2 PUSH2 0x1B21 JUMP JUMPDEST SWAP1 POP SWAP2 SWAP1 POP JUMP JUMPDEST PUSH32 0x5468652064656C6976657279206973206F766572647565000000000000000000 PUSH0 DUP3 ADD MSTORE POP JUMP JUMPDEST PUSH0 PUSH2 0x1B95 PUSH1 0x17 DUP4 PUSH2 0x1938 JUMP JUMPDEST SWAP2 POP PUSH2 0x1BA0 DUP3 PUSH2 0x1B61 JUMP JUMPDEST PUSH1 0x20 DUP3 ADD SWAP1 POP SWAP2 SWAP1 POP JUMP JUMPDEST PUSH0 PUSH1 0x20 DUP3 ADD SWAP1 POP DUP2 DUP2 SUB PUSH0 DUP4 ADD MSTORE PUSH2 0x1BC2 DUP2 PUSH2 0x1B89 JUMP JUMPDEST SWAP1 POP SWAP2 SWAP1 POP JUMP JUMPDEST PUSH32 0x4E487B7100000000000000000000000000000000000000000000000000000000 PUSH0 MSTORE PUSH1 0x11 PUSH1 0x4 MSTORE PUSH1 0x24 PUSH0 REVERT JUMPDEST PUSH0 PUSH2 0x1C00 DUP3 PUSH2 0x1774 JUMP JUMPDEST SWAP2 POP PUSH2 0x1C0B DUP4 PUSH2 0x1774 JUMP JUMPDEST SWAP3 POP DUP3 DUP3 ADD SWAP1 POP DUP1 DUP3 GT ISZERO PUSH2 0x1C23 JUMPI PUSH2 0x1C22 PUSH2 0x1BC9 JUMP JUMPDEST JUMPDEST SWAP3 SWAP2 POP POP JUMP JUMPDEST PUSH32 0x41756374696F6E206E6F74206163746976650000000000000000000000000000 PUSH0 DUP3 ADD MSTORE POP JUMP JUMPDEST PUSH0 PUSH2 0x1C5D PUSH1 0x12 DUP4 PUSH2 0x1938 JUMP JUMPDEST SWAP2 POP PUSH2 0x1C68 DUP3 PUSH2 0x1C29 JUMP JUMPDEST PUSH1 0x20 DUP3 ADD SWAP1 POP SWAP2 SWAP1 POP JUMP JUMPDEST PUSH0 PUSH1 0x20 DUP3 ADD SWAP1 POP DUP2 DUP2 SUB PUSH0 DUP4 ADD MSTORE PUSH2 0x1C8A DUP2 PUSH2 0x1C51 JUMP JUMPDEST SWAP1 POP SWAP2 SWAP1 POP JUMP JUMPDEST PUSH32 0x4F757473696465206F66207468652061756374696F6E27732074696D65207261 PUSH0 DUP3 ADD MSTORE PUSH32 0x6E67650000000000000000000000000000000000000000000000000000000000 PUSH1 0x20 DUP3 ADD MSTORE POP JUMP JUMPDEST PUSH0 PUSH2 0x1CEB PUSH1 0x23 DUP4 PUSH2 0x1938 JUMP JUMPDEST SWAP2 POP PUSH2 0x1CF6 DUP3 PUSH2 0x1C91 JUMP JUMPDEST PUSH1 0x40 DUP3 ADD SWAP1 POP SWAP2 SWAP1 POP JUMP JUMPDEST PUSH0 PUSH1 0x20 DUP3 ADD SWAP1 POP DUP2 DUP2 SUB PUSH0 DUP4 ADD MSTORE PUSH2 0x1D18 DUP2 PUSH2 0x1CDF JUMP JUMPDEST SWAP1 POP SWAP2 SWAP1 POP JUMP JUMPDEST PUSH32 0x54686520626964206D757374206265203E203000000000000000000000000000 PUSH0 DUP3 ADD MSTORE POP JUMP JUMPDEST PUSH0 PUSH2 0x1D53 PUSH1 0x13 DUP4 PUSH2 0x1938 JUMP JUMPDEST SWAP2 POP PUSH2 0x1D5E DUP3 PUSH2 0x1D1F JUMP JUMPDEST PUSH1 0x20 DUP3 ADD SWAP1 POP SWAP2 SWAP1 POP JUMP JUMPDEST PUSH0 PUSH1 0x20 DUP3 ADD SWAP1 POP DUP2 DUP2 SUB PUSH0 DUP4 ADD MSTORE PUSH2 0x1D80 DUP2 PUSH2 0x1D47 JUMP JUMPDEST SWAP1 POP SWAP2 SWAP1 POP JUMP JUMPDEST PUSH32 0x5468652062696420697320686967686572207468616E20746865206D6178696D PUSH0 DUP3 ADD MSTORE PUSH32 0x756D000000000000000000000000000000000000000000000000000000000000 PUSH1 0x20 DUP3 ADD MSTORE POP JUMP JUMPDEST PUSH0 PUSH2 0x1DE1 PUSH1 0x22 DUP4 PUSH2 0x1938 JUMP JUMPDEST SWAP2 POP PUSH2 0x1DEC DUP3 PUSH2 0x1D87 JUMP JUMPDEST PUSH1 0x40 DUP3 ADD SWAP1 POP SWAP2 SWAP1 POP JUMP JUMPDEST PUSH0 PUSH1 0x20 DUP3 ADD SWAP1 POP DUP2 DUP2 SUB PUSH0 DUP4 ADD MSTORE PUSH2 0x1E0E DUP2 PUSH2 0x1DD5 JUMP JUMPDEST SWAP1 POP SWAP2 SWAP1 POP JUMP JUMPDEST PUSH32 0x596F75206861766520616C726561647920706172746963697061746564000000 PUSH0 DUP3 ADD MSTORE POP JUMP JUMPDEST PUSH0 PUSH2 0x1E49 PUSH1 0x1D DUP4 PUSH2 0x1938 JUMP JUMPDEST SWAP2 POP PUSH2 0x1E54 DUP3 PUSH2 0x1E15 JUMP JUMPDEST PUSH1 0x20 DUP3 ADD SWAP1 POP SWAP2 SWAP1 POP JUMP JUMPDEST PUSH0 PUSH1 0x20 DUP3 ADD SWAP1 POP DUP2 DUP2 SUB PUSH0 DUP4 ADD MSTORE PUSH2 0x1E76 DUP2 PUSH2 0x1E3D JUMP JUMPDEST SWAP1 POP SWAP2 SWAP1 POP JUMP JUMPDEST PUSH32 0x5468652061756374696F6E20686173207265616368656420746865206D617869 PUSH0 DUP3 ADD MSTORE PUSH32 0x6D756D206E756D626572206F66207061727469636970616E7473000000000000 PUSH1 0x20 DUP3 ADD MSTORE POP JUMP JUMPDEST PUSH0 PUSH2 0x1ED7 PUSH1 0x3A DUP4 PUSH2 0x1938 JUMP JUMPDEST SWAP2 POP PUSH2 0x1EE2 DUP3 PUSH2 0x1E7D JUMP JUMPDEST PUSH1 0x40 DUP3 ADD SWAP1 POP SWAP2 SWAP1 POP JUMP JUMPDEST PUSH0 PUSH1 0x20 DUP3 ADD SWAP1 POP DUP2 DUP2 SUB PUSH0 DUP4 ADD MSTORE PUSH2 0x1F04 DUP2 PUSH2 0x1ECB JUMP JUMPDEST SWAP1 POP SWAP2 SWAP1 POP JUMP JUMPDEST PUSH32 0x596F752063616E6E6F7420706C616365206120626964206F6E20796F7572206F PUSH0 DUP3 ADD MSTORE PUSH32 0x776E2061756374696F6E00000000000000000000000000000000000000000000 PUSH1 0x20 DUP3 ADD MSTORE POP JUMP JUMPDEST PUSH0 PUSH2 0x1F65 PUSH1 0x2A DUP4 PUSH2 0x1938 JUMP JUMPDEST SWAP2 POP PUSH2 0x1F70 DUP3 PUSH2 0x1F0B JUMP JUMPDEST PUSH1 0x40 DUP3 ADD SWAP1 POP SWAP2 SWAP1 POP JUMP JUMPDEST PUSH0 PUSH1 0x20 DUP3 ADD SWAP1 POP DUP2 DUP2 SUB PUSH0 DUP4 ADD MSTORE PUSH2 0x1F92 DUP2 PUSH2 0x1F59 JUMP JUMPDEST SWAP1 POP SWAP2 SWAP1 POP JUMP JUMPDEST PUSH0 PUSH2 0x1FA3 DUP3 PUSH2 0x1774 JUMP JUMPDEST SWAP2 POP PUSH2 0x1FAE DUP4 PUSH2 0x1774 JUMP JUMPDEST SWAP3 POP DUP3 DUP3 MUL PUSH2 0x1FBC DUP2 PUSH2 0x1774 JUMP JUMPDEST SWAP2 POP DUP3 DUP3 DIV DUP5 EQ DUP4 ISZERO OR PUSH2 0x1FD3 JUMPI PUSH2 0x1FD2 PUSH2 0x1BC9 JUMP JUMPDEST JUMPDEST POP SWAP3 SWAP2 POP POP JUMP JUMPDEST PUSH32 0x4E487B7100000000000000000000000000000000000000000000000000000000 PUSH0 MSTORE PUSH1 0x12 PUSH1 0x4 MSTORE PUSH1 0x24 PUSH0 REVERT JUMPDEST PUSH0 PUSH2 0x2011 DUP3 PUSH2 0x1774 JUMP JUMPDEST SWAP2 POP PUSH2 0x201C DUP4 PUSH2 0x1774 JUMP JUMPDEST SWAP3 POP DUP3 PUSH2 0x202C JUMPI PUSH2 0x202B PUSH2 0x1FDA JUMP JUMPDEST JUMPDEST DUP3 DUP3 DIV SWAP1 POP SWAP3 SWAP2 POP POP JUMP JUMPDEST PUSH32 0x546865206465706F736974206D757374206265206174206C6561737420313025 PUSH0 DUP3 ADD MSTORE PUSH32 0x206F662074686520626964000000000000000000000000000000000000000000 PUSH1 0x20 DUP3 ADD MSTORE POP JUMP JUMPDEST PUSH0 PUSH2 0x2091 PUSH1 0x2B DUP4 PUSH2 0x1938 JUMP JUMPDEST SWAP2 POP PUSH2 0x209C DUP3 PUSH2 0x2037 JUMP JUMPDEST PUSH1 0x40 DUP3 ADD SWAP1 POP SWAP2 SWAP1 POP JUMP JUMPDEST PUSH0 PUSH1 0x20 DUP3 ADD SWAP1 POP DUP2 DUP2 SUB PUSH0 DUP4 ADD MSTORE PUSH2 0x20BE DUP2 PUSH2 0x2085 JUMP JUMPDEST SWAP1 POP SWAP2 SWAP1 POP JUMP JUMPDEST PUSH32 0x41756374696F6E20636C6F736564000000000000000000000000000000000000 PUSH0 DUP3 ADD MSTORE POP JUMP JUMPDEST PUSH0 PUSH2 0x20F9 PUSH1 0xE DUP4 PUSH2 0x1938 JUMP JUMPDEST SWAP2 POP PUSH2 0x2104 DUP3 PUSH2 0x20C5 JUMP JUMPDEST PUSH1 0x20 DUP3 ADD SWAP1 POP SWAP2 SWAP1 POP JUMP JUMPDEST PUSH0 PUSH1 0x20 DUP3 ADD SWAP1 POP DUP2 DUP2 SUB PUSH0 DUP4 ADD MSTORE PUSH2 0x2126 DUP2 PUSH2 0x20ED JUMP JUMPDEST SWAP1 POP SWAP2 SWAP1 POP JUMP JUMPDEST PUSH32 0x5468652061756374696F6E2063616E6E6F7420626520636C6F73656420656172 PUSH0 DUP3 ADD MSTORE PUSH32 0x6C69657200000000000000000000000000000000000000000000000000000000 PUSH1 0x20 DUP3 ADD MSTORE POP JUMP JUMPDEST PUSH0 PUSH2 0x2187 PUSH1 0x24 DUP4 PUSH2 0x1938 JUMP JUMPDEST SWAP2 POP PUSH2 0x2192 DUP3 PUSH2 0x212D JUMP JUMPDEST PUSH1 0x40 DUP3 ADD SWAP1 POP SWAP2 SWAP1 POP JUMP JUMPDEST PUSH0 PUSH1 0x20 DUP3 ADD SWAP1 POP DUP2 DUP2 SUB PUSH0 DUP4 ADD MSTORE PUSH2 0x21B4 DUP2 PUSH2 0x217B JUMP JUMPDEST SWAP1 POP SWAP2 SWAP1 POP JUMP JUMPDEST PUSH0 PUSH1 0x40 DUP3 ADD SWAP1 POP PUSH2 0x21CE PUSH0 DUP4 ADD DUP6 PUSH2 0x177D JUMP JUMPDEST PUSH2 0x21DB PUSH1 0x20 DUP4 ADD DUP5 PUSH2 0x177D JUMP JUMPDEST SWAP4 SWAP3 POP POP POP JUMP JUMPDEST PUSH32 0x4E6F206F66666572730000000000000000000000000000000000000000000000 PUSH0 DUP3 ADD MSTORE POP JUMP JUMPDEST PUSH0 PUSH2 0x2216 PUSH1 0x9 DUP4 PUSH2 0x1938 JUMP JUMPDEST SWAP2 POP PUSH2 0x2221 DUP3 PUSH2 0x21E2 JUMP JUMPDEST PUSH1 0x20 DUP3 ADD SWAP1 POP SWAP2 SWAP1 POP JUMP JUMPDEST PUSH0 PUSH1 0x20 DUP3 ADD SWAP1 POP DUP2 DUP2 SUB PUSH0 DUP4 ADD MSTORE PUSH2 0x2243 DUP2 PUSH2 0x220A JUMP JUMPDEST SWAP1 POP SWAP2 SWAP1 POP JUMP INVALID LOG2 PUSH5 0x6970667358 0x22 SLT KECCAK256 DUP11 LOG2 SWAP11 GT CALLDATALOAD CALLDATASIZE LOG4 PUSH7 0xA044F59B87D849 LOG3 DIV 0xBE DUP4 SHL EXP CODESIZE PUSH16 0x1C890B00EB9E15ECBD64736F6C634300 ADDMOD 0x1E STOP CALLER "
				},
				"gasEstimates": {
					"creation": {
						"codeDepositCost": "1766400",
						"executionCost": "infinite",
						"totalCost": "infinite"
					},
					"external": {
						"DEPOSIT_PERCENTAGE()": "436",
						"MAX_BIDDERS()": "370",
						"auctionEnd()": "2515",
						"auctionStart()": "2514",
						"bidders(uint256)": "4988",
						"bids(uint256)": "infinite",
						"deliveryDueDate()": "2491",
						"deliveryReceived()": "infinite",
						"finalizeAuction()": "infinite",
						"getBidCount()": "2508",
						"hasAlreadyBid(address)": "infinite",
						"maxBid()": "2470",
						"notDelivered()": "infinite",
						"numBidders()": "2557",
						"owner()": "2574",
						"placeBid(uint256)": "infinite",
						"returnDeposits()": "infinite",
						"state()": "2665",
						"winner()": "2596",
						"winnerDeposit()": "2492",
						"winningPrice()": "2447"
					},
					"internal": {
						"_determineWinner()": "infinite",
						"_finalizeAuction()": "infinite"
					}
				},
				"methodIdentifiers": {
					"DEPOSIT_PERCENTAGE()": "5a84d52a",
					"MAX_BIDDERS()": "4cc4f50d",
					"auctionEnd()": "2a24f46c",
					"auctionStart()": "4f245ef7",
					"bidders(uint256)": "cff29dfd",
					"bids(uint256)": "4423c5f1",
					"deliveryDueDate()": "d3124946",
					"deliveryReceived()": "5d7e0b51",
					"finalizeAuction()": "f77282ab",
					"getBidCount()": "28f6a48a",
					"hasAlreadyBid(address)": "235f0e46",
					"maxBid()": "74b11d8a",
					"notDelivered()": "11d72e47",
					"numBidders()": "fb4cd8e2",
					"owner()": "8da5cb5b",
					"placeBid(uint256)": "9979ef45",
					"returnDeposits()": "362e2565",
					"state()": "c19d93fb",
					"winner()": "dfbf53ae",
					"winnerDeposit()": "4e9edd1b",
					"winningPrice()": "c1f52604"
				}
			},
			"storageLayout": {
				"storage": [
					{
						"astId": 3,
						"contract": "contracts/subasta.sol:VickreyAuctionSimple",
						"label": "owner",
						"offset": 0,
						"slot": "0",
						"type": "t_address_payable"
					},
					{
						"astId": 5,
						"contract": "contracts/subasta.sol:VickreyAuctionSimple",
						"label": "auctionStart",
						"offset": 0,
						"slot": "1",
						"type": "t_uint256"
					},
					{
						"astId": 7,
						"contract": "contracts/subasta.sol:VickreyAuctionSimple",
						"label": "auctionEnd",
						"offset": 0,
						"slot": "2",
						"type": "t_uint256"
					},
					{
						"astId": 9,
						"contract": "contracts/subasta.sol:VickreyAuctionSimple",
						"label": "deliveryDueDate",
						"offset": 0,
						"slot": "3",
						"type": "t_uint256"
					},
					{
						"astId": 11,
						"contract": "contracts/subasta.sol:VickreyAuctionSimple",
						"label": "maxBid",
						"offset": 0,
						"slot": "4",
						"type": "t_uint256"
					},
					{
						"astId": 13,
						"contract": "contracts/subasta.sol:VickreyAuctionSimple",
						"label": "numBidders",
						"offset": 0,
						"slot": "5",
						"type": "t_uint256"
					},
					{
						"astId": 26,
						"contract": "contracts/subasta.sol:VickreyAuctionSimple",
						"label": "state",
						"offset": 0,
						"slot": "6",
						"type": "t_enum(AuctionState)23"
					},
					{
						"astId": 41,
						"contract": "contracts/subasta.sol:VickreyAuctionSimple",
						"label": "bids",
						"offset": 0,
						"slot": "7",
						"type": "t_array(t_struct(Bid)37_storage)dyn_storage"
					},
					{
						"astId": 44,
						"contract": "contracts/subasta.sol:VickreyAuctionSimple",
						"label": "bidders",
						"offset": 0,
						"slot": "8",
						"type": "t_array(t_address)dyn_storage"
					},
					{
						"astId": 46,
						"contract": "contracts/subasta.sol:VickreyAuctionSimple",
						"label": "winner",
						"offset": 0,
						"slot": "9",
						"type": "t_address_payable"
					},
					{
						"astId": 48,
						"contract": "contracts/subasta.sol:VickreyAuctionSimple",
						"label": "winningPrice",
						"offset": 0,
						"slot": "10",
						"type": "t_uint256"
					},
					{
						"astId": 50,
						"contract": "contracts/subasta.sol:VickreyAuctionSimple",
						"label": "winnerDeposit",
						"offset": 0,
						"slot": "11",
						"type": "t_uint256"
					}
				],
				"types": {
					"t_address": {
						"encoding": "inplace",
						"label": "address",
						"numberOfBytes": "20"
					},
					"t_address_payable": {
						"encoding": "inplace",
						"label": "address payable",
						"numberOfBytes": "20"
					},
					"t_array(t_address)dyn_storage": {
						"base": "t_address",
						"encoding": "dynamic_array",
						"label": "address[]",
						"numberOfBytes": "32"
					},
					"t_array(t_struct(Bid)37_storage)dyn_storage": {
						"base": "t_struct(Bid)37_storage",
						"encoding": "dynamic_array",
						"label": "struct VickreyAuctionSimple.Bid[]",
						"numberOfBytes": "32"
					},
					"t_bool": {
						"encoding": "inplace",
						"label": "bool",
						"numberOfBytes": "1"
					},
					"t_enum(AuctionState)23": {
						"encoding": "inplace",
						"label": "enum VickreyAuctionSimple.AuctionState",
						"numberOfBytes": "1"
					},
					"t_struct(Bid)37_storage": {
						"encoding": "inplace",
						"label": "struct VickreyAuctionSimple.Bid",
						"members": [
							{
								"astId": 28,
								"contract": "contracts/subasta.sol:VickreyAuctionSimple",
								"label": "bidder",
								"offset": 0,
								"slot": "0",
								"type": "t_address_payable"
							},
							{
								"astId": 30,
								"contract": "contracts/subasta.sol:VickreyAuctionSimple",
								"label": "amount",
								"offset": 0,
								"slot": "1",
								"type": "t_uint256"
							},
							{
								"astId": 32,
								"contract": "contracts/subasta.sol:VickreyAuctionSimple",
								"label": "deposit",
								"offset": 0,
								"slot": "2",
								"type": "t_uint256"
							},
							{
								"astId": 34,
								"contract": "contracts/subasta.sol:VickreyAuctionSimple",
								"label": "timestamp",
								"offset": 0,
								"slot": "3",
								"type": "t_uint256"
							},
							{
								"astId": 36,
								"contract": "contracts/subasta.sol:VickreyAuctionSimple",
								"label": "depositReturned",
								"offset": 0,
								"slot": "4",
								"type": "t_bool"
							}
						],
						"numberOfBytes": "160"
					},
					"t_uint256": {
						"encoding": "inplace",
						"label": "uint256",
						"numberOfBytes": "32"
					}
				}
			},
			"userdoc": {
				"kind": "user",
				"methods": {},
				"version": 1
			}
		}
	}
}