{
	"contracts/subasta.sol": {
		"VickreyAuctionSimple": {
			"abi": [
				{
					"inputs": [
						{
							"internalType": "uint256",
							"name": "_startDate",
							"type": "uint256"
						},
						{
							"internalType": "uint256",
							"name": "_endDate",
							"type": "uint256"
						},
						{
							"internalType": "uint256",
							"name": "_maxBid",
							"type": "uint256"
						}
					],
					"stateMutability": "payable",
					"type": "constructor"
				},
				{
					"anonymous": false,
					"inputs": [
						{
							"indexed": true,
							"internalType": "address",
							"name": "winner",
							"type": "address"
						},
						{
							"indexed": false,
							"internalType": "uint256",
							"name": "winnerDeposit",
							"type": "uint256"
						},
						{
							"indexed": false,
							"internalType": "uint256",
							"name": "winningPrice",
							"type": "uint256"
						}
					],
					"name": "AuctionClosed",
					"type": "event"
				},
				{
					"anonymous": false,
					"inputs": [
						{
							"indexed": true,
							"internalType": "address",
							"name": "bidder",
							"type": "address"
						}
					],
					"name": "BidPlaced",
					"type": "event"
				},
				{
					"anonymous": false,
					"inputs": [
						{
							"indexed": true,
							"internalType": "address",
							"name": "bidder",
							"type": "address"
						},
						{
							"indexed": false,
							"internalType": "uint256",
							"name": "amount",
							"type": "uint256"
						}
					],
					"name": "DepositReturned",
					"type": "event"
				},
				{
					"inputs": [],
					"name": "DEPOSIT_PERCENTAGE",
					"outputs": [
						{
							"internalType": "uint256",
							"name": "",
							"type": "uint256"
						}
					],
					"stateMutability": "view",
					"type": "function"
				},
				{
					"inputs": [],
					"name": "MAX_BIDDERS",
					"outputs": [
						{
							"internalType": "uint256",
							"name": "",
							"type": "uint256"
						}
					],
					"stateMutability": "view",
					"type": "function"
				},
				{
					"inputs": [],
					"name": "auctionEnd",
					"outputs": [
						{
							"internalType": "uint256",
							"name": "",
							"type": "uint256"
						}
					],
					"stateMutability": "view",
					"type": "function"
				},
				{
					"inputs": [],
					"name": "auctionStart",
					"outputs": [
						{
							"internalType": "uint256",
							"name": "",
							"type": "uint256"
						}
					],
					"stateMutability": "view",
					"type": "function"
				},
				{
					"inputs": [],
					"name": "deliveryDueDate",
					"outputs": [
						{
							"internalType": "uint256",
							"name": "",
							"type": "uint256"
						}
					],
					"stateMutability": "view",
					"type": "function"
				},
				{
					"inputs": [],
					"name": "deliveryReceived",
					"outputs": [],
					"stateMutability": "payable",
					"type": "function"
				},
				{
					"inputs": [],
					"name": "finalizeAuction",
					"outputs": [],
					"stateMutability": "nonpayable",
					"type": "function"
				},
				{
					"inputs": [],
					"name": "getBidCount",
					"outputs": [
						{
							"internalType": "uint256",
							"name": "",
							"type": "uint256"
						}
					],
					"stateMutability": "view",
					"type": "function"
				},
				{
					"inputs": [
						{
							"internalType": "address",
							"name": "bidder",
							"type": "address"
						}
					],
					"name": "hasAlreadyBid",
					"outputs": [
						{
							"internalType": "bool",
							"name": "",
							"type": "bool"
						}
					],
					"stateMutability": "view",
					"type": "function"
				},
				{
					"inputs": [],
					"name": "maxBid",
					"outputs": [
						{
							"internalType": "uint256",
							"name": "",
							"type": "uint256"
						}
					],
					"stateMutability": "view",
					"type": "function"
				},
				{
					"inputs": [],
					"name": "notDelivered",
					"outputs": [],
					"stateMutability": "payable",
					"type": "function"
				},
				{
					"inputs": [],
					"name": "numBidders",
					"outputs": [
						{
							"internalType": "uint256",
							"name": "",
							"type": "uint256"
						}
					],
					"stateMutability": "view",
					"type": "function"
				},
				{
					"inputs": [],
					"name": "owner",
					"outputs": [
						{
							"internalType": "address payable",
							"name": "",
							"type": "address"
						}
					],
					"stateMutability": "view",
					"type": "function"
				},
				{
					"inputs": [
						{
							"internalType": "uint256",
							"name": "_amount",
							"type": "uint256"
						}
					],
					"name": "placeBid",
					"outputs": [],
					"stateMutability": "payable",
					"type": "function"
				},
				{
					"inputs": [],
					"name": "returnDeposits",
					"outputs": [],
					"stateMutability": "nonpayable",
					"type": "function"
				},
				{
					"inputs": [],
					"name": "state",
					"outputs": [
						{
							"internalType": "enum VickreyAuctionSimple.AuctionState",
							"name": "",
							"type": "uint8"
						}
					],
					"stateMutability": "view",
					"type": "function"
				},
				{
					"inputs": [],
					"name": "winner",
					"outputs": [
						{
							"internalType": "address payable",
							"name": "",
							"type": "address"
						}
					],
					"stateMutability": "view",
					"type": "function"
				},
				{
					"inputs": [],
					"name": "winnerDeposit",
					"outputs": [
						{
							"internalType": "uint256",
							"name": "",
							"type": "uint256"
						}
					],
					"stateMutability": "view",
					"type": "function"
				},
				{
					"inputs": [],
					"name": "winningPrice",
					"outputs": [
						{
							"internalType": "uint256",
							"name": "",
							"type": "uint256"
						}
					],
					"stateMutability": "view",
					"type": "function"
				}
			],
			"devdoc": {
				"kind": "dev",
				"methods": {},
				"version": 1
			},
			"evm": {
				"assembly": "    /* \"contracts/subasta.sol\":57:5742  contract VickreyAuctionSimple {... */\n  mstore(0x40, 0x80)\n    /* \"contracts/subasta.sol\":1340:1718  constructor(... */\n  mload(0x40)\n  sub(codesize, bytecodeSize)\n  dup1\n  bytecodeSize\n  dup4\n  codecopy\n  dup2\n  dup2\n  add\n  0x40\n  mstore\n  dup2\n  add\n  swap1\n  tag_1\n  swap2\n  swap1\n  tag_2\n  jump\t// in\ntag_1:\n    /* \"contracts/subasta.sol\":1476:1483  _maxBid */\n  dup1\n    /* \"contracts/subasta.sol\":1463:1472  msg.value */\n  callvalue\n    /* \"contracts/subasta.sol\":1463:1483  msg.value >= _maxBid */\n  lt\n  iszero\n    /* \"contracts/subasta.sol\":1455:1546  require(msg.value >= _maxBid, \"You have to deposit the amount of the maximum possible bid\") */\n  tag_5\n  jumpi\n  mload(0x40)\n  0x08c379a000000000000000000000000000000000000000000000000000000000\n  dup2\n  mstore\n  0x04\n  add\n  tag_6\n  swap1\n  tag_7\n  jump\t// in\ntag_6:\n  mload(0x40)\n  dup1\n  swap2\n  sub\n  swap1\n  revert\ntag_5:\n    /* \"contracts/subasta.sol\":1573:1583  msg.sender */\n  caller\n    /* \"contracts/subasta.sol\":1557:1562  owner */\n  0x00\n  0x00\n    /* \"contracts/subasta.sol\":1557:1584  owner = payable(msg.sender) */\n  0x0100\n  exp\n  dup2\n  sload\n  dup2\n  0xffffffffffffffffffffffffffffffffffffffff\n  mul\n  not\n  and\n  swap1\n  dup4\n  0xffffffffffffffffffffffffffffffffffffffff\n  and\n  mul\n  or\n  swap1\n  sstore\n  pop\n    /* \"contracts/subasta.sol\":1609:1619  _startDate */\n  dup3\n    /* \"contracts/subasta.sol\":1594:1606  auctionStart */\n  0x01\n    /* \"contracts/subasta.sol\":1594:1619  auctionStart = _startDate */\n  dup2\n  swap1\n  sstore\n  pop\n    /* \"contracts/subasta.sol\":1642:1650  _endDate */\n  dup2\n    /* \"contracts/subasta.sol\":1629:1639  auctionEnd */\n  0x02\n    /* \"contracts/subasta.sol\":1629:1650  auctionEnd = _endDate */\n  dup2\n  swap1\n  sstore\n  pop\n    /* \"contracts/subasta.sol\":1669:1676  _maxBid */\n  dup1\n    /* \"contracts/subasta.sol\":1660:1666  maxBid */\n  0x04\n    /* \"contracts/subasta.sol\":1660:1676  maxBid = _maxBid */\n  dup2\n  swap1\n  sstore\n  pop\n    /* \"contracts/subasta.sol\":1694:1711  AuctionState.Open */\n  0x00\n    /* \"contracts/subasta.sol\":1686:1691  state */\n  0x06\n  0x00\n    /* \"contracts/subasta.sol\":1686:1711  state = AuctionState.Open */\n  0x0100\n  exp\n  dup2\n  sload\n  dup2\n  0xff\n  mul\n  not\n  and\n  swap1\n  dup4\n  0x02\n  dup2\n  gt\n  iszero\n  tag_8\n  jumpi\n  tag_9\n  tag_10\n  jump\t// in\ntag_9:\ntag_8:\n  mul\n  or\n  swap1\n  sstore\n  pop\n    /* \"contracts/subasta.sol\":1340:1718  constructor(... */\n  pop\n  pop\n  pop\n    /* \"contracts/subasta.sol\":57:5742  contract VickreyAuctionSimple {... */\n  jump(tag_11)\n    /* \"#utility.yul\":88:205   */\ntag_13:\n    /* \"#utility.yul\":197:198   */\n  0x00\n    /* \"#utility.yul\":194:195   */\n  0x00\n    /* \"#utility.yul\":187:199   */\n  revert\n    /* \"#utility.yul\":334:411   */\ntag_15:\n    /* \"#utility.yul\":371:378   */\n  0x00\n    /* \"#utility.yul\":400:405   */\n  dup2\n    /* \"#utility.yul\":389:405   */\n  swap1\n  pop\n    /* \"#utility.yul\":334:411   */\n  swap2\n  swap1\n  pop\n  jump\t// out\n    /* \"#utility.yul\":417:539   */\ntag_16:\n    /* \"#utility.yul\":490:514   */\n  tag_27\n    /* \"#utility.yul\":508:513   */\n  dup2\n    /* \"#utility.yul\":490:514   */\n  tag_15\n  jump\t// in\ntag_27:\n    /* \"#utility.yul\":483:488   */\n  dup2\n    /* \"#utility.yul\":480:515   */\n  eq\n    /* \"#utility.yul\":470:533   */\n  tag_28\n  jumpi\n    /* \"#utility.yul\":529:530   */\n  0x00\n    /* \"#utility.yul\":526:527   */\n  0x00\n    /* \"#utility.yul\":519:531   */\n  revert\n    /* \"#utility.yul\":470:533   */\ntag_28:\n    /* \"#utility.yul\":417:539   */\n  pop\n  jump\t// out\n    /* \"#utility.yul\":545:688   */\ntag_17:\n    /* \"#utility.yul\":602:607   */\n  0x00\n    /* \"#utility.yul\":633:639   */\n  dup2\n    /* \"#utility.yul\":627:640   */\n  mload\n    /* \"#utility.yul\":618:640   */\n  swap1\n  pop\n    /* \"#utility.yul\":649:682   */\n  tag_30\n    /* \"#utility.yul\":676:681   */\n  dup2\n    /* \"#utility.yul\":649:682   */\n  tag_16\n  jump\t// in\ntag_30:\n    /* \"#utility.yul\":545:688   */\n  swap3\n  swap2\n  pop\n  pop\n  jump\t// out\n    /* \"#utility.yul\":694:1357   */\ntag_2:\n    /* \"#utility.yul\":782:788   */\n  0x00\n    /* \"#utility.yul\":790:796   */\n  0x00\n    /* \"#utility.yul\":798:804   */\n  0x00\n    /* \"#utility.yul\":847:849   */\n  0x60\n    /* \"#utility.yul\":835:844   */\n  dup5\n    /* \"#utility.yul\":826:833   */\n  dup7\n    /* \"#utility.yul\":822:845   */\n  sub\n    /* \"#utility.yul\":818:850   */\n  slt\n    /* \"#utility.yul\":815:934   */\n  iszero\n  tag_32\n  jumpi\n    /* \"#utility.yul\":853:932   */\n  tag_33\n  tag_13\n  jump\t// in\ntag_33:\n    /* \"#utility.yul\":815:934   */\ntag_32:\n    /* \"#utility.yul\":973:974   */\n  0x00\n    /* \"#utility.yul\":998:1062   */\n  tag_34\n    /* \"#utility.yul\":1054:1061   */\n  dup7\n    /* \"#utility.yul\":1045:1051   */\n  dup3\n    /* \"#utility.yul\":1034:1043   */\n  dup8\n    /* \"#utility.yul\":1030:1052   */\n  add\n    /* \"#utility.yul\":998:1062   */\n  tag_17\n  jump\t// in\ntag_34:\n    /* \"#utility.yul\":988:1062   */\n  swap4\n  pop\n    /* \"#utility.yul\":944:1072   */\n  pop\n    /* \"#utility.yul\":1111:1113   */\n  0x20\n    /* \"#utility.yul\":1137:1201   */\n  tag_35\n    /* \"#utility.yul\":1193:1200   */\n  dup7\n    /* \"#utility.yul\":1184:1190   */\n  dup3\n    /* \"#utility.yul\":1173:1182   */\n  dup8\n    /* \"#utility.yul\":1169:1191   */\n  add\n    /* \"#utility.yul\":1137:1201   */\n  tag_17\n  jump\t// in\ntag_35:\n    /* \"#utility.yul\":1127:1201   */\n  swap3\n  pop\n    /* \"#utility.yul\":1082:1211   */\n  pop\n    /* \"#utility.yul\":1250:1252   */\n  0x40\n    /* \"#utility.yul\":1276:1340   */\n  tag_36\n    /* \"#utility.yul\":1332:1339   */\n  dup7\n    /* \"#utility.yul\":1323:1329   */\n  dup3\n    /* \"#utility.yul\":1312:1321   */\n  dup8\n    /* \"#utility.yul\":1308:1330   */\n  add\n    /* \"#utility.yul\":1276:1340   */\n  tag_17\n  jump\t// in\ntag_36:\n    /* \"#utility.yul\":1266:1340   */\n  swap2\n  pop\n    /* \"#utility.yul\":1221:1350   */\n  pop\n    /* \"#utility.yul\":694:1357   */\n  swap3\n  pop\n  swap3\n  pop\n  swap3\n  jump\t// out\n    /* \"#utility.yul\":1363:1532   */\ntag_18:\n    /* \"#utility.yul\":1447:1458   */\n  0x00\n    /* \"#utility.yul\":1481:1487   */\n  dup3\n    /* \"#utility.yul\":1476:1479   */\n  dup3\n    /* \"#utility.yul\":1469:1488   */\n  mstore\n    /* \"#utility.yul\":1521:1525   */\n  0x20\n    /* \"#utility.yul\":1516:1519   */\n  dup3\n    /* \"#utility.yul\":1512:1526   */\n  add\n    /* \"#utility.yul\":1497:1526   */\n  swap1\n  pop\n    /* \"#utility.yul\":1363:1532   */\n  swap3\n  swap2\n  pop\n  pop\n  jump\t// out\n    /* \"#utility.yul\":1538:1783   */\ntag_19:\n    /* \"#utility.yul\":1678:1712   */\n  0x596f75206861766520746f206465706f7369742074686520616d6f756e74206f\n    /* \"#utility.yul\":1674:1675   */\n  0x00\n    /* \"#utility.yul\":1666:1672   */\n  dup3\n    /* \"#utility.yul\":1662:1676   */\n  add\n    /* \"#utility.yul\":1655:1713   */\n  mstore\n    /* \"#utility.yul\":1747:1775   */\n  0x6620746865206d6178696d756d20706f737369626c6520626964000000000000\n    /* \"#utility.yul\":1742:1744   */\n  0x20\n    /* \"#utility.yul\":1734:1740   */\n  dup3\n    /* \"#utility.yul\":1730:1745   */\n  add\n    /* \"#utility.yul\":1723:1776   */\n  mstore\n    /* \"#utility.yul\":1538:1783   */\n  pop\n  jump\t// out\n    /* \"#utility.yul\":1789:2155   */\ntag_20:\n    /* \"#utility.yul\":1931:1934   */\n  0x00\n    /* \"#utility.yul\":1952:2019   */\n  tag_40\n    /* \"#utility.yul\":2016:2018   */\n  0x3a\n    /* \"#utility.yul\":2011:2014   */\n  dup4\n    /* \"#utility.yul\":1952:2019   */\n  tag_18\n  jump\t// in\ntag_40:\n    /* \"#utility.yul\":1945:2019   */\n  swap2\n  pop\n    /* \"#utility.yul\":2028:2121   */\n  tag_41\n    /* \"#utility.yul\":2117:2120   */\n  dup3\n    /* \"#utility.yul\":2028:2121   */\n  tag_19\n  jump\t// in\ntag_41:\n    /* \"#utility.yul\":2146:2148   */\n  0x40\n    /* \"#utility.yul\":2141:2144   */\n  dup3\n    /* \"#utility.yul\":2137:2149   */\n  add\n    /* \"#utility.yul\":2130:2149   */\n  swap1\n  pop\n    /* \"#utility.yul\":1789:2155   */\n  swap2\n  swap1\n  pop\n  jump\t// out\n    /* \"#utility.yul\":2161:2580   */\ntag_7:\n    /* \"#utility.yul\":2327:2331   */\n  0x00\n    /* \"#utility.yul\":2365:2367   */\n  0x20\n    /* \"#utility.yul\":2354:2363   */\n  dup3\n    /* \"#utility.yul\":2350:2368   */\n  add\n    /* \"#utility.yul\":2342:2368   */\n  swap1\n  pop\n    /* \"#utility.yul\":2414:2423   */\n  dup2\n    /* \"#utility.yul\":2408:2412   */\n  dup2\n    /* \"#utility.yul\":2404:2424   */\n  sub\n    /* \"#utility.yul\":2400:2401   */\n  0x00\n    /* \"#utility.yul\":2389:2398   */\n  dup4\n    /* \"#utility.yul\":2385:2402   */\n  add\n    /* \"#utility.yul\":2378:2425   */\n  mstore\n    /* \"#utility.yul\":2442:2573   */\n  tag_43\n    /* \"#utility.yul\":2568:2572   */\n  dup2\n    /* \"#utility.yul\":2442:2573   */\n  tag_20\n  jump\t// in\ntag_43:\n    /* \"#utility.yul\":2434:2573   */\n  swap1\n  pop\n    /* \"#utility.yul\":2161:2580   */\n  swap2\n  swap1\n  pop\n  jump\t// out\n    /* \"#utility.yul\":2586:2766   */\ntag_10:\n    /* \"#utility.yul\":2634:2711   */\n  0x4e487b7100000000000000000000000000000000000000000000000000000000\n    /* \"#utility.yul\":2631:2632   */\n  0x00\n    /* \"#utility.yul\":2624:2712   */\n  mstore\n    /* \"#utility.yul\":2731:2735   */\n  0x21\n    /* \"#utility.yul\":2728:2729   */\n  0x04\n    /* \"#utility.yul\":2721:2736   */\n  mstore\n    /* \"#utility.yul\":2755:2759   */\n  0x24\n    /* \"#utility.yul\":2752:2753   */\n  0x00\n    /* \"#utility.yul\":2745:2760   */\n  revert\n    /* \"contracts/subasta.sol\":57:5742  contract VickreyAuctionSimple {... */\ntag_11:\n  dataSize(sub_0)\n  dup1\n  dataOffset(sub_0)\n  0x00\n  codecopy\n  0x00\n  return\nstop\n\nsub_0: assembly {\n        /* \"contracts/subasta.sol\":57:5742  contract VickreyAuctionSimple {... */\n      mstore(0x40, 0x80)\n      jumpi(tag_1, lt(calldatasize, 0x04))\n      shr(0xe0, calldataload(0x00))\n      dup1\n      0x5d7e0b51\n      gt\n      tag_21\n      jumpi\n      dup1\n      0xc1f52604\n      gt\n      tag_22\n      jumpi\n      dup1\n      0xc1f52604\n      eq\n      tag_16\n      jumpi\n      dup1\n      0xd3124946\n      eq\n      tag_17\n      jumpi\n      dup1\n      0xdfbf53ae\n      eq\n      tag_18\n      jumpi\n      dup1\n      0xf77282ab\n      eq\n      tag_19\n      jumpi\n      dup1\n      0xfb4cd8e2\n      eq\n      tag_20\n      jumpi\n      jump(tag_1)\n    tag_22:\n      dup1\n      0x5d7e0b51\n      eq\n      tag_11\n      jumpi\n      dup1\n      0x74b11d8a\n      eq\n      tag_12\n      jumpi\n      dup1\n      0x8da5cb5b\n      eq\n      tag_13\n      jumpi\n      dup1\n      0x9979ef45\n      eq\n      tag_14\n      jumpi\n      dup1\n      0xc19d93fb\n      eq\n      tag_15\n      jumpi\n      jump(tag_1)\n    tag_21:\n      dup1\n      0x362e2565\n      gt\n      tag_23\n      jumpi\n      dup1\n      0x362e2565\n      eq\n      tag_6\n      jumpi\n      dup1\n      0x4cc4f50d\n      eq\n      tag_7\n      jumpi\n      dup1\n      0x4e9edd1b\n      eq\n      tag_8\n      jumpi\n      dup1\n      0x4f245ef7\n      eq\n      tag_9\n      jumpi\n      dup1\n      0x5a84d52a\n      eq\n      tag_10\n      jumpi\n      jump(tag_1)\n    tag_23:\n      dup1\n      0x11d72e47\n      eq\n      tag_2\n      jumpi\n      dup1\n      0x235f0e46\n      eq\n      tag_3\n      jumpi\n      dup1\n      0x28f6a48a\n      eq\n      tag_4\n      jumpi\n      dup1\n      0x2a24f46c\n      eq\n      tag_5\n      jumpi\n    tag_1:\n      revert(0x00, 0x00)\n        /* \"contracts/subasta.sol\":5440:5739  function notDelivered() public payable onlyOwner {... */\n    tag_2:\n      tag_24\n      tag_25\n      jump\t// in\n    tag_24:\n      stop\n        /* \"contracts/subasta.sol\":4693:4904  function hasAlreadyBid(address bidder) public view returns (bool) {... */\n    tag_3:\n      callvalue\n      dup1\n      iszero\n      tag_26\n      jumpi\n      revert(0x00, 0x00)\n    tag_26:\n      pop\n      tag_27\n      0x04\n      dup1\n      calldatasize\n      sub\n      dup2\n      add\n      swap1\n      tag_28\n      swap2\n      swap1\n      tag_29\n      jump\t// in\n    tag_28:\n      tag_30\n      jump\t// in\n    tag_27:\n      mload(0x40)\n      tag_31\n      swap2\n      swap1\n      tag_32\n      jump\t// in\n    tag_31:\n      mload(0x40)\n      dup1\n      swap2\n      sub\n      swap1\n      return\n        /* \"contracts/subasta.sol\":4911:4999  function getBidCount() public view returns (uint256) {... */\n    tag_4:\n      callvalue\n      dup1\n      iszero\n      tag_33\n      jumpi\n      revert(0x00, 0x00)\n    tag_33:\n      pop\n      tag_34\n      tag_35\n      jump\t// in\n    tag_34:\n      mload(0x40)\n      tag_36\n      swap2\n      swap1\n      tag_37\n      jump\t// in\n    tag_36:\n      mload(0x40)\n      dup1\n      swap2\n      sub\n      swap1\n      return\n        /* \"contracts/subasta.sol\":160:185  uint256 public auctionEnd */\n    tag_5:\n      callvalue\n      dup1\n      iszero\n      tag_38\n      jumpi\n      revert(0x00, 0x00)\n    tag_38:\n      pop\n      tag_39\n      tag_40\n      jump\t// in\n    tag_39:\n      mload(0x40)\n      tag_41\n      swap2\n      swap1\n      tag_37\n      jump\t// in\n    tag_41:\n      mload(0x40)\n      dup1\n      swap2\n      sub\n      swap1\n      return\n        /* \"contracts/subasta.sol\":4140:4686  function returnDeposits() external onlyOwner {... */\n    tag_6:\n      callvalue\n      dup1\n      iszero\n      tag_42\n      jumpi\n      revert(0x00, 0x00)\n    tag_42:\n      pop\n      tag_43\n      tag_44\n      jump\t// in\n    tag_43:\n      stop\n        /* \"contracts/subasta.sol\":285:324  uint256 public constant MAX_BIDDERS = 3 */\n    tag_7:\n      callvalue\n      dup1\n      iszero\n      tag_45\n      jumpi\n      revert(0x00, 0x00)\n    tag_45:\n      pop\n      tag_46\n      tag_47\n      jump\t// in\n    tag_46:\n      mload(0x40)\n      tag_48\n      swap2\n      swap1\n      tag_37\n      jump\t// in\n    tag_48:\n      mload(0x40)\n      dup1\n      swap2\n      sub\n      swap1\n      return\n        /* \"contracts/subasta.sol\":734:762  uint256 public winnerDeposit */\n    tag_8:\n      callvalue\n      dup1\n      iszero\n      tag_49\n      jumpi\n      revert(0x00, 0x00)\n    tag_49:\n      pop\n      tag_50\n      tag_51\n      jump\t// in\n    tag_50:\n      mload(0x40)\n      tag_52\n      swap2\n      swap1\n      tag_37\n      jump\t// in\n    tag_52:\n      mload(0x40)\n      dup1\n      swap2\n      sub\n      swap1\n      return\n        /* \"contracts/subasta.sol\":127:154  uint256 public auctionStart */\n    tag_9:\n      callvalue\n      dup1\n      iszero\n      tag_53\n      jumpi\n      revert(0x00, 0x00)\n    tag_53:\n      pop\n      tag_54\n      tag_55\n      jump\t// in\n    tag_54:\n      mload(0x40)\n      tag_56\n      swap2\n      swap1\n      tag_37\n      jump\t// in\n    tag_56:\n      mload(0x40)\n      dup1\n      swap2\n      sub\n      swap1\n      return\n        /* \"contracts/subasta.sol\":330:377  uint256 public constant DEPOSIT_PERCENTAGE = 10 */\n    tag_10:\n      callvalue\n      dup1\n      iszero\n      tag_57\n      jumpi\n      revert(0x00, 0x00)\n    tag_57:\n      pop\n      tag_58\n      tag_59\n      jump\t// in\n    tag_58:\n      mload(0x40)\n      tag_60\n      swap2\n      swap1\n      tag_37\n      jump\t// in\n    tag_60:\n      mload(0x40)\n      dup1\n      swap2\n      sub\n      swap1\n      return\n        /* \"contracts/subasta.sol\":5027:5379  function deliveryReceived() public payable onlyOwner {... */\n    tag_11:\n      tag_61\n      tag_62\n      jump\t// in\n    tag_61:\n      stop\n        /* \"contracts/subasta.sol\":227:248  uint256 public maxBid */\n    tag_12:\n      callvalue\n      dup1\n      iszero\n      tag_63\n      jumpi\n      revert(0x00, 0x00)\n    tag_63:\n      pop\n      tag_64\n      tag_65\n      jump\t// in\n    tag_64:\n      mload(0x40)\n      tag_66\n      swap2\n      swap1\n      tag_37\n      jump\t// in\n    tag_66:\n      mload(0x40)\n      dup1\n      swap2\n      sub\n      swap1\n      return\n        /* \"contracts/subasta.sol\":93:121  address payable public owner */\n    tag_13:\n      callvalue\n      dup1\n      iszero\n      tag_67\n      jumpi\n      revert(0x00, 0x00)\n    tag_67:\n      pop\n      tag_68\n      tag_69\n      jump\t// in\n    tag_68:\n      mload(0x40)\n      tag_70\n      swap2\n      swap1\n      tag_71\n      jump\t// in\n    tag_70:\n      mload(0x40)\n      dup1\n      swap2\n      sub\n      swap1\n      return\n        /* \"contracts/subasta.sol\":1725:2539  function placeBid(uint256 _amount) external payable auctionOpen {... */\n    tag_14:\n      tag_72\n      0x04\n      dup1\n      calldatasize\n      sub\n      dup2\n      add\n      swap1\n      tag_73\n      swap2\n      swap1\n      tag_74\n      jump\t// in\n    tag_73:\n      tag_75\n      jump\t// in\n    tag_72:\n      stop\n        /* \"contracts/subasta.sol\":438:463  AuctionState public state */\n    tag_15:\n      callvalue\n      dup1\n      iszero\n      tag_76\n      jumpi\n      revert(0x00, 0x00)\n    tag_76:\n      pop\n      tag_77\n      tag_78\n      jump\t// in\n    tag_77:\n      mload(0x40)\n      tag_79\n      swap2\n      swap1\n      tag_80\n      jump\t// in\n    tag_79:\n      mload(0x40)\n      dup1\n      swap2\n      sub\n      swap1\n      return\n        /* \"contracts/subasta.sol\":701:728  uint256 public winningPrice */\n    tag_16:\n      callvalue\n      dup1\n      iszero\n      tag_81\n      jumpi\n      revert(0x00, 0x00)\n    tag_81:\n      pop\n      tag_82\n      tag_83\n      jump\t// in\n    tag_82:\n      mload(0x40)\n      tag_84\n      swap2\n      swap1\n      tag_37\n      jump\t// in\n    tag_84:\n      mload(0x40)\n      dup1\n      swap2\n      sub\n      swap1\n      return\n        /* \"contracts/subasta.sol\":191:221  uint256 public deliveryDueDate */\n    tag_17:\n      callvalue\n      dup1\n      iszero\n      tag_85\n      jumpi\n      revert(0x00, 0x00)\n    tag_85:\n      pop\n      tag_86\n      tag_87\n      jump\t// in\n    tag_86:\n      mload(0x40)\n      tag_88\n      swap2\n      swap1\n      tag_37\n      jump\t// in\n    tag_88:\n      mload(0x40)\n      dup1\n      swap2\n      sub\n      swap1\n      return\n        /* \"contracts/subasta.sol\":666:695  address payable public winner */\n    tag_18:\n      callvalue\n      dup1\n      iszero\n      tag_89\n      jumpi\n      revert(0x00, 0x00)\n    tag_89:\n      pop\n      tag_90\n      tag_91\n      jump\t// in\n    tag_90:\n      mload(0x40)\n      tag_92\n      swap2\n      swap1\n      tag_71\n      jump\t// in\n    tag_92:\n      mload(0x40)\n      dup1\n      swap2\n      sub\n      swap1\n      return\n        /* \"contracts/subasta.sol\":2545:2806  function finalizeAuction() external onlyOwner {... */\n    tag_19:\n      callvalue\n      dup1\n      iszero\n      tag_93\n      jumpi\n      revert(0x00, 0x00)\n    tag_93:\n      pop\n      tag_94\n      tag_95\n      jump\t// in\n    tag_94:\n      stop\n        /* \"contracts/subasta.sol\":254:279  uint256 public numBidders */\n    tag_20:\n      callvalue\n      dup1\n      iszero\n      tag_96\n      jumpi\n      revert(0x00, 0x00)\n    tag_96:\n      pop\n      tag_97\n      tag_98\n      jump\t// in\n    tag_97:\n      mload(0x40)\n      tag_99\n      swap2\n      swap1\n      tag_37\n      jump\t// in\n    tag_99:\n      mload(0x40)\n      dup1\n      swap2\n      sub\n      swap1\n      return\n        /* \"contracts/subasta.sol\":5440:5739  function notDelivered() public payable onlyOwner {... */\n    tag_25:\n        /* \"contracts/subasta.sol\":1033:1038  owner */\n      0x00\n      0x00\n      swap1\n      sload\n      swap1\n      0x0100\n      exp\n      swap1\n      div\n      0xffffffffffffffffffffffffffffffffffffffff\n      and\n        /* \"contracts/subasta.sol\":1019:1038  msg.sender == owner */\n      0xffffffffffffffffffffffffffffffffffffffff\n      and\n        /* \"contracts/subasta.sol\":1019:1029  msg.sender */\n      caller\n        /* \"contracts/subasta.sol\":1019:1038  msg.sender == owner */\n      0xffffffffffffffffffffffffffffffffffffffff\n      and\n      eq\n        /* \"contracts/subasta.sol\":1011:1080  require(msg.sender == owner, \"Only the owner can call this function\") */\n      tag_101\n      jumpi\n      mload(0x40)\n      0x08c379a000000000000000000000000000000000000000000000000000000000\n      dup2\n      mstore\n      0x04\n      add\n      tag_102\n      swap1\n      tag_103\n      jump\t// in\n    tag_102:\n      mload(0x40)\n      dup1\n      swap2\n      sub\n      swap1\n      revert\n    tag_101:\n        /* \"contracts/subasta.sol\":5516:5538  AuctionState.Completed */\n      0x02\n        /* \"contracts/subasta.sol\":5507:5538  state == AuctionState.Completed */\n      dup1\n      dup2\n      gt\n      iszero\n      tag_105\n      jumpi\n      tag_106\n      tag_107\n      jump\t// in\n    tag_106:\n    tag_105:\n        /* \"contracts/subasta.sol\":5507:5512  state */\n      0x06\n      0x00\n      swap1\n      sload\n      swap1\n      0x0100\n      exp\n      swap1\n      div\n      0xff\n      and\n        /* \"contracts/subasta.sol\":5507:5538  state == AuctionState.Completed */\n      0x02\n      dup2\n      gt\n      iszero\n      tag_108\n      jumpi\n      tag_109\n      tag_107\n      jump\t// in\n    tag_109:\n    tag_108:\n      eq\n        /* \"contracts/subasta.sol\":5499:5598  require(state == AuctionState.Completed, \"Auction still open or didn't paid back the deposits yet\") */\n      tag_110\n      jumpi\n      mload(0x40)\n      0x08c379a000000000000000000000000000000000000000000000000000000000\n      dup2\n      mstore\n      0x04\n      add\n      tag_111\n      swap1\n      tag_112\n      jump\t// in\n    tag_111:\n      mload(0x40)\n      dup1\n      swap2\n      sub\n      swap1\n      revert\n    tag_110:\n        /* \"contracts/subasta.sol\":5634:5649  deliveryDueDate */\n      sload(0x03)\n        /* \"contracts/subasta.sol\":5616:5631  block.timestamp */\n      timestamp\n        /* \"contracts/subasta.sol\":5616:5649  block.timestamp > deliveryDueDate */\n      gt\n        /* \"contracts/subasta.sol\":5608:5684  require(block.timestamp > deliveryDueDate, \"The delivery can still be made\") */\n      tag_113\n      jumpi\n      mload(0x40)\n      0x08c379a000000000000000000000000000000000000000000000000000000000\n      dup2\n      mstore\n      0x04\n      add\n      tag_114\n      swap1\n      tag_115\n      jump\t// in\n    tag_114:\n      mload(0x40)\n      dup1\n      swap2\n      sub\n      swap1\n      revert\n    tag_113:\n        /* \"contracts/subasta.sol\":5695:5700  owner */\n      0x00\n      0x00\n      swap1\n      sload\n      swap1\n      0x0100\n      exp\n      swap1\n      div\n      0xffffffffffffffffffffffffffffffffffffffff\n      and\n        /* \"contracts/subasta.sol\":5695:5709  owner.transfer */\n      0xffffffffffffffffffffffffffffffffffffffff\n      and\n        /* \"contracts/subasta.sol\":5695:5732  owner.transfer(address(this).balance) */\n      0x08fc\n        /* \"contracts/subasta.sol\":5710:5731  address(this).balance */\n      selfbalance\n        /* \"contracts/subasta.sol\":5695:5732  owner.transfer(address(this).balance) */\n      swap1\n      dup2\n      iszero\n      mul\n      swap1\n      mload(0x40)\n      0x00\n      mload(0x40)\n      dup1\n      dup4\n      sub\n      dup2\n      dup6\n      dup9\n      dup9\n      call\n      swap4\n      pop\n      pop\n      pop\n      pop\n      iszero\n      dup1\n      iszero\n      tag_117\n      jumpi\n      returndatacopy(0x00, 0x00, returndatasize)\n      revert(0x00, returndatasize)\n    tag_117:\n      pop\n        /* \"contracts/subasta.sol\":5440:5739  function notDelivered() public payable onlyOwner {... */\n      jump\t// out\n        /* \"contracts/subasta.sol\":4693:4904  function hasAlreadyBid(address bidder) public view returns (bool) {... */\n    tag_30:\n        /* \"contracts/subasta.sol\":4753:4757  bool */\n      0x00\n        /* \"contracts/subasta.sol\":4774:4783  uint256 i */\n      0x00\n        /* \"contracts/subasta.sol\":4786:4787  0 */\n      0x00\n        /* \"contracts/subasta.sol\":4774:4787  uint256 i = 0 */\n      swap1\n      pop\n        /* \"contracts/subasta.sol\":4769:4876  for (uint256 i = 0; i < bidders.length; i++) {... */\n    tag_119:\n        /* \"contracts/subasta.sol\":4793:4800  bidders */\n      0x08\n        /* \"contracts/subasta.sol\":4793:4807  bidders.length */\n      dup1\n      sload\n      swap1\n      pop\n        /* \"contracts/subasta.sol\":4789:4790  i */\n      dup2\n        /* \"contracts/subasta.sol\":4789:4807  i < bidders.length */\n      lt\n        /* \"contracts/subasta.sol\":4769:4876  for (uint256 i = 0; i < bidders.length; i++) {... */\n      iszero\n      tag_120\n      jumpi\n        /* \"contracts/subasta.sol\":4846:4852  bidder */\n      dup3\n        /* \"contracts/subasta.sol\":4832:4852  bidders[i] == bidder */\n      0xffffffffffffffffffffffffffffffffffffffff\n      and\n        /* \"contracts/subasta.sol\":4832:4839  bidders */\n      0x08\n        /* \"contracts/subasta.sol\":4840:4841  i */\n      dup3\n        /* \"contracts/subasta.sol\":4832:4842  bidders[i] */\n      dup2\n      sload\n      dup2\n      lt\n      tag_122\n      jumpi\n      tag_123\n      tag_124\n      jump\t// in\n    tag_123:\n    tag_122:\n      swap1\n      0x00\n      mstore\n      keccak256(0x00, 0x20)\n      add\n      0x00\n      swap1\n      sload\n      swap1\n      0x0100\n      exp\n      swap1\n      div\n      0xffffffffffffffffffffffffffffffffffffffff\n      and\n        /* \"contracts/subasta.sol\":4832:4852  bidders[i] == bidder */\n      0xffffffffffffffffffffffffffffffffffffffff\n      and\n      sub\n        /* \"contracts/subasta.sol\":4828:4865  if (bidders[i] == bidder) return true */\n      tag_126\n      jumpi\n        /* \"contracts/subasta.sol\":4861:4865  true */\n      0x01\n        /* \"contracts/subasta.sol\":4854:4865  return true */\n      swap2\n      pop\n      pop\n      jump(tag_118)\n        /* \"contracts/subasta.sol\":4828:4865  if (bidders[i] == bidder) return true */\n    tag_126:\n        /* \"contracts/subasta.sol\":4809:4812  i++ */\n      dup1\n      dup1\n      0x01\n      add\n      swap2\n      pop\n      pop\n        /* \"contracts/subasta.sol\":4769:4876  for (uint256 i = 0; i < bidders.length; i++) {... */\n      jump(tag_119)\n    tag_120:\n      pop\n        /* \"contracts/subasta.sol\":4892:4897  false */\n      0x00\n        /* \"contracts/subasta.sol\":4885:4897  return false */\n      swap1\n      pop\n        /* \"contracts/subasta.sol\":4693:4904  function hasAlreadyBid(address bidder) public view returns (bool) {... */\n    tag_118:\n      swap2\n      swap1\n      pop\n      jump\t// out\n        /* \"contracts/subasta.sol\":4911:4999  function getBidCount() public view returns (uint256) {... */\n    tag_35:\n        /* \"contracts/subasta.sol\":4955:4962  uint256 */\n      0x00\n        /* \"contracts/subasta.sol\":4981:4985  bids */\n      0x07\n        /* \"contracts/subasta.sol\":4981:4992  bids.length */\n      dup1\n      sload\n      swap1\n      pop\n        /* \"contracts/subasta.sol\":4974:4992  return bids.length */\n      swap1\n      pop\n        /* \"contracts/subasta.sol\":4911:4999  function getBidCount() public view returns (uint256) {... */\n      swap1\n      jump\t// out\n        /* \"contracts/subasta.sol\":160:185  uint256 public auctionEnd */\n    tag_40:\n      sload(0x02)\n      dup2\n      jump\t// out\n        /* \"contracts/subasta.sol\":4140:4686  function returnDeposits() external onlyOwner {... */\n    tag_44:\n        /* \"contracts/subasta.sol\":1033:1038  owner */\n      0x00\n      0x00\n      swap1\n      sload\n      swap1\n      0x0100\n      exp\n      swap1\n      div\n      0xffffffffffffffffffffffffffffffffffffffff\n      and\n        /* \"contracts/subasta.sol\":1019:1038  msg.sender == owner */\n      0xffffffffffffffffffffffffffffffffffffffff\n      and\n        /* \"contracts/subasta.sol\":1019:1029  msg.sender */\n      caller\n        /* \"contracts/subasta.sol\":1019:1038  msg.sender == owner */\n      0xffffffffffffffffffffffffffffffffffffffff\n      and\n      eq\n        /* \"contracts/subasta.sol\":1011:1080  require(msg.sender == owner, \"Only the owner can call this function\") */\n      tag_129\n      jumpi\n      mload(0x40)\n      0x08c379a000000000000000000000000000000000000000000000000000000000\n      dup2\n      mstore\n      0x04\n      add\n      tag_130\n      swap1\n      tag_103\n      jump\t// in\n    tag_130:\n      mload(0x40)\n      dup1\n      swap2\n      sub\n      swap1\n      revert\n    tag_129:\n        /* \"contracts/subasta.sol\":4212:4231  AuctionState.Closed */\n      0x01\n        /* \"contracts/subasta.sol\":4203:4231  state == AuctionState.Closed */\n      0x02\n      dup2\n      gt\n      iszero\n      tag_132\n      jumpi\n      tag_133\n      tag_107\n      jump\t// in\n    tag_133:\n    tag_132:\n        /* \"contracts/subasta.sol\":4203:4208  state */\n      0x06\n      0x00\n      swap1\n      sload\n      swap1\n      0x0100\n      exp\n      swap1\n      div\n      0xff\n      and\n        /* \"contracts/subasta.sol\":4203:4231  state == AuctionState.Closed */\n      0x02\n      dup2\n      gt\n      iszero\n      tag_134\n      jumpi\n      tag_135\n      tag_107\n      jump\t// in\n    tag_135:\n    tag_134:\n      eq\n        /* \"contracts/subasta.sol\":4195:4254  require(state == AuctionState.Closed, \"Auction still open\") */\n      tag_136\n      jumpi\n      mload(0x40)\n      0x08c379a000000000000000000000000000000000000000000000000000000000\n      dup2\n      mstore\n      0x04\n      add\n      tag_137\n      swap1\n      tag_138\n      jump\t// in\n    tag_137:\n      mload(0x40)\n      dup1\n      swap2\n      sub\n      swap1\n      revert\n    tag_136:\n        /* \"contracts/subasta.sol\":4278:4287  uint256 i */\n      0x00\n        /* \"contracts/subasta.sol\":4290:4291  0 */\n      0x00\n        /* \"contracts/subasta.sol\":4278:4291  uint256 i = 0 */\n      swap1\n      pop\n        /* \"contracts/subasta.sol\":4273:4631  for (uint256 i = 0; i < bids.length; i++) {... */\n    tag_139:\n        /* \"contracts/subasta.sol\":4297:4301  bids */\n      0x07\n        /* \"contracts/subasta.sol\":4297:4308  bids.length */\n      dup1\n      sload\n      swap1\n      pop\n        /* \"contracts/subasta.sol\":4293:4294  i */\n      dup2\n        /* \"contracts/subasta.sol\":4293:4308  i < bids.length */\n      lt\n        /* \"contracts/subasta.sol\":4273:4631  for (uint256 i = 0; i < bids.length; i++) {... */\n      iszero\n      tag_140\n      jumpi\n        /* \"contracts/subasta.sol\":4351:4357  winner */\n      0x09\n      0x00\n      swap1\n      sload\n      swap1\n      0x0100\n      exp\n      swap1\n      div\n      0xffffffffffffffffffffffffffffffffffffffff\n      and\n        /* \"contracts/subasta.sol\":4333:4357  bids[i].bidder != winner */\n      0xffffffffffffffffffffffffffffffffffffffff\n      and\n        /* \"contracts/subasta.sol\":4333:4337  bids */\n      0x07\n        /* \"contracts/subasta.sol\":4338:4339  i */\n      dup3\n        /* \"contracts/subasta.sol\":4333:4340  bids[i] */\n      dup2\n      sload\n      dup2\n      lt\n      tag_142\n      jumpi\n      tag_143\n      tag_124\n      jump\t// in\n    tag_143:\n    tag_142:\n      swap1\n      0x00\n      mstore\n      keccak256(0x00, 0x20)\n      swap1\n      0x04\n      mul\n      add\n        /* \"contracts/subasta.sol\":4333:4347  bids[i].bidder */\n      0x00\n      add\n      0x00\n      swap1\n      sload\n      swap1\n      0x0100\n      exp\n      swap1\n      div\n      0xffffffffffffffffffffffffffffffffffffffff\n      and\n        /* \"contracts/subasta.sol\":4333:4357  bids[i].bidder != winner */\n      0xffffffffffffffffffffffffffffffffffffffff\n      and\n      eq\n      iszero\n        /* \"contracts/subasta.sol\":4333:4385  bids[i].bidder != winner && !bids[i].depositReturned */\n      dup1\n      iszero\n      tag_145\n      jumpi\n      pop\n        /* \"contracts/subasta.sol\":4362:4366  bids */\n      0x07\n        /* \"contracts/subasta.sol\":4367:4368  i */\n      dup2\n        /* \"contracts/subasta.sol\":4362:4369  bids[i] */\n      dup2\n      sload\n      dup2\n      lt\n      tag_146\n      jumpi\n      tag_147\n      tag_124\n      jump\t// in\n    tag_147:\n    tag_146:\n      swap1\n      0x00\n      mstore\n      keccak256(0x00, 0x20)\n      swap1\n      0x04\n      mul\n      add\n        /* \"contracts/subasta.sol\":4362:4385  bids[i].depositReturned */\n      0x03\n      add\n      0x00\n      swap1\n      sload\n      swap1\n      0x0100\n      exp\n      swap1\n      div\n      0xff\n      and\n        /* \"contracts/subasta.sol\":4361:4385  !bids[i].depositReturned */\n      iszero\n        /* \"contracts/subasta.sol\":4333:4385  bids[i].bidder != winner && !bids[i].depositReturned */\n    tag_145:\n        /* \"contracts/subasta.sol\":4329:4621  if (bids[i].bidder != winner && !bids[i].depositReturned) {... */\n      iszero\n      tag_149\n      jumpi\n        /* \"contracts/subasta.sol\":4405:4420  uint256 deposit */\n      0x00\n        /* \"contracts/subasta.sol\":4423:4427  bids */\n      0x07\n        /* \"contracts/subasta.sol\":4428:4429  i */\n      dup3\n        /* \"contracts/subasta.sol\":4423:4430  bids[i] */\n      dup2\n      sload\n      dup2\n      lt\n      tag_150\n      jumpi\n      tag_151\n      tag_124\n      jump\t// in\n    tag_151:\n    tag_150:\n      swap1\n      0x00\n      mstore\n      keccak256(0x00, 0x20)\n      swap1\n      0x04\n      mul\n      add\n        /* \"contracts/subasta.sol\":4423:4437  bids[i].bidder */\n      0x00\n      add\n      0x00\n      swap1\n      sload\n      swap1\n      0x0100\n      exp\n      swap1\n      div\n      0xffffffffffffffffffffffffffffffffffffffff\n      and\n        /* \"contracts/subasta.sol\":4423:4445  bids[i].bidder.balance */\n      0xffffffffffffffffffffffffffffffffffffffff\n      and\n      balance\n        /* \"contracts/subasta.sol\":4405:4445  uint256 deposit = bids[i].bidder.balance */\n      swap1\n      pop\n        /* \"contracts/subasta.sol\":4489:4493  true */\n      0x01\n        /* \"contracts/subasta.sol\":4463:4467  bids */\n      0x07\n        /* \"contracts/subasta.sol\":4468:4469  i */\n      dup4\n        /* \"contracts/subasta.sol\":4463:4470  bids[i] */\n      dup2\n      sload\n      dup2\n      lt\n      tag_153\n      jumpi\n      tag_154\n      tag_124\n      jump\t// in\n    tag_154:\n    tag_153:\n      swap1\n      0x00\n      mstore\n      keccak256(0x00, 0x20)\n      swap1\n      0x04\n      mul\n      add\n        /* \"contracts/subasta.sol\":4463:4486  bids[i].depositReturned */\n      0x03\n      add\n      0x00\n        /* \"contracts/subasta.sol\":4463:4493  bids[i].depositReturned = true */\n      0x0100\n      exp\n      dup2\n      sload\n      dup2\n      0xff\n      mul\n      not\n      and\n      swap1\n      dup4\n      iszero\n      iszero\n      mul\n      or\n      swap1\n      sstore\n      pop\n        /* \"contracts/subasta.sol\":4511:4515  bids */\n      0x07\n        /* \"contracts/subasta.sol\":4516:4517  i */\n      dup3\n        /* \"contracts/subasta.sol\":4511:4518  bids[i] */\n      dup2\n      sload\n      dup2\n      lt\n      tag_156\n      jumpi\n      tag_157\n      tag_124\n      jump\t// in\n    tag_157:\n    tag_156:\n      swap1\n      0x00\n      mstore\n      keccak256(0x00, 0x20)\n      swap1\n      0x04\n      mul\n      add\n        /* \"contracts/subasta.sol\":4511:4525  bids[i].bidder */\n      0x00\n      add\n      0x00\n      swap1\n      sload\n      swap1\n      0x0100\n      exp\n      swap1\n      div\n      0xffffffffffffffffffffffffffffffffffffffff\n      and\n        /* \"contracts/subasta.sol\":4511:4534  bids[i].bidder.transfer */\n      0xffffffffffffffffffffffffffffffffffffffff\n      and\n        /* \"contracts/subasta.sol\":4511:4543  bids[i].bidder.transfer(deposit) */\n      0x08fc\n        /* \"contracts/subasta.sol\":4535:4542  deposit */\n      dup3\n        /* \"contracts/subasta.sol\":4511:4543  bids[i].bidder.transfer(deposit) */\n      swap1\n      dup2\n      iszero\n      mul\n      swap1\n      mload(0x40)\n      0x00\n      mload(0x40)\n      dup1\n      dup4\n      sub\n      dup2\n      dup6\n      dup9\n      dup9\n      call\n      swap4\n      pop\n      pop\n      pop\n      pop\n      iszero\n      dup1\n      iszero\n      tag_160\n      jumpi\n      returndatacopy(0x00, 0x00, returndatasize)\n      revert(0x00, returndatasize)\n    tag_160:\n      pop\n        /* \"contracts/subasta.sol\":4582:4586  bids */\n      0x07\n        /* \"contracts/subasta.sol\":4587:4588  i */\n      dup3\n        /* \"contracts/subasta.sol\":4582:4589  bids[i] */\n      dup2\n      sload\n      dup2\n      lt\n      tag_161\n      jumpi\n      tag_162\n      tag_124\n      jump\t// in\n    tag_162:\n    tag_161:\n      swap1\n      0x00\n      mstore\n      keccak256(0x00, 0x20)\n      swap1\n      0x04\n      mul\n      add\n        /* \"contracts/subasta.sol\":4582:4596  bids[i].bidder */\n      0x00\n      add\n      0x00\n      swap1\n      sload\n      swap1\n      0x0100\n      exp\n      swap1\n      div\n      0xffffffffffffffffffffffffffffffffffffffff\n      and\n        /* \"contracts/subasta.sol\":4566:4606  DepositReturned(bids[i].bidder, deposit) */\n      0xffffffffffffffffffffffffffffffffffffffff\n      and\n      0xa09244c122a83074363635dc89ce0098166c2f74827960ff64a7c8e6ad1c57a2\n        /* \"contracts/subasta.sol\":4598:4605  deposit */\n      dup3\n        /* \"contracts/subasta.sol\":4566:4606  DepositReturned(bids[i].bidder, deposit) */\n      mload(0x40)\n      tag_164\n      swap2\n      swap1\n      tag_37\n      jump\t// in\n    tag_164:\n      mload(0x40)\n      dup1\n      swap2\n      sub\n      swap1\n      log2\n        /* \"contracts/subasta.sol\":4387:4621  {... */\n      pop\n        /* \"contracts/subasta.sol\":4329:4621  if (bids[i].bidder != winner && !bids[i].depositReturned) {... */\n    tag_149:\n        /* \"contracts/subasta.sol\":4310:4313  i++ */\n      dup1\n      dup1\n      0x01\n      add\n      swap2\n      pop\n      pop\n        /* \"contracts/subasta.sol\":4273:4631  for (uint256 i = 0; i < bids.length; i++) {... */\n      jump(tag_139)\n    tag_140:\n      pop\n        /* \"contracts/subasta.sol\":4657:4679  AuctionState.Completed */\n      0x02\n        /* \"contracts/subasta.sol\":4649:4654  state */\n      0x06\n      0x00\n        /* \"contracts/subasta.sol\":4649:4679  state = AuctionState.Completed */\n      0x0100\n      exp\n      dup2\n      sload\n      dup2\n      0xff\n      mul\n      not\n      and\n      swap1\n      dup4\n      0x02\n      dup2\n      gt\n      iszero\n      tag_165\n      jumpi\n      tag_166\n      tag_107\n      jump\t// in\n    tag_166:\n    tag_165:\n      mul\n      or\n      swap1\n      sstore\n      pop\n        /* \"contracts/subasta.sol\":4140:4686  function returnDeposits() external onlyOwner {... */\n      jump\t// out\n        /* \"contracts/subasta.sol\":285:324  uint256 public constant MAX_BIDDERS = 3 */\n    tag_47:\n        /* \"contracts/subasta.sol\":323:324  3 */\n      0x03\n        /* \"contracts/subasta.sol\":285:324  uint256 public constant MAX_BIDDERS = 3 */\n      dup2\n      jump\t// out\n        /* \"contracts/subasta.sol\":734:762  uint256 public winnerDeposit */\n    tag_51:\n      sload(0x0b)\n      dup2\n      jump\t// out\n        /* \"contracts/subasta.sol\":127:154  uint256 public auctionStart */\n    tag_55:\n      sload(0x01)\n      dup2\n      jump\t// out\n        /* \"contracts/subasta.sol\":330:377  uint256 public constant DEPOSIT_PERCENTAGE = 10 */\n    tag_59:\n        /* \"contracts/subasta.sol\":375:377  10 */\n      0x0a\n        /* \"contracts/subasta.sol\":330:377  uint256 public constant DEPOSIT_PERCENTAGE = 10 */\n      dup2\n      jump\t// out\n        /* \"contracts/subasta.sol\":5027:5379  function deliveryReceived() public payable onlyOwner {... */\n    tag_62:\n        /* \"contracts/subasta.sol\":1033:1038  owner */\n      0x00\n      0x00\n      swap1\n      sload\n      swap1\n      0x0100\n      exp\n      swap1\n      div\n      0xffffffffffffffffffffffffffffffffffffffff\n      and\n        /* \"contracts/subasta.sol\":1019:1038  msg.sender == owner */\n      0xffffffffffffffffffffffffffffffffffffffff\n      and\n        /* \"contracts/subasta.sol\":1019:1029  msg.sender */\n      caller\n        /* \"contracts/subasta.sol\":1019:1038  msg.sender == owner */\n      0xffffffffffffffffffffffffffffffffffffffff\n      and\n      eq\n        /* \"contracts/subasta.sol\":1011:1080  require(msg.sender == owner, \"Only the owner can call this function\") */\n      tag_168\n      jumpi\n      mload(0x40)\n      0x08c379a000000000000000000000000000000000000000000000000000000000\n      dup2\n      mstore\n      0x04\n      add\n      tag_169\n      swap1\n      tag_103\n      jump\t// in\n    tag_169:\n      mload(0x40)\n      dup1\n      swap2\n      sub\n      swap1\n      revert\n    tag_168:\n        /* \"contracts/subasta.sol\":5107:5129  AuctionState.Completed */\n      0x02\n        /* \"contracts/subasta.sol\":5098:5129  state == AuctionState.Completed */\n      dup1\n      dup2\n      gt\n      iszero\n      tag_171\n      jumpi\n      tag_172\n      tag_107\n      jump\t// in\n    tag_172:\n    tag_171:\n        /* \"contracts/subasta.sol\":5098:5103  state */\n      0x06\n      0x00\n      swap1\n      sload\n      swap1\n      0x0100\n      exp\n      swap1\n      div\n      0xff\n      and\n        /* \"contracts/subasta.sol\":5098:5129  state == AuctionState.Completed */\n      0x02\n      dup2\n      gt\n      iszero\n      tag_173\n      jumpi\n      tag_174\n      tag_107\n      jump\t// in\n    tag_174:\n    tag_173:\n      eq\n        /* \"contracts/subasta.sol\":5090:5189  require(state == AuctionState.Completed, \"Auction still open or didn't paid back the deposits yet\") */\n      tag_175\n      jumpi\n      mload(0x40)\n      0x08c379a000000000000000000000000000000000000000000000000000000000\n      dup2\n      mstore\n      0x04\n      add\n      tag_176\n      swap1\n      tag_112\n      jump\t// in\n    tag_176:\n      mload(0x40)\n      dup1\n      swap2\n      sub\n      swap1\n      revert\n    tag_175:\n        /* \"contracts/subasta.sol\":5225:5240  deliveryDueDate */\n      sload(0x03)\n        /* \"contracts/subasta.sol\":5207:5222  block.timestamp */\n      timestamp\n        /* \"contracts/subasta.sol\":5207:5240  block.timestamp < deliveryDueDate */\n      lt\n        /* \"contracts/subasta.sol\":5199:5268  require(block.timestamp < deliveryDueDate, \"The delivery is overdue\") */\n      tag_177\n      jumpi\n      mload(0x40)\n      0x08c379a000000000000000000000000000000000000000000000000000000000\n      dup2\n      mstore\n      0x04\n      add\n      tag_178\n      swap1\n      tag_179\n      jump\t// in\n    tag_178:\n      mload(0x40)\n      dup1\n      swap2\n      sub\n      swap1\n      revert\n    tag_177:\n        /* \"contracts/subasta.sol\":5279:5285  winner */\n      0x09\n      0x00\n      swap1\n      sload\n      swap1\n      0x0100\n      exp\n      swap1\n      div\n      0xffffffffffffffffffffffffffffffffffffffff\n      and\n        /* \"contracts/subasta.sol\":5279:5294  winner.transfer */\n      0xffffffffffffffffffffffffffffffffffffffff\n      and\n        /* \"contracts/subasta.sol\":5279:5325  winner.transfer(winningPrice + winner.balance) */\n      0x08fc\n        /* \"contracts/subasta.sol\":5310:5316  winner */\n      0x09\n      0x00\n      swap1\n      sload\n      swap1\n      0x0100\n      exp\n      swap1\n      div\n      0xffffffffffffffffffffffffffffffffffffffff\n      and\n        /* \"contracts/subasta.sol\":5310:5324  winner.balance */\n      0xffffffffffffffffffffffffffffffffffffffff\n      and\n      balance\n        /* \"contracts/subasta.sol\":5295:5307  winningPrice */\n      sload(0x0a)\n        /* \"contracts/subasta.sol\":5295:5324  winningPrice + winner.balance */\n      tag_180\n      swap2\n      swap1\n      tag_181\n      jump\t// in\n    tag_180:\n        /* \"contracts/subasta.sol\":5279:5325  winner.transfer(winningPrice + winner.balance) */\n      swap1\n      dup2\n      iszero\n      mul\n      swap1\n      mload(0x40)\n      0x00\n      mload(0x40)\n      dup1\n      dup4\n      sub\n      dup2\n      dup6\n      dup9\n      dup9\n      call\n      swap4\n      pop\n      pop\n      pop\n      pop\n      iszero\n      dup1\n      iszero\n      tag_183\n      jumpi\n      returndatacopy(0x00, 0x00, returndatasize)\n      revert(0x00, returndatasize)\n    tag_183:\n      pop\n        /* \"contracts/subasta.sol\":5335:5340  owner */\n      0x00\n      0x00\n      swap1\n      sload\n      swap1\n      0x0100\n      exp\n      swap1\n      div\n      0xffffffffffffffffffffffffffffffffffffffff\n      and\n        /* \"contracts/subasta.sol\":5335:5349  owner.transfer */\n      0xffffffffffffffffffffffffffffffffffffffff\n      and\n        /* \"contracts/subasta.sol\":5335:5372  owner.transfer(address(this).balance) */\n      0x08fc\n        /* \"contracts/subasta.sol\":5350:5371  address(this).balance */\n      selfbalance\n        /* \"contracts/subasta.sol\":5335:5372  owner.transfer(address(this).balance) */\n      swap1\n      dup2\n      iszero\n      mul\n      swap1\n      mload(0x40)\n      0x00\n      mload(0x40)\n      dup1\n      dup4\n      sub\n      dup2\n      dup6\n      dup9\n      dup9\n      call\n      swap4\n      pop\n      pop\n      pop\n      pop\n      iszero\n      dup1\n      iszero\n      tag_185\n      jumpi\n      returndatacopy(0x00, 0x00, returndatasize)\n      revert(0x00, returndatasize)\n    tag_185:\n      pop\n        /* \"contracts/subasta.sol\":5027:5379  function deliveryReceived() public payable onlyOwner {... */\n      jump\t// out\n        /* \"contracts/subasta.sol\":227:248  uint256 public maxBid */\n    tag_65:\n      sload(0x04)\n      dup2\n      jump\t// out\n        /* \"contracts/subasta.sol\":93:121  address payable public owner */\n    tag_69:\n      0x00\n      0x00\n      swap1\n      sload\n      swap1\n      0x0100\n      exp\n      swap1\n      div\n      0xffffffffffffffffffffffffffffffffffffffff\n      and\n      dup2\n      jump\t// out\n        /* \"contracts/subasta.sol\":1725:2539  function placeBid(uint256 _amount) external payable auctionOpen {... */\n    tag_75:\n        /* \"contracts/subasta.sol\":1154:1171  AuctionState.Open */\n      0x00\n        /* \"contracts/subasta.sol\":1145:1171  state == AuctionState.Open */\n      0x02\n      dup2\n      gt\n      iszero\n      tag_187\n      jumpi\n      tag_188\n      tag_107\n      jump\t// in\n    tag_188:\n    tag_187:\n        /* \"contracts/subasta.sol\":1145:1150  state */\n      0x06\n      0x00\n      swap1\n      sload\n      swap1\n      0x0100\n      exp\n      swap1\n      div\n      0xff\n      and\n        /* \"contracts/subasta.sol\":1145:1171  state == AuctionState.Open */\n      0x02\n      dup2\n      gt\n      iszero\n      tag_189\n      jumpi\n      tag_190\n      tag_107\n      jump\t// in\n    tag_190:\n    tag_189:\n      eq\n        /* \"contracts/subasta.sol\":1137:1194  require(state == AuctionState.Open, \"Auction not active\") */\n      tag_191\n      jumpi\n      mload(0x40)\n      0x08c379a000000000000000000000000000000000000000000000000000000000\n      dup2\n      mstore\n      0x04\n      add\n      tag_192\n      swap1\n      tag_193\n      jump\t// in\n    tag_192:\n      mload(0x40)\n      dup1\n      swap2\n      sub\n      swap1\n      revert\n    tag_191:\n        /* \"contracts/subasta.sol\":1231:1243  auctionStart */\n      sload(0x01)\n        /* \"contracts/subasta.sol\":1212:1227  block.timestamp */\n      timestamp\n        /* \"contracts/subasta.sol\":1212:1243  block.timestamp >= auctionStart */\n      lt\n      iszero\n        /* \"contracts/subasta.sol\":1212:1276  block.timestamp >= auctionStart && block.timestamp <= auctionEnd */\n      dup1\n      iszero\n      tag_194\n      jumpi\n      pop\n        /* \"contracts/subasta.sol\":1266:1276  auctionEnd */\n      sload(0x02)\n        /* \"contracts/subasta.sol\":1247:1262  block.timestamp */\n      timestamp\n        /* \"contracts/subasta.sol\":1247:1276  block.timestamp <= auctionEnd */\n      gt\n      iszero\n        /* \"contracts/subasta.sol\":1212:1276  block.timestamp >= auctionStart && block.timestamp <= auctionEnd */\n    tag_194:\n        /* \"contracts/subasta.sol\":1204:1316  require(block.timestamp >= auctionStart && block.timestamp <= auctionEnd, \"Outside of the auction's time range\") */\n      tag_195\n      jumpi\n      mload(0x40)\n      0x08c379a000000000000000000000000000000000000000000000000000000000\n      dup2\n      mstore\n      0x04\n      add\n      tag_196\n      swap1\n      tag_197\n      jump\t// in\n    tag_196:\n      mload(0x40)\n      dup1\n      swap2\n      sub\n      swap1\n      revert\n    tag_195:\n        /* \"contracts/subasta.sol\":1817:1818  0 */\n      0x00\n        /* \"contracts/subasta.sol\":1807:1814  _amount */\n      dup2\n        /* \"contracts/subasta.sol\":1807:1818  _amount > 0 */\n      gt\n        /* \"contracts/subasta.sol\":1799:1842  require(_amount > 0, \"The bid must be > 0\") */\n      tag_199\n      jumpi\n      mload(0x40)\n      0x08c379a000000000000000000000000000000000000000000000000000000000\n      dup2\n      mstore\n      0x04\n      add\n      tag_200\n      swap1\n      tag_201\n      jump\t// in\n    tag_200:\n      mload(0x40)\n      dup1\n      swap2\n      sub\n      swap1\n      revert\n    tag_199:\n        /* \"contracts/subasta.sol\":1871:1877  maxBid */\n      sload(0x04)\n        /* \"contracts/subasta.sol\":1860:1867  _amount */\n      dup2\n        /* \"contracts/subasta.sol\":1860:1877  _amount <= maxBid */\n      gt\n      iszero\n        /* \"contracts/subasta.sol\":1852:1916  require(_amount <= maxBid, \"The bid is higher than the maximum\") */\n      tag_202\n      jumpi\n      mload(0x40)\n      0x08c379a000000000000000000000000000000000000000000000000000000000\n      dup2\n      mstore\n      0x04\n      add\n      tag_203\n      swap1\n      tag_204\n      jump\t// in\n    tag_203:\n      mload(0x40)\n      dup1\n      swap2\n      sub\n      swap1\n      revert\n    tag_202:\n        /* \"contracts/subasta.sol\":1935:1960  hasAlreadyBid(msg.sender) */\n      tag_205\n        /* \"contracts/subasta.sol\":1949:1959  msg.sender */\n      caller\n        /* \"contracts/subasta.sol\":1935:1948  hasAlreadyBid */\n      tag_30\n        /* \"contracts/subasta.sol\":1935:1960  hasAlreadyBid(msg.sender) */\n      jump\t// in\n    tag_205:\n        /* \"contracts/subasta.sol\":1934:1960  !hasAlreadyBid(msg.sender) */\n      iszero\n        /* \"contracts/subasta.sol\":1926:1994  require(!hasAlreadyBid(msg.sender), \"You have already participated\") */\n      tag_206\n      jumpi\n      mload(0x40)\n      0x08c379a000000000000000000000000000000000000000000000000000000000\n      dup2\n      mstore\n      0x04\n      add\n      tag_207\n      swap1\n      tag_208\n      jump\t// in\n    tag_207:\n      mload(0x40)\n      dup1\n      swap2\n      sub\n      swap1\n      revert\n    tag_206:\n        /* \"contracts/subasta.sol\":323:324  3 */\n      0x03\n        /* \"contracts/subasta.sol\":2012:2022  numBidders */\n      sload(0x05)\n        /* \"contracts/subasta.sol\":2012:2036  numBidders < MAX_BIDDERS */\n      lt\n        /* \"contracts/subasta.sol\":2004:2099  require(numBidders < MAX_BIDDERS, \"The auction has reached the maximum number of participants\") */\n      tag_209\n      jumpi\n      mload(0x40)\n      0x08c379a000000000000000000000000000000000000000000000000000000000\n      dup2\n      mstore\n      0x04\n      add\n      tag_210\n      swap1\n      tag_211\n      jump\t// in\n    tag_210:\n      mload(0x40)\n      dup1\n      swap2\n      sub\n      swap1\n      revert\n    tag_209:\n        /* \"contracts/subasta.sol\":2131:2136  owner */\n      0x00\n      0x00\n      swap1\n      sload\n      swap1\n      0x0100\n      exp\n      swap1\n      div\n      0xffffffffffffffffffffffffffffffffffffffff\n      and\n        /* \"contracts/subasta.sol\":2117:2136  msg.sender != owner */\n      0xffffffffffffffffffffffffffffffffffffffff\n      and\n        /* \"contracts/subasta.sol\":2117:2127  msg.sender */\n      caller\n        /* \"contracts/subasta.sol\":2117:2136  msg.sender != owner */\n      0xffffffffffffffffffffffffffffffffffffffff\n      and\n      sub\n        /* \"contracts/subasta.sol\":2109:2183  require(msg.sender != owner, \"You cannot place a bid on your own auction\") */\n      tag_212\n      jumpi\n      mload(0x40)\n      0x08c379a000000000000000000000000000000000000000000000000000000000\n      dup2\n      mstore\n      0x04\n      add\n      tag_213\n      swap1\n      tag_214\n      jump\t// in\n    tag_213:\n      mload(0x40)\n      dup1\n      swap2\n      sub\n      swap1\n      revert\n    tag_212:\n        /* \"contracts/subasta.sol\":2247:2250  100 */\n      0x64\n        /* \"contracts/subasta.sol\":375:377  10 */\n      0x0a\n        /* \"contracts/subasta.sol\":2215:2222  _amount */\n      dup3\n        /* \"contracts/subasta.sol\":2215:2243  _amount * DEPOSIT_PERCENTAGE */\n      tag_215\n      swap2\n      swap1\n      tag_216\n      jump\t// in\n    tag_215:\n        /* \"contracts/subasta.sol\":2214:2250  (_amount * DEPOSIT_PERCENTAGE) / 100 */\n      tag_217\n      swap2\n      swap1\n      tag_218\n      jump\t// in\n    tag_217:\n        /* \"contracts/subasta.sol\":2201:2210  msg.value */\n      callvalue\n        /* \"contracts/subasta.sol\":2201:2250  msg.value == (_amount * DEPOSIT_PERCENTAGE) / 100 */\n      eq\n        /* \"contracts/subasta.sol\":2193:2298  require(msg.value == (_amount * DEPOSIT_PERCENTAGE) / 100, \"The deposit must be at least 10% of the bid\") */\n      tag_219\n      jumpi\n      mload(0x40)\n      0x08c379a000000000000000000000000000000000000000000000000000000000\n      dup2\n      mstore\n      0x04\n      add\n      tag_220\n      swap1\n      tag_221\n      jump\t// in\n    tag_220:\n      mload(0x40)\n      dup1\n      swap2\n      sub\n      swap1\n      revert\n    tag_219:\n        /* \"contracts/subasta.sol\":2323:2324  1 */\n      0x01\n        /* \"contracts/subasta.sol\":2309:2319  numBidders */\n      0x05\n      0x00\n        /* \"contracts/subasta.sol\":2309:2324  numBidders += 1 */\n      dup3\n      dup3\n      sload\n      tag_222\n      swap2\n      swap1\n      tag_181\n      jump\t// in\n    tag_222:\n      swap3\n      pop\n      pop\n      dup2\n      swap1\n      sstore\n      pop\n        /* \"contracts/subasta.sol\":2335:2339  bids */\n      0x07\n        /* \"contracts/subasta.sol\":2345:2460  Bid(... */\n      mload(0x40)\n      dup1\n      0x80\n      add\n      0x40\n      mstore\n      dup1\n        /* \"contracts/subasta.sol\":2370:2380  msg.sender */\n      caller\n        /* \"contracts/subasta.sol\":2345:2460  Bid(... */\n      0xffffffffffffffffffffffffffffffffffffffff\n      and\n      dup2\n      mstore\n      0x20\n      add\n        /* \"contracts/subasta.sol\":2395:2402  _amount */\n      dup4\n        /* \"contracts/subasta.sol\":2345:2460  Bid(... */\n      dup2\n      mstore\n      0x20\n      add\n        /* \"contracts/subasta.sol\":2416:2431  block.timestamp */\n      timestamp\n        /* \"contracts/subasta.sol\":2345:2460  Bid(... */\n      dup2\n      mstore\n      0x20\n      add\n        /* \"contracts/subasta.sol\":2445:2450  false */\n      0x00\n        /* \"contracts/subasta.sol\":2345:2460  Bid(... */\n      iszero\n      iszero\n      dup2\n      mstore\n      pop\n        /* \"contracts/subasta.sol\":2335:2461  bids.push(Bid(... */\n      swap1\n      dup1\n      0x01\n      dup2\n      sload\n      add\n      dup1\n      dup3\n      sstore\n      dup1\n      swap2\n      pop\n      pop\n      0x01\n      swap1\n      sub\n      swap1\n      0x00\n      mstore\n      keccak256(0x00, 0x20)\n      swap1\n      0x04\n      mul\n      add\n      0x00\n      swap1\n      swap2\n      swap1\n      swap2\n      swap1\n      swap2\n      pop\n      0x00\n      dup3\n      add\n      mload\n      dup2\n      0x00\n      add\n      exp(0x0100, 0x00)\n      dup2\n      sload\n      dup2\n      0xffffffffffffffffffffffffffffffffffffffff\n      mul\n      not\n      and\n      swap1\n      dup4\n      0xffffffffffffffffffffffffffffffffffffffff\n      and\n      mul\n      or\n      swap1\n      sstore\n      pop\n      0x20\n      dup3\n      add\n      mload\n      dup2\n      0x01\n      add\n      sstore\n      0x40\n      dup3\n      add\n      mload\n      dup2\n      0x02\n      add\n      sstore\n      0x60\n      dup3\n      add\n      mload\n      dup2\n      0x03\n      add\n      exp(0x0100, 0x00)\n      dup2\n      sload\n      dup2\n      0xff\n      mul\n      not\n      and\n      swap1\n      dup4\n      iszero\n      iszero\n      mul\n      or\n      swap1\n      sstore\n      pop\n      pop\n      pop\n        /* \"contracts/subasta.sol\":2471:2478  bidders */\n      0x08\n        /* \"contracts/subasta.sol\":2484:2494  msg.sender */\n      caller\n        /* \"contracts/subasta.sol\":2471:2495  bidders.push(msg.sender) */\n      swap1\n      dup1\n      0x01\n      dup2\n      sload\n      add\n      dup1\n      dup3\n      sstore\n      dup1\n      swap2\n      pop\n      pop\n      0x01\n      swap1\n      sub\n      swap1\n      0x00\n      mstore\n      keccak256(0x00, 0x20)\n      add\n      0x00\n      swap1\n      swap2\n      swap1\n      swap2\n      swap1\n      swap2\n      0x0100\n      exp\n      dup2\n      sload\n      dup2\n      0xffffffffffffffffffffffffffffffffffffffff\n      mul\n      not\n      and\n      swap1\n      dup4\n      0xffffffffffffffffffffffffffffffffffffffff\n      and\n      mul\n      or\n      swap1\n      sstore\n      pop\n        /* \"contracts/subasta.sol\":2521:2531  msg.sender */\n      caller\n        /* \"contracts/subasta.sol\":2511:2532  BidPlaced(msg.sender) */\n      0xffffffffffffffffffffffffffffffffffffffff\n      and\n      0xe677a6b9a16a696674f50d2c98a1ce8c5cb51d6b48a0223412c512bbc93664d5\n      mload(0x40)\n      mload(0x40)\n      dup1\n      swap2\n      sub\n      swap1\n      log2\n        /* \"contracts/subasta.sol\":1725:2539  function placeBid(uint256 _amount) external payable auctionOpen {... */\n      pop\n      jump\t// out\n        /* \"contracts/subasta.sol\":438:463  AuctionState public state */\n    tag_78:\n      0x06\n      0x00\n      swap1\n      sload\n      swap1\n      0x0100\n      exp\n      swap1\n      div\n      0xff\n      and\n      dup2\n      jump\t// out\n        /* \"contracts/subasta.sol\":701:728  uint256 public winningPrice */\n    tag_83:\n      sload(0x0a)\n      dup2\n      jump\t// out\n        /* \"contracts/subasta.sol\":191:221  uint256 public deliveryDueDate */\n    tag_87:\n      sload(0x03)\n      dup2\n      jump\t// out\n        /* \"contracts/subasta.sol\":666:695  address payable public winner */\n    tag_91:\n      0x09\n      0x00\n      swap1\n      sload\n      swap1\n      0x0100\n      exp\n      swap1\n      div\n      0xffffffffffffffffffffffffffffffffffffffff\n      and\n      dup2\n      jump\t// out\n        /* \"contracts/subasta.sol\":2545:2806  function finalizeAuction() external onlyOwner {... */\n    tag_95:\n        /* \"contracts/subasta.sol\":1033:1038  owner */\n      0x00\n      0x00\n      swap1\n      sload\n      swap1\n      0x0100\n      exp\n      swap1\n      div\n      0xffffffffffffffffffffffffffffffffffffffff\n      and\n        /* \"contracts/subasta.sol\":1019:1038  msg.sender == owner */\n      0xffffffffffffffffffffffffffffffffffffffff\n      and\n        /* \"contracts/subasta.sol\":1019:1029  msg.sender */\n      caller\n        /* \"contracts/subasta.sol\":1019:1038  msg.sender == owner */\n      0xffffffffffffffffffffffffffffffffffffffff\n      and\n      eq\n        /* \"contracts/subasta.sol\":1011:1080  require(msg.sender == owner, \"Only the owner can call this function\") */\n      tag_226\n      jumpi\n      mload(0x40)\n      0x08c379a000000000000000000000000000000000000000000000000000000000\n      dup2\n      mstore\n      0x04\n      add\n      tag_227\n      swap1\n      tag_103\n      jump\t// in\n    tag_227:\n      mload(0x40)\n      dup1\n      swap2\n      sub\n      swap1\n      revert\n    tag_226:\n        /* \"contracts/subasta.sol\":2618:2635  AuctionState.Open */\n      0x00\n        /* \"contracts/subasta.sol\":2609:2635  state == AuctionState.Open */\n      0x02\n      dup2\n      gt\n      iszero\n      tag_229\n      jumpi\n      tag_230\n      tag_107\n      jump\t// in\n    tag_230:\n    tag_229:\n        /* \"contracts/subasta.sol\":2609:2614  state */\n      0x06\n      0x00\n      swap1\n      sload\n      swap1\n      0x0100\n      exp\n      swap1\n      div\n      0xff\n      and\n        /* \"contracts/subasta.sol\":2609:2635  state == AuctionState.Open */\n      0x02\n      dup2\n      gt\n      iszero\n      tag_231\n      jumpi\n      tag_232\n      tag_107\n      jump\t// in\n    tag_232:\n    tag_231:\n      eq\n        /* \"contracts/subasta.sol\":2601:2654  require(state == AuctionState.Open, \"Auction closed\") */\n      tag_233\n      jumpi\n      mload(0x40)\n      0x08c379a000000000000000000000000000000000000000000000000000000000\n      dup2\n      mstore\n      0x04\n      add\n      tag_234\n      swap1\n      tag_235\n      jump\t// in\n    tag_234:\n      mload(0x40)\n      dup1\n      swap2\n      sub\n      swap1\n      revert\n    tag_233:\n        /* \"contracts/subasta.sol\":2691:2701  auctionEnd */\n      sload(0x02)\n        /* \"contracts/subasta.sol\":2672:2687  block.timestamp */\n      timestamp\n        /* \"contracts/subasta.sol\":2672:2701  block.timestamp >= auctionEnd */\n      lt\n      iszero\n        /* \"contracts/subasta.sol\":2672:2730  block.timestamp >= auctionEnd || numBidders >= MAX_BIDDERS */\n      dup1\n      tag_236\n      jumpi\n      pop\n        /* \"contracts/subasta.sol\":323:324  3 */\n      0x03\n        /* \"contracts/subasta.sol\":2705:2715  numBidders */\n      sload(0x05)\n        /* \"contracts/subasta.sol\":2705:2730  numBidders >= MAX_BIDDERS */\n      lt\n      iszero\n        /* \"contracts/subasta.sol\":2672:2730  block.timestamp >= auctionEnd || numBidders >= MAX_BIDDERS */\n    tag_236:\n        /* \"contracts/subasta.sol\":2664:2771  require(block.timestamp >= auctionEnd || numBidders >= MAX_BIDDERS, \"The auction cannot be closed earlier\") */\n      tag_237\n      jumpi\n      mload(0x40)\n      0x08c379a000000000000000000000000000000000000000000000000000000000\n      dup2\n      mstore\n      0x04\n      add\n      tag_238\n      swap1\n      tag_239\n      jump\t// in\n    tag_238:\n      mload(0x40)\n      dup1\n      swap2\n      sub\n      swap1\n      revert\n    tag_237:\n        /* \"contracts/subasta.sol\":2781:2799  _finalizeAuction() */\n      tag_240\n        /* \"contracts/subasta.sol\":2781:2797  _finalizeAuction */\n      tag_241\n        /* \"contracts/subasta.sol\":2781:2799  _finalizeAuction() */\n      jump\t// in\n    tag_240:\n        /* \"contracts/subasta.sol\":2545:2806  function finalizeAuction() external onlyOwner {... */\n      jump\t// out\n        /* \"contracts/subasta.sol\":254:279  uint256 public numBidders */\n    tag_98:\n      sload(0x05)\n      dup2\n      jump\t// out\n        /* \"contracts/subasta.sol\":2812:3010  function _finalizeAuction() private {... */\n    tag_241:\n        /* \"contracts/subasta.sol\":2866:2885  AuctionState.Closed */\n      0x01\n        /* \"contracts/subasta.sol\":2858:2863  state */\n      0x06\n      0x00\n        /* \"contracts/subasta.sol\":2858:2885  state = AuctionState.Closed */\n      0x0100\n      exp\n      dup2\n      sload\n      dup2\n      0xff\n      mul\n      not\n      and\n      swap1\n      dup4\n      0x02\n      dup2\n      gt\n      iszero\n      tag_243\n      jumpi\n      tag_244\n      tag_107\n      jump\t// in\n    tag_244:\n    tag_243:\n      mul\n      or\n      swap1\n      sstore\n      pop\n        /* \"contracts/subasta.sol\":2920:2938  _determineWinner() */\n      tag_245\n        /* \"contracts/subasta.sol\":2920:2936  _determineWinner */\n      tag_246\n        /* \"contracts/subasta.sol\":2920:2938  _determineWinner() */\n      jump\t// in\n    tag_245:\n        /* \"contracts/subasta.sol\":2896:2902  winner */\n      0x09\n      0x00\n        /* \"contracts/subasta.sol\":2904:2916  winningPrice */\n      0x0a\n      0x00\n        /* \"contracts/subasta.sol\":2895:2938  (winner, winningPrice) = _determineWinner() */\n      dup5\n      swap2\n      swap1\n      pop\n      sstore\n      dup4\n      swap2\n      swap1\n      0x0100\n      exp\n      dup2\n      sload\n      dup2\n      0xffffffffffffffffffffffffffffffffffffffff\n      mul\n      not\n      and\n      swap1\n      dup4\n      0xffffffffffffffffffffffffffffffffffffffff\n      and\n      mul\n      or\n      swap1\n      sstore\n      pop\n      pop\n      pop\n        /* \"contracts/subasta.sol\":2967:2973  winner */\n      0x09\n      0x00\n      swap1\n      sload\n      swap1\n      0x0100\n      exp\n      swap1\n      div\n      0xffffffffffffffffffffffffffffffffffffffff\n      and\n        /* \"contracts/subasta.sol\":2953:3003  AuctionClosed(winner, winnerDeposit, winningPrice) */\n      0xffffffffffffffffffffffffffffffffffffffff\n      and\n      0xfd8f22870817ee413fcb464d7ffd8415666c2ab6285fe8d409dc1dc21fffb4f6\n        /* \"contracts/subasta.sol\":2975:2988  winnerDeposit */\n      sload(0x0b)\n        /* \"contracts/subasta.sol\":2990:3002  winningPrice */\n      sload(0x0a)\n        /* \"contracts/subasta.sol\":2953:3003  AuctionClosed(winner, winnerDeposit, winningPrice) */\n      mload(0x40)\n      tag_247\n      swap3\n      swap2\n      swap1\n      tag_248\n      jump\t// in\n    tag_247:\n      mload(0x40)\n      dup1\n      swap2\n      sub\n      swap1\n      log2\n        /* \"contracts/subasta.sol\":2812:3010  function _finalizeAuction() private {... */\n      jump\t// out\n        /* \"contracts/subasta.sol\":3017:4133  function _determineWinner() private view returns (address payable, uint256) {... */\n    tag_246:\n        /* \"contracts/subasta.sol\":3067:3082  address payable */\n      0x00\n        /* \"contracts/subasta.sol\":3084:3091  uint256 */\n      0x00\n        /* \"contracts/subasta.sol\":3125:3126  0 */\n      0x00\n        /* \"contracts/subasta.sol\":3111:3115  bids */\n      0x07\n        /* \"contracts/subasta.sol\":3111:3122  bids.length */\n      dup1\n      sload\n      swap1\n      pop\n        /* \"contracts/subasta.sol\":3111:3126  bids.length > 0 */\n      gt\n        /* \"contracts/subasta.sol\":3103:3140  require(bids.length > 0, \"No offers\") */\n      tag_250\n      jumpi\n      mload(0x40)\n      0x08c379a000000000000000000000000000000000000000000000000000000000\n      dup2\n      mstore\n      0x04\n      add\n      tag_251\n      swap1\n      tag_252\n      jump\t// in\n    tag_251:\n      mload(0x40)\n      dup1\n      swap2\n      sub\n      swap1\n      revert\n    tag_250:\n        /* \"contracts/subasta.sol\":3151:3165  uint256 lowest */\n      0x00\n        /* \"contracts/subasta.sol\":3168:3174  maxBid */\n      sload(0x04)\n        /* \"contracts/subasta.sol\":3151:3174  uint256 lowest = maxBid */\n      swap1\n      pop\n        /* \"contracts/subasta.sol\":3184:3204  uint256 secondLowest */\n      0x00\n        /* \"contracts/subasta.sol\":3207:3213  maxBid */\n      sload(0x04)\n        /* \"contracts/subasta.sol\":3184:3213  uint256 secondLowest = maxBid */\n      swap1\n      pop\n        /* \"contracts/subasta.sol\":3223:3252  address payable winnerAddress */\n      0x00\n        /* \"contracts/subasta.sol\":3262:3287  uint256 earliestTimestamp */\n      0x00\n        /* \"contracts/subasta.sol\":3290:3307  type(uint256).max */\n      0xffffffffffffffffffffffffffffffffffffffffffffffffffffffffffffffff\n        /* \"contracts/subasta.sol\":3262:3307  uint256 earliestTimestamp = type(uint256).max */\n      swap1\n      pop\n        /* \"contracts/subasta.sol\":3323:3332  uint256 i */\n      0x00\n        /* \"contracts/subasta.sol\":3335:3336  0 */\n      0x00\n        /* \"contracts/subasta.sol\":3323:3336  uint256 i = 0 */\n      swap1\n      pop\n        /* \"contracts/subasta.sol\":3318:4052  for (uint256 i = 0; i < bids.length; i++) {... */\n    tag_253:\n        /* \"contracts/subasta.sol\":3342:3346  bids */\n      0x07\n        /* \"contracts/subasta.sol\":3342:3353  bids.length */\n      dup1\n      sload\n      swap1\n      pop\n        /* \"contracts/subasta.sol\":3338:3339  i */\n      dup2\n        /* \"contracts/subasta.sol\":3338:3353  i < bids.length */\n      lt\n        /* \"contracts/subasta.sol\":3318:4052  for (uint256 i = 0; i < bids.length; i++) {... */\n      iszero\n      tag_254\n      jumpi\n        /* \"contracts/subasta.sol\":3374:3388  uint256 amount */\n      0x00\n        /* \"contracts/subasta.sol\":3391:3395  bids */\n      0x07\n        /* \"contracts/subasta.sol\":3396:3397  i */\n      dup3\n        /* \"contracts/subasta.sol\":3391:3398  bids[i] */\n      dup2\n      sload\n      dup2\n      lt\n      tag_256\n      jumpi\n      tag_257\n      tag_124\n      jump\t// in\n    tag_257:\n    tag_256:\n      swap1\n      0x00\n      mstore\n      keccak256(0x00, 0x20)\n      swap1\n      0x04\n      mul\n      add\n        /* \"contracts/subasta.sol\":3391:3405  bids[i].amount */\n      0x01\n      add\n      sload\n        /* \"contracts/subasta.sol\":3374:3405  uint256 amount = bids[i].amount */\n      swap1\n      pop\n        /* \"contracts/subasta.sol\":3419:3436  uint256 timestamp */\n      0x00\n        /* \"contracts/subasta.sol\":3439:3443  bids */\n      0x07\n        /* \"contracts/subasta.sol\":3444:3445  i */\n      dup4\n        /* \"contracts/subasta.sol\":3439:3446  bids[i] */\n      dup2\n      sload\n      dup2\n      lt\n      tag_259\n      jumpi\n      tag_260\n      tag_124\n      jump\t// in\n    tag_260:\n    tag_259:\n      swap1\n      0x00\n      mstore\n      keccak256(0x00, 0x20)\n      swap1\n      0x04\n      mul\n      add\n        /* \"contracts/subasta.sol\":3439:3456  bids[i].timestamp */\n      0x02\n      add\n      sload\n        /* \"contracts/subasta.sol\":3419:3456  uint256 timestamp = bids[i].timestamp */\n      swap1\n      pop\n        /* \"contracts/subasta.sol\":3484:3490  lowest */\n      dup7\n        /* \"contracts/subasta.sol\":3475:3481  amount */\n      dup3\n        /* \"contracts/subasta.sol\":3475:3490  amount < lowest */\n      lt\n        /* \"contracts/subasta.sol\":3471:4042  if (amount < lowest) {... */\n      iszero\n      tag_262\n      jumpi\n        /* \"contracts/subasta.sol\":3525:3531  lowest */\n      dup7\n        /* \"contracts/subasta.sol\":3510:3531  secondLowest = lowest */\n      swap6\n      pop\n        /* \"contracts/subasta.sol\":3558:3564  amount */\n      dup2\n        /* \"contracts/subasta.sol\":3549:3564  lowest = amount */\n      swap7\n      pop\n        /* \"contracts/subasta.sol\":3598:3602  bids */\n      0x07\n        /* \"contracts/subasta.sol\":3603:3604  i */\n      dup4\n        /* \"contracts/subasta.sol\":3598:3605  bids[i] */\n      dup2\n      sload\n      dup2\n      lt\n      tag_263\n      jumpi\n      tag_264\n      tag_124\n      jump\t// in\n    tag_264:\n    tag_263:\n      swap1\n      0x00\n      mstore\n      keccak256(0x00, 0x20)\n      swap1\n      0x04\n      mul\n      add\n        /* \"contracts/subasta.sol\":3598:3612  bids[i].bidder */\n      0x00\n      add\n      0x00\n      swap1\n      sload\n      swap1\n      0x0100\n      exp\n      swap1\n      div\n      0xffffffffffffffffffffffffffffffffffffffff\n      and\n        /* \"contracts/subasta.sol\":3582:3612  winnerAddress = bids[i].bidder */\n      swap5\n      pop\n        /* \"contracts/subasta.sol\":3650:3659  timestamp */\n      dup1\n        /* \"contracts/subasta.sol\":3630:3659  earliestTimestamp = timestamp */\n      swap4\n      pop\n        /* \"contracts/subasta.sol\":3471:4042  if (amount < lowest) {... */\n      jump(tag_266)\n    tag_262:\n        /* \"contracts/subasta.sol\":3694:3700  lowest */\n      dup7\n        /* \"contracts/subasta.sol\":3684:3690  amount */\n      dup3\n        /* \"contracts/subasta.sol\":3684:3700  amount == lowest */\n      eq\n        /* \"contracts/subasta.sol\":3684:3733  amount == lowest && timestamp < earliestTimestamp */\n      dup1\n      iszero\n      tag_267\n      jumpi\n      pop\n        /* \"contracts/subasta.sol\":3716:3733  earliestTimestamp */\n      dup4\n        /* \"contracts/subasta.sol\":3704:3713  timestamp */\n      dup2\n        /* \"contracts/subasta.sol\":3704:3733  timestamp < earliestTimestamp */\n      lt\n        /* \"contracts/subasta.sol\":3684:3733  amount == lowest && timestamp < earliestTimestamp */\n    tag_267:\n        /* \"contracts/subasta.sol\":3680:4042  if (amount == lowest && timestamp < earliestTimestamp) {... */\n      iszero\n      tag_268\n      jumpi\n        /* \"contracts/subasta.sol\":3768:3774  lowest */\n      dup7\n        /* \"contracts/subasta.sol\":3753:3774  secondLowest = lowest */\n      swap6\n      pop\n        /* \"contracts/subasta.sol\":3808:3812  bids */\n      0x07\n        /* \"contracts/subasta.sol\":3813:3814  i */\n      dup4\n        /* \"contracts/subasta.sol\":3808:3815  bids[i] */\n      dup2\n      sload\n      dup2\n      lt\n      tag_269\n      jumpi\n      tag_270\n      tag_124\n      jump\t// in\n    tag_270:\n    tag_269:\n      swap1\n      0x00\n      mstore\n      keccak256(0x00, 0x20)\n      swap1\n      0x04\n      mul\n      add\n        /* \"contracts/subasta.sol\":3808:3822  bids[i].bidder */\n      0x00\n      add\n      0x00\n      swap1\n      sload\n      swap1\n      0x0100\n      exp\n      swap1\n      div\n      0xffffffffffffffffffffffffffffffffffffffff\n      and\n        /* \"contracts/subasta.sol\":3792:3822  winnerAddress = bids[i].bidder */\n      swap5\n      pop\n        /* \"contracts/subasta.sol\":3912:3921  timestamp */\n      dup1\n        /* \"contracts/subasta.sol\":3892:3921  earliestTimestamp = timestamp */\n      swap4\n      pop\n        /* \"contracts/subasta.sol\":3680:4042  if (amount == lowest && timestamp < earliestTimestamp) {... */\n      jump(tag_272)\n    tag_268:\n        /* \"contracts/subasta.sol\":3955:3967  secondLowest */\n      dup6\n        /* \"contracts/subasta.sol\":3946:3952  amount */\n      dup3\n        /* \"contracts/subasta.sol\":3946:3967  amount < secondLowest */\n      lt\n        /* \"contracts/subasta.sol\":3946:3986  amount < secondLowest && amount > lowest */\n      dup1\n      iszero\n      tag_273\n      jumpi\n      pop\n        /* \"contracts/subasta.sol\":3980:3986  lowest */\n      dup7\n        /* \"contracts/subasta.sol\":3971:3977  amount */\n      dup3\n        /* \"contracts/subasta.sol\":3971:3986  amount > lowest */\n      gt\n        /* \"contracts/subasta.sol\":3946:3986  amount < secondLowest && amount > lowest */\n    tag_273:\n        /* \"contracts/subasta.sol\":3942:4042  if (amount < secondLowest && amount > lowest) {... */\n      iszero\n      tag_274\n      jumpi\n        /* \"contracts/subasta.sol\":4021:4027  amount */\n      dup2\n        /* \"contracts/subasta.sol\":4006:4027  secondLowest = amount */\n      swap6\n      pop\n        /* \"contracts/subasta.sol\":3942:4042  if (amount < secondLowest && amount > lowest) {... */\n    tag_274:\n        /* \"contracts/subasta.sol\":3680:4042  if (amount == lowest && timestamp < earliestTimestamp) {... */\n    tag_272:\n        /* \"contracts/subasta.sol\":3471:4042  if (amount < lowest) {... */\n    tag_266:\n        /* \"contracts/subasta.sol\":3360:4052  {... */\n      pop\n      pop\n        /* \"contracts/subasta.sol\":3355:3358  i++ */\n      dup1\n      dup1\n      0x01\n      add\n      swap2\n      pop\n      pop\n        /* \"contracts/subasta.sol\":3318:4052  for (uint256 i = 0; i < bids.length; i++) {... */\n      jump(tag_253)\n    tag_254:\n      pop\n        /* \"contracts/subasta.sol\":4070:4083  winnerAddress */\n      dup2\n        /* \"contracts/subasta.sol\":4100:4101  1 */\n      0x01\n        /* \"contracts/subasta.sol\":4085:4089  bids */\n      0x07\n        /* \"contracts/subasta.sol\":4085:4096  bids.length */\n      dup1\n      sload\n      swap1\n      pop\n        /* \"contracts/subasta.sol\":4085:4101  bids.length == 1 */\n      eq\n        /* \"contracts/subasta.sol\":4085:4125  bids.length == 1 ? lowest : secondLowest */\n      tag_275\n      jumpi\n        /* \"contracts/subasta.sol\":4113:4125  secondLowest */\n      dup4\n        /* \"contracts/subasta.sol\":4085:4125  bids.length == 1 ? lowest : secondLowest */\n      jump(tag_276)\n    tag_275:\n        /* \"contracts/subasta.sol\":4104:4110  lowest */\n      dup5\n        /* \"contracts/subasta.sol\":4085:4125  bids.length == 1 ? lowest : secondLowest */\n    tag_276:\n        /* \"contracts/subasta.sol\":4062:4126  return (winnerAddress, bids.length == 1 ? lowest : secondLowest) */\n      swap6\n      pop\n      swap6\n      pop\n      pop\n      pop\n      pop\n      pop\n        /* \"contracts/subasta.sol\":3017:4133  function _determineWinner() private view returns (address payable, uint256) {... */\n      swap1\n      swap2\n      jump\t// out\n        /* \"#utility.yul\":88:205   */\n    tag_278:\n        /* \"#utility.yul\":197:198   */\n      0x00\n        /* \"#utility.yul\":194:195   */\n      0x00\n        /* \"#utility.yul\":187:199   */\n      revert\n        /* \"#utility.yul\":334:460   */\n    tag_280:\n        /* \"#utility.yul\":371:378   */\n      0x00\n        /* \"#utility.yul\":411:453   */\n      0xffffffffffffffffffffffffffffffffffffffff\n        /* \"#utility.yul\":404:409   */\n      dup3\n        /* \"#utility.yul\":400:454   */\n      and\n        /* \"#utility.yul\":389:454   */\n      swap1\n      pop\n        /* \"#utility.yul\":334:460   */\n      swap2\n      swap1\n      pop\n      jump\t// out\n        /* \"#utility.yul\":466:562   */\n    tag_281:\n        /* \"#utility.yul\":503:510   */\n      0x00\n        /* \"#utility.yul\":532:556   */\n      tag_337\n        /* \"#utility.yul\":550:555   */\n      dup3\n        /* \"#utility.yul\":532:556   */\n      tag_280\n      jump\t// in\n    tag_337:\n        /* \"#utility.yul\":521:556   */\n      swap1\n      pop\n        /* \"#utility.yul\":466:562   */\n      swap2\n      swap1\n      pop\n      jump\t// out\n        /* \"#utility.yul\":568:690   */\n    tag_282:\n        /* \"#utility.yul\":641:665   */\n      tag_339\n        /* \"#utility.yul\":659:664   */\n      dup2\n        /* \"#utility.yul\":641:665   */\n      tag_281\n      jump\t// in\n    tag_339:\n        /* \"#utility.yul\":634:639   */\n      dup2\n        /* \"#utility.yul\":631:666   */\n      eq\n        /* \"#utility.yul\":621:684   */\n      tag_340\n      jumpi\n        /* \"#utility.yul\":680:681   */\n      0x00\n        /* \"#utility.yul\":677:678   */\n      0x00\n        /* \"#utility.yul\":670:682   */\n      revert\n        /* \"#utility.yul\":621:684   */\n    tag_340:\n        /* \"#utility.yul\":568:690   */\n      pop\n      jump\t// out\n        /* \"#utility.yul\":696:835   */\n    tag_283:\n        /* \"#utility.yul\":742:747   */\n      0x00\n        /* \"#utility.yul\":780:786   */\n      dup2\n        /* \"#utility.yul\":767:787   */\n      calldataload\n        /* \"#utility.yul\":758:787   */\n      swap1\n      pop\n        /* \"#utility.yul\":796:829   */\n      tag_342\n        /* \"#utility.yul\":823:828   */\n      dup2\n        /* \"#utility.yul\":796:829   */\n      tag_282\n      jump\t// in\n    tag_342:\n        /* \"#utility.yul\":696:835   */\n      swap3\n      swap2\n      pop\n      pop\n      jump\t// out\n        /* \"#utility.yul\":841:1170   */\n    tag_29:\n        /* \"#utility.yul\":900:906   */\n      0x00\n        /* \"#utility.yul\":949:951   */\n      0x20\n        /* \"#utility.yul\":937:946   */\n      dup3\n        /* \"#utility.yul\":928:935   */\n      dup5\n        /* \"#utility.yul\":924:947   */\n      sub\n        /* \"#utility.yul\":920:952   */\n      slt\n        /* \"#utility.yul\":917:1036   */\n      iszero\n      tag_344\n      jumpi\n        /* \"#utility.yul\":955:1034   */\n      tag_345\n      tag_278\n      jump\t// in\n    tag_345:\n        /* \"#utility.yul\":917:1036   */\n    tag_344:\n        /* \"#utility.yul\":1075:1076   */\n      0x00\n        /* \"#utility.yul\":1100:1153   */\n      tag_346\n        /* \"#utility.yul\":1145:1152   */\n      dup5\n        /* \"#utility.yul\":1136:1142   */\n      dup3\n        /* \"#utility.yul\":1125:1134   */\n      dup6\n        /* \"#utility.yul\":1121:1143   */\n      add\n        /* \"#utility.yul\":1100:1153   */\n      tag_283\n      jump\t// in\n    tag_346:\n        /* \"#utility.yul\":1090:1153   */\n      swap2\n      pop\n        /* \"#utility.yul\":1046:1163   */\n      pop\n        /* \"#utility.yul\":841:1170   */\n      swap3\n      swap2\n      pop\n      pop\n      jump\t// out\n        /* \"#utility.yul\":1176:1266   */\n    tag_284:\n        /* \"#utility.yul\":1210:1217   */\n      0x00\n        /* \"#utility.yul\":1253:1258   */\n      dup2\n        /* \"#utility.yul\":1246:1259   */\n      iszero\n        /* \"#utility.yul\":1239:1260   */\n      iszero\n        /* \"#utility.yul\":1228:1260   */\n      swap1\n      pop\n        /* \"#utility.yul\":1176:1266   */\n      swap2\n      swap1\n      pop\n      jump\t// out\n        /* \"#utility.yul\":1272:1381   */\n    tag_285:\n        /* \"#utility.yul\":1353:1374   */\n      tag_349\n        /* \"#utility.yul\":1368:1373   */\n      dup2\n        /* \"#utility.yul\":1353:1374   */\n      tag_284\n      jump\t// in\n    tag_349:\n        /* \"#utility.yul\":1348:1351   */\n      dup3\n        /* \"#utility.yul\":1341:1375   */\n      mstore\n        /* \"#utility.yul\":1272:1381   */\n      pop\n      pop\n      jump\t// out\n        /* \"#utility.yul\":1387:1597   */\n    tag_32:\n        /* \"#utility.yul\":1474:1478   */\n      0x00\n        /* \"#utility.yul\":1512:1514   */\n      0x20\n        /* \"#utility.yul\":1501:1510   */\n      dup3\n        /* \"#utility.yul\":1497:1515   */\n      add\n        /* \"#utility.yul\":1489:1515   */\n      swap1\n      pop\n        /* \"#utility.yul\":1525:1590   */\n      tag_351\n        /* \"#utility.yul\":1587:1588   */\n      0x00\n        /* \"#utility.yul\":1576:1585   */\n      dup4\n        /* \"#utility.yul\":1572:1589   */\n      add\n        /* \"#utility.yul\":1563:1569   */\n      dup5\n        /* \"#utility.yul\":1525:1590   */\n      tag_285\n      jump\t// in\n    tag_351:\n        /* \"#utility.yul\":1387:1597   */\n      swap3\n      swap2\n      pop\n      pop\n      jump\t// out\n        /* \"#utility.yul\":1603:1680   */\n    tag_286:\n        /* \"#utility.yul\":1640:1647   */\n      0x00\n        /* \"#utility.yul\":1669:1674   */\n      dup2\n        /* \"#utility.yul\":1658:1674   */\n      swap1\n      pop\n        /* \"#utility.yul\":1603:1680   */\n      swap2\n      swap1\n      pop\n      jump\t// out\n        /* \"#utility.yul\":1686:1804   */\n    tag_287:\n        /* \"#utility.yul\":1773:1797   */\n      tag_354\n        /* \"#utility.yul\":1791:1796   */\n      dup2\n        /* \"#utility.yul\":1773:1797   */\n      tag_286\n      jump\t// in\n    tag_354:\n        /* \"#utility.yul\":1768:1771   */\n      dup3\n        /* \"#utility.yul\":1761:1798   */\n      mstore\n        /* \"#utility.yul\":1686:1804   */\n      pop\n      pop\n      jump\t// out\n        /* \"#utility.yul\":1810:2032   */\n    tag_37:\n        /* \"#utility.yul\":1903:1907   */\n      0x00\n        /* \"#utility.yul\":1941:1943   */\n      0x20\n        /* \"#utility.yul\":1930:1939   */\n      dup3\n        /* \"#utility.yul\":1926:1944   */\n      add\n        /* \"#utility.yul\":1918:1944   */\n      swap1\n      pop\n        /* \"#utility.yul\":1954:2025   */\n      tag_356\n        /* \"#utility.yul\":2022:2023   */\n      0x00\n        /* \"#utility.yul\":2011:2020   */\n      dup4\n        /* \"#utility.yul\":2007:2024   */\n      add\n        /* \"#utility.yul\":1998:2004   */\n      dup5\n        /* \"#utility.yul\":1954:2025   */\n      tag_287\n      jump\t// in\n    tag_356:\n        /* \"#utility.yul\":1810:2032   */\n      swap3\n      swap2\n      pop\n      pop\n      jump\t// out\n        /* \"#utility.yul\":2038:2142   */\n    tag_288:\n        /* \"#utility.yul\":2083:2090   */\n      0x00\n        /* \"#utility.yul\":2112:2136   */\n      tag_358\n        /* \"#utility.yul\":2130:2135   */\n      dup3\n        /* \"#utility.yul\":2112:2136   */\n      tag_280\n      jump\t// in\n    tag_358:\n        /* \"#utility.yul\":2101:2136   */\n      swap1\n      pop\n        /* \"#utility.yul\":2038:2142   */\n      swap2\n      swap1\n      pop\n      jump\t// out\n        /* \"#utility.yul\":2148:2290   */\n    tag_289:\n        /* \"#utility.yul\":2251:2283   */\n      tag_360\n        /* \"#utility.yul\":2277:2282   */\n      dup2\n        /* \"#utility.yul\":2251:2283   */\n      tag_288\n      jump\t// in\n    tag_360:\n        /* \"#utility.yul\":2246:2249   */\n      dup3\n        /* \"#utility.yul\":2239:2284   */\n      mstore\n        /* \"#utility.yul\":2148:2290   */\n      pop\n      pop\n      jump\t// out\n        /* \"#utility.yul\":2296:2550   */\n    tag_71:\n        /* \"#utility.yul\":2405:2409   */\n      0x00\n        /* \"#utility.yul\":2443:2445   */\n      0x20\n        /* \"#utility.yul\":2432:2441   */\n      dup3\n        /* \"#utility.yul\":2428:2446   */\n      add\n        /* \"#utility.yul\":2420:2446   */\n      swap1\n      pop\n        /* \"#utility.yul\":2456:2543   */\n      tag_362\n        /* \"#utility.yul\":2540:2541   */\n      0x00\n        /* \"#utility.yul\":2529:2538   */\n      dup4\n        /* \"#utility.yul\":2525:2542   */\n      add\n        /* \"#utility.yul\":2516:2522   */\n      dup5\n        /* \"#utility.yul\":2456:2543   */\n      tag_289\n      jump\t// in\n    tag_362:\n        /* \"#utility.yul\":2296:2550   */\n      swap3\n      swap2\n      pop\n      pop\n      jump\t// out\n        /* \"#utility.yul\":2556:2678   */\n    tag_290:\n        /* \"#utility.yul\":2629:2653   */\n      tag_364\n        /* \"#utility.yul\":2647:2652   */\n      dup2\n        /* \"#utility.yul\":2629:2653   */\n      tag_286\n      jump\t// in\n    tag_364:\n        /* \"#utility.yul\":2622:2627   */\n      dup2\n        /* \"#utility.yul\":2619:2654   */\n      eq\n        /* \"#utility.yul\":2609:2672   */\n      tag_365\n      jumpi\n        /* \"#utility.yul\":2668:2669   */\n      0x00\n        /* \"#utility.yul\":2665:2666   */\n      0x00\n        /* \"#utility.yul\":2658:2670   */\n      revert\n        /* \"#utility.yul\":2609:2672   */\n    tag_365:\n        /* \"#utility.yul\":2556:2678   */\n      pop\n      jump\t// out\n        /* \"#utility.yul\":2684:2823   */\n    tag_291:\n        /* \"#utility.yul\":2730:2735   */\n      0x00\n        /* \"#utility.yul\":2768:2774   */\n      dup2\n        /* \"#utility.yul\":2755:2775   */\n      calldataload\n        /* \"#utility.yul\":2746:2775   */\n      swap1\n      pop\n        /* \"#utility.yul\":2784:2817   */\n      tag_367\n        /* \"#utility.yul\":2811:2816   */\n      dup2\n        /* \"#utility.yul\":2784:2817   */\n      tag_290\n      jump\t// in\n    tag_367:\n        /* \"#utility.yul\":2684:2823   */\n      swap3\n      swap2\n      pop\n      pop\n      jump\t// out\n        /* \"#utility.yul\":2829:3158   */\n    tag_74:\n        /* \"#utility.yul\":2888:2894   */\n      0x00\n        /* \"#utility.yul\":2937:2939   */\n      0x20\n        /* \"#utility.yul\":2925:2934   */\n      dup3\n        /* \"#utility.yul\":2916:2923   */\n      dup5\n        /* \"#utility.yul\":2912:2935   */\n      sub\n        /* \"#utility.yul\":2908:2940   */\n      slt\n        /* \"#utility.yul\":2905:3024   */\n      iszero\n      tag_369\n      jumpi\n        /* \"#utility.yul\":2943:3022   */\n      tag_370\n      tag_278\n      jump\t// in\n    tag_370:\n        /* \"#utility.yul\":2905:3024   */\n    tag_369:\n        /* \"#utility.yul\":3063:3064   */\n      0x00\n        /* \"#utility.yul\":3088:3141   */\n      tag_371\n        /* \"#utility.yul\":3133:3140   */\n      dup5\n        /* \"#utility.yul\":3124:3130   */\n      dup3\n        /* \"#utility.yul\":3113:3122   */\n      dup6\n        /* \"#utility.yul\":3109:3131   */\n      add\n        /* \"#utility.yul\":3088:3141   */\n      tag_291\n      jump\t// in\n    tag_371:\n        /* \"#utility.yul\":3078:3141   */\n      swap2\n      pop\n        /* \"#utility.yul\":3034:3151   */\n      pop\n        /* \"#utility.yul\":2829:3158   */\n      swap3\n      swap2\n      pop\n      pop\n      jump\t// out\n        /* \"#utility.yul\":3164:3344   */\n    tag_107:\n        /* \"#utility.yul\":3212:3289   */\n      0x4e487b7100000000000000000000000000000000000000000000000000000000\n        /* \"#utility.yul\":3209:3210   */\n      0x00\n        /* \"#utility.yul\":3202:3290   */\n      mstore\n        /* \"#utility.yul\":3309:3313   */\n      0x21\n        /* \"#utility.yul\":3306:3307   */\n      0x04\n        /* \"#utility.yul\":3299:3314   */\n      mstore\n        /* \"#utility.yul\":3333:3337   */\n      0x24\n        /* \"#utility.yul\":3330:3331   */\n      0x00\n        /* \"#utility.yul\":3323:3338   */\n      revert\n        /* \"#utility.yul\":3350:3470   */\n    tag_292:\n        /* \"#utility.yul\":3438:3439   */\n      0x03\n        /* \"#utility.yul\":3431:3436   */\n      dup2\n        /* \"#utility.yul\":3428:3440   */\n      lt\n        /* \"#utility.yul\":3418:3464   */\n      tag_374\n      jumpi\n        /* \"#utility.yul\":3444:3462   */\n      tag_375\n      tag_107\n      jump\t// in\n    tag_375:\n        /* \"#utility.yul\":3418:3464   */\n    tag_374:\n        /* \"#utility.yul\":3350:3470   */\n      pop\n      jump\t// out\n        /* \"#utility.yul\":3476:3617   */\n    tag_293:\n        /* \"#utility.yul\":3528:3535   */\n      0x00\n        /* \"#utility.yul\":3557:3562   */\n      dup2\n        /* \"#utility.yul\":3546:3562   */\n      swap1\n      pop\n        /* \"#utility.yul\":3563:3611   */\n      tag_377\n        /* \"#utility.yul\":3605:3610   */\n      dup3\n        /* \"#utility.yul\":3563:3611   */\n      tag_292\n      jump\t// in\n    tag_377:\n        /* \"#utility.yul\":3476:3617   */\n      swap2\n      swap1\n      pop\n      jump\t// out\n        /* \"#utility.yul\":3623:3764   */\n    tag_294:\n        /* \"#utility.yul\":3686:3695   */\n      0x00\n        /* \"#utility.yul\":3719:3758   */\n      tag_379\n        /* \"#utility.yul\":3752:3757   */\n      dup3\n        /* \"#utility.yul\":3719:3758   */\n      tag_293\n      jump\t// in\n    tag_379:\n        /* \"#utility.yul\":3706:3758   */\n      swap1\n      pop\n        /* \"#utility.yul\":3623:3764   */\n      swap2\n      swap1\n      pop\n      jump\t// out\n        /* \"#utility.yul\":3770:3927   */\n    tag_295:\n        /* \"#utility.yul\":3870:3920   */\n      tag_381\n        /* \"#utility.yul\":3914:3919   */\n      dup2\n        /* \"#utility.yul\":3870:3920   */\n      tag_294\n      jump\t// in\n    tag_381:\n        /* \"#utility.yul\":3865:3868   */\n      dup3\n        /* \"#utility.yul\":3858:3921   */\n      mstore\n        /* \"#utility.yul\":3770:3927   */\n      pop\n      pop\n      jump\t// out\n        /* \"#utility.yul\":3933:4181   */\n    tag_80:\n        /* \"#utility.yul\":4039:4043   */\n      0x00\n        /* \"#utility.yul\":4077:4079   */\n      0x20\n        /* \"#utility.yul\":4066:4075   */\n      dup3\n        /* \"#utility.yul\":4062:4080   */\n      add\n        /* \"#utility.yul\":4054:4080   */\n      swap1\n      pop\n        /* \"#utility.yul\":4090:4174   */\n      tag_383\n        /* \"#utility.yul\":4171:4172   */\n      0x00\n        /* \"#utility.yul\":4160:4169   */\n      dup4\n        /* \"#utility.yul\":4156:4173   */\n      add\n        /* \"#utility.yul\":4147:4153   */\n      dup5\n        /* \"#utility.yul\":4090:4174   */\n      tag_295\n      jump\t// in\n    tag_383:\n        /* \"#utility.yul\":3933:4181   */\n      swap3\n      swap2\n      pop\n      pop\n      jump\t// out\n        /* \"#utility.yul\":4187:4356   */\n    tag_296:\n        /* \"#utility.yul\":4271:4282   */\n      0x00\n        /* \"#utility.yul\":4305:4311   */\n      dup3\n        /* \"#utility.yul\":4300:4303   */\n      dup3\n        /* \"#utility.yul\":4293:4312   */\n      mstore\n        /* \"#utility.yul\":4345:4349   */\n      0x20\n        /* \"#utility.yul\":4340:4343   */\n      dup3\n        /* \"#utility.yul\":4336:4350   */\n      add\n        /* \"#utility.yul\":4321:4350   */\n      swap1\n      pop\n        /* \"#utility.yul\":4187:4356   */\n      swap3\n      swap2\n      pop\n      pop\n      jump\t// out\n        /* \"#utility.yul\":4362:4586   */\n    tag_297:\n        /* \"#utility.yul\":4502:4536   */\n      0x4f6e6c7920746865206f776e65722063616e2063616c6c20746869732066756e\n        /* \"#utility.yul\":4498:4499   */\n      0x00\n        /* \"#utility.yul\":4490:4496   */\n      dup3\n        /* \"#utility.yul\":4486:4500   */\n      add\n        /* \"#utility.yul\":4479:4537   */\n      mstore\n        /* \"#utility.yul\":4571:4578   */\n      0x6374696f6e000000000000000000000000000000000000000000000000000000\n        /* \"#utility.yul\":4566:4568   */\n      0x20\n        /* \"#utility.yul\":4558:4564   */\n      dup3\n        /* \"#utility.yul\":4554:4569   */\n      add\n        /* \"#utility.yul\":4547:4579   */\n      mstore\n        /* \"#utility.yul\":4362:4586   */\n      pop\n      jump\t// out\n        /* \"#utility.yul\":4592:4958   */\n    tag_298:\n        /* \"#utility.yul\":4734:4737   */\n      0x00\n        /* \"#utility.yul\":4755:4822   */\n      tag_387\n        /* \"#utility.yul\":4819:4821   */\n      0x25\n        /* \"#utility.yul\":4814:4817   */\n      dup4\n        /* \"#utility.yul\":4755:4822   */\n      tag_296\n      jump\t// in\n    tag_387:\n        /* \"#utility.yul\":4748:4822   */\n      swap2\n      pop\n        /* \"#utility.yul\":4831:4924   */\n      tag_388\n        /* \"#utility.yul\":4920:4923   */\n      dup3\n        /* \"#utility.yul\":4831:4924   */\n      tag_297\n      jump\t// in\n    tag_388:\n        /* \"#utility.yul\":4949:4951   */\n      0x40\n        /* \"#utility.yul\":4944:4947   */\n      dup3\n        /* \"#utility.yul\":4940:4952   */\n      add\n        /* \"#utility.yul\":4933:4952   */\n      swap1\n      pop\n        /* \"#utility.yul\":4592:4958   */\n      swap2\n      swap1\n      pop\n      jump\t// out\n        /* \"#utility.yul\":4964:5383   */\n    tag_103:\n        /* \"#utility.yul\":5130:5134   */\n      0x00\n        /* \"#utility.yul\":5168:5170   */\n      0x20\n        /* \"#utility.yul\":5157:5166   */\n      dup3\n        /* \"#utility.yul\":5153:5171   */\n      add\n        /* \"#utility.yul\":5145:5171   */\n      swap1\n      pop\n        /* \"#utility.yul\":5217:5226   */\n      dup2\n        /* \"#utility.yul\":5211:5215   */\n      dup2\n        /* \"#utility.yul\":5207:5227   */\n      sub\n        /* \"#utility.yul\":5203:5204   */\n      0x00\n        /* \"#utility.yul\":5192:5201   */\n      dup4\n        /* \"#utility.yul\":5188:5205   */\n      add\n        /* \"#utility.yul\":5181:5228   */\n      mstore\n        /* \"#utility.yul\":5245:5376   */\n      tag_390\n        /* \"#utility.yul\":5371:5375   */\n      dup2\n        /* \"#utility.yul\":5245:5376   */\n      tag_298\n      jump\t// in\n    tag_390:\n        /* \"#utility.yul\":5237:5376   */\n      swap1\n      pop\n        /* \"#utility.yul\":4964:5383   */\n      swap2\n      swap1\n      pop\n      jump\t// out\n        /* \"#utility.yul\":5389:5631   */\n    tag_299:\n        /* \"#utility.yul\":5529:5563   */\n      0x41756374696f6e207374696c6c206f70656e206f72206469646e277420706169\n        /* \"#utility.yul\":5525:5526   */\n      0x00\n        /* \"#utility.yul\":5517:5523   */\n      dup3\n        /* \"#utility.yul\":5513:5527   */\n      add\n        /* \"#utility.yul\":5506:5564   */\n      mstore\n        /* \"#utility.yul\":5598:5623   */\n      0x64206261636b20746865206465706f7369747320796574000000000000000000\n        /* \"#utility.yul\":5593:5595   */\n      0x20\n        /* \"#utility.yul\":5585:5591   */\n      dup3\n        /* \"#utility.yul\":5581:5596   */\n      add\n        /* \"#utility.yul\":5574:5624   */\n      mstore\n        /* \"#utility.yul\":5389:5631   */\n      pop\n      jump\t// out\n        /* \"#utility.yul\":5637:6003   */\n    tag_300:\n        /* \"#utility.yul\":5779:5782   */\n      0x00\n        /* \"#utility.yul\":5800:5867   */\n      tag_393\n        /* \"#utility.yul\":5864:5866   */\n      0x37\n        /* \"#utility.yul\":5859:5862   */\n      dup4\n        /* \"#utility.yul\":5800:5867   */\n      tag_296\n      jump\t// in\n    tag_393:\n        /* \"#utility.yul\":5793:5867   */\n      swap2\n      pop\n        /* \"#utility.yul\":5876:5969   */\n      tag_394\n        /* \"#utility.yul\":5965:5968   */\n      dup3\n        /* \"#utility.yul\":5876:5969   */\n      tag_299\n      jump\t// in\n    tag_394:\n        /* \"#utility.yul\":5994:5996   */\n      0x40\n        /* \"#utility.yul\":5989:5992   */\n      dup3\n        /* \"#utility.yul\":5985:5997   */\n      add\n        /* \"#utility.yul\":5978:5997   */\n      swap1\n      pop\n        /* \"#utility.yul\":5637:6003   */\n      swap2\n      swap1\n      pop\n      jump\t// out\n        /* \"#utility.yul\":6009:6428   */\n    tag_112:\n        /* \"#utility.yul\":6175:6179   */\n      0x00\n        /* \"#utility.yul\":6213:6215   */\n      0x20\n        /* \"#utility.yul\":6202:6211   */\n      dup3\n        /* \"#utility.yul\":6198:6216   */\n      add\n        /* \"#utility.yul\":6190:6216   */\n      swap1\n      pop\n        /* \"#utility.yul\":6262:6271   */\n      dup2\n        /* \"#utility.yul\":6256:6260   */\n      dup2\n        /* \"#utility.yul\":6252:6272   */\n      sub\n        /* \"#utility.yul\":6248:6249   */\n      0x00\n        /* \"#utility.yul\":6237:6246   */\n      dup4\n        /* \"#utility.yul\":6233:6250   */\n      add\n        /* \"#utility.yul\":6226:6273   */\n      mstore\n        /* \"#utility.yul\":6290:6421   */\n      tag_396\n        /* \"#utility.yul\":6416:6420   */\n      dup2\n        /* \"#utility.yul\":6290:6421   */\n      tag_300\n      jump\t// in\n    tag_396:\n        /* \"#utility.yul\":6282:6421   */\n      swap1\n      pop\n        /* \"#utility.yul\":6009:6428   */\n      swap2\n      swap1\n      pop\n      jump\t// out\n        /* \"#utility.yul\":6434:6614   */\n    tag_301:\n        /* \"#utility.yul\":6574:6606   */\n      0x5468652064656c69766572792063616e207374696c6c206265206d6164650000\n        /* \"#utility.yul\":6570:6571   */\n      0x00\n        /* \"#utility.yul\":6562:6568   */\n      dup3\n        /* \"#utility.yul\":6558:6572   */\n      add\n        /* \"#utility.yul\":6551:6607   */\n      mstore\n        /* \"#utility.yul\":6434:6614   */\n      pop\n      jump\t// out\n        /* \"#utility.yul\":6620:6986   */\n    tag_302:\n        /* \"#utility.yul\":6762:6765   */\n      0x00\n        /* \"#utility.yul\":6783:6850   */\n      tag_399\n        /* \"#utility.yul\":6847:6849   */\n      0x1e\n        /* \"#utility.yul\":6842:6845   */\n      dup4\n        /* \"#utility.yul\":6783:6850   */\n      tag_296\n      jump\t// in\n    tag_399:\n        /* \"#utility.yul\":6776:6850   */\n      swap2\n      pop\n        /* \"#utility.yul\":6859:6952   */\n      tag_400\n        /* \"#utility.yul\":6948:6951   */\n      dup3\n        /* \"#utility.yul\":6859:6952   */\n      tag_301\n      jump\t// in\n    tag_400:\n        /* \"#utility.yul\":6977:6979   */\n      0x20\n        /* \"#utility.yul\":6972:6975   */\n      dup3\n        /* \"#utility.yul\":6968:6980   */\n      add\n        /* \"#utility.yul\":6961:6980   */\n      swap1\n      pop\n        /* \"#utility.yul\":6620:6986   */\n      swap2\n      swap1\n      pop\n      jump\t// out\n        /* \"#utility.yul\":6992:7411   */\n    tag_115:\n        /* \"#utility.yul\":7158:7162   */\n      0x00\n        /* \"#utility.yul\":7196:7198   */\n      0x20\n        /* \"#utility.yul\":7185:7194   */\n      dup3\n        /* \"#utility.yul\":7181:7199   */\n      add\n        /* \"#utility.yul\":7173:7199   */\n      swap1\n      pop\n        /* \"#utility.yul\":7245:7254   */\n      dup2\n        /* \"#utility.yul\":7239:7243   */\n      dup2\n        /* \"#utility.yul\":7235:7255   */\n      sub\n        /* \"#utility.yul\":7231:7232   */\n      0x00\n        /* \"#utility.yul\":7220:7229   */\n      dup4\n        /* \"#utility.yul\":7216:7233   */\n      add\n        /* \"#utility.yul\":7209:7256   */\n      mstore\n        /* \"#utility.yul\":7273:7404   */\n      tag_402\n        /* \"#utility.yul\":7399:7403   */\n      dup2\n        /* \"#utility.yul\":7273:7404   */\n      tag_302\n      jump\t// in\n    tag_402:\n        /* \"#utility.yul\":7265:7404   */\n      swap1\n      pop\n        /* \"#utility.yul\":6992:7411   */\n      swap2\n      swap1\n      pop\n      jump\t// out\n        /* \"#utility.yul\":7417:7597   */\n    tag_124:\n        /* \"#utility.yul\":7465:7542   */\n      0x4e487b7100000000000000000000000000000000000000000000000000000000\n        /* \"#utility.yul\":7462:7463   */\n      0x00\n        /* \"#utility.yul\":7455:7543   */\n      mstore\n        /* \"#utility.yul\":7562:7566   */\n      0x32\n        /* \"#utility.yul\":7559:7560   */\n      0x04\n        /* \"#utility.yul\":7552:7567   */\n      mstore\n        /* \"#utility.yul\":7586:7590   */\n      0x24\n        /* \"#utility.yul\":7583:7584   */\n      0x00\n        /* \"#utility.yul\":7576:7591   */\n      revert\n        /* \"#utility.yul\":7603:7771   */\n    tag_303:\n        /* \"#utility.yul\":7743:7763   */\n      0x41756374696f6e207374696c6c206f70656e0000000000000000000000000000\n        /* \"#utility.yul\":7739:7740   */\n      0x00\n        /* \"#utility.yul\":7731:7737   */\n      dup3\n        /* \"#utility.yul\":7727:7741   */\n      add\n        /* \"#utility.yul\":7720:7764   */\n      mstore\n        /* \"#utility.yul\":7603:7771   */\n      pop\n      jump\t// out\n        /* \"#utility.yul\":7777:8143   */\n    tag_304:\n        /* \"#utility.yul\":7919:7922   */\n      0x00\n        /* \"#utility.yul\":7940:8007   */\n      tag_406\n        /* \"#utility.yul\":8004:8006   */\n      0x12\n        /* \"#utility.yul\":7999:8002   */\n      dup4\n        /* \"#utility.yul\":7940:8007   */\n      tag_296\n      jump\t// in\n    tag_406:\n        /* \"#utility.yul\":7933:8007   */\n      swap2\n      pop\n        /* \"#utility.yul\":8016:8109   */\n      tag_407\n        /* \"#utility.yul\":8105:8108   */\n      dup3\n        /* \"#utility.yul\":8016:8109   */\n      tag_303\n      jump\t// in\n    tag_407:\n        /* \"#utility.yul\":8134:8136   */\n      0x20\n        /* \"#utility.yul\":8129:8132   */\n      dup3\n        /* \"#utility.yul\":8125:8137   */\n      add\n        /* \"#utility.yul\":8118:8137   */\n      swap1\n      pop\n        /* \"#utility.yul\":7777:8143   */\n      swap2\n      swap1\n      pop\n      jump\t// out\n        /* \"#utility.yul\":8149:8568   */\n    tag_138:\n        /* \"#utility.yul\":8315:8319   */\n      0x00\n        /* \"#utility.yul\":8353:8355   */\n      0x20\n        /* \"#utility.yul\":8342:8351   */\n      dup3\n        /* \"#utility.yul\":8338:8356   */\n      add\n        /* \"#utility.yul\":8330:8356   */\n      swap1\n      pop\n        /* \"#utility.yul\":8402:8411   */\n      dup2\n        /* \"#utility.yul\":8396:8400   */\n      dup2\n        /* \"#utility.yul\":8392:8412   */\n      sub\n        /* \"#utility.yul\":8388:8389   */\n      0x00\n        /* \"#utility.yul\":8377:8386   */\n      dup4\n        /* \"#utility.yul\":8373:8390   */\n      add\n        /* \"#utility.yul\":8366:8413   */\n      mstore\n        /* \"#utility.yul\":8430:8561   */\n      tag_409\n        /* \"#utility.yul\":8556:8560   */\n      dup2\n        /* \"#utility.yul\":8430:8561   */\n      tag_304\n      jump\t// in\n    tag_409:\n        /* \"#utility.yul\":8422:8561   */\n      swap1\n      pop\n        /* \"#utility.yul\":8149:8568   */\n      swap2\n      swap1\n      pop\n      jump\t// out\n        /* \"#utility.yul\":8574:8747   */\n    tag_305:\n        /* \"#utility.yul\":8714:8739   */\n      0x5468652064656c6976657279206973206f766572647565000000000000000000\n        /* \"#utility.yul\":8710:8711   */\n      0x00\n        /* \"#utility.yul\":8702:8708   */\n      dup3\n        /* \"#utility.yul\":8698:8712   */\n      add\n        /* \"#utility.yul\":8691:8740   */\n      mstore\n        /* \"#utility.yul\":8574:8747   */\n      pop\n      jump\t// out\n        /* \"#utility.yul\":8753:9119   */\n    tag_306:\n        /* \"#utility.yul\":8895:8898   */\n      0x00\n        /* \"#utility.yul\":8916:8983   */\n      tag_412\n        /* \"#utility.yul\":8980:8982   */\n      0x17\n        /* \"#utility.yul\":8975:8978   */\n      dup4\n        /* \"#utility.yul\":8916:8983   */\n      tag_296\n      jump\t// in\n    tag_412:\n        /* \"#utility.yul\":8909:8983   */\n      swap2\n      pop\n        /* \"#utility.yul\":8992:9085   */\n      tag_413\n        /* \"#utility.yul\":9081:9084   */\n      dup3\n        /* \"#utility.yul\":8992:9085   */\n      tag_305\n      jump\t// in\n    tag_413:\n        /* \"#utility.yul\":9110:9112   */\n      0x20\n        /* \"#utility.yul\":9105:9108   */\n      dup3\n        /* \"#utility.yul\":9101:9113   */\n      add\n        /* \"#utility.yul\":9094:9113   */\n      swap1\n      pop\n        /* \"#utility.yul\":8753:9119   */\n      swap2\n      swap1\n      pop\n      jump\t// out\n        /* \"#utility.yul\":9125:9544   */\n    tag_179:\n        /* \"#utility.yul\":9291:9295   */\n      0x00\n        /* \"#utility.yul\":9329:9331   */\n      0x20\n        /* \"#utility.yul\":9318:9327   */\n      dup3\n        /* \"#utility.yul\":9314:9332   */\n      add\n        /* \"#utility.yul\":9306:9332   */\n      swap1\n      pop\n        /* \"#utility.yul\":9378:9387   */\n      dup2\n        /* \"#utility.yul\":9372:9376   */\n      dup2\n        /* \"#utility.yul\":9368:9388   */\n      sub\n        /* \"#utility.yul\":9364:9365   */\n      0x00\n        /* \"#utility.yul\":9353:9362   */\n      dup4\n        /* \"#utility.yul\":9349:9366   */\n      add\n        /* \"#utility.yul\":9342:9389   */\n      mstore\n        /* \"#utility.yul\":9406:9537   */\n      tag_415\n        /* \"#utility.yul\":9532:9536   */\n      dup2\n        /* \"#utility.yul\":9406:9537   */\n      tag_306\n      jump\t// in\n    tag_415:\n        /* \"#utility.yul\":9398:9537   */\n      swap1\n      pop\n        /* \"#utility.yul\":9125:9544   */\n      swap2\n      swap1\n      pop\n      jump\t// out\n        /* \"#utility.yul\":9550:9730   */\n    tag_307:\n        /* \"#utility.yul\":9598:9675   */\n      0x4e487b7100000000000000000000000000000000000000000000000000000000\n        /* \"#utility.yul\":9595:9596   */\n      0x00\n        /* \"#utility.yul\":9588:9676   */\n      mstore\n        /* \"#utility.yul\":9695:9699   */\n      0x11\n        /* \"#utility.yul\":9692:9693   */\n      0x04\n        /* \"#utility.yul\":9685:9700   */\n      mstore\n        /* \"#utility.yul\":9719:9723   */\n      0x24\n        /* \"#utility.yul\":9716:9717   */\n      0x00\n        /* \"#utility.yul\":9709:9724   */\n      revert\n        /* \"#utility.yul\":9736:9927   */\n    tag_181:\n        /* \"#utility.yul\":9776:9779   */\n      0x00\n        /* \"#utility.yul\":9795:9815   */\n      tag_418\n        /* \"#utility.yul\":9813:9814   */\n      dup3\n        /* \"#utility.yul\":9795:9815   */\n      tag_286\n      jump\t// in\n    tag_418:\n        /* \"#utility.yul\":9790:9815   */\n      swap2\n      pop\n        /* \"#utility.yul\":9829:9849   */\n      tag_419\n        /* \"#utility.yul\":9847:9848   */\n      dup4\n        /* \"#utility.yul\":9829:9849   */\n      tag_286\n      jump\t// in\n    tag_419:\n        /* \"#utility.yul\":9824:9849   */\n      swap3\n      pop\n        /* \"#utility.yul\":9872:9873   */\n      dup3\n        /* \"#utility.yul\":9869:9870   */\n      dup3\n        /* \"#utility.yul\":9865:9874   */\n      add\n        /* \"#utility.yul\":9858:9874   */\n      swap1\n      pop\n        /* \"#utility.yul\":9893:9896   */\n      dup1\n        /* \"#utility.yul\":9890:9891   */\n      dup3\n        /* \"#utility.yul\":9887:9897   */\n      gt\n        /* \"#utility.yul\":9884:9920   */\n      iszero\n      tag_420\n      jumpi\n        /* \"#utility.yul\":9900:9918   */\n      tag_421\n      tag_307\n      jump\t// in\n    tag_421:\n        /* \"#utility.yul\":9884:9920   */\n    tag_420:\n        /* \"#utility.yul\":9736:9927   */\n      swap3\n      swap2\n      pop\n      pop\n      jump\t// out\n        /* \"#utility.yul\":9933:10101   */\n    tag_308:\n        /* \"#utility.yul\":10073:10093   */\n      0x41756374696f6e206e6f74206163746976650000000000000000000000000000\n        /* \"#utility.yul\":10069:10070   */\n      0x00\n        /* \"#utility.yul\":10061:10067   */\n      dup3\n        /* \"#utility.yul\":10057:10071   */\n      add\n        /* \"#utility.yul\":10050:10094   */\n      mstore\n        /* \"#utility.yul\":9933:10101   */\n      pop\n      jump\t// out\n        /* \"#utility.yul\":10107:10473   */\n    tag_309:\n        /* \"#utility.yul\":10249:10252   */\n      0x00\n        /* \"#utility.yul\":10270:10337   */\n      tag_424\n        /* \"#utility.yul\":10334:10336   */\n      0x12\n        /* \"#utility.yul\":10329:10332   */\n      dup4\n        /* \"#utility.yul\":10270:10337   */\n      tag_296\n      jump\t// in\n    tag_424:\n        /* \"#utility.yul\":10263:10337   */\n      swap2\n      pop\n        /* \"#utility.yul\":10346:10439   */\n      tag_425\n        /* \"#utility.yul\":10435:10438   */\n      dup3\n        /* \"#utility.yul\":10346:10439   */\n      tag_308\n      jump\t// in\n    tag_425:\n        /* \"#utility.yul\":10464:10466   */\n      0x20\n        /* \"#utility.yul\":10459:10462   */\n      dup3\n        /* \"#utility.yul\":10455:10467   */\n      add\n        /* \"#utility.yul\":10448:10467   */\n      swap1\n      pop\n        /* \"#utility.yul\":10107:10473   */\n      swap2\n      swap1\n      pop\n      jump\t// out\n        /* \"#utility.yul\":10479:10898   */\n    tag_193:\n        /* \"#utility.yul\":10645:10649   */\n      0x00\n        /* \"#utility.yul\":10683:10685   */\n      0x20\n        /* \"#utility.yul\":10672:10681   */\n      dup3\n        /* \"#utility.yul\":10668:10686   */\n      add\n        /* \"#utility.yul\":10660:10686   */\n      swap1\n      pop\n        /* \"#utility.yul\":10732:10741   */\n      dup2\n        /* \"#utility.yul\":10726:10730   */\n      dup2\n        /* \"#utility.yul\":10722:10742   */\n      sub\n        /* \"#utility.yul\":10718:10719   */\n      0x00\n        /* \"#utility.yul\":10707:10716   */\n      dup4\n        /* \"#utility.yul\":10703:10720   */\n      add\n        /* \"#utility.yul\":10696:10743   */\n      mstore\n        /* \"#utility.yul\":10760:10891   */\n      tag_427\n        /* \"#utility.yul\":10886:10890   */\n      dup2\n        /* \"#utility.yul\":10760:10891   */\n      tag_309\n      jump\t// in\n    tag_427:\n        /* \"#utility.yul\":10752:10891   */\n      swap1\n      pop\n        /* \"#utility.yul\":10479:10898   */\n      swap2\n      swap1\n      pop\n      jump\t// out\n        /* \"#utility.yul\":10904:11126   */\n    tag_310:\n        /* \"#utility.yul\":11044:11078   */\n      0x4f757473696465206f66207468652061756374696f6e27732074696d65207261\n        /* \"#utility.yul\":11040:11041   */\n      0x00\n        /* \"#utility.yul\":11032:11038   */\n      dup3\n        /* \"#utility.yul\":11028:11042   */\n      add\n        /* \"#utility.yul\":11021:11079   */\n      mstore\n        /* \"#utility.yul\":11113:11118   */\n      0x6e67650000000000000000000000000000000000000000000000000000000000\n        /* \"#utility.yul\":11108:11110   */\n      0x20\n        /* \"#utility.yul\":11100:11106   */\n      dup3\n        /* \"#utility.yul\":11096:11111   */\n      add\n        /* \"#utility.yul\":11089:11119   */\n      mstore\n        /* \"#utility.yul\":10904:11126   */\n      pop\n      jump\t// out\n        /* \"#utility.yul\":11132:11498   */\n    tag_311:\n        /* \"#utility.yul\":11274:11277   */\n      0x00\n        /* \"#utility.yul\":11295:11362   */\n      tag_430\n        /* \"#utility.yul\":11359:11361   */\n      0x23\n        /* \"#utility.yul\":11354:11357   */\n      dup4\n        /* \"#utility.yul\":11295:11362   */\n      tag_296\n      jump\t// in\n    tag_430:\n        /* \"#utility.yul\":11288:11362   */\n      swap2\n      pop\n        /* \"#utility.yul\":11371:11464   */\n      tag_431\n        /* \"#utility.yul\":11460:11463   */\n      dup3\n        /* \"#utility.yul\":11371:11464   */\n      tag_310\n      jump\t// in\n    tag_431:\n        /* \"#utility.yul\":11489:11491   */\n      0x40\n        /* \"#utility.yul\":11484:11487   */\n      dup3\n        /* \"#utility.yul\":11480:11492   */\n      add\n        /* \"#utility.yul\":11473:11492   */\n      swap1\n      pop\n        /* \"#utility.yul\":11132:11498   */\n      swap2\n      swap1\n      pop\n      jump\t// out\n        /* \"#utility.yul\":11504:11923   */\n    tag_197:\n        /* \"#utility.yul\":11670:11674   */\n      0x00\n        /* \"#utility.yul\":11708:11710   */\n      0x20\n        /* \"#utility.yul\":11697:11706   */\n      dup3\n        /* \"#utility.yul\":11693:11711   */\n      add\n        /* \"#utility.yul\":11685:11711   */\n      swap1\n      pop\n        /* \"#utility.yul\":11757:11766   */\n      dup2\n        /* \"#utility.yul\":11751:11755   */\n      dup2\n        /* \"#utility.yul\":11747:11767   */\n      sub\n        /* \"#utility.yul\":11743:11744   */\n      0x00\n        /* \"#utility.yul\":11732:11741   */\n      dup4\n        /* \"#utility.yul\":11728:11745   */\n      add\n        /* \"#utility.yul\":11721:11768   */\n      mstore\n        /* \"#utility.yul\":11785:11916   */\n      tag_433\n        /* \"#utility.yul\":11911:11915   */\n      dup2\n        /* \"#utility.yul\":11785:11916   */\n      tag_311\n      jump\t// in\n    tag_433:\n        /* \"#utility.yul\":11777:11916   */\n      swap1\n      pop\n        /* \"#utility.yul\":11504:11923   */\n      swap2\n      swap1\n      pop\n      jump\t// out\n        /* \"#utility.yul\":11929:12098   */\n    tag_312:\n        /* \"#utility.yul\":12069:12090   */\n      0x54686520626964206d757374206265203e203000000000000000000000000000\n        /* \"#utility.yul\":12065:12066   */\n      0x00\n        /* \"#utility.yul\":12057:12063   */\n      dup3\n        /* \"#utility.yul\":12053:12067   */\n      add\n        /* \"#utility.yul\":12046:12091   */\n      mstore\n        /* \"#utility.yul\":11929:12098   */\n      pop\n      jump\t// out\n        /* \"#utility.yul\":12104:12470   */\n    tag_313:\n        /* \"#utility.yul\":12246:12249   */\n      0x00\n        /* \"#utility.yul\":12267:12334   */\n      tag_436\n        /* \"#utility.yul\":12331:12333   */\n      0x13\n        /* \"#utility.yul\":12326:12329   */\n      dup4\n        /* \"#utility.yul\":12267:12334   */\n      tag_296\n      jump\t// in\n    tag_436:\n        /* \"#utility.yul\":12260:12334   */\n      swap2\n      pop\n        /* \"#utility.yul\":12343:12436   */\n      tag_437\n        /* \"#utility.yul\":12432:12435   */\n      dup3\n        /* \"#utility.yul\":12343:12436   */\n      tag_312\n      jump\t// in\n    tag_437:\n        /* \"#utility.yul\":12461:12463   */\n      0x20\n        /* \"#utility.yul\":12456:12459   */\n      dup3\n        /* \"#utility.yul\":12452:12464   */\n      add\n        /* \"#utility.yul\":12445:12464   */\n      swap1\n      pop\n        /* \"#utility.yul\":12104:12470   */\n      swap2\n      swap1\n      pop\n      jump\t// out\n        /* \"#utility.yul\":12476:12895   */\n    tag_201:\n        /* \"#utility.yul\":12642:12646   */\n      0x00\n        /* \"#utility.yul\":12680:12682   */\n      0x20\n        /* \"#utility.yul\":12669:12678   */\n      dup3\n        /* \"#utility.yul\":12665:12683   */\n      add\n        /* \"#utility.yul\":12657:12683   */\n      swap1\n      pop\n        /* \"#utility.yul\":12729:12738   */\n      dup2\n        /* \"#utility.yul\":12723:12727   */\n      dup2\n        /* \"#utility.yul\":12719:12739   */\n      sub\n        /* \"#utility.yul\":12715:12716   */\n      0x00\n        /* \"#utility.yul\":12704:12713   */\n      dup4\n        /* \"#utility.yul\":12700:12717   */\n      add\n        /* \"#utility.yul\":12693:12740   */\n      mstore\n        /* \"#utility.yul\":12757:12888   */\n      tag_439\n        /* \"#utility.yul\":12883:12887   */\n      dup2\n        /* \"#utility.yul\":12757:12888   */\n      tag_313\n      jump\t// in\n    tag_439:\n        /* \"#utility.yul\":12749:12888   */\n      swap1\n      pop\n        /* \"#utility.yul\":12476:12895   */\n      swap2\n      swap1\n      pop\n      jump\t// out\n        /* \"#utility.yul\":12901:13122   */\n    tag_314:\n        /* \"#utility.yul\":13041:13075   */\n      0x5468652062696420697320686967686572207468616e20746865206d6178696d\n        /* \"#utility.yul\":13037:13038   */\n      0x00\n        /* \"#utility.yul\":13029:13035   */\n      dup3\n        /* \"#utility.yul\":13025:13039   */\n      add\n        /* \"#utility.yul\":13018:13076   */\n      mstore\n        /* \"#utility.yul\":13110:13114   */\n      0x756d000000000000000000000000000000000000000000000000000000000000\n        /* \"#utility.yul\":13105:13107   */\n      0x20\n        /* \"#utility.yul\":13097:13103   */\n      dup3\n        /* \"#utility.yul\":13093:13108   */\n      add\n        /* \"#utility.yul\":13086:13115   */\n      mstore\n        /* \"#utility.yul\":12901:13122   */\n      pop\n      jump\t// out\n        /* \"#utility.yul\":13128:13494   */\n    tag_315:\n        /* \"#utility.yul\":13270:13273   */\n      0x00\n        /* \"#utility.yul\":13291:13358   */\n      tag_442\n        /* \"#utility.yul\":13355:13357   */\n      0x22\n        /* \"#utility.yul\":13350:13353   */\n      dup4\n        /* \"#utility.yul\":13291:13358   */\n      tag_296\n      jump\t// in\n    tag_442:\n        /* \"#utility.yul\":13284:13358   */\n      swap2\n      pop\n        /* \"#utility.yul\":13367:13460   */\n      tag_443\n        /* \"#utility.yul\":13456:13459   */\n      dup3\n        /* \"#utility.yul\":13367:13460   */\n      tag_314\n      jump\t// in\n    tag_443:\n        /* \"#utility.yul\":13485:13487   */\n      0x40\n        /* \"#utility.yul\":13480:13483   */\n      dup3\n        /* \"#utility.yul\":13476:13488   */\n      add\n        /* \"#utility.yul\":13469:13488   */\n      swap1\n      pop\n        /* \"#utility.yul\":13128:13494   */\n      swap2\n      swap1\n      pop\n      jump\t// out\n        /* \"#utility.yul\":13500:13919   */\n    tag_204:\n        /* \"#utility.yul\":13666:13670   */\n      0x00\n        /* \"#utility.yul\":13704:13706   */\n      0x20\n        /* \"#utility.yul\":13693:13702   */\n      dup3\n        /* \"#utility.yul\":13689:13707   */\n      add\n        /* \"#utility.yul\":13681:13707   */\n      swap1\n      pop\n        /* \"#utility.yul\":13753:13762   */\n      dup2\n        /* \"#utility.yul\":13747:13751   */\n      dup2\n        /* \"#utility.yul\":13743:13763   */\n      sub\n        /* \"#utility.yul\":13739:13740   */\n      0x00\n        /* \"#utility.yul\":13728:13737   */\n      dup4\n        /* \"#utility.yul\":13724:13741   */\n      add\n        /* \"#utility.yul\":13717:13764   */\n      mstore\n        /* \"#utility.yul\":13781:13912   */\n      tag_445\n        /* \"#utility.yul\":13907:13911   */\n      dup2\n        /* \"#utility.yul\":13781:13912   */\n      tag_315\n      jump\t// in\n    tag_445:\n        /* \"#utility.yul\":13773:13912   */\n      swap1\n      pop\n        /* \"#utility.yul\":13500:13919   */\n      swap2\n      swap1\n      pop\n      jump\t// out\n        /* \"#utility.yul\":13925:14104   */\n    tag_316:\n        /* \"#utility.yul\":14065:14096   */\n      0x596f75206861766520616c726561647920706172746963697061746564000000\n        /* \"#utility.yul\":14061:14062   */\n      0x00\n        /* \"#utility.yul\":14053:14059   */\n      dup3\n        /* \"#utility.yul\":14049:14063   */\n      add\n        /* \"#utility.yul\":14042:14097   */\n      mstore\n        /* \"#utility.yul\":13925:14104   */\n      pop\n      jump\t// out\n        /* \"#utility.yul\":14110:14476   */\n    tag_317:\n        /* \"#utility.yul\":14252:14255   */\n      0x00\n        /* \"#utility.yul\":14273:14340   */\n      tag_448\n        /* \"#utility.yul\":14337:14339   */\n      0x1d\n        /* \"#utility.yul\":14332:14335   */\n      dup4\n        /* \"#utility.yul\":14273:14340   */\n      tag_296\n      jump\t// in\n    tag_448:\n        /* \"#utility.yul\":14266:14340   */\n      swap2\n      pop\n        /* \"#utility.yul\":14349:14442   */\n      tag_449\n        /* \"#utility.yul\":14438:14441   */\n      dup3\n        /* \"#utility.yul\":14349:14442   */\n      tag_316\n      jump\t// in\n    tag_449:\n        /* \"#utility.yul\":14467:14469   */\n      0x20\n        /* \"#utility.yul\":14462:14465   */\n      dup3\n        /* \"#utility.yul\":14458:14470   */\n      add\n        /* \"#utility.yul\":14451:14470   */\n      swap1\n      pop\n        /* \"#utility.yul\":14110:14476   */\n      swap2\n      swap1\n      pop\n      jump\t// out\n        /* \"#utility.yul\":14482:14901   */\n    tag_208:\n        /* \"#utility.yul\":14648:14652   */\n      0x00\n        /* \"#utility.yul\":14686:14688   */\n      0x20\n        /* \"#utility.yul\":14675:14684   */\n      dup3\n        /* \"#utility.yul\":14671:14689   */\n      add\n        /* \"#utility.yul\":14663:14689   */\n      swap1\n      pop\n        /* \"#utility.yul\":14735:14744   */\n      dup2\n        /* \"#utility.yul\":14729:14733   */\n      dup2\n        /* \"#utility.yul\":14725:14745   */\n      sub\n        /* \"#utility.yul\":14721:14722   */\n      0x00\n        /* \"#utility.yul\":14710:14719   */\n      dup4\n        /* \"#utility.yul\":14706:14723   */\n      add\n        /* \"#utility.yul\":14699:14746   */\n      mstore\n        /* \"#utility.yul\":14763:14894   */\n      tag_451\n        /* \"#utility.yul\":14889:14893   */\n      dup2\n        /* \"#utility.yul\":14763:14894   */\n      tag_317\n      jump\t// in\n    tag_451:\n        /* \"#utility.yul\":14755:14894   */\n      swap1\n      pop\n        /* \"#utility.yul\":14482:14901   */\n      swap2\n      swap1\n      pop\n      jump\t// out\n        /* \"#utility.yul\":14907:15152   */\n    tag_318:\n        /* \"#utility.yul\":15047:15081   */\n      0x5468652061756374696f6e20686173207265616368656420746865206d617869\n        /* \"#utility.yul\":15043:15044   */\n      0x00\n        /* \"#utility.yul\":15035:15041   */\n      dup3\n        /* \"#utility.yul\":15031:15045   */\n      add\n        /* \"#utility.yul\":15024:15082   */\n      mstore\n        /* \"#utility.yul\":15116:15144   */\n      0x6d756d206e756d626572206f66207061727469636970616e7473000000000000\n        /* \"#utility.yul\":15111:15113   */\n      0x20\n        /* \"#utility.yul\":15103:15109   */\n      dup3\n        /* \"#utility.yul\":15099:15114   */\n      add\n        /* \"#utility.yul\":15092:15145   */\n      mstore\n        /* \"#utility.yul\":14907:15152   */\n      pop\n      jump\t// out\n        /* \"#utility.yul\":15158:15524   */\n    tag_319:\n        /* \"#utility.yul\":15300:15303   */\n      0x00\n        /* \"#utility.yul\":15321:15388   */\n      tag_454\n        /* \"#utility.yul\":15385:15387   */\n      0x3a\n        /* \"#utility.yul\":15380:15383   */\n      dup4\n        /* \"#utility.yul\":15321:15388   */\n      tag_296\n      jump\t// in\n    tag_454:\n        /* \"#utility.yul\":15314:15388   */\n      swap2\n      pop\n        /* \"#utility.yul\":15397:15490   */\n      tag_455\n        /* \"#utility.yul\":15486:15489   */\n      dup3\n        /* \"#utility.yul\":15397:15490   */\n      tag_318\n      jump\t// in\n    tag_455:\n        /* \"#utility.yul\":15515:15517   */\n      0x40\n        /* \"#utility.yul\":15510:15513   */\n      dup3\n        /* \"#utility.yul\":15506:15518   */\n      add\n        /* \"#utility.yul\":15499:15518   */\n      swap1\n      pop\n        /* \"#utility.yul\":15158:15524   */\n      swap2\n      swap1\n      pop\n      jump\t// out\n        /* \"#utility.yul\":15530:15949   */\n    tag_211:\n        /* \"#utility.yul\":15696:15700   */\n      0x00\n        /* \"#utility.yul\":15734:15736   */\n      0x20\n        /* \"#utility.yul\":15723:15732   */\n      dup3\n        /* \"#utility.yul\":15719:15737   */\n      add\n        /* \"#utility.yul\":15711:15737   */\n      swap1\n      pop\n        /* \"#utility.yul\":15783:15792   */\n      dup2\n        /* \"#utility.yul\":15777:15781   */\n      dup2\n        /* \"#utility.yul\":15773:15793   */\n      sub\n        /* \"#utility.yul\":15769:15770   */\n      0x00\n        /* \"#utility.yul\":15758:15767   */\n      dup4\n        /* \"#utility.yul\":15754:15771   */\n      add\n        /* \"#utility.yul\":15747:15794   */\n      mstore\n        /* \"#utility.yul\":15811:15942   */\n      tag_457\n        /* \"#utility.yul\":15937:15941   */\n      dup2\n        /* \"#utility.yul\":15811:15942   */\n      tag_319\n      jump\t// in\n    tag_457:\n        /* \"#utility.yul\":15803:15942   */\n      swap1\n      pop\n        /* \"#utility.yul\":15530:15949   */\n      swap2\n      swap1\n      pop\n      jump\t// out\n        /* \"#utility.yul\":15955:16184   */\n    tag_320:\n        /* \"#utility.yul\":16095:16129   */\n      0x596f752063616e6e6f7420706c616365206120626964206f6e20796f7572206f\n        /* \"#utility.yul\":16091:16092   */\n      0x00\n        /* \"#utility.yul\":16083:16089   */\n      dup3\n        /* \"#utility.yul\":16079:16093   */\n      add\n        /* \"#utility.yul\":16072:16130   */\n      mstore\n        /* \"#utility.yul\":16164:16176   */\n      0x776e2061756374696f6e00000000000000000000000000000000000000000000\n        /* \"#utility.yul\":16159:16161   */\n      0x20\n        /* \"#utility.yul\":16151:16157   */\n      dup3\n        /* \"#utility.yul\":16147:16162   */\n      add\n        /* \"#utility.yul\":16140:16177   */\n      mstore\n        /* \"#utility.yul\":15955:16184   */\n      pop\n      jump\t// out\n        /* \"#utility.yul\":16190:16556   */\n    tag_321:\n        /* \"#utility.yul\":16332:16335   */\n      0x00\n        /* \"#utility.yul\":16353:16420   */\n      tag_460\n        /* \"#utility.yul\":16417:16419   */\n      0x2a\n        /* \"#utility.yul\":16412:16415   */\n      dup4\n        /* \"#utility.yul\":16353:16420   */\n      tag_296\n      jump\t// in\n    tag_460:\n        /* \"#utility.yul\":16346:16420   */\n      swap2\n      pop\n        /* \"#utility.yul\":16429:16522   */\n      tag_461\n        /* \"#utility.yul\":16518:16521   */\n      dup3\n        /* \"#utility.yul\":16429:16522   */\n      tag_320\n      jump\t// in\n    tag_461:\n        /* \"#utility.yul\":16547:16549   */\n      0x40\n        /* \"#utility.yul\":16542:16545   */\n      dup3\n        /* \"#utility.yul\":16538:16550   */\n      add\n        /* \"#utility.yul\":16531:16550   */\n      swap1\n      pop\n        /* \"#utility.yul\":16190:16556   */\n      swap2\n      swap1\n      pop\n      jump\t// out\n        /* \"#utility.yul\":16562:16981   */\n    tag_214:\n        /* \"#utility.yul\":16728:16732   */\n      0x00\n        /* \"#utility.yul\":16766:16768   */\n      0x20\n        /* \"#utility.yul\":16755:16764   */\n      dup3\n        /* \"#utility.yul\":16751:16769   */\n      add\n        /* \"#utility.yul\":16743:16769   */\n      swap1\n      pop\n        /* \"#utility.yul\":16815:16824   */\n      dup2\n        /* \"#utility.yul\":16809:16813   */\n      dup2\n        /* \"#utility.yul\":16805:16825   */\n      sub\n        /* \"#utility.yul\":16801:16802   */\n      0x00\n        /* \"#utility.yul\":16790:16799   */\n      dup4\n        /* \"#utility.yul\":16786:16803   */\n      add\n        /* \"#utility.yul\":16779:16826   */\n      mstore\n        /* \"#utility.yul\":16843:16974   */\n      tag_463\n        /* \"#utility.yul\":16969:16973   */\n      dup2\n        /* \"#utility.yul\":16843:16974   */\n      tag_321\n      jump\t// in\n    tag_463:\n        /* \"#utility.yul\":16835:16974   */\n      swap1\n      pop\n        /* \"#utility.yul\":16562:16981   */\n      swap2\n      swap1\n      pop\n      jump\t// out\n        /* \"#utility.yul\":16987:17397   */\n    tag_216:\n        /* \"#utility.yul\":17027:17034   */\n      0x00\n        /* \"#utility.yul\":17050:17070   */\n      tag_465\n        /* \"#utility.yul\":17068:17069   */\n      dup3\n        /* \"#utility.yul\":17050:17070   */\n      tag_286\n      jump\t// in\n    tag_465:\n        /* \"#utility.yul\":17045:17070   */\n      swap2\n      pop\n        /* \"#utility.yul\":17084:17104   */\n      tag_466\n        /* \"#utility.yul\":17102:17103   */\n      dup4\n        /* \"#utility.yul\":17084:17104   */\n      tag_286\n      jump\t// in\n    tag_466:\n        /* \"#utility.yul\":17079:17104   */\n      swap3\n      pop\n        /* \"#utility.yul\":17139:17140   */\n      dup3\n        /* \"#utility.yul\":17136:17137   */\n      dup3\n        /* \"#utility.yul\":17132:17141   */\n      mul\n        /* \"#utility.yul\":17161:17191   */\n      tag_467\n        /* \"#utility.yul\":17179:17190   */\n      dup2\n        /* \"#utility.yul\":17161:17191   */\n      tag_286\n      jump\t// in\n    tag_467:\n        /* \"#utility.yul\":17150:17191   */\n      swap2\n      pop\n        /* \"#utility.yul\":17340:17341   */\n      dup3\n        /* \"#utility.yul\":17331:17338   */\n      dup3\n        /* \"#utility.yul\":17327:17342   */\n      div\n        /* \"#utility.yul\":17324:17325   */\n      dup5\n        /* \"#utility.yul\":17321:17343   */\n      eq\n        /* \"#utility.yul\":17301:17302   */\n      dup4\n        /* \"#utility.yul\":17294:17303   */\n      iszero\n        /* \"#utility.yul\":17274:17357   */\n      or\n        /* \"#utility.yul\":17251:17390   */\n      tag_468\n      jumpi\n        /* \"#utility.yul\":17370:17388   */\n      tag_469\n      tag_307\n      jump\t// in\n    tag_469:\n        /* \"#utility.yul\":17251:17390   */\n    tag_468:\n        /* \"#utility.yul\":17035:17397   */\n      pop\n        /* \"#utility.yul\":16987:17397   */\n      swap3\n      swap2\n      pop\n      pop\n      jump\t// out\n        /* \"#utility.yul\":17403:17583   */\n    tag_322:\n        /* \"#utility.yul\":17451:17528   */\n      0x4e487b7100000000000000000000000000000000000000000000000000000000\n        /* \"#utility.yul\":17448:17449   */\n      0x00\n        /* \"#utility.yul\":17441:17529   */\n      mstore\n        /* \"#utility.yul\":17548:17552   */\n      0x12\n        /* \"#utility.yul\":17545:17546   */\n      0x04\n        /* \"#utility.yul\":17538:17553   */\n      mstore\n        /* \"#utility.yul\":17572:17576   */\n      0x24\n        /* \"#utility.yul\":17569:17570   */\n      0x00\n        /* \"#utility.yul\":17562:17577   */\n      revert\n        /* \"#utility.yul\":17589:17774   */\n    tag_218:\n        /* \"#utility.yul\":17629:17630   */\n      0x00\n        /* \"#utility.yul\":17646:17666   */\n      tag_472\n        /* \"#utility.yul\":17664:17665   */\n      dup3\n        /* \"#utility.yul\":17646:17666   */\n      tag_286\n      jump\t// in\n    tag_472:\n        /* \"#utility.yul\":17641:17666   */\n      swap2\n      pop\n        /* \"#utility.yul\":17680:17700   */\n      tag_473\n        /* \"#utility.yul\":17698:17699   */\n      dup4\n        /* \"#utility.yul\":17680:17700   */\n      tag_286\n      jump\t// in\n    tag_473:\n        /* \"#utility.yul\":17675:17700   */\n      swap3\n      pop\n        /* \"#utility.yul\":17719:17720   */\n      dup3\n        /* \"#utility.yul\":17709:17744   */\n      tag_474\n      jumpi\n        /* \"#utility.yul\":17724:17742   */\n      tag_475\n      tag_322\n      jump\t// in\n    tag_475:\n        /* \"#utility.yul\":17709:17744   */\n    tag_474:\n        /* \"#utility.yul\":17766:17767   */\n      dup3\n        /* \"#utility.yul\":17763:17764   */\n      dup3\n        /* \"#utility.yul\":17759:17768   */\n      div\n        /* \"#utility.yul\":17754:17768   */\n      swap1\n      pop\n        /* \"#utility.yul\":17589:17774   */\n      swap3\n      swap2\n      pop\n      pop\n      jump\t// out\n        /* \"#utility.yul\":17780:18010   */\n    tag_323:\n        /* \"#utility.yul\":17920:17954   */\n      0x546865206465706f736974206d757374206265206174206c6561737420313025\n        /* \"#utility.yul\":17916:17917   */\n      0x00\n        /* \"#utility.yul\":17908:17914   */\n      dup3\n        /* \"#utility.yul\":17904:17918   */\n      add\n        /* \"#utility.yul\":17897:17955   */\n      mstore\n        /* \"#utility.yul\":17989:18002   */\n      0x206f662074686520626964000000000000000000000000000000000000000000\n        /* \"#utility.yul\":17984:17986   */\n      0x20\n        /* \"#utility.yul\":17976:17982   */\n      dup3\n        /* \"#utility.yul\":17972:17987   */\n      add\n        /* \"#utility.yul\":17965:18003   */\n      mstore\n        /* \"#utility.yul\":17780:18010   */\n      pop\n      jump\t// out\n        /* \"#utility.yul\":18016:18382   */\n    tag_324:\n        /* \"#utility.yul\":18158:18161   */\n      0x00\n        /* \"#utility.yul\":18179:18246   */\n      tag_478\n        /* \"#utility.yul\":18243:18245   */\n      0x2b\n        /* \"#utility.yul\":18238:18241   */\n      dup4\n        /* \"#utility.yul\":18179:18246   */\n      tag_296\n      jump\t// in\n    tag_478:\n        /* \"#utility.yul\":18172:18246   */\n      swap2\n      pop\n        /* \"#utility.yul\":18255:18348   */\n      tag_479\n        /* \"#utility.yul\":18344:18347   */\n      dup3\n        /* \"#utility.yul\":18255:18348   */\n      tag_323\n      jump\t// in\n    tag_479:\n        /* \"#utility.yul\":18373:18375   */\n      0x40\n        /* \"#utility.yul\":18368:18371   */\n      dup3\n        /* \"#utility.yul\":18364:18376   */\n      add\n        /* \"#utility.yul\":18357:18376   */\n      swap1\n      pop\n        /* \"#utility.yul\":18016:18382   */\n      swap2\n      swap1\n      pop\n      jump\t// out\n        /* \"#utility.yul\":18388:18807   */\n    tag_221:\n        /* \"#utility.yul\":18554:18558   */\n      0x00\n        /* \"#utility.yul\":18592:18594   */\n      0x20\n        /* \"#utility.yul\":18581:18590   */\n      dup3\n        /* \"#utility.yul\":18577:18595   */\n      add\n        /* \"#utility.yul\":18569:18595   */\n      swap1\n      pop\n        /* \"#utility.yul\":18641:18650   */\n      dup2\n        /* \"#utility.yul\":18635:18639   */\n      dup2\n        /* \"#utility.yul\":18631:18651   */\n      sub\n        /* \"#utility.yul\":18627:18628   */\n      0x00\n        /* \"#utility.yul\":18616:18625   */\n      dup4\n        /* \"#utility.yul\":18612:18629   */\n      add\n        /* \"#utility.yul\":18605:18652   */\n      mstore\n        /* \"#utility.yul\":18669:18800   */\n      tag_481\n        /* \"#utility.yul\":18795:18799   */\n      dup2\n        /* \"#utility.yul\":18669:18800   */\n      tag_324\n      jump\t// in\n    tag_481:\n        /* \"#utility.yul\":18661:18800   */\n      swap1\n      pop\n        /* \"#utility.yul\":18388:18807   */\n      swap2\n      swap1\n      pop\n      jump\t// out\n        /* \"#utility.yul\":18813:18977   */\n    tag_325:\n        /* \"#utility.yul\":18953:18969   */\n      0x41756374696f6e20636c6f736564000000000000000000000000000000000000\n        /* \"#utility.yul\":18949:18950   */\n      0x00\n        /* \"#utility.yul\":18941:18947   */\n      dup3\n        /* \"#utility.yul\":18937:18951   */\n      add\n        /* \"#utility.yul\":18930:18970   */\n      mstore\n        /* \"#utility.yul\":18813:18977   */\n      pop\n      jump\t// out\n        /* \"#utility.yul\":18983:19349   */\n    tag_326:\n        /* \"#utility.yul\":19125:19128   */\n      0x00\n        /* \"#utility.yul\":19146:19213   */\n      tag_484\n        /* \"#utility.yul\":19210:19212   */\n      0x0e\n        /* \"#utility.yul\":19205:19208   */\n      dup4\n        /* \"#utility.yul\":19146:19213   */\n      tag_296\n      jump\t// in\n    tag_484:\n        /* \"#utility.yul\":19139:19213   */\n      swap2\n      pop\n        /* \"#utility.yul\":19222:19315   */\n      tag_485\n        /* \"#utility.yul\":19311:19314   */\n      dup3\n        /* \"#utility.yul\":19222:19315   */\n      tag_325\n      jump\t// in\n    tag_485:\n        /* \"#utility.yul\":19340:19342   */\n      0x20\n        /* \"#utility.yul\":19335:19338   */\n      dup3\n        /* \"#utility.yul\":19331:19343   */\n      add\n        /* \"#utility.yul\":19324:19343   */\n      swap1\n      pop\n        /* \"#utility.yul\":18983:19349   */\n      swap2\n      swap1\n      pop\n      jump\t// out\n        /* \"#utility.yul\":19355:19774   */\n    tag_235:\n        /* \"#utility.yul\":19521:19525   */\n      0x00\n        /* \"#utility.yul\":19559:19561   */\n      0x20\n        /* \"#utility.yul\":19548:19557   */\n      dup3\n        /* \"#utility.yul\":19544:19562   */\n      add\n        /* \"#utility.yul\":19536:19562   */\n      swap1\n      pop\n        /* \"#utility.yul\":19608:19617   */\n      dup2\n        /* \"#utility.yul\":19602:19606   */\n      dup2\n        /* \"#utility.yul\":19598:19618   */\n      sub\n        /* \"#utility.yul\":19594:19595   */\n      0x00\n        /* \"#utility.yul\":19583:19592   */\n      dup4\n        /* \"#utility.yul\":19579:19596   */\n      add\n        /* \"#utility.yul\":19572:19619   */\n      mstore\n        /* \"#utility.yul\":19636:19767   */\n      tag_487\n        /* \"#utility.yul\":19762:19766   */\n      dup2\n        /* \"#utility.yul\":19636:19767   */\n      tag_326\n      jump\t// in\n    tag_487:\n        /* \"#utility.yul\":19628:19767   */\n      swap1\n      pop\n        /* \"#utility.yul\":19355:19774   */\n      swap2\n      swap1\n      pop\n      jump\t// out\n        /* \"#utility.yul\":19780:20003   */\n    tag_327:\n        /* \"#utility.yul\":19920:19954   */\n      0x5468652061756374696f6e2063616e6e6f7420626520636c6f73656420656172\n        /* \"#utility.yul\":19916:19917   */\n      0x00\n        /* \"#utility.yul\":19908:19914   */\n      dup3\n        /* \"#utility.yul\":19904:19918   */\n      add\n        /* \"#utility.yul\":19897:19955   */\n      mstore\n        /* \"#utility.yul\":19989:19995   */\n      0x6c69657200000000000000000000000000000000000000000000000000000000\n        /* \"#utility.yul\":19984:19986   */\n      0x20\n        /* \"#utility.yul\":19976:19982   */\n      dup3\n        /* \"#utility.yul\":19972:19987   */\n      add\n        /* \"#utility.yul\":19965:19996   */\n      mstore\n        /* \"#utility.yul\":19780:20003   */\n      pop\n      jump\t// out\n        /* \"#utility.yul\":20009:20375   */\n    tag_328:\n        /* \"#utility.yul\":20151:20154   */\n      0x00\n        /* \"#utility.yul\":20172:20239   */\n      tag_490\n        /* \"#utility.yul\":20236:20238   */\n      0x24\n        /* \"#utility.yul\":20231:20234   */\n      dup4\n        /* \"#utility.yul\":20172:20239   */\n      tag_296\n      jump\t// in\n    tag_490:\n        /* \"#utility.yul\":20165:20239   */\n      swap2\n      pop\n        /* \"#utility.yul\":20248:20341   */\n      tag_491\n        /* \"#utility.yul\":20337:20340   */\n      dup3\n        /* \"#utility.yul\":20248:20341   */\n      tag_327\n      jump\t// in\n    tag_491:\n        /* \"#utility.yul\":20366:20368   */\n      0x40\n        /* \"#utility.yul\":20361:20364   */\n      dup3\n        /* \"#utility.yul\":20357:20369   */\n      add\n        /* \"#utility.yul\":20350:20369   */\n      swap1\n      pop\n        /* \"#utility.yul\":20009:20375   */\n      swap2\n      swap1\n      pop\n      jump\t// out\n        /* \"#utility.yul\":20381:20800   */\n    tag_239:\n        /* \"#utility.yul\":20547:20551   */\n      0x00\n        /* \"#utility.yul\":20585:20587   */\n      0x20\n        /* \"#utility.yul\":20574:20583   */\n      dup3\n        /* \"#utility.yul\":20570:20588   */\n      add\n        /* \"#utility.yul\":20562:20588   */\n      swap1\n      pop\n        /* \"#utility.yul\":20634:20643   */\n      dup2\n        /* \"#utility.yul\":20628:20632   */\n      dup2\n        /* \"#utility.yul\":20624:20644   */\n      sub\n        /* \"#utility.yul\":20620:20621   */\n      0x00\n        /* \"#utility.yul\":20609:20618   */\n      dup4\n        /* \"#utility.yul\":20605:20622   */\n      add\n        /* \"#utility.yul\":20598:20645   */\n      mstore\n        /* \"#utility.yul\":20662:20793   */\n      tag_493\n        /* \"#utility.yul\":20788:20792   */\n      dup2\n        /* \"#utility.yul\":20662:20793   */\n      tag_328\n      jump\t// in\n    tag_493:\n        /* \"#utility.yul\":20654:20793   */\n      swap1\n      pop\n        /* \"#utility.yul\":20381:20800   */\n      swap2\n      swap1\n      pop\n      jump\t// out\n        /* \"#utility.yul\":20806:21138   */\n    tag_248:\n        /* \"#utility.yul\":20927:20931   */\n      0x00\n        /* \"#utility.yul\":20965:20967   */\n      0x40\n        /* \"#utility.yul\":20954:20963   */\n      dup3\n        /* \"#utility.yul\":20950:20968   */\n      add\n        /* \"#utility.yul\":20942:20968   */\n      swap1\n      pop\n        /* \"#utility.yul\":20978:21049   */\n      tag_495\n        /* \"#utility.yul\":21046:21047   */\n      0x00\n        /* \"#utility.yul\":21035:21044   */\n      dup4\n        /* \"#utility.yul\":21031:21048   */\n      add\n        /* \"#utility.yul\":21022:21028   */\n      dup6\n        /* \"#utility.yul\":20978:21049   */\n      tag_287\n      jump\t// in\n    tag_495:\n        /* \"#utility.yul\":21059:21131   */\n      tag_496\n        /* \"#utility.yul\":21127:21129   */\n      0x20\n        /* \"#utility.yul\":21116:21125   */\n      dup4\n        /* \"#utility.yul\":21112:21130   */\n      add\n        /* \"#utility.yul\":21103:21109   */\n      dup5\n        /* \"#utility.yul\":21059:21131   */\n      tag_287\n      jump\t// in\n    tag_496:\n        /* \"#utility.yul\":20806:21138   */\n      swap4\n      swap3\n      pop\n      pop\n      pop\n      jump\t// out\n        /* \"#utility.yul\":21144:21303   */\n    tag_329:\n        /* \"#utility.yul\":21284:21295   */\n      0x4e6f206f66666572730000000000000000000000000000000000000000000000\n        /* \"#utility.yul\":21280:21281   */\n      0x00\n        /* \"#utility.yul\":21272:21278   */\n      dup3\n        /* \"#utility.yul\":21268:21282   */\n      add\n        /* \"#utility.yul\":21261:21296   */\n      mstore\n        /* \"#utility.yul\":21144:21303   */\n      pop\n      jump\t// out\n        /* \"#utility.yul\":21309:21674   */\n    tag_330:\n        /* \"#utility.yul\":21451:21454   */\n      0x00\n        /* \"#utility.yul\":21472:21538   */\n      tag_499\n        /* \"#utility.yul\":21536:21537   */\n      0x09\n        /* \"#utility.yul\":21531:21534   */\n      dup4\n        /* \"#utility.yul\":21472:21538   */\n      tag_296\n      jump\t// in\n    tag_499:\n        /* \"#utility.yul\":21465:21538   */\n      swap2\n      pop\n        /* \"#utility.yul\":21547:21640   */\n      tag_500\n        /* \"#utility.yul\":21636:21639   */\n      dup3\n        /* \"#utility.yul\":21547:21640   */\n      tag_329\n      jump\t// in\n    tag_500:\n        /* \"#utility.yul\":21665:21667   */\n      0x20\n        /* \"#utility.yul\":21660:21663   */\n      dup3\n        /* \"#utility.yul\":21656:21668   */\n      add\n        /* \"#utility.yul\":21649:21668   */\n      swap1\n      pop\n        /* \"#utility.yul\":21309:21674   */\n      swap2\n      swap1\n      pop\n      jump\t// out\n        /* \"#utility.yul\":21680:22099   */\n    tag_252:\n        /* \"#utility.yul\":21846:21850   */\n      0x00\n        /* \"#utility.yul\":21884:21886   */\n      0x20\n        /* \"#utility.yul\":21873:21882   */\n      dup3\n        /* \"#utility.yul\":21869:21887   */\n      add\n        /* \"#utility.yul\":21861:21887   */\n      swap1\n      pop\n        /* \"#utility.yul\":21933:21942   */\n      dup2\n        /* \"#utility.yul\":21927:21931   */\n      dup2\n        /* \"#utility.yul\":21923:21943   */\n      sub\n        /* \"#utility.yul\":21919:21920   */\n      0x00\n        /* \"#utility.yul\":21908:21917   */\n      dup4\n        /* \"#utility.yul\":21904:21921   */\n      add\n        /* \"#utility.yul\":21897:21944   */\n      mstore\n        /* \"#utility.yul\":21961:22092   */\n      tag_502\n        /* \"#utility.yul\":22087:22091   */\n      dup2\n        /* \"#utility.yul\":21961:22092   */\n      tag_330\n      jump\t// in\n    tag_502:\n        /* \"#utility.yul\":21953:22092   */\n      swap1\n      pop\n        /* \"#utility.yul\":21680:22099   */\n      swap2\n      swap1\n      pop\n      jump\t// out\n\n    auxdata: 0xa2646970667358221220380bbee65a50aeea3462b34ff45dd96c335a00ee18d67683632a5f9da5d6779064736f6c634300081e0033\n}\n",
				"bytecode": {
					"linkReferences": {},
					"object": "608060405260405161230938038061230983398181016040528101906100259190610124565b80341015610068576040517f08c379a000000000000000000000000000000000000000000000000000000000815260040161005f906101f4565b60405180910390fd5b335f5f6101000a81548173ffffffffffffffffffffffffffffffffffffffff021916908373ffffffffffffffffffffffffffffffffffffffff1602179055508260018190555081600281905550806004819055505f60065f6101000a81548160ff021916908360028111156100e0576100df610212565b5b021790555050505061023f565b5f5ffd5b5f819050919050565b610103816100f1565b811461010d575f5ffd5b50565b5f8151905061011e816100fa565b92915050565b5f5f5f6060848603121561013b5761013a6100ed565b5b5f61014886828701610110565b935050602061015986828701610110565b925050604061016a86828701610110565b9150509250925092565b5f82825260208201905092915050565b7f596f75206861766520746f206465706f7369742074686520616d6f756e74206f5f8201527f6620746865206d6178696d756d20706f737369626c6520626964000000000000602082015250565b5f6101de603a83610174565b91506101e982610184565b604082019050919050565b5f6020820190508181035f83015261020b816101d2565b9050919050565b7f4e487b71000000000000000000000000000000000000000000000000000000005f52602160045260245ffd5b6120bd8061024c5f395ff3fe608060405260043610610113575f3560e01c80635d7e0b511161009f578063c1f5260411610063578063c1f5260414610313578063d31249461461033d578063dfbf53ae14610367578063f77282ab14610391578063fb4cd8e2146103a757610113565b80635d7e0b511461026f57806374b11d8a146102795780638da5cb5b146102a35780639979ef45146102cd578063c19d93fb146102e957610113565b8063362e2565116100e6578063362e2565146101b15780634cc4f50d146101c75780634e9edd1b146101f15780634f245ef71461021b5780635a84d52a1461024557610113565b806311d72e4714610117578063235f0e461461012157806328f6a48a1461015d5780632a24f46c14610187575b5f5ffd5b61011f6103d1565b005b34801561012c575f5ffd5b50610147600480360381019061014291906115cc565b61057d565b6040516101549190611611565b60405180910390f35b348015610168575f5ffd5b5061017161061f565b60405161017e9190611642565b60405180910390f35b348015610192575f5ffd5b5061019b61062b565b6040516101a89190611642565b60405180910390f35b3480156101bc575f5ffd5b506101c5610631565b005b3480156101d2575f5ffd5b506101db6109fd565b6040516101e89190611642565b60405180910390f35b3480156101fc575f5ffd5b50610205610a02565b6040516102129190611642565b60405180910390f35b348015610226575f5ffd5b5061022f610a08565b60405161023c9190611642565b60405180910390f35b348015610250575f5ffd5b50610259610a0e565b6040516102669190611642565b60405180910390f35b610277610a13565b005b348015610284575f5ffd5b5061028d610c69565b60405161029a9190611642565b60405180910390f35b3480156102ae575f5ffd5b506102b7610c6f565b6040516102c4919061167b565b60405180910390f35b6102e760048036038101906102e291906116be565b610c93565b005b3480156102f4575f5ffd5b506102fd6110f0565b60405161030a919061175c565b60405180910390f35b34801561031e575f5ffd5b50610327611102565b6040516103349190611642565b60405180910390f35b348015610348575f5ffd5b50610351611108565b60405161035e9190611642565b60405180910390f35b348015610372575f5ffd5b5061037b61110e565b604051610388919061167b565b60405180910390f35b34801561039c575f5ffd5b506103a5611133565b005b3480156103b2575f5ffd5b506103bb611292565b6040516103c89190611642565b60405180910390f35b5f5f9054906101000a900473ffffffffffffffffffffffffffffffffffffffff1673ffffffffffffffffffffffffffffffffffffffff163373ffffffffffffffffffffffffffffffffffffffff161461045f576040517f08c379a0000000000000000000000000000000000000000000000000000000008152600401610456906117f5565b60405180910390fd5b600280811115610472576104716116e9565b5b60065f9054906101000a900460ff166002811115610493576104926116e9565b5b146104d3576040517f08c379a00000000000000000000000000000000000000000000000000000000081526004016104ca90611883565b60405180910390fd5b6003544211610517576040517f08c379a000000000000000000000000000000000000000000000000000000000815260040161050e906118eb565b60405180910390fd5b5f5f9054906101000a900473ffffffffffffffffffffffffffffffffffffffff1673ffffffffffffffffffffffffffffffffffffffff166108fc4790811502906040515f60405180830381858888f1935050505015801561057a573d5f5f3e3d5ffd5b50565b5f5f5f90505b600880549050811015610615578273ffffffffffffffffffffffffffffffffffffffff16600882815481106105bb576105ba611909565b5b905f5260205f20015f9054906101000a900473ffffffffffffffffffffffffffffffffffffffff1673ffffffffffffffffffffffffffffffffffffffff160361060857600191505061061a565b8080600101915050610583565b505f90505b919050565b5f600780549050905090565b60025481565b5f5f9054906101000a900473ffffffffffffffffffffffffffffffffffffffff1673ffffffffffffffffffffffffffffffffffffffff163373ffffffffffffffffffffffffffffffffffffffff16146106bf576040517f08c379a00000000000000000000000000000000000000000000000000000000081526004016106b6906117f5565b60405180910390fd5b600160028111156106d3576106d26116e9565b5b60065f9054906101000a900460ff1660028111156106f4576106f36116e9565b5b14610734576040517f08c379a000000000000000000000000000000000000000000000000000000000815260040161072b90611980565b60405180910390fd5b5f5f90505b6007805490508110156109d05760095f9054906101000a900473ffffffffffffffffffffffffffffffffffffffff1673ffffffffffffffffffffffffffffffffffffffff166007828154811061079257610791611909565b5b905f5260205f2090600402015f015f9054906101000a900473ffffffffffffffffffffffffffffffffffffffff1673ffffffffffffffffffffffffffffffffffffffff16141580156108115750600781815481106107f3576107f2611909565b5b905f5260205f2090600402016003015f9054906101000a900460ff16155b156109c3575f6007828154811061082b5761082a611909565b5b905f5260205f2090600402015f015f9054906101000a900473ffffffffffffffffffffffffffffffffffffffff1673ffffffffffffffffffffffffffffffffffffffff1631905060016007838154811061088857610887611909565b5b905f5260205f2090600402016003015f6101000a81548160ff021916908315150217905550600782815481106108c1576108c0611909565b5b905f5260205f2090600402015f015f9054906101000a900473ffffffffffffffffffffffffffffffffffffffff1673ffffffffffffffffffffffffffffffffffffffff166108fc8290811502906040515f60405180830381858888f19350505050158015610931573d5f5f3e3d5ffd5b506007828154811061094657610945611909565b5b905f5260205f2090600402015f015f9054906101000a900473ffffffffffffffffffffffffffffffffffffffff1673ffffffffffffffffffffffffffffffffffffffff167fa09244c122a83074363635dc89ce0098166c2f74827960ff64a7c8e6ad1c57a2826040516109b99190611642565b60405180910390a2505b8080600101915050610739565b50600260065f6101000a81548160ff021916908360028111156109f6576109f56116e9565b5b0217905550565b600381565b600b5481565b60015481565b600a81565b5f5f9054906101000a900473ffffffffffffffffffffffffffffffffffffffff1673ffffffffffffffffffffffffffffffffffffffff163373ffffffffffffffffffffffffffffffffffffffff1614610aa1576040517f08c379a0000000000000000000000000000000000000000000000000000000008152600401610a98906117f5565b60405180910390fd5b600280811115610ab457610ab36116e9565b5b60065f9054906101000a900460ff166002811115610ad557610ad46116e9565b5b14610b15576040517f08c379a0000000000000000000000000000000000000000000000000000000008152600401610b0c90611883565b60405180910390fd5b6003544210610b59576040517f08c379a0000000000000000000000000000000000000000000000000000000008152600401610b50906119e8565b60405180910390fd5b60095f9054906101000a900473ffffffffffffffffffffffffffffffffffffffff1673ffffffffffffffffffffffffffffffffffffffff166108fc60095f9054906101000a900473ffffffffffffffffffffffffffffffffffffffff1673ffffffffffffffffffffffffffffffffffffffff1631600a54610bda9190611a33565b90811502906040515f60405180830381858888f19350505050158015610c02573d5f5f3e3d5ffd5b505f5f9054906101000a900473ffffffffffffffffffffffffffffffffffffffff1673ffffffffffffffffffffffffffffffffffffffff166108fc4790811502906040515f60405180830381858888f19350505050158015610c66573d5f5f3e3d5ffd5b50565b60045481565b5f5f9054906101000a900473ffffffffffffffffffffffffffffffffffffffff1681565b5f6002811115610ca657610ca56116e9565b5b60065f9054906101000a900460ff166002811115610cc757610cc66116e9565b5b14610d07576040517f08c379a0000000000000000000000000000000000000000000000000000000008152600401610cfe90611ab0565b60405180910390fd5b6001544210158015610d1b57506002544211155b610d5a576040517f08c379a0000000000000000000000000000000000000000000000000000000008152600401610d5190611b3e565b60405180910390fd5b5f8111610d9c576040517f08c379a0000000000000000000000000000000000000000000000000000000008152600401610d9390611ba6565b60405180910390fd5b600454811115610de1576040517f08c379a0000000000000000000000000000000000000000000000000000000008152600401610dd890611c34565b60405180910390fd5b610dea3361057d565b15610e2a576040517f08c379a0000000000000000000000000000000000000000000000000000000008152600401610e2190611c9c565b60405180910390fd5b600360055410610e6f576040517f08c379a0000000000000000000000000000000000000000000000000000000008152600401610e6690611d2a565b60405180910390fd5b5f5f9054906101000a900473ffffffffffffffffffffffffffffffffffffffff1673ffffffffffffffffffffffffffffffffffffffff163373ffffffffffffffffffffffffffffffffffffffff1603610efd576040517f08c379a0000000000000000000000000000000000000000000000000000000008152600401610ef490611db8565b60405180910390fd5b6064600a82610f0c9190611dd6565b610f169190611e44565b3414610f57576040517f08c379a0000000000000000000000000000000000000000000000000000000008152600401610f4e90611ee4565b60405180910390fd5b600160055f828254610f699190611a33565b92505081905550600760405180608001604052803373ffffffffffffffffffffffffffffffffffffffff1681526020018381526020014281526020015f1515815250908060018154018082558091505060019003905f5260205f2090600402015f909190919091505f820151815f015f6101000a81548173ffffffffffffffffffffffffffffffffffffffff021916908373ffffffffffffffffffffffffffffffffffffffff16021790555060208201518160010155604082015181600201556060820151816003015f6101000a81548160ff0219169083151502179055505050600833908060018154018082558091505060019003905f5260205f20015f9091909190916101000a81548173ffffffffffffffffffffffffffffffffffffffff021916908373ffffffffffffffffffffffffffffffffffffffff1602179055503373ffffffffffffffffffffffffffffffffffffffff167fe677a6b9a16a696674f50d2c98a1ce8c5cb51d6b48a0223412c512bbc93664d560405160405180910390a250565b60065f9054906101000a900460ff1681565b600a5481565b60035481565b60095f9054906101000a900473ffffffffffffffffffffffffffffffffffffffff1681565b5f5f9054906101000a900473ffffffffffffffffffffffffffffffffffffffff1673ffffffffffffffffffffffffffffffffffffffff163373ffffffffffffffffffffffffffffffffffffffff16146111c1576040517f08c379a00000000000000000000000000000000000000000000000000000000081526004016111b8906117f5565b60405180910390fd5b5f60028111156111d4576111d36116e9565b5b60065f9054906101000a900460ff1660028111156111f5576111f46116e9565b5b14611235576040517f08c379a000000000000000000000000000000000000000000000000000000000815260040161122c90611f4c565b60405180910390fd5b600254421015806112495750600360055410155b611288576040517f08c379a000000000000000000000000000000000000000000000000000000000815260040161127f90611fda565b60405180910390fd5b611290611298565b565b60055481565b600160065f6101000a81548160ff021916908360028111156112bd576112bc6116e9565b5b02179055506112ca61138d565b60095f600a5f84919050558391906101000a81548173ffffffffffffffffffffffffffffffffffffffff021916908373ffffffffffffffffffffffffffffffffffffffff160217905550505060095f9054906101000a900473ffffffffffffffffffffffffffffffffffffffff1673ffffffffffffffffffffffffffffffffffffffff167ffd8f22870817ee413fcb464d7ffd8415666c2ab6285fe8d409dc1dc21fffb4f6600b54600a54604051611383929190611ff8565b60405180910390a2565b5f5f5f600780549050116113d6576040517f08c379a00000000000000000000000000000000000000000000000000000000081526004016113cd90612069565b60405180910390fd5b5f60045490505f60045490505f5f7fffffffffffffffffffffffffffffffffffffffffffffffffffffffffffffffff90505f5f90505b60078054905081101561154b575f6007828154811061142e5761142d611909565b5b905f5260205f2090600402016001015490505f6007838154811061145557611454611909565b5b905f5260205f209060040201600201549050868210156114c1578695508196506007838154811061148957611488611909565b5b905f5260205f2090600402015f015f9054906101000a900473ffffffffffffffffffffffffffffffffffffffff16945080935061153c565b86821480156114cf57508381105b1561152357869550600783815481106114eb576114ea611909565b5b905f5260205f2090600402015f015f9054906101000a900473ffffffffffffffffffffffffffffffffffffffff16945080935061153b565b858210801561153157508682115b1561153a578195505b5b5b5050808060010191505061140c565b50816001600780549050146115605783611562565b845b95509550505050509091565b5f5ffd5b5f73ffffffffffffffffffffffffffffffffffffffff82169050919050565b5f61159b82611572565b9050919050565b6115ab81611591565b81146115b5575f5ffd5b50565b5f813590506115c6816115a2565b92915050565b5f602082840312156115e1576115e061156e565b5b5f6115ee848285016115b8565b91505092915050565b5f8115159050919050565b61160b816115f7565b82525050565b5f6020820190506116245f830184611602565b92915050565b5f819050919050565b61163c8161162a565b82525050565b5f6020820190506116555f830184611633565b92915050565b5f61166582611572565b9050919050565b6116758161165b565b82525050565b5f60208201905061168e5f83018461166c565b92915050565b61169d8161162a565b81146116a7575f5ffd5b50565b5f813590506116b881611694565b92915050565b5f602082840312156116d3576116d261156e565b5b5f6116e0848285016116aa565b91505092915050565b7f4e487b71000000000000000000000000000000000000000000000000000000005f52602160045260245ffd5b60038110611727576117266116e9565b5b50565b5f81905061173782611716565b919050565b5f6117468261172a565b9050919050565b6117568161173c565b82525050565b5f60208201905061176f5f83018461174d565b92915050565b5f82825260208201905092915050565b7f4f6e6c7920746865206f776e65722063616e2063616c6c20746869732066756e5f8201527f6374696f6e000000000000000000000000000000000000000000000000000000602082015250565b5f6117df602583611775565b91506117ea82611785565b604082019050919050565b5f6020820190508181035f83015261180c816117d3565b9050919050565b7f41756374696f6e207374696c6c206f70656e206f72206469646e2774207061695f8201527f64206261636b20746865206465706f7369747320796574000000000000000000602082015250565b5f61186d603783611775565b915061187882611813565b604082019050919050565b5f6020820190508181035f83015261189a81611861565b9050919050565b7f5468652064656c69766572792063616e207374696c6c206265206d61646500005f82015250565b5f6118d5601e83611775565b91506118e0826118a1565b602082019050919050565b5f6020820190508181035f830152611902816118c9565b9050919050565b7f4e487b71000000000000000000000000000000000000000000000000000000005f52603260045260245ffd5b7f41756374696f6e207374696c6c206f70656e00000000000000000000000000005f82015250565b5f61196a601283611775565b915061197582611936565b602082019050919050565b5f6020820190508181035f8301526119978161195e565b9050919050565b7f5468652064656c6976657279206973206f7665726475650000000000000000005f82015250565b5f6119d2601783611775565b91506119dd8261199e565b602082019050919050565b5f6020820190508181035f8301526119ff816119c6565b9050919050565b7f4e487b71000000000000000000000000000000000000000000000000000000005f52601160045260245ffd5b5f611a3d8261162a565b9150611a488361162a565b9250828201905080821115611a6057611a5f611a06565b5b92915050565b7f41756374696f6e206e6f742061637469766500000000000000000000000000005f82015250565b5f611a9a601283611775565b9150611aa582611a66565b602082019050919050565b5f6020820190508181035f830152611ac781611a8e565b9050919050565b7f4f757473696465206f66207468652061756374696f6e27732074696d652072615f8201527f6e67650000000000000000000000000000000000000000000000000000000000602082015250565b5f611b28602383611775565b9150611b3382611ace565b604082019050919050565b5f6020820190508181035f830152611b5581611b1c565b9050919050565b7f54686520626964206d757374206265203e2030000000000000000000000000005f82015250565b5f611b90601383611775565b9150611b9b82611b5c565b602082019050919050565b5f6020820190508181035f830152611bbd81611b84565b9050919050565b7f5468652062696420697320686967686572207468616e20746865206d6178696d5f8201527f756d000000000000000000000000000000000000000000000000000000000000602082015250565b5f611c1e602283611775565b9150611c2982611bc4565b604082019050919050565b5f6020820190508181035f830152611c4b81611c12565b9050919050565b7f596f75206861766520616c7265616479207061727469636970617465640000005f82015250565b5f611c86601d83611775565b9150611c9182611c52565b602082019050919050565b5f6020820190508181035f830152611cb381611c7a565b9050919050565b7f5468652061756374696f6e20686173207265616368656420746865206d6178695f8201527f6d756d206e756d626572206f66207061727469636970616e7473000000000000602082015250565b5f611d14603a83611775565b9150611d1f82611cba565b604082019050919050565b5f6020820190508181035f830152611d4181611d08565b9050919050565b7f596f752063616e6e6f7420706c616365206120626964206f6e20796f7572206f5f8201527f776e2061756374696f6e00000000000000000000000000000000000000000000602082015250565b5f611da2602a83611775565b9150611dad82611d48565b604082019050919050565b5f6020820190508181035f830152611dcf81611d96565b9050919050565b5f611de08261162a565b9150611deb8361162a565b9250828202611df98161162a565b91508282048414831517611e1057611e0f611a06565b5b5092915050565b7f4e487b71000000000000000000000000000000000000000000000000000000005f52601260045260245ffd5b5f611e4e8261162a565b9150611e598361162a565b925082611e6957611e68611e17565b5b828204905092915050565b7f546865206465706f736974206d757374206265206174206c65617374203130255f8201527f206f662074686520626964000000000000000000000000000000000000000000602082015250565b5f611ece602b83611775565b9150611ed982611e74565b604082019050919050565b5f6020820190508181035f830152611efb81611ec2565b9050919050565b7f41756374696f6e20636c6f7365640000000000000000000000000000000000005f82015250565b5f611f36600e83611775565b9150611f4182611f02565b602082019050919050565b5f6020820190508181035f830152611f6381611f2a565b9050919050565b7f5468652061756374696f6e2063616e6e6f7420626520636c6f736564206561725f8201527f6c69657200000000000000000000000000000000000000000000000000000000602082015250565b5f611fc4602483611775565b9150611fcf82611f6a565b604082019050919050565b5f6020820190508181035f830152611ff181611fb8565b9050919050565b5f60408201905061200b5f830185611633565b6120186020830184611633565b9392505050565b7f4e6f206f666665727300000000000000000000000000000000000000000000005f82015250565b5f612053600983611775565b915061205e8261201f565b602082019050919050565b5f6020820190508181035f83015261208081612047565b905091905056fea2646970667358221220380bbee65a50aeea3462b34ff45dd96c335a00ee18d67683632a5f9da5d6779064736f6c634300081e0033",
					"opcodes": "PUSH1 0x80 PUSH1 0x40 MSTORE PUSH1 0x40 MLOAD PUSH2 0x2309 CODESIZE SUB DUP1 PUSH2 0x2309 DUP4 CODECOPY DUP2 DUP2 ADD PUSH1 0x40 MSTORE DUP2 ADD SWAP1 PUSH2 0x25 SWAP2 SWAP1 PUSH2 0x124 JUMP JUMPDEST DUP1 CALLVALUE LT ISZERO PUSH2 0x68 JUMPI PUSH1 0x40 MLOAD PUSH32 0x8C379A000000000000000000000000000000000000000000000000000000000 DUP2 MSTORE PUSH1 0x4 ADD PUSH2 0x5F SWAP1 PUSH2 0x1F4 JUMP JUMPDEST PUSH1 0x40 MLOAD DUP1 SWAP2 SUB SWAP1 REVERT JUMPDEST CALLER PUSH0 PUSH0 PUSH2 0x100 EXP DUP2 SLOAD DUP2 PUSH20 0xFFFFFFFFFFFFFFFFFFFFFFFFFFFFFFFFFFFFFFFF MUL NOT AND SWAP1 DUP4 PUSH20 0xFFFFFFFFFFFFFFFFFFFFFFFFFFFFFFFFFFFFFFFF AND MUL OR SWAP1 SSTORE POP DUP3 PUSH1 0x1 DUP2 SWAP1 SSTORE POP DUP2 PUSH1 0x2 DUP2 SWAP1 SSTORE POP DUP1 PUSH1 0x4 DUP2 SWAP1 SSTORE POP PUSH0 PUSH1 0x6 PUSH0 PUSH2 0x100 EXP DUP2 SLOAD DUP2 PUSH1 0xFF MUL NOT AND SWAP1 DUP4 PUSH1 0x2 DUP2 GT ISZERO PUSH2 0xE0 JUMPI PUSH2 0xDF PUSH2 0x212 JUMP JUMPDEST JUMPDEST MUL OR SWAP1 SSTORE POP POP POP POP PUSH2 0x23F JUMP JUMPDEST PUSH0 PUSH0 REVERT JUMPDEST PUSH0 DUP2 SWAP1 POP SWAP2 SWAP1 POP JUMP JUMPDEST PUSH2 0x103 DUP2 PUSH2 0xF1 JUMP JUMPDEST DUP2 EQ PUSH2 0x10D JUMPI PUSH0 PUSH0 REVERT JUMPDEST POP JUMP JUMPDEST PUSH0 DUP2 MLOAD SWAP1 POP PUSH2 0x11E DUP2 PUSH2 0xFA JUMP JUMPDEST SWAP3 SWAP2 POP POP JUMP JUMPDEST PUSH0 PUSH0 PUSH0 PUSH1 0x60 DUP5 DUP7 SUB SLT ISZERO PUSH2 0x13B JUMPI PUSH2 0x13A PUSH2 0xED JUMP JUMPDEST JUMPDEST PUSH0 PUSH2 0x148 DUP7 DUP3 DUP8 ADD PUSH2 0x110 JUMP JUMPDEST SWAP4 POP POP PUSH1 0x20 PUSH2 0x159 DUP7 DUP3 DUP8 ADD PUSH2 0x110 JUMP JUMPDEST SWAP3 POP POP PUSH1 0x40 PUSH2 0x16A DUP7 DUP3 DUP8 ADD PUSH2 0x110 JUMP JUMPDEST SWAP2 POP POP SWAP3 POP SWAP3 POP SWAP3 JUMP JUMPDEST PUSH0 DUP3 DUP3 MSTORE PUSH1 0x20 DUP3 ADD SWAP1 POP SWAP3 SWAP2 POP POP JUMP JUMPDEST PUSH32 0x596F75206861766520746F206465706F7369742074686520616D6F756E74206F PUSH0 DUP3 ADD MSTORE PUSH32 0x6620746865206D6178696D756D20706F737369626C6520626964000000000000 PUSH1 0x20 DUP3 ADD MSTORE POP JUMP JUMPDEST PUSH0 PUSH2 0x1DE PUSH1 0x3A DUP4 PUSH2 0x174 JUMP JUMPDEST SWAP2 POP PUSH2 0x1E9 DUP3 PUSH2 0x184 JUMP JUMPDEST PUSH1 0x40 DUP3 ADD SWAP1 POP SWAP2 SWAP1 POP JUMP JUMPDEST PUSH0 PUSH1 0x20 DUP3 ADD SWAP1 POP DUP2 DUP2 SUB PUSH0 DUP4 ADD MSTORE PUSH2 0x20B DUP2 PUSH2 0x1D2 JUMP JUMPDEST SWAP1 POP SWAP2 SWAP1 POP JUMP JUMPDEST PUSH32 0x4E487B7100000000000000000000000000000000000000000000000000000000 PUSH0 MSTORE PUSH1 0x21 PUSH1 0x4 MSTORE PUSH1 0x24 PUSH0 REVERT JUMPDEST PUSH2 0x20BD DUP1 PUSH2 0x24C PUSH0 CODECOPY PUSH0 RETURN INVALID PUSH1 0x80 PUSH1 0x40 MSTORE PUSH1 0x4 CALLDATASIZE LT PUSH2 0x113 JUMPI PUSH0 CALLDATALOAD PUSH1 0xE0 SHR DUP1 PUSH4 0x5D7E0B51 GT PUSH2 0x9F JUMPI DUP1 PUSH4 0xC1F52604 GT PUSH2 0x63 JUMPI DUP1 PUSH4 0xC1F52604 EQ PUSH2 0x313 JUMPI DUP1 PUSH4 0xD3124946 EQ PUSH2 0x33D JUMPI DUP1 PUSH4 0xDFBF53AE EQ PUSH2 0x367 JUMPI DUP1 PUSH4 0xF77282AB EQ PUSH2 0x391 JUMPI DUP1 PUSH4 0xFB4CD8E2 EQ PUSH2 0x3A7 JUMPI PUSH2 0x113 JUMP JUMPDEST DUP1 PUSH4 0x5D7E0B51 EQ PUSH2 0x26F JUMPI DUP1 PUSH4 0x74B11D8A EQ PUSH2 0x279 JUMPI DUP1 PUSH4 0x8DA5CB5B EQ PUSH2 0x2A3 JUMPI DUP1 PUSH4 0x9979EF45 EQ PUSH2 0x2CD JUMPI DUP1 PUSH4 0xC19D93FB EQ PUSH2 0x2E9 JUMPI PUSH2 0x113 JUMP JUMPDEST DUP1 PUSH4 0x362E2565 GT PUSH2 0xE6 JUMPI DUP1 PUSH4 0x362E2565 EQ PUSH2 0x1B1 JUMPI DUP1 PUSH4 0x4CC4F50D EQ PUSH2 0x1C7 JUMPI DUP1 PUSH4 0x4E9EDD1B EQ PUSH2 0x1F1 JUMPI DUP1 PUSH4 0x4F245EF7 EQ PUSH2 0x21B JUMPI DUP1 PUSH4 0x5A84D52A EQ PUSH2 0x245 JUMPI PUSH2 0x113 JUMP JUMPDEST DUP1 PUSH4 0x11D72E47 EQ PUSH2 0x117 JUMPI DUP1 PUSH4 0x235F0E46 EQ PUSH2 0x121 JUMPI DUP1 PUSH4 0x28F6A48A EQ PUSH2 0x15D JUMPI DUP1 PUSH4 0x2A24F46C EQ PUSH2 0x187 JUMPI JUMPDEST PUSH0 PUSH0 REVERT JUMPDEST PUSH2 0x11F PUSH2 0x3D1 JUMP JUMPDEST STOP JUMPDEST CALLVALUE DUP1 ISZERO PUSH2 0x12C JUMPI PUSH0 PUSH0 REVERT JUMPDEST POP PUSH2 0x147 PUSH1 0x4 DUP1 CALLDATASIZE SUB DUP2 ADD SWAP1 PUSH2 0x142 SWAP2 SWAP1 PUSH2 0x15CC JUMP JUMPDEST PUSH2 0x57D JUMP JUMPDEST PUSH1 0x40 MLOAD PUSH2 0x154 SWAP2 SWAP1 PUSH2 0x1611 JUMP JUMPDEST PUSH1 0x40 MLOAD DUP1 SWAP2 SUB SWAP1 RETURN JUMPDEST CALLVALUE DUP1 ISZERO PUSH2 0x168 JUMPI PUSH0 PUSH0 REVERT JUMPDEST POP PUSH2 0x171 PUSH2 0x61F JUMP JUMPDEST PUSH1 0x40 MLOAD PUSH2 0x17E SWAP2 SWAP1 PUSH2 0x1642 JUMP JUMPDEST PUSH1 0x40 MLOAD DUP1 SWAP2 SUB SWAP1 RETURN JUMPDEST CALLVALUE DUP1 ISZERO PUSH2 0x192 JUMPI PUSH0 PUSH0 REVERT JUMPDEST POP PUSH2 0x19B PUSH2 0x62B JUMP JUMPDEST PUSH1 0x40 MLOAD PUSH2 0x1A8 SWAP2 SWAP1 PUSH2 0x1642 JUMP JUMPDEST PUSH1 0x40 MLOAD DUP1 SWAP2 SUB SWAP1 RETURN JUMPDEST CALLVALUE DUP1 ISZERO PUSH2 0x1BC JUMPI PUSH0 PUSH0 REVERT JUMPDEST POP PUSH2 0x1C5 PUSH2 0x631 JUMP JUMPDEST STOP JUMPDEST CALLVALUE DUP1 ISZERO PUSH2 0x1D2 JUMPI PUSH0 PUSH0 REVERT JUMPDEST POP PUSH2 0x1DB PUSH2 0x9FD JUMP JUMPDEST PUSH1 0x40 MLOAD PUSH2 0x1E8 SWAP2 SWAP1 PUSH2 0x1642 JUMP JUMPDEST PUSH1 0x40 MLOAD DUP1 SWAP2 SUB SWAP1 RETURN JUMPDEST CALLVALUE DUP1 ISZERO PUSH2 0x1FC JUMPI PUSH0 PUSH0 REVERT JUMPDEST POP PUSH2 0x205 PUSH2 0xA02 JUMP JUMPDEST PUSH1 0x40 MLOAD PUSH2 0x212 SWAP2 SWAP1 PUSH2 0x1642 JUMP JUMPDEST PUSH1 0x40 MLOAD DUP1 SWAP2 SUB SWAP1 RETURN JUMPDEST CALLVALUE DUP1 ISZERO PUSH2 0x226 JUMPI PUSH0 PUSH0 REVERT JUMPDEST POP PUSH2 0x22F PUSH2 0xA08 JUMP JUMPDEST PUSH1 0x40 MLOAD PUSH2 0x23C SWAP2 SWAP1 PUSH2 0x1642 JUMP JUMPDEST PUSH1 0x40 MLOAD DUP1 SWAP2 SUB SWAP1 RETURN JUMPDEST CALLVALUE DUP1 ISZERO PUSH2 0x250 JUMPI PUSH0 PUSH0 REVERT JUMPDEST POP PUSH2 0x259 PUSH2 0xA0E JUMP JUMPDEST PUSH1 0x40 MLOAD PUSH2 0x266 SWAP2 SWAP1 PUSH2 0x1642 JUMP JUMPDEST PUSH1 0x40 MLOAD DUP1 SWAP2 SUB SWAP1 RETURN JUMPDEST PUSH2 0x277 PUSH2 0xA13 JUMP JUMPDEST STOP JUMPDEST CALLVALUE DUP1 ISZERO PUSH2 0x284 JUMPI PUSH0 PUSH0 REVERT JUMPDEST POP PUSH2 0x28D PUSH2 0xC69 JUMP JUMPDEST PUSH1 0x40 MLOAD PUSH2 0x29A SWAP2 SWAP1 PUSH2 0x1642 JUMP JUMPDEST PUSH1 0x40 MLOAD DUP1 SWAP2 SUB SWAP1 RETURN JUMPDEST CALLVALUE DUP1 ISZERO PUSH2 0x2AE JUMPI PUSH0 PUSH0 REVERT JUMPDEST POP PUSH2 0x2B7 PUSH2 0xC6F JUMP JUMPDEST PUSH1 0x40 MLOAD PUSH2 0x2C4 SWAP2 SWAP1 PUSH2 0x167B JUMP JUMPDEST PUSH1 0x40 MLOAD DUP1 SWAP2 SUB SWAP1 RETURN JUMPDEST PUSH2 0x2E7 PUSH1 0x4 DUP1 CALLDATASIZE SUB DUP2 ADD SWAP1 PUSH2 0x2E2 SWAP2 SWAP1 PUSH2 0x16BE JUMP JUMPDEST PUSH2 0xC93 JUMP JUMPDEST STOP JUMPDEST CALLVALUE DUP1 ISZERO PUSH2 0x2F4 JUMPI PUSH0 PUSH0 REVERT JUMPDEST POP PUSH2 0x2FD PUSH2 0x10F0 JUMP JUMPDEST PUSH1 0x40 MLOAD PUSH2 0x30A SWAP2 SWAP1 PUSH2 0x175C JUMP JUMPDEST PUSH1 0x40 MLOAD DUP1 SWAP2 SUB SWAP1 RETURN JUMPDEST CALLVALUE DUP1 ISZERO PUSH2 0x31E JUMPI PUSH0 PUSH0 REVERT JUMPDEST POP PUSH2 0x327 PUSH2 0x1102 JUMP JUMPDEST PUSH1 0x40 MLOAD PUSH2 0x334 SWAP2 SWAP1 PUSH2 0x1642 JUMP JUMPDEST PUSH1 0x40 MLOAD DUP1 SWAP2 SUB SWAP1 RETURN JUMPDEST CALLVALUE DUP1 ISZERO PUSH2 0x348 JUMPI PUSH0 PUSH0 REVERT JUMPDEST POP PUSH2 0x351 PUSH2 0x1108 JUMP JUMPDEST PUSH1 0x40 MLOAD PUSH2 0x35E SWAP2 SWAP1 PUSH2 0x1642 JUMP JUMPDEST PUSH1 0x40 MLOAD DUP1 SWAP2 SUB SWAP1 RETURN JUMPDEST CALLVALUE DUP1 ISZERO PUSH2 0x372 JUMPI PUSH0 PUSH0 REVERT JUMPDEST POP PUSH2 0x37B PUSH2 0x110E JUMP JUMPDEST PUSH1 0x40 MLOAD PUSH2 0x388 SWAP2 SWAP1 PUSH2 0x167B JUMP JUMPDEST PUSH1 0x40 MLOAD DUP1 SWAP2 SUB SWAP1 RETURN JUMPDEST CALLVALUE DUP1 ISZERO PUSH2 0x39C JUMPI PUSH0 PUSH0 REVERT JUMPDEST POP PUSH2 0x3A5 PUSH2 0x1133 JUMP JUMPDEST STOP JUMPDEST CALLVALUE DUP1 ISZERO PUSH2 0x3B2 JUMPI PUSH0 PUSH0 REVERT JUMPDEST POP PUSH2 0x3BB PUSH2 0x1292 JUMP JUMPDEST PUSH1 0x40 MLOAD PUSH2 0x3C8 SWAP2 SWAP1 PUSH2 0x1642 JUMP JUMPDEST PUSH1 0x40 MLOAD DUP1 SWAP2 SUB SWAP1 RETURN JUMPDEST PUSH0 PUSH0 SWAP1 SLOAD SWAP1 PUSH2 0x100 EXP SWAP1 DIV PUSH20 0xFFFFFFFFFFFFFFFFFFFFFFFFFFFFFFFFFFFFFFFF AND PUSH20 0xFFFFFFFFFFFFFFFFFFFFFFFFFFFFFFFFFFFFFFFF AND CALLER PUSH20 0xFFFFFFFFFFFFFFFFFFFFFFFFFFFFFFFFFFFFFFFF AND EQ PUSH2 0x45F JUMPI PUSH1 0x40 MLOAD PUSH32 0x8C379A000000000000000000000000000000000000000000000000000000000 DUP2 MSTORE PUSH1 0x4 ADD PUSH2 0x456 SWAP1 PUSH2 0x17F5 JUMP JUMPDEST PUSH1 0x40 MLOAD DUP1 SWAP2 SUB SWAP1 REVERT JUMPDEST PUSH1 0x2 DUP1 DUP2 GT ISZERO PUSH2 0x472 JUMPI PUSH2 0x471 PUSH2 0x16E9 JUMP JUMPDEST JUMPDEST PUSH1 0x6 PUSH0 SWAP1 SLOAD SWAP1 PUSH2 0x100 EXP SWAP1 DIV PUSH1 0xFF AND PUSH1 0x2 DUP2 GT ISZERO PUSH2 0x493 JUMPI PUSH2 0x492 PUSH2 0x16E9 JUMP JUMPDEST JUMPDEST EQ PUSH2 0x4D3 JUMPI PUSH1 0x40 MLOAD PUSH32 0x8C379A000000000000000000000000000000000000000000000000000000000 DUP2 MSTORE PUSH1 0x4 ADD PUSH2 0x4CA SWAP1 PUSH2 0x1883 JUMP JUMPDEST PUSH1 0x40 MLOAD DUP1 SWAP2 SUB SWAP1 REVERT JUMPDEST PUSH1 0x3 SLOAD TIMESTAMP GT PUSH2 0x517 JUMPI PUSH1 0x40 MLOAD PUSH32 0x8C379A000000000000000000000000000000000000000000000000000000000 DUP2 MSTORE PUSH1 0x4 ADD PUSH2 0x50E SWAP1 PUSH2 0x18EB JUMP JUMPDEST PUSH1 0x40 MLOAD DUP1 SWAP2 SUB SWAP1 REVERT JUMPDEST PUSH0 PUSH0 SWAP1 SLOAD SWAP1 PUSH2 0x100 EXP SWAP1 DIV PUSH20 0xFFFFFFFFFFFFFFFFFFFFFFFFFFFFFFFFFFFFFFFF AND PUSH20 0xFFFFFFFFFFFFFFFFFFFFFFFFFFFFFFFFFFFFFFFF AND PUSH2 0x8FC SELFBALANCE SWAP1 DUP2 ISZERO MUL SWAP1 PUSH1 0x40 MLOAD PUSH0 PUSH1 0x40 MLOAD DUP1 DUP4 SUB DUP2 DUP6 DUP9 DUP9 CALL SWAP4 POP POP POP POP ISZERO DUP1 ISZERO PUSH2 0x57A JUMPI RETURNDATASIZE PUSH0 PUSH0 RETURNDATACOPY RETURNDATASIZE PUSH0 REVERT JUMPDEST POP JUMP JUMPDEST PUSH0 PUSH0 PUSH0 SWAP1 POP JUMPDEST PUSH1 0x8 DUP1 SLOAD SWAP1 POP DUP2 LT ISZERO PUSH2 0x615 JUMPI DUP3 PUSH20 0xFFFFFFFFFFFFFFFFFFFFFFFFFFFFFFFFFFFFFFFF AND PUSH1 0x8 DUP3 DUP2 SLOAD DUP2 LT PUSH2 0x5BB JUMPI PUSH2 0x5BA PUSH2 0x1909 JUMP JUMPDEST JUMPDEST SWAP1 PUSH0 MSTORE PUSH1 0x20 PUSH0 KECCAK256 ADD PUSH0 SWAP1 SLOAD SWAP1 PUSH2 0x100 EXP SWAP1 DIV PUSH20 0xFFFFFFFFFFFFFFFFFFFFFFFFFFFFFFFFFFFFFFFF AND PUSH20 0xFFFFFFFFFFFFFFFFFFFFFFFFFFFFFFFFFFFFFFFF AND SUB PUSH2 0x608 JUMPI PUSH1 0x1 SWAP2 POP POP PUSH2 0x61A JUMP JUMPDEST DUP1 DUP1 PUSH1 0x1 ADD SWAP2 POP POP PUSH2 0x583 JUMP JUMPDEST POP PUSH0 SWAP1 POP JUMPDEST SWAP2 SWAP1 POP JUMP JUMPDEST PUSH0 PUSH1 0x7 DUP1 SLOAD SWAP1 POP SWAP1 POP SWAP1 JUMP JUMPDEST PUSH1 0x2 SLOAD DUP2 JUMP JUMPDEST PUSH0 PUSH0 SWAP1 SLOAD SWAP1 PUSH2 0x100 EXP SWAP1 DIV PUSH20 0xFFFFFFFFFFFFFFFFFFFFFFFFFFFFFFFFFFFFFFFF AND PUSH20 0xFFFFFFFFFFFFFFFFFFFFFFFFFFFFFFFFFFFFFFFF AND CALLER PUSH20 0xFFFFFFFFFFFFFFFFFFFFFFFFFFFFFFFFFFFFFFFF AND EQ PUSH2 0x6BF JUMPI PUSH1 0x40 MLOAD PUSH32 0x8C379A000000000000000000000000000000000000000000000000000000000 DUP2 MSTORE PUSH1 0x4 ADD PUSH2 0x6B6 SWAP1 PUSH2 0x17F5 JUMP JUMPDEST PUSH1 0x40 MLOAD DUP1 SWAP2 SUB SWAP1 REVERT JUMPDEST PUSH1 0x1 PUSH1 0x2 DUP2 GT ISZERO PUSH2 0x6D3 JUMPI PUSH2 0x6D2 PUSH2 0x16E9 JUMP JUMPDEST JUMPDEST PUSH1 0x6 PUSH0 SWAP1 SLOAD SWAP1 PUSH2 0x100 EXP SWAP1 DIV PUSH1 0xFF AND PUSH1 0x2 DUP2 GT ISZERO PUSH2 0x6F4 JUMPI PUSH2 0x6F3 PUSH2 0x16E9 JUMP JUMPDEST JUMPDEST EQ PUSH2 0x734 JUMPI PUSH1 0x40 MLOAD PUSH32 0x8C379A000000000000000000000000000000000000000000000000000000000 DUP2 MSTORE PUSH1 0x4 ADD PUSH2 0x72B SWAP1 PUSH2 0x1980 JUMP JUMPDEST PUSH1 0x40 MLOAD DUP1 SWAP2 SUB SWAP1 REVERT JUMPDEST PUSH0 PUSH0 SWAP1 POP JUMPDEST PUSH1 0x7 DUP1 SLOAD SWAP1 POP DUP2 LT ISZERO PUSH2 0x9D0 JUMPI PUSH1 0x9 PUSH0 SWAP1 SLOAD SWAP1 PUSH2 0x100 EXP SWAP1 DIV PUSH20 0xFFFFFFFFFFFFFFFFFFFFFFFFFFFFFFFFFFFFFFFF AND PUSH20 0xFFFFFFFFFFFFFFFFFFFFFFFFFFFFFFFFFFFFFFFF AND PUSH1 0x7 DUP3 DUP2 SLOAD DUP2 LT PUSH2 0x792 JUMPI PUSH2 0x791 PUSH2 0x1909 JUMP JUMPDEST JUMPDEST SWAP1 PUSH0 MSTORE PUSH1 0x20 PUSH0 KECCAK256 SWAP1 PUSH1 0x4 MUL ADD PUSH0 ADD PUSH0 SWAP1 SLOAD SWAP1 PUSH2 0x100 EXP SWAP1 DIV PUSH20 0xFFFFFFFFFFFFFFFFFFFFFFFFFFFFFFFFFFFFFFFF AND PUSH20 0xFFFFFFFFFFFFFFFFFFFFFFFFFFFFFFFFFFFFFFFF AND EQ ISZERO DUP1 ISZERO PUSH2 0x811 JUMPI POP PUSH1 0x7 DUP2 DUP2 SLOAD DUP2 LT PUSH2 0x7F3 JUMPI PUSH2 0x7F2 PUSH2 0x1909 JUMP JUMPDEST JUMPDEST SWAP1 PUSH0 MSTORE PUSH1 0x20 PUSH0 KECCAK256 SWAP1 PUSH1 0x4 MUL ADD PUSH1 0x3 ADD PUSH0 SWAP1 SLOAD SWAP1 PUSH2 0x100 EXP SWAP1 DIV PUSH1 0xFF AND ISZERO JUMPDEST ISZERO PUSH2 0x9C3 JUMPI PUSH0 PUSH1 0x7 DUP3 DUP2 SLOAD DUP2 LT PUSH2 0x82B JUMPI PUSH2 0x82A PUSH2 0x1909 JUMP JUMPDEST JUMPDEST SWAP1 PUSH0 MSTORE PUSH1 0x20 PUSH0 KECCAK256 SWAP1 PUSH1 0x4 MUL ADD PUSH0 ADD PUSH0 SWAP1 SLOAD SWAP1 PUSH2 0x100 EXP SWAP1 DIV PUSH20 0xFFFFFFFFFFFFFFFFFFFFFFFFFFFFFFFFFFFFFFFF AND PUSH20 0xFFFFFFFFFFFFFFFFFFFFFFFFFFFFFFFFFFFFFFFF AND BALANCE SWAP1 POP PUSH1 0x1 PUSH1 0x7 DUP4 DUP2 SLOAD DUP2 LT PUSH2 0x888 JUMPI PUSH2 0x887 PUSH2 0x1909 JUMP JUMPDEST JUMPDEST SWAP1 PUSH0 MSTORE PUSH1 0x20 PUSH0 KECCAK256 SWAP1 PUSH1 0x4 MUL ADD PUSH1 0x3 ADD PUSH0 PUSH2 0x100 EXP DUP2 SLOAD DUP2 PUSH1 0xFF MUL NOT AND SWAP1 DUP4 ISZERO ISZERO MUL OR SWAP1 SSTORE POP PUSH1 0x7 DUP3 DUP2 SLOAD DUP2 LT PUSH2 0x8C1 JUMPI PUSH2 0x8C0 PUSH2 0x1909 JUMP JUMPDEST JUMPDEST SWAP1 PUSH0 MSTORE PUSH1 0x20 PUSH0 KECCAK256 SWAP1 PUSH1 0x4 MUL ADD PUSH0 ADD PUSH0 SWAP1 SLOAD SWAP1 PUSH2 0x100 EXP SWAP1 DIV PUSH20 0xFFFFFFFFFFFFFFFFFFFFFFFFFFFFFFFFFFFFFFFF AND PUSH20 0xFFFFFFFFFFFFFFFFFFFFFFFFFFFFFFFFFFFFFFFF AND PUSH2 0x8FC DUP3 SWAP1 DUP2 ISZERO MUL SWAP1 PUSH1 0x40 MLOAD PUSH0 PUSH1 0x40 MLOAD DUP1 DUP4 SUB DUP2 DUP6 DUP9 DUP9 CALL SWAP4 POP POP POP POP ISZERO DUP1 ISZERO PUSH2 0x931 JUMPI RETURNDATASIZE PUSH0 PUSH0 RETURNDATACOPY RETURNDATASIZE PUSH0 REVERT JUMPDEST POP PUSH1 0x7 DUP3 DUP2 SLOAD DUP2 LT PUSH2 0x946 JUMPI PUSH2 0x945 PUSH2 0x1909 JUMP JUMPDEST JUMPDEST SWAP1 PUSH0 MSTORE PUSH1 0x20 PUSH0 KECCAK256 SWAP1 PUSH1 0x4 MUL ADD PUSH0 ADD PUSH0 SWAP1 SLOAD SWAP1 PUSH2 0x100 EXP SWAP1 DIV PUSH20 0xFFFFFFFFFFFFFFFFFFFFFFFFFFFFFFFFFFFFFFFF AND PUSH20 0xFFFFFFFFFFFFFFFFFFFFFFFFFFFFFFFFFFFFFFFF AND PUSH32 0xA09244C122A83074363635DC89CE0098166C2F74827960FF64A7C8E6AD1C57A2 DUP3 PUSH1 0x40 MLOAD PUSH2 0x9B9 SWAP2 SWAP1 PUSH2 0x1642 JUMP JUMPDEST PUSH1 0x40 MLOAD DUP1 SWAP2 SUB SWAP1 LOG2 POP JUMPDEST DUP1 DUP1 PUSH1 0x1 ADD SWAP2 POP POP PUSH2 0x739 JUMP JUMPDEST POP PUSH1 0x2 PUSH1 0x6 PUSH0 PUSH2 0x100 EXP DUP2 SLOAD DUP2 PUSH1 0xFF MUL NOT AND SWAP1 DUP4 PUSH1 0x2 DUP2 GT ISZERO PUSH2 0x9F6 JUMPI PUSH2 0x9F5 PUSH2 0x16E9 JUMP JUMPDEST JUMPDEST MUL OR SWAP1 SSTORE POP JUMP JUMPDEST PUSH1 0x3 DUP2 JUMP JUMPDEST PUSH1 0xB SLOAD DUP2 JUMP JUMPDEST PUSH1 0x1 SLOAD DUP2 JUMP JUMPDEST PUSH1 0xA DUP2 JUMP JUMPDEST PUSH0 PUSH0 SWAP1 SLOAD SWAP1 PUSH2 0x100 EXP SWAP1 DIV PUSH20 0xFFFFFFFFFFFFFFFFFFFFFFFFFFFFFFFFFFFFFFFF AND PUSH20 0xFFFFFFFFFFFFFFFFFFFFFFFFFFFFFFFFFFFFFFFF AND CALLER PUSH20 0xFFFFFFFFFFFFFFFFFFFFFFFFFFFFFFFFFFFFFFFF AND EQ PUSH2 0xAA1 JUMPI PUSH1 0x40 MLOAD PUSH32 0x8C379A000000000000000000000000000000000000000000000000000000000 DUP2 MSTORE PUSH1 0x4 ADD PUSH2 0xA98 SWAP1 PUSH2 0x17F5 JUMP JUMPDEST PUSH1 0x40 MLOAD DUP1 SWAP2 SUB SWAP1 REVERT JUMPDEST PUSH1 0x2 DUP1 DUP2 GT ISZERO PUSH2 0xAB4 JUMPI PUSH2 0xAB3 PUSH2 0x16E9 JUMP JUMPDEST JUMPDEST PUSH1 0x6 PUSH0 SWAP1 SLOAD SWAP1 PUSH2 0x100 EXP SWAP1 DIV PUSH1 0xFF AND PUSH1 0x2 DUP2 GT ISZERO PUSH2 0xAD5 JUMPI PUSH2 0xAD4 PUSH2 0x16E9 JUMP JUMPDEST JUMPDEST EQ PUSH2 0xB15 JUMPI PUSH1 0x40 MLOAD PUSH32 0x8C379A000000000000000000000000000000000000000000000000000000000 DUP2 MSTORE PUSH1 0x4 ADD PUSH2 0xB0C SWAP1 PUSH2 0x1883 JUMP JUMPDEST PUSH1 0x40 MLOAD DUP1 SWAP2 SUB SWAP1 REVERT JUMPDEST PUSH1 0x3 SLOAD TIMESTAMP LT PUSH2 0xB59 JUMPI PUSH1 0x40 MLOAD PUSH32 0x8C379A000000000000000000000000000000000000000000000000000000000 DUP2 MSTORE PUSH1 0x4 ADD PUSH2 0xB50 SWAP1 PUSH2 0x19E8 JUMP JUMPDEST PUSH1 0x40 MLOAD DUP1 SWAP2 SUB SWAP1 REVERT JUMPDEST PUSH1 0x9 PUSH0 SWAP1 SLOAD SWAP1 PUSH2 0x100 EXP SWAP1 DIV PUSH20 0xFFFFFFFFFFFFFFFFFFFFFFFFFFFFFFFFFFFFFFFF AND PUSH20 0xFFFFFFFFFFFFFFFFFFFFFFFFFFFFFFFFFFFFFFFF AND PUSH2 0x8FC PUSH1 0x9 PUSH0 SWAP1 SLOAD SWAP1 PUSH2 0x100 EXP SWAP1 DIV PUSH20 0xFFFFFFFFFFFFFFFFFFFFFFFFFFFFFFFFFFFFFFFF AND PUSH20 0xFFFFFFFFFFFFFFFFFFFFFFFFFFFFFFFFFFFFFFFF AND BALANCE PUSH1 0xA SLOAD PUSH2 0xBDA SWAP2 SWAP1 PUSH2 0x1A33 JUMP JUMPDEST SWAP1 DUP2 ISZERO MUL SWAP1 PUSH1 0x40 MLOAD PUSH0 PUSH1 0x40 MLOAD DUP1 DUP4 SUB DUP2 DUP6 DUP9 DUP9 CALL SWAP4 POP POP POP POP ISZERO DUP1 ISZERO PUSH2 0xC02 JUMPI RETURNDATASIZE PUSH0 PUSH0 RETURNDATACOPY RETURNDATASIZE PUSH0 REVERT JUMPDEST POP PUSH0 PUSH0 SWAP1 SLOAD SWAP1 PUSH2 0x100 EXP SWAP1 DIV PUSH20 0xFFFFFFFFFFFFFFFFFFFFFFFFFFFFFFFFFFFFFFFF AND PUSH20 0xFFFFFFFFFFFFFFFFFFFFFFFFFFFFFFFFFFFFFFFF AND PUSH2 0x8FC SELFBALANCE SWAP1 DUP2 ISZERO MUL SWAP1 PUSH1 0x40 MLOAD PUSH0 PUSH1 0x40 MLOAD DUP1 DUP4 SUB DUP2 DUP6 DUP9 DUP9 CALL SWAP4 POP POP POP POP ISZERO DUP1 ISZERO PUSH2 0xC66 JUMPI RETURNDATASIZE PUSH0 PUSH0 RETURNDATACOPY RETURNDATASIZE PUSH0 REVERT JUMPDEST POP JUMP JUMPDEST PUSH1 0x4 SLOAD DUP2 JUMP JUMPDEST PUSH0 PUSH0 SWAP1 SLOAD SWAP1 PUSH2 0x100 EXP SWAP1 DIV PUSH20 0xFFFFFFFFFFFFFFFFFFFFFFFFFFFFFFFFFFFFFFFF AND DUP2 JUMP JUMPDEST PUSH0 PUSH1 0x2 DUP2 GT ISZERO PUSH2 0xCA6 JUMPI PUSH2 0xCA5 PUSH2 0x16E9 JUMP JUMPDEST JUMPDEST PUSH1 0x6 PUSH0 SWAP1 SLOAD SWAP1 PUSH2 0x100 EXP SWAP1 DIV PUSH1 0xFF AND PUSH1 0x2 DUP2 GT ISZERO PUSH2 0xCC7 JUMPI PUSH2 0xCC6 PUSH2 0x16E9 JUMP JUMPDEST JUMPDEST EQ PUSH2 0xD07 JUMPI PUSH1 0x40 MLOAD PUSH32 0x8C379A000000000000000000000000000000000000000000000000000000000 DUP2 MSTORE PUSH1 0x4 ADD PUSH2 0xCFE SWAP1 PUSH2 0x1AB0 JUMP JUMPDEST PUSH1 0x40 MLOAD DUP1 SWAP2 SUB SWAP1 REVERT JUMPDEST PUSH1 0x1 SLOAD TIMESTAMP LT ISZERO DUP1 ISZERO PUSH2 0xD1B JUMPI POP PUSH1 0x2 SLOAD TIMESTAMP GT ISZERO JUMPDEST PUSH2 0xD5A JUMPI PUSH1 0x40 MLOAD PUSH32 0x8C379A000000000000000000000000000000000000000000000000000000000 DUP2 MSTORE PUSH1 0x4 ADD PUSH2 0xD51 SWAP1 PUSH2 0x1B3E JUMP JUMPDEST PUSH1 0x40 MLOAD DUP1 SWAP2 SUB SWAP1 REVERT JUMPDEST PUSH0 DUP2 GT PUSH2 0xD9C JUMPI PUSH1 0x40 MLOAD PUSH32 0x8C379A000000000000000000000000000000000000000000000000000000000 DUP2 MSTORE PUSH1 0x4 ADD PUSH2 0xD93 SWAP1 PUSH2 0x1BA6 JUMP JUMPDEST PUSH1 0x40 MLOAD DUP1 SWAP2 SUB SWAP1 REVERT JUMPDEST PUSH1 0x4 SLOAD DUP2 GT ISZERO PUSH2 0xDE1 JUMPI PUSH1 0x40 MLOAD PUSH32 0x8C379A000000000000000000000000000000000000000000000000000000000 DUP2 MSTORE PUSH1 0x4 ADD PUSH2 0xDD8 SWAP1 PUSH2 0x1C34 JUMP JUMPDEST PUSH1 0x40 MLOAD DUP1 SWAP2 SUB SWAP1 REVERT JUMPDEST PUSH2 0xDEA CALLER PUSH2 0x57D JUMP JUMPDEST ISZERO PUSH2 0xE2A JUMPI PUSH1 0x40 MLOAD PUSH32 0x8C379A000000000000000000000000000000000000000000000000000000000 DUP2 MSTORE PUSH1 0x4 ADD PUSH2 0xE21 SWAP1 PUSH2 0x1C9C JUMP JUMPDEST PUSH1 0x40 MLOAD DUP1 SWAP2 SUB SWAP1 REVERT JUMPDEST PUSH1 0x3 PUSH1 0x5 SLOAD LT PUSH2 0xE6F JUMPI PUSH1 0x40 MLOAD PUSH32 0x8C379A000000000000000000000000000000000000000000000000000000000 DUP2 MSTORE PUSH1 0x4 ADD PUSH2 0xE66 SWAP1 PUSH2 0x1D2A JUMP JUMPDEST PUSH1 0x40 MLOAD DUP1 SWAP2 SUB SWAP1 REVERT JUMPDEST PUSH0 PUSH0 SWAP1 SLOAD SWAP1 PUSH2 0x100 EXP SWAP1 DIV PUSH20 0xFFFFFFFFFFFFFFFFFFFFFFFFFFFFFFFFFFFFFFFF AND PUSH20 0xFFFFFFFFFFFFFFFFFFFFFFFFFFFFFFFFFFFFFFFF AND CALLER PUSH20 0xFFFFFFFFFFFFFFFFFFFFFFFFFFFFFFFFFFFFFFFF AND SUB PUSH2 0xEFD JUMPI PUSH1 0x40 MLOAD PUSH32 0x8C379A000000000000000000000000000000000000000000000000000000000 DUP2 MSTORE PUSH1 0x4 ADD PUSH2 0xEF4 SWAP1 PUSH2 0x1DB8 JUMP JUMPDEST PUSH1 0x40 MLOAD DUP1 SWAP2 SUB SWAP1 REVERT JUMPDEST PUSH1 0x64 PUSH1 0xA DUP3 PUSH2 0xF0C SWAP2 SWAP1 PUSH2 0x1DD6 JUMP JUMPDEST PUSH2 0xF16 SWAP2 SWAP1 PUSH2 0x1E44 JUMP JUMPDEST CALLVALUE EQ PUSH2 0xF57 JUMPI PUSH1 0x40 MLOAD PUSH32 0x8C379A000000000000000000000000000000000000000000000000000000000 DUP2 MSTORE PUSH1 0x4 ADD PUSH2 0xF4E SWAP1 PUSH2 0x1EE4 JUMP JUMPDEST PUSH1 0x40 MLOAD DUP1 SWAP2 SUB SWAP1 REVERT JUMPDEST PUSH1 0x1 PUSH1 0x5 PUSH0 DUP3 DUP3 SLOAD PUSH2 0xF69 SWAP2 SWAP1 PUSH2 0x1A33 JUMP JUMPDEST SWAP3 POP POP DUP2 SWAP1 SSTORE POP PUSH1 0x7 PUSH1 0x40 MLOAD DUP1 PUSH1 0x80 ADD PUSH1 0x40 MSTORE DUP1 CALLER PUSH20 0xFFFFFFFFFFFFFFFFFFFFFFFFFFFFFFFFFFFFFFFF AND DUP2 MSTORE PUSH1 0x20 ADD DUP4 DUP2 MSTORE PUSH1 0x20 ADD TIMESTAMP DUP2 MSTORE PUSH1 0x20 ADD PUSH0 ISZERO ISZERO DUP2 MSTORE POP SWAP1 DUP1 PUSH1 0x1 DUP2 SLOAD ADD DUP1 DUP3 SSTORE DUP1 SWAP2 POP POP PUSH1 0x1 SWAP1 SUB SWAP1 PUSH0 MSTORE PUSH1 0x20 PUSH0 KECCAK256 SWAP1 PUSH1 0x4 MUL ADD PUSH0 SWAP1 SWAP2 SWAP1 SWAP2 SWAP1 SWAP2 POP PUSH0 DUP3 ADD MLOAD DUP2 PUSH0 ADD PUSH0 PUSH2 0x100 EXP DUP2 SLOAD DUP2 PUSH20 0xFFFFFFFFFFFFFFFFFFFFFFFFFFFFFFFFFFFFFFFF MUL NOT AND SWAP1 DUP4 PUSH20 0xFFFFFFFFFFFFFFFFFFFFFFFFFFFFFFFFFFFFFFFF AND MUL OR SWAP1 SSTORE POP PUSH1 0x20 DUP3 ADD MLOAD DUP2 PUSH1 0x1 ADD SSTORE PUSH1 0x40 DUP3 ADD MLOAD DUP2 PUSH1 0x2 ADD SSTORE PUSH1 0x60 DUP3 ADD MLOAD DUP2 PUSH1 0x3 ADD PUSH0 PUSH2 0x100 EXP DUP2 SLOAD DUP2 PUSH1 0xFF MUL NOT AND SWAP1 DUP4 ISZERO ISZERO MUL OR SWAP1 SSTORE POP POP POP PUSH1 0x8 CALLER SWAP1 DUP1 PUSH1 0x1 DUP2 SLOAD ADD DUP1 DUP3 SSTORE DUP1 SWAP2 POP POP PUSH1 0x1 SWAP1 SUB SWAP1 PUSH0 MSTORE PUSH1 0x20 PUSH0 KECCAK256 ADD PUSH0 SWAP1 SWAP2 SWAP1 SWAP2 SWAP1 SWAP2 PUSH2 0x100 EXP DUP2 SLOAD DUP2 PUSH20 0xFFFFFFFFFFFFFFFFFFFFFFFFFFFFFFFFFFFFFFFF MUL NOT AND SWAP1 DUP4 PUSH20 0xFFFFFFFFFFFFFFFFFFFFFFFFFFFFFFFFFFFFFFFF AND MUL OR SWAP1 SSTORE POP CALLER PUSH20 0xFFFFFFFFFFFFFFFFFFFFFFFFFFFFFFFFFFFFFFFF AND PUSH32 0xE677A6B9A16A696674F50D2C98A1CE8C5CB51D6B48A0223412C512BBC93664D5 PUSH1 0x40 MLOAD PUSH1 0x40 MLOAD DUP1 SWAP2 SUB SWAP1 LOG2 POP JUMP JUMPDEST PUSH1 0x6 PUSH0 SWAP1 SLOAD SWAP1 PUSH2 0x100 EXP SWAP1 DIV PUSH1 0xFF AND DUP2 JUMP JUMPDEST PUSH1 0xA SLOAD DUP2 JUMP JUMPDEST PUSH1 0x3 SLOAD DUP2 JUMP JUMPDEST PUSH1 0x9 PUSH0 SWAP1 SLOAD SWAP1 PUSH2 0x100 EXP SWAP1 DIV PUSH20 0xFFFFFFFFFFFFFFFFFFFFFFFFFFFFFFFFFFFFFFFF AND DUP2 JUMP JUMPDEST PUSH0 PUSH0 SWAP1 SLOAD SWAP1 PUSH2 0x100 EXP SWAP1 DIV PUSH20 0xFFFFFFFFFFFFFFFFFFFFFFFFFFFFFFFFFFFFFFFF AND PUSH20 0xFFFFFFFFFFFFFFFFFFFFFFFFFFFFFFFFFFFFFFFF AND CALLER PUSH20 0xFFFFFFFFFFFFFFFFFFFFFFFFFFFFFFFFFFFFFFFF AND EQ PUSH2 0x11C1 JUMPI PUSH1 0x40 MLOAD PUSH32 0x8C379A000000000000000000000000000000000000000000000000000000000 DUP2 MSTORE PUSH1 0x4 ADD PUSH2 0x11B8 SWAP1 PUSH2 0x17F5 JUMP JUMPDEST PUSH1 0x40 MLOAD DUP1 SWAP2 SUB SWAP1 REVERT JUMPDEST PUSH0 PUSH1 0x2 DUP2 GT ISZERO PUSH2 0x11D4 JUMPI PUSH2 0x11D3 PUSH2 0x16E9 JUMP JUMPDEST JUMPDEST PUSH1 0x6 PUSH0 SWAP1 SLOAD SWAP1 PUSH2 0x100 EXP SWAP1 DIV PUSH1 0xFF AND PUSH1 0x2 DUP2 GT ISZERO PUSH2 0x11F5 JUMPI PUSH2 0x11F4 PUSH2 0x16E9 JUMP JUMPDEST JUMPDEST EQ PUSH2 0x1235 JUMPI PUSH1 0x40 MLOAD PUSH32 0x8C379A000000000000000000000000000000000000000000000000000000000 DUP2 MSTORE PUSH1 0x4 ADD PUSH2 0x122C SWAP1 PUSH2 0x1F4C JUMP JUMPDEST PUSH1 0x40 MLOAD DUP1 SWAP2 SUB SWAP1 REVERT JUMPDEST PUSH1 0x2 SLOAD TIMESTAMP LT ISZERO DUP1 PUSH2 0x1249 JUMPI POP PUSH1 0x3 PUSH1 0x5 SLOAD LT ISZERO JUMPDEST PUSH2 0x1288 JUMPI PUSH1 0x40 MLOAD PUSH32 0x8C379A000000000000000000000000000000000000000000000000000000000 DUP2 MSTORE PUSH1 0x4 ADD PUSH2 0x127F SWAP1 PUSH2 0x1FDA JUMP JUMPDEST PUSH1 0x40 MLOAD DUP1 SWAP2 SUB SWAP1 REVERT JUMPDEST PUSH2 0x1290 PUSH2 0x1298 JUMP JUMPDEST JUMP JUMPDEST PUSH1 0x5 SLOAD DUP2 JUMP JUMPDEST PUSH1 0x1 PUSH1 0x6 PUSH0 PUSH2 0x100 EXP DUP2 SLOAD DUP2 PUSH1 0xFF MUL NOT AND SWAP1 DUP4 PUSH1 0x2 DUP2 GT ISZERO PUSH2 0x12BD JUMPI PUSH2 0x12BC PUSH2 0x16E9 JUMP JUMPDEST JUMPDEST MUL OR SWAP1 SSTORE POP PUSH2 0x12CA PUSH2 0x138D JUMP JUMPDEST PUSH1 0x9 PUSH0 PUSH1 0xA PUSH0 DUP5 SWAP2 SWAP1 POP SSTORE DUP4 SWAP2 SWAP1 PUSH2 0x100 EXP DUP2 SLOAD DUP2 PUSH20 0xFFFFFFFFFFFFFFFFFFFFFFFFFFFFFFFFFFFFFFFF MUL NOT AND SWAP1 DUP4 PUSH20 0xFFFFFFFFFFFFFFFFFFFFFFFFFFFFFFFFFFFFFFFF AND MUL OR SWAP1 SSTORE POP POP POP PUSH1 0x9 PUSH0 SWAP1 SLOAD SWAP1 PUSH2 0x100 EXP SWAP1 DIV PUSH20 0xFFFFFFFFFFFFFFFFFFFFFFFFFFFFFFFFFFFFFFFF AND PUSH20 0xFFFFFFFFFFFFFFFFFFFFFFFFFFFFFFFFFFFFFFFF AND PUSH32 0xFD8F22870817EE413FCB464D7FFD8415666C2AB6285FE8D409DC1DC21FFFB4F6 PUSH1 0xB SLOAD PUSH1 0xA SLOAD PUSH1 0x40 MLOAD PUSH2 0x1383 SWAP3 SWAP2 SWAP1 PUSH2 0x1FF8 JUMP JUMPDEST PUSH1 0x40 MLOAD DUP1 SWAP2 SUB SWAP1 LOG2 JUMP JUMPDEST PUSH0 PUSH0 PUSH0 PUSH1 0x7 DUP1 SLOAD SWAP1 POP GT PUSH2 0x13D6 JUMPI PUSH1 0x40 MLOAD PUSH32 0x8C379A000000000000000000000000000000000000000000000000000000000 DUP2 MSTORE PUSH1 0x4 ADD PUSH2 0x13CD SWAP1 PUSH2 0x2069 JUMP JUMPDEST PUSH1 0x40 MLOAD DUP1 SWAP2 SUB SWAP1 REVERT JUMPDEST PUSH0 PUSH1 0x4 SLOAD SWAP1 POP PUSH0 PUSH1 0x4 SLOAD SWAP1 POP PUSH0 PUSH0 PUSH32 0xFFFFFFFFFFFFFFFFFFFFFFFFFFFFFFFFFFFFFFFFFFFFFFFFFFFFFFFFFFFFFFFF SWAP1 POP PUSH0 PUSH0 SWAP1 POP JUMPDEST PUSH1 0x7 DUP1 SLOAD SWAP1 POP DUP2 LT ISZERO PUSH2 0x154B JUMPI PUSH0 PUSH1 0x7 DUP3 DUP2 SLOAD DUP2 LT PUSH2 0x142E JUMPI PUSH2 0x142D PUSH2 0x1909 JUMP JUMPDEST JUMPDEST SWAP1 PUSH0 MSTORE PUSH1 0x20 PUSH0 KECCAK256 SWAP1 PUSH1 0x4 MUL ADD PUSH1 0x1 ADD SLOAD SWAP1 POP PUSH0 PUSH1 0x7 DUP4 DUP2 SLOAD DUP2 LT PUSH2 0x1455 JUMPI PUSH2 0x1454 PUSH2 0x1909 JUMP JUMPDEST JUMPDEST SWAP1 PUSH0 MSTORE PUSH1 0x20 PUSH0 KECCAK256 SWAP1 PUSH1 0x4 MUL ADD PUSH1 0x2 ADD SLOAD SWAP1 POP DUP7 DUP3 LT ISZERO PUSH2 0x14C1 JUMPI DUP7 SWAP6 POP DUP2 SWAP7 POP PUSH1 0x7 DUP4 DUP2 SLOAD DUP2 LT PUSH2 0x1489 JUMPI PUSH2 0x1488 PUSH2 0x1909 JUMP JUMPDEST JUMPDEST SWAP1 PUSH0 MSTORE PUSH1 0x20 PUSH0 KECCAK256 SWAP1 PUSH1 0x4 MUL ADD PUSH0 ADD PUSH0 SWAP1 SLOAD SWAP1 PUSH2 0x100 EXP SWAP1 DIV PUSH20 0xFFFFFFFFFFFFFFFFFFFFFFFFFFFFFFFFFFFFFFFF AND SWAP5 POP DUP1 SWAP4 POP PUSH2 0x153C JUMP JUMPDEST DUP7 DUP3 EQ DUP1 ISZERO PUSH2 0x14CF JUMPI POP DUP4 DUP2 LT JUMPDEST ISZERO PUSH2 0x1523 JUMPI DUP7 SWAP6 POP PUSH1 0x7 DUP4 DUP2 SLOAD DUP2 LT PUSH2 0x14EB JUMPI PUSH2 0x14EA PUSH2 0x1909 JUMP JUMPDEST JUMPDEST SWAP1 PUSH0 MSTORE PUSH1 0x20 PUSH0 KECCAK256 SWAP1 PUSH1 0x4 MUL ADD PUSH0 ADD PUSH0 SWAP1 SLOAD SWAP1 PUSH2 0x100 EXP SWAP1 DIV PUSH20 0xFFFFFFFFFFFFFFFFFFFFFFFFFFFFFFFFFFFFFFFF AND SWAP5 POP DUP1 SWAP4 POP PUSH2 0x153B JUMP JUMPDEST DUP6 DUP3 LT DUP1 ISZERO PUSH2 0x1531 JUMPI POP DUP7 DUP3 GT JUMPDEST ISZERO PUSH2 0x153A JUMPI DUP2 SWAP6 POP JUMPDEST JUMPDEST JUMPDEST POP POP DUP1 DUP1 PUSH1 0x1 ADD SWAP2 POP POP PUSH2 0x140C JUMP JUMPDEST POP DUP2 PUSH1 0x1 PUSH1 0x7 DUP1 SLOAD SWAP1 POP EQ PUSH2 0x1560 JUMPI DUP4 PUSH2 0x1562 JUMP JUMPDEST DUP5 JUMPDEST SWAP6 POP SWAP6 POP POP POP POP POP SWAP1 SWAP2 JUMP JUMPDEST PUSH0 PUSH0 REVERT JUMPDEST PUSH0 PUSH20 0xFFFFFFFFFFFFFFFFFFFFFFFFFFFFFFFFFFFFFFFF DUP3 AND SWAP1 POP SWAP2 SWAP1 POP JUMP JUMPDEST PUSH0 PUSH2 0x159B DUP3 PUSH2 0x1572 JUMP JUMPDEST SWAP1 POP SWAP2 SWAP1 POP JUMP JUMPDEST PUSH2 0x15AB DUP2 PUSH2 0x1591 JUMP JUMPDEST DUP2 EQ PUSH2 0x15B5 JUMPI PUSH0 PUSH0 REVERT JUMPDEST POP JUMP JUMPDEST PUSH0 DUP2 CALLDATALOAD SWAP1 POP PUSH2 0x15C6 DUP2 PUSH2 0x15A2 JUMP JUMPDEST SWAP3 SWAP2 POP POP JUMP JUMPDEST PUSH0 PUSH1 0x20 DUP3 DUP5 SUB SLT ISZERO PUSH2 0x15E1 JUMPI PUSH2 0x15E0 PUSH2 0x156E JUMP JUMPDEST JUMPDEST PUSH0 PUSH2 0x15EE DUP5 DUP3 DUP6 ADD PUSH2 0x15B8 JUMP JUMPDEST SWAP2 POP POP SWAP3 SWAP2 POP POP JUMP JUMPDEST PUSH0 DUP2 ISZERO ISZERO SWAP1 POP SWAP2 SWAP1 POP JUMP JUMPDEST PUSH2 0x160B DUP2 PUSH2 0x15F7 JUMP JUMPDEST DUP3 MSTORE POP POP JUMP JUMPDEST PUSH0 PUSH1 0x20 DUP3 ADD SWAP1 POP PUSH2 0x1624 PUSH0 DUP4 ADD DUP5 PUSH2 0x1602 JUMP JUMPDEST SWAP3 SWAP2 POP POP JUMP JUMPDEST PUSH0 DUP2 SWAP1 POP SWAP2 SWAP1 POP JUMP JUMPDEST PUSH2 0x163C DUP2 PUSH2 0x162A JUMP JUMPDEST DUP3 MSTORE POP POP JUMP JUMPDEST PUSH0 PUSH1 0x20 DUP3 ADD SWAP1 POP PUSH2 0x1655 PUSH0 DUP4 ADD DUP5 PUSH2 0x1633 JUMP JUMPDEST SWAP3 SWAP2 POP POP JUMP JUMPDEST PUSH0 PUSH2 0x1665 DUP3 PUSH2 0x1572 JUMP JUMPDEST SWAP1 POP SWAP2 SWAP1 POP JUMP JUMPDEST PUSH2 0x1675 DUP2 PUSH2 0x165B JUMP JUMPDEST DUP3 MSTORE POP POP JUMP JUMPDEST PUSH0 PUSH1 0x20 DUP3 ADD SWAP1 POP PUSH2 0x168E PUSH0 DUP4 ADD DUP5 PUSH2 0x166C JUMP JUMPDEST SWAP3 SWAP2 POP POP JUMP JUMPDEST PUSH2 0x169D DUP2 PUSH2 0x162A JUMP JUMPDEST DUP2 EQ PUSH2 0x16A7 JUMPI PUSH0 PUSH0 REVERT JUMPDEST POP JUMP JUMPDEST PUSH0 DUP2 CALLDATALOAD SWAP1 POP PUSH2 0x16B8 DUP2 PUSH2 0x1694 JUMP JUMPDEST SWAP3 SWAP2 POP POP JUMP JUMPDEST PUSH0 PUSH1 0x20 DUP3 DUP5 SUB SLT ISZERO PUSH2 0x16D3 JUMPI PUSH2 0x16D2 PUSH2 0x156E JUMP JUMPDEST JUMPDEST PUSH0 PUSH2 0x16E0 DUP5 DUP3 DUP6 ADD PUSH2 0x16AA JUMP JUMPDEST SWAP2 POP POP SWAP3 SWAP2 POP POP JUMP JUMPDEST PUSH32 0x4E487B7100000000000000000000000000000000000000000000000000000000 PUSH0 MSTORE PUSH1 0x21 PUSH1 0x4 MSTORE PUSH1 0x24 PUSH0 REVERT JUMPDEST PUSH1 0x3 DUP2 LT PUSH2 0x1727 JUMPI PUSH2 0x1726 PUSH2 0x16E9 JUMP JUMPDEST JUMPDEST POP JUMP JUMPDEST PUSH0 DUP2 SWAP1 POP PUSH2 0x1737 DUP3 PUSH2 0x1716 JUMP JUMPDEST SWAP2 SWAP1 POP JUMP JUMPDEST PUSH0 PUSH2 0x1746 DUP3 PUSH2 0x172A JUMP JUMPDEST SWAP1 POP SWAP2 SWAP1 POP JUMP JUMPDEST PUSH2 0x1756 DUP2 PUSH2 0x173C JUMP JUMPDEST DUP3 MSTORE POP POP JUMP JUMPDEST PUSH0 PUSH1 0x20 DUP3 ADD SWAP1 POP PUSH2 0x176F PUSH0 DUP4 ADD DUP5 PUSH2 0x174D JUMP JUMPDEST SWAP3 SWAP2 POP POP JUMP JUMPDEST PUSH0 DUP3 DUP3 MSTORE PUSH1 0x20 DUP3 ADD SWAP1 POP SWAP3 SWAP2 POP POP JUMP JUMPDEST PUSH32 0x4F6E6C7920746865206F776E65722063616E2063616C6C20746869732066756E PUSH0 DUP3 ADD MSTORE PUSH32 0x6374696F6E000000000000000000000000000000000000000000000000000000 PUSH1 0x20 DUP3 ADD MSTORE POP JUMP JUMPDEST PUSH0 PUSH2 0x17DF PUSH1 0x25 DUP4 PUSH2 0x1775 JUMP JUMPDEST SWAP2 POP PUSH2 0x17EA DUP3 PUSH2 0x1785 JUMP JUMPDEST PUSH1 0x40 DUP3 ADD SWAP1 POP SWAP2 SWAP1 POP JUMP JUMPDEST PUSH0 PUSH1 0x20 DUP3 ADD SWAP1 POP DUP2 DUP2 SUB PUSH0 DUP4 ADD MSTORE PUSH2 0x180C DUP2 PUSH2 0x17D3 JUMP JUMPDEST SWAP1 POP SWAP2 SWAP1 POP JUMP JUMPDEST PUSH32 0x41756374696F6E207374696C6C206F70656E206F72206469646E277420706169 PUSH0 DUP3 ADD MSTORE PUSH32 0x64206261636B20746865206465706F7369747320796574000000000000000000 PUSH1 0x20 DUP3 ADD MSTORE POP JUMP JUMPDEST PUSH0 PUSH2 0x186D PUSH1 0x37 DUP4 PUSH2 0x1775 JUMP JUMPDEST SWAP2 POP PUSH2 0x1878 DUP3 PUSH2 0x1813 JUMP JUMPDEST PUSH1 0x40 DUP3 ADD SWAP1 POP SWAP2 SWAP1 POP JUMP JUMPDEST PUSH0 PUSH1 0x20 DUP3 ADD SWAP1 POP DUP2 DUP2 SUB PUSH0 DUP4 ADD MSTORE PUSH2 0x189A DUP2 PUSH2 0x1861 JUMP JUMPDEST SWAP1 POP SWAP2 SWAP1 POP JUMP JUMPDEST PUSH32 0x5468652064656C69766572792063616E207374696C6C206265206D6164650000 PUSH0 DUP3 ADD MSTORE POP JUMP JUMPDEST PUSH0 PUSH2 0x18D5 PUSH1 0x1E DUP4 PUSH2 0x1775 JUMP JUMPDEST SWAP2 POP PUSH2 0x18E0 DUP3 PUSH2 0x18A1 JUMP JUMPDEST PUSH1 0x20 DUP3 ADD SWAP1 POP SWAP2 SWAP1 POP JUMP JUMPDEST PUSH0 PUSH1 0x20 DUP3 ADD SWAP1 POP DUP2 DUP2 SUB PUSH0 DUP4 ADD MSTORE PUSH2 0x1902 DUP2 PUSH2 0x18C9 JUMP JUMPDEST SWAP1 POP SWAP2 SWAP1 POP JUMP JUMPDEST PUSH32 0x4E487B7100000000000000000000000000000000000000000000000000000000 PUSH0 MSTORE PUSH1 0x32 PUSH1 0x4 MSTORE PUSH1 0x24 PUSH0 REVERT JUMPDEST PUSH32 0x41756374696F6E207374696C6C206F70656E0000000000000000000000000000 PUSH0 DUP3 ADD MSTORE POP JUMP JUMPDEST PUSH0 PUSH2 0x196A PUSH1 0x12 DUP4 PUSH2 0x1775 JUMP JUMPDEST SWAP2 POP PUSH2 0x1975 DUP3 PUSH2 0x1936 JUMP JUMPDEST PUSH1 0x20 DUP3 ADD SWAP1 POP SWAP2 SWAP1 POP JUMP JUMPDEST PUSH0 PUSH1 0x20 DUP3 ADD SWAP1 POP DUP2 DUP2 SUB PUSH0 DUP4 ADD MSTORE PUSH2 0x1997 DUP2 PUSH2 0x195E JUMP JUMPDEST SWAP1 POP SWAP2 SWAP1 POP JUMP JUMPDEST PUSH32 0x5468652064656C6976657279206973206F766572647565000000000000000000 PUSH0 DUP3 ADD MSTORE POP JUMP JUMPDEST PUSH0 PUSH2 0x19D2 PUSH1 0x17 DUP4 PUSH2 0x1775 JUMP JUMPDEST SWAP2 POP PUSH2 0x19DD DUP3 PUSH2 0x199E JUMP JUMPDEST PUSH1 0x20 DUP3 ADD SWAP1 POP SWAP2 SWAP1 POP JUMP JUMPDEST PUSH0 PUSH1 0x20 DUP3 ADD SWAP1 POP DUP2 DUP2 SUB PUSH0 DUP4 ADD MSTORE PUSH2 0x19FF DUP2 PUSH2 0x19C6 JUMP JUMPDEST SWAP1 POP SWAP2 SWAP1 POP JUMP JUMPDEST PUSH32 0x4E487B7100000000000000000000000000000000000000000000000000000000 PUSH0 MSTORE PUSH1 0x11 PUSH1 0x4 MSTORE PUSH1 0x24 PUSH0 REVERT JUMPDEST PUSH0 PUSH2 0x1A3D DUP3 PUSH2 0x162A JUMP JUMPDEST SWAP2 POP PUSH2 0x1A48 DUP4 PUSH2 0x162A JUMP JUMPDEST SWAP3 POP DUP3 DUP3 ADD SWAP1 POP DUP1 DUP3 GT ISZERO PUSH2 0x1A60 JUMPI PUSH2 0x1A5F PUSH2 0x1A06 JUMP JUMPDEST JUMPDEST SWAP3 SWAP2 POP POP JUMP JUMPDEST PUSH32 0x41756374696F6E206E6F74206163746976650000000000000000000000000000 PUSH0 DUP3 ADD MSTORE POP JUMP JUMPDEST PUSH0 PUSH2 0x1A9A PUSH1 0x12 DUP4 PUSH2 0x1775 JUMP JUMPDEST SWAP2 POP PUSH2 0x1AA5 DUP3 PUSH2 0x1A66 JUMP JUMPDEST PUSH1 0x20 DUP3 ADD SWAP1 POP SWAP2 SWAP1 POP JUMP JUMPDEST PUSH0 PUSH1 0x20 DUP3 ADD SWAP1 POP DUP2 DUP2 SUB PUSH0 DUP4 ADD MSTORE PUSH2 0x1AC7 DUP2 PUSH2 0x1A8E JUMP JUMPDEST SWAP1 POP SWAP2 SWAP1 POP JUMP JUMPDEST PUSH32 0x4F757473696465206F66207468652061756374696F6E27732074696D65207261 PUSH0 DUP3 ADD MSTORE PUSH32 0x6E67650000000000000000000000000000000000000000000000000000000000 PUSH1 0x20 DUP3 ADD MSTORE POP JUMP JUMPDEST PUSH0 PUSH2 0x1B28 PUSH1 0x23 DUP4 PUSH2 0x1775 JUMP JUMPDEST SWAP2 POP PUSH2 0x1B33 DUP3 PUSH2 0x1ACE JUMP JUMPDEST PUSH1 0x40 DUP3 ADD SWAP1 POP SWAP2 SWAP1 POP JUMP JUMPDEST PUSH0 PUSH1 0x20 DUP3 ADD SWAP1 POP DUP2 DUP2 SUB PUSH0 DUP4 ADD MSTORE PUSH2 0x1B55 DUP2 PUSH2 0x1B1C JUMP JUMPDEST SWAP1 POP SWAP2 SWAP1 POP JUMP JUMPDEST PUSH32 0x54686520626964206D757374206265203E203000000000000000000000000000 PUSH0 DUP3 ADD MSTORE POP JUMP JUMPDEST PUSH0 PUSH2 0x1B90 PUSH1 0x13 DUP4 PUSH2 0x1775 JUMP JUMPDEST SWAP2 POP PUSH2 0x1B9B DUP3 PUSH2 0x1B5C JUMP JUMPDEST PUSH1 0x20 DUP3 ADD SWAP1 POP SWAP2 SWAP1 POP JUMP JUMPDEST PUSH0 PUSH1 0x20 DUP3 ADD SWAP1 POP DUP2 DUP2 SUB PUSH0 DUP4 ADD MSTORE PUSH2 0x1BBD DUP2 PUSH2 0x1B84 JUMP JUMPDEST SWAP1 POP SWAP2 SWAP1 POP JUMP JUMPDEST PUSH32 0x5468652062696420697320686967686572207468616E20746865206D6178696D PUSH0 DUP3 ADD MSTORE PUSH32 0x756D000000000000000000000000000000000000000000000000000000000000 PUSH1 0x20 DUP3 ADD MSTORE POP JUMP JUMPDEST PUSH0 PUSH2 0x1C1E PUSH1 0x22 DUP4 PUSH2 0x1775 JUMP JUMPDEST SWAP2 POP PUSH2 0x1C29 DUP3 PUSH2 0x1BC4 JUMP JUMPDEST PUSH1 0x40 DUP3 ADD SWAP1 POP SWAP2 SWAP1 POP JUMP JUMPDEST PUSH0 PUSH1 0x20 DUP3 ADD SWAP1 POP DUP2 DUP2 SUB PUSH0 DUP4 ADD MSTORE PUSH2 0x1C4B DUP2 PUSH2 0x1C12 JUMP JUMPDEST SWAP1 POP SWAP2 SWAP1 POP JUMP JUMPDEST PUSH32 0x596F75206861766520616C726561647920706172746963697061746564000000 PUSH0 DUP3 ADD MSTORE POP JUMP JUMPDEST PUSH0 PUSH2 0x1C86 PUSH1 0x1D DUP4 PUSH2 0x1775 JUMP JUMPDEST SWAP2 POP PUSH2 0x1C91 DUP3 PUSH2 0x1C52 JUMP JUMPDEST PUSH1 0x20 DUP3 ADD SWAP1 POP SWAP2 SWAP1 POP JUMP JUMPDEST PUSH0 PUSH1 0x20 DUP3 ADD SWAP1 POP DUP2 DUP2 SUB PUSH0 DUP4 ADD MSTORE PUSH2 0x1CB3 DUP2 PUSH2 0x1C7A JUMP JUMPDEST SWAP1 POP SWAP2 SWAP1 POP JUMP JUMPDEST PUSH32 0x5468652061756374696F6E20686173207265616368656420746865206D617869 PUSH0 DUP3 ADD MSTORE PUSH32 0x6D756D206E756D626572206F66207061727469636970616E7473000000000000 PUSH1 0x20 DUP3 ADD MSTORE POP JUMP JUMPDEST PUSH0 PUSH2 0x1D14 PUSH1 0x3A DUP4 PUSH2 0x1775 JUMP JUMPDEST SWAP2 POP PUSH2 0x1D1F DUP3 PUSH2 0x1CBA JUMP JUMPDEST PUSH1 0x40 DUP3 ADD SWAP1 POP SWAP2 SWAP1 POP JUMP JUMPDEST PUSH0 PUSH1 0x20 DUP3 ADD SWAP1 POP DUP2 DUP2 SUB PUSH0 DUP4 ADD MSTORE PUSH2 0x1D41 DUP2 PUSH2 0x1D08 JUMP JUMPDEST SWAP1 POP SWAP2 SWAP1 POP JUMP JUMPDEST PUSH32 0x596F752063616E6E6F7420706C616365206120626964206F6E20796F7572206F PUSH0 DUP3 ADD MSTORE PUSH32 0x776E2061756374696F6E00000000000000000000000000000000000000000000 PUSH1 0x20 DUP3 ADD MSTORE POP JUMP JUMPDEST PUSH0 PUSH2 0x1DA2 PUSH1 0x2A DUP4 PUSH2 0x1775 JUMP JUMPDEST SWAP2 POP PUSH2 0x1DAD DUP3 PUSH2 0x1D48 JUMP JUMPDEST PUSH1 0x40 DUP3 ADD SWAP1 POP SWAP2 SWAP1 POP JUMP JUMPDEST PUSH0 PUSH1 0x20 DUP3 ADD SWAP1 POP DUP2 DUP2 SUB PUSH0 DUP4 ADD MSTORE PUSH2 0x1DCF DUP2 PUSH2 0x1D96 JUMP JUMPDEST SWAP1 POP SWAP2 SWAP1 POP JUMP JUMPDEST PUSH0 PUSH2 0x1DE0 DUP3 PUSH2 0x162A JUMP JUMPDEST SWAP2 POP PUSH2 0x1DEB DUP4 PUSH2 0x162A JUMP JUMPDEST SWAP3 POP DUP3 DUP3 MUL PUSH2 0x1DF9 DUP2 PUSH2 0x162A JUMP JUMPDEST SWAP2 POP DUP3 DUP3 DIV DUP5 EQ DUP4 ISZERO OR PUSH2 0x1E10 JUMPI PUSH2 0x1E0F PUSH2 0x1A06 JUMP JUMPDEST JUMPDEST POP SWAP3 SWAP2 POP POP JUMP JUMPDEST PUSH32 0x4E487B7100000000000000000000000000000000000000000000000000000000 PUSH0 MSTORE PUSH1 0x12 PUSH1 0x4 MSTORE PUSH1 0x24 PUSH0 REVERT JUMPDEST PUSH0 PUSH2 0x1E4E DUP3 PUSH2 0x162A JUMP JUMPDEST SWAP2 POP PUSH2 0x1E59 DUP4 PUSH2 0x162A JUMP JUMPDEST SWAP3 POP DUP3 PUSH2 0x1E69 JUMPI PUSH2 0x1E68 PUSH2 0x1E17 JUMP JUMPDEST JUMPDEST DUP3 DUP3 DIV SWAP1 POP SWAP3 SWAP2 POP POP JUMP JUMPDEST PUSH32 0x546865206465706F736974206D757374206265206174206C6561737420313025 PUSH0 DUP3 ADD MSTORE PUSH32 0x206F662074686520626964000000000000000000000000000000000000000000 PUSH1 0x20 DUP3 ADD MSTORE POP JUMP JUMPDEST PUSH0 PUSH2 0x1ECE PUSH1 0x2B DUP4 PUSH2 0x1775 JUMP JUMPDEST SWAP2 POP PUSH2 0x1ED9 DUP3 PUSH2 0x1E74 JUMP JUMPDEST PUSH1 0x40 DUP3 ADD SWAP1 POP SWAP2 SWAP1 POP JUMP JUMPDEST PUSH0 PUSH1 0x20 DUP3 ADD SWAP1 POP DUP2 DUP2 SUB PUSH0 DUP4 ADD MSTORE PUSH2 0x1EFB DUP2 PUSH2 0x1EC2 JUMP JUMPDEST SWAP1 POP SWAP2 SWAP1 POP JUMP JUMPDEST PUSH32 0x41756374696F6E20636C6F736564000000000000000000000000000000000000 PUSH0 DUP3 ADD MSTORE POP JUMP JUMPDEST PUSH0 PUSH2 0x1F36 PUSH1 0xE DUP4 PUSH2 0x1775 JUMP JUMPDEST SWAP2 POP PUSH2 0x1F41 DUP3 PUSH2 0x1F02 JUMP JUMPDEST PUSH1 0x20 DUP3 ADD SWAP1 POP SWAP2 SWAP1 POP JUMP JUMPDEST PUSH0 PUSH1 0x20 DUP3 ADD SWAP1 POP DUP2 DUP2 SUB PUSH0 DUP4 ADD MSTORE PUSH2 0x1F63 DUP2 PUSH2 0x1F2A JUMP JUMPDEST SWAP1 POP SWAP2 SWAP1 POP JUMP JUMPDEST PUSH32 0x5468652061756374696F6E2063616E6E6F7420626520636C6F73656420656172 PUSH0 DUP3 ADD MSTORE PUSH32 0x6C69657200000000000000000000000000000000000000000000000000000000 PUSH1 0x20 DUP3 ADD MSTORE POP JUMP JUMPDEST PUSH0 PUSH2 0x1FC4 PUSH1 0x24 DUP4 PUSH2 0x1775 JUMP JUMPDEST SWAP2 POP PUSH2 0x1FCF DUP3 PUSH2 0x1F6A JUMP JUMPDEST PUSH1 0x40 DUP3 ADD SWAP1 POP SWAP2 SWAP1 POP JUMP JUMPDEST PUSH0 PUSH1 0x20 DUP3 ADD SWAP1 POP DUP2 DUP2 SUB PUSH0 DUP4 ADD MSTORE PUSH2 0x1FF1 DUP2 PUSH2 0x1FB8 JUMP JUMPDEST SWAP1 POP SWAP2 SWAP1 POP JUMP JUMPDEST PUSH0 PUSH1 0x40 DUP3 ADD SWAP1 POP PUSH2 0x200B PUSH0 DUP4 ADD DUP6 PUSH2 0x1633 JUMP JUMPDEST PUSH2 0x2018 PUSH1 0x20 DUP4 ADD DUP5 PUSH2 0x1633 JUMP JUMPDEST SWAP4 SWAP3 POP POP POP JUMP JUMPDEST PUSH32 0x4E6F206F66666572730000000000000000000000000000000000000000000000 PUSH0 DUP3 ADD MSTORE POP JUMP JUMPDEST PUSH0 PUSH2 0x2053 PUSH1 0x9 DUP4 PUSH2 0x1775 JUMP JUMPDEST SWAP2 POP PUSH2 0x205E DUP3 PUSH2 0x201F JUMP JUMPDEST PUSH1 0x20 DUP3 ADD SWAP1 POP SWAP2 SWAP1 POP JUMP JUMPDEST PUSH0 PUSH1 0x20 DUP3 ADD SWAP1 POP DUP2 DUP2 SUB PUSH0 DUP4 ADD MSTORE PUSH2 0x2080 DUP2 PUSH2 0x2047 JUMP JUMPDEST SWAP1 POP SWAP2 SWAP1 POP JUMP INVALID LOG2 PUSH5 0x6970667358 0x22 SLT KECCAK256 CODESIZE SIGNEXTEND 0xBE DUPN 0x5A POP 0xAE 0xEA CALLVALUE PUSH3 0xB34FF4 TSTORE 0xD9 PUSH13 0x335A00EE18D67683632A5F9DA5 0xD6 PUSH24 0x9064736F6C634300081E0033000000000000000000000000 "
				},
				"gasEstimates": {
					"creation": {
						"codeDepositCost": "1676200",
						"executionCost": "infinite",
						"totalCost": "infinite"
					},
					"external": {
						"DEPOSIT_PERCENTAGE()": "436",
						"MAX_BIDDERS()": "370",
						"auctionEnd()": "2515",
						"auctionStart()": "2514",
						"deliveryDueDate()": "2469",
						"deliveryReceived()": "infinite",
						"finalizeAuction()": "infinite",
						"getBidCount()": "2508",
						"hasAlreadyBid(address)": "infinite",
						"maxBid()": "2470",
						"notDelivered()": "infinite",
						"numBidders()": "2535",
						"owner()": "2574",
						"placeBid(uint256)": "infinite",
						"returnDeposits()": "infinite",
						"state()": "2665",
						"winner()": "2574",
						"winnerDeposit()": "2492",
						"winningPrice()": "2447"
					},
					"internal": {
						"_determineWinner()": "infinite",
						"_finalizeAuction()": "infinite"
					}
				},
				"methodIdentifiers": {
					"DEPOSIT_PERCENTAGE()": "5a84d52a",
					"MAX_BIDDERS()": "4cc4f50d",
					"auctionEnd()": "2a24f46c",
					"auctionStart()": "4f245ef7",
					"deliveryDueDate()": "d3124946",
					"deliveryReceived()": "5d7e0b51",
					"finalizeAuction()": "f77282ab",
					"getBidCount()": "28f6a48a",
					"hasAlreadyBid(address)": "235f0e46",
					"maxBid()": "74b11d8a",
					"notDelivered()": "11d72e47",
					"numBidders()": "fb4cd8e2",
					"owner()": "8da5cb5b",
					"placeBid(uint256)": "9979ef45",
					"returnDeposits()": "362e2565",
					"state()": "c19d93fb",
					"winner()": "dfbf53ae",
					"winnerDeposit()": "4e9edd1b",
					"winningPrice()": "c1f52604"
				}
			},
			"storageLayout": {
				"storage": [
					{
						"astId": 3,
						"contract": "contracts/subasta.sol:VickreyAuctionSimple",
						"label": "owner",
						"offset": 0,
						"slot": "0",
						"type": "t_address_payable"
					},
					{
						"astId": 5,
						"contract": "contracts/subasta.sol:VickreyAuctionSimple",
						"label": "auctionStart",
						"offset": 0,
						"slot": "1",
						"type": "t_uint256"
					},
					{
						"astId": 7,
						"contract": "contracts/subasta.sol:VickreyAuctionSimple",
						"label": "auctionEnd",
						"offset": 0,
						"slot": "2",
						"type": "t_uint256"
					},
					{
						"astId": 9,
						"contract": "contracts/subasta.sol:VickreyAuctionSimple",
						"label": "deliveryDueDate",
						"offset": 0,
						"slot": "3",
						"type": "t_uint256"
					},
					{
						"astId": 11,
						"contract": "contracts/subasta.sol:VickreyAuctionSimple",
						"label": "maxBid",
						"offset": 0,
						"slot": "4",
						"type": "t_uint256"
					},
					{
						"astId": 13,
						"contract": "contracts/subasta.sol:VickreyAuctionSimple",
						"label": "numBidders",
						"offset": 0,
						"slot": "5",
						"type": "t_uint256"
					},
					{
						"astId": 26,
						"contract": "contracts/subasta.sol:VickreyAuctionSimple",
						"label": "state",
						"offset": 0,
						"slot": "6",
						"type": "t_enum(AuctionState)23"
					},
					{
						"astId": 39,
						"contract": "contracts/subasta.sol:VickreyAuctionSimple",
						"label": "bids",
						"offset": 0,
						"slot": "7",
						"type": "t_array(t_struct(Bid)35_storage)dyn_storage"
					},
					{
						"astId": 42,
						"contract": "contracts/subasta.sol:VickreyAuctionSimple",
						"label": "bidders",
						"offset": 0,
						"slot": "8",
						"type": "t_array(t_address)dyn_storage"
					},
					{
						"astId": 44,
						"contract": "contracts/subasta.sol:VickreyAuctionSimple",
						"label": "winner",
						"offset": 0,
						"slot": "9",
						"type": "t_address_payable"
					},
					{
						"astId": 46,
						"contract": "contracts/subasta.sol:VickreyAuctionSimple",
						"label": "winningPrice",
						"offset": 0,
						"slot": "10",
						"type": "t_uint256"
					},
					{
						"astId": 48,
						"contract": "contracts/subasta.sol:VickreyAuctionSimple",
						"label": "winnerDeposit",
						"offset": 0,
						"slot": "11",
						"type": "t_uint256"
					}
				],
				"types": {
					"t_address": {
						"encoding": "inplace",
						"label": "address",
						"numberOfBytes": "20"
					},
					"t_address_payable": {
						"encoding": "inplace",
						"label": "address payable",
						"numberOfBytes": "20"
					},
					"t_array(t_address)dyn_storage": {
						"base": "t_address",
						"encoding": "dynamic_array",
						"label": "address[]",
						"numberOfBytes": "32"
					},
					"t_array(t_struct(Bid)35_storage)dyn_storage": {
						"base": "t_struct(Bid)35_storage",
						"encoding": "dynamic_array",
						"label": "struct VickreyAuctionSimple.Bid[]",
						"numberOfBytes": "32"
					},
					"t_bool": {
						"encoding": "inplace",
						"label": "bool",
						"numberOfBytes": "1"
					},
					"t_enum(AuctionState)23": {
						"encoding": "inplace",
						"label": "enum VickreyAuctionSimple.AuctionState",
						"numberOfBytes": "1"
					},
					"t_struct(Bid)35_storage": {
						"encoding": "inplace",
						"label": "struct VickreyAuctionSimple.Bid",
						"members": [
							{
								"astId": 28,
								"contract": "contracts/subasta.sol:VickreyAuctionSimple",
								"label": "bidder",
								"offset": 0,
								"slot": "0",
								"type": "t_address_payable"
							},
							{
								"astId": 30,
								"contract": "contracts/subasta.sol:VickreyAuctionSimple",
								"label": "amount",
								"offset": 0,
								"slot": "1",
								"type": "t_uint256"
							},
							{
								"astId": 32,
								"contract": "contracts/subasta.sol:VickreyAuctionSimple",
								"label": "timestamp",
								"offset": 0,
								"slot": "2",
								"type": "t_uint256"
							},
							{
								"astId": 34,
								"contract": "contracts/subasta.sol:VickreyAuctionSimple",
								"label": "depositReturned",
								"offset": 0,
								"slot": "3",
								"type": "t_bool"
							}
						],
						"numberOfBytes": "128"
					},
					"t_uint256": {
						"encoding": "inplace",
						"label": "uint256",
						"numberOfBytes": "32"
					}
				}
			},
			"userdoc": {
				"kind": "user",
				"methods": {},
				"version": 1
			}
		}
	}
}