{
	"contracts/subasta.sol": {
		"VickreyAuctionSimple": {
			"abi": [
				{
					"inputs": [
						{
							"internalType": "uint256",
							"name": "_startDate",
							"type": "uint256"
						},
						{
							"internalType": "uint256",
							"name": "_endDate",
							"type": "uint256"
						},
						{
							"internalType": "uint256",
							"name": "_deliveryDueDate",
							"type": "uint256"
						},
						{
							"internalType": "uint256",
							"name": "_maxBid",
							"type": "uint256"
						}
					],
					"stateMutability": "payable",
					"type": "constructor"
				},
				{
					"anonymous": false,
					"inputs": [
						{
							"indexed": true,
							"internalType": "address",
							"name": "winner",
							"type": "address"
						},
						{
							"indexed": false,
							"internalType": "uint256",
							"name": "winnerDeposit",
							"type": "uint256"
						},
						{
							"indexed": false,
							"internalType": "uint256",
							"name": "winningPrice",
							"type": "uint256"
						}
					],
					"name": "AuctionClosed",
					"type": "event"
				},
				{
					"anonymous": false,
					"inputs": [
						{
							"indexed": true,
							"internalType": "address",
							"name": "bidder",
							"type": "address"
						}
					],
					"name": "BidPlaced",
					"type": "event"
				},
				{
					"anonymous": false,
					"inputs": [
						{
							"indexed": true,
							"internalType": "address",
							"name": "bidder",
							"type": "address"
						},
						{
							"indexed": false,
							"internalType": "uint256",
							"name": "amount",
							"type": "uint256"
						}
					],
					"name": "DepositReturned",
					"type": "event"
				},
				{
					"inputs": [],
					"name": "DEPOSIT_PERCENTAGE",
					"outputs": [
						{
							"internalType": "uint256",
							"name": "",
							"type": "uint256"
						}
					],
					"stateMutability": "view",
					"type": "function"
				},
				{
					"inputs": [],
					"name": "MAX_BIDDERS",
					"outputs": [
						{
							"internalType": "uint256",
							"name": "",
							"type": "uint256"
						}
					],
					"stateMutability": "view",
					"type": "function"
				},
				{
					"inputs": [],
					"name": "auctionEnd",
					"outputs": [
						{
							"internalType": "uint256",
							"name": "",
							"type": "uint256"
						}
					],
					"stateMutability": "view",
					"type": "function"
				},
				{
					"inputs": [],
					"name": "auctionStart",
					"outputs": [
						{
							"internalType": "uint256",
							"name": "",
							"type": "uint256"
						}
					],
					"stateMutability": "view",
					"type": "function"
				},
				{
					"inputs": [
						{
							"internalType": "uint256",
							"name": "",
							"type": "uint256"
						}
					],
					"name": "bidders",
					"outputs": [
						{
							"internalType": "address",
							"name": "",
							"type": "address"
						}
					],
					"stateMutability": "view",
					"type": "function"
				},
				{
					"inputs": [
						{
							"internalType": "uint256",
							"name": "",
							"type": "uint256"
						}
					],
					"name": "bids",
					"outputs": [
						{
							"internalType": "address payable",
							"name": "bidder",
							"type": "address"
						},
						{
							"internalType": "uint256",
							"name": "amount",
							"type": "uint256"
						},
						{
							"internalType": "uint256",
							"name": "deposit",
							"type": "uint256"
						},
						{
							"internalType": "uint256",
							"name": "timestamp",
							"type": "uint256"
						},
						{
							"internalType": "bool",
							"name": "depositReturned",
							"type": "bool"
						}
					],
					"stateMutability": "view",
					"type": "function"
				},
				{
					"inputs": [],
					"name": "deliveryDueDate",
					"outputs": [
						{
							"internalType": "uint256",
							"name": "",
							"type": "uint256"
						}
					],
					"stateMutability": "view",
					"type": "function"
				},
				{
					"inputs": [],
					"name": "deliveryReceived",
					"outputs": [],
					"stateMutability": "nonpayable",
					"type": "function"
				},
				{
					"inputs": [],
					"name": "finalizeAuction",
					"outputs": [],
					"stateMutability": "nonpayable",
					"type": "function"
				},
				{
					"inputs": [],
					"name": "getBidCount",
					"outputs": [
						{
							"internalType": "uint256",
							"name": "",
							"type": "uint256"
						}
					],
					"stateMutability": "view",
					"type": "function"
				},
				{
					"inputs": [
						{
							"internalType": "address",
							"name": "bidder",
							"type": "address"
						}
					],
					"name": "hasAlreadyBid",
					"outputs": [
						{
							"internalType": "bool",
							"name": "",
							"type": "bool"
						}
					],
					"stateMutability": "view",
					"type": "function"
				},
				{
					"inputs": [],
					"name": "maxBid",
					"outputs": [
						{
							"internalType": "uint256",
							"name": "",
							"type": "uint256"
						}
					],
					"stateMutability": "view",
					"type": "function"
				},
				{
					"inputs": [],
					"name": "notDelivered",
					"outputs": [],
					"stateMutability": "nonpayable",
					"type": "function"
				},
				{
					"inputs": [],
					"name": "numBidders",
					"outputs": [
						{
							"internalType": "uint256",
							"name": "",
							"type": "uint256"
						}
					],
					"stateMutability": "view",
					"type": "function"
				},
				{
					"inputs": [],
					"name": "owner",
					"outputs": [
						{
							"internalType": "address payable",
							"name": "",
							"type": "address"
						}
					],
					"stateMutability": "view",
					"type": "function"
				},
				{
					"inputs": [
						{
							"internalType": "uint256",
							"name": "_amount",
							"type": "uint256"
						}
					],
					"name": "placeBid",
					"outputs": [],
					"stateMutability": "payable",
					"type": "function"
				},
				{
					"inputs": [],
					"name": "state",
					"outputs": [
						{
							"internalType": "enum VickreyAuctionSimple.AuctionState",
							"name": "",
							"type": "uint8"
						}
					],
					"stateMutability": "view",
					"type": "function"
				},
				{
					"inputs": [],
					"name": "winner",
					"outputs": [
						{
							"internalType": "address payable",
							"name": "",
							"type": "address"
						}
					],
					"stateMutability": "view",
					"type": "function"
				},
				{
					"inputs": [],
					"name": "winnerDeposit",
					"outputs": [
						{
							"internalType": "uint256",
							"name": "",
							"type": "uint256"
						}
					],
					"stateMutability": "view",
					"type": "function"
				},
				{
					"inputs": [],
					"name": "winningPrice",
					"outputs": [
						{
							"internalType": "uint256",
							"name": "",
							"type": "uint256"
						}
					],
					"stateMutability": "view",
					"type": "function"
				}
			],
			"devdoc": {
				"kind": "dev",
				"methods": {},
				"version": 1
			},
			"evm": {
				"assembly": "    /* \"contracts/subasta.sol\":57:5913  contract VickreyAuctionSimple {... */\n  mstore(0x40, 0x80)\n    /* \"contracts/subasta.sol\":1364:1916  constructor(... */\n  mload(0x40)\n  sub(codesize, bytecodeSize)\n  dup1\n  bytecodeSize\n  dup4\n  codecopy\n  dup2\n  dup2\n  add\n  0x40\n  mstore\n  dup2\n  add\n  swap1\n  tag_1\n  swap2\n  swap1\n  tag_2\n  jump\t// in\ntag_1:\n    /* \"contracts/subasta.sol\":1534:1541  _maxBid */\n  dup1\n    /* \"contracts/subasta.sol\":1521:1530  msg.value */\n  callvalue\n    /* \"contracts/subasta.sol\":1521:1541  msg.value >= _maxBid */\n  lt\n  iszero\n    /* \"contracts/subasta.sol\":1513:1604  require(msg.value >= _maxBid, \"You have to deposit the amount of the maximum possible bid\") */\n  tag_5\n  jumpi\n  mload(0x40)\n  0x08c379a000000000000000000000000000000000000000000000000000000000\n  dup2\n  mstore\n  0x04\n  add\n  tag_6\n  swap1\n  tag_7\n  jump\t// in\ntag_6:\n  mload(0x40)\n  dup1\n  swap2\n  sub\n  swap1\n  revert\ntag_5:\n    /* \"contracts/subasta.sol\":1635:1643  _endDate */\n  dup3\n    /* \"contracts/subasta.sol\":1622:1632  _startDate */\n  dup5\n    /* \"contracts/subasta.sol\":1622:1643  _startDate < _endDate */\n  lt\n    /* \"contracts/subasta.sol\":1622:1674  _startDate < _endDate && _endDate < _deliveryDueDate */\n  dup1\n  iszero\n  tag_8\n  jumpi\n  pop\n    /* \"contracts/subasta.sol\":1658:1674  _deliveryDueDate */\n  dup2\n    /* \"contracts/subasta.sol\":1647:1655  _endDate */\n  dup4\n    /* \"contracts/subasta.sol\":1647:1674  _endDate < _deliveryDueDate */\n  lt\n    /* \"contracts/subasta.sol\":1622:1674  _startDate < _endDate && _endDate < _deliveryDueDate */\ntag_8:\n    /* \"contracts/subasta.sol\":1614:1700  require(_startDate < _endDate && _endDate < _deliveryDueDate, \"Invalid auction dates\") */\n  tag_9\n  jumpi\n  mload(0x40)\n  0x08c379a000000000000000000000000000000000000000000000000000000000\n  dup2\n  mstore\n  0x04\n  add\n  tag_10\n  swap1\n  tag_11\n  jump\t// in\ntag_10:\n  mload(0x40)\n  dup1\n  swap2\n  sub\n  swap1\n  revert\ntag_9:\n    /* \"contracts/subasta.sol\":1727:1737  msg.sender */\n  caller\n    /* \"contracts/subasta.sol\":1711:1716  owner */\n  0x00\n  0x00\n    /* \"contracts/subasta.sol\":1711:1738  owner = payable(msg.sender) */\n  0x0100\n  exp\n  dup2\n  sload\n  dup2\n  0xffffffffffffffffffffffffffffffffffffffff\n  mul\n  not\n  and\n  swap1\n  dup4\n  0xffffffffffffffffffffffffffffffffffffffff\n  and\n  mul\n  or\n  swap1\n  sstore\n  pop\n    /* \"contracts/subasta.sol\":1763:1773  _startDate */\n  dup4\n    /* \"contracts/subasta.sol\":1748:1760  auctionStart */\n  0x01\n    /* \"contracts/subasta.sol\":1748:1773  auctionStart = _startDate */\n  dup2\n  swap1\n  sstore\n  pop\n    /* \"contracts/subasta.sol\":1796:1804  _endDate */\n  dup3\n    /* \"contracts/subasta.sol\":1783:1793  auctionEnd */\n  0x02\n    /* \"contracts/subasta.sol\":1783:1804  auctionEnd = _endDate */\n  dup2\n  swap1\n  sstore\n  pop\n    /* \"contracts/subasta.sol\":1832:1848  _deliveryDueDate */\n  dup2\n    /* \"contracts/subasta.sol\":1814:1829  deliveryDueDate */\n  0x03\n    /* \"contracts/subasta.sol\":1814:1848  deliveryDueDate = _deliveryDueDate */\n  dup2\n  swap1\n  sstore\n  pop\n    /* \"contracts/subasta.sol\":1867:1874  _maxBid */\n  dup1\n    /* \"contracts/subasta.sol\":1858:1864  maxBid */\n  0x04\n    /* \"contracts/subasta.sol\":1858:1874  maxBid = _maxBid */\n  dup2\n  swap1\n  sstore\n  pop\n    /* \"contracts/subasta.sol\":1892:1909  AuctionState.Open */\n  0x00\n    /* \"contracts/subasta.sol\":1884:1889  state */\n  0x06\n  0x00\n    /* \"contracts/subasta.sol\":1884:1909  state = AuctionState.Open */\n  0x0100\n  exp\n  dup2\n  sload\n  dup2\n  0xff\n  mul\n  not\n  and\n  swap1\n  dup4\n  0x02\n  dup2\n  gt\n  iszero\n  tag_12\n  jumpi\n  tag_13\n  tag_14\n  jump\t// in\ntag_13:\ntag_12:\n  mul\n  or\n  swap1\n  sstore\n  pop\n    /* \"contracts/subasta.sol\":1364:1916  constructor(... */\n  pop\n  pop\n  pop\n  pop\n    /* \"contracts/subasta.sol\":57:5913  contract VickreyAuctionSimple {... */\n  jump(tag_15)\n    /* \"#utility.yul\":88:205   */\ntag_17:\n    /* \"#utility.yul\":197:198   */\n  0x00\n    /* \"#utility.yul\":194:195   */\n  0x00\n    /* \"#utility.yul\":187:199   */\n  revert\n    /* \"#utility.yul\":334:411   */\ntag_19:\n    /* \"#utility.yul\":371:378   */\n  0x00\n    /* \"#utility.yul\":400:405   */\n  dup2\n    /* \"#utility.yul\":389:405   */\n  swap1\n  pop\n    /* \"#utility.yul\":334:411   */\n  swap2\n  swap1\n  pop\n  jump\t// out\n    /* \"#utility.yul\":417:539   */\ntag_20:\n    /* \"#utility.yul\":490:514   */\n  tag_33\n    /* \"#utility.yul\":508:513   */\n  dup2\n    /* \"#utility.yul\":490:514   */\n  tag_19\n  jump\t// in\ntag_33:\n    /* \"#utility.yul\":483:488   */\n  dup2\n    /* \"#utility.yul\":480:515   */\n  eq\n    /* \"#utility.yul\":470:533   */\n  tag_34\n  jumpi\n    /* \"#utility.yul\":529:530   */\n  0x00\n    /* \"#utility.yul\":526:527   */\n  0x00\n    /* \"#utility.yul\":519:531   */\n  revert\n    /* \"#utility.yul\":470:533   */\ntag_34:\n    /* \"#utility.yul\":417:539   */\n  pop\n  jump\t// out\n    /* \"#utility.yul\":545:688   */\ntag_21:\n    /* \"#utility.yul\":602:607   */\n  0x00\n    /* \"#utility.yul\":633:639   */\n  dup2\n    /* \"#utility.yul\":627:640   */\n  mload\n    /* \"#utility.yul\":618:640   */\n  swap1\n  pop\n    /* \"#utility.yul\":649:682   */\n  tag_36\n    /* \"#utility.yul\":676:681   */\n  dup2\n    /* \"#utility.yul\":649:682   */\n  tag_20\n  jump\t// in\ntag_36:\n    /* \"#utility.yul\":545:688   */\n  swap3\n  swap2\n  pop\n  pop\n  jump\t// out\n    /* \"#utility.yul\":694:1514   */\ntag_2:\n    /* \"#utility.yul\":791:797   */\n  0x00\n    /* \"#utility.yul\":799:805   */\n  0x00\n    /* \"#utility.yul\":807:813   */\n  0x00\n    /* \"#utility.yul\":815:821   */\n  0x00\n    /* \"#utility.yul\":864:867   */\n  0x80\n    /* \"#utility.yul\":852:861   */\n  dup6\n    /* \"#utility.yul\":843:850   */\n  dup8\n    /* \"#utility.yul\":839:862   */\n  sub\n    /* \"#utility.yul\":835:868   */\n  slt\n    /* \"#utility.yul\":832:952   */\n  iszero\n  tag_38\n  jumpi\n    /* \"#utility.yul\":871:950   */\n  tag_39\n  tag_17\n  jump\t// in\ntag_39:\n    /* \"#utility.yul\":832:952   */\ntag_38:\n    /* \"#utility.yul\":991:992   */\n  0x00\n    /* \"#utility.yul\":1016:1080   */\n  tag_40\n    /* \"#utility.yul\":1072:1079   */\n  dup8\n    /* \"#utility.yul\":1063:1069   */\n  dup3\n    /* \"#utility.yul\":1052:1061   */\n  dup9\n    /* \"#utility.yul\":1048:1070   */\n  add\n    /* \"#utility.yul\":1016:1080   */\n  tag_21\n  jump\t// in\ntag_40:\n    /* \"#utility.yul\":1006:1080   */\n  swap5\n  pop\n    /* \"#utility.yul\":962:1090   */\n  pop\n    /* \"#utility.yul\":1129:1131   */\n  0x20\n    /* \"#utility.yul\":1155:1219   */\n  tag_41\n    /* \"#utility.yul\":1211:1218   */\n  dup8\n    /* \"#utility.yul\":1202:1208   */\n  dup3\n    /* \"#utility.yul\":1191:1200   */\n  dup9\n    /* \"#utility.yul\":1187:1209   */\n  add\n    /* \"#utility.yul\":1155:1219   */\n  tag_21\n  jump\t// in\ntag_41:\n    /* \"#utility.yul\":1145:1219   */\n  swap4\n  pop\n    /* \"#utility.yul\":1100:1229   */\n  pop\n    /* \"#utility.yul\":1268:1270   */\n  0x40\n    /* \"#utility.yul\":1294:1358   */\n  tag_42\n    /* \"#utility.yul\":1350:1357   */\n  dup8\n    /* \"#utility.yul\":1341:1347   */\n  dup3\n    /* \"#utility.yul\":1330:1339   */\n  dup9\n    /* \"#utility.yul\":1326:1348   */\n  add\n    /* \"#utility.yul\":1294:1358   */\n  tag_21\n  jump\t// in\ntag_42:\n    /* \"#utility.yul\":1284:1358   */\n  swap3\n  pop\n    /* \"#utility.yul\":1239:1368   */\n  pop\n    /* \"#utility.yul\":1407:1409   */\n  0x60\n    /* \"#utility.yul\":1433:1497   */\n  tag_43\n    /* \"#utility.yul\":1489:1496   */\n  dup8\n    /* \"#utility.yul\":1480:1486   */\n  dup3\n    /* \"#utility.yul\":1469:1478   */\n  dup9\n    /* \"#utility.yul\":1465:1487   */\n  add\n    /* \"#utility.yul\":1433:1497   */\n  tag_21\n  jump\t// in\ntag_43:\n    /* \"#utility.yul\":1423:1497   */\n  swap2\n  pop\n    /* \"#utility.yul\":1378:1507   */\n  pop\n    /* \"#utility.yul\":694:1514   */\n  swap3\n  swap6\n  swap2\n  swap5\n  pop\n  swap3\n  pop\n  jump\t// out\n    /* \"#utility.yul\":1520:1689   */\ntag_22:\n    /* \"#utility.yul\":1604:1615   */\n  0x00\n    /* \"#utility.yul\":1638:1644   */\n  dup3\n    /* \"#utility.yul\":1633:1636   */\n  dup3\n    /* \"#utility.yul\":1626:1645   */\n  mstore\n    /* \"#utility.yul\":1678:1682   */\n  0x20\n    /* \"#utility.yul\":1673:1676   */\n  dup3\n    /* \"#utility.yul\":1669:1683   */\n  add\n    /* \"#utility.yul\":1654:1683   */\n  swap1\n  pop\n    /* \"#utility.yul\":1520:1689   */\n  swap3\n  swap2\n  pop\n  pop\n  jump\t// out\n    /* \"#utility.yul\":1695:1940   */\ntag_23:\n    /* \"#utility.yul\":1835:1869   */\n  0x596f75206861766520746f206465706f7369742074686520616d6f756e74206f\n    /* \"#utility.yul\":1831:1832   */\n  0x00\n    /* \"#utility.yul\":1823:1829   */\n  dup3\n    /* \"#utility.yul\":1819:1833   */\n  add\n    /* \"#utility.yul\":1812:1870   */\n  mstore\n    /* \"#utility.yul\":1904:1932   */\n  0x6620746865206d6178696d756d20706f737369626c6520626964000000000000\n    /* \"#utility.yul\":1899:1901   */\n  0x20\n    /* \"#utility.yul\":1891:1897   */\n  dup3\n    /* \"#utility.yul\":1887:1902   */\n  add\n    /* \"#utility.yul\":1880:1933   */\n  mstore\n    /* \"#utility.yul\":1695:1940   */\n  pop\n  jump\t// out\n    /* \"#utility.yul\":1946:2312   */\ntag_24:\n    /* \"#utility.yul\":2088:2091   */\n  0x00\n    /* \"#utility.yul\":2109:2176   */\n  tag_47\n    /* \"#utility.yul\":2173:2175   */\n  0x3a\n    /* \"#utility.yul\":2168:2171   */\n  dup4\n    /* \"#utility.yul\":2109:2176   */\n  tag_22\n  jump\t// in\ntag_47:\n    /* \"#utility.yul\":2102:2176   */\n  swap2\n  pop\n    /* \"#utility.yul\":2185:2278   */\n  tag_48\n    /* \"#utility.yul\":2274:2277   */\n  dup3\n    /* \"#utility.yul\":2185:2278   */\n  tag_23\n  jump\t// in\ntag_48:\n    /* \"#utility.yul\":2303:2305   */\n  0x40\n    /* \"#utility.yul\":2298:2301   */\n  dup3\n    /* \"#utility.yul\":2294:2306   */\n  add\n    /* \"#utility.yul\":2287:2306   */\n  swap1\n  pop\n    /* \"#utility.yul\":1946:2312   */\n  swap2\n  swap1\n  pop\n  jump\t// out\n    /* \"#utility.yul\":2318:2737   */\ntag_7:\n    /* \"#utility.yul\":2484:2488   */\n  0x00\n    /* \"#utility.yul\":2522:2524   */\n  0x20\n    /* \"#utility.yul\":2511:2520   */\n  dup3\n    /* \"#utility.yul\":2507:2525   */\n  add\n    /* \"#utility.yul\":2499:2525   */\n  swap1\n  pop\n    /* \"#utility.yul\":2571:2580   */\n  dup2\n    /* \"#utility.yul\":2565:2569   */\n  dup2\n    /* \"#utility.yul\":2561:2581   */\n  sub\n    /* \"#utility.yul\":2557:2558   */\n  0x00\n    /* \"#utility.yul\":2546:2555   */\n  dup4\n    /* \"#utility.yul\":2542:2559   */\n  add\n    /* \"#utility.yul\":2535:2582   */\n  mstore\n    /* \"#utility.yul\":2599:2730   */\n  tag_50\n    /* \"#utility.yul\":2725:2729   */\n  dup2\n    /* \"#utility.yul\":2599:2730   */\n  tag_24\n  jump\t// in\ntag_50:\n    /* \"#utility.yul\":2591:2730   */\n  swap1\n  pop\n    /* \"#utility.yul\":2318:2737   */\n  swap2\n  swap1\n  pop\n  jump\t// out\n    /* \"#utility.yul\":2743:2914   */\ntag_25:\n    /* \"#utility.yul\":2883:2906   */\n  0x496e76616c69642061756374696f6e2064617465730000000000000000000000\n    /* \"#utility.yul\":2879:2880   */\n  0x00\n    /* \"#utility.yul\":2871:2877   */\n  dup3\n    /* \"#utility.yul\":2867:2881   */\n  add\n    /* \"#utility.yul\":2860:2907   */\n  mstore\n    /* \"#utility.yul\":2743:2914   */\n  pop\n  jump\t// out\n    /* \"#utility.yul\":2920:3286   */\ntag_26:\n    /* \"#utility.yul\":3062:3065   */\n  0x00\n    /* \"#utility.yul\":3083:3150   */\n  tag_53\n    /* \"#utility.yul\":3147:3149   */\n  0x15\n    /* \"#utility.yul\":3142:3145   */\n  dup4\n    /* \"#utility.yul\":3083:3150   */\n  tag_22\n  jump\t// in\ntag_53:\n    /* \"#utility.yul\":3076:3150   */\n  swap2\n  pop\n    /* \"#utility.yul\":3159:3252   */\n  tag_54\n    /* \"#utility.yul\":3248:3251   */\n  dup3\n    /* \"#utility.yul\":3159:3252   */\n  tag_25\n  jump\t// in\ntag_54:\n    /* \"#utility.yul\":3277:3279   */\n  0x20\n    /* \"#utility.yul\":3272:3275   */\n  dup3\n    /* \"#utility.yul\":3268:3280   */\n  add\n    /* \"#utility.yul\":3261:3280   */\n  swap1\n  pop\n    /* \"#utility.yul\":2920:3286   */\n  swap2\n  swap1\n  pop\n  jump\t// out\n    /* \"#utility.yul\":3292:3711   */\ntag_11:\n    /* \"#utility.yul\":3458:3462   */\n  0x00\n    /* \"#utility.yul\":3496:3498   */\n  0x20\n    /* \"#utility.yul\":3485:3494   */\n  dup3\n    /* \"#utility.yul\":3481:3499   */\n  add\n    /* \"#utility.yul\":3473:3499   */\n  swap1\n  pop\n    /* \"#utility.yul\":3545:3554   */\n  dup2\n    /* \"#utility.yul\":3539:3543   */\n  dup2\n    /* \"#utility.yul\":3535:3555   */\n  sub\n    /* \"#utility.yul\":3531:3532   */\n  0x00\n    /* \"#utility.yul\":3520:3529   */\n  dup4\n    /* \"#utility.yul\":3516:3533   */\n  add\n    /* \"#utility.yul\":3509:3556   */\n  mstore\n    /* \"#utility.yul\":3573:3704   */\n  tag_56\n    /* \"#utility.yul\":3699:3703   */\n  dup2\n    /* \"#utility.yul\":3573:3704   */\n  tag_26\n  jump\t// in\ntag_56:\n    /* \"#utility.yul\":3565:3704   */\n  swap1\n  pop\n    /* \"#utility.yul\":3292:3711   */\n  swap2\n  swap1\n  pop\n  jump\t// out\n    /* \"#utility.yul\":3717:3897   */\ntag_14:\n    /* \"#utility.yul\":3765:3842   */\n  0x4e487b7100000000000000000000000000000000000000000000000000000000\n    /* \"#utility.yul\":3762:3763   */\n  0x00\n    /* \"#utility.yul\":3755:3843   */\n  mstore\n    /* \"#utility.yul\":3862:3866   */\n  0x21\n    /* \"#utility.yul\":3859:3860   */\n  0x04\n    /* \"#utility.yul\":3852:3867   */\n  mstore\n    /* \"#utility.yul\":3886:3890   */\n  0x24\n    /* \"#utility.yul\":3883:3884   */\n  0x00\n    /* \"#utility.yul\":3876:3891   */\n  revert\n    /* \"contracts/subasta.sol\":57:5913  contract VickreyAuctionSimple {... */\ntag_15:\n  dataSize(sub_0)\n  dup1\n  dataOffset(sub_0)\n  0x00\n  codecopy\n  0x00\n  return\nstop\n\nsub_0: assembly {\n        /* \"contracts/subasta.sol\":57:5913  contract VickreyAuctionSimple {... */\n      mstore(0x40, 0x80)\n      jumpi(tag_1, lt(calldatasize, 0x04))\n      shr(0xe0, calldataload(0x00))\n      dup1\n      0x74b11d8a\n      gt\n      tag_22\n      jumpi\n      dup1\n      0xcff29dfd\n      gt\n      tag_23\n      jumpi\n      dup1\n      0xcff29dfd\n      eq\n      tag_17\n      jumpi\n      dup1\n      0xd3124946\n      eq\n      tag_18\n      jumpi\n      dup1\n      0xdfbf53ae\n      eq\n      tag_19\n      jumpi\n      dup1\n      0xf77282ab\n      eq\n      tag_20\n      jumpi\n      dup1\n      0xfb4cd8e2\n      eq\n      tag_21\n      jumpi\n      jump(tag_1)\n    tag_23:\n      dup1\n      0x74b11d8a\n      eq\n      tag_12\n      jumpi\n      dup1\n      0x8da5cb5b\n      eq\n      tag_13\n      jumpi\n      dup1\n      0x9979ef45\n      eq\n      tag_14\n      jumpi\n      dup1\n      0xc19d93fb\n      eq\n      tag_15\n      jumpi\n      dup1\n      0xc1f52604\n      eq\n      tag_16\n      jumpi\n      jump(tag_1)\n    tag_22:\n      dup1\n      0x4cc4f50d\n      gt\n      tag_24\n      jumpi\n      dup1\n      0x4cc4f50d\n      eq\n      tag_7\n      jumpi\n      dup1\n      0x4e9edd1b\n      eq\n      tag_8\n      jumpi\n      dup1\n      0x4f245ef7\n      eq\n      tag_9\n      jumpi\n      dup1\n      0x5a84d52a\n      eq\n      tag_10\n      jumpi\n      dup1\n      0x5d7e0b51\n      eq\n      tag_11\n      jumpi\n      jump(tag_1)\n    tag_24:\n      dup1\n      0x11d72e47\n      eq\n      tag_2\n      jumpi\n      dup1\n      0x235f0e46\n      eq\n      tag_3\n      jumpi\n      dup1\n      0x28f6a48a\n      eq\n      tag_4\n      jumpi\n      dup1\n      0x2a24f46c\n      eq\n      tag_5\n      jumpi\n      dup1\n      0x4423c5f1\n      eq\n      tag_6\n      jumpi\n    tag_1:\n      revert(0x00, 0x00)\n        /* \"contracts/subasta.sol\":5619:5910  function notDelivered() public onlyOwner {... */\n    tag_2:\n      callvalue\n      dup1\n      iszero\n      tag_25\n      jumpi\n      revert(0x00, 0x00)\n    tag_25:\n      pop\n      tag_26\n      tag_27\n      jump\t// in\n    tag_26:\n      stop\n        /* \"contracts/subasta.sol\":4880:5091  function hasAlreadyBid(address bidder) public view returns (bool) {... */\n    tag_3:\n      callvalue\n      dup1\n      iszero\n      tag_28\n      jumpi\n      revert(0x00, 0x00)\n    tag_28:\n      pop\n      tag_29\n      0x04\n      dup1\n      calldatasize\n      sub\n      dup2\n      add\n      swap1\n      tag_30\n      swap2\n      swap1\n      tag_31\n      jump\t// in\n    tag_30:\n      tag_32\n      jump\t// in\n    tag_29:\n      mload(0x40)\n      tag_33\n      swap2\n      swap1\n      tag_34\n      jump\t// in\n    tag_33:\n      mload(0x40)\n      dup1\n      swap2\n      sub\n      swap1\n      return\n        /* \"contracts/subasta.sol\":5098:5186  function getBidCount() public view returns (uint256) {... */\n    tag_4:\n      callvalue\n      dup1\n      iszero\n      tag_35\n      jumpi\n      revert(0x00, 0x00)\n    tag_35:\n      pop\n      tag_36\n      tag_37\n      jump\t// in\n    tag_36:\n      mload(0x40)\n      tag_38\n      swap2\n      swap1\n      tag_39\n      jump\t// in\n    tag_38:\n      mload(0x40)\n      dup1\n      swap2\n      sub\n      swap1\n      return\n        /* \"contracts/subasta.sol\":160:185  uint256 public auctionEnd */\n    tag_5:\n      callvalue\n      dup1\n      iszero\n      tag_40\n      jumpi\n      revert(0x00, 0x00)\n    tag_40:\n      pop\n      tag_41\n      tag_42\n      jump\t// in\n    tag_41:\n      mload(0x40)\n      tag_43\n      swap2\n      swap1\n      tag_39\n      jump\t// in\n    tag_43:\n      mload(0x40)\n      dup1\n      swap2\n      sub\n      swap1\n      return\n        /* \"contracts/subasta.sol\":637:654  Bid[] public bids */\n    tag_6:\n      callvalue\n      dup1\n      iszero\n      tag_44\n      jumpi\n      revert(0x00, 0x00)\n    tag_44:\n      pop\n      tag_45\n      0x04\n      dup1\n      calldatasize\n      sub\n      dup2\n      add\n      swap1\n      tag_46\n      swap2\n      swap1\n      tag_47\n      jump\t// in\n    tag_46:\n      tag_48\n      jump\t// in\n    tag_45:\n      mload(0x40)\n      tag_49\n      swap6\n      swap5\n      swap4\n      swap3\n      swap2\n      swap1\n      tag_50\n      jump\t// in\n    tag_49:\n      mload(0x40)\n      dup1\n      swap2\n      sub\n      swap1\n      return\n        /* \"contracts/subasta.sol\":285:325  uint256 public constant MAX_BIDDERS = 30 */\n    tag_7:\n      callvalue\n      dup1\n      iszero\n      tag_51\n      jumpi\n      revert(0x00, 0x00)\n    tag_51:\n      pop\n      tag_52\n      tag_53\n      jump\t// in\n    tag_52:\n      mload(0x40)\n      tag_54\n      swap2\n      swap1\n      tag_39\n      jump\t// in\n    tag_54:\n      mload(0x40)\n      dup1\n      swap2\n      sub\n      swap1\n      return\n        /* \"contracts/subasta.sol\":758:786  uint256 public winnerDeposit */\n    tag_8:\n      callvalue\n      dup1\n      iszero\n      tag_55\n      jumpi\n      revert(0x00, 0x00)\n    tag_55:\n      pop\n      tag_56\n      tag_57\n      jump\t// in\n    tag_56:\n      mload(0x40)\n      tag_58\n      swap2\n      swap1\n      tag_39\n      jump\t// in\n    tag_58:\n      mload(0x40)\n      dup1\n      swap2\n      sub\n      swap1\n      return\n        /* \"contracts/subasta.sol\":127:154  uint256 public auctionStart */\n    tag_9:\n      callvalue\n      dup1\n      iszero\n      tag_59\n      jumpi\n      revert(0x00, 0x00)\n    tag_59:\n      pop\n      tag_60\n      tag_61\n      jump\t// in\n    tag_60:\n      mload(0x40)\n      tag_62\n      swap2\n      swap1\n      tag_39\n      jump\t// in\n    tag_62:\n      mload(0x40)\n      dup1\n      swap2\n      sub\n      swap1\n      return\n        /* \"contracts/subasta.sol\":331:378  uint256 public constant DEPOSIT_PERCENTAGE = 10 */\n    tag_10:\n      callvalue\n      dup1\n      iszero\n      tag_63\n      jumpi\n      revert(0x00, 0x00)\n    tag_63:\n      pop\n      tag_64\n      tag_65\n      jump\t// in\n    tag_64:\n      mload(0x40)\n      tag_66\n      swap2\n      swap1\n      tag_39\n      jump\t// in\n    tag_66:\n      mload(0x40)\n      dup1\n      swap2\n      sub\n      swap1\n      return\n        /* \"contracts/subasta.sol\":5214:5558  function deliveryReceived() public onlyOwner {... */\n    tag_11:\n      callvalue\n      dup1\n      iszero\n      tag_67\n      jumpi\n      revert(0x00, 0x00)\n    tag_67:\n      pop\n      tag_68\n      tag_69\n      jump\t// in\n    tag_68:\n      stop\n        /* \"contracts/subasta.sol\":227:248  uint256 public maxBid */\n    tag_12:\n      callvalue\n      dup1\n      iszero\n      tag_70\n      jumpi\n      revert(0x00, 0x00)\n    tag_70:\n      pop\n      tag_71\n      tag_72\n      jump\t// in\n    tag_71:\n      mload(0x40)\n      tag_73\n      swap2\n      swap1\n      tag_39\n      jump\t// in\n    tag_73:\n      mload(0x40)\n      dup1\n      swap2\n      sub\n      swap1\n      return\n        /* \"contracts/subasta.sol\":93:121  address payable public owner */\n    tag_13:\n      callvalue\n      dup1\n      iszero\n      tag_74\n      jumpi\n      revert(0x00, 0x00)\n    tag_74:\n      pop\n      tag_75\n      tag_76\n      jump\t// in\n    tag_75:\n      mload(0x40)\n      tag_77\n      swap2\n      swap1\n      tag_78\n      jump\t// in\n    tag_77:\n      mload(0x40)\n      dup1\n      swap2\n      sub\n      swap1\n      return\n        /* \"contracts/subasta.sol\":1923:2760  function placeBid(uint256 _amount) external payable auctionOpen {... */\n    tag_14:\n      tag_79\n      0x04\n      dup1\n      calldatasize\n      sub\n      dup2\n      add\n      swap1\n      tag_80\n      swap2\n      swap1\n      tag_47\n      jump\t// in\n    tag_80:\n      tag_81\n      jump\t// in\n    tag_79:\n      stop\n        /* \"contracts/subasta.sol\":439:464  AuctionState public state */\n    tag_15:\n      callvalue\n      dup1\n      iszero\n      tag_82\n      jumpi\n      revert(0x00, 0x00)\n    tag_82:\n      pop\n      tag_83\n      tag_84\n      jump\t// in\n    tag_83:\n      mload(0x40)\n      tag_85\n      swap2\n      swap1\n      tag_86\n      jump\t// in\n    tag_85:\n      mload(0x40)\n      dup1\n      swap2\n      sub\n      swap1\n      return\n        /* \"contracts/subasta.sol\":725:752  uint256 public winningPrice */\n    tag_16:\n      callvalue\n      dup1\n      iszero\n      tag_87\n      jumpi\n      revert(0x00, 0x00)\n    tag_87:\n      pop\n      tag_88\n      tag_89\n      jump\t// in\n    tag_88:\n      mload(0x40)\n      tag_90\n      swap2\n      swap1\n      tag_39\n      jump\t// in\n    tag_90:\n      mload(0x40)\n      dup1\n      swap2\n      sub\n      swap1\n      return\n        /* \"contracts/subasta.sol\":660:684  address[] public bidders */\n    tag_17:\n      callvalue\n      dup1\n      iszero\n      tag_91\n      jumpi\n      revert(0x00, 0x00)\n    tag_91:\n      pop\n      tag_92\n      0x04\n      dup1\n      calldatasize\n      sub\n      dup2\n      add\n      swap1\n      tag_93\n      swap2\n      swap1\n      tag_47\n      jump\t// in\n    tag_93:\n      tag_94\n      jump\t// in\n    tag_92:\n      mload(0x40)\n      tag_95\n      swap2\n      swap1\n      tag_96\n      jump\t// in\n    tag_95:\n      mload(0x40)\n      dup1\n      swap2\n      sub\n      swap1\n      return\n        /* \"contracts/subasta.sol\":191:221  uint256 public deliveryDueDate */\n    tag_18:\n      callvalue\n      dup1\n      iszero\n      tag_97\n      jumpi\n      revert(0x00, 0x00)\n    tag_97:\n      pop\n      tag_98\n      tag_99\n      jump\t// in\n    tag_98:\n      mload(0x40)\n      tag_100\n      swap2\n      swap1\n      tag_39\n      jump\t// in\n    tag_100:\n      mload(0x40)\n      dup1\n      swap2\n      sub\n      swap1\n      return\n        /* \"contracts/subasta.sol\":690:719  address payable public winner */\n    tag_19:\n      callvalue\n      dup1\n      iszero\n      tag_101\n      jumpi\n      revert(0x00, 0x00)\n    tag_101:\n      pop\n      tag_102\n      tag_103\n      jump\t// in\n    tag_102:\n      mload(0x40)\n      tag_104\n      swap2\n      swap1\n      tag_78\n      jump\t// in\n    tag_104:\n      mload(0x40)\n      dup1\n      swap2\n      sub\n      swap1\n      return\n        /* \"contracts/subasta.sol\":2766:3027  function finalizeAuction() external onlyOwner {... */\n    tag_20:\n      callvalue\n      dup1\n      iszero\n      tag_105\n      jumpi\n      revert(0x00, 0x00)\n    tag_105:\n      pop\n      tag_106\n      tag_107\n      jump\t// in\n    tag_106:\n      stop\n        /* \"contracts/subasta.sol\":254:279  uint256 public numBidders */\n    tag_21:\n      callvalue\n      dup1\n      iszero\n      tag_108\n      jumpi\n      revert(0x00, 0x00)\n    tag_108:\n      pop\n      tag_109\n      tag_110\n      jump\t// in\n    tag_109:\n      mload(0x40)\n      tag_111\n      swap2\n      swap1\n      tag_39\n      jump\t// in\n    tag_111:\n      mload(0x40)\n      dup1\n      swap2\n      sub\n      swap1\n      return\n        /* \"contracts/subasta.sol\":5619:5910  function notDelivered() public onlyOwner {... */\n    tag_27:\n        /* \"contracts/subasta.sol\":1057:1062  owner */\n      0x00\n      0x00\n      swap1\n      sload\n      swap1\n      0x0100\n      exp\n      swap1\n      div\n      0xffffffffffffffffffffffffffffffffffffffff\n      and\n        /* \"contracts/subasta.sol\":1043:1062  msg.sender == owner */\n      0xffffffffffffffffffffffffffffffffffffffff\n      and\n        /* \"contracts/subasta.sol\":1043:1053  msg.sender */\n      caller\n        /* \"contracts/subasta.sol\":1043:1062  msg.sender == owner */\n      0xffffffffffffffffffffffffffffffffffffffff\n      and\n      eq\n        /* \"contracts/subasta.sol\":1035:1104  require(msg.sender == owner, \"Only the owner can call this function\") */\n      tag_113\n      jumpi\n      mload(0x40)\n      0x08c379a000000000000000000000000000000000000000000000000000000000\n      dup2\n      mstore\n      0x04\n      add\n      tag_114\n      swap1\n      tag_115\n      jump\t// in\n    tag_114:\n      mload(0x40)\n      dup1\n      swap2\n      sub\n      swap1\n      revert\n    tag_113:\n        /* \"contracts/subasta.sol\":5687:5709  AuctionState.Completed */\n      0x02\n        /* \"contracts/subasta.sol\":5678:5709  state == AuctionState.Completed */\n      dup1\n      dup2\n      gt\n      iszero\n      tag_117\n      jumpi\n      tag_118\n      tag_119\n      jump\t// in\n    tag_118:\n    tag_117:\n        /* \"contracts/subasta.sol\":5678:5683  state */\n      0x06\n      0x00\n      swap1\n      sload\n      swap1\n      0x0100\n      exp\n      swap1\n      div\n      0xff\n      and\n        /* \"contracts/subasta.sol\":5678:5709  state == AuctionState.Completed */\n      0x02\n      dup2\n      gt\n      iszero\n      tag_120\n      jumpi\n      tag_121\n      tag_119\n      jump\t// in\n    tag_121:\n    tag_120:\n      eq\n        /* \"contracts/subasta.sol\":5670:5769  require(state == AuctionState.Completed, \"Auction still open or didn't paid back the deposits yet\") */\n      tag_122\n      jumpi\n      mload(0x40)\n      0x08c379a000000000000000000000000000000000000000000000000000000000\n      dup2\n      mstore\n      0x04\n      add\n      tag_123\n      swap1\n      tag_124\n      jump\t// in\n    tag_123:\n      mload(0x40)\n      dup1\n      swap2\n      sub\n      swap1\n      revert\n    tag_122:\n        /* \"contracts/subasta.sol\":5805:5820  deliveryDueDate */\n      sload(0x03)\n        /* \"contracts/subasta.sol\":5787:5802  block.timestamp */\n      timestamp\n        /* \"contracts/subasta.sol\":5787:5820  block.timestamp > deliveryDueDate */\n      gt\n        /* \"contracts/subasta.sol\":5779:5855  require(block.timestamp > deliveryDueDate, \"The delivery can still be made\") */\n      tag_125\n      jumpi\n      mload(0x40)\n      0x08c379a000000000000000000000000000000000000000000000000000000000\n      dup2\n      mstore\n      0x04\n      add\n      tag_126\n      swap1\n      tag_127\n      jump\t// in\n    tag_126:\n      mload(0x40)\n      dup1\n      swap2\n      sub\n      swap1\n      revert\n    tag_125:\n        /* \"contracts/subasta.sol\":5866:5871  owner */\n      0x00\n      0x00\n      swap1\n      sload\n      swap1\n      0x0100\n      exp\n      swap1\n      div\n      0xffffffffffffffffffffffffffffffffffffffff\n      and\n        /* \"contracts/subasta.sol\":5866:5880  owner.transfer */\n      0xffffffffffffffffffffffffffffffffffffffff\n      and\n        /* \"contracts/subasta.sol\":5866:5903  owner.transfer(address(this).balance) */\n      0x08fc\n        /* \"contracts/subasta.sol\":5881:5902  address(this).balance */\n      selfbalance\n        /* \"contracts/subasta.sol\":5866:5903  owner.transfer(address(this).balance) */\n      swap1\n      dup2\n      iszero\n      mul\n      swap1\n      mload(0x40)\n      0x00\n      mload(0x40)\n      dup1\n      dup4\n      sub\n      dup2\n      dup6\n      dup9\n      dup9\n      call\n      swap4\n      pop\n      pop\n      pop\n      pop\n      iszero\n      dup1\n      iszero\n      tag_129\n      jumpi\n      returndatacopy(0x00, 0x00, returndatasize)\n      revert(0x00, returndatasize)\n    tag_129:\n      pop\n        /* \"contracts/subasta.sol\":5619:5910  function notDelivered() public onlyOwner {... */\n      jump\t// out\n        /* \"contracts/subasta.sol\":4880:5091  function hasAlreadyBid(address bidder) public view returns (bool) {... */\n    tag_32:\n        /* \"contracts/subasta.sol\":4940:4944  bool */\n      0x00\n        /* \"contracts/subasta.sol\":4961:4970  uint256 i */\n      0x00\n        /* \"contracts/subasta.sol\":4973:4974  0 */\n      0x00\n        /* \"contracts/subasta.sol\":4961:4974  uint256 i = 0 */\n      swap1\n      pop\n        /* \"contracts/subasta.sol\":4956:5063  for (uint256 i = 0; i < bidders.length; i++) {... */\n    tag_131:\n        /* \"contracts/subasta.sol\":4980:4987  bidders */\n      0x08\n        /* \"contracts/subasta.sol\":4980:4994  bidders.length */\n      dup1\n      sload\n      swap1\n      pop\n        /* \"contracts/subasta.sol\":4976:4977  i */\n      dup2\n        /* \"contracts/subasta.sol\":4976:4994  i < bidders.length */\n      lt\n        /* \"contracts/subasta.sol\":4956:5063  for (uint256 i = 0; i < bidders.length; i++) {... */\n      iszero\n      tag_132\n      jumpi\n        /* \"contracts/subasta.sol\":5033:5039  bidder */\n      dup3\n        /* \"contracts/subasta.sol\":5019:5039  bidders[i] == bidder */\n      0xffffffffffffffffffffffffffffffffffffffff\n      and\n        /* \"contracts/subasta.sol\":5019:5026  bidders */\n      0x08\n        /* \"contracts/subasta.sol\":5027:5028  i */\n      dup3\n        /* \"contracts/subasta.sol\":5019:5029  bidders[i] */\n      dup2\n      sload\n      dup2\n      lt\n      tag_134\n      jumpi\n      tag_135\n      tag_136\n      jump\t// in\n    tag_135:\n    tag_134:\n      swap1\n      0x00\n      mstore\n      keccak256(0x00, 0x20)\n      add\n      0x00\n      swap1\n      sload\n      swap1\n      0x0100\n      exp\n      swap1\n      div\n      0xffffffffffffffffffffffffffffffffffffffff\n      and\n        /* \"contracts/subasta.sol\":5019:5039  bidders[i] == bidder */\n      0xffffffffffffffffffffffffffffffffffffffff\n      and\n      sub\n        /* \"contracts/subasta.sol\":5015:5052  if (bidders[i] == bidder) return true */\n      tag_138\n      jumpi\n        /* \"contracts/subasta.sol\":5048:5052  true */\n      0x01\n        /* \"contracts/subasta.sol\":5041:5052  return true */\n      swap2\n      pop\n      pop\n      jump(tag_130)\n        /* \"contracts/subasta.sol\":5015:5052  if (bidders[i] == bidder) return true */\n    tag_138:\n        /* \"contracts/subasta.sol\":4996:4999  i++ */\n      dup1\n      dup1\n      0x01\n      add\n      swap2\n      pop\n      pop\n        /* \"contracts/subasta.sol\":4956:5063  for (uint256 i = 0; i < bidders.length; i++) {... */\n      jump(tag_131)\n    tag_132:\n      pop\n        /* \"contracts/subasta.sol\":5079:5084  false */\n      0x00\n        /* \"contracts/subasta.sol\":5072:5084  return false */\n      swap1\n      pop\n        /* \"contracts/subasta.sol\":4880:5091  function hasAlreadyBid(address bidder) public view returns (bool) {... */\n    tag_130:\n      swap2\n      swap1\n      pop\n      jump\t// out\n        /* \"contracts/subasta.sol\":5098:5186  function getBidCount() public view returns (uint256) {... */\n    tag_37:\n        /* \"contracts/subasta.sol\":5142:5149  uint256 */\n      0x00\n        /* \"contracts/subasta.sol\":5168:5172  bids */\n      0x07\n        /* \"contracts/subasta.sol\":5168:5179  bids.length */\n      dup1\n      sload\n      swap1\n      pop\n        /* \"contracts/subasta.sol\":5161:5179  return bids.length */\n      swap1\n      pop\n        /* \"contracts/subasta.sol\":5098:5186  function getBidCount() public view returns (uint256) {... */\n      swap1\n      jump\t// out\n        /* \"contracts/subasta.sol\":160:185  uint256 public auctionEnd */\n    tag_42:\n      sload(0x02)\n      dup2\n      jump\t// out\n        /* \"contracts/subasta.sol\":637:654  Bid[] public bids */\n    tag_48:\n      0x07\n      dup2\n      dup2\n      sload\n      dup2\n      lt\n      tag_140\n      jumpi\n      0x00\n      dup1\n      revert\n    tag_140:\n      swap1\n      0x00\n      mstore\n      keccak256(0x00, 0x20)\n      swap1\n      0x05\n      mul\n      add\n      0x00\n      swap2\n      pop\n      swap1\n      pop\n      dup1\n      0x00\n      add\n      0x00\n      swap1\n      sload\n      swap1\n      0x0100\n      exp\n      swap1\n      div\n      0xffffffffffffffffffffffffffffffffffffffff\n      and\n      swap1\n      dup1\n      0x01\n      add\n      sload\n      swap1\n      dup1\n      0x02\n      add\n      sload\n      swap1\n      dup1\n      0x03\n      add\n      sload\n      swap1\n      dup1\n      0x04\n      add\n      0x00\n      swap1\n      sload\n      swap1\n      0x0100\n      exp\n      swap1\n      div\n      0xff\n      and\n      swap1\n      pop\n      dup6\n      jump\t// out\n        /* \"contracts/subasta.sol\":285:325  uint256 public constant MAX_BIDDERS = 30 */\n    tag_53:\n        /* \"contracts/subasta.sol\":323:325  30 */\n      0x1e\n        /* \"contracts/subasta.sol\":285:325  uint256 public constant MAX_BIDDERS = 30 */\n      dup2\n      jump\t// out\n        /* \"contracts/subasta.sol\":758:786  uint256 public winnerDeposit */\n    tag_57:\n      sload(0x0b)\n      dup2\n      jump\t// out\n        /* \"contracts/subasta.sol\":127:154  uint256 public auctionStart */\n    tag_61:\n      sload(0x01)\n      dup2\n      jump\t// out\n        /* \"contracts/subasta.sol\":331:378  uint256 public constant DEPOSIT_PERCENTAGE = 10 */\n    tag_65:\n        /* \"contracts/subasta.sol\":376:378  10 */\n      0x0a\n        /* \"contracts/subasta.sol\":331:378  uint256 public constant DEPOSIT_PERCENTAGE = 10 */\n      dup2\n      jump\t// out\n        /* \"contracts/subasta.sol\":5214:5558  function deliveryReceived() public onlyOwner {... */\n    tag_69:\n        /* \"contracts/subasta.sol\":1057:1062  owner */\n      0x00\n      0x00\n      swap1\n      sload\n      swap1\n      0x0100\n      exp\n      swap1\n      div\n      0xffffffffffffffffffffffffffffffffffffffff\n      and\n        /* \"contracts/subasta.sol\":1043:1062  msg.sender == owner */\n      0xffffffffffffffffffffffffffffffffffffffff\n      and\n        /* \"contracts/subasta.sol\":1043:1053  msg.sender */\n      caller\n        /* \"contracts/subasta.sol\":1043:1062  msg.sender == owner */\n      0xffffffffffffffffffffffffffffffffffffffff\n      and\n      eq\n        /* \"contracts/subasta.sol\":1035:1104  require(msg.sender == owner, \"Only the owner can call this function\") */\n      tag_143\n      jumpi\n      mload(0x40)\n      0x08c379a000000000000000000000000000000000000000000000000000000000\n      dup2\n      mstore\n      0x04\n      add\n      tag_144\n      swap1\n      tag_115\n      jump\t// in\n    tag_144:\n      mload(0x40)\n      dup1\n      swap2\n      sub\n      swap1\n      revert\n    tag_143:\n        /* \"contracts/subasta.sol\":5286:5308  AuctionState.Completed */\n      0x02\n        /* \"contracts/subasta.sol\":5277:5308  state == AuctionState.Completed */\n      dup1\n      dup2\n      gt\n      iszero\n      tag_146\n      jumpi\n      tag_147\n      tag_119\n      jump\t// in\n    tag_147:\n    tag_146:\n        /* \"contracts/subasta.sol\":5277:5282  state */\n      0x06\n      0x00\n      swap1\n      sload\n      swap1\n      0x0100\n      exp\n      swap1\n      div\n      0xff\n      and\n        /* \"contracts/subasta.sol\":5277:5308  state == AuctionState.Completed */\n      0x02\n      dup2\n      gt\n      iszero\n      tag_148\n      jumpi\n      tag_149\n      tag_119\n      jump\t// in\n    tag_149:\n    tag_148:\n      eq\n        /* \"contracts/subasta.sol\":5269:5368  require(state == AuctionState.Completed, \"Auction still open or didn't paid back the deposits yet\") */\n      tag_150\n      jumpi\n      mload(0x40)\n      0x08c379a000000000000000000000000000000000000000000000000000000000\n      dup2\n      mstore\n      0x04\n      add\n      tag_151\n      swap1\n      tag_124\n      jump\t// in\n    tag_151:\n      mload(0x40)\n      dup1\n      swap2\n      sub\n      swap1\n      revert\n    tag_150:\n        /* \"contracts/subasta.sol\":5404:5419  deliveryDueDate */\n      sload(0x03)\n        /* \"contracts/subasta.sol\":5386:5401  block.timestamp */\n      timestamp\n        /* \"contracts/subasta.sol\":5386:5419  block.timestamp < deliveryDueDate */\n      lt\n        /* \"contracts/subasta.sol\":5378:5447  require(block.timestamp < deliveryDueDate, \"The delivery is overdue\") */\n      tag_152\n      jumpi\n      mload(0x40)\n      0x08c379a000000000000000000000000000000000000000000000000000000000\n      dup2\n      mstore\n      0x04\n      add\n      tag_153\n      swap1\n      tag_154\n      jump\t// in\n    tag_153:\n      mload(0x40)\n      dup1\n      swap2\n      sub\n      swap1\n      revert\n    tag_152:\n        /* \"contracts/subasta.sol\":5458:5464  winner */\n      0x09\n      0x00\n      swap1\n      sload\n      swap1\n      0x0100\n      exp\n      swap1\n      div\n      0xffffffffffffffffffffffffffffffffffffffff\n      and\n        /* \"contracts/subasta.sol\":5458:5473  winner.transfer */\n      0xffffffffffffffffffffffffffffffffffffffff\n      and\n        /* \"contracts/subasta.sol\":5458:5504  winner.transfer(winningPrice + winner.balance) */\n      0x08fc\n        /* \"contracts/subasta.sol\":5489:5495  winner */\n      0x09\n      0x00\n      swap1\n      sload\n      swap1\n      0x0100\n      exp\n      swap1\n      div\n      0xffffffffffffffffffffffffffffffffffffffff\n      and\n        /* \"contracts/subasta.sol\":5489:5503  winner.balance */\n      0xffffffffffffffffffffffffffffffffffffffff\n      and\n      balance\n        /* \"contracts/subasta.sol\":5474:5486  winningPrice */\n      sload(0x0a)\n        /* \"contracts/subasta.sol\":5474:5503  winningPrice + winner.balance */\n      tag_155\n      swap2\n      swap1\n      tag_156\n      jump\t// in\n    tag_155:\n        /* \"contracts/subasta.sol\":5458:5504  winner.transfer(winningPrice + winner.balance) */\n      swap1\n      dup2\n      iszero\n      mul\n      swap1\n      mload(0x40)\n      0x00\n      mload(0x40)\n      dup1\n      dup4\n      sub\n      dup2\n      dup6\n      dup9\n      dup9\n      call\n      swap4\n      pop\n      pop\n      pop\n      pop\n      iszero\n      dup1\n      iszero\n      tag_158\n      jumpi\n      returndatacopy(0x00, 0x00, returndatasize)\n      revert(0x00, returndatasize)\n    tag_158:\n      pop\n        /* \"contracts/subasta.sol\":5514:5519  owner */\n      0x00\n      0x00\n      swap1\n      sload\n      swap1\n      0x0100\n      exp\n      swap1\n      div\n      0xffffffffffffffffffffffffffffffffffffffff\n      and\n        /* \"contracts/subasta.sol\":5514:5528  owner.transfer */\n      0xffffffffffffffffffffffffffffffffffffffff\n      and\n        /* \"contracts/subasta.sol\":5514:5551  owner.transfer(address(this).balance) */\n      0x08fc\n        /* \"contracts/subasta.sol\":5529:5550  address(this).balance */\n      selfbalance\n        /* \"contracts/subasta.sol\":5514:5551  owner.transfer(address(this).balance) */\n      swap1\n      dup2\n      iszero\n      mul\n      swap1\n      mload(0x40)\n      0x00\n      mload(0x40)\n      dup1\n      dup4\n      sub\n      dup2\n      dup6\n      dup9\n      dup9\n      call\n      swap4\n      pop\n      pop\n      pop\n      pop\n      iszero\n      dup1\n      iszero\n      tag_160\n      jumpi\n      returndatacopy(0x00, 0x00, returndatasize)\n      revert(0x00, returndatasize)\n    tag_160:\n      pop\n        /* \"contracts/subasta.sol\":5214:5558  function deliveryReceived() public onlyOwner {... */\n      jump\t// out\n        /* \"contracts/subasta.sol\":227:248  uint256 public maxBid */\n    tag_72:\n      sload(0x04)\n      dup2\n      jump\t// out\n        /* \"contracts/subasta.sol\":93:121  address payable public owner */\n    tag_76:\n      0x00\n      0x00\n      swap1\n      sload\n      swap1\n      0x0100\n      exp\n      swap1\n      div\n      0xffffffffffffffffffffffffffffffffffffffff\n      and\n      dup2\n      jump\t// out\n        /* \"contracts/subasta.sol\":1923:2760  function placeBid(uint256 _amount) external payable auctionOpen {... */\n    tag_81:\n        /* \"contracts/subasta.sol\":1178:1195  AuctionState.Open */\n      0x00\n        /* \"contracts/subasta.sol\":1169:1195  state == AuctionState.Open */\n      0x02\n      dup2\n      gt\n      iszero\n      tag_162\n      jumpi\n      tag_163\n      tag_119\n      jump\t// in\n    tag_163:\n    tag_162:\n        /* \"contracts/subasta.sol\":1169:1174  state */\n      0x06\n      0x00\n      swap1\n      sload\n      swap1\n      0x0100\n      exp\n      swap1\n      div\n      0xff\n      and\n        /* \"contracts/subasta.sol\":1169:1195  state == AuctionState.Open */\n      0x02\n      dup2\n      gt\n      iszero\n      tag_164\n      jumpi\n      tag_165\n      tag_119\n      jump\t// in\n    tag_165:\n    tag_164:\n      eq\n        /* \"contracts/subasta.sol\":1161:1218  require(state == AuctionState.Open, \"Auction not active\") */\n      tag_166\n      jumpi\n      mload(0x40)\n      0x08c379a000000000000000000000000000000000000000000000000000000000\n      dup2\n      mstore\n      0x04\n      add\n      tag_167\n      swap1\n      tag_168\n      jump\t// in\n    tag_167:\n      mload(0x40)\n      dup1\n      swap2\n      sub\n      swap1\n      revert\n    tag_166:\n        /* \"contracts/subasta.sol\":1255:1267  auctionStart */\n      sload(0x01)\n        /* \"contracts/subasta.sol\":1236:1251  block.timestamp */\n      timestamp\n        /* \"contracts/subasta.sol\":1236:1267  block.timestamp >= auctionStart */\n      lt\n      iszero\n        /* \"contracts/subasta.sol\":1236:1300  block.timestamp >= auctionStart && block.timestamp <= auctionEnd */\n      dup1\n      iszero\n      tag_169\n      jumpi\n      pop\n        /* \"contracts/subasta.sol\":1290:1300  auctionEnd */\n      sload(0x02)\n        /* \"contracts/subasta.sol\":1271:1286  block.timestamp */\n      timestamp\n        /* \"contracts/subasta.sol\":1271:1300  block.timestamp <= auctionEnd */\n      gt\n      iszero\n        /* \"contracts/subasta.sol\":1236:1300  block.timestamp >= auctionStart && block.timestamp <= auctionEnd */\n    tag_169:\n        /* \"contracts/subasta.sol\":1228:1340  require(block.timestamp >= auctionStart && block.timestamp <= auctionEnd, \"Outside of the auction's time range\") */\n      tag_170\n      jumpi\n      mload(0x40)\n      0x08c379a000000000000000000000000000000000000000000000000000000000\n      dup2\n      mstore\n      0x04\n      add\n      tag_171\n      swap1\n      tag_172\n      jump\t// in\n    tag_171:\n      mload(0x40)\n      dup1\n      swap2\n      sub\n      swap1\n      revert\n    tag_170:\n        /* \"contracts/subasta.sol\":2015:2016  0 */\n      0x00\n        /* \"contracts/subasta.sol\":2005:2012  _amount */\n      dup2\n        /* \"contracts/subasta.sol\":2005:2016  _amount > 0 */\n      gt\n        /* \"contracts/subasta.sol\":1997:2040  require(_amount > 0, \"The bid must be > 0\") */\n      tag_174\n      jumpi\n      mload(0x40)\n      0x08c379a000000000000000000000000000000000000000000000000000000000\n      dup2\n      mstore\n      0x04\n      add\n      tag_175\n      swap1\n      tag_176\n      jump\t// in\n    tag_175:\n      mload(0x40)\n      dup1\n      swap2\n      sub\n      swap1\n      revert\n    tag_174:\n        /* \"contracts/subasta.sol\":2069:2075  maxBid */\n      sload(0x04)\n        /* \"contracts/subasta.sol\":2058:2065  _amount */\n      dup2\n        /* \"contracts/subasta.sol\":2058:2075  _amount <= maxBid */\n      gt\n      iszero\n        /* \"contracts/subasta.sol\":2050:2114  require(_amount <= maxBid, \"The bid is higher than the maximum\") */\n      tag_177\n      jumpi\n      mload(0x40)\n      0x08c379a000000000000000000000000000000000000000000000000000000000\n      dup2\n      mstore\n      0x04\n      add\n      tag_178\n      swap1\n      tag_179\n      jump\t// in\n    tag_178:\n      mload(0x40)\n      dup1\n      swap2\n      sub\n      swap1\n      revert\n    tag_177:\n        /* \"contracts/subasta.sol\":2133:2158  hasAlreadyBid(msg.sender) */\n      tag_180\n        /* \"contracts/subasta.sol\":2147:2157  msg.sender */\n      caller\n        /* \"contracts/subasta.sol\":2133:2146  hasAlreadyBid */\n      tag_32\n        /* \"contracts/subasta.sol\":2133:2158  hasAlreadyBid(msg.sender) */\n      jump\t// in\n    tag_180:\n        /* \"contracts/subasta.sol\":2132:2158  !hasAlreadyBid(msg.sender) */\n      iszero\n        /* \"contracts/subasta.sol\":2124:2192  require(!hasAlreadyBid(msg.sender), \"You have already participated\") */\n      tag_181\n      jumpi\n      mload(0x40)\n      0x08c379a000000000000000000000000000000000000000000000000000000000\n      dup2\n      mstore\n      0x04\n      add\n      tag_182\n      swap1\n      tag_183\n      jump\t// in\n    tag_182:\n      mload(0x40)\n      dup1\n      swap2\n      sub\n      swap1\n      revert\n    tag_181:\n        /* \"contracts/subasta.sol\":323:325  30 */\n      0x1e\n        /* \"contracts/subasta.sol\":2210:2220  numBidders */\n      sload(0x05)\n        /* \"contracts/subasta.sol\":2210:2234  numBidders < MAX_BIDDERS */\n      lt\n        /* \"contracts/subasta.sol\":2202:2297  require(numBidders < MAX_BIDDERS, \"The auction has reached the maximum number of participants\") */\n      tag_184\n      jumpi\n      mload(0x40)\n      0x08c379a000000000000000000000000000000000000000000000000000000000\n      dup2\n      mstore\n      0x04\n      add\n      tag_185\n      swap1\n      tag_186\n      jump\t// in\n    tag_185:\n      mload(0x40)\n      dup1\n      swap2\n      sub\n      swap1\n      revert\n    tag_184:\n        /* \"contracts/subasta.sol\":2329:2334  owner */\n      0x00\n      0x00\n      swap1\n      sload\n      swap1\n      0x0100\n      exp\n      swap1\n      div\n      0xffffffffffffffffffffffffffffffffffffffff\n      and\n        /* \"contracts/subasta.sol\":2315:2334  msg.sender != owner */\n      0xffffffffffffffffffffffffffffffffffffffff\n      and\n        /* \"contracts/subasta.sol\":2315:2325  msg.sender */\n      caller\n        /* \"contracts/subasta.sol\":2315:2334  msg.sender != owner */\n      0xffffffffffffffffffffffffffffffffffffffff\n      and\n      sub\n        /* \"contracts/subasta.sol\":2307:2381  require(msg.sender != owner, \"You cannot place a bid on your own auction\") */\n      tag_187\n      jumpi\n      mload(0x40)\n      0x08c379a000000000000000000000000000000000000000000000000000000000\n      dup2\n      mstore\n      0x04\n      add\n      tag_188\n      swap1\n      tag_189\n      jump\t// in\n    tag_188:\n      mload(0x40)\n      dup1\n      swap2\n      sub\n      swap1\n      revert\n    tag_187:\n        /* \"contracts/subasta.sol\":2445:2448  100 */\n      0x64\n        /* \"contracts/subasta.sol\":376:378  10 */\n      0x0a\n        /* \"contracts/subasta.sol\":2413:2420  _amount */\n      dup3\n        /* \"contracts/subasta.sol\":2413:2441  _amount * DEPOSIT_PERCENTAGE */\n      tag_190\n      swap2\n      swap1\n      tag_191\n      jump\t// in\n    tag_190:\n        /* \"contracts/subasta.sol\":2412:2448  (_amount * DEPOSIT_PERCENTAGE) / 100 */\n      tag_192\n      swap2\n      swap1\n      tag_193\n      jump\t// in\n    tag_192:\n        /* \"contracts/subasta.sol\":2399:2408  msg.value */\n      callvalue\n        /* \"contracts/subasta.sol\":2399:2448  msg.value == (_amount * DEPOSIT_PERCENTAGE) / 100 */\n      eq\n        /* \"contracts/subasta.sol\":2391:2496  require(msg.value == (_amount * DEPOSIT_PERCENTAGE) / 100, \"The deposit must be at least 10% of the bid\") */\n      tag_194\n      jumpi\n      mload(0x40)\n      0x08c379a000000000000000000000000000000000000000000000000000000000\n      dup2\n      mstore\n      0x04\n      add\n      tag_195\n      swap1\n      tag_196\n      jump\t// in\n    tag_195:\n      mload(0x40)\n      dup1\n      swap2\n      sub\n      swap1\n      revert\n    tag_194:\n        /* \"contracts/subasta.sol\":2521:2522  1 */\n      0x01\n        /* \"contracts/subasta.sol\":2507:2517  numBidders */\n      0x05\n      0x00\n        /* \"contracts/subasta.sol\":2507:2522  numBidders += 1 */\n      dup3\n      dup3\n      sload\n      tag_197\n      swap2\n      swap1\n      tag_156\n      jump\t// in\n    tag_197:\n      swap3\n      pop\n      pop\n      dup2\n      swap1\n      sstore\n      pop\n        /* \"contracts/subasta.sol\":2533:2537  bids */\n      0x07\n        /* \"contracts/subasta.sol\":2543:2681  Bid(... */\n      mload(0x40)\n      dup1\n      0xa0\n      add\n      0x40\n      mstore\n      dup1\n        /* \"contracts/subasta.sol\":2568:2578  msg.sender */\n      caller\n        /* \"contracts/subasta.sol\":2543:2681  Bid(... */\n      0xffffffffffffffffffffffffffffffffffffffff\n      and\n      dup2\n      mstore\n      0x20\n      add\n        /* \"contracts/subasta.sol\":2593:2600  _amount */\n      dup4\n        /* \"contracts/subasta.sol\":2543:2681  Bid(... */\n      dup2\n      mstore\n      0x20\n      add\n        /* \"contracts/subasta.sol\":2614:2629  block.timestamp */\n      timestamp\n        /* \"contracts/subasta.sol\":2543:2681  Bid(... */\n      dup2\n      mstore\n      0x20\n      add\n        /* \"contracts/subasta.sol\":2643:2652  msg.value */\n      callvalue\n        /* \"contracts/subasta.sol\":2543:2681  Bid(... */\n      dup2\n      mstore\n      0x20\n      add\n        /* \"contracts/subasta.sol\":2666:2671  false */\n      0x00\n        /* \"contracts/subasta.sol\":2543:2681  Bid(... */\n      iszero\n      iszero\n      dup2\n      mstore\n      pop\n        /* \"contracts/subasta.sol\":2533:2682  bids.push(Bid(... */\n      swap1\n      dup1\n      0x01\n      dup2\n      sload\n      add\n      dup1\n      dup3\n      sstore\n      dup1\n      swap2\n      pop\n      pop\n      0x01\n      swap1\n      sub\n      swap1\n      0x00\n      mstore\n      keccak256(0x00, 0x20)\n      swap1\n      0x05\n      mul\n      add\n      0x00\n      swap1\n      swap2\n      swap1\n      swap2\n      swap1\n      swap2\n      pop\n      0x00\n      dup3\n      add\n      mload\n      dup2\n      0x00\n      add\n      exp(0x0100, 0x00)\n      dup2\n      sload\n      dup2\n      0xffffffffffffffffffffffffffffffffffffffff\n      mul\n      not\n      and\n      swap1\n      dup4\n      0xffffffffffffffffffffffffffffffffffffffff\n      and\n      mul\n      or\n      swap1\n      sstore\n      pop\n      0x20\n      dup3\n      add\n      mload\n      dup2\n      0x01\n      add\n      sstore\n      0x40\n      dup3\n      add\n      mload\n      dup2\n      0x02\n      add\n      sstore\n      0x60\n      dup3\n      add\n      mload\n      dup2\n      0x03\n      add\n      sstore\n      0x80\n      dup3\n      add\n      mload\n      dup2\n      0x04\n      add\n      exp(0x0100, 0x00)\n      dup2\n      sload\n      dup2\n      0xff\n      mul\n      not\n      and\n      swap1\n      dup4\n      iszero\n      iszero\n      mul\n      or\n      swap1\n      sstore\n      pop\n      pop\n      pop\n        /* \"contracts/subasta.sol\":2692:2699  bidders */\n      0x08\n        /* \"contracts/subasta.sol\":2705:2715  msg.sender */\n      caller\n        /* \"contracts/subasta.sol\":2692:2716  bidders.push(msg.sender) */\n      swap1\n      dup1\n      0x01\n      dup2\n      sload\n      add\n      dup1\n      dup3\n      sstore\n      dup1\n      swap2\n      pop\n      pop\n      0x01\n      swap1\n      sub\n      swap1\n      0x00\n      mstore\n      keccak256(0x00, 0x20)\n      add\n      0x00\n      swap1\n      swap2\n      swap1\n      swap2\n      swap1\n      swap2\n      0x0100\n      exp\n      dup2\n      sload\n      dup2\n      0xffffffffffffffffffffffffffffffffffffffff\n      mul\n      not\n      and\n      swap1\n      dup4\n      0xffffffffffffffffffffffffffffffffffffffff\n      and\n      mul\n      or\n      swap1\n      sstore\n      pop\n        /* \"contracts/subasta.sol\":2742:2752  msg.sender */\n      caller\n        /* \"contracts/subasta.sol\":2732:2753  BidPlaced(msg.sender) */\n      0xffffffffffffffffffffffffffffffffffffffff\n      and\n      0xe677a6b9a16a696674f50d2c98a1ce8c5cb51d6b48a0223412c512bbc93664d5\n      mload(0x40)\n      mload(0x40)\n      dup1\n      swap2\n      sub\n      swap1\n      log2\n        /* \"contracts/subasta.sol\":1923:2760  function placeBid(uint256 _amount) external payable auctionOpen {... */\n      pop\n      jump\t// out\n        /* \"contracts/subasta.sol\":439:464  AuctionState public state */\n    tag_84:\n      0x06\n      0x00\n      swap1\n      sload\n      swap1\n      0x0100\n      exp\n      swap1\n      div\n      0xff\n      and\n      dup2\n      jump\t// out\n        /* \"contracts/subasta.sol\":725:752  uint256 public winningPrice */\n    tag_89:\n      sload(0x0a)\n      dup2\n      jump\t// out\n        /* \"contracts/subasta.sol\":660:684  address[] public bidders */\n    tag_94:\n      0x08\n      dup2\n      dup2\n      sload\n      dup2\n      lt\n      tag_200\n      jumpi\n      0x00\n      dup1\n      revert\n    tag_200:\n      swap1\n      0x00\n      mstore\n      keccak256(0x00, 0x20)\n      add\n      0x00\n      swap2\n      pop\n      sload\n      swap1\n      0x0100\n      exp\n      swap1\n      div\n      0xffffffffffffffffffffffffffffffffffffffff\n      and\n      dup2\n      jump\t// out\n        /* \"contracts/subasta.sol\":191:221  uint256 public deliveryDueDate */\n    tag_99:\n      sload(0x03)\n      dup2\n      jump\t// out\n        /* \"contracts/subasta.sol\":690:719  address payable public winner */\n    tag_103:\n      0x09\n      0x00\n      swap1\n      sload\n      swap1\n      0x0100\n      exp\n      swap1\n      div\n      0xffffffffffffffffffffffffffffffffffffffff\n      and\n      dup2\n      jump\t// out\n        /* \"contracts/subasta.sol\":2766:3027  function finalizeAuction() external onlyOwner {... */\n    tag_107:\n        /* \"contracts/subasta.sol\":1057:1062  owner */\n      0x00\n      0x00\n      swap1\n      sload\n      swap1\n      0x0100\n      exp\n      swap1\n      div\n      0xffffffffffffffffffffffffffffffffffffffff\n      and\n        /* \"contracts/subasta.sol\":1043:1062  msg.sender == owner */\n      0xffffffffffffffffffffffffffffffffffffffff\n      and\n        /* \"contracts/subasta.sol\":1043:1053  msg.sender */\n      caller\n        /* \"contracts/subasta.sol\":1043:1062  msg.sender == owner */\n      0xffffffffffffffffffffffffffffffffffffffff\n      and\n      eq\n        /* \"contracts/subasta.sol\":1035:1104  require(msg.sender == owner, \"Only the owner can call this function\") */\n      tag_203\n      jumpi\n      mload(0x40)\n      0x08c379a000000000000000000000000000000000000000000000000000000000\n      dup2\n      mstore\n      0x04\n      add\n      tag_204\n      swap1\n      tag_115\n      jump\t// in\n    tag_204:\n      mload(0x40)\n      dup1\n      swap2\n      sub\n      swap1\n      revert\n    tag_203:\n        /* \"contracts/subasta.sol\":2839:2856  AuctionState.Open */\n      0x00\n        /* \"contracts/subasta.sol\":2830:2856  state == AuctionState.Open */\n      0x02\n      dup2\n      gt\n      iszero\n      tag_206\n      jumpi\n      tag_207\n      tag_119\n      jump\t// in\n    tag_207:\n    tag_206:\n        /* \"contracts/subasta.sol\":2830:2835  state */\n      0x06\n      0x00\n      swap1\n      sload\n      swap1\n      0x0100\n      exp\n      swap1\n      div\n      0xff\n      and\n        /* \"contracts/subasta.sol\":2830:2856  state == AuctionState.Open */\n      0x02\n      dup2\n      gt\n      iszero\n      tag_208\n      jumpi\n      tag_209\n      tag_119\n      jump\t// in\n    tag_209:\n    tag_208:\n      eq\n        /* \"contracts/subasta.sol\":2822:2875  require(state == AuctionState.Open, \"Auction closed\") */\n      tag_210\n      jumpi\n      mload(0x40)\n      0x08c379a000000000000000000000000000000000000000000000000000000000\n      dup2\n      mstore\n      0x04\n      add\n      tag_211\n      swap1\n      tag_212\n      jump\t// in\n    tag_211:\n      mload(0x40)\n      dup1\n      swap2\n      sub\n      swap1\n      revert\n    tag_210:\n        /* \"contracts/subasta.sol\":2912:2922  auctionEnd */\n      sload(0x02)\n        /* \"contracts/subasta.sol\":2893:2908  block.timestamp */\n      timestamp\n        /* \"contracts/subasta.sol\":2893:2922  block.timestamp >= auctionEnd */\n      lt\n      iszero\n        /* \"contracts/subasta.sol\":2893:2951  block.timestamp >= auctionEnd || numBidders >= MAX_BIDDERS */\n      dup1\n      tag_213\n      jumpi\n      pop\n        /* \"contracts/subasta.sol\":323:325  30 */\n      0x1e\n        /* \"contracts/subasta.sol\":2926:2936  numBidders */\n      sload(0x05)\n        /* \"contracts/subasta.sol\":2926:2951  numBidders >= MAX_BIDDERS */\n      lt\n      iszero\n        /* \"contracts/subasta.sol\":2893:2951  block.timestamp >= auctionEnd || numBidders >= MAX_BIDDERS */\n    tag_213:\n        /* \"contracts/subasta.sol\":2885:2992  require(block.timestamp >= auctionEnd || numBidders >= MAX_BIDDERS, \"The auction cannot be closed earlier\") */\n      tag_214\n      jumpi\n      mload(0x40)\n      0x08c379a000000000000000000000000000000000000000000000000000000000\n      dup2\n      mstore\n      0x04\n      add\n      tag_215\n      swap1\n      tag_216\n      jump\t// in\n    tag_215:\n      mload(0x40)\n      dup1\n      swap2\n      sub\n      swap1\n      revert\n    tag_214:\n        /* \"contracts/subasta.sol\":3002:3020  _finalizeAuction() */\n      tag_217\n        /* \"contracts/subasta.sol\":3002:3018  _finalizeAuction */\n      tag_218\n        /* \"contracts/subasta.sol\":3002:3020  _finalizeAuction() */\n      jump\t// in\n    tag_217:\n        /* \"contracts/subasta.sol\":2766:3027  function finalizeAuction() external onlyOwner {... */\n      jump\t// out\n        /* \"contracts/subasta.sol\":254:279  uint256 public numBidders */\n    tag_110:\n      sload(0x05)\n      dup2\n      jump\t// out\n        /* \"contracts/subasta.sol\":3033:3231  function _finalizeAuction() private {... */\n    tag_218:\n        /* \"contracts/subasta.sol\":3087:3106  AuctionState.Closed */\n      0x01\n        /* \"contracts/subasta.sol\":3079:3084  state */\n      0x06\n      0x00\n        /* \"contracts/subasta.sol\":3079:3106  state = AuctionState.Closed */\n      0x0100\n      exp\n      dup2\n      sload\n      dup2\n      0xff\n      mul\n      not\n      and\n      swap1\n      dup4\n      0x02\n      dup2\n      gt\n      iszero\n      tag_220\n      jumpi\n      tag_221\n      tag_119\n      jump\t// in\n    tag_221:\n    tag_220:\n      mul\n      or\n      swap1\n      sstore\n      pop\n        /* \"contracts/subasta.sol\":3141:3159  _determineWinner() */\n      tag_222\n        /* \"contracts/subasta.sol\":3141:3157  _determineWinner */\n      tag_223\n        /* \"contracts/subasta.sol\":3141:3159  _determineWinner() */\n      jump\t// in\n    tag_222:\n        /* \"contracts/subasta.sol\":3117:3123  winner */\n      0x09\n      0x00\n        /* \"contracts/subasta.sol\":3125:3137  winningPrice */\n      0x0a\n      0x00\n        /* \"contracts/subasta.sol\":3116:3159  (winner, winningPrice) = _determineWinner() */\n      dup5\n      swap2\n      swap1\n      pop\n      sstore\n      dup4\n      swap2\n      swap1\n      0x0100\n      exp\n      dup2\n      sload\n      dup2\n      0xffffffffffffffffffffffffffffffffffffffff\n      mul\n      not\n      and\n      swap1\n      dup4\n      0xffffffffffffffffffffffffffffffffffffffff\n      and\n      mul\n      or\n      swap1\n      sstore\n      pop\n      pop\n      pop\n        /* \"contracts/subasta.sol\":3188:3194  winner */\n      0x09\n      0x00\n      swap1\n      sload\n      swap1\n      0x0100\n      exp\n      swap1\n      div\n      0xffffffffffffffffffffffffffffffffffffffff\n      and\n        /* \"contracts/subasta.sol\":3174:3224  AuctionClosed(winner, winnerDeposit, winningPrice) */\n      0xffffffffffffffffffffffffffffffffffffffff\n      and\n      0xfd8f22870817ee413fcb464d7ffd8415666c2ab6285fe8d409dc1dc21fffb4f6\n        /* \"contracts/subasta.sol\":3196:3209  winnerDeposit */\n      sload(0x0b)\n        /* \"contracts/subasta.sol\":3211:3223  winningPrice */\n      sload(0x0a)\n        /* \"contracts/subasta.sol\":3174:3224  AuctionClosed(winner, winnerDeposit, winningPrice) */\n      mload(0x40)\n      tag_224\n      swap3\n      swap2\n      swap1\n      tag_225\n      jump\t// in\n    tag_224:\n      mload(0x40)\n      dup1\n      swap2\n      sub\n      swap1\n      log2\n        /* \"contracts/subasta.sol\":3033:3231  function _finalizeAuction() private {... */\n      jump\t// out\n        /* \"contracts/subasta.sol\":3238:4354  function _determineWinner() private view returns (address payable, uint256) {... */\n    tag_223:\n        /* \"contracts/subasta.sol\":3288:3303  address payable */\n      0x00\n        /* \"contracts/subasta.sol\":3305:3312  uint256 */\n      0x00\n        /* \"contracts/subasta.sol\":3346:3347  0 */\n      0x00\n        /* \"contracts/subasta.sol\":3332:3336  bids */\n      0x07\n        /* \"contracts/subasta.sol\":3332:3343  bids.length */\n      dup1\n      sload\n      swap1\n      pop\n        /* \"contracts/subasta.sol\":3332:3347  bids.length > 0 */\n      gt\n        /* \"contracts/subasta.sol\":3324:3361  require(bids.length > 0, \"No offers\") */\n      tag_227\n      jumpi\n      mload(0x40)\n      0x08c379a000000000000000000000000000000000000000000000000000000000\n      dup2\n      mstore\n      0x04\n      add\n      tag_228\n      swap1\n      tag_229\n      jump\t// in\n    tag_228:\n      mload(0x40)\n      dup1\n      swap2\n      sub\n      swap1\n      revert\n    tag_227:\n        /* \"contracts/subasta.sol\":3372:3386  uint256 lowest */\n      0x00\n        /* \"contracts/subasta.sol\":3389:3395  maxBid */\n      sload(0x04)\n        /* \"contracts/subasta.sol\":3372:3395  uint256 lowest = maxBid */\n      swap1\n      pop\n        /* \"contracts/subasta.sol\":3405:3425  uint256 secondLowest */\n      0x00\n        /* \"contracts/subasta.sol\":3428:3434  maxBid */\n      sload(0x04)\n        /* \"contracts/subasta.sol\":3405:3434  uint256 secondLowest = maxBid */\n      swap1\n      pop\n        /* \"contracts/subasta.sol\":3444:3473  address payable winnerAddress */\n      0x00\n        /* \"contracts/subasta.sol\":3483:3508  uint256 earliestTimestamp */\n      0x00\n        /* \"contracts/subasta.sol\":3511:3528  type(uint256).max */\n      0xffffffffffffffffffffffffffffffffffffffffffffffffffffffffffffffff\n        /* \"contracts/subasta.sol\":3483:3528  uint256 earliestTimestamp = type(uint256).max */\n      swap1\n      pop\n        /* \"contracts/subasta.sol\":3544:3553  uint256 i */\n      0x00\n        /* \"contracts/subasta.sol\":3556:3557  0 */\n      0x00\n        /* \"contracts/subasta.sol\":3544:3557  uint256 i = 0 */\n      swap1\n      pop\n        /* \"contracts/subasta.sol\":3539:4273  for (uint256 i = 0; i < bids.length; i++) {... */\n    tag_230:\n        /* \"contracts/subasta.sol\":3563:3567  bids */\n      0x07\n        /* \"contracts/subasta.sol\":3563:3574  bids.length */\n      dup1\n      sload\n      swap1\n      pop\n        /* \"contracts/subasta.sol\":3559:3560  i */\n      dup2\n        /* \"contracts/subasta.sol\":3559:3574  i < bids.length */\n      lt\n        /* \"contracts/subasta.sol\":3539:4273  for (uint256 i = 0; i < bids.length; i++) {... */\n      iszero\n      tag_231\n      jumpi\n        /* \"contracts/subasta.sol\":3595:3609  uint256 amount */\n      0x00\n        /* \"contracts/subasta.sol\":3612:3616  bids */\n      0x07\n        /* \"contracts/subasta.sol\":3617:3618  i */\n      dup3\n        /* \"contracts/subasta.sol\":3612:3619  bids[i] */\n      dup2\n      sload\n      dup2\n      lt\n      tag_233\n      jumpi\n      tag_234\n      tag_136\n      jump\t// in\n    tag_234:\n    tag_233:\n      swap1\n      0x00\n      mstore\n      keccak256(0x00, 0x20)\n      swap1\n      0x05\n      mul\n      add\n        /* \"contracts/subasta.sol\":3612:3626  bids[i].amount */\n      0x01\n      add\n      sload\n        /* \"contracts/subasta.sol\":3595:3626  uint256 amount = bids[i].amount */\n      swap1\n      pop\n        /* \"contracts/subasta.sol\":3640:3657  uint256 timestamp */\n      0x00\n        /* \"contracts/subasta.sol\":3660:3664  bids */\n      0x07\n        /* \"contracts/subasta.sol\":3665:3666  i */\n      dup4\n        /* \"contracts/subasta.sol\":3660:3667  bids[i] */\n      dup2\n      sload\n      dup2\n      lt\n      tag_236\n      jumpi\n      tag_237\n      tag_136\n      jump\t// in\n    tag_237:\n    tag_236:\n      swap1\n      0x00\n      mstore\n      keccak256(0x00, 0x20)\n      swap1\n      0x05\n      mul\n      add\n        /* \"contracts/subasta.sol\":3660:3677  bids[i].timestamp */\n      0x03\n      add\n      sload\n        /* \"contracts/subasta.sol\":3640:3677  uint256 timestamp = bids[i].timestamp */\n      swap1\n      pop\n        /* \"contracts/subasta.sol\":3705:3711  lowest */\n      dup7\n        /* \"contracts/subasta.sol\":3696:3702  amount */\n      dup3\n        /* \"contracts/subasta.sol\":3696:3711  amount < lowest */\n      lt\n        /* \"contracts/subasta.sol\":3692:4263  if (amount < lowest) {... */\n      iszero\n      tag_239\n      jumpi\n        /* \"contracts/subasta.sol\":3746:3752  lowest */\n      dup7\n        /* \"contracts/subasta.sol\":3731:3752  secondLowest = lowest */\n      swap6\n      pop\n        /* \"contracts/subasta.sol\":3779:3785  amount */\n      dup2\n        /* \"contracts/subasta.sol\":3770:3785  lowest = amount */\n      swap7\n      pop\n        /* \"contracts/subasta.sol\":3819:3823  bids */\n      0x07\n        /* \"contracts/subasta.sol\":3824:3825  i */\n      dup4\n        /* \"contracts/subasta.sol\":3819:3826  bids[i] */\n      dup2\n      sload\n      dup2\n      lt\n      tag_240\n      jumpi\n      tag_241\n      tag_136\n      jump\t// in\n    tag_241:\n    tag_240:\n      swap1\n      0x00\n      mstore\n      keccak256(0x00, 0x20)\n      swap1\n      0x05\n      mul\n      add\n        /* \"contracts/subasta.sol\":3819:3833  bids[i].bidder */\n      0x00\n      add\n      0x00\n      swap1\n      sload\n      swap1\n      0x0100\n      exp\n      swap1\n      div\n      0xffffffffffffffffffffffffffffffffffffffff\n      and\n        /* \"contracts/subasta.sol\":3803:3833  winnerAddress = bids[i].bidder */\n      swap5\n      pop\n        /* \"contracts/subasta.sol\":3871:3880  timestamp */\n      dup1\n        /* \"contracts/subasta.sol\":3851:3880  earliestTimestamp = timestamp */\n      swap4\n      pop\n        /* \"contracts/subasta.sol\":3692:4263  if (amount < lowest) {... */\n      jump(tag_243)\n    tag_239:\n        /* \"contracts/subasta.sol\":3915:3921  lowest */\n      dup7\n        /* \"contracts/subasta.sol\":3905:3911  amount */\n      dup3\n        /* \"contracts/subasta.sol\":3905:3921  amount == lowest */\n      eq\n        /* \"contracts/subasta.sol\":3905:3954  amount == lowest && timestamp < earliestTimestamp */\n      dup1\n      iszero\n      tag_244\n      jumpi\n      pop\n        /* \"contracts/subasta.sol\":3937:3954  earliestTimestamp */\n      dup4\n        /* \"contracts/subasta.sol\":3925:3934  timestamp */\n      dup2\n        /* \"contracts/subasta.sol\":3925:3954  timestamp < earliestTimestamp */\n      lt\n        /* \"contracts/subasta.sol\":3905:3954  amount == lowest && timestamp < earliestTimestamp */\n    tag_244:\n        /* \"contracts/subasta.sol\":3901:4263  if (amount == lowest && timestamp < earliestTimestamp) {... */\n      iszero\n      tag_245\n      jumpi\n        /* \"contracts/subasta.sol\":3989:3995  lowest */\n      dup7\n        /* \"contracts/subasta.sol\":3974:3995  secondLowest = lowest */\n      swap6\n      pop\n        /* \"contracts/subasta.sol\":4029:4033  bids */\n      0x07\n        /* \"contracts/subasta.sol\":4034:4035  i */\n      dup4\n        /* \"contracts/subasta.sol\":4029:4036  bids[i] */\n      dup2\n      sload\n      dup2\n      lt\n      tag_246\n      jumpi\n      tag_247\n      tag_136\n      jump\t// in\n    tag_247:\n    tag_246:\n      swap1\n      0x00\n      mstore\n      keccak256(0x00, 0x20)\n      swap1\n      0x05\n      mul\n      add\n        /* \"contracts/subasta.sol\":4029:4043  bids[i].bidder */\n      0x00\n      add\n      0x00\n      swap1\n      sload\n      swap1\n      0x0100\n      exp\n      swap1\n      div\n      0xffffffffffffffffffffffffffffffffffffffff\n      and\n        /* \"contracts/subasta.sol\":4013:4043  winnerAddress = bids[i].bidder */\n      swap5\n      pop\n        /* \"contracts/subasta.sol\":4133:4142  timestamp */\n      dup1\n        /* \"contracts/subasta.sol\":4113:4142  earliestTimestamp = timestamp */\n      swap4\n      pop\n        /* \"contracts/subasta.sol\":3901:4263  if (amount == lowest && timestamp < earliestTimestamp) {... */\n      jump(tag_249)\n    tag_245:\n        /* \"contracts/subasta.sol\":4176:4188  secondLowest */\n      dup6\n        /* \"contracts/subasta.sol\":4167:4173  amount */\n      dup3\n        /* \"contracts/subasta.sol\":4167:4188  amount < secondLowest */\n      lt\n        /* \"contracts/subasta.sol\":4167:4207  amount < secondLowest && amount > lowest */\n      dup1\n      iszero\n      tag_250\n      jumpi\n      pop\n        /* \"contracts/subasta.sol\":4201:4207  lowest */\n      dup7\n        /* \"contracts/subasta.sol\":4192:4198  amount */\n      dup3\n        /* \"contracts/subasta.sol\":4192:4207  amount > lowest */\n      gt\n        /* \"contracts/subasta.sol\":4167:4207  amount < secondLowest && amount > lowest */\n    tag_250:\n        /* \"contracts/subasta.sol\":4163:4263  if (amount < secondLowest && amount > lowest) {... */\n      iszero\n      tag_251\n      jumpi\n        /* \"contracts/subasta.sol\":4242:4248  amount */\n      dup2\n        /* \"contracts/subasta.sol\":4227:4248  secondLowest = amount */\n      swap6\n      pop\n        /* \"contracts/subasta.sol\":4163:4263  if (amount < secondLowest && amount > lowest) {... */\n    tag_251:\n        /* \"contracts/subasta.sol\":3901:4263  if (amount == lowest && timestamp < earliestTimestamp) {... */\n    tag_249:\n        /* \"contracts/subasta.sol\":3692:4263  if (amount < lowest) {... */\n    tag_243:\n        /* \"contracts/subasta.sol\":3581:4273  {... */\n      pop\n      pop\n        /* \"contracts/subasta.sol\":3576:3579  i++ */\n      dup1\n      dup1\n      0x01\n      add\n      swap2\n      pop\n      pop\n        /* \"contracts/subasta.sol\":3539:4273  for (uint256 i = 0; i < bids.length; i++) {... */\n      jump(tag_230)\n    tag_231:\n      pop\n        /* \"contracts/subasta.sol\":4291:4304  winnerAddress */\n      dup2\n        /* \"contracts/subasta.sol\":4321:4322  1 */\n      0x01\n        /* \"contracts/subasta.sol\":4306:4310  bids */\n      0x07\n        /* \"contracts/subasta.sol\":4306:4317  bids.length */\n      dup1\n      sload\n      swap1\n      pop\n        /* \"contracts/subasta.sol\":4306:4322  bids.length == 1 */\n      eq\n        /* \"contracts/subasta.sol\":4306:4346  bids.length == 1 ? lowest : secondLowest */\n      tag_252\n      jumpi\n        /* \"contracts/subasta.sol\":4334:4346  secondLowest */\n      dup4\n        /* \"contracts/subasta.sol\":4306:4346  bids.length == 1 ? lowest : secondLowest */\n      jump(tag_253)\n    tag_252:\n        /* \"contracts/subasta.sol\":4325:4331  lowest */\n      dup5\n        /* \"contracts/subasta.sol\":4306:4346  bids.length == 1 ? lowest : secondLowest */\n    tag_253:\n        /* \"contracts/subasta.sol\":4283:4347  return (winnerAddress, bids.length == 1 ? lowest : secondLowest) */\n      swap6\n      pop\n      swap6\n      pop\n      pop\n      pop\n      pop\n      pop\n        /* \"contracts/subasta.sol\":3238:4354  function _determineWinner() private view returns (address payable, uint256) {... */\n      swap1\n      swap2\n      jump\t// out\n        /* \"#utility.yul\":88:205   */\n    tag_255:\n        /* \"#utility.yul\":197:198   */\n      0x00\n        /* \"#utility.yul\":194:195   */\n      0x00\n        /* \"#utility.yul\":187:199   */\n      revert\n        /* \"#utility.yul\":334:460   */\n    tag_257:\n        /* \"#utility.yul\":371:378   */\n      0x00\n        /* \"#utility.yul\":411:453   */\n      0xffffffffffffffffffffffffffffffffffffffff\n        /* \"#utility.yul\":404:409   */\n      dup3\n        /* \"#utility.yul\":400:454   */\n      and\n        /* \"#utility.yul\":389:454   */\n      swap1\n      pop\n        /* \"#utility.yul\":334:460   */\n      swap2\n      swap1\n      pop\n      jump\t// out\n        /* \"#utility.yul\":466:562   */\n    tag_258:\n        /* \"#utility.yul\":503:510   */\n      0x00\n        /* \"#utility.yul\":532:556   */\n      tag_313\n        /* \"#utility.yul\":550:555   */\n      dup3\n        /* \"#utility.yul\":532:556   */\n      tag_257\n      jump\t// in\n    tag_313:\n        /* \"#utility.yul\":521:556   */\n      swap1\n      pop\n        /* \"#utility.yul\":466:562   */\n      swap2\n      swap1\n      pop\n      jump\t// out\n        /* \"#utility.yul\":568:690   */\n    tag_259:\n        /* \"#utility.yul\":641:665   */\n      tag_315\n        /* \"#utility.yul\":659:664   */\n      dup2\n        /* \"#utility.yul\":641:665   */\n      tag_258\n      jump\t// in\n    tag_315:\n        /* \"#utility.yul\":634:639   */\n      dup2\n        /* \"#utility.yul\":631:666   */\n      eq\n        /* \"#utility.yul\":621:684   */\n      tag_316\n      jumpi\n        /* \"#utility.yul\":680:681   */\n      0x00\n        /* \"#utility.yul\":677:678   */\n      0x00\n        /* \"#utility.yul\":670:682   */\n      revert\n        /* \"#utility.yul\":621:684   */\n    tag_316:\n        /* \"#utility.yul\":568:690   */\n      pop\n      jump\t// out\n        /* \"#utility.yul\":696:835   */\n    tag_260:\n        /* \"#utility.yul\":742:747   */\n      0x00\n        /* \"#utility.yul\":780:786   */\n      dup2\n        /* \"#utility.yul\":767:787   */\n      calldataload\n        /* \"#utility.yul\":758:787   */\n      swap1\n      pop\n        /* \"#utility.yul\":796:829   */\n      tag_318\n        /* \"#utility.yul\":823:828   */\n      dup2\n        /* \"#utility.yul\":796:829   */\n      tag_259\n      jump\t// in\n    tag_318:\n        /* \"#utility.yul\":696:835   */\n      swap3\n      swap2\n      pop\n      pop\n      jump\t// out\n        /* \"#utility.yul\":841:1170   */\n    tag_31:\n        /* \"#utility.yul\":900:906   */\n      0x00\n        /* \"#utility.yul\":949:951   */\n      0x20\n        /* \"#utility.yul\":937:946   */\n      dup3\n        /* \"#utility.yul\":928:935   */\n      dup5\n        /* \"#utility.yul\":924:947   */\n      sub\n        /* \"#utility.yul\":920:952   */\n      slt\n        /* \"#utility.yul\":917:1036   */\n      iszero\n      tag_320\n      jumpi\n        /* \"#utility.yul\":955:1034   */\n      tag_321\n      tag_255\n      jump\t// in\n    tag_321:\n        /* \"#utility.yul\":917:1036   */\n    tag_320:\n        /* \"#utility.yul\":1075:1076   */\n      0x00\n        /* \"#utility.yul\":1100:1153   */\n      tag_322\n        /* \"#utility.yul\":1145:1152   */\n      dup5\n        /* \"#utility.yul\":1136:1142   */\n      dup3\n        /* \"#utility.yul\":1125:1134   */\n      dup6\n        /* \"#utility.yul\":1121:1143   */\n      add\n        /* \"#utility.yul\":1100:1153   */\n      tag_260\n      jump\t// in\n    tag_322:\n        /* \"#utility.yul\":1090:1153   */\n      swap2\n      pop\n        /* \"#utility.yul\":1046:1163   */\n      pop\n        /* \"#utility.yul\":841:1170   */\n      swap3\n      swap2\n      pop\n      pop\n      jump\t// out\n        /* \"#utility.yul\":1176:1266   */\n    tag_261:\n        /* \"#utility.yul\":1210:1217   */\n      0x00\n        /* \"#utility.yul\":1253:1258   */\n      dup2\n        /* \"#utility.yul\":1246:1259   */\n      iszero\n        /* \"#utility.yul\":1239:1260   */\n      iszero\n        /* \"#utility.yul\":1228:1260   */\n      swap1\n      pop\n        /* \"#utility.yul\":1176:1266   */\n      swap2\n      swap1\n      pop\n      jump\t// out\n        /* \"#utility.yul\":1272:1381   */\n    tag_262:\n        /* \"#utility.yul\":1353:1374   */\n      tag_325\n        /* \"#utility.yul\":1368:1373   */\n      dup2\n        /* \"#utility.yul\":1353:1374   */\n      tag_261\n      jump\t// in\n    tag_325:\n        /* \"#utility.yul\":1348:1351   */\n      dup3\n        /* \"#utility.yul\":1341:1375   */\n      mstore\n        /* \"#utility.yul\":1272:1381   */\n      pop\n      pop\n      jump\t// out\n        /* \"#utility.yul\":1387:1597   */\n    tag_34:\n        /* \"#utility.yul\":1474:1478   */\n      0x00\n        /* \"#utility.yul\":1512:1514   */\n      0x20\n        /* \"#utility.yul\":1501:1510   */\n      dup3\n        /* \"#utility.yul\":1497:1515   */\n      add\n        /* \"#utility.yul\":1489:1515   */\n      swap1\n      pop\n        /* \"#utility.yul\":1525:1590   */\n      tag_327\n        /* \"#utility.yul\":1587:1588   */\n      0x00\n        /* \"#utility.yul\":1576:1585   */\n      dup4\n        /* \"#utility.yul\":1572:1589   */\n      add\n        /* \"#utility.yul\":1563:1569   */\n      dup5\n        /* \"#utility.yul\":1525:1590   */\n      tag_262\n      jump\t// in\n    tag_327:\n        /* \"#utility.yul\":1387:1597   */\n      swap3\n      swap2\n      pop\n      pop\n      jump\t// out\n        /* \"#utility.yul\":1603:1680   */\n    tag_263:\n        /* \"#utility.yul\":1640:1647   */\n      0x00\n        /* \"#utility.yul\":1669:1674   */\n      dup2\n        /* \"#utility.yul\":1658:1674   */\n      swap1\n      pop\n        /* \"#utility.yul\":1603:1680   */\n      swap2\n      swap1\n      pop\n      jump\t// out\n        /* \"#utility.yul\":1686:1804   */\n    tag_264:\n        /* \"#utility.yul\":1773:1797   */\n      tag_330\n        /* \"#utility.yul\":1791:1796   */\n      dup2\n        /* \"#utility.yul\":1773:1797   */\n      tag_263\n      jump\t// in\n    tag_330:\n        /* \"#utility.yul\":1768:1771   */\n      dup3\n        /* \"#utility.yul\":1761:1798   */\n      mstore\n        /* \"#utility.yul\":1686:1804   */\n      pop\n      pop\n      jump\t// out\n        /* \"#utility.yul\":1810:2032   */\n    tag_39:\n        /* \"#utility.yul\":1903:1907   */\n      0x00\n        /* \"#utility.yul\":1941:1943   */\n      0x20\n        /* \"#utility.yul\":1930:1939   */\n      dup3\n        /* \"#utility.yul\":1926:1944   */\n      add\n        /* \"#utility.yul\":1918:1944   */\n      swap1\n      pop\n        /* \"#utility.yul\":1954:2025   */\n      tag_332\n        /* \"#utility.yul\":2022:2023   */\n      0x00\n        /* \"#utility.yul\":2011:2020   */\n      dup4\n        /* \"#utility.yul\":2007:2024   */\n      add\n        /* \"#utility.yul\":1998:2004   */\n      dup5\n        /* \"#utility.yul\":1954:2025   */\n      tag_264\n      jump\t// in\n    tag_332:\n        /* \"#utility.yul\":1810:2032   */\n      swap3\n      swap2\n      pop\n      pop\n      jump\t// out\n        /* \"#utility.yul\":2038:2160   */\n    tag_265:\n        /* \"#utility.yul\":2111:2135   */\n      tag_334\n        /* \"#utility.yul\":2129:2134   */\n      dup2\n        /* \"#utility.yul\":2111:2135   */\n      tag_263\n      jump\t// in\n    tag_334:\n        /* \"#utility.yul\":2104:2109   */\n      dup2\n        /* \"#utility.yul\":2101:2136   */\n      eq\n        /* \"#utility.yul\":2091:2154   */\n      tag_335\n      jumpi\n        /* \"#utility.yul\":2150:2151   */\n      0x00\n        /* \"#utility.yul\":2147:2148   */\n      0x00\n        /* \"#utility.yul\":2140:2152   */\n      revert\n        /* \"#utility.yul\":2091:2154   */\n    tag_335:\n        /* \"#utility.yul\":2038:2160   */\n      pop\n      jump\t// out\n        /* \"#utility.yul\":2166:2305   */\n    tag_266:\n        /* \"#utility.yul\":2212:2217   */\n      0x00\n        /* \"#utility.yul\":2250:2256   */\n      dup2\n        /* \"#utility.yul\":2237:2257   */\n      calldataload\n        /* \"#utility.yul\":2228:2257   */\n      swap1\n      pop\n        /* \"#utility.yul\":2266:2299   */\n      tag_337\n        /* \"#utility.yul\":2293:2298   */\n      dup2\n        /* \"#utility.yul\":2266:2299   */\n      tag_265\n      jump\t// in\n    tag_337:\n        /* \"#utility.yul\":2166:2305   */\n      swap3\n      swap2\n      pop\n      pop\n      jump\t// out\n        /* \"#utility.yul\":2311:2640   */\n    tag_47:\n        /* \"#utility.yul\":2370:2376   */\n      0x00\n        /* \"#utility.yul\":2419:2421   */\n      0x20\n        /* \"#utility.yul\":2407:2416   */\n      dup3\n        /* \"#utility.yul\":2398:2405   */\n      dup5\n        /* \"#utility.yul\":2394:2417   */\n      sub\n        /* \"#utility.yul\":2390:2422   */\n      slt\n        /* \"#utility.yul\":2387:2506   */\n      iszero\n      tag_339\n      jumpi\n        /* \"#utility.yul\":2425:2504   */\n      tag_340\n      tag_255\n      jump\t// in\n    tag_340:\n        /* \"#utility.yul\":2387:2506   */\n    tag_339:\n        /* \"#utility.yul\":2545:2546   */\n      0x00\n        /* \"#utility.yul\":2570:2623   */\n      tag_341\n        /* \"#utility.yul\":2615:2622   */\n      dup5\n        /* \"#utility.yul\":2606:2612   */\n      dup3\n        /* \"#utility.yul\":2595:2604   */\n      dup6\n        /* \"#utility.yul\":2591:2613   */\n      add\n        /* \"#utility.yul\":2570:2623   */\n      tag_266\n      jump\t// in\n    tag_341:\n        /* \"#utility.yul\":2560:2623   */\n      swap2\n      pop\n        /* \"#utility.yul\":2516:2633   */\n      pop\n        /* \"#utility.yul\":2311:2640   */\n      swap3\n      swap2\n      pop\n      pop\n      jump\t// out\n        /* \"#utility.yul\":2646:2750   */\n    tag_267:\n        /* \"#utility.yul\":2691:2698   */\n      0x00\n        /* \"#utility.yul\":2720:2744   */\n      tag_343\n        /* \"#utility.yul\":2738:2743   */\n      dup3\n        /* \"#utility.yul\":2720:2744   */\n      tag_257\n      jump\t// in\n    tag_343:\n        /* \"#utility.yul\":2709:2744   */\n      swap1\n      pop\n        /* \"#utility.yul\":2646:2750   */\n      swap2\n      swap1\n      pop\n      jump\t// out\n        /* \"#utility.yul\":2756:2898   */\n    tag_268:\n        /* \"#utility.yul\":2859:2891   */\n      tag_345\n        /* \"#utility.yul\":2885:2890   */\n      dup2\n        /* \"#utility.yul\":2859:2891   */\n      tag_267\n      jump\t// in\n    tag_345:\n        /* \"#utility.yul\":2854:2857   */\n      dup3\n        /* \"#utility.yul\":2847:2892   */\n      mstore\n        /* \"#utility.yul\":2756:2898   */\n      pop\n      pop\n      jump\t// out\n        /* \"#utility.yul\":2904:3588   */\n    tag_50:\n        /* \"#utility.yul\":3119:3123   */\n      0x00\n        /* \"#utility.yul\":3157:3160   */\n      0xa0\n        /* \"#utility.yul\":3146:3155   */\n      dup3\n        /* \"#utility.yul\":3142:3161   */\n      add\n        /* \"#utility.yul\":3134:3161   */\n      swap1\n      pop\n        /* \"#utility.yul\":3171:3258   */\n      tag_347\n        /* \"#utility.yul\":3255:3256   */\n      0x00\n        /* \"#utility.yul\":3244:3253   */\n      dup4\n        /* \"#utility.yul\":3240:3257   */\n      add\n        /* \"#utility.yul\":3231:3237   */\n      dup9\n        /* \"#utility.yul\":3171:3258   */\n      tag_268\n      jump\t// in\n    tag_347:\n        /* \"#utility.yul\":3268:3340   */\n      tag_348\n        /* \"#utility.yul\":3336:3338   */\n      0x20\n        /* \"#utility.yul\":3325:3334   */\n      dup4\n        /* \"#utility.yul\":3321:3339   */\n      add\n        /* \"#utility.yul\":3312:3318   */\n      dup8\n        /* \"#utility.yul\":3268:3340   */\n      tag_264\n      jump\t// in\n    tag_348:\n        /* \"#utility.yul\":3350:3422   */\n      tag_349\n        /* \"#utility.yul\":3418:3420   */\n      0x40\n        /* \"#utility.yul\":3407:3416   */\n      dup4\n        /* \"#utility.yul\":3403:3421   */\n      add\n        /* \"#utility.yul\":3394:3400   */\n      dup7\n        /* \"#utility.yul\":3350:3422   */\n      tag_264\n      jump\t// in\n    tag_349:\n        /* \"#utility.yul\":3432:3504   */\n      tag_350\n        /* \"#utility.yul\":3500:3502   */\n      0x60\n        /* \"#utility.yul\":3489:3498   */\n      dup4\n        /* \"#utility.yul\":3485:3503   */\n      add\n        /* \"#utility.yul\":3476:3482   */\n      dup6\n        /* \"#utility.yul\":3432:3504   */\n      tag_264\n      jump\t// in\n    tag_350:\n        /* \"#utility.yul\":3514:3581   */\n      tag_351\n        /* \"#utility.yul\":3576:3579   */\n      0x80\n        /* \"#utility.yul\":3565:3574   */\n      dup4\n        /* \"#utility.yul\":3561:3580   */\n      add\n        /* \"#utility.yul\":3552:3558   */\n      dup5\n        /* \"#utility.yul\":3514:3581   */\n      tag_262\n      jump\t// in\n    tag_351:\n        /* \"#utility.yul\":2904:3588   */\n      swap7\n      swap6\n      pop\n      pop\n      pop\n      pop\n      pop\n      pop\n      jump\t// out\n        /* \"#utility.yul\":3594:3848   */\n    tag_78:\n        /* \"#utility.yul\":3703:3707   */\n      0x00\n        /* \"#utility.yul\":3741:3743   */\n      0x20\n        /* \"#utility.yul\":3730:3739   */\n      dup3\n        /* \"#utility.yul\":3726:3744   */\n      add\n        /* \"#utility.yul\":3718:3744   */\n      swap1\n      pop\n        /* \"#utility.yul\":3754:3841   */\n      tag_353\n        /* \"#utility.yul\":3838:3839   */\n      0x00\n        /* \"#utility.yul\":3827:3836   */\n      dup4\n        /* \"#utility.yul\":3823:3840   */\n      add\n        /* \"#utility.yul\":3814:3820   */\n      dup5\n        /* \"#utility.yul\":3754:3841   */\n      tag_268\n      jump\t// in\n    tag_353:\n        /* \"#utility.yul\":3594:3848   */\n      swap3\n      swap2\n      pop\n      pop\n      jump\t// out\n        /* \"#utility.yul\":3854:4034   */\n    tag_119:\n        /* \"#utility.yul\":3902:3979   */\n      0x4e487b7100000000000000000000000000000000000000000000000000000000\n        /* \"#utility.yul\":3899:3900   */\n      0x00\n        /* \"#utility.yul\":3892:3980   */\n      mstore\n        /* \"#utility.yul\":3999:4003   */\n      0x21\n        /* \"#utility.yul\":3996:3997   */\n      0x04\n        /* \"#utility.yul\":3989:4004   */\n      mstore\n        /* \"#utility.yul\":4023:4027   */\n      0x24\n        /* \"#utility.yul\":4020:4021   */\n      0x00\n        /* \"#utility.yul\":4013:4028   */\n      revert\n        /* \"#utility.yul\":4040:4160   */\n    tag_269:\n        /* \"#utility.yul\":4128:4129   */\n      0x03\n        /* \"#utility.yul\":4121:4126   */\n      dup2\n        /* \"#utility.yul\":4118:4130   */\n      lt\n        /* \"#utility.yul\":4108:4154   */\n      tag_356\n      jumpi\n        /* \"#utility.yul\":4134:4152   */\n      tag_357\n      tag_119\n      jump\t// in\n    tag_357:\n        /* \"#utility.yul\":4108:4154   */\n    tag_356:\n        /* \"#utility.yul\":4040:4160   */\n      pop\n      jump\t// out\n        /* \"#utility.yul\":4166:4307   */\n    tag_270:\n        /* \"#utility.yul\":4218:4225   */\n      0x00\n        /* \"#utility.yul\":4247:4252   */\n      dup2\n        /* \"#utility.yul\":4236:4252   */\n      swap1\n      pop\n        /* \"#utility.yul\":4253:4301   */\n      tag_359\n        /* \"#utility.yul\":4295:4300   */\n      dup3\n        /* \"#utility.yul\":4253:4301   */\n      tag_269\n      jump\t// in\n    tag_359:\n        /* \"#utility.yul\":4166:4307   */\n      swap2\n      swap1\n      pop\n      jump\t// out\n        /* \"#utility.yul\":4313:4454   */\n    tag_271:\n        /* \"#utility.yul\":4376:4385   */\n      0x00\n        /* \"#utility.yul\":4409:4448   */\n      tag_361\n        /* \"#utility.yul\":4442:4447   */\n      dup3\n        /* \"#utility.yul\":4409:4448   */\n      tag_270\n      jump\t// in\n    tag_361:\n        /* \"#utility.yul\":4396:4448   */\n      swap1\n      pop\n        /* \"#utility.yul\":4313:4454   */\n      swap2\n      swap1\n      pop\n      jump\t// out\n        /* \"#utility.yul\":4460:4617   */\n    tag_272:\n        /* \"#utility.yul\":4560:4610   */\n      tag_363\n        /* \"#utility.yul\":4604:4609   */\n      dup2\n        /* \"#utility.yul\":4560:4610   */\n      tag_271\n      jump\t// in\n    tag_363:\n        /* \"#utility.yul\":4555:4558   */\n      dup3\n        /* \"#utility.yul\":4548:4611   */\n      mstore\n        /* \"#utility.yul\":4460:4617   */\n      pop\n      pop\n      jump\t// out\n        /* \"#utility.yul\":4623:4871   */\n    tag_86:\n        /* \"#utility.yul\":4729:4733   */\n      0x00\n        /* \"#utility.yul\":4767:4769   */\n      0x20\n        /* \"#utility.yul\":4756:4765   */\n      dup3\n        /* \"#utility.yul\":4752:4770   */\n      add\n        /* \"#utility.yul\":4744:4770   */\n      swap1\n      pop\n        /* \"#utility.yul\":4780:4864   */\n      tag_365\n        /* \"#utility.yul\":4861:4862   */\n      0x00\n        /* \"#utility.yul\":4850:4859   */\n      dup4\n        /* \"#utility.yul\":4846:4863   */\n      add\n        /* \"#utility.yul\":4837:4843   */\n      dup5\n        /* \"#utility.yul\":4780:4864   */\n      tag_272\n      jump\t// in\n    tag_365:\n        /* \"#utility.yul\":4623:4871   */\n      swap3\n      swap2\n      pop\n      pop\n      jump\t// out\n        /* \"#utility.yul\":4877:4995   */\n    tag_273:\n        /* \"#utility.yul\":4964:4988   */\n      tag_367\n        /* \"#utility.yul\":4982:4987   */\n      dup2\n        /* \"#utility.yul\":4964:4988   */\n      tag_258\n      jump\t// in\n    tag_367:\n        /* \"#utility.yul\":4959:4962   */\n      dup3\n        /* \"#utility.yul\":4952:4989   */\n      mstore\n        /* \"#utility.yul\":4877:4995   */\n      pop\n      pop\n      jump\t// out\n        /* \"#utility.yul\":5001:5223   */\n    tag_96:\n        /* \"#utility.yul\":5094:5098   */\n      0x00\n        /* \"#utility.yul\":5132:5134   */\n      0x20\n        /* \"#utility.yul\":5121:5130   */\n      dup3\n        /* \"#utility.yul\":5117:5135   */\n      add\n        /* \"#utility.yul\":5109:5135   */\n      swap1\n      pop\n        /* \"#utility.yul\":5145:5216   */\n      tag_369\n        /* \"#utility.yul\":5213:5214   */\n      0x00\n        /* \"#utility.yul\":5202:5211   */\n      dup4\n        /* \"#utility.yul\":5198:5215   */\n      add\n        /* \"#utility.yul\":5189:5195   */\n      dup5\n        /* \"#utility.yul\":5145:5216   */\n      tag_273\n      jump\t// in\n    tag_369:\n        /* \"#utility.yul\":5001:5223   */\n      swap3\n      swap2\n      pop\n      pop\n      jump\t// out\n        /* \"#utility.yul\":5229:5398   */\n    tag_274:\n        /* \"#utility.yul\":5313:5324   */\n      0x00\n        /* \"#utility.yul\":5347:5353   */\n      dup3\n        /* \"#utility.yul\":5342:5345   */\n      dup3\n        /* \"#utility.yul\":5335:5354   */\n      mstore\n        /* \"#utility.yul\":5387:5391   */\n      0x20\n        /* \"#utility.yul\":5382:5385   */\n      dup3\n        /* \"#utility.yul\":5378:5392   */\n      add\n        /* \"#utility.yul\":5363:5392   */\n      swap1\n      pop\n        /* \"#utility.yul\":5229:5398   */\n      swap3\n      swap2\n      pop\n      pop\n      jump\t// out\n        /* \"#utility.yul\":5404:5628   */\n    tag_275:\n        /* \"#utility.yul\":5544:5578   */\n      0x4f6e6c7920746865206f776e65722063616e2063616c6c20746869732066756e\n        /* \"#utility.yul\":5540:5541   */\n      0x00\n        /* \"#utility.yul\":5532:5538   */\n      dup3\n        /* \"#utility.yul\":5528:5542   */\n      add\n        /* \"#utility.yul\":5521:5579   */\n      mstore\n        /* \"#utility.yul\":5613:5620   */\n      0x6374696f6e000000000000000000000000000000000000000000000000000000\n        /* \"#utility.yul\":5608:5610   */\n      0x20\n        /* \"#utility.yul\":5600:5606   */\n      dup3\n        /* \"#utility.yul\":5596:5611   */\n      add\n        /* \"#utility.yul\":5589:5621   */\n      mstore\n        /* \"#utility.yul\":5404:5628   */\n      pop\n      jump\t// out\n        /* \"#utility.yul\":5634:6000   */\n    tag_276:\n        /* \"#utility.yul\":5776:5779   */\n      0x00\n        /* \"#utility.yul\":5797:5864   */\n      tag_373\n        /* \"#utility.yul\":5861:5863   */\n      0x25\n        /* \"#utility.yul\":5856:5859   */\n      dup4\n        /* \"#utility.yul\":5797:5864   */\n      tag_274\n      jump\t// in\n    tag_373:\n        /* \"#utility.yul\":5790:5864   */\n      swap2\n      pop\n        /* \"#utility.yul\":5873:5966   */\n      tag_374\n        /* \"#utility.yul\":5962:5965   */\n      dup3\n        /* \"#utility.yul\":5873:5966   */\n      tag_275\n      jump\t// in\n    tag_374:\n        /* \"#utility.yul\":5991:5993   */\n      0x40\n        /* \"#utility.yul\":5986:5989   */\n      dup3\n        /* \"#utility.yul\":5982:5994   */\n      add\n        /* \"#utility.yul\":5975:5994   */\n      swap1\n      pop\n        /* \"#utility.yul\":5634:6000   */\n      swap2\n      swap1\n      pop\n      jump\t// out\n        /* \"#utility.yul\":6006:6425   */\n    tag_115:\n        /* \"#utility.yul\":6172:6176   */\n      0x00\n        /* \"#utility.yul\":6210:6212   */\n      0x20\n        /* \"#utility.yul\":6199:6208   */\n      dup3\n        /* \"#utility.yul\":6195:6213   */\n      add\n        /* \"#utility.yul\":6187:6213   */\n      swap1\n      pop\n        /* \"#utility.yul\":6259:6268   */\n      dup2\n        /* \"#utility.yul\":6253:6257   */\n      dup2\n        /* \"#utility.yul\":6249:6269   */\n      sub\n        /* \"#utility.yul\":6245:6246   */\n      0x00\n        /* \"#utility.yul\":6234:6243   */\n      dup4\n        /* \"#utility.yul\":6230:6247   */\n      add\n        /* \"#utility.yul\":6223:6270   */\n      mstore\n        /* \"#utility.yul\":6287:6418   */\n      tag_376\n        /* \"#utility.yul\":6413:6417   */\n      dup2\n        /* \"#utility.yul\":6287:6418   */\n      tag_276\n      jump\t// in\n    tag_376:\n        /* \"#utility.yul\":6279:6418   */\n      swap1\n      pop\n        /* \"#utility.yul\":6006:6425   */\n      swap2\n      swap1\n      pop\n      jump\t// out\n        /* \"#utility.yul\":6431:6673   */\n    tag_277:\n        /* \"#utility.yul\":6571:6605   */\n      0x41756374696f6e207374696c6c206f70656e206f72206469646e277420706169\n        /* \"#utility.yul\":6567:6568   */\n      0x00\n        /* \"#utility.yul\":6559:6565   */\n      dup3\n        /* \"#utility.yul\":6555:6569   */\n      add\n        /* \"#utility.yul\":6548:6606   */\n      mstore\n        /* \"#utility.yul\":6640:6665   */\n      0x64206261636b20746865206465706f7369747320796574000000000000000000\n        /* \"#utility.yul\":6635:6637   */\n      0x20\n        /* \"#utility.yul\":6627:6633   */\n      dup3\n        /* \"#utility.yul\":6623:6638   */\n      add\n        /* \"#utility.yul\":6616:6666   */\n      mstore\n        /* \"#utility.yul\":6431:6673   */\n      pop\n      jump\t// out\n        /* \"#utility.yul\":6679:7045   */\n    tag_278:\n        /* \"#utility.yul\":6821:6824   */\n      0x00\n        /* \"#utility.yul\":6842:6909   */\n      tag_379\n        /* \"#utility.yul\":6906:6908   */\n      0x37\n        /* \"#utility.yul\":6901:6904   */\n      dup4\n        /* \"#utility.yul\":6842:6909   */\n      tag_274\n      jump\t// in\n    tag_379:\n        /* \"#utility.yul\":6835:6909   */\n      swap2\n      pop\n        /* \"#utility.yul\":6918:7011   */\n      tag_380\n        /* \"#utility.yul\":7007:7010   */\n      dup3\n        /* \"#utility.yul\":6918:7011   */\n      tag_277\n      jump\t// in\n    tag_380:\n        /* \"#utility.yul\":7036:7038   */\n      0x40\n        /* \"#utility.yul\":7031:7034   */\n      dup3\n        /* \"#utility.yul\":7027:7039   */\n      add\n        /* \"#utility.yul\":7020:7039   */\n      swap1\n      pop\n        /* \"#utility.yul\":6679:7045   */\n      swap2\n      swap1\n      pop\n      jump\t// out\n        /* \"#utility.yul\":7051:7470   */\n    tag_124:\n        /* \"#utility.yul\":7217:7221   */\n      0x00\n        /* \"#utility.yul\":7255:7257   */\n      0x20\n        /* \"#utility.yul\":7244:7253   */\n      dup3\n        /* \"#utility.yul\":7240:7258   */\n      add\n        /* \"#utility.yul\":7232:7258   */\n      swap1\n      pop\n        /* \"#utility.yul\":7304:7313   */\n      dup2\n        /* \"#utility.yul\":7298:7302   */\n      dup2\n        /* \"#utility.yul\":7294:7314   */\n      sub\n        /* \"#utility.yul\":7290:7291   */\n      0x00\n        /* \"#utility.yul\":7279:7288   */\n      dup4\n        /* \"#utility.yul\":7275:7292   */\n      add\n        /* \"#utility.yul\":7268:7315   */\n      mstore\n        /* \"#utility.yul\":7332:7463   */\n      tag_382\n        /* \"#utility.yul\":7458:7462   */\n      dup2\n        /* \"#utility.yul\":7332:7463   */\n      tag_278\n      jump\t// in\n    tag_382:\n        /* \"#utility.yul\":7324:7463   */\n      swap1\n      pop\n        /* \"#utility.yul\":7051:7470   */\n      swap2\n      swap1\n      pop\n      jump\t// out\n        /* \"#utility.yul\":7476:7656   */\n    tag_279:\n        /* \"#utility.yul\":7616:7648   */\n      0x5468652064656c69766572792063616e207374696c6c206265206d6164650000\n        /* \"#utility.yul\":7612:7613   */\n      0x00\n        /* \"#utility.yul\":7604:7610   */\n      dup3\n        /* \"#utility.yul\":7600:7614   */\n      add\n        /* \"#utility.yul\":7593:7649   */\n      mstore\n        /* \"#utility.yul\":7476:7656   */\n      pop\n      jump\t// out\n        /* \"#utility.yul\":7662:8028   */\n    tag_280:\n        /* \"#utility.yul\":7804:7807   */\n      0x00\n        /* \"#utility.yul\":7825:7892   */\n      tag_385\n        /* \"#utility.yul\":7889:7891   */\n      0x1e\n        /* \"#utility.yul\":7884:7887   */\n      dup4\n        /* \"#utility.yul\":7825:7892   */\n      tag_274\n      jump\t// in\n    tag_385:\n        /* \"#utility.yul\":7818:7892   */\n      swap2\n      pop\n        /* \"#utility.yul\":7901:7994   */\n      tag_386\n        /* \"#utility.yul\":7990:7993   */\n      dup3\n        /* \"#utility.yul\":7901:7994   */\n      tag_279\n      jump\t// in\n    tag_386:\n        /* \"#utility.yul\":8019:8021   */\n      0x20\n        /* \"#utility.yul\":8014:8017   */\n      dup3\n        /* \"#utility.yul\":8010:8022   */\n      add\n        /* \"#utility.yul\":8003:8022   */\n      swap1\n      pop\n        /* \"#utility.yul\":7662:8028   */\n      swap2\n      swap1\n      pop\n      jump\t// out\n        /* \"#utility.yul\":8034:8453   */\n    tag_127:\n        /* \"#utility.yul\":8200:8204   */\n      0x00\n        /* \"#utility.yul\":8238:8240   */\n      0x20\n        /* \"#utility.yul\":8227:8236   */\n      dup3\n        /* \"#utility.yul\":8223:8241   */\n      add\n        /* \"#utility.yul\":8215:8241   */\n      swap1\n      pop\n        /* \"#utility.yul\":8287:8296   */\n      dup2\n        /* \"#utility.yul\":8281:8285   */\n      dup2\n        /* \"#utility.yul\":8277:8297   */\n      sub\n        /* \"#utility.yul\":8273:8274   */\n      0x00\n        /* \"#utility.yul\":8262:8271   */\n      dup4\n        /* \"#utility.yul\":8258:8275   */\n      add\n        /* \"#utility.yul\":8251:8298   */\n      mstore\n        /* \"#utility.yul\":8315:8446   */\n      tag_388\n        /* \"#utility.yul\":8441:8445   */\n      dup2\n        /* \"#utility.yul\":8315:8446   */\n      tag_280\n      jump\t// in\n    tag_388:\n        /* \"#utility.yul\":8307:8446   */\n      swap1\n      pop\n        /* \"#utility.yul\":8034:8453   */\n      swap2\n      swap1\n      pop\n      jump\t// out\n        /* \"#utility.yul\":8459:8639   */\n    tag_136:\n        /* \"#utility.yul\":8507:8584   */\n      0x4e487b7100000000000000000000000000000000000000000000000000000000\n        /* \"#utility.yul\":8504:8505   */\n      0x00\n        /* \"#utility.yul\":8497:8585   */\n      mstore\n        /* \"#utility.yul\":8604:8608   */\n      0x32\n        /* \"#utility.yul\":8601:8602   */\n      0x04\n        /* \"#utility.yul\":8594:8609   */\n      mstore\n        /* \"#utility.yul\":8628:8632   */\n      0x24\n        /* \"#utility.yul\":8625:8626   */\n      0x00\n        /* \"#utility.yul\":8618:8633   */\n      revert\n        /* \"#utility.yul\":8645:8818   */\n    tag_281:\n        /* \"#utility.yul\":8785:8810   */\n      0x5468652064656c6976657279206973206f766572647565000000000000000000\n        /* \"#utility.yul\":8781:8782   */\n      0x00\n        /* \"#utility.yul\":8773:8779   */\n      dup3\n        /* \"#utility.yul\":8769:8783   */\n      add\n        /* \"#utility.yul\":8762:8811   */\n      mstore\n        /* \"#utility.yul\":8645:8818   */\n      pop\n      jump\t// out\n        /* \"#utility.yul\":8824:9190   */\n    tag_282:\n        /* \"#utility.yul\":8966:8969   */\n      0x00\n        /* \"#utility.yul\":8987:9054   */\n      tag_392\n        /* \"#utility.yul\":9051:9053   */\n      0x17\n        /* \"#utility.yul\":9046:9049   */\n      dup4\n        /* \"#utility.yul\":8987:9054   */\n      tag_274\n      jump\t// in\n    tag_392:\n        /* \"#utility.yul\":8980:9054   */\n      swap2\n      pop\n        /* \"#utility.yul\":9063:9156   */\n      tag_393\n        /* \"#utility.yul\":9152:9155   */\n      dup3\n        /* \"#utility.yul\":9063:9156   */\n      tag_281\n      jump\t// in\n    tag_393:\n        /* \"#utility.yul\":9181:9183   */\n      0x20\n        /* \"#utility.yul\":9176:9179   */\n      dup3\n        /* \"#utility.yul\":9172:9184   */\n      add\n        /* \"#utility.yul\":9165:9184   */\n      swap1\n      pop\n        /* \"#utility.yul\":8824:9190   */\n      swap2\n      swap1\n      pop\n      jump\t// out\n        /* \"#utility.yul\":9196:9615   */\n    tag_154:\n        /* \"#utility.yul\":9362:9366   */\n      0x00\n        /* \"#utility.yul\":9400:9402   */\n      0x20\n        /* \"#utility.yul\":9389:9398   */\n      dup3\n        /* \"#utility.yul\":9385:9403   */\n      add\n        /* \"#utility.yul\":9377:9403   */\n      swap1\n      pop\n        /* \"#utility.yul\":9449:9458   */\n      dup2\n        /* \"#utility.yul\":9443:9447   */\n      dup2\n        /* \"#utility.yul\":9439:9459   */\n      sub\n        /* \"#utility.yul\":9435:9436   */\n      0x00\n        /* \"#utility.yul\":9424:9433   */\n      dup4\n        /* \"#utility.yul\":9420:9437   */\n      add\n        /* \"#utility.yul\":9413:9460   */\n      mstore\n        /* \"#utility.yul\":9477:9608   */\n      tag_395\n        /* \"#utility.yul\":9603:9607   */\n      dup2\n        /* \"#utility.yul\":9477:9608   */\n      tag_282\n      jump\t// in\n    tag_395:\n        /* \"#utility.yul\":9469:9608   */\n      swap1\n      pop\n        /* \"#utility.yul\":9196:9615   */\n      swap2\n      swap1\n      pop\n      jump\t// out\n        /* \"#utility.yul\":9621:9801   */\n    tag_283:\n        /* \"#utility.yul\":9669:9746   */\n      0x4e487b7100000000000000000000000000000000000000000000000000000000\n        /* \"#utility.yul\":9666:9667   */\n      0x00\n        /* \"#utility.yul\":9659:9747   */\n      mstore\n        /* \"#utility.yul\":9766:9770   */\n      0x11\n        /* \"#utility.yul\":9763:9764   */\n      0x04\n        /* \"#utility.yul\":9756:9771   */\n      mstore\n        /* \"#utility.yul\":9790:9794   */\n      0x24\n        /* \"#utility.yul\":9787:9788   */\n      0x00\n        /* \"#utility.yul\":9780:9795   */\n      revert\n        /* \"#utility.yul\":9807:9998   */\n    tag_156:\n        /* \"#utility.yul\":9847:9850   */\n      0x00\n        /* \"#utility.yul\":9866:9886   */\n      tag_398\n        /* \"#utility.yul\":9884:9885   */\n      dup3\n        /* \"#utility.yul\":9866:9886   */\n      tag_263\n      jump\t// in\n    tag_398:\n        /* \"#utility.yul\":9861:9886   */\n      swap2\n      pop\n        /* \"#utility.yul\":9900:9920   */\n      tag_399\n        /* \"#utility.yul\":9918:9919   */\n      dup4\n        /* \"#utility.yul\":9900:9920   */\n      tag_263\n      jump\t// in\n    tag_399:\n        /* \"#utility.yul\":9895:9920   */\n      swap3\n      pop\n        /* \"#utility.yul\":9943:9944   */\n      dup3\n        /* \"#utility.yul\":9940:9941   */\n      dup3\n        /* \"#utility.yul\":9936:9945   */\n      add\n        /* \"#utility.yul\":9929:9945   */\n      swap1\n      pop\n        /* \"#utility.yul\":9964:9967   */\n      dup1\n        /* \"#utility.yul\":9961:9962   */\n      dup3\n        /* \"#utility.yul\":9958:9968   */\n      gt\n        /* \"#utility.yul\":9955:9991   */\n      iszero\n      tag_400\n      jumpi\n        /* \"#utility.yul\":9971:9989   */\n      tag_401\n      tag_283\n      jump\t// in\n    tag_401:\n        /* \"#utility.yul\":9955:9991   */\n    tag_400:\n        /* \"#utility.yul\":9807:9998   */\n      swap3\n      swap2\n      pop\n      pop\n      jump\t// out\n        /* \"#utility.yul\":10004:10172   */\n    tag_284:\n        /* \"#utility.yul\":10144:10164   */\n      0x41756374696f6e206e6f74206163746976650000000000000000000000000000\n        /* \"#utility.yul\":10140:10141   */\n      0x00\n        /* \"#utility.yul\":10132:10138   */\n      dup3\n        /* \"#utility.yul\":10128:10142   */\n      add\n        /* \"#utility.yul\":10121:10165   */\n      mstore\n        /* \"#utility.yul\":10004:10172   */\n      pop\n      jump\t// out\n        /* \"#utility.yul\":10178:10544   */\n    tag_285:\n        /* \"#utility.yul\":10320:10323   */\n      0x00\n        /* \"#utility.yul\":10341:10408   */\n      tag_404\n        /* \"#utility.yul\":10405:10407   */\n      0x12\n        /* \"#utility.yul\":10400:10403   */\n      dup4\n        /* \"#utility.yul\":10341:10408   */\n      tag_274\n      jump\t// in\n    tag_404:\n        /* \"#utility.yul\":10334:10408   */\n      swap2\n      pop\n        /* \"#utility.yul\":10417:10510   */\n      tag_405\n        /* \"#utility.yul\":10506:10509   */\n      dup3\n        /* \"#utility.yul\":10417:10510   */\n      tag_284\n      jump\t// in\n    tag_405:\n        /* \"#utility.yul\":10535:10537   */\n      0x20\n        /* \"#utility.yul\":10530:10533   */\n      dup3\n        /* \"#utility.yul\":10526:10538   */\n      add\n        /* \"#utility.yul\":10519:10538   */\n      swap1\n      pop\n        /* \"#utility.yul\":10178:10544   */\n      swap2\n      swap1\n      pop\n      jump\t// out\n        /* \"#utility.yul\":10550:10969   */\n    tag_168:\n        /* \"#utility.yul\":10716:10720   */\n      0x00\n        /* \"#utility.yul\":10754:10756   */\n      0x20\n        /* \"#utility.yul\":10743:10752   */\n      dup3\n        /* \"#utility.yul\":10739:10757   */\n      add\n        /* \"#utility.yul\":10731:10757   */\n      swap1\n      pop\n        /* \"#utility.yul\":10803:10812   */\n      dup2\n        /* \"#utility.yul\":10797:10801   */\n      dup2\n        /* \"#utility.yul\":10793:10813   */\n      sub\n        /* \"#utility.yul\":10789:10790   */\n      0x00\n        /* \"#utility.yul\":10778:10787   */\n      dup4\n        /* \"#utility.yul\":10774:10791   */\n      add\n        /* \"#utility.yul\":10767:10814   */\n      mstore\n        /* \"#utility.yul\":10831:10962   */\n      tag_407\n        /* \"#utility.yul\":10957:10961   */\n      dup2\n        /* \"#utility.yul\":10831:10962   */\n      tag_285\n      jump\t// in\n    tag_407:\n        /* \"#utility.yul\":10823:10962   */\n      swap1\n      pop\n        /* \"#utility.yul\":10550:10969   */\n      swap2\n      swap1\n      pop\n      jump\t// out\n        /* \"#utility.yul\":10975:11197   */\n    tag_286:\n        /* \"#utility.yul\":11115:11149   */\n      0x4f757473696465206f66207468652061756374696f6e27732074696d65207261\n        /* \"#utility.yul\":11111:11112   */\n      0x00\n        /* \"#utility.yul\":11103:11109   */\n      dup3\n        /* \"#utility.yul\":11099:11113   */\n      add\n        /* \"#utility.yul\":11092:11150   */\n      mstore\n        /* \"#utility.yul\":11184:11189   */\n      0x6e67650000000000000000000000000000000000000000000000000000000000\n        /* \"#utility.yul\":11179:11181   */\n      0x20\n        /* \"#utility.yul\":11171:11177   */\n      dup3\n        /* \"#utility.yul\":11167:11182   */\n      add\n        /* \"#utility.yul\":11160:11190   */\n      mstore\n        /* \"#utility.yul\":10975:11197   */\n      pop\n      jump\t// out\n        /* \"#utility.yul\":11203:11569   */\n    tag_287:\n        /* \"#utility.yul\":11345:11348   */\n      0x00\n        /* \"#utility.yul\":11366:11433   */\n      tag_410\n        /* \"#utility.yul\":11430:11432   */\n      0x23\n        /* \"#utility.yul\":11425:11428   */\n      dup4\n        /* \"#utility.yul\":11366:11433   */\n      tag_274\n      jump\t// in\n    tag_410:\n        /* \"#utility.yul\":11359:11433   */\n      swap2\n      pop\n        /* \"#utility.yul\":11442:11535   */\n      tag_411\n        /* \"#utility.yul\":11531:11534   */\n      dup3\n        /* \"#utility.yul\":11442:11535   */\n      tag_286\n      jump\t// in\n    tag_411:\n        /* \"#utility.yul\":11560:11562   */\n      0x40\n        /* \"#utility.yul\":11555:11558   */\n      dup3\n        /* \"#utility.yul\":11551:11563   */\n      add\n        /* \"#utility.yul\":11544:11563   */\n      swap1\n      pop\n        /* \"#utility.yul\":11203:11569   */\n      swap2\n      swap1\n      pop\n      jump\t// out\n        /* \"#utility.yul\":11575:11994   */\n    tag_172:\n        /* \"#utility.yul\":11741:11745   */\n      0x00\n        /* \"#utility.yul\":11779:11781   */\n      0x20\n        /* \"#utility.yul\":11768:11777   */\n      dup3\n        /* \"#utility.yul\":11764:11782   */\n      add\n        /* \"#utility.yul\":11756:11782   */\n      swap1\n      pop\n        /* \"#utility.yul\":11828:11837   */\n      dup2\n        /* \"#utility.yul\":11822:11826   */\n      dup2\n        /* \"#utility.yul\":11818:11838   */\n      sub\n        /* \"#utility.yul\":11814:11815   */\n      0x00\n        /* \"#utility.yul\":11803:11812   */\n      dup4\n        /* \"#utility.yul\":11799:11816   */\n      add\n        /* \"#utility.yul\":11792:11839   */\n      mstore\n        /* \"#utility.yul\":11856:11987   */\n      tag_413\n        /* \"#utility.yul\":11982:11986   */\n      dup2\n        /* \"#utility.yul\":11856:11987   */\n      tag_287\n      jump\t// in\n    tag_413:\n        /* \"#utility.yul\":11848:11987   */\n      swap1\n      pop\n        /* \"#utility.yul\":11575:11994   */\n      swap2\n      swap1\n      pop\n      jump\t// out\n        /* \"#utility.yul\":12000:12169   */\n    tag_288:\n        /* \"#utility.yul\":12140:12161   */\n      0x54686520626964206d757374206265203e203000000000000000000000000000\n        /* \"#utility.yul\":12136:12137   */\n      0x00\n        /* \"#utility.yul\":12128:12134   */\n      dup3\n        /* \"#utility.yul\":12124:12138   */\n      add\n        /* \"#utility.yul\":12117:12162   */\n      mstore\n        /* \"#utility.yul\":12000:12169   */\n      pop\n      jump\t// out\n        /* \"#utility.yul\":12175:12541   */\n    tag_289:\n        /* \"#utility.yul\":12317:12320   */\n      0x00\n        /* \"#utility.yul\":12338:12405   */\n      tag_416\n        /* \"#utility.yul\":12402:12404   */\n      0x13\n        /* \"#utility.yul\":12397:12400   */\n      dup4\n        /* \"#utility.yul\":12338:12405   */\n      tag_274\n      jump\t// in\n    tag_416:\n        /* \"#utility.yul\":12331:12405   */\n      swap2\n      pop\n        /* \"#utility.yul\":12414:12507   */\n      tag_417\n        /* \"#utility.yul\":12503:12506   */\n      dup3\n        /* \"#utility.yul\":12414:12507   */\n      tag_288\n      jump\t// in\n    tag_417:\n        /* \"#utility.yul\":12532:12534   */\n      0x20\n        /* \"#utility.yul\":12527:12530   */\n      dup3\n        /* \"#utility.yul\":12523:12535   */\n      add\n        /* \"#utility.yul\":12516:12535   */\n      swap1\n      pop\n        /* \"#utility.yul\":12175:12541   */\n      swap2\n      swap1\n      pop\n      jump\t// out\n        /* \"#utility.yul\":12547:12966   */\n    tag_176:\n        /* \"#utility.yul\":12713:12717   */\n      0x00\n        /* \"#utility.yul\":12751:12753   */\n      0x20\n        /* \"#utility.yul\":12740:12749   */\n      dup3\n        /* \"#utility.yul\":12736:12754   */\n      add\n        /* \"#utility.yul\":12728:12754   */\n      swap1\n      pop\n        /* \"#utility.yul\":12800:12809   */\n      dup2\n        /* \"#utility.yul\":12794:12798   */\n      dup2\n        /* \"#utility.yul\":12790:12810   */\n      sub\n        /* \"#utility.yul\":12786:12787   */\n      0x00\n        /* \"#utility.yul\":12775:12784   */\n      dup4\n        /* \"#utility.yul\":12771:12788   */\n      add\n        /* \"#utility.yul\":12764:12811   */\n      mstore\n        /* \"#utility.yul\":12828:12959   */\n      tag_419\n        /* \"#utility.yul\":12954:12958   */\n      dup2\n        /* \"#utility.yul\":12828:12959   */\n      tag_289\n      jump\t// in\n    tag_419:\n        /* \"#utility.yul\":12820:12959   */\n      swap1\n      pop\n        /* \"#utility.yul\":12547:12966   */\n      swap2\n      swap1\n      pop\n      jump\t// out\n        /* \"#utility.yul\":12972:13193   */\n    tag_290:\n        /* \"#utility.yul\":13112:13146   */\n      0x5468652062696420697320686967686572207468616e20746865206d6178696d\n        /* \"#utility.yul\":13108:13109   */\n      0x00\n        /* \"#utility.yul\":13100:13106   */\n      dup3\n        /* \"#utility.yul\":13096:13110   */\n      add\n        /* \"#utility.yul\":13089:13147   */\n      mstore\n        /* \"#utility.yul\":13181:13185   */\n      0x756d000000000000000000000000000000000000000000000000000000000000\n        /* \"#utility.yul\":13176:13178   */\n      0x20\n        /* \"#utility.yul\":13168:13174   */\n      dup3\n        /* \"#utility.yul\":13164:13179   */\n      add\n        /* \"#utility.yul\":13157:13186   */\n      mstore\n        /* \"#utility.yul\":12972:13193   */\n      pop\n      jump\t// out\n        /* \"#utility.yul\":13199:13565   */\n    tag_291:\n        /* \"#utility.yul\":13341:13344   */\n      0x00\n        /* \"#utility.yul\":13362:13429   */\n      tag_422\n        /* \"#utility.yul\":13426:13428   */\n      0x22\n        /* \"#utility.yul\":13421:13424   */\n      dup4\n        /* \"#utility.yul\":13362:13429   */\n      tag_274\n      jump\t// in\n    tag_422:\n        /* \"#utility.yul\":13355:13429   */\n      swap2\n      pop\n        /* \"#utility.yul\":13438:13531   */\n      tag_423\n        /* \"#utility.yul\":13527:13530   */\n      dup3\n        /* \"#utility.yul\":13438:13531   */\n      tag_290\n      jump\t// in\n    tag_423:\n        /* \"#utility.yul\":13556:13558   */\n      0x40\n        /* \"#utility.yul\":13551:13554   */\n      dup3\n        /* \"#utility.yul\":13547:13559   */\n      add\n        /* \"#utility.yul\":13540:13559   */\n      swap1\n      pop\n        /* \"#utility.yul\":13199:13565   */\n      swap2\n      swap1\n      pop\n      jump\t// out\n        /* \"#utility.yul\":13571:13990   */\n    tag_179:\n        /* \"#utility.yul\":13737:13741   */\n      0x00\n        /* \"#utility.yul\":13775:13777   */\n      0x20\n        /* \"#utility.yul\":13764:13773   */\n      dup3\n        /* \"#utility.yul\":13760:13778   */\n      add\n        /* \"#utility.yul\":13752:13778   */\n      swap1\n      pop\n        /* \"#utility.yul\":13824:13833   */\n      dup2\n        /* \"#utility.yul\":13818:13822   */\n      dup2\n        /* \"#utility.yul\":13814:13834   */\n      sub\n        /* \"#utility.yul\":13810:13811   */\n      0x00\n        /* \"#utility.yul\":13799:13808   */\n      dup4\n        /* \"#utility.yul\":13795:13812   */\n      add\n        /* \"#utility.yul\":13788:13835   */\n      mstore\n        /* \"#utility.yul\":13852:13983   */\n      tag_425\n        /* \"#utility.yul\":13978:13982   */\n      dup2\n        /* \"#utility.yul\":13852:13983   */\n      tag_291\n      jump\t// in\n    tag_425:\n        /* \"#utility.yul\":13844:13983   */\n      swap1\n      pop\n        /* \"#utility.yul\":13571:13990   */\n      swap2\n      swap1\n      pop\n      jump\t// out\n        /* \"#utility.yul\":13996:14175   */\n    tag_292:\n        /* \"#utility.yul\":14136:14167   */\n      0x596f75206861766520616c726561647920706172746963697061746564000000\n        /* \"#utility.yul\":14132:14133   */\n      0x00\n        /* \"#utility.yul\":14124:14130   */\n      dup3\n        /* \"#utility.yul\":14120:14134   */\n      add\n        /* \"#utility.yul\":14113:14168   */\n      mstore\n        /* \"#utility.yul\":13996:14175   */\n      pop\n      jump\t// out\n        /* \"#utility.yul\":14181:14547   */\n    tag_293:\n        /* \"#utility.yul\":14323:14326   */\n      0x00\n        /* \"#utility.yul\":14344:14411   */\n      tag_428\n        /* \"#utility.yul\":14408:14410   */\n      0x1d\n        /* \"#utility.yul\":14403:14406   */\n      dup4\n        /* \"#utility.yul\":14344:14411   */\n      tag_274\n      jump\t// in\n    tag_428:\n        /* \"#utility.yul\":14337:14411   */\n      swap2\n      pop\n        /* \"#utility.yul\":14420:14513   */\n      tag_429\n        /* \"#utility.yul\":14509:14512   */\n      dup3\n        /* \"#utility.yul\":14420:14513   */\n      tag_292\n      jump\t// in\n    tag_429:\n        /* \"#utility.yul\":14538:14540   */\n      0x20\n        /* \"#utility.yul\":14533:14536   */\n      dup3\n        /* \"#utility.yul\":14529:14541   */\n      add\n        /* \"#utility.yul\":14522:14541   */\n      swap1\n      pop\n        /* \"#utility.yul\":14181:14547   */\n      swap2\n      swap1\n      pop\n      jump\t// out\n        /* \"#utility.yul\":14553:14972   */\n    tag_183:\n        /* \"#utility.yul\":14719:14723   */\n      0x00\n        /* \"#utility.yul\":14757:14759   */\n      0x20\n        /* \"#utility.yul\":14746:14755   */\n      dup3\n        /* \"#utility.yul\":14742:14760   */\n      add\n        /* \"#utility.yul\":14734:14760   */\n      swap1\n      pop\n        /* \"#utility.yul\":14806:14815   */\n      dup2\n        /* \"#utility.yul\":14800:14804   */\n      dup2\n        /* \"#utility.yul\":14796:14816   */\n      sub\n        /* \"#utility.yul\":14792:14793   */\n      0x00\n        /* \"#utility.yul\":14781:14790   */\n      dup4\n        /* \"#utility.yul\":14777:14794   */\n      add\n        /* \"#utility.yul\":14770:14817   */\n      mstore\n        /* \"#utility.yul\":14834:14965   */\n      tag_431\n        /* \"#utility.yul\":14960:14964   */\n      dup2\n        /* \"#utility.yul\":14834:14965   */\n      tag_293\n      jump\t// in\n    tag_431:\n        /* \"#utility.yul\":14826:14965   */\n      swap1\n      pop\n        /* \"#utility.yul\":14553:14972   */\n      swap2\n      swap1\n      pop\n      jump\t// out\n        /* \"#utility.yul\":14978:15223   */\n    tag_294:\n        /* \"#utility.yul\":15118:15152   */\n      0x5468652061756374696f6e20686173207265616368656420746865206d617869\n        /* \"#utility.yul\":15114:15115   */\n      0x00\n        /* \"#utility.yul\":15106:15112   */\n      dup3\n        /* \"#utility.yul\":15102:15116   */\n      add\n        /* \"#utility.yul\":15095:15153   */\n      mstore\n        /* \"#utility.yul\":15187:15215   */\n      0x6d756d206e756d626572206f66207061727469636970616e7473000000000000\n        /* \"#utility.yul\":15182:15184   */\n      0x20\n        /* \"#utility.yul\":15174:15180   */\n      dup3\n        /* \"#utility.yul\":15170:15185   */\n      add\n        /* \"#utility.yul\":15163:15216   */\n      mstore\n        /* \"#utility.yul\":14978:15223   */\n      pop\n      jump\t// out\n        /* \"#utility.yul\":15229:15595   */\n    tag_295:\n        /* \"#utility.yul\":15371:15374   */\n      0x00\n        /* \"#utility.yul\":15392:15459   */\n      tag_434\n        /* \"#utility.yul\":15456:15458   */\n      0x3a\n        /* \"#utility.yul\":15451:15454   */\n      dup4\n        /* \"#utility.yul\":15392:15459   */\n      tag_274\n      jump\t// in\n    tag_434:\n        /* \"#utility.yul\":15385:15459   */\n      swap2\n      pop\n        /* \"#utility.yul\":15468:15561   */\n      tag_435\n        /* \"#utility.yul\":15557:15560   */\n      dup3\n        /* \"#utility.yul\":15468:15561   */\n      tag_294\n      jump\t// in\n    tag_435:\n        /* \"#utility.yul\":15586:15588   */\n      0x40\n        /* \"#utility.yul\":15581:15584   */\n      dup3\n        /* \"#utility.yul\":15577:15589   */\n      add\n        /* \"#utility.yul\":15570:15589   */\n      swap1\n      pop\n        /* \"#utility.yul\":15229:15595   */\n      swap2\n      swap1\n      pop\n      jump\t// out\n        /* \"#utility.yul\":15601:16020   */\n    tag_186:\n        /* \"#utility.yul\":15767:15771   */\n      0x00\n        /* \"#utility.yul\":15805:15807   */\n      0x20\n        /* \"#utility.yul\":15794:15803   */\n      dup3\n        /* \"#utility.yul\":15790:15808   */\n      add\n        /* \"#utility.yul\":15782:15808   */\n      swap1\n      pop\n        /* \"#utility.yul\":15854:15863   */\n      dup2\n        /* \"#utility.yul\":15848:15852   */\n      dup2\n        /* \"#utility.yul\":15844:15864   */\n      sub\n        /* \"#utility.yul\":15840:15841   */\n      0x00\n        /* \"#utility.yul\":15829:15838   */\n      dup4\n        /* \"#utility.yul\":15825:15842   */\n      add\n        /* \"#utility.yul\":15818:15865   */\n      mstore\n        /* \"#utility.yul\":15882:16013   */\n      tag_437\n        /* \"#utility.yul\":16008:16012   */\n      dup2\n        /* \"#utility.yul\":15882:16013   */\n      tag_295\n      jump\t// in\n    tag_437:\n        /* \"#utility.yul\":15874:16013   */\n      swap1\n      pop\n        /* \"#utility.yul\":15601:16020   */\n      swap2\n      swap1\n      pop\n      jump\t// out\n        /* \"#utility.yul\":16026:16255   */\n    tag_296:\n        /* \"#utility.yul\":16166:16200   */\n      0x596f752063616e6e6f7420706c616365206120626964206f6e20796f7572206f\n        /* \"#utility.yul\":16162:16163   */\n      0x00\n        /* \"#utility.yul\":16154:16160   */\n      dup3\n        /* \"#utility.yul\":16150:16164   */\n      add\n        /* \"#utility.yul\":16143:16201   */\n      mstore\n        /* \"#utility.yul\":16235:16247   */\n      0x776e2061756374696f6e00000000000000000000000000000000000000000000\n        /* \"#utility.yul\":16230:16232   */\n      0x20\n        /* \"#utility.yul\":16222:16228   */\n      dup3\n        /* \"#utility.yul\":16218:16233   */\n      add\n        /* \"#utility.yul\":16211:16248   */\n      mstore\n        /* \"#utility.yul\":16026:16255   */\n      pop\n      jump\t// out\n        /* \"#utility.yul\":16261:16627   */\n    tag_297:\n        /* \"#utility.yul\":16403:16406   */\n      0x00\n        /* \"#utility.yul\":16424:16491   */\n      tag_440\n        /* \"#utility.yul\":16488:16490   */\n      0x2a\n        /* \"#utility.yul\":16483:16486   */\n      dup4\n        /* \"#utility.yul\":16424:16491   */\n      tag_274\n      jump\t// in\n    tag_440:\n        /* \"#utility.yul\":16417:16491   */\n      swap2\n      pop\n        /* \"#utility.yul\":16500:16593   */\n      tag_441\n        /* \"#utility.yul\":16589:16592   */\n      dup3\n        /* \"#utility.yul\":16500:16593   */\n      tag_296\n      jump\t// in\n    tag_441:\n        /* \"#utility.yul\":16618:16620   */\n      0x40\n        /* \"#utility.yul\":16613:16616   */\n      dup3\n        /* \"#utility.yul\":16609:16621   */\n      add\n        /* \"#utility.yul\":16602:16621   */\n      swap1\n      pop\n        /* \"#utility.yul\":16261:16627   */\n      swap2\n      swap1\n      pop\n      jump\t// out\n        /* \"#utility.yul\":16633:17052   */\n    tag_189:\n        /* \"#utility.yul\":16799:16803   */\n      0x00\n        /* \"#utility.yul\":16837:16839   */\n      0x20\n        /* \"#utility.yul\":16826:16835   */\n      dup3\n        /* \"#utility.yul\":16822:16840   */\n      add\n        /* \"#utility.yul\":16814:16840   */\n      swap1\n      pop\n        /* \"#utility.yul\":16886:16895   */\n      dup2\n        /* \"#utility.yul\":16880:16884   */\n      dup2\n        /* \"#utility.yul\":16876:16896   */\n      sub\n        /* \"#utility.yul\":16872:16873   */\n      0x00\n        /* \"#utility.yul\":16861:16870   */\n      dup4\n        /* \"#utility.yul\":16857:16874   */\n      add\n        /* \"#utility.yul\":16850:16897   */\n      mstore\n        /* \"#utility.yul\":16914:17045   */\n      tag_443\n        /* \"#utility.yul\":17040:17044   */\n      dup2\n        /* \"#utility.yul\":16914:17045   */\n      tag_297\n      jump\t// in\n    tag_443:\n        /* \"#utility.yul\":16906:17045   */\n      swap1\n      pop\n        /* \"#utility.yul\":16633:17052   */\n      swap2\n      swap1\n      pop\n      jump\t// out\n        /* \"#utility.yul\":17058:17468   */\n    tag_191:\n        /* \"#utility.yul\":17098:17105   */\n      0x00\n        /* \"#utility.yul\":17121:17141   */\n      tag_445\n        /* \"#utility.yul\":17139:17140   */\n      dup3\n        /* \"#utility.yul\":17121:17141   */\n      tag_263\n      jump\t// in\n    tag_445:\n        /* \"#utility.yul\":17116:17141   */\n      swap2\n      pop\n        /* \"#utility.yul\":17155:17175   */\n      tag_446\n        /* \"#utility.yul\":17173:17174   */\n      dup4\n        /* \"#utility.yul\":17155:17175   */\n      tag_263\n      jump\t// in\n    tag_446:\n        /* \"#utility.yul\":17150:17175   */\n      swap3\n      pop\n        /* \"#utility.yul\":17210:17211   */\n      dup3\n        /* \"#utility.yul\":17207:17208   */\n      dup3\n        /* \"#utility.yul\":17203:17212   */\n      mul\n        /* \"#utility.yul\":17232:17262   */\n      tag_447\n        /* \"#utility.yul\":17250:17261   */\n      dup2\n        /* \"#utility.yul\":17232:17262   */\n      tag_263\n      jump\t// in\n    tag_447:\n        /* \"#utility.yul\":17221:17262   */\n      swap2\n      pop\n        /* \"#utility.yul\":17411:17412   */\n      dup3\n        /* \"#utility.yul\":17402:17409   */\n      dup3\n        /* \"#utility.yul\":17398:17413   */\n      div\n        /* \"#utility.yul\":17395:17396   */\n      dup5\n        /* \"#utility.yul\":17392:17414   */\n      eq\n        /* \"#utility.yul\":17372:17373   */\n      dup4\n        /* \"#utility.yul\":17365:17374   */\n      iszero\n        /* \"#utility.yul\":17345:17428   */\n      or\n        /* \"#utility.yul\":17322:17461   */\n      tag_448\n      jumpi\n        /* \"#utility.yul\":17441:17459   */\n      tag_449\n      tag_283\n      jump\t// in\n    tag_449:\n        /* \"#utility.yul\":17322:17461   */\n    tag_448:\n        /* \"#utility.yul\":17106:17468   */\n      pop\n        /* \"#utility.yul\":17058:17468   */\n      swap3\n      swap2\n      pop\n      pop\n      jump\t// out\n        /* \"#utility.yul\":17474:17654   */\n    tag_298:\n        /* \"#utility.yul\":17522:17599   */\n      0x4e487b7100000000000000000000000000000000000000000000000000000000\n        /* \"#utility.yul\":17519:17520   */\n      0x00\n        /* \"#utility.yul\":17512:17600   */\n      mstore\n        /* \"#utility.yul\":17619:17623   */\n      0x12\n        /* \"#utility.yul\":17616:17617   */\n      0x04\n        /* \"#utility.yul\":17609:17624   */\n      mstore\n        /* \"#utility.yul\":17643:17647   */\n      0x24\n        /* \"#utility.yul\":17640:17641   */\n      0x00\n        /* \"#utility.yul\":17633:17648   */\n      revert\n        /* \"#utility.yul\":17660:17845   */\n    tag_193:\n        /* \"#utility.yul\":17700:17701   */\n      0x00\n        /* \"#utility.yul\":17717:17737   */\n      tag_452\n        /* \"#utility.yul\":17735:17736   */\n      dup3\n        /* \"#utility.yul\":17717:17737   */\n      tag_263\n      jump\t// in\n    tag_452:\n        /* \"#utility.yul\":17712:17737   */\n      swap2\n      pop\n        /* \"#utility.yul\":17751:17771   */\n      tag_453\n        /* \"#utility.yul\":17769:17770   */\n      dup4\n        /* \"#utility.yul\":17751:17771   */\n      tag_263\n      jump\t// in\n    tag_453:\n        /* \"#utility.yul\":17746:17771   */\n      swap3\n      pop\n        /* \"#utility.yul\":17790:17791   */\n      dup3\n        /* \"#utility.yul\":17780:17815   */\n      tag_454\n      jumpi\n        /* \"#utility.yul\":17795:17813   */\n      tag_455\n      tag_298\n      jump\t// in\n    tag_455:\n        /* \"#utility.yul\":17780:17815   */\n    tag_454:\n        /* \"#utility.yul\":17837:17838   */\n      dup3\n        /* \"#utility.yul\":17834:17835   */\n      dup3\n        /* \"#utility.yul\":17830:17839   */\n      div\n        /* \"#utility.yul\":17825:17839   */\n      swap1\n      pop\n        /* \"#utility.yul\":17660:17845   */\n      swap3\n      swap2\n      pop\n      pop\n      jump\t// out\n        /* \"#utility.yul\":17851:18081   */\n    tag_299:\n        /* \"#utility.yul\":17991:18025   */\n      0x546865206465706f736974206d757374206265206174206c6561737420313025\n        /* \"#utility.yul\":17987:17988   */\n      0x00\n        /* \"#utility.yul\":17979:17985   */\n      dup3\n        /* \"#utility.yul\":17975:17989   */\n      add\n        /* \"#utility.yul\":17968:18026   */\n      mstore\n        /* \"#utility.yul\":18060:18073   */\n      0x206f662074686520626964000000000000000000000000000000000000000000\n        /* \"#utility.yul\":18055:18057   */\n      0x20\n        /* \"#utility.yul\":18047:18053   */\n      dup3\n        /* \"#utility.yul\":18043:18058   */\n      add\n        /* \"#utility.yul\":18036:18074   */\n      mstore\n        /* \"#utility.yul\":17851:18081   */\n      pop\n      jump\t// out\n        /* \"#utility.yul\":18087:18453   */\n    tag_300:\n        /* \"#utility.yul\":18229:18232   */\n      0x00\n        /* \"#utility.yul\":18250:18317   */\n      tag_458\n        /* \"#utility.yul\":18314:18316   */\n      0x2b\n        /* \"#utility.yul\":18309:18312   */\n      dup4\n        /* \"#utility.yul\":18250:18317   */\n      tag_274\n      jump\t// in\n    tag_458:\n        /* \"#utility.yul\":18243:18317   */\n      swap2\n      pop\n        /* \"#utility.yul\":18326:18419   */\n      tag_459\n        /* \"#utility.yul\":18415:18418   */\n      dup3\n        /* \"#utility.yul\":18326:18419   */\n      tag_299\n      jump\t// in\n    tag_459:\n        /* \"#utility.yul\":18444:18446   */\n      0x40\n        /* \"#utility.yul\":18439:18442   */\n      dup3\n        /* \"#utility.yul\":18435:18447   */\n      add\n        /* \"#utility.yul\":18428:18447   */\n      swap1\n      pop\n        /* \"#utility.yul\":18087:18453   */\n      swap2\n      swap1\n      pop\n      jump\t// out\n        /* \"#utility.yul\":18459:18878   */\n    tag_196:\n        /* \"#utility.yul\":18625:18629   */\n      0x00\n        /* \"#utility.yul\":18663:18665   */\n      0x20\n        /* \"#utility.yul\":18652:18661   */\n      dup3\n        /* \"#utility.yul\":18648:18666   */\n      add\n        /* \"#utility.yul\":18640:18666   */\n      swap1\n      pop\n        /* \"#utility.yul\":18712:18721   */\n      dup2\n        /* \"#utility.yul\":18706:18710   */\n      dup2\n        /* \"#utility.yul\":18702:18722   */\n      sub\n        /* \"#utility.yul\":18698:18699   */\n      0x00\n        /* \"#utility.yul\":18687:18696   */\n      dup4\n        /* \"#utility.yul\":18683:18700   */\n      add\n        /* \"#utility.yul\":18676:18723   */\n      mstore\n        /* \"#utility.yul\":18740:18871   */\n      tag_461\n        /* \"#utility.yul\":18866:18870   */\n      dup2\n        /* \"#utility.yul\":18740:18871   */\n      tag_300\n      jump\t// in\n    tag_461:\n        /* \"#utility.yul\":18732:18871   */\n      swap1\n      pop\n        /* \"#utility.yul\":18459:18878   */\n      swap2\n      swap1\n      pop\n      jump\t// out\n        /* \"#utility.yul\":18884:19048   */\n    tag_301:\n        /* \"#utility.yul\":19024:19040   */\n      0x41756374696f6e20636c6f736564000000000000000000000000000000000000\n        /* \"#utility.yul\":19020:19021   */\n      0x00\n        /* \"#utility.yul\":19012:19018   */\n      dup3\n        /* \"#utility.yul\":19008:19022   */\n      add\n        /* \"#utility.yul\":19001:19041   */\n      mstore\n        /* \"#utility.yul\":18884:19048   */\n      pop\n      jump\t// out\n        /* \"#utility.yul\":19054:19420   */\n    tag_302:\n        /* \"#utility.yul\":19196:19199   */\n      0x00\n        /* \"#utility.yul\":19217:19284   */\n      tag_464\n        /* \"#utility.yul\":19281:19283   */\n      0x0e\n        /* \"#utility.yul\":19276:19279   */\n      dup4\n        /* \"#utility.yul\":19217:19284   */\n      tag_274\n      jump\t// in\n    tag_464:\n        /* \"#utility.yul\":19210:19284   */\n      swap2\n      pop\n        /* \"#utility.yul\":19293:19386   */\n      tag_465\n        /* \"#utility.yul\":19382:19385   */\n      dup3\n        /* \"#utility.yul\":19293:19386   */\n      tag_301\n      jump\t// in\n    tag_465:\n        /* \"#utility.yul\":19411:19413   */\n      0x20\n        /* \"#utility.yul\":19406:19409   */\n      dup3\n        /* \"#utility.yul\":19402:19414   */\n      add\n        /* \"#utility.yul\":19395:19414   */\n      swap1\n      pop\n        /* \"#utility.yul\":19054:19420   */\n      swap2\n      swap1\n      pop\n      jump\t// out\n        /* \"#utility.yul\":19426:19845   */\n    tag_212:\n        /* \"#utility.yul\":19592:19596   */\n      0x00\n        /* \"#utility.yul\":19630:19632   */\n      0x20\n        /* \"#utility.yul\":19619:19628   */\n      dup3\n        /* \"#utility.yul\":19615:19633   */\n      add\n        /* \"#utility.yul\":19607:19633   */\n      swap1\n      pop\n        /* \"#utility.yul\":19679:19688   */\n      dup2\n        /* \"#utility.yul\":19673:19677   */\n      dup2\n        /* \"#utility.yul\":19669:19689   */\n      sub\n        /* \"#utility.yul\":19665:19666   */\n      0x00\n        /* \"#utility.yul\":19654:19663   */\n      dup4\n        /* \"#utility.yul\":19650:19667   */\n      add\n        /* \"#utility.yul\":19643:19690   */\n      mstore\n        /* \"#utility.yul\":19707:19838   */\n      tag_467\n        /* \"#utility.yul\":19833:19837   */\n      dup2\n        /* \"#utility.yul\":19707:19838   */\n      tag_302\n      jump\t// in\n    tag_467:\n        /* \"#utility.yul\":19699:19838   */\n      swap1\n      pop\n        /* \"#utility.yul\":19426:19845   */\n      swap2\n      swap1\n      pop\n      jump\t// out\n        /* \"#utility.yul\":19851:20074   */\n    tag_303:\n        /* \"#utility.yul\":19991:20025   */\n      0x5468652061756374696f6e2063616e6e6f7420626520636c6f73656420656172\n        /* \"#utility.yul\":19987:19988   */\n      0x00\n        /* \"#utility.yul\":19979:19985   */\n      dup3\n        /* \"#utility.yul\":19975:19989   */\n      add\n        /* \"#utility.yul\":19968:20026   */\n      mstore\n        /* \"#utility.yul\":20060:20066   */\n      0x6c69657200000000000000000000000000000000000000000000000000000000\n        /* \"#utility.yul\":20055:20057   */\n      0x20\n        /* \"#utility.yul\":20047:20053   */\n      dup3\n        /* \"#utility.yul\":20043:20058   */\n      add\n        /* \"#utility.yul\":20036:20067   */\n      mstore\n        /* \"#utility.yul\":19851:20074   */\n      pop\n      jump\t// out\n        /* \"#utility.yul\":20080:20446   */\n    tag_304:\n        /* \"#utility.yul\":20222:20225   */\n      0x00\n        /* \"#utility.yul\":20243:20310   */\n      tag_470\n        /* \"#utility.yul\":20307:20309   */\n      0x24\n        /* \"#utility.yul\":20302:20305   */\n      dup4\n        /* \"#utility.yul\":20243:20310   */\n      tag_274\n      jump\t// in\n    tag_470:\n        /* \"#utility.yul\":20236:20310   */\n      swap2\n      pop\n        /* \"#utility.yul\":20319:20412   */\n      tag_471\n        /* \"#utility.yul\":20408:20411   */\n      dup3\n        /* \"#utility.yul\":20319:20412   */\n      tag_303\n      jump\t// in\n    tag_471:\n        /* \"#utility.yul\":20437:20439   */\n      0x40\n        /* \"#utility.yul\":20432:20435   */\n      dup3\n        /* \"#utility.yul\":20428:20440   */\n      add\n        /* \"#utility.yul\":20421:20440   */\n      swap1\n      pop\n        /* \"#utility.yul\":20080:20446   */\n      swap2\n      swap1\n      pop\n      jump\t// out\n        /* \"#utility.yul\":20452:20871   */\n    tag_216:\n        /* \"#utility.yul\":20618:20622   */\n      0x00\n        /* \"#utility.yul\":20656:20658   */\n      0x20\n        /* \"#utility.yul\":20645:20654   */\n      dup3\n        /* \"#utility.yul\":20641:20659   */\n      add\n        /* \"#utility.yul\":20633:20659   */\n      swap1\n      pop\n        /* \"#utility.yul\":20705:20714   */\n      dup2\n        /* \"#utility.yul\":20699:20703   */\n      dup2\n        /* \"#utility.yul\":20695:20715   */\n      sub\n        /* \"#utility.yul\":20691:20692   */\n      0x00\n        /* \"#utility.yul\":20680:20689   */\n      dup4\n        /* \"#utility.yul\":20676:20693   */\n      add\n        /* \"#utility.yul\":20669:20716   */\n      mstore\n        /* \"#utility.yul\":20733:20864   */\n      tag_473\n        /* \"#utility.yul\":20859:20863   */\n      dup2\n        /* \"#utility.yul\":20733:20864   */\n      tag_304\n      jump\t// in\n    tag_473:\n        /* \"#utility.yul\":20725:20864   */\n      swap1\n      pop\n        /* \"#utility.yul\":20452:20871   */\n      swap2\n      swap1\n      pop\n      jump\t// out\n        /* \"#utility.yul\":20877:21209   */\n    tag_225:\n        /* \"#utility.yul\":20998:21002   */\n      0x00\n        /* \"#utility.yul\":21036:21038   */\n      0x40\n        /* \"#utility.yul\":21025:21034   */\n      dup3\n        /* \"#utility.yul\":21021:21039   */\n      add\n        /* \"#utility.yul\":21013:21039   */\n      swap1\n      pop\n        /* \"#utility.yul\":21049:21120   */\n      tag_475\n        /* \"#utility.yul\":21117:21118   */\n      0x00\n        /* \"#utility.yul\":21106:21115   */\n      dup4\n        /* \"#utility.yul\":21102:21119   */\n      add\n        /* \"#utility.yul\":21093:21099   */\n      dup6\n        /* \"#utility.yul\":21049:21120   */\n      tag_264\n      jump\t// in\n    tag_475:\n        /* \"#utility.yul\":21130:21202   */\n      tag_476\n        /* \"#utility.yul\":21198:21200   */\n      0x20\n        /* \"#utility.yul\":21187:21196   */\n      dup4\n        /* \"#utility.yul\":21183:21201   */\n      add\n        /* \"#utility.yul\":21174:21180   */\n      dup5\n        /* \"#utility.yul\":21130:21202   */\n      tag_264\n      jump\t// in\n    tag_476:\n        /* \"#utility.yul\":20877:21209   */\n      swap4\n      swap3\n      pop\n      pop\n      pop\n      jump\t// out\n        /* \"#utility.yul\":21215:21374   */\n    tag_305:\n        /* \"#utility.yul\":21355:21366   */\n      0x4e6f206f66666572730000000000000000000000000000000000000000000000\n        /* \"#utility.yul\":21351:21352   */\n      0x00\n        /* \"#utility.yul\":21343:21349   */\n      dup3\n        /* \"#utility.yul\":21339:21353   */\n      add\n        /* \"#utility.yul\":21332:21367   */\n      mstore\n        /* \"#utility.yul\":21215:21374   */\n      pop\n      jump\t// out\n        /* \"#utility.yul\":21380:21745   */\n    tag_306:\n        /* \"#utility.yul\":21522:21525   */\n      0x00\n        /* \"#utility.yul\":21543:21609   */\n      tag_479\n        /* \"#utility.yul\":21607:21608   */\n      0x09\n        /* \"#utility.yul\":21602:21605   */\n      dup4\n        /* \"#utility.yul\":21543:21609   */\n      tag_274\n      jump\t// in\n    tag_479:\n        /* \"#utility.yul\":21536:21609   */\n      swap2\n      pop\n        /* \"#utility.yul\":21618:21711   */\n      tag_480\n        /* \"#utility.yul\":21707:21710   */\n      dup3\n        /* \"#utility.yul\":21618:21711   */\n      tag_305\n      jump\t// in\n    tag_480:\n        /* \"#utility.yul\":21736:21738   */\n      0x20\n        /* \"#utility.yul\":21731:21734   */\n      dup3\n        /* \"#utility.yul\":21727:21739   */\n      add\n        /* \"#utility.yul\":21720:21739   */\n      swap1\n      pop\n        /* \"#utility.yul\":21380:21745   */\n      swap2\n      swap1\n      pop\n      jump\t// out\n        /* \"#utility.yul\":21751:22170   */\n    tag_229:\n        /* \"#utility.yul\":21917:21921   */\n      0x00\n        /* \"#utility.yul\":21955:21957   */\n      0x20\n        /* \"#utility.yul\":21944:21953   */\n      dup3\n        /* \"#utility.yul\":21940:21958   */\n      add\n        /* \"#utility.yul\":21932:21958   */\n      swap1\n      pop\n        /* \"#utility.yul\":22004:22013   */\n      dup2\n        /* \"#utility.yul\":21998:22002   */\n      dup2\n        /* \"#utility.yul\":21994:22014   */\n      sub\n        /* \"#utility.yul\":21990:21991   */\n      0x00\n        /* \"#utility.yul\":21979:21988   */\n      dup4\n        /* \"#utility.yul\":21975:21992   */\n      add\n        /* \"#utility.yul\":21968:22015   */\n      mstore\n        /* \"#utility.yul\":22032:22163   */\n      tag_482\n        /* \"#utility.yul\":22158:22162   */\n      dup2\n        /* \"#utility.yul\":22032:22163   */\n      tag_306\n      jump\t// in\n    tag_482:\n        /* \"#utility.yul\":22024:22163   */\n      swap1\n      pop\n        /* \"#utility.yul\":21751:22170   */\n      swap2\n      swap1\n      pop\n      jump\t// out\n\n    auxdata: 0xa26469706673582212201fb2b7ddccc8767fbdae26e499c906f6bd2bf79a3cba52db4e5ae9ece33c9a0d64736f6c634300081e0033\n}\n",
				"bytecode": {
					"linkReferences": {},
					"object": "608060405260405161215f38038061215f83398181016040528101906100259190610179565b80341015610068576040517f08c379a000000000000000000000000000000000000000000000000000000000815260040161005f9061025d565b60405180910390fd5b828410801561007657508183105b6100b5576040517f08c379a00000000000000000000000000000000000000000000000000000000081526004016100ac906102c5565b60405180910390fd5b335f5f6101000a81548173ffffffffffffffffffffffffffffffffffffffff021916908373ffffffffffffffffffffffffffffffffffffffff160217905550836001819055508260028190555081600381905550806004819055505f60065f6101000a81548160ff02191690836002811115610134576101336102e3565b5b021790555050505050610310565b5f5ffd5b5f819050919050565b61015881610146565b8114610162575f5ffd5b50565b5f815190506101738161014f565b92915050565b5f5f5f5f6080858703121561019157610190610142565b5b5f61019e87828801610165565b94505060206101af87828801610165565b93505060406101c087828801610165565b92505060606101d187828801610165565b91505092959194509250565b5f82825260208201905092915050565b7f596f75206861766520746f206465706f7369742074686520616d6f756e74206f5f8201527f6620746865206d6178696d756d20706f737369626c6520626964000000000000602082015250565b5f610247603a836101dd565b9150610252826101ed565b604082019050919050565b5f6020820190508181035f8301526102748161023b565b9050919050565b7f496e76616c69642061756374696f6e20646174657300000000000000000000005f82015250565b5f6102af6015836101dd565b91506102ba8261027b565b602082019050919050565b5f6020820190508181035f8301526102dc816102a3565b9050919050565b7f4e487b71000000000000000000000000000000000000000000000000000000005f52602160045260245ffd5b611e428061031d5f395ff3fe60806040526004361061011e575f3560e01c806374b11d8a1161009f578063cff29dfd11610063578063cff29dfd1461038a578063d3124946146103c6578063dfbf53ae146103f0578063f77282ab1461041a578063fb4cd8e2146104305761011e565b806374b11d8a146102c65780638da5cb5b146102f05780639979ef451461031a578063c19d93fb14610336578063c1f52604146103605761011e565b80634cc4f50d116100e65780634cc4f50d146102085780634e9edd1b146102325780634f245ef71461025c5780635a84d52a146102865780635d7e0b51146102b05761011e565b806311d72e4714610122578063235f0e461461013857806328f6a48a146101745780632a24f46c1461019e5780634423c5f1146101c8575b5f5ffd5b34801561012d575f5ffd5b5061013661045a565b005b348015610143575f5ffd5b5061015e60048036038101906101599190611340565b610606565b60405161016b9190611385565b60405180910390f35b34801561017f575f5ffd5b506101886106a8565b60405161019591906113b6565b60405180910390f35b3480156101a9575f5ffd5b506101b26106b4565b6040516101bf91906113b6565b60405180910390f35b3480156101d3575f5ffd5b506101ee60048036038101906101e991906113f9565b6106ba565b6040516101ff959493929190611444565b60405180910390f35b348015610213575f5ffd5b5061021c610726565b60405161022991906113b6565b60405180910390f35b34801561023d575f5ffd5b5061024661072b565b60405161025391906113b6565b60405180910390f35b348015610267575f5ffd5b50610270610731565b60405161027d91906113b6565b60405180910390f35b348015610291575f5ffd5b5061029a610737565b6040516102a791906113b6565b60405180910390f35b3480156102bb575f5ffd5b506102c461073c565b005b3480156102d1575f5ffd5b506102da610992565b6040516102e791906113b6565b60405180910390f35b3480156102fb575f5ffd5b50610304610998565b6040516103119190611495565b60405180910390f35b610334600480360381019061032f91906113f9565b6109bc565b005b348015610341575f5ffd5b5061034a610e29565b6040516103579190611521565b60405180910390f35b34801561036b575f5ffd5b50610374610e3b565b60405161038191906113b6565b60405180910390f35b348015610395575f5ffd5b506103b060048036038101906103ab91906113f9565b610e41565b6040516103bd9190611549565b60405180910390f35b3480156103d1575f5ffd5b506103da610e7c565b6040516103e791906113b6565b60405180910390f35b3480156103fb575f5ffd5b50610404610e82565b6040516104119190611495565b60405180910390f35b348015610425575f5ffd5b5061042e610ea7565b005b34801561043b575f5ffd5b50610444611006565b60405161045191906113b6565b60405180910390f35b5f5f9054906101000a900473ffffffffffffffffffffffffffffffffffffffff1673ffffffffffffffffffffffffffffffffffffffff163373ffffffffffffffffffffffffffffffffffffffff16146104e8576040517f08c379a00000000000000000000000000000000000000000000000000000000081526004016104df906115e2565b60405180910390fd5b6002808111156104fb576104fa6114ae565b5b60065f9054906101000a900460ff16600281111561051c5761051b6114ae565b5b1461055c576040517f08c379a000000000000000000000000000000000000000000000000000000000815260040161055390611670565b60405180910390fd5b60035442116105a0576040517f08c379a0000000000000000000000000000000000000000000000000000000008152600401610597906116d8565b60405180910390fd5b5f5f9054906101000a900473ffffffffffffffffffffffffffffffffffffffff1673ffffffffffffffffffffffffffffffffffffffff166108fc4790811502906040515f60405180830381858888f19350505050158015610603573d5f5f3e3d5ffd5b50565b5f5f5f90505b60088054905081101561069e578273ffffffffffffffffffffffffffffffffffffffff1660088281548110610644576106436116f6565b5b905f5260205f20015f9054906101000a900473ffffffffffffffffffffffffffffffffffffffff1673ffffffffffffffffffffffffffffffffffffffff16036106915760019150506106a3565b808060010191505061060c565b505f90505b919050565b5f600780549050905090565b60025481565b600781815481106106c9575f80fd5b905f5260205f2090600502015f91509050805f015f9054906101000a900473ffffffffffffffffffffffffffffffffffffffff1690806001015490806002015490806003015490806004015f9054906101000a900460ff16905085565b601e81565b600b5481565b60015481565b600a81565b5f5f9054906101000a900473ffffffffffffffffffffffffffffffffffffffff1673ffffffffffffffffffffffffffffffffffffffff163373ffffffffffffffffffffffffffffffffffffffff16146107ca576040517f08c379a00000000000000000000000000000000000000000000000000000000081526004016107c1906115e2565b60405180910390fd5b6002808111156107dd576107dc6114ae565b5b60065f9054906101000a900460ff1660028111156107fe576107fd6114ae565b5b1461083e576040517f08c379a000000000000000000000000000000000000000000000000000000000815260040161083590611670565b60405180910390fd5b6003544210610882576040517f08c379a00000000000000000000000000000000000000000000000000000000081526004016108799061176d565b60405180910390fd5b60095f9054906101000a900473ffffffffffffffffffffffffffffffffffffffff1673ffffffffffffffffffffffffffffffffffffffff166108fc60095f9054906101000a900473ffffffffffffffffffffffffffffffffffffffff1673ffffffffffffffffffffffffffffffffffffffff1631600a5461090391906117b8565b90811502906040515f60405180830381858888f1935050505015801561092b573d5f5f3e3d5ffd5b505f5f9054906101000a900473ffffffffffffffffffffffffffffffffffffffff1673ffffffffffffffffffffffffffffffffffffffff166108fc4790811502906040515f60405180830381858888f1935050505015801561098f573d5f5f3e3d5ffd5b50565b60045481565b5f5f9054906101000a900473ffffffffffffffffffffffffffffffffffffffff1681565b5f60028111156109cf576109ce6114ae565b5b60065f9054906101000a900460ff1660028111156109f0576109ef6114ae565b5b14610a30576040517f08c379a0000000000000000000000000000000000000000000000000000000008152600401610a2790611835565b60405180910390fd5b6001544210158015610a4457506002544211155b610a83576040517f08c379a0000000000000000000000000000000000000000000000000000000008152600401610a7a906118c3565b60405180910390fd5b5f8111610ac5576040517f08c379a0000000000000000000000000000000000000000000000000000000008152600401610abc9061192b565b60405180910390fd5b600454811115610b0a576040517f08c379a0000000000000000000000000000000000000000000000000000000008152600401610b01906119b9565b60405180910390fd5b610b1333610606565b15610b53576040517f08c379a0000000000000000000000000000000000000000000000000000000008152600401610b4a90611a21565b60405180910390fd5b601e60055410610b98576040517f08c379a0000000000000000000000000000000000000000000000000000000008152600401610b8f90611aaf565b60405180910390fd5b5f5f9054906101000a900473ffffffffffffffffffffffffffffffffffffffff1673ffffffffffffffffffffffffffffffffffffffff163373ffffffffffffffffffffffffffffffffffffffff1603610c26576040517f08c379a0000000000000000000000000000000000000000000000000000000008152600401610c1d90611b3d565b60405180910390fd5b6064600a82610c359190611b5b565b610c3f9190611bc9565b3414610c80576040517f08c379a0000000000000000000000000000000000000000000000000000000008152600401610c7790611c69565b60405180910390fd5b600160055f828254610c9291906117b8565b9250508190555060076040518060a001604052803373ffffffffffffffffffffffffffffffffffffffff1681526020018381526020014281526020013481526020015f1515815250908060018154018082558091505060019003905f5260205f2090600502015f909190919091505f820151815f015f6101000a81548173ffffffffffffffffffffffffffffffffffffffff021916908373ffffffffffffffffffffffffffffffffffffffff1602179055506020820151816001015560408201518160020155606082015181600301556080820151816004015f6101000a81548160ff0219169083151502179055505050600833908060018154018082558091505060019003905f5260205f20015f9091909190916101000a81548173ffffffffffffffffffffffffffffffffffffffff021916908373ffffffffffffffffffffffffffffffffffffffff1602179055503373ffffffffffffffffffffffffffffffffffffffff167fe677a6b9a16a696674f50d2c98a1ce8c5cb51d6b48a0223412c512bbc93664d560405160405180910390a250565b60065f9054906101000a900460ff1681565b600a5481565b60088181548110610e50575f80fd5b905f5260205f20015f915054906101000a900473ffffffffffffffffffffffffffffffffffffffff1681565b60035481565b60095f9054906101000a900473ffffffffffffffffffffffffffffffffffffffff1681565b5f5f9054906101000a900473ffffffffffffffffffffffffffffffffffffffff1673ffffffffffffffffffffffffffffffffffffffff163373ffffffffffffffffffffffffffffffffffffffff1614610f35576040517f08c379a0000000000000000000000000000000000000000000000000000000008152600401610f2c906115e2565b60405180910390fd5b5f6002811115610f4857610f476114ae565b5b60065f9054906101000a900460ff166002811115610f6957610f686114ae565b5b14610fa9576040517f08c379a0000000000000000000000000000000000000000000000000000000008152600401610fa090611cd1565b60405180910390fd5b60025442101580610fbd5750601e60055410155b610ffc576040517f08c379a0000000000000000000000000000000000000000000000000000000008152600401610ff390611d5f565b60405180910390fd5b61100461100c565b565b60055481565b600160065f6101000a81548160ff02191690836002811115611031576110306114ae565b5b021790555061103e611101565b60095f600a5f84919050558391906101000a81548173ffffffffffffffffffffffffffffffffffffffff021916908373ffffffffffffffffffffffffffffffffffffffff160217905550505060095f9054906101000a900473ffffffffffffffffffffffffffffffffffffffff1673ffffffffffffffffffffffffffffffffffffffff167ffd8f22870817ee413fcb464d7ffd8415666c2ab6285fe8d409dc1dc21fffb4f6600b54600a546040516110f7929190611d7d565b60405180910390a2565b5f5f5f6007805490501161114a576040517f08c379a000000000000000000000000000000000000000000000000000000000815260040161114190611dee565b60405180910390fd5b5f60045490505f60045490505f5f7fffffffffffffffffffffffffffffffffffffffffffffffffffffffffffffffff90505f5f90505b6007805490508110156112bf575f600782815481106111a2576111a16116f6565b5b905f5260205f2090600502016001015490505f600783815481106111c9576111c86116f6565b5b905f5260205f2090600502016003015490508682101561123557869550819650600783815481106111fd576111fc6116f6565b5b905f5260205f2090600502015f015f9054906101000a900473ffffffffffffffffffffffffffffffffffffffff1694508093506112b0565b868214801561124357508381105b15611297578695506007838154811061125f5761125e6116f6565b5b905f5260205f2090600502015f015f9054906101000a900473ffffffffffffffffffffffffffffffffffffffff1694508093506112af565b85821080156112a557508682115b156112ae578195505b5b5b50508080600101915050611180565b50816001600780549050146112d457836112d6565b845b95509550505050509091565b5f5ffd5b5f73ffffffffffffffffffffffffffffffffffffffff82169050919050565b5f61130f826112e6565b9050919050565b61131f81611305565b8114611329575f5ffd5b50565b5f8135905061133a81611316565b92915050565b5f60208284031215611355576113546112e2565b5b5f6113628482850161132c565b91505092915050565b5f8115159050919050565b61137f8161136b565b82525050565b5f6020820190506113985f830184611376565b92915050565b5f819050919050565b6113b08161139e565b82525050565b5f6020820190506113c95f8301846113a7565b92915050565b6113d88161139e565b81146113e2575f5ffd5b50565b5f813590506113f3816113cf565b92915050565b5f6020828403121561140e5761140d6112e2565b5b5f61141b848285016113e5565b91505092915050565b5f61142e826112e6565b9050919050565b61143e81611424565b82525050565b5f60a0820190506114575f830188611435565b61146460208301876113a7565b61147160408301866113a7565b61147e60608301856113a7565b61148b6080830184611376565b9695505050505050565b5f6020820190506114a85f830184611435565b92915050565b7f4e487b71000000000000000000000000000000000000000000000000000000005f52602160045260245ffd5b600381106114ec576114eb6114ae565b5b50565b5f8190506114fc826114db565b919050565b5f61150b826114ef565b9050919050565b61151b81611501565b82525050565b5f6020820190506115345f830184611512565b92915050565b61154381611305565b82525050565b5f60208201905061155c5f83018461153a565b92915050565b5f82825260208201905092915050565b7f4f6e6c7920746865206f776e65722063616e2063616c6c20746869732066756e5f8201527f6374696f6e000000000000000000000000000000000000000000000000000000602082015250565b5f6115cc602583611562565b91506115d782611572565b604082019050919050565b5f6020820190508181035f8301526115f9816115c0565b9050919050565b7f41756374696f6e207374696c6c206f70656e206f72206469646e2774207061695f8201527f64206261636b20746865206465706f7369747320796574000000000000000000602082015250565b5f61165a603783611562565b915061166582611600565b604082019050919050565b5f6020820190508181035f8301526116878161164e565b9050919050565b7f5468652064656c69766572792063616e207374696c6c206265206d61646500005f82015250565b5f6116c2601e83611562565b91506116cd8261168e565b602082019050919050565b5f6020820190508181035f8301526116ef816116b6565b9050919050565b7f4e487b71000000000000000000000000000000000000000000000000000000005f52603260045260245ffd5b7f5468652064656c6976657279206973206f7665726475650000000000000000005f82015250565b5f611757601783611562565b915061176282611723565b602082019050919050565b5f6020820190508181035f8301526117848161174b565b9050919050565b7f4e487b71000000000000000000000000000000000000000000000000000000005f52601160045260245ffd5b5f6117c28261139e565b91506117cd8361139e565b92508282019050808211156117e5576117e461178b565b5b92915050565b7f41756374696f6e206e6f742061637469766500000000000000000000000000005f82015250565b5f61181f601283611562565b915061182a826117eb565b602082019050919050565b5f6020820190508181035f83015261184c81611813565b9050919050565b7f4f757473696465206f66207468652061756374696f6e27732074696d652072615f8201527f6e67650000000000000000000000000000000000000000000000000000000000602082015250565b5f6118ad602383611562565b91506118b882611853565b604082019050919050565b5f6020820190508181035f8301526118da816118a1565b9050919050565b7f54686520626964206d757374206265203e2030000000000000000000000000005f82015250565b5f611915601383611562565b9150611920826118e1565b602082019050919050565b5f6020820190508181035f83015261194281611909565b9050919050565b7f5468652062696420697320686967686572207468616e20746865206d6178696d5f8201527f756d000000000000000000000000000000000000000000000000000000000000602082015250565b5f6119a3602283611562565b91506119ae82611949565b604082019050919050565b5f6020820190508181035f8301526119d081611997565b9050919050565b7f596f75206861766520616c7265616479207061727469636970617465640000005f82015250565b5f611a0b601d83611562565b9150611a16826119d7565b602082019050919050565b5f6020820190508181035f830152611a38816119ff565b9050919050565b7f5468652061756374696f6e20686173207265616368656420746865206d6178695f8201527f6d756d206e756d626572206f66207061727469636970616e7473000000000000602082015250565b5f611a99603a83611562565b9150611aa482611a3f565b604082019050919050565b5f6020820190508181035f830152611ac681611a8d565b9050919050565b7f596f752063616e6e6f7420706c616365206120626964206f6e20796f7572206f5f8201527f776e2061756374696f6e00000000000000000000000000000000000000000000602082015250565b5f611b27602a83611562565b9150611b3282611acd565b604082019050919050565b5f6020820190508181035f830152611b5481611b1b565b9050919050565b5f611b658261139e565b9150611b708361139e565b9250828202611b7e8161139e565b91508282048414831517611b9557611b9461178b565b5b5092915050565b7f4e487b71000000000000000000000000000000000000000000000000000000005f52601260045260245ffd5b5f611bd38261139e565b9150611bde8361139e565b925082611bee57611bed611b9c565b5b828204905092915050565b7f546865206465706f736974206d757374206265206174206c65617374203130255f8201527f206f662074686520626964000000000000000000000000000000000000000000602082015250565b5f611c53602b83611562565b9150611c5e82611bf9565b604082019050919050565b5f6020820190508181035f830152611c8081611c47565b9050919050565b7f41756374696f6e20636c6f7365640000000000000000000000000000000000005f82015250565b5f611cbb600e83611562565b9150611cc682611c87565b602082019050919050565b5f6020820190508181035f830152611ce881611caf565b9050919050565b7f5468652061756374696f6e2063616e6e6f7420626520636c6f736564206561725f8201527f6c69657200000000000000000000000000000000000000000000000000000000602082015250565b5f611d49602483611562565b9150611d5482611cef565b604082019050919050565b5f6020820190508181035f830152611d7681611d3d565b9050919050565b5f604082019050611d905f8301856113a7565b611d9d60208301846113a7565b9392505050565b7f4e6f206f666665727300000000000000000000000000000000000000000000005f82015250565b5f611dd8600983611562565b9150611de382611da4565b602082019050919050565b5f6020820190508181035f830152611e0581611dcc565b905091905056fea26469706673582212201fb2b7ddccc8767fbdae26e499c906f6bd2bf79a3cba52db4e5ae9ece33c9a0d64736f6c634300081e0033",
					"opcodes": "PUSH1 0x80 PUSH1 0x40 MSTORE PUSH1 0x40 MLOAD PUSH2 0x215F CODESIZE SUB DUP1 PUSH2 0x215F DUP4 CODECOPY DUP2 DUP2 ADD PUSH1 0x40 MSTORE DUP2 ADD SWAP1 PUSH2 0x25 SWAP2 SWAP1 PUSH2 0x179 JUMP JUMPDEST DUP1 CALLVALUE LT ISZERO PUSH2 0x68 JUMPI PUSH1 0x40 MLOAD PUSH32 0x8C379A000000000000000000000000000000000000000000000000000000000 DUP2 MSTORE PUSH1 0x4 ADD PUSH2 0x5F SWAP1 PUSH2 0x25D JUMP JUMPDEST PUSH1 0x40 MLOAD DUP1 SWAP2 SUB SWAP1 REVERT JUMPDEST DUP3 DUP5 LT DUP1 ISZERO PUSH2 0x76 JUMPI POP DUP2 DUP4 LT JUMPDEST PUSH2 0xB5 JUMPI PUSH1 0x40 MLOAD PUSH32 0x8C379A000000000000000000000000000000000000000000000000000000000 DUP2 MSTORE PUSH1 0x4 ADD PUSH2 0xAC SWAP1 PUSH2 0x2C5 JUMP JUMPDEST PUSH1 0x40 MLOAD DUP1 SWAP2 SUB SWAP1 REVERT JUMPDEST CALLER PUSH0 PUSH0 PUSH2 0x100 EXP DUP2 SLOAD DUP2 PUSH20 0xFFFFFFFFFFFFFFFFFFFFFFFFFFFFFFFFFFFFFFFF MUL NOT AND SWAP1 DUP4 PUSH20 0xFFFFFFFFFFFFFFFFFFFFFFFFFFFFFFFFFFFFFFFF AND MUL OR SWAP1 SSTORE POP DUP4 PUSH1 0x1 DUP2 SWAP1 SSTORE POP DUP3 PUSH1 0x2 DUP2 SWAP1 SSTORE POP DUP2 PUSH1 0x3 DUP2 SWAP1 SSTORE POP DUP1 PUSH1 0x4 DUP2 SWAP1 SSTORE POP PUSH0 PUSH1 0x6 PUSH0 PUSH2 0x100 EXP DUP2 SLOAD DUP2 PUSH1 0xFF MUL NOT AND SWAP1 DUP4 PUSH1 0x2 DUP2 GT ISZERO PUSH2 0x134 JUMPI PUSH2 0x133 PUSH2 0x2E3 JUMP JUMPDEST JUMPDEST MUL OR SWAP1 SSTORE POP POP POP POP POP PUSH2 0x310 JUMP JUMPDEST PUSH0 PUSH0 REVERT JUMPDEST PUSH0 DUP2 SWAP1 POP SWAP2 SWAP1 POP JUMP JUMPDEST PUSH2 0x158 DUP2 PUSH2 0x146 JUMP JUMPDEST DUP2 EQ PUSH2 0x162 JUMPI PUSH0 PUSH0 REVERT JUMPDEST POP JUMP JUMPDEST PUSH0 DUP2 MLOAD SWAP1 POP PUSH2 0x173 DUP2 PUSH2 0x14F JUMP JUMPDEST SWAP3 SWAP2 POP POP JUMP JUMPDEST PUSH0 PUSH0 PUSH0 PUSH0 PUSH1 0x80 DUP6 DUP8 SUB SLT ISZERO PUSH2 0x191 JUMPI PUSH2 0x190 PUSH2 0x142 JUMP JUMPDEST JUMPDEST PUSH0 PUSH2 0x19E DUP8 DUP3 DUP9 ADD PUSH2 0x165 JUMP JUMPDEST SWAP5 POP POP PUSH1 0x20 PUSH2 0x1AF DUP8 DUP3 DUP9 ADD PUSH2 0x165 JUMP JUMPDEST SWAP4 POP POP PUSH1 0x40 PUSH2 0x1C0 DUP8 DUP3 DUP9 ADD PUSH2 0x165 JUMP JUMPDEST SWAP3 POP POP PUSH1 0x60 PUSH2 0x1D1 DUP8 DUP3 DUP9 ADD PUSH2 0x165 JUMP JUMPDEST SWAP2 POP POP SWAP3 SWAP6 SWAP2 SWAP5 POP SWAP3 POP JUMP JUMPDEST PUSH0 DUP3 DUP3 MSTORE PUSH1 0x20 DUP3 ADD SWAP1 POP SWAP3 SWAP2 POP POP JUMP JUMPDEST PUSH32 0x596F75206861766520746F206465706F7369742074686520616D6F756E74206F PUSH0 DUP3 ADD MSTORE PUSH32 0x6620746865206D6178696D756D20706F737369626C6520626964000000000000 PUSH1 0x20 DUP3 ADD MSTORE POP JUMP JUMPDEST PUSH0 PUSH2 0x247 PUSH1 0x3A DUP4 PUSH2 0x1DD JUMP JUMPDEST SWAP2 POP PUSH2 0x252 DUP3 PUSH2 0x1ED JUMP JUMPDEST PUSH1 0x40 DUP3 ADD SWAP1 POP SWAP2 SWAP1 POP JUMP JUMPDEST PUSH0 PUSH1 0x20 DUP3 ADD SWAP1 POP DUP2 DUP2 SUB PUSH0 DUP4 ADD MSTORE PUSH2 0x274 DUP2 PUSH2 0x23B JUMP JUMPDEST SWAP1 POP SWAP2 SWAP1 POP JUMP JUMPDEST PUSH32 0x496E76616C69642061756374696F6E2064617465730000000000000000000000 PUSH0 DUP3 ADD MSTORE POP JUMP JUMPDEST PUSH0 PUSH2 0x2AF PUSH1 0x15 DUP4 PUSH2 0x1DD JUMP JUMPDEST SWAP2 POP PUSH2 0x2BA DUP3 PUSH2 0x27B JUMP JUMPDEST PUSH1 0x20 DUP3 ADD SWAP1 POP SWAP2 SWAP1 POP JUMP JUMPDEST PUSH0 PUSH1 0x20 DUP3 ADD SWAP1 POP DUP2 DUP2 SUB PUSH0 DUP4 ADD MSTORE PUSH2 0x2DC DUP2 PUSH2 0x2A3 JUMP JUMPDEST SWAP1 POP SWAP2 SWAP1 POP JUMP JUMPDEST PUSH32 0x4E487B7100000000000000000000000000000000000000000000000000000000 PUSH0 MSTORE PUSH1 0x21 PUSH1 0x4 MSTORE PUSH1 0x24 PUSH0 REVERT JUMPDEST PUSH2 0x1E42 DUP1 PUSH2 0x31D PUSH0 CODECOPY PUSH0 RETURN INVALID PUSH1 0x80 PUSH1 0x40 MSTORE PUSH1 0x4 CALLDATASIZE LT PUSH2 0x11E JUMPI PUSH0 CALLDATALOAD PUSH1 0xE0 SHR DUP1 PUSH4 0x74B11D8A GT PUSH2 0x9F JUMPI DUP1 PUSH4 0xCFF29DFD GT PUSH2 0x63 JUMPI DUP1 PUSH4 0xCFF29DFD EQ PUSH2 0x38A JUMPI DUP1 PUSH4 0xD3124946 EQ PUSH2 0x3C6 JUMPI DUP1 PUSH4 0xDFBF53AE EQ PUSH2 0x3F0 JUMPI DUP1 PUSH4 0xF77282AB EQ PUSH2 0x41A JUMPI DUP1 PUSH4 0xFB4CD8E2 EQ PUSH2 0x430 JUMPI PUSH2 0x11E JUMP JUMPDEST DUP1 PUSH4 0x74B11D8A EQ PUSH2 0x2C6 JUMPI DUP1 PUSH4 0x8DA5CB5B EQ PUSH2 0x2F0 JUMPI DUP1 PUSH4 0x9979EF45 EQ PUSH2 0x31A JUMPI DUP1 PUSH4 0xC19D93FB EQ PUSH2 0x336 JUMPI DUP1 PUSH4 0xC1F52604 EQ PUSH2 0x360 JUMPI PUSH2 0x11E JUMP JUMPDEST DUP1 PUSH4 0x4CC4F50D GT PUSH2 0xE6 JUMPI DUP1 PUSH4 0x4CC4F50D EQ PUSH2 0x208 JUMPI DUP1 PUSH4 0x4E9EDD1B EQ PUSH2 0x232 JUMPI DUP1 PUSH4 0x4F245EF7 EQ PUSH2 0x25C JUMPI DUP1 PUSH4 0x5A84D52A EQ PUSH2 0x286 JUMPI DUP1 PUSH4 0x5D7E0B51 EQ PUSH2 0x2B0 JUMPI PUSH2 0x11E JUMP JUMPDEST DUP1 PUSH4 0x11D72E47 EQ PUSH2 0x122 JUMPI DUP1 PUSH4 0x235F0E46 EQ PUSH2 0x138 JUMPI DUP1 PUSH4 0x28F6A48A EQ PUSH2 0x174 JUMPI DUP1 PUSH4 0x2A24F46C EQ PUSH2 0x19E JUMPI DUP1 PUSH4 0x4423C5F1 EQ PUSH2 0x1C8 JUMPI JUMPDEST PUSH0 PUSH0 REVERT JUMPDEST CALLVALUE DUP1 ISZERO PUSH2 0x12D JUMPI PUSH0 PUSH0 REVERT JUMPDEST POP PUSH2 0x136 PUSH2 0x45A JUMP JUMPDEST STOP JUMPDEST CALLVALUE DUP1 ISZERO PUSH2 0x143 JUMPI PUSH0 PUSH0 REVERT JUMPDEST POP PUSH2 0x15E PUSH1 0x4 DUP1 CALLDATASIZE SUB DUP2 ADD SWAP1 PUSH2 0x159 SWAP2 SWAP1 PUSH2 0x1340 JUMP JUMPDEST PUSH2 0x606 JUMP JUMPDEST PUSH1 0x40 MLOAD PUSH2 0x16B SWAP2 SWAP1 PUSH2 0x1385 JUMP JUMPDEST PUSH1 0x40 MLOAD DUP1 SWAP2 SUB SWAP1 RETURN JUMPDEST CALLVALUE DUP1 ISZERO PUSH2 0x17F JUMPI PUSH0 PUSH0 REVERT JUMPDEST POP PUSH2 0x188 PUSH2 0x6A8 JUMP JUMPDEST PUSH1 0x40 MLOAD PUSH2 0x195 SWAP2 SWAP1 PUSH2 0x13B6 JUMP JUMPDEST PUSH1 0x40 MLOAD DUP1 SWAP2 SUB SWAP1 RETURN JUMPDEST CALLVALUE DUP1 ISZERO PUSH2 0x1A9 JUMPI PUSH0 PUSH0 REVERT JUMPDEST POP PUSH2 0x1B2 PUSH2 0x6B4 JUMP JUMPDEST PUSH1 0x40 MLOAD PUSH2 0x1BF SWAP2 SWAP1 PUSH2 0x13B6 JUMP JUMPDEST PUSH1 0x40 MLOAD DUP1 SWAP2 SUB SWAP1 RETURN JUMPDEST CALLVALUE DUP1 ISZERO PUSH2 0x1D3 JUMPI PUSH0 PUSH0 REVERT JUMPDEST POP PUSH2 0x1EE PUSH1 0x4 DUP1 CALLDATASIZE SUB DUP2 ADD SWAP1 PUSH2 0x1E9 SWAP2 SWAP1 PUSH2 0x13F9 JUMP JUMPDEST PUSH2 0x6BA JUMP JUMPDEST PUSH1 0x40 MLOAD PUSH2 0x1FF SWAP6 SWAP5 SWAP4 SWAP3 SWAP2 SWAP1 PUSH2 0x1444 JUMP JUMPDEST PUSH1 0x40 MLOAD DUP1 SWAP2 SUB SWAP1 RETURN JUMPDEST CALLVALUE DUP1 ISZERO PUSH2 0x213 JUMPI PUSH0 PUSH0 REVERT JUMPDEST POP PUSH2 0x21C PUSH2 0x726 JUMP JUMPDEST PUSH1 0x40 MLOAD PUSH2 0x229 SWAP2 SWAP1 PUSH2 0x13B6 JUMP JUMPDEST PUSH1 0x40 MLOAD DUP1 SWAP2 SUB SWAP1 RETURN JUMPDEST CALLVALUE DUP1 ISZERO PUSH2 0x23D JUMPI PUSH0 PUSH0 REVERT JUMPDEST POP PUSH2 0x246 PUSH2 0x72B JUMP JUMPDEST PUSH1 0x40 MLOAD PUSH2 0x253 SWAP2 SWAP1 PUSH2 0x13B6 JUMP JUMPDEST PUSH1 0x40 MLOAD DUP1 SWAP2 SUB SWAP1 RETURN JUMPDEST CALLVALUE DUP1 ISZERO PUSH2 0x267 JUMPI PUSH0 PUSH0 REVERT JUMPDEST POP PUSH2 0x270 PUSH2 0x731 JUMP JUMPDEST PUSH1 0x40 MLOAD PUSH2 0x27D SWAP2 SWAP1 PUSH2 0x13B6 JUMP JUMPDEST PUSH1 0x40 MLOAD DUP1 SWAP2 SUB SWAP1 RETURN JUMPDEST CALLVALUE DUP1 ISZERO PUSH2 0x291 JUMPI PUSH0 PUSH0 REVERT JUMPDEST POP PUSH2 0x29A PUSH2 0x737 JUMP JUMPDEST PUSH1 0x40 MLOAD PUSH2 0x2A7 SWAP2 SWAP1 PUSH2 0x13B6 JUMP JUMPDEST PUSH1 0x40 MLOAD DUP1 SWAP2 SUB SWAP1 RETURN JUMPDEST CALLVALUE DUP1 ISZERO PUSH2 0x2BB JUMPI PUSH0 PUSH0 REVERT JUMPDEST POP PUSH2 0x2C4 PUSH2 0x73C JUMP JUMPDEST STOP JUMPDEST CALLVALUE DUP1 ISZERO PUSH2 0x2D1 JUMPI PUSH0 PUSH0 REVERT JUMPDEST POP PUSH2 0x2DA PUSH2 0x992 JUMP JUMPDEST PUSH1 0x40 MLOAD PUSH2 0x2E7 SWAP2 SWAP1 PUSH2 0x13B6 JUMP JUMPDEST PUSH1 0x40 MLOAD DUP1 SWAP2 SUB SWAP1 RETURN JUMPDEST CALLVALUE DUP1 ISZERO PUSH2 0x2FB JUMPI PUSH0 PUSH0 REVERT JUMPDEST POP PUSH2 0x304 PUSH2 0x998 JUMP JUMPDEST PUSH1 0x40 MLOAD PUSH2 0x311 SWAP2 SWAP1 PUSH2 0x1495 JUMP JUMPDEST PUSH1 0x40 MLOAD DUP1 SWAP2 SUB SWAP1 RETURN JUMPDEST PUSH2 0x334 PUSH1 0x4 DUP1 CALLDATASIZE SUB DUP2 ADD SWAP1 PUSH2 0x32F SWAP2 SWAP1 PUSH2 0x13F9 JUMP JUMPDEST PUSH2 0x9BC JUMP JUMPDEST STOP JUMPDEST CALLVALUE DUP1 ISZERO PUSH2 0x341 JUMPI PUSH0 PUSH0 REVERT JUMPDEST POP PUSH2 0x34A PUSH2 0xE29 JUMP JUMPDEST PUSH1 0x40 MLOAD PUSH2 0x357 SWAP2 SWAP1 PUSH2 0x1521 JUMP JUMPDEST PUSH1 0x40 MLOAD DUP1 SWAP2 SUB SWAP1 RETURN JUMPDEST CALLVALUE DUP1 ISZERO PUSH2 0x36B JUMPI PUSH0 PUSH0 REVERT JUMPDEST POP PUSH2 0x374 PUSH2 0xE3B JUMP JUMPDEST PUSH1 0x40 MLOAD PUSH2 0x381 SWAP2 SWAP1 PUSH2 0x13B6 JUMP JUMPDEST PUSH1 0x40 MLOAD DUP1 SWAP2 SUB SWAP1 RETURN JUMPDEST CALLVALUE DUP1 ISZERO PUSH2 0x395 JUMPI PUSH0 PUSH0 REVERT JUMPDEST POP PUSH2 0x3B0 PUSH1 0x4 DUP1 CALLDATASIZE SUB DUP2 ADD SWAP1 PUSH2 0x3AB SWAP2 SWAP1 PUSH2 0x13F9 JUMP JUMPDEST PUSH2 0xE41 JUMP JUMPDEST PUSH1 0x40 MLOAD PUSH2 0x3BD SWAP2 SWAP1 PUSH2 0x1549 JUMP JUMPDEST PUSH1 0x40 MLOAD DUP1 SWAP2 SUB SWAP1 RETURN JUMPDEST CALLVALUE DUP1 ISZERO PUSH2 0x3D1 JUMPI PUSH0 PUSH0 REVERT JUMPDEST POP PUSH2 0x3DA PUSH2 0xE7C JUMP JUMPDEST PUSH1 0x40 MLOAD PUSH2 0x3E7 SWAP2 SWAP1 PUSH2 0x13B6 JUMP JUMPDEST PUSH1 0x40 MLOAD DUP1 SWAP2 SUB SWAP1 RETURN JUMPDEST CALLVALUE DUP1 ISZERO PUSH2 0x3FB JUMPI PUSH0 PUSH0 REVERT JUMPDEST POP PUSH2 0x404 PUSH2 0xE82 JUMP JUMPDEST PUSH1 0x40 MLOAD PUSH2 0x411 SWAP2 SWAP1 PUSH2 0x1495 JUMP JUMPDEST PUSH1 0x40 MLOAD DUP1 SWAP2 SUB SWAP1 RETURN JUMPDEST CALLVALUE DUP1 ISZERO PUSH2 0x425 JUMPI PUSH0 PUSH0 REVERT JUMPDEST POP PUSH2 0x42E PUSH2 0xEA7 JUMP JUMPDEST STOP JUMPDEST CALLVALUE DUP1 ISZERO PUSH2 0x43B JUMPI PUSH0 PUSH0 REVERT JUMPDEST POP PUSH2 0x444 PUSH2 0x1006 JUMP JUMPDEST PUSH1 0x40 MLOAD PUSH2 0x451 SWAP2 SWAP1 PUSH2 0x13B6 JUMP JUMPDEST PUSH1 0x40 MLOAD DUP1 SWAP2 SUB SWAP1 RETURN JUMPDEST PUSH0 PUSH0 SWAP1 SLOAD SWAP1 PUSH2 0x100 EXP SWAP1 DIV PUSH20 0xFFFFFFFFFFFFFFFFFFFFFFFFFFFFFFFFFFFFFFFF AND PUSH20 0xFFFFFFFFFFFFFFFFFFFFFFFFFFFFFFFFFFFFFFFF AND CALLER PUSH20 0xFFFFFFFFFFFFFFFFFFFFFFFFFFFFFFFFFFFFFFFF AND EQ PUSH2 0x4E8 JUMPI PUSH1 0x40 MLOAD PUSH32 0x8C379A000000000000000000000000000000000000000000000000000000000 DUP2 MSTORE PUSH1 0x4 ADD PUSH2 0x4DF SWAP1 PUSH2 0x15E2 JUMP JUMPDEST PUSH1 0x40 MLOAD DUP1 SWAP2 SUB SWAP1 REVERT JUMPDEST PUSH1 0x2 DUP1 DUP2 GT ISZERO PUSH2 0x4FB JUMPI PUSH2 0x4FA PUSH2 0x14AE JUMP JUMPDEST JUMPDEST PUSH1 0x6 PUSH0 SWAP1 SLOAD SWAP1 PUSH2 0x100 EXP SWAP1 DIV PUSH1 0xFF AND PUSH1 0x2 DUP2 GT ISZERO PUSH2 0x51C JUMPI PUSH2 0x51B PUSH2 0x14AE JUMP JUMPDEST JUMPDEST EQ PUSH2 0x55C JUMPI PUSH1 0x40 MLOAD PUSH32 0x8C379A000000000000000000000000000000000000000000000000000000000 DUP2 MSTORE PUSH1 0x4 ADD PUSH2 0x553 SWAP1 PUSH2 0x1670 JUMP JUMPDEST PUSH1 0x40 MLOAD DUP1 SWAP2 SUB SWAP1 REVERT JUMPDEST PUSH1 0x3 SLOAD TIMESTAMP GT PUSH2 0x5A0 JUMPI PUSH1 0x40 MLOAD PUSH32 0x8C379A000000000000000000000000000000000000000000000000000000000 DUP2 MSTORE PUSH1 0x4 ADD PUSH2 0x597 SWAP1 PUSH2 0x16D8 JUMP JUMPDEST PUSH1 0x40 MLOAD DUP1 SWAP2 SUB SWAP1 REVERT JUMPDEST PUSH0 PUSH0 SWAP1 SLOAD SWAP1 PUSH2 0x100 EXP SWAP1 DIV PUSH20 0xFFFFFFFFFFFFFFFFFFFFFFFFFFFFFFFFFFFFFFFF AND PUSH20 0xFFFFFFFFFFFFFFFFFFFFFFFFFFFFFFFFFFFFFFFF AND PUSH2 0x8FC SELFBALANCE SWAP1 DUP2 ISZERO MUL SWAP1 PUSH1 0x40 MLOAD PUSH0 PUSH1 0x40 MLOAD DUP1 DUP4 SUB DUP2 DUP6 DUP9 DUP9 CALL SWAP4 POP POP POP POP ISZERO DUP1 ISZERO PUSH2 0x603 JUMPI RETURNDATASIZE PUSH0 PUSH0 RETURNDATACOPY RETURNDATASIZE PUSH0 REVERT JUMPDEST POP JUMP JUMPDEST PUSH0 PUSH0 PUSH0 SWAP1 POP JUMPDEST PUSH1 0x8 DUP1 SLOAD SWAP1 POP DUP2 LT ISZERO PUSH2 0x69E JUMPI DUP3 PUSH20 0xFFFFFFFFFFFFFFFFFFFFFFFFFFFFFFFFFFFFFFFF AND PUSH1 0x8 DUP3 DUP2 SLOAD DUP2 LT PUSH2 0x644 JUMPI PUSH2 0x643 PUSH2 0x16F6 JUMP JUMPDEST JUMPDEST SWAP1 PUSH0 MSTORE PUSH1 0x20 PUSH0 KECCAK256 ADD PUSH0 SWAP1 SLOAD SWAP1 PUSH2 0x100 EXP SWAP1 DIV PUSH20 0xFFFFFFFFFFFFFFFFFFFFFFFFFFFFFFFFFFFFFFFF AND PUSH20 0xFFFFFFFFFFFFFFFFFFFFFFFFFFFFFFFFFFFFFFFF AND SUB PUSH2 0x691 JUMPI PUSH1 0x1 SWAP2 POP POP PUSH2 0x6A3 JUMP JUMPDEST DUP1 DUP1 PUSH1 0x1 ADD SWAP2 POP POP PUSH2 0x60C JUMP JUMPDEST POP PUSH0 SWAP1 POP JUMPDEST SWAP2 SWAP1 POP JUMP JUMPDEST PUSH0 PUSH1 0x7 DUP1 SLOAD SWAP1 POP SWAP1 POP SWAP1 JUMP JUMPDEST PUSH1 0x2 SLOAD DUP2 JUMP JUMPDEST PUSH1 0x7 DUP2 DUP2 SLOAD DUP2 LT PUSH2 0x6C9 JUMPI PUSH0 DUP1 REVERT JUMPDEST SWAP1 PUSH0 MSTORE PUSH1 0x20 PUSH0 KECCAK256 SWAP1 PUSH1 0x5 MUL ADD PUSH0 SWAP2 POP SWAP1 POP DUP1 PUSH0 ADD PUSH0 SWAP1 SLOAD SWAP1 PUSH2 0x100 EXP SWAP1 DIV PUSH20 0xFFFFFFFFFFFFFFFFFFFFFFFFFFFFFFFFFFFFFFFF AND SWAP1 DUP1 PUSH1 0x1 ADD SLOAD SWAP1 DUP1 PUSH1 0x2 ADD SLOAD SWAP1 DUP1 PUSH1 0x3 ADD SLOAD SWAP1 DUP1 PUSH1 0x4 ADD PUSH0 SWAP1 SLOAD SWAP1 PUSH2 0x100 EXP SWAP1 DIV PUSH1 0xFF AND SWAP1 POP DUP6 JUMP JUMPDEST PUSH1 0x1E DUP2 JUMP JUMPDEST PUSH1 0xB SLOAD DUP2 JUMP JUMPDEST PUSH1 0x1 SLOAD DUP2 JUMP JUMPDEST PUSH1 0xA DUP2 JUMP JUMPDEST PUSH0 PUSH0 SWAP1 SLOAD SWAP1 PUSH2 0x100 EXP SWAP1 DIV PUSH20 0xFFFFFFFFFFFFFFFFFFFFFFFFFFFFFFFFFFFFFFFF AND PUSH20 0xFFFFFFFFFFFFFFFFFFFFFFFFFFFFFFFFFFFFFFFF AND CALLER PUSH20 0xFFFFFFFFFFFFFFFFFFFFFFFFFFFFFFFFFFFFFFFF AND EQ PUSH2 0x7CA JUMPI PUSH1 0x40 MLOAD PUSH32 0x8C379A000000000000000000000000000000000000000000000000000000000 DUP2 MSTORE PUSH1 0x4 ADD PUSH2 0x7C1 SWAP1 PUSH2 0x15E2 JUMP JUMPDEST PUSH1 0x40 MLOAD DUP1 SWAP2 SUB SWAP1 REVERT JUMPDEST PUSH1 0x2 DUP1 DUP2 GT ISZERO PUSH2 0x7DD JUMPI PUSH2 0x7DC PUSH2 0x14AE JUMP JUMPDEST JUMPDEST PUSH1 0x6 PUSH0 SWAP1 SLOAD SWAP1 PUSH2 0x100 EXP SWAP1 DIV PUSH1 0xFF AND PUSH1 0x2 DUP2 GT ISZERO PUSH2 0x7FE JUMPI PUSH2 0x7FD PUSH2 0x14AE JUMP JUMPDEST JUMPDEST EQ PUSH2 0x83E JUMPI PUSH1 0x40 MLOAD PUSH32 0x8C379A000000000000000000000000000000000000000000000000000000000 DUP2 MSTORE PUSH1 0x4 ADD PUSH2 0x835 SWAP1 PUSH2 0x1670 JUMP JUMPDEST PUSH1 0x40 MLOAD DUP1 SWAP2 SUB SWAP1 REVERT JUMPDEST PUSH1 0x3 SLOAD TIMESTAMP LT PUSH2 0x882 JUMPI PUSH1 0x40 MLOAD PUSH32 0x8C379A000000000000000000000000000000000000000000000000000000000 DUP2 MSTORE PUSH1 0x4 ADD PUSH2 0x879 SWAP1 PUSH2 0x176D JUMP JUMPDEST PUSH1 0x40 MLOAD DUP1 SWAP2 SUB SWAP1 REVERT JUMPDEST PUSH1 0x9 PUSH0 SWAP1 SLOAD SWAP1 PUSH2 0x100 EXP SWAP1 DIV PUSH20 0xFFFFFFFFFFFFFFFFFFFFFFFFFFFFFFFFFFFFFFFF AND PUSH20 0xFFFFFFFFFFFFFFFFFFFFFFFFFFFFFFFFFFFFFFFF AND PUSH2 0x8FC PUSH1 0x9 PUSH0 SWAP1 SLOAD SWAP1 PUSH2 0x100 EXP SWAP1 DIV PUSH20 0xFFFFFFFFFFFFFFFFFFFFFFFFFFFFFFFFFFFFFFFF AND PUSH20 0xFFFFFFFFFFFFFFFFFFFFFFFFFFFFFFFFFFFFFFFF AND BALANCE PUSH1 0xA SLOAD PUSH2 0x903 SWAP2 SWAP1 PUSH2 0x17B8 JUMP JUMPDEST SWAP1 DUP2 ISZERO MUL SWAP1 PUSH1 0x40 MLOAD PUSH0 PUSH1 0x40 MLOAD DUP1 DUP4 SUB DUP2 DUP6 DUP9 DUP9 CALL SWAP4 POP POP POP POP ISZERO DUP1 ISZERO PUSH2 0x92B JUMPI RETURNDATASIZE PUSH0 PUSH0 RETURNDATACOPY RETURNDATASIZE PUSH0 REVERT JUMPDEST POP PUSH0 PUSH0 SWAP1 SLOAD SWAP1 PUSH2 0x100 EXP SWAP1 DIV PUSH20 0xFFFFFFFFFFFFFFFFFFFFFFFFFFFFFFFFFFFFFFFF AND PUSH20 0xFFFFFFFFFFFFFFFFFFFFFFFFFFFFFFFFFFFFFFFF AND PUSH2 0x8FC SELFBALANCE SWAP1 DUP2 ISZERO MUL SWAP1 PUSH1 0x40 MLOAD PUSH0 PUSH1 0x40 MLOAD DUP1 DUP4 SUB DUP2 DUP6 DUP9 DUP9 CALL SWAP4 POP POP POP POP ISZERO DUP1 ISZERO PUSH2 0x98F JUMPI RETURNDATASIZE PUSH0 PUSH0 RETURNDATACOPY RETURNDATASIZE PUSH0 REVERT JUMPDEST POP JUMP JUMPDEST PUSH1 0x4 SLOAD DUP2 JUMP JUMPDEST PUSH0 PUSH0 SWAP1 SLOAD SWAP1 PUSH2 0x100 EXP SWAP1 DIV PUSH20 0xFFFFFFFFFFFFFFFFFFFFFFFFFFFFFFFFFFFFFFFF AND DUP2 JUMP JUMPDEST PUSH0 PUSH1 0x2 DUP2 GT ISZERO PUSH2 0x9CF JUMPI PUSH2 0x9CE PUSH2 0x14AE JUMP JUMPDEST JUMPDEST PUSH1 0x6 PUSH0 SWAP1 SLOAD SWAP1 PUSH2 0x100 EXP SWAP1 DIV PUSH1 0xFF AND PUSH1 0x2 DUP2 GT ISZERO PUSH2 0x9F0 JUMPI PUSH2 0x9EF PUSH2 0x14AE JUMP JUMPDEST JUMPDEST EQ PUSH2 0xA30 JUMPI PUSH1 0x40 MLOAD PUSH32 0x8C379A000000000000000000000000000000000000000000000000000000000 DUP2 MSTORE PUSH1 0x4 ADD PUSH2 0xA27 SWAP1 PUSH2 0x1835 JUMP JUMPDEST PUSH1 0x40 MLOAD DUP1 SWAP2 SUB SWAP1 REVERT JUMPDEST PUSH1 0x1 SLOAD TIMESTAMP LT ISZERO DUP1 ISZERO PUSH2 0xA44 JUMPI POP PUSH1 0x2 SLOAD TIMESTAMP GT ISZERO JUMPDEST PUSH2 0xA83 JUMPI PUSH1 0x40 MLOAD PUSH32 0x8C379A000000000000000000000000000000000000000000000000000000000 DUP2 MSTORE PUSH1 0x4 ADD PUSH2 0xA7A SWAP1 PUSH2 0x18C3 JUMP JUMPDEST PUSH1 0x40 MLOAD DUP1 SWAP2 SUB SWAP1 REVERT JUMPDEST PUSH0 DUP2 GT PUSH2 0xAC5 JUMPI PUSH1 0x40 MLOAD PUSH32 0x8C379A000000000000000000000000000000000000000000000000000000000 DUP2 MSTORE PUSH1 0x4 ADD PUSH2 0xABC SWAP1 PUSH2 0x192B JUMP JUMPDEST PUSH1 0x40 MLOAD DUP1 SWAP2 SUB SWAP1 REVERT JUMPDEST PUSH1 0x4 SLOAD DUP2 GT ISZERO PUSH2 0xB0A JUMPI PUSH1 0x40 MLOAD PUSH32 0x8C379A000000000000000000000000000000000000000000000000000000000 DUP2 MSTORE PUSH1 0x4 ADD PUSH2 0xB01 SWAP1 PUSH2 0x19B9 JUMP JUMPDEST PUSH1 0x40 MLOAD DUP1 SWAP2 SUB SWAP1 REVERT JUMPDEST PUSH2 0xB13 CALLER PUSH2 0x606 JUMP JUMPDEST ISZERO PUSH2 0xB53 JUMPI PUSH1 0x40 MLOAD PUSH32 0x8C379A000000000000000000000000000000000000000000000000000000000 DUP2 MSTORE PUSH1 0x4 ADD PUSH2 0xB4A SWAP1 PUSH2 0x1A21 JUMP JUMPDEST PUSH1 0x40 MLOAD DUP1 SWAP2 SUB SWAP1 REVERT JUMPDEST PUSH1 0x1E PUSH1 0x5 SLOAD LT PUSH2 0xB98 JUMPI PUSH1 0x40 MLOAD PUSH32 0x8C379A000000000000000000000000000000000000000000000000000000000 DUP2 MSTORE PUSH1 0x4 ADD PUSH2 0xB8F SWAP1 PUSH2 0x1AAF JUMP JUMPDEST PUSH1 0x40 MLOAD DUP1 SWAP2 SUB SWAP1 REVERT JUMPDEST PUSH0 PUSH0 SWAP1 SLOAD SWAP1 PUSH2 0x100 EXP SWAP1 DIV PUSH20 0xFFFFFFFFFFFFFFFFFFFFFFFFFFFFFFFFFFFFFFFF AND PUSH20 0xFFFFFFFFFFFFFFFFFFFFFFFFFFFFFFFFFFFFFFFF AND CALLER PUSH20 0xFFFFFFFFFFFFFFFFFFFFFFFFFFFFFFFFFFFFFFFF AND SUB PUSH2 0xC26 JUMPI PUSH1 0x40 MLOAD PUSH32 0x8C379A000000000000000000000000000000000000000000000000000000000 DUP2 MSTORE PUSH1 0x4 ADD PUSH2 0xC1D SWAP1 PUSH2 0x1B3D JUMP JUMPDEST PUSH1 0x40 MLOAD DUP1 SWAP2 SUB SWAP1 REVERT JUMPDEST PUSH1 0x64 PUSH1 0xA DUP3 PUSH2 0xC35 SWAP2 SWAP1 PUSH2 0x1B5B JUMP JUMPDEST PUSH2 0xC3F SWAP2 SWAP1 PUSH2 0x1BC9 JUMP JUMPDEST CALLVALUE EQ PUSH2 0xC80 JUMPI PUSH1 0x40 MLOAD PUSH32 0x8C379A000000000000000000000000000000000000000000000000000000000 DUP2 MSTORE PUSH1 0x4 ADD PUSH2 0xC77 SWAP1 PUSH2 0x1C69 JUMP JUMPDEST PUSH1 0x40 MLOAD DUP1 SWAP2 SUB SWAP1 REVERT JUMPDEST PUSH1 0x1 PUSH1 0x5 PUSH0 DUP3 DUP3 SLOAD PUSH2 0xC92 SWAP2 SWAP1 PUSH2 0x17B8 JUMP JUMPDEST SWAP3 POP POP DUP2 SWAP1 SSTORE POP PUSH1 0x7 PUSH1 0x40 MLOAD DUP1 PUSH1 0xA0 ADD PUSH1 0x40 MSTORE DUP1 CALLER PUSH20 0xFFFFFFFFFFFFFFFFFFFFFFFFFFFFFFFFFFFFFFFF AND DUP2 MSTORE PUSH1 0x20 ADD DUP4 DUP2 MSTORE PUSH1 0x20 ADD TIMESTAMP DUP2 MSTORE PUSH1 0x20 ADD CALLVALUE DUP2 MSTORE PUSH1 0x20 ADD PUSH0 ISZERO ISZERO DUP2 MSTORE POP SWAP1 DUP1 PUSH1 0x1 DUP2 SLOAD ADD DUP1 DUP3 SSTORE DUP1 SWAP2 POP POP PUSH1 0x1 SWAP1 SUB SWAP1 PUSH0 MSTORE PUSH1 0x20 PUSH0 KECCAK256 SWAP1 PUSH1 0x5 MUL ADD PUSH0 SWAP1 SWAP2 SWAP1 SWAP2 SWAP1 SWAP2 POP PUSH0 DUP3 ADD MLOAD DUP2 PUSH0 ADD PUSH0 PUSH2 0x100 EXP DUP2 SLOAD DUP2 PUSH20 0xFFFFFFFFFFFFFFFFFFFFFFFFFFFFFFFFFFFFFFFF MUL NOT AND SWAP1 DUP4 PUSH20 0xFFFFFFFFFFFFFFFFFFFFFFFFFFFFFFFFFFFFFFFF AND MUL OR SWAP1 SSTORE POP PUSH1 0x20 DUP3 ADD MLOAD DUP2 PUSH1 0x1 ADD SSTORE PUSH1 0x40 DUP3 ADD MLOAD DUP2 PUSH1 0x2 ADD SSTORE PUSH1 0x60 DUP3 ADD MLOAD DUP2 PUSH1 0x3 ADD SSTORE PUSH1 0x80 DUP3 ADD MLOAD DUP2 PUSH1 0x4 ADD PUSH0 PUSH2 0x100 EXP DUP2 SLOAD DUP2 PUSH1 0xFF MUL NOT AND SWAP1 DUP4 ISZERO ISZERO MUL OR SWAP1 SSTORE POP POP POP PUSH1 0x8 CALLER SWAP1 DUP1 PUSH1 0x1 DUP2 SLOAD ADD DUP1 DUP3 SSTORE DUP1 SWAP2 POP POP PUSH1 0x1 SWAP1 SUB SWAP1 PUSH0 MSTORE PUSH1 0x20 PUSH0 KECCAK256 ADD PUSH0 SWAP1 SWAP2 SWAP1 SWAP2 SWAP1 SWAP2 PUSH2 0x100 EXP DUP2 SLOAD DUP2 PUSH20 0xFFFFFFFFFFFFFFFFFFFFFFFFFFFFFFFFFFFFFFFF MUL NOT AND SWAP1 DUP4 PUSH20 0xFFFFFFFFFFFFFFFFFFFFFFFFFFFFFFFFFFFFFFFF AND MUL OR SWAP1 SSTORE POP CALLER PUSH20 0xFFFFFFFFFFFFFFFFFFFFFFFFFFFFFFFFFFFFFFFF AND PUSH32 0xE677A6B9A16A696674F50D2C98A1CE8C5CB51D6B48A0223412C512BBC93664D5 PUSH1 0x40 MLOAD PUSH1 0x40 MLOAD DUP1 SWAP2 SUB SWAP1 LOG2 POP JUMP JUMPDEST PUSH1 0x6 PUSH0 SWAP1 SLOAD SWAP1 PUSH2 0x100 EXP SWAP1 DIV PUSH1 0xFF AND DUP2 JUMP JUMPDEST PUSH1 0xA SLOAD DUP2 JUMP JUMPDEST PUSH1 0x8 DUP2 DUP2 SLOAD DUP2 LT PUSH2 0xE50 JUMPI PUSH0 DUP1 REVERT JUMPDEST SWAP1 PUSH0 MSTORE PUSH1 0x20 PUSH0 KECCAK256 ADD PUSH0 SWAP2 POP SLOAD SWAP1 PUSH2 0x100 EXP SWAP1 DIV PUSH20 0xFFFFFFFFFFFFFFFFFFFFFFFFFFFFFFFFFFFFFFFF AND DUP2 JUMP JUMPDEST PUSH1 0x3 SLOAD DUP2 JUMP JUMPDEST PUSH1 0x9 PUSH0 SWAP1 SLOAD SWAP1 PUSH2 0x100 EXP SWAP1 DIV PUSH20 0xFFFFFFFFFFFFFFFFFFFFFFFFFFFFFFFFFFFFFFFF AND DUP2 JUMP JUMPDEST PUSH0 PUSH0 SWAP1 SLOAD SWAP1 PUSH2 0x100 EXP SWAP1 DIV PUSH20 0xFFFFFFFFFFFFFFFFFFFFFFFFFFFFFFFFFFFFFFFF AND PUSH20 0xFFFFFFFFFFFFFFFFFFFFFFFFFFFFFFFFFFFFFFFF AND CALLER PUSH20 0xFFFFFFFFFFFFFFFFFFFFFFFFFFFFFFFFFFFFFFFF AND EQ PUSH2 0xF35 JUMPI PUSH1 0x40 MLOAD PUSH32 0x8C379A000000000000000000000000000000000000000000000000000000000 DUP2 MSTORE PUSH1 0x4 ADD PUSH2 0xF2C SWAP1 PUSH2 0x15E2 JUMP JUMPDEST PUSH1 0x40 MLOAD DUP1 SWAP2 SUB SWAP1 REVERT JUMPDEST PUSH0 PUSH1 0x2 DUP2 GT ISZERO PUSH2 0xF48 JUMPI PUSH2 0xF47 PUSH2 0x14AE JUMP JUMPDEST JUMPDEST PUSH1 0x6 PUSH0 SWAP1 SLOAD SWAP1 PUSH2 0x100 EXP SWAP1 DIV PUSH1 0xFF AND PUSH1 0x2 DUP2 GT ISZERO PUSH2 0xF69 JUMPI PUSH2 0xF68 PUSH2 0x14AE JUMP JUMPDEST JUMPDEST EQ PUSH2 0xFA9 JUMPI PUSH1 0x40 MLOAD PUSH32 0x8C379A000000000000000000000000000000000000000000000000000000000 DUP2 MSTORE PUSH1 0x4 ADD PUSH2 0xFA0 SWAP1 PUSH2 0x1CD1 JUMP JUMPDEST PUSH1 0x40 MLOAD DUP1 SWAP2 SUB SWAP1 REVERT JUMPDEST PUSH1 0x2 SLOAD TIMESTAMP LT ISZERO DUP1 PUSH2 0xFBD JUMPI POP PUSH1 0x1E PUSH1 0x5 SLOAD LT ISZERO JUMPDEST PUSH2 0xFFC JUMPI PUSH1 0x40 MLOAD PUSH32 0x8C379A000000000000000000000000000000000000000000000000000000000 DUP2 MSTORE PUSH1 0x4 ADD PUSH2 0xFF3 SWAP1 PUSH2 0x1D5F JUMP JUMPDEST PUSH1 0x40 MLOAD DUP1 SWAP2 SUB SWAP1 REVERT JUMPDEST PUSH2 0x1004 PUSH2 0x100C JUMP JUMPDEST JUMP JUMPDEST PUSH1 0x5 SLOAD DUP2 JUMP JUMPDEST PUSH1 0x1 PUSH1 0x6 PUSH0 PUSH2 0x100 EXP DUP2 SLOAD DUP2 PUSH1 0xFF MUL NOT AND SWAP1 DUP4 PUSH1 0x2 DUP2 GT ISZERO PUSH2 0x1031 JUMPI PUSH2 0x1030 PUSH2 0x14AE JUMP JUMPDEST JUMPDEST MUL OR SWAP1 SSTORE POP PUSH2 0x103E PUSH2 0x1101 JUMP JUMPDEST PUSH1 0x9 PUSH0 PUSH1 0xA PUSH0 DUP5 SWAP2 SWAP1 POP SSTORE DUP4 SWAP2 SWAP1 PUSH2 0x100 EXP DUP2 SLOAD DUP2 PUSH20 0xFFFFFFFFFFFFFFFFFFFFFFFFFFFFFFFFFFFFFFFF MUL NOT AND SWAP1 DUP4 PUSH20 0xFFFFFFFFFFFFFFFFFFFFFFFFFFFFFFFFFFFFFFFF AND MUL OR SWAP1 SSTORE POP POP POP PUSH1 0x9 PUSH0 SWAP1 SLOAD SWAP1 PUSH2 0x100 EXP SWAP1 DIV PUSH20 0xFFFFFFFFFFFFFFFFFFFFFFFFFFFFFFFFFFFFFFFF AND PUSH20 0xFFFFFFFFFFFFFFFFFFFFFFFFFFFFFFFFFFFFFFFF AND PUSH32 0xFD8F22870817EE413FCB464D7FFD8415666C2AB6285FE8D409DC1DC21FFFB4F6 PUSH1 0xB SLOAD PUSH1 0xA SLOAD PUSH1 0x40 MLOAD PUSH2 0x10F7 SWAP3 SWAP2 SWAP1 PUSH2 0x1D7D JUMP JUMPDEST PUSH1 0x40 MLOAD DUP1 SWAP2 SUB SWAP1 LOG2 JUMP JUMPDEST PUSH0 PUSH0 PUSH0 PUSH1 0x7 DUP1 SLOAD SWAP1 POP GT PUSH2 0x114A JUMPI PUSH1 0x40 MLOAD PUSH32 0x8C379A000000000000000000000000000000000000000000000000000000000 DUP2 MSTORE PUSH1 0x4 ADD PUSH2 0x1141 SWAP1 PUSH2 0x1DEE JUMP JUMPDEST PUSH1 0x40 MLOAD DUP1 SWAP2 SUB SWAP1 REVERT JUMPDEST PUSH0 PUSH1 0x4 SLOAD SWAP1 POP PUSH0 PUSH1 0x4 SLOAD SWAP1 POP PUSH0 PUSH0 PUSH32 0xFFFFFFFFFFFFFFFFFFFFFFFFFFFFFFFFFFFFFFFFFFFFFFFFFFFFFFFFFFFFFFFF SWAP1 POP PUSH0 PUSH0 SWAP1 POP JUMPDEST PUSH1 0x7 DUP1 SLOAD SWAP1 POP DUP2 LT ISZERO PUSH2 0x12BF JUMPI PUSH0 PUSH1 0x7 DUP3 DUP2 SLOAD DUP2 LT PUSH2 0x11A2 JUMPI PUSH2 0x11A1 PUSH2 0x16F6 JUMP JUMPDEST JUMPDEST SWAP1 PUSH0 MSTORE PUSH1 0x20 PUSH0 KECCAK256 SWAP1 PUSH1 0x5 MUL ADD PUSH1 0x1 ADD SLOAD SWAP1 POP PUSH0 PUSH1 0x7 DUP4 DUP2 SLOAD DUP2 LT PUSH2 0x11C9 JUMPI PUSH2 0x11C8 PUSH2 0x16F6 JUMP JUMPDEST JUMPDEST SWAP1 PUSH0 MSTORE PUSH1 0x20 PUSH0 KECCAK256 SWAP1 PUSH1 0x5 MUL ADD PUSH1 0x3 ADD SLOAD SWAP1 POP DUP7 DUP3 LT ISZERO PUSH2 0x1235 JUMPI DUP7 SWAP6 POP DUP2 SWAP7 POP PUSH1 0x7 DUP4 DUP2 SLOAD DUP2 LT PUSH2 0x11FD JUMPI PUSH2 0x11FC PUSH2 0x16F6 JUMP JUMPDEST JUMPDEST SWAP1 PUSH0 MSTORE PUSH1 0x20 PUSH0 KECCAK256 SWAP1 PUSH1 0x5 MUL ADD PUSH0 ADD PUSH0 SWAP1 SLOAD SWAP1 PUSH2 0x100 EXP SWAP1 DIV PUSH20 0xFFFFFFFFFFFFFFFFFFFFFFFFFFFFFFFFFFFFFFFF AND SWAP5 POP DUP1 SWAP4 POP PUSH2 0x12B0 JUMP JUMPDEST DUP7 DUP3 EQ DUP1 ISZERO PUSH2 0x1243 JUMPI POP DUP4 DUP2 LT JUMPDEST ISZERO PUSH2 0x1297 JUMPI DUP7 SWAP6 POP PUSH1 0x7 DUP4 DUP2 SLOAD DUP2 LT PUSH2 0x125F JUMPI PUSH2 0x125E PUSH2 0x16F6 JUMP JUMPDEST JUMPDEST SWAP1 PUSH0 MSTORE PUSH1 0x20 PUSH0 KECCAK256 SWAP1 PUSH1 0x5 MUL ADD PUSH0 ADD PUSH0 SWAP1 SLOAD SWAP1 PUSH2 0x100 EXP SWAP1 DIV PUSH20 0xFFFFFFFFFFFFFFFFFFFFFFFFFFFFFFFFFFFFFFFF AND SWAP5 POP DUP1 SWAP4 POP PUSH2 0x12AF JUMP JUMPDEST DUP6 DUP3 LT DUP1 ISZERO PUSH2 0x12A5 JUMPI POP DUP7 DUP3 GT JUMPDEST ISZERO PUSH2 0x12AE JUMPI DUP2 SWAP6 POP JUMPDEST JUMPDEST JUMPDEST POP POP DUP1 DUP1 PUSH1 0x1 ADD SWAP2 POP POP PUSH2 0x1180 JUMP JUMPDEST POP DUP2 PUSH1 0x1 PUSH1 0x7 DUP1 SLOAD SWAP1 POP EQ PUSH2 0x12D4 JUMPI DUP4 PUSH2 0x12D6 JUMP JUMPDEST DUP5 JUMPDEST SWAP6 POP SWAP6 POP POP POP POP POP SWAP1 SWAP2 JUMP JUMPDEST PUSH0 PUSH0 REVERT JUMPDEST PUSH0 PUSH20 0xFFFFFFFFFFFFFFFFFFFFFFFFFFFFFFFFFFFFFFFF DUP3 AND SWAP1 POP SWAP2 SWAP1 POP JUMP JUMPDEST PUSH0 PUSH2 0x130F DUP3 PUSH2 0x12E6 JUMP JUMPDEST SWAP1 POP SWAP2 SWAP1 POP JUMP JUMPDEST PUSH2 0x131F DUP2 PUSH2 0x1305 JUMP JUMPDEST DUP2 EQ PUSH2 0x1329 JUMPI PUSH0 PUSH0 REVERT JUMPDEST POP JUMP JUMPDEST PUSH0 DUP2 CALLDATALOAD SWAP1 POP PUSH2 0x133A DUP2 PUSH2 0x1316 JUMP JUMPDEST SWAP3 SWAP2 POP POP JUMP JUMPDEST PUSH0 PUSH1 0x20 DUP3 DUP5 SUB SLT ISZERO PUSH2 0x1355 JUMPI PUSH2 0x1354 PUSH2 0x12E2 JUMP JUMPDEST JUMPDEST PUSH0 PUSH2 0x1362 DUP5 DUP3 DUP6 ADD PUSH2 0x132C JUMP JUMPDEST SWAP2 POP POP SWAP3 SWAP2 POP POP JUMP JUMPDEST PUSH0 DUP2 ISZERO ISZERO SWAP1 POP SWAP2 SWAP1 POP JUMP JUMPDEST PUSH2 0x137F DUP2 PUSH2 0x136B JUMP JUMPDEST DUP3 MSTORE POP POP JUMP JUMPDEST PUSH0 PUSH1 0x20 DUP3 ADD SWAP1 POP PUSH2 0x1398 PUSH0 DUP4 ADD DUP5 PUSH2 0x1376 JUMP JUMPDEST SWAP3 SWAP2 POP POP JUMP JUMPDEST PUSH0 DUP2 SWAP1 POP SWAP2 SWAP1 POP JUMP JUMPDEST PUSH2 0x13B0 DUP2 PUSH2 0x139E JUMP JUMPDEST DUP3 MSTORE POP POP JUMP JUMPDEST PUSH0 PUSH1 0x20 DUP3 ADD SWAP1 POP PUSH2 0x13C9 PUSH0 DUP4 ADD DUP5 PUSH2 0x13A7 JUMP JUMPDEST SWAP3 SWAP2 POP POP JUMP JUMPDEST PUSH2 0x13D8 DUP2 PUSH2 0x139E JUMP JUMPDEST DUP2 EQ PUSH2 0x13E2 JUMPI PUSH0 PUSH0 REVERT JUMPDEST POP JUMP JUMPDEST PUSH0 DUP2 CALLDATALOAD SWAP1 POP PUSH2 0x13F3 DUP2 PUSH2 0x13CF JUMP JUMPDEST SWAP3 SWAP2 POP POP JUMP JUMPDEST PUSH0 PUSH1 0x20 DUP3 DUP5 SUB SLT ISZERO PUSH2 0x140E JUMPI PUSH2 0x140D PUSH2 0x12E2 JUMP JUMPDEST JUMPDEST PUSH0 PUSH2 0x141B DUP5 DUP3 DUP6 ADD PUSH2 0x13E5 JUMP JUMPDEST SWAP2 POP POP SWAP3 SWAP2 POP POP JUMP JUMPDEST PUSH0 PUSH2 0x142E DUP3 PUSH2 0x12E6 JUMP JUMPDEST SWAP1 POP SWAP2 SWAP1 POP JUMP JUMPDEST PUSH2 0x143E DUP2 PUSH2 0x1424 JUMP JUMPDEST DUP3 MSTORE POP POP JUMP JUMPDEST PUSH0 PUSH1 0xA0 DUP3 ADD SWAP1 POP PUSH2 0x1457 PUSH0 DUP4 ADD DUP9 PUSH2 0x1435 JUMP JUMPDEST PUSH2 0x1464 PUSH1 0x20 DUP4 ADD DUP8 PUSH2 0x13A7 JUMP JUMPDEST PUSH2 0x1471 PUSH1 0x40 DUP4 ADD DUP7 PUSH2 0x13A7 JUMP JUMPDEST PUSH2 0x147E PUSH1 0x60 DUP4 ADD DUP6 PUSH2 0x13A7 JUMP JUMPDEST PUSH2 0x148B PUSH1 0x80 DUP4 ADD DUP5 PUSH2 0x1376 JUMP JUMPDEST SWAP7 SWAP6 POP POP POP POP POP POP JUMP JUMPDEST PUSH0 PUSH1 0x20 DUP3 ADD SWAP1 POP PUSH2 0x14A8 PUSH0 DUP4 ADD DUP5 PUSH2 0x1435 JUMP JUMPDEST SWAP3 SWAP2 POP POP JUMP JUMPDEST PUSH32 0x4E487B7100000000000000000000000000000000000000000000000000000000 PUSH0 MSTORE PUSH1 0x21 PUSH1 0x4 MSTORE PUSH1 0x24 PUSH0 REVERT JUMPDEST PUSH1 0x3 DUP2 LT PUSH2 0x14EC JUMPI PUSH2 0x14EB PUSH2 0x14AE JUMP JUMPDEST JUMPDEST POP JUMP JUMPDEST PUSH0 DUP2 SWAP1 POP PUSH2 0x14FC DUP3 PUSH2 0x14DB JUMP JUMPDEST SWAP2 SWAP1 POP JUMP JUMPDEST PUSH0 PUSH2 0x150B DUP3 PUSH2 0x14EF JUMP JUMPDEST SWAP1 POP SWAP2 SWAP1 POP JUMP JUMPDEST PUSH2 0x151B DUP2 PUSH2 0x1501 JUMP JUMPDEST DUP3 MSTORE POP POP JUMP JUMPDEST PUSH0 PUSH1 0x20 DUP3 ADD SWAP1 POP PUSH2 0x1534 PUSH0 DUP4 ADD DUP5 PUSH2 0x1512 JUMP JUMPDEST SWAP3 SWAP2 POP POP JUMP JUMPDEST PUSH2 0x1543 DUP2 PUSH2 0x1305 JUMP JUMPDEST DUP3 MSTORE POP POP JUMP JUMPDEST PUSH0 PUSH1 0x20 DUP3 ADD SWAP1 POP PUSH2 0x155C PUSH0 DUP4 ADD DUP5 PUSH2 0x153A JUMP JUMPDEST SWAP3 SWAP2 POP POP JUMP JUMPDEST PUSH0 DUP3 DUP3 MSTORE PUSH1 0x20 DUP3 ADD SWAP1 POP SWAP3 SWAP2 POP POP JUMP JUMPDEST PUSH32 0x4F6E6C7920746865206F776E65722063616E2063616C6C20746869732066756E PUSH0 DUP3 ADD MSTORE PUSH32 0x6374696F6E000000000000000000000000000000000000000000000000000000 PUSH1 0x20 DUP3 ADD MSTORE POP JUMP JUMPDEST PUSH0 PUSH2 0x15CC PUSH1 0x25 DUP4 PUSH2 0x1562 JUMP JUMPDEST SWAP2 POP PUSH2 0x15D7 DUP3 PUSH2 0x1572 JUMP JUMPDEST PUSH1 0x40 DUP3 ADD SWAP1 POP SWAP2 SWAP1 POP JUMP JUMPDEST PUSH0 PUSH1 0x20 DUP3 ADD SWAP1 POP DUP2 DUP2 SUB PUSH0 DUP4 ADD MSTORE PUSH2 0x15F9 DUP2 PUSH2 0x15C0 JUMP JUMPDEST SWAP1 POP SWAP2 SWAP1 POP JUMP JUMPDEST PUSH32 0x41756374696F6E207374696C6C206F70656E206F72206469646E277420706169 PUSH0 DUP3 ADD MSTORE PUSH32 0x64206261636B20746865206465706F7369747320796574000000000000000000 PUSH1 0x20 DUP3 ADD MSTORE POP JUMP JUMPDEST PUSH0 PUSH2 0x165A PUSH1 0x37 DUP4 PUSH2 0x1562 JUMP JUMPDEST SWAP2 POP PUSH2 0x1665 DUP3 PUSH2 0x1600 JUMP JUMPDEST PUSH1 0x40 DUP3 ADD SWAP1 POP SWAP2 SWAP1 POP JUMP JUMPDEST PUSH0 PUSH1 0x20 DUP3 ADD SWAP1 POP DUP2 DUP2 SUB PUSH0 DUP4 ADD MSTORE PUSH2 0x1687 DUP2 PUSH2 0x164E JUMP JUMPDEST SWAP1 POP SWAP2 SWAP1 POP JUMP JUMPDEST PUSH32 0x5468652064656C69766572792063616E207374696C6C206265206D6164650000 PUSH0 DUP3 ADD MSTORE POP JUMP JUMPDEST PUSH0 PUSH2 0x16C2 PUSH1 0x1E DUP4 PUSH2 0x1562 JUMP JUMPDEST SWAP2 POP PUSH2 0x16CD DUP3 PUSH2 0x168E JUMP JUMPDEST PUSH1 0x20 DUP3 ADD SWAP1 POP SWAP2 SWAP1 POP JUMP JUMPDEST PUSH0 PUSH1 0x20 DUP3 ADD SWAP1 POP DUP2 DUP2 SUB PUSH0 DUP4 ADD MSTORE PUSH2 0x16EF DUP2 PUSH2 0x16B6 JUMP JUMPDEST SWAP1 POP SWAP2 SWAP1 POP JUMP JUMPDEST PUSH32 0x4E487B7100000000000000000000000000000000000000000000000000000000 PUSH0 MSTORE PUSH1 0x32 PUSH1 0x4 MSTORE PUSH1 0x24 PUSH0 REVERT JUMPDEST PUSH32 0x5468652064656C6976657279206973206F766572647565000000000000000000 PUSH0 DUP3 ADD MSTORE POP JUMP JUMPDEST PUSH0 PUSH2 0x1757 PUSH1 0x17 DUP4 PUSH2 0x1562 JUMP JUMPDEST SWAP2 POP PUSH2 0x1762 DUP3 PUSH2 0x1723 JUMP JUMPDEST PUSH1 0x20 DUP3 ADD SWAP1 POP SWAP2 SWAP1 POP JUMP JUMPDEST PUSH0 PUSH1 0x20 DUP3 ADD SWAP1 POP DUP2 DUP2 SUB PUSH0 DUP4 ADD MSTORE PUSH2 0x1784 DUP2 PUSH2 0x174B JUMP JUMPDEST SWAP1 POP SWAP2 SWAP1 POP JUMP JUMPDEST PUSH32 0x4E487B7100000000000000000000000000000000000000000000000000000000 PUSH0 MSTORE PUSH1 0x11 PUSH1 0x4 MSTORE PUSH1 0x24 PUSH0 REVERT JUMPDEST PUSH0 PUSH2 0x17C2 DUP3 PUSH2 0x139E JUMP JUMPDEST SWAP2 POP PUSH2 0x17CD DUP4 PUSH2 0x139E JUMP JUMPDEST SWAP3 POP DUP3 DUP3 ADD SWAP1 POP DUP1 DUP3 GT ISZERO PUSH2 0x17E5 JUMPI PUSH2 0x17E4 PUSH2 0x178B JUMP JUMPDEST JUMPDEST SWAP3 SWAP2 POP POP JUMP JUMPDEST PUSH32 0x41756374696F6E206E6F74206163746976650000000000000000000000000000 PUSH0 DUP3 ADD MSTORE POP JUMP JUMPDEST PUSH0 PUSH2 0x181F PUSH1 0x12 DUP4 PUSH2 0x1562 JUMP JUMPDEST SWAP2 POP PUSH2 0x182A DUP3 PUSH2 0x17EB JUMP JUMPDEST PUSH1 0x20 DUP3 ADD SWAP1 POP SWAP2 SWAP1 POP JUMP JUMPDEST PUSH0 PUSH1 0x20 DUP3 ADD SWAP1 POP DUP2 DUP2 SUB PUSH0 DUP4 ADD MSTORE PUSH2 0x184C DUP2 PUSH2 0x1813 JUMP JUMPDEST SWAP1 POP SWAP2 SWAP1 POP JUMP JUMPDEST PUSH32 0x4F757473696465206F66207468652061756374696F6E27732074696D65207261 PUSH0 DUP3 ADD MSTORE PUSH32 0x6E67650000000000000000000000000000000000000000000000000000000000 PUSH1 0x20 DUP3 ADD MSTORE POP JUMP JUMPDEST PUSH0 PUSH2 0x18AD PUSH1 0x23 DUP4 PUSH2 0x1562 JUMP JUMPDEST SWAP2 POP PUSH2 0x18B8 DUP3 PUSH2 0x1853 JUMP JUMPDEST PUSH1 0x40 DUP3 ADD SWAP1 POP SWAP2 SWAP1 POP JUMP JUMPDEST PUSH0 PUSH1 0x20 DUP3 ADD SWAP1 POP DUP2 DUP2 SUB PUSH0 DUP4 ADD MSTORE PUSH2 0x18DA DUP2 PUSH2 0x18A1 JUMP JUMPDEST SWAP1 POP SWAP2 SWAP1 POP JUMP JUMPDEST PUSH32 0x54686520626964206D757374206265203E203000000000000000000000000000 PUSH0 DUP3 ADD MSTORE POP JUMP JUMPDEST PUSH0 PUSH2 0x1915 PUSH1 0x13 DUP4 PUSH2 0x1562 JUMP JUMPDEST SWAP2 POP PUSH2 0x1920 DUP3 PUSH2 0x18E1 JUMP JUMPDEST PUSH1 0x20 DUP3 ADD SWAP1 POP SWAP2 SWAP1 POP JUMP JUMPDEST PUSH0 PUSH1 0x20 DUP3 ADD SWAP1 POP DUP2 DUP2 SUB PUSH0 DUP4 ADD MSTORE PUSH2 0x1942 DUP2 PUSH2 0x1909 JUMP JUMPDEST SWAP1 POP SWAP2 SWAP1 POP JUMP JUMPDEST PUSH32 0x5468652062696420697320686967686572207468616E20746865206D6178696D PUSH0 DUP3 ADD MSTORE PUSH32 0x756D000000000000000000000000000000000000000000000000000000000000 PUSH1 0x20 DUP3 ADD MSTORE POP JUMP JUMPDEST PUSH0 PUSH2 0x19A3 PUSH1 0x22 DUP4 PUSH2 0x1562 JUMP JUMPDEST SWAP2 POP PUSH2 0x19AE DUP3 PUSH2 0x1949 JUMP JUMPDEST PUSH1 0x40 DUP3 ADD SWAP1 POP SWAP2 SWAP1 POP JUMP JUMPDEST PUSH0 PUSH1 0x20 DUP3 ADD SWAP1 POP DUP2 DUP2 SUB PUSH0 DUP4 ADD MSTORE PUSH2 0x19D0 DUP2 PUSH2 0x1997 JUMP JUMPDEST SWAP1 POP SWAP2 SWAP1 POP JUMP JUMPDEST PUSH32 0x596F75206861766520616C726561647920706172746963697061746564000000 PUSH0 DUP3 ADD MSTORE POP JUMP JUMPDEST PUSH0 PUSH2 0x1A0B PUSH1 0x1D DUP4 PUSH2 0x1562 JUMP JUMPDEST SWAP2 POP PUSH2 0x1A16 DUP3 PUSH2 0x19D7 JUMP JUMPDEST PUSH1 0x20 DUP3 ADD SWAP1 POP SWAP2 SWAP1 POP JUMP JUMPDEST PUSH0 PUSH1 0x20 DUP3 ADD SWAP1 POP DUP2 DUP2 SUB PUSH0 DUP4 ADD MSTORE PUSH2 0x1A38 DUP2 PUSH2 0x19FF JUMP JUMPDEST SWAP1 POP SWAP2 SWAP1 POP JUMP JUMPDEST PUSH32 0x5468652061756374696F6E20686173207265616368656420746865206D617869 PUSH0 DUP3 ADD MSTORE PUSH32 0x6D756D206E756D626572206F66207061727469636970616E7473000000000000 PUSH1 0x20 DUP3 ADD MSTORE POP JUMP JUMPDEST PUSH0 PUSH2 0x1A99 PUSH1 0x3A DUP4 PUSH2 0x1562 JUMP JUMPDEST SWAP2 POP PUSH2 0x1AA4 DUP3 PUSH2 0x1A3F JUMP JUMPDEST PUSH1 0x40 DUP3 ADD SWAP1 POP SWAP2 SWAP1 POP JUMP JUMPDEST PUSH0 PUSH1 0x20 DUP3 ADD SWAP1 POP DUP2 DUP2 SUB PUSH0 DUP4 ADD MSTORE PUSH2 0x1AC6 DUP2 PUSH2 0x1A8D JUMP JUMPDEST SWAP1 POP SWAP2 SWAP1 POP JUMP JUMPDEST PUSH32 0x596F752063616E6E6F7420706C616365206120626964206F6E20796F7572206F PUSH0 DUP3 ADD MSTORE PUSH32 0x776E2061756374696F6E00000000000000000000000000000000000000000000 PUSH1 0x20 DUP3 ADD MSTORE POP JUMP JUMPDEST PUSH0 PUSH2 0x1B27 PUSH1 0x2A DUP4 PUSH2 0x1562 JUMP JUMPDEST SWAP2 POP PUSH2 0x1B32 DUP3 PUSH2 0x1ACD JUMP JUMPDEST PUSH1 0x40 DUP3 ADD SWAP1 POP SWAP2 SWAP1 POP JUMP JUMPDEST PUSH0 PUSH1 0x20 DUP3 ADD SWAP1 POP DUP2 DUP2 SUB PUSH0 DUP4 ADD MSTORE PUSH2 0x1B54 DUP2 PUSH2 0x1B1B JUMP JUMPDEST SWAP1 POP SWAP2 SWAP1 POP JUMP JUMPDEST PUSH0 PUSH2 0x1B65 DUP3 PUSH2 0x139E JUMP JUMPDEST SWAP2 POP PUSH2 0x1B70 DUP4 PUSH2 0x139E JUMP JUMPDEST SWAP3 POP DUP3 DUP3 MUL PUSH2 0x1B7E DUP2 PUSH2 0x139E JUMP JUMPDEST SWAP2 POP DUP3 DUP3 DIV DUP5 EQ DUP4 ISZERO OR PUSH2 0x1B95 JUMPI PUSH2 0x1B94 PUSH2 0x178B JUMP JUMPDEST JUMPDEST POP SWAP3 SWAP2 POP POP JUMP JUMPDEST PUSH32 0x4E487B7100000000000000000000000000000000000000000000000000000000 PUSH0 MSTORE PUSH1 0x12 PUSH1 0x4 MSTORE PUSH1 0x24 PUSH0 REVERT JUMPDEST PUSH0 PUSH2 0x1BD3 DUP3 PUSH2 0x139E JUMP JUMPDEST SWAP2 POP PUSH2 0x1BDE DUP4 PUSH2 0x139E JUMP JUMPDEST SWAP3 POP DUP3 PUSH2 0x1BEE JUMPI PUSH2 0x1BED PUSH2 0x1B9C JUMP JUMPDEST JUMPDEST DUP3 DUP3 DIV SWAP1 POP SWAP3 SWAP2 POP POP JUMP JUMPDEST PUSH32 0x546865206465706F736974206D757374206265206174206C6561737420313025 PUSH0 DUP3 ADD MSTORE PUSH32 0x206F662074686520626964000000000000000000000000000000000000000000 PUSH1 0x20 DUP3 ADD MSTORE POP JUMP JUMPDEST PUSH0 PUSH2 0x1C53 PUSH1 0x2B DUP4 PUSH2 0x1562 JUMP JUMPDEST SWAP2 POP PUSH2 0x1C5E DUP3 PUSH2 0x1BF9 JUMP JUMPDEST PUSH1 0x40 DUP3 ADD SWAP1 POP SWAP2 SWAP1 POP JUMP JUMPDEST PUSH0 PUSH1 0x20 DUP3 ADD SWAP1 POP DUP2 DUP2 SUB PUSH0 DUP4 ADD MSTORE PUSH2 0x1C80 DUP2 PUSH2 0x1C47 JUMP JUMPDEST SWAP1 POP SWAP2 SWAP1 POP JUMP JUMPDEST PUSH32 0x41756374696F6E20636C6F736564000000000000000000000000000000000000 PUSH0 DUP3 ADD MSTORE POP JUMP JUMPDEST PUSH0 PUSH2 0x1CBB PUSH1 0xE DUP4 PUSH2 0x1562 JUMP JUMPDEST SWAP2 POP PUSH2 0x1CC6 DUP3 PUSH2 0x1C87 JUMP JUMPDEST PUSH1 0x20 DUP3 ADD SWAP1 POP SWAP2 SWAP1 POP JUMP JUMPDEST PUSH0 PUSH1 0x20 DUP3 ADD SWAP1 POP DUP2 DUP2 SUB PUSH0 DUP4 ADD MSTORE PUSH2 0x1CE8 DUP2 PUSH2 0x1CAF JUMP JUMPDEST SWAP1 POP SWAP2 SWAP1 POP JUMP JUMPDEST PUSH32 0x5468652061756374696F6E2063616E6E6F7420626520636C6F73656420656172 PUSH0 DUP3 ADD MSTORE PUSH32 0x6C69657200000000000000000000000000000000000000000000000000000000 PUSH1 0x20 DUP3 ADD MSTORE POP JUMP JUMPDEST PUSH0 PUSH2 0x1D49 PUSH1 0x24 DUP4 PUSH2 0x1562 JUMP JUMPDEST SWAP2 POP PUSH2 0x1D54 DUP3 PUSH2 0x1CEF JUMP JUMPDEST PUSH1 0x40 DUP3 ADD SWAP1 POP SWAP2 SWAP1 POP JUMP JUMPDEST PUSH0 PUSH1 0x20 DUP3 ADD SWAP1 POP DUP2 DUP2 SUB PUSH0 DUP4 ADD MSTORE PUSH2 0x1D76 DUP2 PUSH2 0x1D3D JUMP JUMPDEST SWAP1 POP SWAP2 SWAP1 POP JUMP JUMPDEST PUSH0 PUSH1 0x40 DUP3 ADD SWAP1 POP PUSH2 0x1D90 PUSH0 DUP4 ADD DUP6 PUSH2 0x13A7 JUMP JUMPDEST PUSH2 0x1D9D PUSH1 0x20 DUP4 ADD DUP5 PUSH2 0x13A7 JUMP JUMPDEST SWAP4 SWAP3 POP POP POP JUMP JUMPDEST PUSH32 0x4E6F206F66666572730000000000000000000000000000000000000000000000 PUSH0 DUP3 ADD MSTORE POP JUMP JUMPDEST PUSH0 PUSH2 0x1DD8 PUSH1 0x9 DUP4 PUSH2 0x1562 JUMP JUMPDEST SWAP2 POP PUSH2 0x1DE3 DUP3 PUSH2 0x1DA4 JUMP JUMPDEST PUSH1 0x20 DUP3 ADD SWAP1 POP SWAP2 SWAP1 POP JUMP JUMPDEST PUSH0 PUSH1 0x20 DUP3 ADD SWAP1 POP DUP2 DUP2 SUB PUSH0 DUP4 ADD MSTORE PUSH2 0x1E05 DUP2 PUSH2 0x1DCC JUMP JUMPDEST SWAP1 POP SWAP2 SWAP1 POP JUMP INVALID LOG2 PUSH5 0x6970667358 0x22 SLT KECCAK256 0x1F 0xB2 0xB7 0xDD 0xCC 0xC8 PUSH23 0x7FBDAE26E499C906F6BD2BF79A3CBA52DB4E5AE9ECE33C SWAP11 0xD PUSH5 0x736F6C6343 STOP ADDMOD 0x1E STOP CALLER "
				},
				"gasEstimates": {
					"creation": {
						"codeDepositCost": "1549200",
						"executionCost": "infinite",
						"totalCost": "infinite"
					},
					"external": {
						"DEPOSIT_PERCENTAGE()": "414",
						"MAX_BIDDERS()": "348",
						"auctionEnd()": "2515",
						"auctionStart()": "2492",
						"bidders(uint256)": "4966",
						"bids(uint256)": "infinite",
						"deliveryDueDate()": "2469",
						"deliveryReceived()": "infinite",
						"finalizeAuction()": "infinite",
						"getBidCount()": "2508",
						"hasAlreadyBid(address)": "infinite",
						"maxBid()": "2448",
						"notDelivered()": "infinite",
						"numBidders()": "2535",
						"owner()": "2552",
						"placeBid(uint256)": "infinite",
						"state()": "2643",
						"winner()": "2574",
						"winnerDeposit()": "2470",
						"winningPrice()": "2536"
					},
					"internal": {
						"_determineWinner()": "infinite",
						"_finalizeAuction()": "infinite",
						"returnDeposits()": "infinite"
					}
				},
				"methodIdentifiers": {
					"DEPOSIT_PERCENTAGE()": "5a84d52a",
					"MAX_BIDDERS()": "4cc4f50d",
					"auctionEnd()": "2a24f46c",
					"auctionStart()": "4f245ef7",
					"bidders(uint256)": "cff29dfd",
					"bids(uint256)": "4423c5f1",
					"deliveryDueDate()": "d3124946",
					"deliveryReceived()": "5d7e0b51",
					"finalizeAuction()": "f77282ab",
					"getBidCount()": "28f6a48a",
					"hasAlreadyBid(address)": "235f0e46",
					"maxBid()": "74b11d8a",
					"notDelivered()": "11d72e47",
					"numBidders()": "fb4cd8e2",
					"owner()": "8da5cb5b",
					"placeBid(uint256)": "9979ef45",
					"state()": "c19d93fb",
					"winner()": "dfbf53ae",
					"winnerDeposit()": "4e9edd1b",
					"winningPrice()": "c1f52604"
				}
			},
			"storageLayout": {
				"storage": [
					{
						"astId": 3,
						"contract": "contracts/subasta.sol:VickreyAuctionSimple",
						"label": "owner",
						"offset": 0,
						"slot": "0",
						"type": "t_address_payable"
					},
					{
						"astId": 5,
						"contract": "contracts/subasta.sol:VickreyAuctionSimple",
						"label": "auctionStart",
						"offset": 0,
						"slot": "1",
						"type": "t_uint256"
					},
					{
						"astId": 7,
						"contract": "contracts/subasta.sol:VickreyAuctionSimple",
						"label": "auctionEnd",
						"offset": 0,
						"slot": "2",
						"type": "t_uint256"
					},
					{
						"astId": 9,
						"contract": "contracts/subasta.sol:VickreyAuctionSimple",
						"label": "deliveryDueDate",
						"offset": 0,
						"slot": "3",
						"type": "t_uint256"
					},
					{
						"astId": 11,
						"contract": "contracts/subasta.sol:VickreyAuctionSimple",
						"label": "maxBid",
						"offset": 0,
						"slot": "4",
						"type": "t_uint256"
					},
					{
						"astId": 13,
						"contract": "contracts/subasta.sol:VickreyAuctionSimple",
						"label": "numBidders",
						"offset": 0,
						"slot": "5",
						"type": "t_uint256"
					},
					{
						"astId": 26,
						"contract": "contracts/subasta.sol:VickreyAuctionSimple",
						"label": "state",
						"offset": 0,
						"slot": "6",
						"type": "t_enum(AuctionState)23"
					},
					{
						"astId": 41,
						"contract": "contracts/subasta.sol:VickreyAuctionSimple",
						"label": "bids",
						"offset": 0,
						"slot": "7",
						"type": "t_array(t_struct(Bid)37_storage)dyn_storage"
					},
					{
						"astId": 44,
						"contract": "contracts/subasta.sol:VickreyAuctionSimple",
						"label": "bidders",
						"offset": 0,
						"slot": "8",
						"type": "t_array(t_address)dyn_storage"
					},
					{
						"astId": 46,
						"contract": "contracts/subasta.sol:VickreyAuctionSimple",
						"label": "winner",
						"offset": 0,
						"slot": "9",
						"type": "t_address_payable"
					},
					{
						"astId": 48,
						"contract": "contracts/subasta.sol:VickreyAuctionSimple",
						"label": "winningPrice",
						"offset": 0,
						"slot": "10",
						"type": "t_uint256"
					},
					{
						"astId": 50,
						"contract": "contracts/subasta.sol:VickreyAuctionSimple",
						"label": "winnerDeposit",
						"offset": 0,
						"slot": "11",
						"type": "t_uint256"
					}
				],
				"types": {
					"t_address": {
						"encoding": "inplace",
						"label": "address",
						"numberOfBytes": "20"
					},
					"t_address_payable": {
						"encoding": "inplace",
						"label": "address payable",
						"numberOfBytes": "20"
					},
					"t_array(t_address)dyn_storage": {
						"base": "t_address",
						"encoding": "dynamic_array",
						"label": "address[]",
						"numberOfBytes": "32"
					},
					"t_array(t_struct(Bid)37_storage)dyn_storage": {
						"base": "t_struct(Bid)37_storage",
						"encoding": "dynamic_array",
						"label": "struct VickreyAuctionSimple.Bid[]",
						"numberOfBytes": "32"
					},
					"t_bool": {
						"encoding": "inplace",
						"label": "bool",
						"numberOfBytes": "1"
					},
					"t_enum(AuctionState)23": {
						"encoding": "inplace",
						"label": "enum VickreyAuctionSimple.AuctionState",
						"numberOfBytes": "1"
					},
					"t_struct(Bid)37_storage": {
						"encoding": "inplace",
						"label": "struct VickreyAuctionSimple.Bid",
						"members": [
							{
								"astId": 28,
								"contract": "contracts/subasta.sol:VickreyAuctionSimple",
								"label": "bidder",
								"offset": 0,
								"slot": "0",
								"type": "t_address_payable"
							},
							{
								"astId": 30,
								"contract": "contracts/subasta.sol:VickreyAuctionSimple",
								"label": "amount",
								"offset": 0,
								"slot": "1",
								"type": "t_uint256"
							},
							{
								"astId": 32,
								"contract": "contracts/subasta.sol:VickreyAuctionSimple",
								"label": "deposit",
								"offset": 0,
								"slot": "2",
								"type": "t_uint256"
							},
							{
								"astId": 34,
								"contract": "contracts/subasta.sol:VickreyAuctionSimple",
								"label": "timestamp",
								"offset": 0,
								"slot": "3",
								"type": "t_uint256"
							},
							{
								"astId": 36,
								"contract": "contracts/subasta.sol:VickreyAuctionSimple",
								"label": "depositReturned",
								"offset": 0,
								"slot": "4",
								"type": "t_bool"
							}
						],
						"numberOfBytes": "160"
					},
					"t_uint256": {
						"encoding": "inplace",
						"label": "uint256",
						"numberOfBytes": "32"
					}
				}
			},
			"userdoc": {
				"kind": "user",
				"methods": {},
				"version": 1
			}
		}
	}
}